{"contracts/UpdatedRentalContract.sol":{"HouseRentalContract":{"abi":[{"anonymous":false,"inputs":[{"indexed":true,"internalType":"bytes6","name":"contractId","type":"bytes6"},{"indexed":false,"internalType":"string","name":"action","type":"string"}],"name":"ContractUpdated","type":"event"},{"inputs":[{"internalType":"bytes6","name":"","type":"bytes6"},{"internalType":"uint256","name":"","type":"uint256"}],"name":"contractAuditTrails","outputs":[{"internalType":"uint256","name":"timestamp","type":"uint256"},{"internalType":"string","name":"action","type":"string"},{"internalType":"address","name":"actor","type":"address"}],"stateMutability":"view","type":"function"},{"inputs":[{"internalType":"bytes6","name":"","type":"bytes6"}],"name":"contractOwners","outputs":[{"internalType":"address","name":"","type":"address"}],"stateMutability":"view","type":"function"},{"inputs":[{"internalType":"bytes6","name":"","type":"bytes6"}],"name":"contracts","outputs":[{"internalType":"uint256","name":"creationDate","type":"uint256"},{"components":[{"internalType":"string","name":"name","type":"string"},{"internalType":"string","name":"identificationNumber","type":"string"},{"internalType":"string","name":"house_address","type":"string"}],"internalType":"struct HouseRentalContract.PersonalInfo","name":"landlord","type":"tuple"},{"components":[{"internalType":"string","name":"name","type":"string"},{"internalType":"string","name":"identificationNumber","type":"string"},{"internalType":"string","name":"house_address","type":"string"}],"internalType":"struct HouseRentalContract.PersonalInfo","name":"tenant","type":"tuple"},{"components":[{"internalType":"string","name":"rent_address","type":"string"},{"internalType":"string","name":"buildingType","type":"string"},{"internalType":"uint256","name":"rentPeriod","type":"uint256"},{"internalType":"uint256","name":"effectiveDate","type":"uint256"},{"internalType":"uint256","name":"monthlyRent","type":"uint256"},{"internalType":"string","name":"paymentMethod","type":"string"},{"internalType":"uint256","name":"maxOverduePeriod","type":"uint256"},{"internalType":"uint256","name":"deposit","type":"uint256"},{"internalType":"uint256","name":"utilityDeposit","type":"uint256"},{"internalType":"uint256","name":"advanceRental","type":"uint256"},{"internalType":"int256","name":"latitude","type":"int256"},{"internalType":"int256","name":"longitude","type":"int256"}],"internalType":"struct HouseRentalContract.HouseDetails","name":"houseDetails","type":"tuple"},{"internalType":"string","name":"agreementDetails","type":"string"},{"internalType":"string","name":"landlordSignature","type":"string"},{"internalType":"string","name":"tenantSignature","type":"string"}],"stateMutability":"view","type":"function"},{"inputs":[{"internalType":"bytes6","name":"_uniqueIdentifier","type":"bytes6"},{"components":[{"internalType":"string","name":"name","type":"string"},{"internalType":"string","name":"identificationNumber","type":"string"},{"internalType":"string","name":"house_address","type":"string"}],"internalType":"struct HouseRentalContract.PersonalInfo","name":"_landlord","type":"tuple"},{"components":[{"internalType":"string","name":"name","type":"string"},{"internalType":"string","name":"identificationNumber","type":"string"},{"internalType":"string","name":"house_address","type":"string"}],"internalType":"struct HouseRentalContract.PersonalInfo","name":"_tenant","type":"tuple"},{"components":[{"internalType":"string","name":"rent_address","type":"string"},{"internalType":"string","name":"buildingType","type":"string"},{"internalType":"uint256","name":"rentPeriod","type":"uint256"},{"internalType":"uint256","name":"effectiveDate","type":"uint256"},{"internalType":"uint256","name":"monthlyRent","type":"uint256"},{"internalType":"string","name":"paymentMethod","type":"string"},{"internalType":"uint256","name":"maxOverduePeriod","type":"uint256"},{"internalType":"uint256","name":"deposit","type":"uint256"},{"internalType":"uint256","name":"utilityDeposit","type":"uint256"},{"internalType":"uint256","name":"advanceRental","type":"uint256"},{"internalType":"int256","name":"latitude","type":"int256"},{"internalType":"int256","name":"longitude","type":"int256"}],"internalType":"struct HouseRentalContract.HouseDetails","name":"_houseDetails","type":"tuple"},{"internalType":"string","name":"_agreementDetails","type":"string"},{"internalType":"string[]","name":"_tenantAgreements","type":"string[]"},{"internalType":"string[]","name":"_landlordResponsibilities","type":"string[]"},{"internalType":"string[]","name":"_agreementsBetweenLandlord","type":"string[]"},{"internalType":"string","name":"_landlordSignature","type":"string"},{"internalType":"string","name":"_tenantSignature","type":"string"}],"name":"createContract","outputs":[],"stateMutability":"nonpayable","type":"function"},{"inputs":[{"internalType":"bytes6","name":"contractId","type":"bytes6"}],"name":"getContract","outputs":[{"components":[{"internalType":"uint256","name":"creationDate","type":"uint256"},{"components":[{"internalType":"string","name":"name","type":"string"},{"internalType":"string","name":"identificationNumber","type":"string"},{"internalType":"string","name":"house_address","type":"string"}],"internalType":"struct HouseRentalContract.PersonalInfo","name":"landlord","type":"tuple"},{"components":[{"internalType":"string","name":"name","type":"string"},{"internalType":"string","name":"identificationNumber","type":"string"},{"internalType":"string","name":"house_address","type":"string"}],"internalType":"struct HouseRentalContract.PersonalInfo","name":"tenant","type":"tuple"},{"components":[{"internalType":"string","name":"rent_address","type":"string"},{"internalType":"string","name":"buildingType","type":"string"},{"internalType":"uint256","name":"rentPeriod","type":"uint256"},{"internalType":"uint256","name":"effectiveDate","type":"uint256"},{"internalType":"uint256","name":"monthlyRent","type":"uint256"},{"internalType":"string","name":"paymentMethod","type":"string"},{"internalType":"uint256","name":"maxOverduePeriod","type":"uint256"},{"internalType":"uint256","name":"deposit","type":"uint256"},{"internalType":"uint256","name":"utilityDeposit","type":"uint256"},{"internalType":"uint256","name":"advanceRental","type":"uint256"},{"internalType":"int256","name":"latitude","type":"int256"},{"internalType":"int256","name":"longitude","type":"int256"}],"internalType":"struct HouseRentalContract.HouseDetails","name":"houseDetails","type":"tuple"},{"internalType":"string","name":"agreementDetails","type":"string"},{"internalType":"string[]","name":"tenantAgreements","type":"string[]"},{"internalType":"string[]","name":"landlordResponsibilities","type":"string[]"},{"internalType":"string[]","name":"agreementsBetweenLandlord","type":"string[]"},{"internalType":"string","name":"landlordSignature","type":"string"},{"internalType":"string","name":"tenantSignature","type":"string"}],"internalType":"struct HouseRentalContract.ContractTerms","name":"","type":"tuple"}],"stateMutability":"view","type":"function"},{"inputs":[{"internalType":"bytes6","name":"contractId","type":"bytes6"}],"name":"getContractAuditTrail","outputs":[{"components":[{"internalType":"uint256","name":"timestamp","type":"uint256"},{"internalType":"string","name":"action","type":"string"},{"internalType":"address","name":"actor","type":"address"}],"internalType":"struct HouseRentalContract.AuditTrail[]","name":"","type":"tuple[]"}],"stateMutability":"view","type":"function"},{"inputs":[{"internalType":"bytes6","name":"contractId","type":"bytes6"},{"internalType":"string","name":"_tenantSignature","type":"string"}],"name":"signContract","outputs":[],"stateMutability":"nonpayable","type":"function"},{"inputs":[{"internalType":"bytes6","name":"contractId","type":"bytes6"},{"internalType":"string","name":"_agreementDetails","type":"string"},{"internalType":"string[]","name":"_tenantAgreements","type":"string[]"},{"internalType":"string[]","name":"_landlordResponsibilities","type":"string[]"},{"internalType":"string[]","name":"_agreementsBetweenLandlord","type":"string[]"},{"internalType":"string","name":"_landlordSignature","type":"string"},{"internalType":"string","name":"_tenantSignature","type":"string"}],"name":"updateContract","outputs":[],"stateMutability":"nonpayable","type":"function"}],"evm":{"bytecode":{"linkReferences":{},"object":"608060405234801561001057600080fd5b506139f1806100206000396000f3fe608060405234801561001057600080fd5b50600436106100885760003560e01c8063a49e93601161005b578063a49e936014610155578063cc8e3dde14610171578063dd729ece146101a1578063e6355b6d146101bd57610088565b8063122b3fcb1461008d5780633ba2a56b146100bd5780633d4cc42c146100ef5780639cfa058b1461011f575b600080fd5b6100a760048036038101906100a29190612310565b6101d9565b6040516100b49190612539565b60405180910390f35b6100d760048036038101906100d29190612587565b610377565b6040516100e69392919061262f565b60405180910390f35b61010960048036038101906101049190612310565b610466565b60405161011691906129ca565b60405180910390f35b61013960048036038101906101349190612310565b610ed1565b60405161014c9796959493929190612b5c565b60405180910390f35b61016f600480360381019061016a9190613074565b611646565b005b61018b60048036038101906101869190612310565b611a7e565b604051610198919061324f565b60405180910390f35b6101bb60048036038101906101b6919061326a565b611ab1565b005b6101d760048036038101906101d291906133b4565b611e46565b005b6060600260008379ffffffffffffffffffffffffffffffffffffffffffffffffffff191679ffffffffffffffffffffffffffffffffffffffffffffffffffff19168152602001908152602001600020805480602002602001604051908101604052809291908181526020016000905b8282101561036c5783829060005260206000209060030201604051806060016040529081600082015481526020016001820180546102859061343f565b80601f01602080910402602001604051908101604052809291908181526020018280546102b19061343f565b80156102fe5780601f106102d3576101008083540402835291602001916102fe565b820191906000526020600020905b8154815290600101906020018083116102e157829003601f168201915b505050505081526020016002820160009054906101000a900473ffffffffffffffffffffffffffffffffffffffff1673ffffffffffffffffffffffffffffffffffffffff1673ffffffffffffffffffffffffffffffffffffffff168152505081526020019060010190610248565b505050509050919050565b6002602052816000526040600020818154811061039357600080fd5b9060005260206000209060030201600091509150508060000154908060010180546103bd9061343f565b80601f01602080910402602001604051908101604052809291908181526020018280546103e99061343f565b80156104365780601f1061040b57610100808354040283529160200191610436565b820191906000526020600020905b81548152906001019060200180831161041957829003601f168201915b5050505050908060020160009054906101000a900473ffffffffffffffffffffffffffffffffffffffff16905083565b61046e6120e3565b6000808379ffffffffffffffffffffffffffffffffffffffffffffffffffff191679ffffffffffffffffffffffffffffffffffffffffffffffffffff191681526020019081526020016000206040518061014001604052908160008201548152602001600182016040518060600160405290816000820180546104f09061343f565b80601f016020809104026020016040519081016040528092919081815260200182805461051c9061343f565b80156105695780601f1061053e57610100808354040283529160200191610569565b820191906000526020600020905b81548152906001019060200180831161054c57829003601f168201915b505050505081526020016001820180546105829061343f565b80601f01602080910402602001604051908101604052809291908181526020018280546105ae9061343f565b80156105fb5780601f106105d0576101008083540402835291602001916105fb565b820191906000526020600020905b8154815290600101906020018083116105de57829003601f168201915b505050505081526020016002820180546106149061343f565b80601f01602080910402602001604051908101604052809291908181526020018280546106409061343f565b801561068d5780601f106106625761010080835404028352916020019161068d565b820191906000526020600020905b81548152906001019060200180831161067057829003601f168201915b5050505050815250508152602001600482016040518060600160405290816000820180546106ba9061343f565b80601f01602080910402602001604051908101604052809291908181526020018280546106e69061343f565b80156107335780601f1061070857610100808354040283529160200191610733565b820191906000526020600020905b81548152906001019060200180831161071657829003601f168201915b5050505050815260200160018201805461074c9061343f565b80601f01602080910402602001604051908101604052809291908181526020018280546107789061343f565b80156107c55780601f1061079a576101008083540402835291602001916107c5565b820191906000526020600020905b8154815290600101906020018083116107a857829003601f168201915b505050505081526020016002820180546107de9061343f565b80601f016020809104026020016040519081016040528092919081815260200182805461080a9061343f565b80156108575780601f1061082c57610100808354040283529160200191610857565b820191906000526020600020905b81548152906001019060200180831161083a57829003601f168201915b505050505081525050815260200160078201604051806101800160405290816000820180546108859061343f565b80601f01602080910402602001604051908101604052809291908181526020018280546108b19061343f565b80156108fe5780601f106108d3576101008083540402835291602001916108fe565b820191906000526020600020905b8154815290600101906020018083116108e157829003601f168201915b505050505081526020016001820180546109179061343f565b80601f01602080910402602001604051908101604052809291908181526020018280546109439061343f565b80156109905780601f1061096557610100808354040283529160200191610990565b820191906000526020600020905b81548152906001019060200180831161097357829003601f168201915b505050505081526020016002820154815260200160038201548152602001600482015481526020016005820180546109c79061343f565b80601f01602080910402602001604051908101604052809291908181526020018280546109f39061343f565b8015610a405780601f10610a1557610100808354040283529160200191610a40565b820191906000526020600020905b815481529060010190602001808311610a2357829003601f168201915b5050505050815260200160068201548152602001600782015481526020016008820154815260200160098201548152602001600a8201548152602001600b820154815250508152602001601382018054610a999061343f565b80601f0160208091040260200160405190810160405280929190818152602001828054610ac59061343f565b8015610b125780601f10610ae757610100808354040283529160200191610b12565b820191906000526020600020905b815481529060010190602001808311610af557829003601f168201915b5050505050815260200160148201805480602002602001604051908101604052809291908181526020016000905b82821015610bec578382906000526020600020018054610b5f9061343f565b80601f0160208091040260200160405190810160405280929190818152602001828054610b8b9061343f565b8015610bd85780601f10610bad57610100808354040283529160200191610bd8565b820191906000526020600020905b815481529060010190602001808311610bbb57829003601f168201915b505050505081526020019060010190610b40565b50505050815260200160158201805480602002602001604051908101604052809291908181526020016000905b82821015610cc5578382906000526020600020018054610c389061343f565b80601f0160208091040260200160405190810160405280929190818152602001828054610c649061343f565b8015610cb15780601f10610c8657610100808354040283529160200191610cb1565b820191906000526020600020905b815481529060010190602001808311610c9457829003601f168201915b505050505081526020019060010190610c19565b50505050815260200160168201805480602002602001604051908101604052809291908181526020016000905b82821015610d9e578382906000526020600020018054610d119061343f565b80601f0160208091040260200160405190810160405280929190818152602001828054610d3d9061343f565b8015610d8a5780601f10610d5f57610100808354040283529160200191610d8a565b820191906000526020600020905b815481529060010190602001808311610d6d57829003601f168201915b505050505081526020019060010190610cf2565b505050508152602001601782018054610db69061343f565b80601f0160208091040260200160405190810160405280929190818152602001828054610de29061343f565b8015610e2f5780601f10610e0457610100808354040283529160200191610e2f565b820191906000526020600020905b815481529060010190602001808311610e1257829003601f168201915b50505050508152602001601882018054610e489061343f565b80601f0160208091040260200160405190810160405280929190818152602001828054610e749061343f565b8015610ec15780601f10610e9657610100808354040283529160200191610ec1565b820191906000526020600020905b815481529060010190602001808311610ea457829003601f168201915b5050505050815250509050919050565b600060205280600052604060002060009150905080600001549080600101604051806060016040529081600082018054610f0a9061343f565b80601f0160208091040260200160405190810160405280929190818152602001828054610f369061343f565b8015610f835780601f10610f5857610100808354040283529160200191610f83565b820191906000526020600020905b815481529060010190602001808311610f6657829003601f168201915b50505050508152602001600182018054610f9c9061343f565b80601f0160208091040260200160405190810160405280929190818152602001828054610fc89061343f565b80156110155780601f10610fea57610100808354040283529160200191611015565b820191906000526020600020905b815481529060010190602001808311610ff857829003601f168201915b5050505050815260200160028201805461102e9061343f565b80601f016020809104026020016040519081016040528092919081815260200182805461105a9061343f565b80156110a75780601f1061107c576101008083540402835291602001916110a7565b820191906000526020600020905b81548152906001019060200180831161108a57829003601f168201915b50505050508152505090806004016040518060600160405290816000820180546110d09061343f565b80601f01602080910402602001604051908101604052809291908181526020018280546110fc9061343f565b80156111495780601f1061111e57610100808354040283529160200191611149565b820191906000526020600020905b81548152906001019060200180831161112c57829003601f168201915b505050505081526020016001820180546111629061343f565b80601f016020809104026020016040519081016040528092919081815260200182805461118e9061343f565b80156111db5780601f106111b0576101008083540402835291602001916111db565b820191906000526020600020905b8154815290600101906020018083116111be57829003601f168201915b505050505081526020016002820180546111f49061343f565b80601f01602080910402602001604051908101604052809291908181526020018280546112209061343f565b801561126d5780601f106112425761010080835404028352916020019161126d565b820191906000526020600020905b81548152906001019060200180831161125057829003601f168201915b5050505050815250509080600701604051806101800160405290816000820180546112979061343f565b80601f01602080910402602001604051908101604052809291908181526020018280546112c39061343f565b80156113105780601f106112e557610100808354040283529160200191611310565b820191906000526020600020905b8154815290600101906020018083116112f357829003601f168201915b505050505081526020016001820180546113299061343f565b80601f01602080910402602001604051908101604052809291908181526020018280546113559061343f565b80156113a25780601f10611377576101008083540402835291602001916113a2565b820191906000526020600020905b81548152906001019060200180831161138557829003601f168201915b505050505081526020016002820154815260200160038201548152602001600482015481526020016005820180546113d99061343f565b80601f01602080910402602001604051908101604052809291908181526020018280546114059061343f565b80156114525780601f1061142757610100808354040283529160200191611452565b820191906000526020600020905b81548152906001019060200180831161143557829003601f168201915b5050505050815260200160068201548152602001600782015481526020016008820154815260200160098201548152602001600a8201548152602001600b82015481525050908060130180546114a79061343f565b80601f01602080910402602001604051908101604052809291908181526020018280546114d39061343f565b80156115205780601f106114f557610100808354040283529160200191611520565b820191906000526020600020905b81548152906001019060200180831161150357829003601f168201915b5050505050908060170180546115359061343f565b80601f01602080910402602001604051908101604052809291908181526020018280546115619061343f565b80156115ae5780601f10611583576101008083540402835291602001916115ae565b820191906000526020600020905b81548152906001019060200180831161159157829003601f168201915b5050505050908060180180546115c39061343f565b80601f01602080910402602001604051908101604052809291908181526020018280546115ef9061343f565b801561163c5780601f106116115761010080835404028352916020019161163c565b820191906000526020600020905b81548152906001019060200180831161161f57829003601f168201915b5050505050905087565b600073ffffffffffffffffffffffffffffffffffffffff16600160008c79ffffffffffffffffffffffffffffffffffffffffffffffffffff191679ffffffffffffffffffffffffffffffffffffffffffffffffffff1916815260200190815260200160002060009054906101000a900473ffffffffffffffffffffffffffffffffffffffff1673ffffffffffffffffffffffffffffffffffffffff1614611722576040517f08c379a0000000000000000000000000000000000000000000000000000000008152600401611719906134e2565b60405180910390fd5b60006040518061014001604052804281526020018b81526020018a8152602001898152602001888152602001878152602001868152602001858152602001848152602001838152509050806000808d79ffffffffffffffffffffffffffffffffffffffffffffffffffff191679ffffffffffffffffffffffffffffffffffffffffffffffffffff191681526020019081526020016000206000820151816000015560208201518160010160008201518160000190816117e191906136ae565b5060208201518160010190816117f791906136ae565b50604082015181600201908161180d91906136ae565b505050604082015181600401600082015181600001908161182e91906136ae565b50602082015181600101908161184491906136ae565b50604082015181600201908161185a91906136ae565b505050606082015181600701600082015181600001908161187b91906136ae565b50602082015181600101908161189191906136ae565b5060408201518160020155606082015181600301556080820151816004015560a08201518160050190816118c591906136ae565b5060c0820151816006015560e082015181600701556101008201518160080155610120820151816009015561014082015181600a015561016082015181600b01555050608082015181601301908161191d91906136ae565b5060a082015181601401908051906020019061193a929190612148565b5060c0820151816015019080519060200190611957929190612148565b5060e0820151816016019080519060200190611974929190612148565b5061010082015181601701908161198b91906136ae565b506101208201518160180190816119a291906136ae565b5090505033600160008d79ffffffffffffffffffffffffffffffffffffffffffffffffffff191679ffffffffffffffffffffffffffffffffffffffffffffffffffff1916815260200190815260200160002060006101000a81548173ffffffffffffffffffffffffffffffffffffffff021916908373ffffffffffffffffffffffffffffffffffffffff160217905550611a718b6040518060400160405280601081526020017f436f6e7472616374206372656174656400000000000000000000000000000000815250611f7a565b5050505050505050505050565b60016020528060005260406000206000915054906101000a900473ffffffffffffffffffffffffffffffffffffffff1681565b863373ffffffffffffffffffffffffffffffffffffffff16600160008379ffffffffffffffffffffffffffffffffffffffffffffffffffff191679ffffffffffffffffffffffffffffffffffffffffffffffffffff1916815260200190815260200160002060009054906101000a900473ffffffffffffffffffffffffffffffffffffffff1673ffffffffffffffffffffffffffffffffffffffff1614611b8d576040517f08c379a0000000000000000000000000000000000000000000000000000000008152600401611b84906137f2565b60405180910390fd5b876040518060400160405280601081526020017f436f6e747261637420757064617465640000000000000000000000000000000081525060008060008c79ffffffffffffffffffffffffffffffffffffffffffffffffffff191679ffffffffffffffffffffffffffffffffffffffffffffffffffff19168152602001908152602001600020905089816013019081611c2591906136ae565b5088816014019080519060200190611c3e929190612148565b5087816015019080519060200190611c57929190612148565b5086816016019080519060200190611c70929190612148565b5085816017019081611c8291906136ae565b5084816018019081611c9491906136ae565b50611cd48b6040518060400160405280601081526020017f436f6e7472616374207570646174656400000000000000000000000000000000815250611f7a565b50600260008379ffffffffffffffffffffffffffffffffffffffffffffffffffff191679ffffffffffffffffffffffffffffffffffffffffffffffffffff1916815260200190815260200160002060405180606001604052804281526020018381526020013373ffffffffffffffffffffffffffffffffffffffff168152509080600181540180825580915050600190039060005260206000209060030201600090919091909150600082015181600001556020820151816001019081611d9b91906136ae565b5060408201518160020160006101000a81548173ffffffffffffffffffffffffffffffffffffffff021916908373ffffffffffffffffffffffffffffffffffffffff16021790555050508179ffffffffffffffffffffffffffffffffffffffffffffffffffff19167f39260b782a8ff164f57d90e3b0aca40a9e250547d0eb6b8fde9b561a498b513882604051611e329190613812565b60405180910390a250505050505050505050565b816000808279ffffffffffffffffffffffffffffffffffffffffffffffffffff191679ffffffffffffffffffffffffffffffffffffffffffffffffffff19168152602001908152602001600020600401600201611ea2906138b8565b60601c73ffffffffffffffffffffffffffffffffffffffff163373ffffffffffffffffffffffffffffffffffffffff1614611f12576040517f08c379a0000000000000000000000000000000000000000000000000000000008152600401611f099061399b565b60405180910390fd5b60008060008579ffffffffffffffffffffffffffffffffffffffffffffffffffff191679ffffffffffffffffffffffffffffffffffffffffffffffffffff19168152602001908152602001600020905082816018019081611f7391906136ae565b5050505050565b600260008379ffffffffffffffffffffffffffffffffffffffffffffffffffff191679ffffffffffffffffffffffffffffffffffffffffffffffffffff1916815260200190815260200160002060405180606001604052804281526020018381526020013373ffffffffffffffffffffffffffffffffffffffff16815250908060018154018082558091505060019003906000526020600020906003020160009091909190915060008201518160000155602082015181600101908161204091906136ae565b5060408201518160020160006101000a81548173ffffffffffffffffffffffffffffffffffffffff021916908373ffffffffffffffffffffffffffffffffffffffff16021790555050508179ffffffffffffffffffffffffffffffffffffffffffffffffffff19167f39260b782a8ff164f57d90e3b0aca40a9e250547d0eb6b8fde9b561a498b5138826040516120d79190613812565b60405180910390a25050565b604051806101400160405280600081526020016120fe6121a1565b815260200161210b6121a1565b81526020016121186121c2565b81526020016060815260200160608152602001606081526020016060815260200160608152602001606081525090565b828054828255906000526020600020908101928215612190579160200282015b8281111561218f57825182908161217f91906136ae565b5091602001919060010190612168565b5b50905061219d9190612223565b5090565b60405180606001604052806060815260200160608152602001606081525090565b6040518061018001604052806060815260200160608152602001600081526020016000815260200160008152602001606081526020016000815260200160008152602001600081526020016000815260200160008152602001600081525090565b5b80821115612243576000818161223a9190612247565b50600101612224565b5090565b5080546122539061343f565b6000825580601f106122655750612284565b601f0160209004906000526020600020908101906122839190612287565b5b50565b5b808211156122a0576000816000905550600101612288565b5090565b6000604051905090565b600080fd5b600080fd5b60007fffffffffffff000000000000000000000000000000000000000000000000000082169050919050565b6122ed816122b8565b81146122f857600080fd5b50565b60008135905061230a816122e4565b92915050565b600060208284031215612326576123256122ae565b5b6000612334848285016122fb565b91505092915050565b600081519050919050565b600082825260208201905092915050565b6000819050602082019050919050565b6000819050919050565b61237c81612369565b82525050565b600081519050919050565b600082825260208201905092915050565b60005b838110156123bc5780820151818401526020810190506123a1565b60008484015250505050565b6000601f19601f8301169050919050565b60006123e482612382565b6123ee818561238d565b93506123fe81856020860161239e565b612407816123c8565b840191505092915050565b600073ffffffffffffffffffffffffffffffffffffffff82169050919050565b600061243d82612412565b9050919050565b61244d81612432565b82525050565b600060608301600083015161246b6000860182612373565b506020830151848203602086015261248382826123d9565b91505060408301516124986040860182612444565b508091505092915050565b60006124af8383612453565b905092915050565b6000602082019050919050565b60006124cf8261233d565b6124d98185612348565b9350836020820285016124eb85612359565b8060005b85811015612527578484038952815161250885826124a3565b9450612513836124b7565b925060208a019950506001810190506124ef565b50829750879550505050505092915050565b6000602082019050818103600083015261255381846124c4565b905092915050565b61256481612369565b811461256f57600080fd5b50565b6000813590506125818161255b565b92915050565b6000806040838503121561259e5761259d6122ae565b5b60006125ac858286016122fb565b92505060206125bd85828601612572565b9150509250929050565b6125d081612369565b82525050565b600082825260208201905092915050565b60006125f282612382565b6125fc81856125d6565b935061260c81856020860161239e565b612615816123c8565b840191505092915050565b61262981612432565b82525050565b600060608201905061264460008301866125c7565b818103602083015261265681856125e7565b90506126656040830184612620565b949350505050565b6000606083016000830151848203600086015261268a82826123d9565b915050602083015184820360208601526126a482826123d9565b915050604083015184820360408601526126be82826123d9565b9150508091505092915050565b6000819050919050565b6126de816126cb565b82525050565b600061018083016000830151848203600086015261270282826123d9565b9150506020830151848203602086015261271c82826123d9565b91505060408301516127316040860182612373565b5060608301516127446060860182612373565b5060808301516127576080860182612373565b5060a083015184820360a086015261276f82826123d9565b91505060c083015161278460c0860182612373565b5060e083015161279760e0860182612373565b506101008301516127ac610100860182612373565b506101208301516127c1610120860182612373565b506101408301516127d66101408601826126d5565b506101608301516127eb6101608601826126d5565b508091505092915050565b600081519050919050565b600082825260208201905092915050565b6000819050602082019050919050565b600061282e83836123d9565b905092915050565b6000602082019050919050565b600061284e826127f6565b6128588185612801565b93508360208202850161286a85612812565b8060005b858110156128a657848403895281516128878582612822565b945061289283612836565b925060208a0199505060018101905061286e565b50829750879550505050505092915050565b6000610140830160008301516128d16000860182612373565b50602083015184820360208601526128e9828261266d565b91505060408301518482036040860152612903828261266d565b9150506060830151848203606086015261291d82826126e4565b9150506080830151848203608086015261293782826123d9565b91505060a083015184820360a08601526129518282612843565b91505060c083015184820360c086015261296b8282612843565b91505060e083015184820360e08601526129858282612843565b9150506101008301518482036101008601526129a182826123d9565b9150506101208301518482036101208601526129bd82826123d9565b9150508091505092915050565b600060208201905081810360008301526129e481846128b8565b905092915050565b60006060830160008301518482036000860152612a0982826123d9565b91505060208301518482036020860152612a2382826123d9565b91505060408301518482036040860152612a3d82826123d9565b9150508091505092915050565b6000610180830160008301518482036000860152612a6882826123d9565b91505060208301518482036020860152612a8282826123d9565b9150506040830151612a976040860182612373565b506060830151612aaa6060860182612373565b506080830151612abd6080860182612373565b5060a083015184820360a0860152612ad582826123d9565b91505060c0830151612aea60c0860182612373565b5060e0830151612afd60e0860182612373565b50610100830151612b12610100860182612373565b50610120830151612b27610120860182612373565b50610140830151612b3c6101408601826126d5565b50610160830151612b516101608601826126d5565b508091505092915050565b600060e082019050612b71600083018a6125c7565b8181036020830152612b8381896129ec565b90508181036040830152612b9781886129ec565b90508181036060830152612bab8187612a4a565b90508181036080830152612bbf81866125e7565b905081810360a0830152612bd381856125e7565b905081810360c0830152612be781846125e7565b905098975050505050505050565b600080fd5b7f4e487b7100000000000000000000000000000000000000000000000000000000600052604160045260246000fd5b612c32826123c8565b810181811067ffffffffffffffff82111715612c5157612c50612bfa565b5b80604052505050565b6000612c646122a4565b9050612c708282612c29565b919050565b600080fd5b600080fd5b600080fd5b600067ffffffffffffffff821115612c9f57612c9e612bfa565b5b612ca8826123c8565b9050602081019050919050565b82818337600083830152505050565b6000612cd7612cd284612c84565b612c5a565b905082815260208101848484011115612cf357612cf2612c7f565b5b612cfe848285612cb5565b509392505050565b600082601f830112612d1b57612d1a612c7a565b5b8135612d2b848260208601612cc4565b91505092915050565b600060608284031215612d4a57612d49612bf5565b5b612d546060612c5a565b9050600082013567ffffffffffffffff811115612d7457612d73612c75565b5b612d8084828501612d06565b600083015250602082013567ffffffffffffffff811115612da457612da3612c75565b5b612db084828501612d06565b602083015250604082013567ffffffffffffffff811115612dd457612dd3612c75565b5b612de084828501612d06565b60408301525092915050565b612df5816126cb565b8114612e0057600080fd5b50565b600081359050612e1281612dec565b92915050565b60006101808284031215612e2f57612e2e612bf5565b5b612e3a610180612c5a565b9050600082013567ffffffffffffffff811115612e5a57612e59612c75565b5b612e6684828501612d06565b600083015250602082013567ffffffffffffffff811115612e8a57612e89612c75565b5b612e9684828501612d06565b6020830152506040612eaa84828501612572565b6040830152506060612ebe84828501612572565b6060830152506080612ed284828501612572565b60808301525060a082013567ffffffffffffffff811115612ef657612ef5612c75565b5b612f0284828501612d06565b60a08301525060c0612f1684828501612572565b60c08301525060e0612f2a84828501612572565b60e083015250610100612f3f84828501612572565b61010083015250610120612f5584828501612572565b61012083015250610140612f6b84828501612e03565b61014083015250610160612f8184828501612e03565b6101608301525092915050565b600067ffffffffffffffff821115612fa957612fa8612bfa565b5b602082029050602081019050919050565b600080fd5b6000612fd2612fcd84612f8e565b612c5a565b90508083825260208201905060208402830185811115612ff557612ff4612fba565b5b835b8181101561303c57803567ffffffffffffffff81111561301a57613019612c7a565b5b8086016130278982612d06565b85526020850194505050602081019050612ff7565b5050509392505050565b600082601f83011261305b5761305a612c7a565b5b813561306b848260208601612fbf565b91505092915050565b6000806000806000806000806000806101408b8d031215613098576130976122ae565b5b60006130a68d828e016122fb565b9a505060208b013567ffffffffffffffff8111156130c7576130c66122b3565b5b6130d38d828e01612d34565b99505060408b013567ffffffffffffffff8111156130f4576130f36122b3565b5b6131008d828e01612d34565b98505060608b013567ffffffffffffffff811115613121576131206122b3565b5b61312d8d828e01612e18565b97505060808b013567ffffffffffffffff81111561314e5761314d6122b3565b5b61315a8d828e01612d06565b96505060a08b013567ffffffffffffffff81111561317b5761317a6122b3565b5b6131878d828e01613046565b95505060c08b013567ffffffffffffffff8111156131a8576131a76122b3565b5b6131b48d828e01613046565b94505060e08b013567ffffffffffffffff8111156131d5576131d46122b3565b5b6131e18d828e01613046565b9350506101008b013567ffffffffffffffff811115613203576132026122b3565b5b61320f8d828e01612d06565b9250506101208b013567ffffffffffffffff811115613231576132306122b3565b5b61323d8d828e01612d06565b9150509295989b9194979a5092959850565b60006020820190506132646000830184612620565b92915050565b600080600080600080600060e0888a031215613289576132886122ae565b5b60006132978a828b016122fb565b975050602088013567ffffffffffffffff8111156132b8576132b76122b3565b5b6132c48a828b01612d06565b965050604088013567ffffffffffffffff8111156132e5576132e46122b3565b5b6132f18a828b01613046565b955050606088013567ffffffffffffffff811115613312576133116122b3565b5b61331e8a828b01613046565b945050608088013567ffffffffffffffff81111561333f5761333e6122b3565b5b61334b8a828b01613046565b93505060a088013567ffffffffffffffff81111561336c5761336b6122b3565b5b6133788a828b01612d06565b92505060c088013567ffffffffffffffff811115613399576133986122b3565b5b6133a58a828b01612d06565b91505092959891949750929550565b600080604083850312156133cb576133ca6122ae565b5b60006133d9858286016122fb565b925050602083013567ffffffffffffffff8111156133fa576133f96122b3565b5b61340685828601612d06565b9150509250929050565b7f4e487b7100000000000000000000000000000000000000000000000000000000600052602260045260246000fd5b6000600282049050600182168061345757607f821691505b60208210810361346a57613469613410565b5b50919050565b7f436f6e7472616374207769746820676976656e206964656e746966696572206160008201527f6c72656164792065786973747300000000000000000000000000000000000000602082015250565b60006134cc602d836125d6565b91506134d782613470565b604082019050919050565b600060208201905081810360008301526134fb816134bf565b9050919050565b60008190508160005260206000209050919050565b60006020601f8301049050919050565b600082821b905092915050565b6000600883026135647fffffffffffffffffffffffffffffffffffffffffffffffffffffffffffffffff82613527565b61356e8683613527565b95508019841693508086168417925050509392505050565b6000819050919050565b60006135ab6135a66135a184612369565b613586565b612369565b9050919050565b6000819050919050565b6135c583613590565b6135d96135d1826135b2565b848454613534565b825550505050565b600090565b6135ee6135e1565b6135f98184846135bc565b505050565b5b8181101561361d576136126000826135e6565b6001810190506135ff565b5050565b601f8211156136625761363381613502565b61363c84613517565b8101602085101561364b578190505b61365f61365785613517565b8301826135fe565b50505b505050565b600082821c905092915050565b600061368560001984600802613667565b1980831691505092915050565b600061369e8383613674565b9150826002028217905092915050565b6136b782612382565b67ffffffffffffffff8111156136d0576136cf612bfa565b5b6136da825461343f565b6136e5828285613621565b600060209050601f8311600181146137185760008415613706578287015190505b6137108582613692565b865550613778565b601f19841661372686613502565b60005b8281101561374e57848901518255600182019150602085019450602081019050613729565b8683101561376b5784890151613767601f891682613674565b8355505b6001600288020188555050505b505050505050565b7f4f6e6c79206c616e646c6f72642063616e20706572666f726d2074686973206160008201527f6374696f6e000000000000000000000000000000000000000000000000000000602082015250565b60006137dc6025836125d6565b91506137e782613780565b604082019050919050565b6000602082019050818103600083015261380b816137cf565b9050919050565b6000602082019050818103600083015261382c81846125e7565b905092915050565b6000815490506138438161343f565b9050919050565b60008190508160005260206000209050919050565b60008160601c9050919050565b60008160601b9050919050565b60006138848261386c565b9050919050565b600061389e6138998361385f565b613879565b9050919050565b60006138b1825461388b565b9050919050565b60006138c382613834565b82601f8211156138d9576138d68461384a565b90505b6138e2816138a5565b925060148210156139225761391d7fffffffffffffffffffffffffffffffffffffffff00000000000000000000000083601403600802613527565b831692505b5050919050565b7f4f6e6c79207468652074656e616e742063616e20706572666f726d207468697360008201527f20616374696f6e00000000000000000000000000000000000000000000000000602082015250565b60006139856027836125d6565b915061399082613929565b604082019050919050565b600060208201905081810360008301526139b481613978565b905091905056fea2646970667358221220e80dcf6aafab0bade5eb479334d122a56f666417588d98dcf7fa4ec7afc6d54b64736f6c63430008180033","opcodes":"PUSH1 0x80 PUSH1 0x40 MSTORE CALLVALUE DUP1 ISZERO PUSH2 0x10 JUMPI PUSH1 0x0 DUP1 REVERT JUMPDEST POP PUSH2 0x39F1 DUP1 PUSH2 0x20 PUSH1 0x0 CODECOPY PUSH1 0x0 RETURN INVALID PUSH1 0x80 PUSH1 0x40 MSTORE CALLVALUE DUP1 ISZERO PUSH2 0x10 JUMPI PUSH1 0x0 DUP1 REVERT JUMPDEST POP PUSH1 0x4 CALLDATASIZE LT PUSH2 0x88 JUMPI PUSH1 0x0 CALLDATALOAD PUSH1 0xE0 SHR DUP1 PUSH4 0xA49E9360 GT PUSH2 0x5B JUMPI DUP1 PUSH4 0xA49E9360 EQ PUSH2 0x155 JUMPI DUP1 PUSH4 0xCC8E3DDE EQ PUSH2 0x171 JUMPI DUP1 PUSH4 0xDD729ECE EQ PUSH2 0x1A1 JUMPI DUP1 PUSH4 0xE6355B6D EQ PUSH2 0x1BD JUMPI PUSH2 0x88 JUMP JUMPDEST DUP1 PUSH4 0x122B3FCB EQ PUSH2 0x8D JUMPI DUP1 PUSH4 0x3BA2A56B EQ PUSH2 0xBD JUMPI DUP1 PUSH4 0x3D4CC42C EQ PUSH2 0xEF JUMPI DUP1 PUSH4 0x9CFA058B EQ PUSH2 0x11F JUMPI JUMPDEST PUSH1 0x0 DUP1 REVERT JUMPDEST PUSH2 0xA7 PUSH1 0x4 DUP1 CALLDATASIZE SUB DUP2 ADD SWAP1 PUSH2 0xA2 SWAP2 SWAP1 PUSH2 0x2310 JUMP JUMPDEST PUSH2 0x1D9 JUMP JUMPDEST PUSH1 0x40 MLOAD PUSH2 0xB4 SWAP2 SWAP1 PUSH2 0x2539 JUMP JUMPDEST PUSH1 0x40 MLOAD DUP1 SWAP2 SUB SWAP1 RETURN JUMPDEST PUSH2 0xD7 PUSH1 0x4 DUP1 CALLDATASIZE SUB DUP2 ADD SWAP1 PUSH2 0xD2 SWAP2 SWAP1 PUSH2 0x2587 JUMP JUMPDEST PUSH2 0x377 JUMP JUMPDEST PUSH1 0x40 MLOAD PUSH2 0xE6 SWAP4 SWAP3 SWAP2 SWAP1 PUSH2 0x262F JUMP JUMPDEST PUSH1 0x40 MLOAD DUP1 SWAP2 SUB SWAP1 RETURN JUMPDEST PUSH2 0x109 PUSH1 0x4 DUP1 CALLDATASIZE SUB DUP2 ADD SWAP1 PUSH2 0x104 SWAP2 SWAP1 PUSH2 0x2310 JUMP JUMPDEST PUSH2 0x466 JUMP JUMPDEST PUSH1 0x40 MLOAD PUSH2 0x116 SWAP2 SWAP1 PUSH2 0x29CA JUMP JUMPDEST PUSH1 0x40 MLOAD DUP1 SWAP2 SUB SWAP1 RETURN JUMPDEST PUSH2 0x139 PUSH1 0x4 DUP1 CALLDATASIZE SUB DUP2 ADD SWAP1 PUSH2 0x134 SWAP2 SWAP1 PUSH2 0x2310 JUMP JUMPDEST PUSH2 0xED1 JUMP JUMPDEST PUSH1 0x40 MLOAD PUSH2 0x14C SWAP8 SWAP7 SWAP6 SWAP5 SWAP4 SWAP3 SWAP2 SWAP1 PUSH2 0x2B5C JUMP JUMPDEST PUSH1 0x40 MLOAD DUP1 SWAP2 SUB SWAP1 RETURN JUMPDEST PUSH2 0x16F PUSH1 0x4 DUP1 CALLDATASIZE SUB DUP2 ADD SWAP1 PUSH2 0x16A SWAP2 SWAP1 PUSH2 0x3074 JUMP JUMPDEST PUSH2 0x1646 JUMP JUMPDEST STOP JUMPDEST PUSH2 0x18B PUSH1 0x4 DUP1 CALLDATASIZE SUB DUP2 ADD SWAP1 PUSH2 0x186 SWAP2 SWAP1 PUSH2 0x2310 JUMP JUMPDEST PUSH2 0x1A7E JUMP JUMPDEST PUSH1 0x40 MLOAD PUSH2 0x198 SWAP2 SWAP1 PUSH2 0x324F JUMP JUMPDEST PUSH1 0x40 MLOAD DUP1 SWAP2 SUB SWAP1 RETURN JUMPDEST PUSH2 0x1BB PUSH1 0x4 DUP1 CALLDATASIZE SUB DUP2 ADD SWAP1 PUSH2 0x1B6 SWAP2 SWAP1 PUSH2 0x326A JUMP JUMPDEST PUSH2 0x1AB1 JUMP JUMPDEST STOP JUMPDEST PUSH2 0x1D7 PUSH1 0x4 DUP1 CALLDATASIZE SUB DUP2 ADD SWAP1 PUSH2 0x1D2 SWAP2 SWAP1 PUSH2 0x33B4 JUMP JUMPDEST PUSH2 0x1E46 JUMP JUMPDEST STOP JUMPDEST PUSH1 0x60 PUSH1 0x2 PUSH1 0x0 DUP4 PUSH26 0xFFFFFFFFFFFFFFFFFFFFFFFFFFFFFFFFFFFFFFFFFFFFFFFFFFFF NOT AND PUSH26 0xFFFFFFFFFFFFFFFFFFFFFFFFFFFFFFFFFFFFFFFFFFFFFFFFFFFF NOT AND DUP2 MSTORE PUSH1 0x20 ADD SWAP1 DUP2 MSTORE PUSH1 0x20 ADD PUSH1 0x0 KECCAK256 DUP1 SLOAD DUP1 PUSH1 0x20 MUL PUSH1 0x20 ADD PUSH1 0x40 MLOAD SWAP1 DUP2 ADD PUSH1 0x40 MSTORE DUP1 SWAP3 SWAP2 SWAP1 DUP2 DUP2 MSTORE PUSH1 0x20 ADD PUSH1 0x0 SWAP1 JUMPDEST DUP3 DUP3 LT ISZERO PUSH2 0x36C JUMPI DUP4 DUP3 SWAP1 PUSH1 0x0 MSTORE PUSH1 0x20 PUSH1 0x0 KECCAK256 SWAP1 PUSH1 0x3 MUL ADD PUSH1 0x40 MLOAD DUP1 PUSH1 0x60 ADD PUSH1 0x40 MSTORE SWAP1 DUP2 PUSH1 0x0 DUP3 ADD SLOAD DUP2 MSTORE PUSH1 0x20 ADD PUSH1 0x1 DUP3 ADD DUP1 SLOAD PUSH2 0x285 SWAP1 PUSH2 0x343F JUMP JUMPDEST DUP1 PUSH1 0x1F ADD PUSH1 0x20 DUP1 SWAP2 DIV MUL PUSH1 0x20 ADD PUSH1 0x40 MLOAD SWAP1 DUP2 ADD PUSH1 0x40 MSTORE DUP1 SWAP3 SWAP2 SWAP1 DUP2 DUP2 MSTORE PUSH1 0x20 ADD DUP3 DUP1 SLOAD PUSH2 0x2B1 SWAP1 PUSH2 0x343F JUMP JUMPDEST DUP1 ISZERO PUSH2 0x2FE JUMPI DUP1 PUSH1 0x1F LT PUSH2 0x2D3 JUMPI PUSH2 0x100 DUP1 DUP4 SLOAD DIV MUL DUP4 MSTORE SWAP2 PUSH1 0x20 ADD SWAP2 PUSH2 0x2FE JUMP JUMPDEST DUP3 ADD SWAP2 SWAP1 PUSH1 0x0 MSTORE PUSH1 0x20 PUSH1 0x0 KECCAK256 SWAP1 JUMPDEST DUP2 SLOAD DUP2 MSTORE SWAP1 PUSH1 0x1 ADD SWAP1 PUSH1 0x20 ADD DUP1 DUP4 GT PUSH2 0x2E1 JUMPI DUP3 SWAP1 SUB PUSH1 0x1F AND DUP3 ADD SWAP2 JUMPDEST POP POP POP POP POP DUP2 MSTORE PUSH1 0x20 ADD PUSH1 0x2 DUP3 ADD PUSH1 0x0 SWAP1 SLOAD SWAP1 PUSH2 0x100 EXP SWAP1 DIV PUSH20 0xFFFFFFFFFFFFFFFFFFFFFFFFFFFFFFFFFFFFFFFF AND PUSH20 0xFFFFFFFFFFFFFFFFFFFFFFFFFFFFFFFFFFFFFFFF AND PUSH20 0xFFFFFFFFFFFFFFFFFFFFFFFFFFFFFFFFFFFFFFFF AND DUP2 MSTORE POP POP DUP2 MSTORE PUSH1 0x20 ADD SWAP1 PUSH1 0x1 ADD SWAP1 PUSH2 0x248 JUMP JUMPDEST POP POP POP POP SWAP1 POP SWAP2 SWAP1 POP JUMP JUMPDEST PUSH1 0x2 PUSH1 0x20 MSTORE DUP2 PUSH1 0x0 MSTORE PUSH1 0x40 PUSH1 0x0 KECCAK256 DUP2 DUP2 SLOAD DUP2 LT PUSH2 0x393 JUMPI PUSH1 0x0 DUP1 REVERT JUMPDEST SWAP1 PUSH1 0x0 MSTORE PUSH1 0x20 PUSH1 0x0 KECCAK256 SWAP1 PUSH1 0x3 MUL ADD PUSH1 0x0 SWAP2 POP SWAP2 POP POP DUP1 PUSH1 0x0 ADD SLOAD SWAP1 DUP1 PUSH1 0x1 ADD DUP1 SLOAD PUSH2 0x3BD SWAP1 PUSH2 0x343F JUMP JUMPDEST DUP1 PUSH1 0x1F ADD PUSH1 0x20 DUP1 SWAP2 DIV MUL PUSH1 0x20 ADD PUSH1 0x40 MLOAD SWAP1 DUP2 ADD PUSH1 0x40 MSTORE DUP1 SWAP3 SWAP2 SWAP1 DUP2 DUP2 MSTORE PUSH1 0x20 ADD DUP3 DUP1 SLOAD PUSH2 0x3E9 SWAP1 PUSH2 0x343F JUMP JUMPDEST DUP1 ISZERO PUSH2 0x436 JUMPI DUP1 PUSH1 0x1F LT PUSH2 0x40B JUMPI PUSH2 0x100 DUP1 DUP4 SLOAD DIV MUL DUP4 MSTORE SWAP2 PUSH1 0x20 ADD SWAP2 PUSH2 0x436 JUMP JUMPDEST DUP3 ADD SWAP2 SWAP1 PUSH1 0x0 MSTORE PUSH1 0x20 PUSH1 0x0 KECCAK256 SWAP1 JUMPDEST DUP2 SLOAD DUP2 MSTORE SWAP1 PUSH1 0x1 ADD SWAP1 PUSH1 0x20 ADD DUP1 DUP4 GT PUSH2 0x419 JUMPI DUP3 SWAP1 SUB PUSH1 0x1F AND DUP3 ADD SWAP2 JUMPDEST POP POP POP POP POP SWAP1 DUP1 PUSH1 0x2 ADD PUSH1 0x0 SWAP1 SLOAD SWAP1 PUSH2 0x100 EXP SWAP1 DIV PUSH20 0xFFFFFFFFFFFFFFFFFFFFFFFFFFFFFFFFFFFFFFFF AND SWAP1 POP DUP4 JUMP JUMPDEST PUSH2 0x46E PUSH2 0x20E3 JUMP JUMPDEST PUSH1 0x0 DUP1 DUP4 PUSH26 0xFFFFFFFFFFFFFFFFFFFFFFFFFFFFFFFFFFFFFFFFFFFFFFFFFFFF NOT AND PUSH26 0xFFFFFFFFFFFFFFFFFFFFFFFFFFFFFFFFFFFFFFFFFFFFFFFFFFFF NOT AND DUP2 MSTORE PUSH1 0x20 ADD SWAP1 DUP2 MSTORE PUSH1 0x20 ADD PUSH1 0x0 KECCAK256 PUSH1 0x40 MLOAD DUP1 PUSH2 0x140 ADD PUSH1 0x40 MSTORE SWAP1 DUP2 PUSH1 0x0 DUP3 ADD SLOAD DUP2 MSTORE PUSH1 0x20 ADD PUSH1 0x1 DUP3 ADD PUSH1 0x40 MLOAD DUP1 PUSH1 0x60 ADD PUSH1 0x40 MSTORE SWAP1 DUP2 PUSH1 0x0 DUP3 ADD DUP1 SLOAD PUSH2 0x4F0 SWAP1 PUSH2 0x343F JUMP JUMPDEST DUP1 PUSH1 0x1F ADD PUSH1 0x20 DUP1 SWAP2 DIV MUL PUSH1 0x20 ADD PUSH1 0x40 MLOAD SWAP1 DUP2 ADD PUSH1 0x40 MSTORE DUP1 SWAP3 SWAP2 SWAP1 DUP2 DUP2 MSTORE PUSH1 0x20 ADD DUP3 DUP1 SLOAD PUSH2 0x51C SWAP1 PUSH2 0x343F JUMP JUMPDEST DUP1 ISZERO PUSH2 0x569 JUMPI DUP1 PUSH1 0x1F LT PUSH2 0x53E JUMPI PUSH2 0x100 DUP1 DUP4 SLOAD DIV MUL DUP4 MSTORE SWAP2 PUSH1 0x20 ADD SWAP2 PUSH2 0x569 JUMP JUMPDEST DUP3 ADD SWAP2 SWAP1 PUSH1 0x0 MSTORE PUSH1 0x20 PUSH1 0x0 KECCAK256 SWAP1 JUMPDEST DUP2 SLOAD DUP2 MSTORE SWAP1 PUSH1 0x1 ADD SWAP1 PUSH1 0x20 ADD DUP1 DUP4 GT PUSH2 0x54C JUMPI DUP3 SWAP1 SUB PUSH1 0x1F AND DUP3 ADD SWAP2 JUMPDEST POP POP POP POP POP DUP2 MSTORE PUSH1 0x20 ADD PUSH1 0x1 DUP3 ADD DUP1 SLOAD PUSH2 0x582 SWAP1 PUSH2 0x343F JUMP JUMPDEST DUP1 PUSH1 0x1F ADD PUSH1 0x20 DUP1 SWAP2 DIV MUL PUSH1 0x20 ADD PUSH1 0x40 MLOAD SWAP1 DUP2 ADD PUSH1 0x40 MSTORE DUP1 SWAP3 SWAP2 SWAP1 DUP2 DUP2 MSTORE PUSH1 0x20 ADD DUP3 DUP1 SLOAD PUSH2 0x5AE SWAP1 PUSH2 0x343F JUMP JUMPDEST DUP1 ISZERO PUSH2 0x5FB JUMPI DUP1 PUSH1 0x1F LT PUSH2 0x5D0 JUMPI PUSH2 0x100 DUP1 DUP4 SLOAD DIV MUL DUP4 MSTORE SWAP2 PUSH1 0x20 ADD SWAP2 PUSH2 0x5FB JUMP JUMPDEST DUP3 ADD SWAP2 SWAP1 PUSH1 0x0 MSTORE PUSH1 0x20 PUSH1 0x0 KECCAK256 SWAP1 JUMPDEST DUP2 SLOAD DUP2 MSTORE SWAP1 PUSH1 0x1 ADD SWAP1 PUSH1 0x20 ADD DUP1 DUP4 GT PUSH2 0x5DE JUMPI DUP3 SWAP1 SUB PUSH1 0x1F AND DUP3 ADD SWAP2 JUMPDEST POP POP POP POP POP DUP2 MSTORE PUSH1 0x20 ADD PUSH1 0x2 DUP3 ADD DUP1 SLOAD PUSH2 0x614 SWAP1 PUSH2 0x343F JUMP JUMPDEST DUP1 PUSH1 0x1F ADD PUSH1 0x20 DUP1 SWAP2 DIV MUL PUSH1 0x20 ADD PUSH1 0x40 MLOAD SWAP1 DUP2 ADD PUSH1 0x40 MSTORE DUP1 SWAP3 SWAP2 SWAP1 DUP2 DUP2 MSTORE PUSH1 0x20 ADD DUP3 DUP1 SLOAD PUSH2 0x640 SWAP1 PUSH2 0x343F JUMP JUMPDEST DUP1 ISZERO PUSH2 0x68D JUMPI DUP1 PUSH1 0x1F LT PUSH2 0x662 JUMPI PUSH2 0x100 DUP1 DUP4 SLOAD DIV MUL DUP4 MSTORE SWAP2 PUSH1 0x20 ADD SWAP2 PUSH2 0x68D JUMP JUMPDEST DUP3 ADD SWAP2 SWAP1 PUSH1 0x0 MSTORE PUSH1 0x20 PUSH1 0x0 KECCAK256 SWAP1 JUMPDEST DUP2 SLOAD DUP2 MSTORE SWAP1 PUSH1 0x1 ADD SWAP1 PUSH1 0x20 ADD DUP1 DUP4 GT PUSH2 0x670 JUMPI DUP3 SWAP1 SUB PUSH1 0x1F AND DUP3 ADD SWAP2 JUMPDEST POP POP POP POP POP DUP2 MSTORE POP POP DUP2 MSTORE PUSH1 0x20 ADD PUSH1 0x4 DUP3 ADD PUSH1 0x40 MLOAD DUP1 PUSH1 0x60 ADD PUSH1 0x40 MSTORE SWAP1 DUP2 PUSH1 0x0 DUP3 ADD DUP1 SLOAD PUSH2 0x6BA SWAP1 PUSH2 0x343F JUMP JUMPDEST DUP1 PUSH1 0x1F ADD PUSH1 0x20 DUP1 SWAP2 DIV MUL PUSH1 0x20 ADD PUSH1 0x40 MLOAD SWAP1 DUP2 ADD PUSH1 0x40 MSTORE DUP1 SWAP3 SWAP2 SWAP1 DUP2 DUP2 MSTORE PUSH1 0x20 ADD DUP3 DUP1 SLOAD PUSH2 0x6E6 SWAP1 PUSH2 0x343F JUMP JUMPDEST DUP1 ISZERO PUSH2 0x733 JUMPI DUP1 PUSH1 0x1F LT PUSH2 0x708 JUMPI PUSH2 0x100 DUP1 DUP4 SLOAD DIV MUL DUP4 MSTORE SWAP2 PUSH1 0x20 ADD SWAP2 PUSH2 0x733 JUMP JUMPDEST DUP3 ADD SWAP2 SWAP1 PUSH1 0x0 MSTORE PUSH1 0x20 PUSH1 0x0 KECCAK256 SWAP1 JUMPDEST DUP2 SLOAD DUP2 MSTORE SWAP1 PUSH1 0x1 ADD SWAP1 PUSH1 0x20 ADD DUP1 DUP4 GT PUSH2 0x716 JUMPI DUP3 SWAP1 SUB PUSH1 0x1F AND DUP3 ADD SWAP2 JUMPDEST POP POP POP POP POP DUP2 MSTORE PUSH1 0x20 ADD PUSH1 0x1 DUP3 ADD DUP1 SLOAD PUSH2 0x74C SWAP1 PUSH2 0x343F JUMP JUMPDEST DUP1 PUSH1 0x1F ADD PUSH1 0x20 DUP1 SWAP2 DIV MUL PUSH1 0x20 ADD PUSH1 0x40 MLOAD SWAP1 DUP2 ADD PUSH1 0x40 MSTORE DUP1 SWAP3 SWAP2 SWAP1 DUP2 DUP2 MSTORE PUSH1 0x20 ADD DUP3 DUP1 SLOAD PUSH2 0x778 SWAP1 PUSH2 0x343F JUMP JUMPDEST DUP1 ISZERO PUSH2 0x7C5 JUMPI DUP1 PUSH1 0x1F LT PUSH2 0x79A JUMPI PUSH2 0x100 DUP1 DUP4 SLOAD DIV MUL DUP4 MSTORE SWAP2 PUSH1 0x20 ADD SWAP2 PUSH2 0x7C5 JUMP JUMPDEST DUP3 ADD SWAP2 SWAP1 PUSH1 0x0 MSTORE PUSH1 0x20 PUSH1 0x0 KECCAK256 SWAP1 JUMPDEST DUP2 SLOAD DUP2 MSTORE SWAP1 PUSH1 0x1 ADD SWAP1 PUSH1 0x20 ADD DUP1 DUP4 GT PUSH2 0x7A8 JUMPI DUP3 SWAP1 SUB PUSH1 0x1F AND DUP3 ADD SWAP2 JUMPDEST POP POP POP POP POP DUP2 MSTORE PUSH1 0x20 ADD PUSH1 0x2 DUP3 ADD DUP1 SLOAD PUSH2 0x7DE SWAP1 PUSH2 0x343F JUMP JUMPDEST DUP1 PUSH1 0x1F ADD PUSH1 0x20 DUP1 SWAP2 DIV MUL PUSH1 0x20 ADD PUSH1 0x40 MLOAD SWAP1 DUP2 ADD PUSH1 0x40 MSTORE DUP1 SWAP3 SWAP2 SWAP1 DUP2 DUP2 MSTORE PUSH1 0x20 ADD DUP3 DUP1 SLOAD PUSH2 0x80A SWAP1 PUSH2 0x343F JUMP JUMPDEST DUP1 ISZERO PUSH2 0x857 JUMPI DUP1 PUSH1 0x1F LT PUSH2 0x82C JUMPI PUSH2 0x100 DUP1 DUP4 SLOAD DIV MUL DUP4 MSTORE SWAP2 PUSH1 0x20 ADD SWAP2 PUSH2 0x857 JUMP JUMPDEST DUP3 ADD SWAP2 SWAP1 PUSH1 0x0 MSTORE PUSH1 0x20 PUSH1 0x0 KECCAK256 SWAP1 JUMPDEST DUP2 SLOAD DUP2 MSTORE SWAP1 PUSH1 0x1 ADD SWAP1 PUSH1 0x20 ADD DUP1 DUP4 GT PUSH2 0x83A JUMPI DUP3 SWAP1 SUB PUSH1 0x1F AND DUP3 ADD SWAP2 JUMPDEST POP POP POP POP POP DUP2 MSTORE POP POP DUP2 MSTORE PUSH1 0x20 ADD PUSH1 0x7 DUP3 ADD PUSH1 0x40 MLOAD DUP1 PUSH2 0x180 ADD PUSH1 0x40 MSTORE SWAP1 DUP2 PUSH1 0x0 DUP3 ADD DUP1 SLOAD PUSH2 0x885 SWAP1 PUSH2 0x343F JUMP JUMPDEST DUP1 PUSH1 0x1F ADD PUSH1 0x20 DUP1 SWAP2 DIV MUL PUSH1 0x20 ADD PUSH1 0x40 MLOAD SWAP1 DUP2 ADD PUSH1 0x40 MSTORE DUP1 SWAP3 SWAP2 SWAP1 DUP2 DUP2 MSTORE PUSH1 0x20 ADD DUP3 DUP1 SLOAD PUSH2 0x8B1 SWAP1 PUSH2 0x343F JUMP JUMPDEST DUP1 ISZERO PUSH2 0x8FE JUMPI DUP1 PUSH1 0x1F LT PUSH2 0x8D3 JUMPI PUSH2 0x100 DUP1 DUP4 SLOAD DIV MUL DUP4 MSTORE SWAP2 PUSH1 0x20 ADD SWAP2 PUSH2 0x8FE JUMP JUMPDEST DUP3 ADD SWAP2 SWAP1 PUSH1 0x0 MSTORE PUSH1 0x20 PUSH1 0x0 KECCAK256 SWAP1 JUMPDEST DUP2 SLOAD DUP2 MSTORE SWAP1 PUSH1 0x1 ADD SWAP1 PUSH1 0x20 ADD DUP1 DUP4 GT PUSH2 0x8E1 JUMPI DUP3 SWAP1 SUB PUSH1 0x1F AND DUP3 ADD SWAP2 JUMPDEST POP POP POP POP POP DUP2 MSTORE PUSH1 0x20 ADD PUSH1 0x1 DUP3 ADD DUP1 SLOAD PUSH2 0x917 SWAP1 PUSH2 0x343F JUMP JUMPDEST DUP1 PUSH1 0x1F ADD PUSH1 0x20 DUP1 SWAP2 DIV MUL PUSH1 0x20 ADD PUSH1 0x40 MLOAD SWAP1 DUP2 ADD PUSH1 0x40 MSTORE DUP1 SWAP3 SWAP2 SWAP1 DUP2 DUP2 MSTORE PUSH1 0x20 ADD DUP3 DUP1 SLOAD PUSH2 0x943 SWAP1 PUSH2 0x343F JUMP JUMPDEST DUP1 ISZERO PUSH2 0x990 JUMPI DUP1 PUSH1 0x1F LT PUSH2 0x965 JUMPI PUSH2 0x100 DUP1 DUP4 SLOAD DIV MUL DUP4 MSTORE SWAP2 PUSH1 0x20 ADD SWAP2 PUSH2 0x990 JUMP JUMPDEST DUP3 ADD SWAP2 SWAP1 PUSH1 0x0 MSTORE PUSH1 0x20 PUSH1 0x0 KECCAK256 SWAP1 JUMPDEST DUP2 SLOAD DUP2 MSTORE SWAP1 PUSH1 0x1 ADD SWAP1 PUSH1 0x20 ADD DUP1 DUP4 GT PUSH2 0x973 JUMPI DUP3 SWAP1 SUB PUSH1 0x1F AND DUP3 ADD SWAP2 JUMPDEST POP POP POP POP POP DUP2 MSTORE PUSH1 0x20 ADD PUSH1 0x2 DUP3 ADD SLOAD DUP2 MSTORE PUSH1 0x20 ADD PUSH1 0x3 DUP3 ADD SLOAD DUP2 MSTORE PUSH1 0x20 ADD PUSH1 0x4 DUP3 ADD SLOAD DUP2 MSTORE PUSH1 0x20 ADD PUSH1 0x5 DUP3 ADD DUP1 SLOAD PUSH2 0x9C7 SWAP1 PUSH2 0x343F JUMP JUMPDEST DUP1 PUSH1 0x1F ADD PUSH1 0x20 DUP1 SWAP2 DIV MUL PUSH1 0x20 ADD PUSH1 0x40 MLOAD SWAP1 DUP2 ADD PUSH1 0x40 MSTORE DUP1 SWAP3 SWAP2 SWAP1 DUP2 DUP2 MSTORE PUSH1 0x20 ADD DUP3 DUP1 SLOAD PUSH2 0x9F3 SWAP1 PUSH2 0x343F JUMP JUMPDEST DUP1 ISZERO PUSH2 0xA40 JUMPI DUP1 PUSH1 0x1F LT PUSH2 0xA15 JUMPI PUSH2 0x100 DUP1 DUP4 SLOAD DIV MUL DUP4 MSTORE SWAP2 PUSH1 0x20 ADD SWAP2 PUSH2 0xA40 JUMP JUMPDEST DUP3 ADD SWAP2 SWAP1 PUSH1 0x0 MSTORE PUSH1 0x20 PUSH1 0x0 KECCAK256 SWAP1 JUMPDEST DUP2 SLOAD DUP2 MSTORE SWAP1 PUSH1 0x1 ADD SWAP1 PUSH1 0x20 ADD DUP1 DUP4 GT PUSH2 0xA23 JUMPI DUP3 SWAP1 SUB PUSH1 0x1F AND DUP3 ADD SWAP2 JUMPDEST POP POP POP POP POP DUP2 MSTORE PUSH1 0x20 ADD PUSH1 0x6 DUP3 ADD SLOAD DUP2 MSTORE PUSH1 0x20 ADD PUSH1 0x7 DUP3 ADD SLOAD DUP2 MSTORE PUSH1 0x20 ADD PUSH1 0x8 DUP3 ADD SLOAD DUP2 MSTORE PUSH1 0x20 ADD PUSH1 0x9 DUP3 ADD SLOAD DUP2 MSTORE PUSH1 0x20 ADD PUSH1 0xA DUP3 ADD SLOAD DUP2 MSTORE PUSH1 0x20 ADD PUSH1 0xB DUP3 ADD SLOAD DUP2 MSTORE POP POP DUP2 MSTORE PUSH1 0x20 ADD PUSH1 0x13 DUP3 ADD DUP1 SLOAD PUSH2 0xA99 SWAP1 PUSH2 0x343F JUMP JUMPDEST DUP1 PUSH1 0x1F ADD PUSH1 0x20 DUP1 SWAP2 DIV MUL PUSH1 0x20 ADD PUSH1 0x40 MLOAD SWAP1 DUP2 ADD PUSH1 0x40 MSTORE DUP1 SWAP3 SWAP2 SWAP1 DUP2 DUP2 MSTORE PUSH1 0x20 ADD DUP3 DUP1 SLOAD PUSH2 0xAC5 SWAP1 PUSH2 0x343F JUMP JUMPDEST DUP1 ISZERO PUSH2 0xB12 JUMPI DUP1 PUSH1 0x1F LT PUSH2 0xAE7 JUMPI PUSH2 0x100 DUP1 DUP4 SLOAD DIV MUL DUP4 MSTORE SWAP2 PUSH1 0x20 ADD SWAP2 PUSH2 0xB12 JUMP JUMPDEST DUP3 ADD SWAP2 SWAP1 PUSH1 0x0 MSTORE PUSH1 0x20 PUSH1 0x0 KECCAK256 SWAP1 JUMPDEST DUP2 SLOAD DUP2 MSTORE SWAP1 PUSH1 0x1 ADD SWAP1 PUSH1 0x20 ADD DUP1 DUP4 GT PUSH2 0xAF5 JUMPI DUP3 SWAP1 SUB PUSH1 0x1F AND DUP3 ADD SWAP2 JUMPDEST POP POP POP POP POP DUP2 MSTORE PUSH1 0x20 ADD PUSH1 0x14 DUP3 ADD DUP1 SLOAD DUP1 PUSH1 0x20 MUL PUSH1 0x20 ADD PUSH1 0x40 MLOAD SWAP1 DUP2 ADD PUSH1 0x40 MSTORE DUP1 SWAP3 SWAP2 SWAP1 DUP2 DUP2 MSTORE PUSH1 0x20 ADD PUSH1 0x0 SWAP1 JUMPDEST DUP3 DUP3 LT ISZERO PUSH2 0xBEC JUMPI DUP4 DUP3 SWAP1 PUSH1 0x0 MSTORE PUSH1 0x20 PUSH1 0x0 KECCAK256 ADD DUP1 SLOAD PUSH2 0xB5F SWAP1 PUSH2 0x343F JUMP JUMPDEST DUP1 PUSH1 0x1F ADD PUSH1 0x20 DUP1 SWAP2 DIV MUL PUSH1 0x20 ADD PUSH1 0x40 MLOAD SWAP1 DUP2 ADD PUSH1 0x40 MSTORE DUP1 SWAP3 SWAP2 SWAP1 DUP2 DUP2 MSTORE PUSH1 0x20 ADD DUP3 DUP1 SLOAD PUSH2 0xB8B SWAP1 PUSH2 0x343F JUMP JUMPDEST DUP1 ISZERO PUSH2 0xBD8 JUMPI DUP1 PUSH1 0x1F LT PUSH2 0xBAD JUMPI PUSH2 0x100 DUP1 DUP4 SLOAD DIV MUL DUP4 MSTORE SWAP2 PUSH1 0x20 ADD SWAP2 PUSH2 0xBD8 JUMP JUMPDEST DUP3 ADD SWAP2 SWAP1 PUSH1 0x0 MSTORE PUSH1 0x20 PUSH1 0x0 KECCAK256 SWAP1 JUMPDEST DUP2 SLOAD DUP2 MSTORE SWAP1 PUSH1 0x1 ADD SWAP1 PUSH1 0x20 ADD DUP1 DUP4 GT PUSH2 0xBBB JUMPI DUP3 SWAP1 SUB PUSH1 0x1F AND DUP3 ADD SWAP2 JUMPDEST POP POP POP POP POP DUP2 MSTORE PUSH1 0x20 ADD SWAP1 PUSH1 0x1 ADD SWAP1 PUSH2 0xB40 JUMP JUMPDEST POP POP POP POP DUP2 MSTORE PUSH1 0x20 ADD PUSH1 0x15 DUP3 ADD DUP1 SLOAD DUP1 PUSH1 0x20 MUL PUSH1 0x20 ADD PUSH1 0x40 MLOAD SWAP1 DUP2 ADD PUSH1 0x40 MSTORE DUP1 SWAP3 SWAP2 SWAP1 DUP2 DUP2 MSTORE PUSH1 0x20 ADD PUSH1 0x0 SWAP1 JUMPDEST DUP3 DUP3 LT ISZERO PUSH2 0xCC5 JUMPI DUP4 DUP3 SWAP1 PUSH1 0x0 MSTORE PUSH1 0x20 PUSH1 0x0 KECCAK256 ADD DUP1 SLOAD PUSH2 0xC38 SWAP1 PUSH2 0x343F JUMP JUMPDEST DUP1 PUSH1 0x1F ADD PUSH1 0x20 DUP1 SWAP2 DIV MUL PUSH1 0x20 ADD PUSH1 0x40 MLOAD SWAP1 DUP2 ADD PUSH1 0x40 MSTORE DUP1 SWAP3 SWAP2 SWAP1 DUP2 DUP2 MSTORE PUSH1 0x20 ADD DUP3 DUP1 SLOAD PUSH2 0xC64 SWAP1 PUSH2 0x343F JUMP JUMPDEST DUP1 ISZERO PUSH2 0xCB1 JUMPI DUP1 PUSH1 0x1F LT PUSH2 0xC86 JUMPI PUSH2 0x100 DUP1 DUP4 SLOAD DIV MUL DUP4 MSTORE SWAP2 PUSH1 0x20 ADD SWAP2 PUSH2 0xCB1 JUMP JUMPDEST DUP3 ADD SWAP2 SWAP1 PUSH1 0x0 MSTORE PUSH1 0x20 PUSH1 0x0 KECCAK256 SWAP1 JUMPDEST DUP2 SLOAD DUP2 MSTORE SWAP1 PUSH1 0x1 ADD SWAP1 PUSH1 0x20 ADD DUP1 DUP4 GT PUSH2 0xC94 JUMPI DUP3 SWAP1 SUB PUSH1 0x1F AND DUP3 ADD SWAP2 JUMPDEST POP POP POP POP POP DUP2 MSTORE PUSH1 0x20 ADD SWAP1 PUSH1 0x1 ADD SWAP1 PUSH2 0xC19 JUMP JUMPDEST POP POP POP POP DUP2 MSTORE PUSH1 0x20 ADD PUSH1 0x16 DUP3 ADD DUP1 SLOAD DUP1 PUSH1 0x20 MUL PUSH1 0x20 ADD PUSH1 0x40 MLOAD SWAP1 DUP2 ADD PUSH1 0x40 MSTORE DUP1 SWAP3 SWAP2 SWAP1 DUP2 DUP2 MSTORE PUSH1 0x20 ADD PUSH1 0x0 SWAP1 JUMPDEST DUP3 DUP3 LT ISZERO PUSH2 0xD9E JUMPI DUP4 DUP3 SWAP1 PUSH1 0x0 MSTORE PUSH1 0x20 PUSH1 0x0 KECCAK256 ADD DUP1 SLOAD PUSH2 0xD11 SWAP1 PUSH2 0x343F JUMP JUMPDEST DUP1 PUSH1 0x1F ADD PUSH1 0x20 DUP1 SWAP2 DIV MUL PUSH1 0x20 ADD PUSH1 0x40 MLOAD SWAP1 DUP2 ADD PUSH1 0x40 MSTORE DUP1 SWAP3 SWAP2 SWAP1 DUP2 DUP2 MSTORE PUSH1 0x20 ADD DUP3 DUP1 SLOAD PUSH2 0xD3D SWAP1 PUSH2 0x343F JUMP JUMPDEST DUP1 ISZERO PUSH2 0xD8A JUMPI DUP1 PUSH1 0x1F LT PUSH2 0xD5F JUMPI PUSH2 0x100 DUP1 DUP4 SLOAD DIV MUL DUP4 MSTORE SWAP2 PUSH1 0x20 ADD SWAP2 PUSH2 0xD8A JUMP JUMPDEST DUP3 ADD SWAP2 SWAP1 PUSH1 0x0 MSTORE PUSH1 0x20 PUSH1 0x0 KECCAK256 SWAP1 JUMPDEST DUP2 SLOAD DUP2 MSTORE SWAP1 PUSH1 0x1 ADD SWAP1 PUSH1 0x20 ADD DUP1 DUP4 GT PUSH2 0xD6D JUMPI DUP3 SWAP1 SUB PUSH1 0x1F AND DUP3 ADD SWAP2 JUMPDEST POP POP POP POP POP DUP2 MSTORE PUSH1 0x20 ADD SWAP1 PUSH1 0x1 ADD SWAP1 PUSH2 0xCF2 JUMP JUMPDEST POP POP POP POP DUP2 MSTORE PUSH1 0x20 ADD PUSH1 0x17 DUP3 ADD DUP1 SLOAD PUSH2 0xDB6 SWAP1 PUSH2 0x343F JUMP JUMPDEST DUP1 PUSH1 0x1F ADD PUSH1 0x20 DUP1 SWAP2 DIV MUL PUSH1 0x20 ADD PUSH1 0x40 MLOAD SWAP1 DUP2 ADD PUSH1 0x40 MSTORE DUP1 SWAP3 SWAP2 SWAP1 DUP2 DUP2 MSTORE PUSH1 0x20 ADD DUP3 DUP1 SLOAD PUSH2 0xDE2 SWAP1 PUSH2 0x343F JUMP JUMPDEST DUP1 ISZERO PUSH2 0xE2F JUMPI DUP1 PUSH1 0x1F LT PUSH2 0xE04 JUMPI PUSH2 0x100 DUP1 DUP4 SLOAD DIV MUL DUP4 MSTORE SWAP2 PUSH1 0x20 ADD SWAP2 PUSH2 0xE2F JUMP JUMPDEST DUP3 ADD SWAP2 SWAP1 PUSH1 0x0 MSTORE PUSH1 0x20 PUSH1 0x0 KECCAK256 SWAP1 JUMPDEST DUP2 SLOAD DUP2 MSTORE SWAP1 PUSH1 0x1 ADD SWAP1 PUSH1 0x20 ADD DUP1 DUP4 GT PUSH2 0xE12 JUMPI DUP3 SWAP1 SUB PUSH1 0x1F AND DUP3 ADD SWAP2 JUMPDEST POP POP POP POP POP DUP2 MSTORE PUSH1 0x20 ADD PUSH1 0x18 DUP3 ADD DUP1 SLOAD PUSH2 0xE48 SWAP1 PUSH2 0x343F JUMP JUMPDEST DUP1 PUSH1 0x1F ADD PUSH1 0x20 DUP1 SWAP2 DIV MUL PUSH1 0x20 ADD PUSH1 0x40 MLOAD SWAP1 DUP2 ADD PUSH1 0x40 MSTORE DUP1 SWAP3 SWAP2 SWAP1 DUP2 DUP2 MSTORE PUSH1 0x20 ADD DUP3 DUP1 SLOAD PUSH2 0xE74 SWAP1 PUSH2 0x343F JUMP JUMPDEST DUP1 ISZERO PUSH2 0xEC1 JUMPI DUP1 PUSH1 0x1F LT PUSH2 0xE96 JUMPI PUSH2 0x100 DUP1 DUP4 SLOAD DIV MUL DUP4 MSTORE SWAP2 PUSH1 0x20 ADD SWAP2 PUSH2 0xEC1 JUMP JUMPDEST DUP3 ADD SWAP2 SWAP1 PUSH1 0x0 MSTORE PUSH1 0x20 PUSH1 0x0 KECCAK256 SWAP1 JUMPDEST DUP2 SLOAD DUP2 MSTORE SWAP1 PUSH1 0x1 ADD SWAP1 PUSH1 0x20 ADD DUP1 DUP4 GT PUSH2 0xEA4 JUMPI DUP3 SWAP1 SUB PUSH1 0x1F AND DUP3 ADD SWAP2 JUMPDEST POP POP POP POP POP DUP2 MSTORE POP POP SWAP1 POP SWAP2 SWAP1 POP JUMP JUMPDEST PUSH1 0x0 PUSH1 0x20 MSTORE DUP1 PUSH1 0x0 MSTORE PUSH1 0x40 PUSH1 0x0 KECCAK256 PUSH1 0x0 SWAP2 POP SWAP1 POP DUP1 PUSH1 0x0 ADD SLOAD SWAP1 DUP1 PUSH1 0x1 ADD PUSH1 0x40 MLOAD DUP1 PUSH1 0x60 ADD PUSH1 0x40 MSTORE SWAP1 DUP2 PUSH1 0x0 DUP3 ADD DUP1 SLOAD PUSH2 0xF0A SWAP1 PUSH2 0x343F JUMP JUMPDEST DUP1 PUSH1 0x1F ADD PUSH1 0x20 DUP1 SWAP2 DIV MUL PUSH1 0x20 ADD PUSH1 0x40 MLOAD SWAP1 DUP2 ADD PUSH1 0x40 MSTORE DUP1 SWAP3 SWAP2 SWAP1 DUP2 DUP2 MSTORE PUSH1 0x20 ADD DUP3 DUP1 SLOAD PUSH2 0xF36 SWAP1 PUSH2 0x343F JUMP JUMPDEST DUP1 ISZERO PUSH2 0xF83 JUMPI DUP1 PUSH1 0x1F LT PUSH2 0xF58 JUMPI PUSH2 0x100 DUP1 DUP4 SLOAD DIV MUL DUP4 MSTORE SWAP2 PUSH1 0x20 ADD SWAP2 PUSH2 0xF83 JUMP JUMPDEST DUP3 ADD SWAP2 SWAP1 PUSH1 0x0 MSTORE PUSH1 0x20 PUSH1 0x0 KECCAK256 SWAP1 JUMPDEST DUP2 SLOAD DUP2 MSTORE SWAP1 PUSH1 0x1 ADD SWAP1 PUSH1 0x20 ADD DUP1 DUP4 GT PUSH2 0xF66 JUMPI DUP3 SWAP1 SUB PUSH1 0x1F AND DUP3 ADD SWAP2 JUMPDEST POP POP POP POP POP DUP2 MSTORE PUSH1 0x20 ADD PUSH1 0x1 DUP3 ADD DUP1 SLOAD PUSH2 0xF9C SWAP1 PUSH2 0x343F JUMP JUMPDEST DUP1 PUSH1 0x1F ADD PUSH1 0x20 DUP1 SWAP2 DIV MUL PUSH1 0x20 ADD PUSH1 0x40 MLOAD SWAP1 DUP2 ADD PUSH1 0x40 MSTORE DUP1 SWAP3 SWAP2 SWAP1 DUP2 DUP2 MSTORE PUSH1 0x20 ADD DUP3 DUP1 SLOAD PUSH2 0xFC8 SWAP1 PUSH2 0x343F JUMP JUMPDEST DUP1 ISZERO PUSH2 0x1015 JUMPI DUP1 PUSH1 0x1F LT PUSH2 0xFEA JUMPI PUSH2 0x100 DUP1 DUP4 SLOAD DIV MUL DUP4 MSTORE SWAP2 PUSH1 0x20 ADD SWAP2 PUSH2 0x1015 JUMP JUMPDEST DUP3 ADD SWAP2 SWAP1 PUSH1 0x0 MSTORE PUSH1 0x20 PUSH1 0x0 KECCAK256 SWAP1 JUMPDEST DUP2 SLOAD DUP2 MSTORE SWAP1 PUSH1 0x1 ADD SWAP1 PUSH1 0x20 ADD DUP1 DUP4 GT PUSH2 0xFF8 JUMPI DUP3 SWAP1 SUB PUSH1 0x1F AND DUP3 ADD SWAP2 JUMPDEST POP POP POP POP POP DUP2 MSTORE PUSH1 0x20 ADD PUSH1 0x2 DUP3 ADD DUP1 SLOAD PUSH2 0x102E SWAP1 PUSH2 0x343F JUMP JUMPDEST DUP1 PUSH1 0x1F ADD PUSH1 0x20 DUP1 SWAP2 DIV MUL PUSH1 0x20 ADD PUSH1 0x40 MLOAD SWAP1 DUP2 ADD PUSH1 0x40 MSTORE DUP1 SWAP3 SWAP2 SWAP1 DUP2 DUP2 MSTORE PUSH1 0x20 ADD DUP3 DUP1 SLOAD PUSH2 0x105A SWAP1 PUSH2 0x343F JUMP JUMPDEST DUP1 ISZERO PUSH2 0x10A7 JUMPI DUP1 PUSH1 0x1F LT PUSH2 0x107C JUMPI PUSH2 0x100 DUP1 DUP4 SLOAD DIV MUL DUP4 MSTORE SWAP2 PUSH1 0x20 ADD SWAP2 PUSH2 0x10A7 JUMP JUMPDEST DUP3 ADD SWAP2 SWAP1 PUSH1 0x0 MSTORE PUSH1 0x20 PUSH1 0x0 KECCAK256 SWAP1 JUMPDEST DUP2 SLOAD DUP2 MSTORE SWAP1 PUSH1 0x1 ADD SWAP1 PUSH1 0x20 ADD DUP1 DUP4 GT PUSH2 0x108A JUMPI DUP3 SWAP1 SUB PUSH1 0x1F AND DUP3 ADD SWAP2 JUMPDEST POP POP POP POP POP DUP2 MSTORE POP POP SWAP1 DUP1 PUSH1 0x4 ADD PUSH1 0x40 MLOAD DUP1 PUSH1 0x60 ADD PUSH1 0x40 MSTORE SWAP1 DUP2 PUSH1 0x0 DUP3 ADD DUP1 SLOAD PUSH2 0x10D0 SWAP1 PUSH2 0x343F JUMP JUMPDEST DUP1 PUSH1 0x1F ADD PUSH1 0x20 DUP1 SWAP2 DIV MUL PUSH1 0x20 ADD PUSH1 0x40 MLOAD SWAP1 DUP2 ADD PUSH1 0x40 MSTORE DUP1 SWAP3 SWAP2 SWAP1 DUP2 DUP2 MSTORE PUSH1 0x20 ADD DUP3 DUP1 SLOAD PUSH2 0x10FC SWAP1 PUSH2 0x343F JUMP JUMPDEST DUP1 ISZERO PUSH2 0x1149 JUMPI DUP1 PUSH1 0x1F LT PUSH2 0x111E JUMPI PUSH2 0x100 DUP1 DUP4 SLOAD DIV MUL DUP4 MSTORE SWAP2 PUSH1 0x20 ADD SWAP2 PUSH2 0x1149 JUMP JUMPDEST DUP3 ADD SWAP2 SWAP1 PUSH1 0x0 MSTORE PUSH1 0x20 PUSH1 0x0 KECCAK256 SWAP1 JUMPDEST DUP2 SLOAD DUP2 MSTORE SWAP1 PUSH1 0x1 ADD SWAP1 PUSH1 0x20 ADD DUP1 DUP4 GT PUSH2 0x112C JUMPI DUP3 SWAP1 SUB PUSH1 0x1F AND DUP3 ADD SWAP2 JUMPDEST POP POP POP POP POP DUP2 MSTORE PUSH1 0x20 ADD PUSH1 0x1 DUP3 ADD DUP1 SLOAD PUSH2 0x1162 SWAP1 PUSH2 0x343F JUMP JUMPDEST DUP1 PUSH1 0x1F ADD PUSH1 0x20 DUP1 SWAP2 DIV MUL PUSH1 0x20 ADD PUSH1 0x40 MLOAD SWAP1 DUP2 ADD PUSH1 0x40 MSTORE DUP1 SWAP3 SWAP2 SWAP1 DUP2 DUP2 MSTORE PUSH1 0x20 ADD DUP3 DUP1 SLOAD PUSH2 0x118E SWAP1 PUSH2 0x343F JUMP JUMPDEST DUP1 ISZERO PUSH2 0x11DB JUMPI DUP1 PUSH1 0x1F LT PUSH2 0x11B0 JUMPI PUSH2 0x100 DUP1 DUP4 SLOAD DIV MUL DUP4 MSTORE SWAP2 PUSH1 0x20 ADD SWAP2 PUSH2 0x11DB JUMP JUMPDEST DUP3 ADD SWAP2 SWAP1 PUSH1 0x0 MSTORE PUSH1 0x20 PUSH1 0x0 KECCAK256 SWAP1 JUMPDEST DUP2 SLOAD DUP2 MSTORE SWAP1 PUSH1 0x1 ADD SWAP1 PUSH1 0x20 ADD DUP1 DUP4 GT PUSH2 0x11BE JUMPI DUP3 SWAP1 SUB PUSH1 0x1F AND DUP3 ADD SWAP2 JUMPDEST POP POP POP POP POP DUP2 MSTORE PUSH1 0x20 ADD PUSH1 0x2 DUP3 ADD DUP1 SLOAD PUSH2 0x11F4 SWAP1 PUSH2 0x343F JUMP JUMPDEST DUP1 PUSH1 0x1F ADD PUSH1 0x20 DUP1 SWAP2 DIV MUL PUSH1 0x20 ADD PUSH1 0x40 MLOAD SWAP1 DUP2 ADD PUSH1 0x40 MSTORE DUP1 SWAP3 SWAP2 SWAP1 DUP2 DUP2 MSTORE PUSH1 0x20 ADD DUP3 DUP1 SLOAD PUSH2 0x1220 SWAP1 PUSH2 0x343F JUMP JUMPDEST DUP1 ISZERO PUSH2 0x126D JUMPI DUP1 PUSH1 0x1F LT PUSH2 0x1242 JUMPI PUSH2 0x100 DUP1 DUP4 SLOAD DIV MUL DUP4 MSTORE SWAP2 PUSH1 0x20 ADD SWAP2 PUSH2 0x126D JUMP JUMPDEST DUP3 ADD SWAP2 SWAP1 PUSH1 0x0 MSTORE PUSH1 0x20 PUSH1 0x0 KECCAK256 SWAP1 JUMPDEST DUP2 SLOAD DUP2 MSTORE SWAP1 PUSH1 0x1 ADD SWAP1 PUSH1 0x20 ADD DUP1 DUP4 GT PUSH2 0x1250 JUMPI DUP3 SWAP1 SUB PUSH1 0x1F AND DUP3 ADD SWAP2 JUMPDEST POP POP POP POP POP DUP2 MSTORE POP POP SWAP1 DUP1 PUSH1 0x7 ADD PUSH1 0x40 MLOAD DUP1 PUSH2 0x180 ADD PUSH1 0x40 MSTORE SWAP1 DUP2 PUSH1 0x0 DUP3 ADD DUP1 SLOAD PUSH2 0x1297 SWAP1 PUSH2 0x343F JUMP JUMPDEST DUP1 PUSH1 0x1F ADD PUSH1 0x20 DUP1 SWAP2 DIV MUL PUSH1 0x20 ADD PUSH1 0x40 MLOAD SWAP1 DUP2 ADD PUSH1 0x40 MSTORE DUP1 SWAP3 SWAP2 SWAP1 DUP2 DUP2 MSTORE PUSH1 0x20 ADD DUP3 DUP1 SLOAD PUSH2 0x12C3 SWAP1 PUSH2 0x343F JUMP JUMPDEST DUP1 ISZERO PUSH2 0x1310 JUMPI DUP1 PUSH1 0x1F LT PUSH2 0x12E5 JUMPI PUSH2 0x100 DUP1 DUP4 SLOAD DIV MUL DUP4 MSTORE SWAP2 PUSH1 0x20 ADD SWAP2 PUSH2 0x1310 JUMP JUMPDEST DUP3 ADD SWAP2 SWAP1 PUSH1 0x0 MSTORE PUSH1 0x20 PUSH1 0x0 KECCAK256 SWAP1 JUMPDEST DUP2 SLOAD DUP2 MSTORE SWAP1 PUSH1 0x1 ADD SWAP1 PUSH1 0x20 ADD DUP1 DUP4 GT PUSH2 0x12F3 JUMPI DUP3 SWAP1 SUB PUSH1 0x1F AND DUP3 ADD SWAP2 JUMPDEST POP POP POP POP POP DUP2 MSTORE PUSH1 0x20 ADD PUSH1 0x1 DUP3 ADD DUP1 SLOAD PUSH2 0x1329 SWAP1 PUSH2 0x343F JUMP JUMPDEST DUP1 PUSH1 0x1F ADD PUSH1 0x20 DUP1 SWAP2 DIV MUL PUSH1 0x20 ADD PUSH1 0x40 MLOAD SWAP1 DUP2 ADD PUSH1 0x40 MSTORE DUP1 SWAP3 SWAP2 SWAP1 DUP2 DUP2 MSTORE PUSH1 0x20 ADD DUP3 DUP1 SLOAD PUSH2 0x1355 SWAP1 PUSH2 0x343F JUMP JUMPDEST DUP1 ISZERO PUSH2 0x13A2 JUMPI DUP1 PUSH1 0x1F LT PUSH2 0x1377 JUMPI PUSH2 0x100 DUP1 DUP4 SLOAD DIV MUL DUP4 MSTORE SWAP2 PUSH1 0x20 ADD SWAP2 PUSH2 0x13A2 JUMP JUMPDEST DUP3 ADD SWAP2 SWAP1 PUSH1 0x0 MSTORE PUSH1 0x20 PUSH1 0x0 KECCAK256 SWAP1 JUMPDEST DUP2 SLOAD DUP2 MSTORE SWAP1 PUSH1 0x1 ADD SWAP1 PUSH1 0x20 ADD DUP1 DUP4 GT PUSH2 0x1385 JUMPI DUP3 SWAP1 SUB PUSH1 0x1F AND DUP3 ADD SWAP2 JUMPDEST POP POP POP POP POP DUP2 MSTORE PUSH1 0x20 ADD PUSH1 0x2 DUP3 ADD SLOAD DUP2 MSTORE PUSH1 0x20 ADD PUSH1 0x3 DUP3 ADD SLOAD DUP2 MSTORE PUSH1 0x20 ADD PUSH1 0x4 DUP3 ADD SLOAD DUP2 MSTORE PUSH1 0x20 ADD PUSH1 0x5 DUP3 ADD DUP1 SLOAD PUSH2 0x13D9 SWAP1 PUSH2 0x343F JUMP JUMPDEST DUP1 PUSH1 0x1F ADD PUSH1 0x20 DUP1 SWAP2 DIV MUL PUSH1 0x20 ADD PUSH1 0x40 MLOAD SWAP1 DUP2 ADD PUSH1 0x40 MSTORE DUP1 SWAP3 SWAP2 SWAP1 DUP2 DUP2 MSTORE PUSH1 0x20 ADD DUP3 DUP1 SLOAD PUSH2 0x1405 SWAP1 PUSH2 0x343F JUMP JUMPDEST DUP1 ISZERO PUSH2 0x1452 JUMPI DUP1 PUSH1 0x1F LT PUSH2 0x1427 JUMPI PUSH2 0x100 DUP1 DUP4 SLOAD DIV MUL DUP4 MSTORE SWAP2 PUSH1 0x20 ADD SWAP2 PUSH2 0x1452 JUMP JUMPDEST DUP3 ADD SWAP2 SWAP1 PUSH1 0x0 MSTORE PUSH1 0x20 PUSH1 0x0 KECCAK256 SWAP1 JUMPDEST DUP2 SLOAD DUP2 MSTORE SWAP1 PUSH1 0x1 ADD SWAP1 PUSH1 0x20 ADD DUP1 DUP4 GT PUSH2 0x1435 JUMPI DUP3 SWAP1 SUB PUSH1 0x1F AND DUP3 ADD SWAP2 JUMPDEST POP POP POP POP POP DUP2 MSTORE PUSH1 0x20 ADD PUSH1 0x6 DUP3 ADD SLOAD DUP2 MSTORE PUSH1 0x20 ADD PUSH1 0x7 DUP3 ADD SLOAD DUP2 MSTORE PUSH1 0x20 ADD PUSH1 0x8 DUP3 ADD SLOAD DUP2 MSTORE PUSH1 0x20 ADD PUSH1 0x9 DUP3 ADD SLOAD DUP2 MSTORE PUSH1 0x20 ADD PUSH1 0xA DUP3 ADD SLOAD DUP2 MSTORE PUSH1 0x20 ADD PUSH1 0xB DUP3 ADD SLOAD DUP2 MSTORE POP POP SWAP1 DUP1 PUSH1 0x13 ADD DUP1 SLOAD PUSH2 0x14A7 SWAP1 PUSH2 0x343F JUMP JUMPDEST DUP1 PUSH1 0x1F ADD PUSH1 0x20 DUP1 SWAP2 DIV MUL PUSH1 0x20 ADD PUSH1 0x40 MLOAD SWAP1 DUP2 ADD PUSH1 0x40 MSTORE DUP1 SWAP3 SWAP2 SWAP1 DUP2 DUP2 MSTORE PUSH1 0x20 ADD DUP3 DUP1 SLOAD PUSH2 0x14D3 SWAP1 PUSH2 0x343F JUMP JUMPDEST DUP1 ISZERO PUSH2 0x1520 JUMPI DUP1 PUSH1 0x1F LT PUSH2 0x14F5 JUMPI PUSH2 0x100 DUP1 DUP4 SLOAD DIV MUL DUP4 MSTORE SWAP2 PUSH1 0x20 ADD SWAP2 PUSH2 0x1520 JUMP JUMPDEST DUP3 ADD SWAP2 SWAP1 PUSH1 0x0 MSTORE PUSH1 0x20 PUSH1 0x0 KECCAK256 SWAP1 JUMPDEST DUP2 SLOAD DUP2 MSTORE SWAP1 PUSH1 0x1 ADD SWAP1 PUSH1 0x20 ADD DUP1 DUP4 GT PUSH2 0x1503 JUMPI DUP3 SWAP1 SUB PUSH1 0x1F AND DUP3 ADD SWAP2 JUMPDEST POP POP POP POP POP SWAP1 DUP1 PUSH1 0x17 ADD DUP1 SLOAD PUSH2 0x1535 SWAP1 PUSH2 0x343F JUMP JUMPDEST DUP1 PUSH1 0x1F ADD PUSH1 0x20 DUP1 SWAP2 DIV MUL PUSH1 0x20 ADD PUSH1 0x40 MLOAD SWAP1 DUP2 ADD PUSH1 0x40 MSTORE DUP1 SWAP3 SWAP2 SWAP1 DUP2 DUP2 MSTORE PUSH1 0x20 ADD DUP3 DUP1 SLOAD PUSH2 0x1561 SWAP1 PUSH2 0x343F JUMP JUMPDEST DUP1 ISZERO PUSH2 0x15AE JUMPI DUP1 PUSH1 0x1F LT PUSH2 0x1583 JUMPI PUSH2 0x100 DUP1 DUP4 SLOAD DIV MUL DUP4 MSTORE SWAP2 PUSH1 0x20 ADD SWAP2 PUSH2 0x15AE JUMP JUMPDEST DUP3 ADD SWAP2 SWAP1 PUSH1 0x0 MSTORE PUSH1 0x20 PUSH1 0x0 KECCAK256 SWAP1 JUMPDEST DUP2 SLOAD DUP2 MSTORE SWAP1 PUSH1 0x1 ADD SWAP1 PUSH1 0x20 ADD DUP1 DUP4 GT PUSH2 0x1591 JUMPI DUP3 SWAP1 SUB PUSH1 0x1F AND DUP3 ADD SWAP2 JUMPDEST POP POP POP POP POP SWAP1 DUP1 PUSH1 0x18 ADD DUP1 SLOAD PUSH2 0x15C3 SWAP1 PUSH2 0x343F JUMP JUMPDEST DUP1 PUSH1 0x1F ADD PUSH1 0x20 DUP1 SWAP2 DIV MUL PUSH1 0x20 ADD PUSH1 0x40 MLOAD SWAP1 DUP2 ADD PUSH1 0x40 MSTORE DUP1 SWAP3 SWAP2 SWAP1 DUP2 DUP2 MSTORE PUSH1 0x20 ADD DUP3 DUP1 SLOAD PUSH2 0x15EF SWAP1 PUSH2 0x343F JUMP JUMPDEST DUP1 ISZERO PUSH2 0x163C JUMPI DUP1 PUSH1 0x1F LT PUSH2 0x1611 JUMPI PUSH2 0x100 DUP1 DUP4 SLOAD DIV MUL DUP4 MSTORE SWAP2 PUSH1 0x20 ADD SWAP2 PUSH2 0x163C JUMP JUMPDEST DUP3 ADD SWAP2 SWAP1 PUSH1 0x0 MSTORE PUSH1 0x20 PUSH1 0x0 KECCAK256 SWAP1 JUMPDEST DUP2 SLOAD DUP2 MSTORE SWAP1 PUSH1 0x1 ADD SWAP1 PUSH1 0x20 ADD DUP1 DUP4 GT PUSH2 0x161F JUMPI DUP3 SWAP1 SUB PUSH1 0x1F AND DUP3 ADD SWAP2 JUMPDEST POP POP POP POP POP SWAP1 POP DUP8 JUMP JUMPDEST PUSH1 0x0 PUSH20 0xFFFFFFFFFFFFFFFFFFFFFFFFFFFFFFFFFFFFFFFF AND PUSH1 0x1 PUSH1 0x0 DUP13 PUSH26 0xFFFFFFFFFFFFFFFFFFFFFFFFFFFFFFFFFFFFFFFFFFFFFFFFFFFF NOT AND PUSH26 0xFFFFFFFFFFFFFFFFFFFFFFFFFFFFFFFFFFFFFFFFFFFFFFFFFFFF NOT AND DUP2 MSTORE PUSH1 0x20 ADD SWAP1 DUP2 MSTORE PUSH1 0x20 ADD PUSH1 0x0 KECCAK256 PUSH1 0x0 SWAP1 SLOAD SWAP1 PUSH2 0x100 EXP SWAP1 DIV PUSH20 0xFFFFFFFFFFFFFFFFFFFFFFFFFFFFFFFFFFFFFFFF AND PUSH20 0xFFFFFFFFFFFFFFFFFFFFFFFFFFFFFFFFFFFFFFFF AND EQ PUSH2 0x1722 JUMPI PUSH1 0x40 MLOAD PUSH32 0x8C379A000000000000000000000000000000000000000000000000000000000 DUP2 MSTORE PUSH1 0x4 ADD PUSH2 0x1719 SWAP1 PUSH2 0x34E2 JUMP JUMPDEST PUSH1 0x40 MLOAD DUP1 SWAP2 SUB SWAP1 REVERT JUMPDEST PUSH1 0x0 PUSH1 0x40 MLOAD DUP1 PUSH2 0x140 ADD PUSH1 0x40 MSTORE DUP1 TIMESTAMP DUP2 MSTORE PUSH1 0x20 ADD DUP12 DUP2 MSTORE PUSH1 0x20 ADD DUP11 DUP2 MSTORE PUSH1 0x20 ADD DUP10 DUP2 MSTORE PUSH1 0x20 ADD DUP9 DUP2 MSTORE PUSH1 0x20 ADD DUP8 DUP2 MSTORE PUSH1 0x20 ADD DUP7 DUP2 MSTORE PUSH1 0x20 ADD DUP6 DUP2 MSTORE PUSH1 0x20 ADD DUP5 DUP2 MSTORE PUSH1 0x20 ADD DUP4 DUP2 MSTORE POP SWAP1 POP DUP1 PUSH1 0x0 DUP1 DUP14 PUSH26 0xFFFFFFFFFFFFFFFFFFFFFFFFFFFFFFFFFFFFFFFFFFFFFFFFFFFF NOT AND PUSH26 0xFFFFFFFFFFFFFFFFFFFFFFFFFFFFFFFFFFFFFFFFFFFFFFFFFFFF NOT AND DUP2 MSTORE PUSH1 0x20 ADD SWAP1 DUP2 MSTORE PUSH1 0x20 ADD PUSH1 0x0 KECCAK256 PUSH1 0x0 DUP3 ADD MLOAD DUP2 PUSH1 0x0 ADD SSTORE PUSH1 0x20 DUP3 ADD MLOAD DUP2 PUSH1 0x1 ADD PUSH1 0x0 DUP3 ADD MLOAD DUP2 PUSH1 0x0 ADD SWAP1 DUP2 PUSH2 0x17E1 SWAP2 SWAP1 PUSH2 0x36AE JUMP JUMPDEST POP PUSH1 0x20 DUP3 ADD MLOAD DUP2 PUSH1 0x1 ADD SWAP1 DUP2 PUSH2 0x17F7 SWAP2 SWAP1 PUSH2 0x36AE JUMP JUMPDEST POP PUSH1 0x40 DUP3 ADD MLOAD DUP2 PUSH1 0x2 ADD SWAP1 DUP2 PUSH2 0x180D SWAP2 SWAP1 PUSH2 0x36AE JUMP JUMPDEST POP POP POP PUSH1 0x40 DUP3 ADD MLOAD DUP2 PUSH1 0x4 ADD PUSH1 0x0 DUP3 ADD MLOAD DUP2 PUSH1 0x0 ADD SWAP1 DUP2 PUSH2 0x182E SWAP2 SWAP1 PUSH2 0x36AE JUMP JUMPDEST POP PUSH1 0x20 DUP3 ADD MLOAD DUP2 PUSH1 0x1 ADD SWAP1 DUP2 PUSH2 0x1844 SWAP2 SWAP1 PUSH2 0x36AE JUMP JUMPDEST POP PUSH1 0x40 DUP3 ADD MLOAD DUP2 PUSH1 0x2 ADD SWAP1 DUP2 PUSH2 0x185A SWAP2 SWAP1 PUSH2 0x36AE JUMP JUMPDEST POP POP POP PUSH1 0x60 DUP3 ADD MLOAD DUP2 PUSH1 0x7 ADD PUSH1 0x0 DUP3 ADD MLOAD DUP2 PUSH1 0x0 ADD SWAP1 DUP2 PUSH2 0x187B SWAP2 SWAP1 PUSH2 0x36AE JUMP JUMPDEST POP PUSH1 0x20 DUP3 ADD MLOAD DUP2 PUSH1 0x1 ADD SWAP1 DUP2 PUSH2 0x1891 SWAP2 SWAP1 PUSH2 0x36AE JUMP JUMPDEST POP PUSH1 0x40 DUP3 ADD MLOAD DUP2 PUSH1 0x2 ADD SSTORE PUSH1 0x60 DUP3 ADD MLOAD DUP2 PUSH1 0x3 ADD SSTORE PUSH1 0x80 DUP3 ADD MLOAD DUP2 PUSH1 0x4 ADD SSTORE PUSH1 0xA0 DUP3 ADD MLOAD DUP2 PUSH1 0x5 ADD SWAP1 DUP2 PUSH2 0x18C5 SWAP2 SWAP1 PUSH2 0x36AE JUMP JUMPDEST POP PUSH1 0xC0 DUP3 ADD MLOAD DUP2 PUSH1 0x6 ADD SSTORE PUSH1 0xE0 DUP3 ADD MLOAD DUP2 PUSH1 0x7 ADD SSTORE PUSH2 0x100 DUP3 ADD MLOAD DUP2 PUSH1 0x8 ADD SSTORE PUSH2 0x120 DUP3 ADD MLOAD DUP2 PUSH1 0x9 ADD SSTORE PUSH2 0x140 DUP3 ADD MLOAD DUP2 PUSH1 0xA ADD SSTORE PUSH2 0x160 DUP3 ADD MLOAD DUP2 PUSH1 0xB ADD SSTORE POP POP PUSH1 0x80 DUP3 ADD MLOAD DUP2 PUSH1 0x13 ADD SWAP1 DUP2 PUSH2 0x191D SWAP2 SWAP1 PUSH2 0x36AE JUMP JUMPDEST POP PUSH1 0xA0 DUP3 ADD MLOAD DUP2 PUSH1 0x14 ADD SWAP1 DUP1 MLOAD SWAP1 PUSH1 0x20 ADD SWAP1 PUSH2 0x193A SWAP3 SWAP2 SWAP1 PUSH2 0x2148 JUMP JUMPDEST POP PUSH1 0xC0 DUP3 ADD MLOAD DUP2 PUSH1 0x15 ADD SWAP1 DUP1 MLOAD SWAP1 PUSH1 0x20 ADD SWAP1 PUSH2 0x1957 SWAP3 SWAP2 SWAP1 PUSH2 0x2148 JUMP JUMPDEST POP PUSH1 0xE0 DUP3 ADD MLOAD DUP2 PUSH1 0x16 ADD SWAP1 DUP1 MLOAD SWAP1 PUSH1 0x20 ADD SWAP1 PUSH2 0x1974 SWAP3 SWAP2 SWAP1 PUSH2 0x2148 JUMP JUMPDEST POP PUSH2 0x100 DUP3 ADD MLOAD DUP2 PUSH1 0x17 ADD SWAP1 DUP2 PUSH2 0x198B SWAP2 SWAP1 PUSH2 0x36AE JUMP JUMPDEST POP PUSH2 0x120 DUP3 ADD MLOAD DUP2 PUSH1 0x18 ADD SWAP1 DUP2 PUSH2 0x19A2 SWAP2 SWAP1 PUSH2 0x36AE JUMP JUMPDEST POP SWAP1 POP POP CALLER PUSH1 0x1 PUSH1 0x0 DUP14 PUSH26 0xFFFFFFFFFFFFFFFFFFFFFFFFFFFFFFFFFFFFFFFFFFFFFFFFFFFF NOT AND PUSH26 0xFFFFFFFFFFFFFFFFFFFFFFFFFFFFFFFFFFFFFFFFFFFFFFFFFFFF NOT AND DUP2 MSTORE PUSH1 0x20 ADD SWAP1 DUP2 MSTORE PUSH1 0x20 ADD PUSH1 0x0 KECCAK256 PUSH1 0x0 PUSH2 0x100 EXP DUP2 SLOAD DUP2 PUSH20 0xFFFFFFFFFFFFFFFFFFFFFFFFFFFFFFFFFFFFFFFF MUL NOT AND SWAP1 DUP4 PUSH20 0xFFFFFFFFFFFFFFFFFFFFFFFFFFFFFFFFFFFFFFFF AND MUL OR SWAP1 SSTORE POP PUSH2 0x1A71 DUP12 PUSH1 0x40 MLOAD DUP1 PUSH1 0x40 ADD PUSH1 0x40 MSTORE DUP1 PUSH1 0x10 DUP2 MSTORE PUSH1 0x20 ADD PUSH32 0x436F6E7472616374206372656174656400000000000000000000000000000000 DUP2 MSTORE POP PUSH2 0x1F7A JUMP JUMPDEST POP POP POP POP POP POP POP POP POP POP POP JUMP JUMPDEST PUSH1 0x1 PUSH1 0x20 MSTORE DUP1 PUSH1 0x0 MSTORE PUSH1 0x40 PUSH1 0x0 KECCAK256 PUSH1 0x0 SWAP2 POP SLOAD SWAP1 PUSH2 0x100 EXP SWAP1 DIV PUSH20 0xFFFFFFFFFFFFFFFFFFFFFFFFFFFFFFFFFFFFFFFF AND DUP2 JUMP JUMPDEST DUP7 CALLER PUSH20 0xFFFFFFFFFFFFFFFFFFFFFFFFFFFFFFFFFFFFFFFF AND PUSH1 0x1 PUSH1 0x0 DUP4 PUSH26 0xFFFFFFFFFFFFFFFFFFFFFFFFFFFFFFFFFFFFFFFFFFFFFFFFFFFF NOT AND PUSH26 0xFFFFFFFFFFFFFFFFFFFFFFFFFFFFFFFFFFFFFFFFFFFFFFFFFFFF NOT AND DUP2 MSTORE PUSH1 0x20 ADD SWAP1 DUP2 MSTORE PUSH1 0x20 ADD PUSH1 0x0 KECCAK256 PUSH1 0x0 SWAP1 SLOAD SWAP1 PUSH2 0x100 EXP SWAP1 DIV PUSH20 0xFFFFFFFFFFFFFFFFFFFFFFFFFFFFFFFFFFFFFFFF AND PUSH20 0xFFFFFFFFFFFFFFFFFFFFFFFFFFFFFFFFFFFFFFFF AND EQ PUSH2 0x1B8D JUMPI PUSH1 0x40 MLOAD PUSH32 0x8C379A000000000000000000000000000000000000000000000000000000000 DUP2 MSTORE PUSH1 0x4 ADD PUSH2 0x1B84 SWAP1 PUSH2 0x37F2 JUMP JUMPDEST PUSH1 0x40 MLOAD DUP1 SWAP2 SUB SWAP1 REVERT JUMPDEST DUP8 PUSH1 0x40 MLOAD DUP1 PUSH1 0x40 ADD PUSH1 0x40 MSTORE DUP1 PUSH1 0x10 DUP2 MSTORE PUSH1 0x20 ADD PUSH32 0x436F6E7472616374207570646174656400000000000000000000000000000000 DUP2 MSTORE POP PUSH1 0x0 DUP1 PUSH1 0x0 DUP13 PUSH26 0xFFFFFFFFFFFFFFFFFFFFFFFFFFFFFFFFFFFFFFFFFFFFFFFFFFFF NOT AND PUSH26 0xFFFFFFFFFFFFFFFFFFFFFFFFFFFFFFFFFFFFFFFFFFFFFFFFFFFF NOT AND DUP2 MSTORE PUSH1 0x20 ADD SWAP1 DUP2 MSTORE PUSH1 0x20 ADD PUSH1 0x0 KECCAK256 SWAP1 POP DUP10 DUP2 PUSH1 0x13 ADD SWAP1 DUP2 PUSH2 0x1C25 SWAP2 SWAP1 PUSH2 0x36AE JUMP JUMPDEST POP DUP9 DUP2 PUSH1 0x14 ADD SWAP1 DUP1 MLOAD SWAP1 PUSH1 0x20 ADD SWAP1 PUSH2 0x1C3E SWAP3 SWAP2 SWAP1 PUSH2 0x2148 JUMP JUMPDEST POP DUP8 DUP2 PUSH1 0x15 ADD SWAP1 DUP1 MLOAD SWAP1 PUSH1 0x20 ADD SWAP1 PUSH2 0x1C57 SWAP3 SWAP2 SWAP1 PUSH2 0x2148 JUMP JUMPDEST POP DUP7 DUP2 PUSH1 0x16 ADD SWAP1 DUP1 MLOAD SWAP1 PUSH1 0x20 ADD SWAP1 PUSH2 0x1C70 SWAP3 SWAP2 SWAP1 PUSH2 0x2148 JUMP JUMPDEST POP DUP6 DUP2 PUSH1 0x17 ADD SWAP1 DUP2 PUSH2 0x1C82 SWAP2 SWAP1 PUSH2 0x36AE JUMP JUMPDEST POP DUP5 DUP2 PUSH1 0x18 ADD SWAP1 DUP2 PUSH2 0x1C94 SWAP2 SWAP1 PUSH2 0x36AE JUMP JUMPDEST POP PUSH2 0x1CD4 DUP12 PUSH1 0x40 MLOAD DUP1 PUSH1 0x40 ADD PUSH1 0x40 MSTORE DUP1 PUSH1 0x10 DUP2 MSTORE PUSH1 0x20 ADD PUSH32 0x436F6E7472616374207570646174656400000000000000000000000000000000 DUP2 MSTORE POP PUSH2 0x1F7A JUMP JUMPDEST POP PUSH1 0x2 PUSH1 0x0 DUP4 PUSH26 0xFFFFFFFFFFFFFFFFFFFFFFFFFFFFFFFFFFFFFFFFFFFFFFFFFFFF NOT AND PUSH26 0xFFFFFFFFFFFFFFFFFFFFFFFFFFFFFFFFFFFFFFFFFFFFFFFFFFFF NOT AND DUP2 MSTORE PUSH1 0x20 ADD SWAP1 DUP2 MSTORE PUSH1 0x20 ADD PUSH1 0x0 KECCAK256 PUSH1 0x40 MLOAD DUP1 PUSH1 0x60 ADD PUSH1 0x40 MSTORE DUP1 TIMESTAMP DUP2 MSTORE PUSH1 0x20 ADD DUP4 DUP2 MSTORE PUSH1 0x20 ADD CALLER PUSH20 0xFFFFFFFFFFFFFFFFFFFFFFFFFFFFFFFFFFFFFFFF AND DUP2 MSTORE POP SWAP1 DUP1 PUSH1 0x1 DUP2 SLOAD ADD DUP1 DUP3 SSTORE DUP1 SWAP2 POP POP PUSH1 0x1 SWAP1 SUB SWAP1 PUSH1 0x0 MSTORE PUSH1 0x20 PUSH1 0x0 KECCAK256 SWAP1 PUSH1 0x3 MUL ADD PUSH1 0x0 SWAP1 SWAP2 SWAP1 SWAP2 SWAP1 SWAP2 POP PUSH1 0x0 DUP3 ADD MLOAD DUP2 PUSH1 0x0 ADD SSTORE PUSH1 0x20 DUP3 ADD MLOAD DUP2 PUSH1 0x1 ADD SWAP1 DUP2 PUSH2 0x1D9B SWAP2 SWAP1 PUSH2 0x36AE JUMP JUMPDEST POP PUSH1 0x40 DUP3 ADD MLOAD DUP2 PUSH1 0x2 ADD PUSH1 0x0 PUSH2 0x100 EXP DUP2 SLOAD DUP2 PUSH20 0xFFFFFFFFFFFFFFFFFFFFFFFFFFFFFFFFFFFFFFFF MUL NOT AND SWAP1 DUP4 PUSH20 0xFFFFFFFFFFFFFFFFFFFFFFFFFFFFFFFFFFFFFFFF AND MUL OR SWAP1 SSTORE POP POP POP DUP2 PUSH26 0xFFFFFFFFFFFFFFFFFFFFFFFFFFFFFFFFFFFFFFFFFFFFFFFFFFFF NOT AND PUSH32 0x39260B782A8FF164F57D90E3B0ACA40A9E250547D0EB6B8FDE9B561A498B5138 DUP3 PUSH1 0x40 MLOAD PUSH2 0x1E32 SWAP2 SWAP1 PUSH2 0x3812 JUMP JUMPDEST PUSH1 0x40 MLOAD DUP1 SWAP2 SUB SWAP1 LOG2 POP POP POP POP POP POP POP POP POP POP JUMP JUMPDEST DUP2 PUSH1 0x0 DUP1 DUP3 PUSH26 0xFFFFFFFFFFFFFFFFFFFFFFFFFFFFFFFFFFFFFFFFFFFFFFFFFFFF NOT AND PUSH26 0xFFFFFFFFFFFFFFFFFFFFFFFFFFFFFFFFFFFFFFFFFFFFFFFFFFFF NOT AND DUP2 MSTORE PUSH1 0x20 ADD SWAP1 DUP2 MSTORE PUSH1 0x20 ADD PUSH1 0x0 KECCAK256 PUSH1 0x4 ADD PUSH1 0x2 ADD PUSH2 0x1EA2 SWAP1 PUSH2 0x38B8 JUMP JUMPDEST PUSH1 0x60 SHR PUSH20 0xFFFFFFFFFFFFFFFFFFFFFFFFFFFFFFFFFFFFFFFF AND CALLER PUSH20 0xFFFFFFFFFFFFFFFFFFFFFFFFFFFFFFFFFFFFFFFF AND EQ PUSH2 0x1F12 JUMPI PUSH1 0x40 MLOAD PUSH32 0x8C379A000000000000000000000000000000000000000000000000000000000 DUP2 MSTORE PUSH1 0x4 ADD PUSH2 0x1F09 SWAP1 PUSH2 0x399B JUMP JUMPDEST PUSH1 0x40 MLOAD DUP1 SWAP2 SUB SWAP1 REVERT JUMPDEST PUSH1 0x0 DUP1 PUSH1 0x0 DUP6 PUSH26 0xFFFFFFFFFFFFFFFFFFFFFFFFFFFFFFFFFFFFFFFFFFFFFFFFFFFF NOT AND PUSH26 0xFFFFFFFFFFFFFFFFFFFFFFFFFFFFFFFFFFFFFFFFFFFFFFFFFFFF NOT AND DUP2 MSTORE PUSH1 0x20 ADD SWAP1 DUP2 MSTORE PUSH1 0x20 ADD PUSH1 0x0 KECCAK256 SWAP1 POP DUP3 DUP2 PUSH1 0x18 ADD SWAP1 DUP2 PUSH2 0x1F73 SWAP2 SWAP1 PUSH2 0x36AE JUMP JUMPDEST POP POP POP POP POP JUMP JUMPDEST PUSH1 0x2 PUSH1 0x0 DUP4 PUSH26 0xFFFFFFFFFFFFFFFFFFFFFFFFFFFFFFFFFFFFFFFFFFFFFFFFFFFF NOT AND PUSH26 0xFFFFFFFFFFFFFFFFFFFFFFFFFFFFFFFFFFFFFFFFFFFFFFFFFFFF NOT AND DUP2 MSTORE PUSH1 0x20 ADD SWAP1 DUP2 MSTORE PUSH1 0x20 ADD PUSH1 0x0 KECCAK256 PUSH1 0x40 MLOAD DUP1 PUSH1 0x60 ADD PUSH1 0x40 MSTORE DUP1 TIMESTAMP DUP2 MSTORE PUSH1 0x20 ADD DUP4 DUP2 MSTORE PUSH1 0x20 ADD CALLER PUSH20 0xFFFFFFFFFFFFFFFFFFFFFFFFFFFFFFFFFFFFFFFF AND DUP2 MSTORE POP SWAP1 DUP1 PUSH1 0x1 DUP2 SLOAD ADD DUP1 DUP3 SSTORE DUP1 SWAP2 POP POP PUSH1 0x1 SWAP1 SUB SWAP1 PUSH1 0x0 MSTORE PUSH1 0x20 PUSH1 0x0 KECCAK256 SWAP1 PUSH1 0x3 MUL ADD PUSH1 0x0 SWAP1 SWAP2 SWAP1 SWAP2 SWAP1 SWAP2 POP PUSH1 0x0 DUP3 ADD MLOAD DUP2 PUSH1 0x0 ADD SSTORE PUSH1 0x20 DUP3 ADD MLOAD DUP2 PUSH1 0x1 ADD SWAP1 DUP2 PUSH2 0x2040 SWAP2 SWAP1 PUSH2 0x36AE JUMP JUMPDEST POP PUSH1 0x40 DUP3 ADD MLOAD DUP2 PUSH1 0x2 ADD PUSH1 0x0 PUSH2 0x100 EXP DUP2 SLOAD DUP2 PUSH20 0xFFFFFFFFFFFFFFFFFFFFFFFFFFFFFFFFFFFFFFFF MUL NOT AND SWAP1 DUP4 PUSH20 0xFFFFFFFFFFFFFFFFFFFFFFFFFFFFFFFFFFFFFFFF AND MUL OR SWAP1 SSTORE POP POP POP DUP2 PUSH26 0xFFFFFFFFFFFFFFFFFFFFFFFFFFFFFFFFFFFFFFFFFFFFFFFFFFFF NOT AND PUSH32 0x39260B782A8FF164F57D90E3B0ACA40A9E250547D0EB6B8FDE9B561A498B5138 DUP3 PUSH1 0x40 MLOAD PUSH2 0x20D7 SWAP2 SWAP1 PUSH2 0x3812 JUMP JUMPDEST PUSH1 0x40 MLOAD DUP1 SWAP2 SUB SWAP1 LOG2 POP POP JUMP JUMPDEST PUSH1 0x40 MLOAD DUP1 PUSH2 0x140 ADD PUSH1 0x40 MSTORE DUP1 PUSH1 0x0 DUP2 MSTORE PUSH1 0x20 ADD PUSH2 0x20FE PUSH2 0x21A1 JUMP JUMPDEST DUP2 MSTORE PUSH1 0x20 ADD PUSH2 0x210B PUSH2 0x21A1 JUMP JUMPDEST DUP2 MSTORE PUSH1 0x20 ADD PUSH2 0x2118 PUSH2 0x21C2 JUMP JUMPDEST DUP2 MSTORE PUSH1 0x20 ADD PUSH1 0x60 DUP2 MSTORE PUSH1 0x20 ADD PUSH1 0x60 DUP2 MSTORE PUSH1 0x20 ADD PUSH1 0x60 DUP2 MSTORE PUSH1 0x20 ADD PUSH1 0x60 DUP2 MSTORE PUSH1 0x20 ADD PUSH1 0x60 DUP2 MSTORE PUSH1 0x20 ADD PUSH1 0x60 DUP2 MSTORE POP SWAP1 JUMP JUMPDEST DUP3 DUP1 SLOAD DUP3 DUP3 SSTORE SWAP1 PUSH1 0x0 MSTORE PUSH1 0x20 PUSH1 0x0 KECCAK256 SWAP1 DUP2 ADD SWAP3 DUP3 ISZERO PUSH2 0x2190 JUMPI SWAP2 PUSH1 0x20 MUL DUP3 ADD JUMPDEST DUP3 DUP2 GT ISZERO PUSH2 0x218F JUMPI DUP3 MLOAD DUP3 SWAP1 DUP2 PUSH2 0x217F SWAP2 SWAP1 PUSH2 0x36AE JUMP JUMPDEST POP SWAP2 PUSH1 0x20 ADD SWAP2 SWAP1 PUSH1 0x1 ADD SWAP1 PUSH2 0x2168 JUMP JUMPDEST JUMPDEST POP SWAP1 POP PUSH2 0x219D SWAP2 SWAP1 PUSH2 0x2223 JUMP JUMPDEST POP SWAP1 JUMP JUMPDEST PUSH1 0x40 MLOAD DUP1 PUSH1 0x60 ADD PUSH1 0x40 MSTORE DUP1 PUSH1 0x60 DUP2 MSTORE PUSH1 0x20 ADD PUSH1 0x60 DUP2 MSTORE PUSH1 0x20 ADD PUSH1 0x60 DUP2 MSTORE POP SWAP1 JUMP JUMPDEST PUSH1 0x40 MLOAD DUP1 PUSH2 0x180 ADD PUSH1 0x40 MSTORE DUP1 PUSH1 0x60 DUP2 MSTORE PUSH1 0x20 ADD PUSH1 0x60 DUP2 MSTORE PUSH1 0x20 ADD PUSH1 0x0 DUP2 MSTORE PUSH1 0x20 ADD PUSH1 0x0 DUP2 MSTORE PUSH1 0x20 ADD PUSH1 0x0 DUP2 MSTORE PUSH1 0x20 ADD PUSH1 0x60 DUP2 MSTORE PUSH1 0x20 ADD PUSH1 0x0 DUP2 MSTORE PUSH1 0x20 ADD PUSH1 0x0 DUP2 MSTORE PUSH1 0x20 ADD PUSH1 0x0 DUP2 MSTORE PUSH1 0x20 ADD PUSH1 0x0 DUP2 MSTORE PUSH1 0x20 ADD PUSH1 0x0 DUP2 MSTORE PUSH1 0x20 ADD PUSH1 0x0 DUP2 MSTORE POP SWAP1 JUMP JUMPDEST JUMPDEST DUP1 DUP3 GT ISZERO PUSH2 0x2243 JUMPI PUSH1 0x0 DUP2 DUP2 PUSH2 0x223A SWAP2 SWAP1 PUSH2 0x2247 JUMP JUMPDEST POP PUSH1 0x1 ADD PUSH2 0x2224 JUMP JUMPDEST POP SWAP1 JUMP JUMPDEST POP DUP1 SLOAD PUSH2 0x2253 SWAP1 PUSH2 0x343F JUMP JUMPDEST PUSH1 0x0 DUP3 SSTORE DUP1 PUSH1 0x1F LT PUSH2 0x2265 JUMPI POP PUSH2 0x2284 JUMP JUMPDEST PUSH1 0x1F ADD PUSH1 0x20 SWAP1 DIV SWAP1 PUSH1 0x0 MSTORE PUSH1 0x20 PUSH1 0x0 KECCAK256 SWAP1 DUP2 ADD SWAP1 PUSH2 0x2283 SWAP2 SWAP1 PUSH2 0x2287 JUMP JUMPDEST JUMPDEST POP JUMP JUMPDEST JUMPDEST DUP1 DUP3 GT ISZERO PUSH2 0x22A0 JUMPI PUSH1 0x0 DUP2 PUSH1 0x0 SWAP1 SSTORE POP PUSH1 0x1 ADD PUSH2 0x2288 JUMP JUMPDEST POP SWAP1 JUMP JUMPDEST PUSH1 0x0 PUSH1 0x40 MLOAD SWAP1 POP SWAP1 JUMP JUMPDEST PUSH1 0x0 DUP1 REVERT JUMPDEST PUSH1 0x0 DUP1 REVERT JUMPDEST PUSH1 0x0 PUSH32 0xFFFFFFFFFFFF0000000000000000000000000000000000000000000000000000 DUP3 AND SWAP1 POP SWAP2 SWAP1 POP JUMP JUMPDEST PUSH2 0x22ED DUP2 PUSH2 0x22B8 JUMP JUMPDEST DUP2 EQ PUSH2 0x22F8 JUMPI PUSH1 0x0 DUP1 REVERT JUMPDEST POP JUMP JUMPDEST PUSH1 0x0 DUP2 CALLDATALOAD SWAP1 POP PUSH2 0x230A DUP2 PUSH2 0x22E4 JUMP JUMPDEST SWAP3 SWAP2 POP POP JUMP JUMPDEST PUSH1 0x0 PUSH1 0x20 DUP3 DUP5 SUB SLT ISZERO PUSH2 0x2326 JUMPI PUSH2 0x2325 PUSH2 0x22AE JUMP JUMPDEST JUMPDEST PUSH1 0x0 PUSH2 0x2334 DUP5 DUP3 DUP6 ADD PUSH2 0x22FB JUMP JUMPDEST SWAP2 POP POP SWAP3 SWAP2 POP POP JUMP JUMPDEST PUSH1 0x0 DUP2 MLOAD SWAP1 POP SWAP2 SWAP1 POP JUMP JUMPDEST PUSH1 0x0 DUP3 DUP3 MSTORE PUSH1 0x20 DUP3 ADD SWAP1 POP SWAP3 SWAP2 POP POP JUMP JUMPDEST PUSH1 0x0 DUP2 SWAP1 POP PUSH1 0x20 DUP3 ADD SWAP1 POP SWAP2 SWAP1 POP JUMP JUMPDEST PUSH1 0x0 DUP2 SWAP1 POP SWAP2 SWAP1 POP JUMP JUMPDEST PUSH2 0x237C DUP2 PUSH2 0x2369 JUMP JUMPDEST DUP3 MSTORE POP POP JUMP JUMPDEST PUSH1 0x0 DUP2 MLOAD SWAP1 POP SWAP2 SWAP1 POP JUMP JUMPDEST PUSH1 0x0 DUP3 DUP3 MSTORE PUSH1 0x20 DUP3 ADD SWAP1 POP SWAP3 SWAP2 POP POP JUMP JUMPDEST PUSH1 0x0 JUMPDEST DUP4 DUP2 LT ISZERO PUSH2 0x23BC JUMPI DUP1 DUP3 ADD MLOAD DUP2 DUP5 ADD MSTORE PUSH1 0x20 DUP2 ADD SWAP1 POP PUSH2 0x23A1 JUMP JUMPDEST PUSH1 0x0 DUP5 DUP5 ADD MSTORE POP POP POP POP JUMP JUMPDEST PUSH1 0x0 PUSH1 0x1F NOT PUSH1 0x1F DUP4 ADD AND SWAP1 POP SWAP2 SWAP1 POP JUMP JUMPDEST PUSH1 0x0 PUSH2 0x23E4 DUP3 PUSH2 0x2382 JUMP JUMPDEST PUSH2 0x23EE DUP2 DUP6 PUSH2 0x238D JUMP JUMPDEST SWAP4 POP PUSH2 0x23FE DUP2 DUP6 PUSH1 0x20 DUP7 ADD PUSH2 0x239E JUMP JUMPDEST PUSH2 0x2407 DUP2 PUSH2 0x23C8 JUMP JUMPDEST DUP5 ADD SWAP2 POP POP SWAP3 SWAP2 POP POP JUMP JUMPDEST PUSH1 0x0 PUSH20 0xFFFFFFFFFFFFFFFFFFFFFFFFFFFFFFFFFFFFFFFF DUP3 AND SWAP1 POP SWAP2 SWAP1 POP JUMP JUMPDEST PUSH1 0x0 PUSH2 0x243D DUP3 PUSH2 0x2412 JUMP JUMPDEST SWAP1 POP SWAP2 SWAP1 POP JUMP JUMPDEST PUSH2 0x244D DUP2 PUSH2 0x2432 JUMP JUMPDEST DUP3 MSTORE POP POP JUMP JUMPDEST PUSH1 0x0 PUSH1 0x60 DUP4 ADD PUSH1 0x0 DUP4 ADD MLOAD PUSH2 0x246B PUSH1 0x0 DUP7 ADD DUP3 PUSH2 0x2373 JUMP JUMPDEST POP PUSH1 0x20 DUP4 ADD MLOAD DUP5 DUP3 SUB PUSH1 0x20 DUP7 ADD MSTORE PUSH2 0x2483 DUP3 DUP3 PUSH2 0x23D9 JUMP JUMPDEST SWAP2 POP POP PUSH1 0x40 DUP4 ADD MLOAD PUSH2 0x2498 PUSH1 0x40 DUP7 ADD DUP3 PUSH2 0x2444 JUMP JUMPDEST POP DUP1 SWAP2 POP POP SWAP3 SWAP2 POP POP JUMP JUMPDEST PUSH1 0x0 PUSH2 0x24AF DUP4 DUP4 PUSH2 0x2453 JUMP JUMPDEST SWAP1 POP SWAP3 SWAP2 POP POP JUMP JUMPDEST PUSH1 0x0 PUSH1 0x20 DUP3 ADD SWAP1 POP SWAP2 SWAP1 POP JUMP JUMPDEST PUSH1 0x0 PUSH2 0x24CF DUP3 PUSH2 0x233D JUMP JUMPDEST PUSH2 0x24D9 DUP2 DUP6 PUSH2 0x2348 JUMP JUMPDEST SWAP4 POP DUP4 PUSH1 0x20 DUP3 MUL DUP6 ADD PUSH2 0x24EB DUP6 PUSH2 0x2359 JUMP JUMPDEST DUP1 PUSH1 0x0 JUMPDEST DUP6 DUP2 LT ISZERO PUSH2 0x2527 JUMPI DUP5 DUP5 SUB DUP10 MSTORE DUP2 MLOAD PUSH2 0x2508 DUP6 DUP3 PUSH2 0x24A3 JUMP JUMPDEST SWAP5 POP PUSH2 0x2513 DUP4 PUSH2 0x24B7 JUMP JUMPDEST SWAP3 POP PUSH1 0x20 DUP11 ADD SWAP10 POP POP PUSH1 0x1 DUP2 ADD SWAP1 POP PUSH2 0x24EF JUMP JUMPDEST POP DUP3 SWAP8 POP DUP8 SWAP6 POP POP POP POP POP POP SWAP3 SWAP2 POP POP JUMP JUMPDEST PUSH1 0x0 PUSH1 0x20 DUP3 ADD SWAP1 POP DUP2 DUP2 SUB PUSH1 0x0 DUP4 ADD MSTORE PUSH2 0x2553 DUP2 DUP5 PUSH2 0x24C4 JUMP JUMPDEST SWAP1 POP SWAP3 SWAP2 POP POP JUMP JUMPDEST PUSH2 0x2564 DUP2 PUSH2 0x2369 JUMP JUMPDEST DUP2 EQ PUSH2 0x256F JUMPI PUSH1 0x0 DUP1 REVERT JUMPDEST POP JUMP JUMPDEST PUSH1 0x0 DUP2 CALLDATALOAD SWAP1 POP PUSH2 0x2581 DUP2 PUSH2 0x255B JUMP JUMPDEST SWAP3 SWAP2 POP POP JUMP JUMPDEST PUSH1 0x0 DUP1 PUSH1 0x40 DUP4 DUP6 SUB SLT ISZERO PUSH2 0x259E JUMPI PUSH2 0x259D PUSH2 0x22AE JUMP JUMPDEST JUMPDEST PUSH1 0x0 PUSH2 0x25AC DUP6 DUP3 DUP7 ADD PUSH2 0x22FB JUMP JUMPDEST SWAP3 POP POP PUSH1 0x20 PUSH2 0x25BD DUP6 DUP3 DUP7 ADD PUSH2 0x2572 JUMP JUMPDEST SWAP2 POP POP SWAP3 POP SWAP3 SWAP1 POP JUMP JUMPDEST PUSH2 0x25D0 DUP2 PUSH2 0x2369 JUMP JUMPDEST DUP3 MSTORE POP POP JUMP JUMPDEST PUSH1 0x0 DUP3 DUP3 MSTORE PUSH1 0x20 DUP3 ADD SWAP1 POP SWAP3 SWAP2 POP POP JUMP JUMPDEST PUSH1 0x0 PUSH2 0x25F2 DUP3 PUSH2 0x2382 JUMP JUMPDEST PUSH2 0x25FC DUP2 DUP6 PUSH2 0x25D6 JUMP JUMPDEST SWAP4 POP PUSH2 0x260C DUP2 DUP6 PUSH1 0x20 DUP7 ADD PUSH2 0x239E JUMP JUMPDEST PUSH2 0x2615 DUP2 PUSH2 0x23C8 JUMP JUMPDEST DUP5 ADD SWAP2 POP POP SWAP3 SWAP2 POP POP JUMP JUMPDEST PUSH2 0x2629 DUP2 PUSH2 0x2432 JUMP JUMPDEST DUP3 MSTORE POP POP JUMP JUMPDEST PUSH1 0x0 PUSH1 0x60 DUP3 ADD SWAP1 POP PUSH2 0x2644 PUSH1 0x0 DUP4 ADD DUP7 PUSH2 0x25C7 JUMP JUMPDEST DUP2 DUP2 SUB PUSH1 0x20 DUP4 ADD MSTORE PUSH2 0x2656 DUP2 DUP6 PUSH2 0x25E7 JUMP JUMPDEST SWAP1 POP PUSH2 0x2665 PUSH1 0x40 DUP4 ADD DUP5 PUSH2 0x2620 JUMP JUMPDEST SWAP5 SWAP4 POP POP POP POP JUMP JUMPDEST PUSH1 0x0 PUSH1 0x60 DUP4 ADD PUSH1 0x0 DUP4 ADD MLOAD DUP5 DUP3 SUB PUSH1 0x0 DUP7 ADD MSTORE PUSH2 0x268A DUP3 DUP3 PUSH2 0x23D9 JUMP JUMPDEST SWAP2 POP POP PUSH1 0x20 DUP4 ADD MLOAD DUP5 DUP3 SUB PUSH1 0x20 DUP7 ADD MSTORE PUSH2 0x26A4 DUP3 DUP3 PUSH2 0x23D9 JUMP JUMPDEST SWAP2 POP POP PUSH1 0x40 DUP4 ADD MLOAD DUP5 DUP3 SUB PUSH1 0x40 DUP7 ADD MSTORE PUSH2 0x26BE DUP3 DUP3 PUSH2 0x23D9 JUMP JUMPDEST SWAP2 POP POP DUP1 SWAP2 POP POP SWAP3 SWAP2 POP POP JUMP JUMPDEST PUSH1 0x0 DUP2 SWAP1 POP SWAP2 SWAP1 POP JUMP JUMPDEST PUSH2 0x26DE DUP2 PUSH2 0x26CB JUMP JUMPDEST DUP3 MSTORE POP POP JUMP JUMPDEST PUSH1 0x0 PUSH2 0x180 DUP4 ADD PUSH1 0x0 DUP4 ADD MLOAD DUP5 DUP3 SUB PUSH1 0x0 DUP7 ADD MSTORE PUSH2 0x2702 DUP3 DUP3 PUSH2 0x23D9 JUMP JUMPDEST SWAP2 POP POP PUSH1 0x20 DUP4 ADD MLOAD DUP5 DUP3 SUB PUSH1 0x20 DUP7 ADD MSTORE PUSH2 0x271C DUP3 DUP3 PUSH2 0x23D9 JUMP JUMPDEST SWAP2 POP POP PUSH1 0x40 DUP4 ADD MLOAD PUSH2 0x2731 PUSH1 0x40 DUP7 ADD DUP3 PUSH2 0x2373 JUMP JUMPDEST POP PUSH1 0x60 DUP4 ADD MLOAD PUSH2 0x2744 PUSH1 0x60 DUP7 ADD DUP3 PUSH2 0x2373 JUMP JUMPDEST POP PUSH1 0x80 DUP4 ADD MLOAD PUSH2 0x2757 PUSH1 0x80 DUP7 ADD DUP3 PUSH2 0x2373 JUMP JUMPDEST POP PUSH1 0xA0 DUP4 ADD MLOAD DUP5 DUP3 SUB PUSH1 0xA0 DUP7 ADD MSTORE PUSH2 0x276F DUP3 DUP3 PUSH2 0x23D9 JUMP JUMPDEST SWAP2 POP POP PUSH1 0xC0 DUP4 ADD MLOAD PUSH2 0x2784 PUSH1 0xC0 DUP7 ADD DUP3 PUSH2 0x2373 JUMP JUMPDEST POP PUSH1 0xE0 DUP4 ADD MLOAD PUSH2 0x2797 PUSH1 0xE0 DUP7 ADD DUP3 PUSH2 0x2373 JUMP JUMPDEST POP PUSH2 0x100 DUP4 ADD MLOAD PUSH2 0x27AC PUSH2 0x100 DUP7 ADD DUP3 PUSH2 0x2373 JUMP JUMPDEST POP PUSH2 0x120 DUP4 ADD MLOAD PUSH2 0x27C1 PUSH2 0x120 DUP7 ADD DUP3 PUSH2 0x2373 JUMP JUMPDEST POP PUSH2 0x140 DUP4 ADD MLOAD PUSH2 0x27D6 PUSH2 0x140 DUP7 ADD DUP3 PUSH2 0x26D5 JUMP JUMPDEST POP PUSH2 0x160 DUP4 ADD MLOAD PUSH2 0x27EB PUSH2 0x160 DUP7 ADD DUP3 PUSH2 0x26D5 JUMP JUMPDEST POP DUP1 SWAP2 POP POP SWAP3 SWAP2 POP POP JUMP JUMPDEST PUSH1 0x0 DUP2 MLOAD SWAP1 POP SWAP2 SWAP1 POP JUMP JUMPDEST PUSH1 0x0 DUP3 DUP3 MSTORE PUSH1 0x20 DUP3 ADD SWAP1 POP SWAP3 SWAP2 POP POP JUMP JUMPDEST PUSH1 0x0 DUP2 SWAP1 POP PUSH1 0x20 DUP3 ADD SWAP1 POP SWAP2 SWAP1 POP JUMP JUMPDEST PUSH1 0x0 PUSH2 0x282E DUP4 DUP4 PUSH2 0x23D9 JUMP JUMPDEST SWAP1 POP SWAP3 SWAP2 POP POP JUMP JUMPDEST PUSH1 0x0 PUSH1 0x20 DUP3 ADD SWAP1 POP SWAP2 SWAP1 POP JUMP JUMPDEST PUSH1 0x0 PUSH2 0x284E DUP3 PUSH2 0x27F6 JUMP JUMPDEST PUSH2 0x2858 DUP2 DUP6 PUSH2 0x2801 JUMP JUMPDEST SWAP4 POP DUP4 PUSH1 0x20 DUP3 MUL DUP6 ADD PUSH2 0x286A DUP6 PUSH2 0x2812 JUMP JUMPDEST DUP1 PUSH1 0x0 JUMPDEST DUP6 DUP2 LT ISZERO PUSH2 0x28A6 JUMPI DUP5 DUP5 SUB DUP10 MSTORE DUP2 MLOAD PUSH2 0x2887 DUP6 DUP3 PUSH2 0x2822 JUMP JUMPDEST SWAP5 POP PUSH2 0x2892 DUP4 PUSH2 0x2836 JUMP JUMPDEST SWAP3 POP PUSH1 0x20 DUP11 ADD SWAP10 POP POP PUSH1 0x1 DUP2 ADD SWAP1 POP PUSH2 0x286E JUMP JUMPDEST POP DUP3 SWAP8 POP DUP8 SWAP6 POP POP POP POP POP POP SWAP3 SWAP2 POP POP JUMP JUMPDEST PUSH1 0x0 PUSH2 0x140 DUP4 ADD PUSH1 0x0 DUP4 ADD MLOAD PUSH2 0x28D1 PUSH1 0x0 DUP7 ADD DUP3 PUSH2 0x2373 JUMP JUMPDEST POP PUSH1 0x20 DUP4 ADD MLOAD DUP5 DUP3 SUB PUSH1 0x20 DUP7 ADD MSTORE PUSH2 0x28E9 DUP3 DUP3 PUSH2 0x266D JUMP JUMPDEST SWAP2 POP POP PUSH1 0x40 DUP4 ADD MLOAD DUP5 DUP3 SUB PUSH1 0x40 DUP7 ADD MSTORE PUSH2 0x2903 DUP3 DUP3 PUSH2 0x266D JUMP JUMPDEST SWAP2 POP POP PUSH1 0x60 DUP4 ADD MLOAD DUP5 DUP3 SUB PUSH1 0x60 DUP7 ADD MSTORE PUSH2 0x291D DUP3 DUP3 PUSH2 0x26E4 JUMP JUMPDEST SWAP2 POP POP PUSH1 0x80 DUP4 ADD MLOAD DUP5 DUP3 SUB PUSH1 0x80 DUP7 ADD MSTORE PUSH2 0x2937 DUP3 DUP3 PUSH2 0x23D9 JUMP JUMPDEST SWAP2 POP POP PUSH1 0xA0 DUP4 ADD MLOAD DUP5 DUP3 SUB PUSH1 0xA0 DUP7 ADD MSTORE PUSH2 0x2951 DUP3 DUP3 PUSH2 0x2843 JUMP JUMPDEST SWAP2 POP POP PUSH1 0xC0 DUP4 ADD MLOAD DUP5 DUP3 SUB PUSH1 0xC0 DUP7 ADD MSTORE PUSH2 0x296B DUP3 DUP3 PUSH2 0x2843 JUMP JUMPDEST SWAP2 POP POP PUSH1 0xE0 DUP4 ADD MLOAD DUP5 DUP3 SUB PUSH1 0xE0 DUP7 ADD MSTORE PUSH2 0x2985 DUP3 DUP3 PUSH2 0x2843 JUMP JUMPDEST SWAP2 POP POP PUSH2 0x100 DUP4 ADD MLOAD DUP5 DUP3 SUB PUSH2 0x100 DUP7 ADD MSTORE PUSH2 0x29A1 DUP3 DUP3 PUSH2 0x23D9 JUMP JUMPDEST SWAP2 POP POP PUSH2 0x120 DUP4 ADD MLOAD DUP5 DUP3 SUB PUSH2 0x120 DUP7 ADD MSTORE PUSH2 0x29BD DUP3 DUP3 PUSH2 0x23D9 JUMP JUMPDEST SWAP2 POP POP DUP1 SWAP2 POP POP SWAP3 SWAP2 POP POP JUMP JUMPDEST PUSH1 0x0 PUSH1 0x20 DUP3 ADD SWAP1 POP DUP2 DUP2 SUB PUSH1 0x0 DUP4 ADD MSTORE PUSH2 0x29E4 DUP2 DUP5 PUSH2 0x28B8 JUMP JUMPDEST SWAP1 POP SWAP3 SWAP2 POP POP JUMP JUMPDEST PUSH1 0x0 PUSH1 0x60 DUP4 ADD PUSH1 0x0 DUP4 ADD MLOAD DUP5 DUP3 SUB PUSH1 0x0 DUP7 ADD MSTORE PUSH2 0x2A09 DUP3 DUP3 PUSH2 0x23D9 JUMP JUMPDEST SWAP2 POP POP PUSH1 0x20 DUP4 ADD MLOAD DUP5 DUP3 SUB PUSH1 0x20 DUP7 ADD MSTORE PUSH2 0x2A23 DUP3 DUP3 PUSH2 0x23D9 JUMP JUMPDEST SWAP2 POP POP PUSH1 0x40 DUP4 ADD MLOAD DUP5 DUP3 SUB PUSH1 0x40 DUP7 ADD MSTORE PUSH2 0x2A3D DUP3 DUP3 PUSH2 0x23D9 JUMP JUMPDEST SWAP2 POP POP DUP1 SWAP2 POP POP SWAP3 SWAP2 POP POP JUMP JUMPDEST PUSH1 0x0 PUSH2 0x180 DUP4 ADD PUSH1 0x0 DUP4 ADD MLOAD DUP5 DUP3 SUB PUSH1 0x0 DUP7 ADD MSTORE PUSH2 0x2A68 DUP3 DUP3 PUSH2 0x23D9 JUMP JUMPDEST SWAP2 POP POP PUSH1 0x20 DUP4 ADD MLOAD DUP5 DUP3 SUB PUSH1 0x20 DUP7 ADD MSTORE PUSH2 0x2A82 DUP3 DUP3 PUSH2 0x23D9 JUMP JUMPDEST SWAP2 POP POP PUSH1 0x40 DUP4 ADD MLOAD PUSH2 0x2A97 PUSH1 0x40 DUP7 ADD DUP3 PUSH2 0x2373 JUMP JUMPDEST POP PUSH1 0x60 DUP4 ADD MLOAD PUSH2 0x2AAA PUSH1 0x60 DUP7 ADD DUP3 PUSH2 0x2373 JUMP JUMPDEST POP PUSH1 0x80 DUP4 ADD MLOAD PUSH2 0x2ABD PUSH1 0x80 DUP7 ADD DUP3 PUSH2 0x2373 JUMP JUMPDEST POP PUSH1 0xA0 DUP4 ADD MLOAD DUP5 DUP3 SUB PUSH1 0xA0 DUP7 ADD MSTORE PUSH2 0x2AD5 DUP3 DUP3 PUSH2 0x23D9 JUMP JUMPDEST SWAP2 POP POP PUSH1 0xC0 DUP4 ADD MLOAD PUSH2 0x2AEA PUSH1 0xC0 DUP7 ADD DUP3 PUSH2 0x2373 JUMP JUMPDEST POP PUSH1 0xE0 DUP4 ADD MLOAD PUSH2 0x2AFD PUSH1 0xE0 DUP7 ADD DUP3 PUSH2 0x2373 JUMP JUMPDEST POP PUSH2 0x100 DUP4 ADD MLOAD PUSH2 0x2B12 PUSH2 0x100 DUP7 ADD DUP3 PUSH2 0x2373 JUMP JUMPDEST POP PUSH2 0x120 DUP4 ADD MLOAD PUSH2 0x2B27 PUSH2 0x120 DUP7 ADD DUP3 PUSH2 0x2373 JUMP JUMPDEST POP PUSH2 0x140 DUP4 ADD MLOAD PUSH2 0x2B3C PUSH2 0x140 DUP7 ADD DUP3 PUSH2 0x26D5 JUMP JUMPDEST POP PUSH2 0x160 DUP4 ADD MLOAD PUSH2 0x2B51 PUSH2 0x160 DUP7 ADD DUP3 PUSH2 0x26D5 JUMP JUMPDEST POP DUP1 SWAP2 POP POP SWAP3 SWAP2 POP POP JUMP JUMPDEST PUSH1 0x0 PUSH1 0xE0 DUP3 ADD SWAP1 POP PUSH2 0x2B71 PUSH1 0x0 DUP4 ADD DUP11 PUSH2 0x25C7 JUMP JUMPDEST DUP2 DUP2 SUB PUSH1 0x20 DUP4 ADD MSTORE PUSH2 0x2B83 DUP2 DUP10 PUSH2 0x29EC JUMP JUMPDEST SWAP1 POP DUP2 DUP2 SUB PUSH1 0x40 DUP4 ADD MSTORE PUSH2 0x2B97 DUP2 DUP9 PUSH2 0x29EC JUMP JUMPDEST SWAP1 POP DUP2 DUP2 SUB PUSH1 0x60 DUP4 ADD MSTORE PUSH2 0x2BAB DUP2 DUP8 PUSH2 0x2A4A JUMP JUMPDEST SWAP1 POP DUP2 DUP2 SUB PUSH1 0x80 DUP4 ADD MSTORE PUSH2 0x2BBF DUP2 DUP7 PUSH2 0x25E7 JUMP JUMPDEST SWAP1 POP DUP2 DUP2 SUB PUSH1 0xA0 DUP4 ADD MSTORE PUSH2 0x2BD3 DUP2 DUP6 PUSH2 0x25E7 JUMP JUMPDEST SWAP1 POP DUP2 DUP2 SUB PUSH1 0xC0 DUP4 ADD MSTORE PUSH2 0x2BE7 DUP2 DUP5 PUSH2 0x25E7 JUMP JUMPDEST SWAP1 POP SWAP9 SWAP8 POP POP POP POP POP POP POP POP JUMP JUMPDEST PUSH1 0x0 DUP1 REVERT JUMPDEST PUSH32 0x4E487B7100000000000000000000000000000000000000000000000000000000 PUSH1 0x0 MSTORE PUSH1 0x41 PUSH1 0x4 MSTORE PUSH1 0x24 PUSH1 0x0 REVERT JUMPDEST PUSH2 0x2C32 DUP3 PUSH2 0x23C8 JUMP JUMPDEST DUP2 ADD DUP2 DUP2 LT PUSH8 0xFFFFFFFFFFFFFFFF DUP3 GT OR ISZERO PUSH2 0x2C51 JUMPI PUSH2 0x2C50 PUSH2 0x2BFA JUMP JUMPDEST JUMPDEST DUP1 PUSH1 0x40 MSTORE POP POP POP JUMP JUMPDEST PUSH1 0x0 PUSH2 0x2C64 PUSH2 0x22A4 JUMP JUMPDEST SWAP1 POP PUSH2 0x2C70 DUP3 DUP3 PUSH2 0x2C29 JUMP JUMPDEST SWAP2 SWAP1 POP JUMP JUMPDEST PUSH1 0x0 DUP1 REVERT JUMPDEST PUSH1 0x0 DUP1 REVERT JUMPDEST PUSH1 0x0 DUP1 REVERT JUMPDEST PUSH1 0x0 PUSH8 0xFFFFFFFFFFFFFFFF DUP3 GT ISZERO PUSH2 0x2C9F JUMPI PUSH2 0x2C9E PUSH2 0x2BFA JUMP JUMPDEST JUMPDEST PUSH2 0x2CA8 DUP3 PUSH2 0x23C8 JUMP JUMPDEST SWAP1 POP PUSH1 0x20 DUP2 ADD SWAP1 POP SWAP2 SWAP1 POP JUMP JUMPDEST DUP3 DUP2 DUP4 CALLDATACOPY PUSH1 0x0 DUP4 DUP4 ADD MSTORE POP POP POP JUMP JUMPDEST PUSH1 0x0 PUSH2 0x2CD7 PUSH2 0x2CD2 DUP5 PUSH2 0x2C84 JUMP JUMPDEST PUSH2 0x2C5A JUMP JUMPDEST SWAP1 POP DUP3 DUP2 MSTORE PUSH1 0x20 DUP2 ADD DUP5 DUP5 DUP5 ADD GT ISZERO PUSH2 0x2CF3 JUMPI PUSH2 0x2CF2 PUSH2 0x2C7F JUMP JUMPDEST JUMPDEST PUSH2 0x2CFE DUP5 DUP3 DUP6 PUSH2 0x2CB5 JUMP JUMPDEST POP SWAP4 SWAP3 POP POP POP JUMP JUMPDEST PUSH1 0x0 DUP3 PUSH1 0x1F DUP4 ADD SLT PUSH2 0x2D1B JUMPI PUSH2 0x2D1A PUSH2 0x2C7A JUMP JUMPDEST JUMPDEST DUP2 CALLDATALOAD PUSH2 0x2D2B DUP5 DUP3 PUSH1 0x20 DUP7 ADD PUSH2 0x2CC4 JUMP JUMPDEST SWAP2 POP POP SWAP3 SWAP2 POP POP JUMP JUMPDEST PUSH1 0x0 PUSH1 0x60 DUP3 DUP5 SUB SLT ISZERO PUSH2 0x2D4A JUMPI PUSH2 0x2D49 PUSH2 0x2BF5 JUMP JUMPDEST JUMPDEST PUSH2 0x2D54 PUSH1 0x60 PUSH2 0x2C5A JUMP JUMPDEST SWAP1 POP PUSH1 0x0 DUP3 ADD CALLDATALOAD PUSH8 0xFFFFFFFFFFFFFFFF DUP2 GT ISZERO PUSH2 0x2D74 JUMPI PUSH2 0x2D73 PUSH2 0x2C75 JUMP JUMPDEST JUMPDEST PUSH2 0x2D80 DUP5 DUP3 DUP6 ADD PUSH2 0x2D06 JUMP JUMPDEST PUSH1 0x0 DUP4 ADD MSTORE POP PUSH1 0x20 DUP3 ADD CALLDATALOAD PUSH8 0xFFFFFFFFFFFFFFFF DUP2 GT ISZERO PUSH2 0x2DA4 JUMPI PUSH2 0x2DA3 PUSH2 0x2C75 JUMP JUMPDEST JUMPDEST PUSH2 0x2DB0 DUP5 DUP3 DUP6 ADD PUSH2 0x2D06 JUMP JUMPDEST PUSH1 0x20 DUP4 ADD MSTORE POP PUSH1 0x40 DUP3 ADD CALLDATALOAD PUSH8 0xFFFFFFFFFFFFFFFF DUP2 GT ISZERO PUSH2 0x2DD4 JUMPI PUSH2 0x2DD3 PUSH2 0x2C75 JUMP JUMPDEST JUMPDEST PUSH2 0x2DE0 DUP5 DUP3 DUP6 ADD PUSH2 0x2D06 JUMP JUMPDEST PUSH1 0x40 DUP4 ADD MSTORE POP SWAP3 SWAP2 POP POP JUMP JUMPDEST PUSH2 0x2DF5 DUP2 PUSH2 0x26CB JUMP JUMPDEST DUP2 EQ PUSH2 0x2E00 JUMPI PUSH1 0x0 DUP1 REVERT JUMPDEST POP JUMP JUMPDEST PUSH1 0x0 DUP2 CALLDATALOAD SWAP1 POP PUSH2 0x2E12 DUP2 PUSH2 0x2DEC JUMP JUMPDEST SWAP3 SWAP2 POP POP JUMP JUMPDEST PUSH1 0x0 PUSH2 0x180 DUP3 DUP5 SUB SLT ISZERO PUSH2 0x2E2F JUMPI PUSH2 0x2E2E PUSH2 0x2BF5 JUMP JUMPDEST JUMPDEST PUSH2 0x2E3A PUSH2 0x180 PUSH2 0x2C5A JUMP JUMPDEST SWAP1 POP PUSH1 0x0 DUP3 ADD CALLDATALOAD PUSH8 0xFFFFFFFFFFFFFFFF DUP2 GT ISZERO PUSH2 0x2E5A JUMPI PUSH2 0x2E59 PUSH2 0x2C75 JUMP JUMPDEST JUMPDEST PUSH2 0x2E66 DUP5 DUP3 DUP6 ADD PUSH2 0x2D06 JUMP JUMPDEST PUSH1 0x0 DUP4 ADD MSTORE POP PUSH1 0x20 DUP3 ADD CALLDATALOAD PUSH8 0xFFFFFFFFFFFFFFFF DUP2 GT ISZERO PUSH2 0x2E8A JUMPI PUSH2 0x2E89 PUSH2 0x2C75 JUMP JUMPDEST JUMPDEST PUSH2 0x2E96 DUP5 DUP3 DUP6 ADD PUSH2 0x2D06 JUMP JUMPDEST PUSH1 0x20 DUP4 ADD MSTORE POP PUSH1 0x40 PUSH2 0x2EAA DUP5 DUP3 DUP6 ADD PUSH2 0x2572 JUMP JUMPDEST PUSH1 0x40 DUP4 ADD MSTORE POP PUSH1 0x60 PUSH2 0x2EBE DUP5 DUP3 DUP6 ADD PUSH2 0x2572 JUMP JUMPDEST PUSH1 0x60 DUP4 ADD MSTORE POP PUSH1 0x80 PUSH2 0x2ED2 DUP5 DUP3 DUP6 ADD PUSH2 0x2572 JUMP JUMPDEST PUSH1 0x80 DUP4 ADD MSTORE POP PUSH1 0xA0 DUP3 ADD CALLDATALOAD PUSH8 0xFFFFFFFFFFFFFFFF DUP2 GT ISZERO PUSH2 0x2EF6 JUMPI PUSH2 0x2EF5 PUSH2 0x2C75 JUMP JUMPDEST JUMPDEST PUSH2 0x2F02 DUP5 DUP3 DUP6 ADD PUSH2 0x2D06 JUMP JUMPDEST PUSH1 0xA0 DUP4 ADD MSTORE POP PUSH1 0xC0 PUSH2 0x2F16 DUP5 DUP3 DUP6 ADD PUSH2 0x2572 JUMP JUMPDEST PUSH1 0xC0 DUP4 ADD MSTORE POP PUSH1 0xE0 PUSH2 0x2F2A DUP5 DUP3 DUP6 ADD PUSH2 0x2572 JUMP JUMPDEST PUSH1 0xE0 DUP4 ADD MSTORE POP PUSH2 0x100 PUSH2 0x2F3F DUP5 DUP3 DUP6 ADD PUSH2 0x2572 JUMP JUMPDEST PUSH2 0x100 DUP4 ADD MSTORE POP PUSH2 0x120 PUSH2 0x2F55 DUP5 DUP3 DUP6 ADD PUSH2 0x2572 JUMP JUMPDEST PUSH2 0x120 DUP4 ADD MSTORE POP PUSH2 0x140 PUSH2 0x2F6B DUP5 DUP3 DUP6 ADD PUSH2 0x2E03 JUMP JUMPDEST PUSH2 0x140 DUP4 ADD MSTORE POP PUSH2 0x160 PUSH2 0x2F81 DUP5 DUP3 DUP6 ADD PUSH2 0x2E03 JUMP JUMPDEST PUSH2 0x160 DUP4 ADD MSTORE POP SWAP3 SWAP2 POP POP JUMP JUMPDEST PUSH1 0x0 PUSH8 0xFFFFFFFFFFFFFFFF DUP3 GT ISZERO PUSH2 0x2FA9 JUMPI PUSH2 0x2FA8 PUSH2 0x2BFA JUMP JUMPDEST JUMPDEST PUSH1 0x20 DUP3 MUL SWAP1 POP PUSH1 0x20 DUP2 ADD SWAP1 POP SWAP2 SWAP1 POP JUMP JUMPDEST PUSH1 0x0 DUP1 REVERT JUMPDEST PUSH1 0x0 PUSH2 0x2FD2 PUSH2 0x2FCD DUP5 PUSH2 0x2F8E JUMP JUMPDEST PUSH2 0x2C5A JUMP JUMPDEST SWAP1 POP DUP1 DUP4 DUP3 MSTORE PUSH1 0x20 DUP3 ADD SWAP1 POP PUSH1 0x20 DUP5 MUL DUP4 ADD DUP6 DUP2 GT ISZERO PUSH2 0x2FF5 JUMPI PUSH2 0x2FF4 PUSH2 0x2FBA JUMP JUMPDEST JUMPDEST DUP4 JUMPDEST DUP2 DUP2 LT ISZERO PUSH2 0x303C JUMPI DUP1 CALLDATALOAD PUSH8 0xFFFFFFFFFFFFFFFF DUP2 GT ISZERO PUSH2 0x301A JUMPI PUSH2 0x3019 PUSH2 0x2C7A JUMP JUMPDEST JUMPDEST DUP1 DUP7 ADD PUSH2 0x3027 DUP10 DUP3 PUSH2 0x2D06 JUMP JUMPDEST DUP6 MSTORE PUSH1 0x20 DUP6 ADD SWAP5 POP POP POP PUSH1 0x20 DUP2 ADD SWAP1 POP PUSH2 0x2FF7 JUMP JUMPDEST POP POP POP SWAP4 SWAP3 POP POP POP JUMP JUMPDEST PUSH1 0x0 DUP3 PUSH1 0x1F DUP4 ADD SLT PUSH2 0x305B JUMPI PUSH2 0x305A PUSH2 0x2C7A JUMP JUMPDEST JUMPDEST DUP2 CALLDATALOAD PUSH2 0x306B DUP5 DUP3 PUSH1 0x20 DUP7 ADD PUSH2 0x2FBF JUMP JUMPDEST SWAP2 POP POP SWAP3 SWAP2 POP POP JUMP JUMPDEST PUSH1 0x0 DUP1 PUSH1 0x0 DUP1 PUSH1 0x0 DUP1 PUSH1 0x0 DUP1 PUSH1 0x0 DUP1 PUSH2 0x140 DUP12 DUP14 SUB SLT ISZERO PUSH2 0x3098 JUMPI PUSH2 0x3097 PUSH2 0x22AE JUMP JUMPDEST JUMPDEST PUSH1 0x0 PUSH2 0x30A6 DUP14 DUP3 DUP15 ADD PUSH2 0x22FB JUMP JUMPDEST SWAP11 POP POP PUSH1 0x20 DUP12 ADD CALLDATALOAD PUSH8 0xFFFFFFFFFFFFFFFF DUP2 GT ISZERO PUSH2 0x30C7 JUMPI PUSH2 0x30C6 PUSH2 0x22B3 JUMP JUMPDEST JUMPDEST PUSH2 0x30D3 DUP14 DUP3 DUP15 ADD PUSH2 0x2D34 JUMP JUMPDEST SWAP10 POP POP PUSH1 0x40 DUP12 ADD CALLDATALOAD PUSH8 0xFFFFFFFFFFFFFFFF DUP2 GT ISZERO PUSH2 0x30F4 JUMPI PUSH2 0x30F3 PUSH2 0x22B3 JUMP JUMPDEST JUMPDEST PUSH2 0x3100 DUP14 DUP3 DUP15 ADD PUSH2 0x2D34 JUMP JUMPDEST SWAP9 POP POP PUSH1 0x60 DUP12 ADD CALLDATALOAD PUSH8 0xFFFFFFFFFFFFFFFF DUP2 GT ISZERO PUSH2 0x3121 JUMPI PUSH2 0x3120 PUSH2 0x22B3 JUMP JUMPDEST JUMPDEST PUSH2 0x312D DUP14 DUP3 DUP15 ADD PUSH2 0x2E18 JUMP JUMPDEST SWAP8 POP POP PUSH1 0x80 DUP12 ADD CALLDATALOAD PUSH8 0xFFFFFFFFFFFFFFFF DUP2 GT ISZERO PUSH2 0x314E JUMPI PUSH2 0x314D PUSH2 0x22B3 JUMP JUMPDEST JUMPDEST PUSH2 0x315A DUP14 DUP3 DUP15 ADD PUSH2 0x2D06 JUMP JUMPDEST SWAP7 POP POP PUSH1 0xA0 DUP12 ADD CALLDATALOAD PUSH8 0xFFFFFFFFFFFFFFFF DUP2 GT ISZERO PUSH2 0x317B JUMPI PUSH2 0x317A PUSH2 0x22B3 JUMP JUMPDEST JUMPDEST PUSH2 0x3187 DUP14 DUP3 DUP15 ADD PUSH2 0x3046 JUMP JUMPDEST SWAP6 POP POP PUSH1 0xC0 DUP12 ADD CALLDATALOAD PUSH8 0xFFFFFFFFFFFFFFFF DUP2 GT ISZERO PUSH2 0x31A8 JUMPI PUSH2 0x31A7 PUSH2 0x22B3 JUMP JUMPDEST JUMPDEST PUSH2 0x31B4 DUP14 DUP3 DUP15 ADD PUSH2 0x3046 JUMP JUMPDEST SWAP5 POP POP PUSH1 0xE0 DUP12 ADD CALLDATALOAD PUSH8 0xFFFFFFFFFFFFFFFF DUP2 GT ISZERO PUSH2 0x31D5 JUMPI PUSH2 0x31D4 PUSH2 0x22B3 JUMP JUMPDEST JUMPDEST PUSH2 0x31E1 DUP14 DUP3 DUP15 ADD PUSH2 0x3046 JUMP JUMPDEST SWAP4 POP POP PUSH2 0x100 DUP12 ADD CALLDATALOAD PUSH8 0xFFFFFFFFFFFFFFFF DUP2 GT ISZERO PUSH2 0x3203 JUMPI PUSH2 0x3202 PUSH2 0x22B3 JUMP JUMPDEST JUMPDEST PUSH2 0x320F DUP14 DUP3 DUP15 ADD PUSH2 0x2D06 JUMP JUMPDEST SWAP3 POP POP PUSH2 0x120 DUP12 ADD CALLDATALOAD PUSH8 0xFFFFFFFFFFFFFFFF DUP2 GT ISZERO PUSH2 0x3231 JUMPI PUSH2 0x3230 PUSH2 0x22B3 JUMP JUMPDEST JUMPDEST PUSH2 0x323D DUP14 DUP3 DUP15 ADD PUSH2 0x2D06 JUMP JUMPDEST SWAP2 POP POP SWAP3 SWAP6 SWAP9 SWAP12 SWAP2 SWAP5 SWAP8 SWAP11 POP SWAP3 SWAP6 SWAP9 POP JUMP JUMPDEST PUSH1 0x0 PUSH1 0x20 DUP3 ADD SWAP1 POP PUSH2 0x3264 PUSH1 0x0 DUP4 ADD DUP5 PUSH2 0x2620 JUMP JUMPDEST SWAP3 SWAP2 POP POP JUMP JUMPDEST PUSH1 0x0 DUP1 PUSH1 0x0 DUP1 PUSH1 0x0 DUP1 PUSH1 0x0 PUSH1 0xE0 DUP9 DUP11 SUB SLT ISZERO PUSH2 0x3289 JUMPI PUSH2 0x3288 PUSH2 0x22AE JUMP JUMPDEST JUMPDEST PUSH1 0x0 PUSH2 0x3297 DUP11 DUP3 DUP12 ADD PUSH2 0x22FB JUMP JUMPDEST SWAP8 POP POP PUSH1 0x20 DUP9 ADD CALLDATALOAD PUSH8 0xFFFFFFFFFFFFFFFF DUP2 GT ISZERO PUSH2 0x32B8 JUMPI PUSH2 0x32B7 PUSH2 0x22B3 JUMP JUMPDEST JUMPDEST PUSH2 0x32C4 DUP11 DUP3 DUP12 ADD PUSH2 0x2D06 JUMP JUMPDEST SWAP7 POP POP PUSH1 0x40 DUP9 ADD CALLDATALOAD PUSH8 0xFFFFFFFFFFFFFFFF DUP2 GT ISZERO PUSH2 0x32E5 JUMPI PUSH2 0x32E4 PUSH2 0x22B3 JUMP JUMPDEST JUMPDEST PUSH2 0x32F1 DUP11 DUP3 DUP12 ADD PUSH2 0x3046 JUMP JUMPDEST SWAP6 POP POP PUSH1 0x60 DUP9 ADD CALLDATALOAD PUSH8 0xFFFFFFFFFFFFFFFF DUP2 GT ISZERO PUSH2 0x3312 JUMPI PUSH2 0x3311 PUSH2 0x22B3 JUMP JUMPDEST JUMPDEST PUSH2 0x331E DUP11 DUP3 DUP12 ADD PUSH2 0x3046 JUMP JUMPDEST SWAP5 POP POP PUSH1 0x80 DUP9 ADD CALLDATALOAD PUSH8 0xFFFFFFFFFFFFFFFF DUP2 GT ISZERO PUSH2 0x333F JUMPI PUSH2 0x333E PUSH2 0x22B3 JUMP JUMPDEST JUMPDEST PUSH2 0x334B DUP11 DUP3 DUP12 ADD PUSH2 0x3046 JUMP JUMPDEST SWAP4 POP POP PUSH1 0xA0 DUP9 ADD CALLDATALOAD PUSH8 0xFFFFFFFFFFFFFFFF DUP2 GT ISZERO PUSH2 0x336C JUMPI PUSH2 0x336B PUSH2 0x22B3 JUMP JUMPDEST JUMPDEST PUSH2 0x3378 DUP11 DUP3 DUP12 ADD PUSH2 0x2D06 JUMP JUMPDEST SWAP3 POP POP PUSH1 0xC0 DUP9 ADD CALLDATALOAD PUSH8 0xFFFFFFFFFFFFFFFF DUP2 GT ISZERO PUSH2 0x3399 JUMPI PUSH2 0x3398 PUSH2 0x22B3 JUMP JUMPDEST JUMPDEST PUSH2 0x33A5 DUP11 DUP3 DUP12 ADD PUSH2 0x2D06 JUMP JUMPDEST SWAP2 POP POP SWAP3 SWAP6 SWAP9 SWAP2 SWAP5 SWAP8 POP SWAP3 SWAP6 POP JUMP JUMPDEST PUSH1 0x0 DUP1 PUSH1 0x40 DUP4 DUP6 SUB SLT ISZERO PUSH2 0x33CB JUMPI PUSH2 0x33CA PUSH2 0x22AE JUMP JUMPDEST JUMPDEST PUSH1 0x0 PUSH2 0x33D9 DUP6 DUP3 DUP7 ADD PUSH2 0x22FB JUMP JUMPDEST SWAP3 POP POP PUSH1 0x20 DUP4 ADD CALLDATALOAD PUSH8 0xFFFFFFFFFFFFFFFF DUP2 GT ISZERO PUSH2 0x33FA JUMPI PUSH2 0x33F9 PUSH2 0x22B3 JUMP JUMPDEST JUMPDEST PUSH2 0x3406 DUP6 DUP3 DUP7 ADD PUSH2 0x2D06 JUMP JUMPDEST SWAP2 POP POP SWAP3 POP SWAP3 SWAP1 POP JUMP JUMPDEST PUSH32 0x4E487B7100000000000000000000000000000000000000000000000000000000 PUSH1 0x0 MSTORE PUSH1 0x22 PUSH1 0x4 MSTORE PUSH1 0x24 PUSH1 0x0 REVERT JUMPDEST PUSH1 0x0 PUSH1 0x2 DUP3 DIV SWAP1 POP PUSH1 0x1 DUP3 AND DUP1 PUSH2 0x3457 JUMPI PUSH1 0x7F DUP3 AND SWAP2 POP JUMPDEST PUSH1 0x20 DUP3 LT DUP2 SUB PUSH2 0x346A JUMPI PUSH2 0x3469 PUSH2 0x3410 JUMP JUMPDEST JUMPDEST POP SWAP2 SWAP1 POP JUMP JUMPDEST PUSH32 0x436F6E7472616374207769746820676976656E206964656E7469666965722061 PUSH1 0x0 DUP3 ADD MSTORE PUSH32 0x6C72656164792065786973747300000000000000000000000000000000000000 PUSH1 0x20 DUP3 ADD MSTORE POP JUMP JUMPDEST PUSH1 0x0 PUSH2 0x34CC PUSH1 0x2D DUP4 PUSH2 0x25D6 JUMP JUMPDEST SWAP2 POP PUSH2 0x34D7 DUP3 PUSH2 0x3470 JUMP JUMPDEST PUSH1 0x40 DUP3 ADD SWAP1 POP SWAP2 SWAP1 POP JUMP JUMPDEST PUSH1 0x0 PUSH1 0x20 DUP3 ADD SWAP1 POP DUP2 DUP2 SUB PUSH1 0x0 DUP4 ADD MSTORE PUSH2 0x34FB DUP2 PUSH2 0x34BF JUMP JUMPDEST SWAP1 POP SWAP2 SWAP1 POP JUMP JUMPDEST PUSH1 0x0 DUP2 SWAP1 POP DUP2 PUSH1 0x0 MSTORE PUSH1 0x20 PUSH1 0x0 KECCAK256 SWAP1 POP SWAP2 SWAP1 POP JUMP JUMPDEST PUSH1 0x0 PUSH1 0x20 PUSH1 0x1F DUP4 ADD DIV SWAP1 POP SWAP2 SWAP1 POP JUMP JUMPDEST PUSH1 0x0 DUP3 DUP3 SHL SWAP1 POP SWAP3 SWAP2 POP POP JUMP JUMPDEST PUSH1 0x0 PUSH1 0x8 DUP4 MUL PUSH2 0x3564 PUSH32 0xFFFFFFFFFFFFFFFFFFFFFFFFFFFFFFFFFFFFFFFFFFFFFFFFFFFFFFFFFFFFFFFF DUP3 PUSH2 0x3527 JUMP JUMPDEST PUSH2 0x356E DUP7 DUP4 PUSH2 0x3527 JUMP JUMPDEST SWAP6 POP DUP1 NOT DUP5 AND SWAP4 POP DUP1 DUP7 AND DUP5 OR SWAP3 POP POP POP SWAP4 SWAP3 POP POP POP JUMP JUMPDEST PUSH1 0x0 DUP2 SWAP1 POP SWAP2 SWAP1 POP JUMP JUMPDEST PUSH1 0x0 PUSH2 0x35AB PUSH2 0x35A6 PUSH2 0x35A1 DUP5 PUSH2 0x2369 JUMP JUMPDEST PUSH2 0x3586 JUMP JUMPDEST PUSH2 0x2369 JUMP JUMPDEST SWAP1 POP SWAP2 SWAP1 POP JUMP JUMPDEST PUSH1 0x0 DUP2 SWAP1 POP SWAP2 SWAP1 POP JUMP JUMPDEST PUSH2 0x35C5 DUP4 PUSH2 0x3590 JUMP JUMPDEST PUSH2 0x35D9 PUSH2 0x35D1 DUP3 PUSH2 0x35B2 JUMP JUMPDEST DUP5 DUP5 SLOAD PUSH2 0x3534 JUMP JUMPDEST DUP3 SSTORE POP POP POP POP JUMP JUMPDEST PUSH1 0x0 SWAP1 JUMP JUMPDEST PUSH2 0x35EE PUSH2 0x35E1 JUMP JUMPDEST PUSH2 0x35F9 DUP2 DUP5 DUP5 PUSH2 0x35BC JUMP JUMPDEST POP POP POP JUMP JUMPDEST JUMPDEST DUP2 DUP2 LT ISZERO PUSH2 0x361D JUMPI PUSH2 0x3612 PUSH1 0x0 DUP3 PUSH2 0x35E6 JUMP JUMPDEST PUSH1 0x1 DUP2 ADD SWAP1 POP PUSH2 0x35FF JUMP JUMPDEST POP POP JUMP JUMPDEST PUSH1 0x1F DUP3 GT ISZERO PUSH2 0x3662 JUMPI PUSH2 0x3633 DUP2 PUSH2 0x3502 JUMP JUMPDEST PUSH2 0x363C DUP5 PUSH2 0x3517 JUMP JUMPDEST DUP2 ADD PUSH1 0x20 DUP6 LT ISZERO PUSH2 0x364B JUMPI DUP2 SWAP1 POP JUMPDEST PUSH2 0x365F PUSH2 0x3657 DUP6 PUSH2 0x3517 JUMP JUMPDEST DUP4 ADD DUP3 PUSH2 0x35FE JUMP JUMPDEST POP POP JUMPDEST POP POP POP JUMP JUMPDEST PUSH1 0x0 DUP3 DUP3 SHR SWAP1 POP SWAP3 SWAP2 POP POP JUMP JUMPDEST PUSH1 0x0 PUSH2 0x3685 PUSH1 0x0 NOT DUP5 PUSH1 0x8 MUL PUSH2 0x3667 JUMP JUMPDEST NOT DUP1 DUP4 AND SWAP2 POP POP SWAP3 SWAP2 POP POP JUMP JUMPDEST PUSH1 0x0 PUSH2 0x369E DUP4 DUP4 PUSH2 0x3674 JUMP JUMPDEST SWAP2 POP DUP3 PUSH1 0x2 MUL DUP3 OR SWAP1 POP SWAP3 SWAP2 POP POP JUMP JUMPDEST PUSH2 0x36B7 DUP3 PUSH2 0x2382 JUMP JUMPDEST PUSH8 0xFFFFFFFFFFFFFFFF DUP2 GT ISZERO PUSH2 0x36D0 JUMPI PUSH2 0x36CF PUSH2 0x2BFA JUMP JUMPDEST JUMPDEST PUSH2 0x36DA DUP3 SLOAD PUSH2 0x343F JUMP JUMPDEST PUSH2 0x36E5 DUP3 DUP3 DUP6 PUSH2 0x3621 JUMP JUMPDEST PUSH1 0x0 PUSH1 0x20 SWAP1 POP PUSH1 0x1F DUP4 GT PUSH1 0x1 DUP2 EQ PUSH2 0x3718 JUMPI PUSH1 0x0 DUP5 ISZERO PUSH2 0x3706 JUMPI DUP3 DUP8 ADD MLOAD SWAP1 POP JUMPDEST PUSH2 0x3710 DUP6 DUP3 PUSH2 0x3692 JUMP JUMPDEST DUP7 SSTORE POP PUSH2 0x3778 JUMP JUMPDEST PUSH1 0x1F NOT DUP5 AND PUSH2 0x3726 DUP7 PUSH2 0x3502 JUMP JUMPDEST PUSH1 0x0 JUMPDEST DUP3 DUP2 LT ISZERO PUSH2 0x374E JUMPI DUP5 DUP10 ADD MLOAD DUP3 SSTORE PUSH1 0x1 DUP3 ADD SWAP2 POP PUSH1 0x20 DUP6 ADD SWAP5 POP PUSH1 0x20 DUP2 ADD SWAP1 POP PUSH2 0x3729 JUMP JUMPDEST DUP7 DUP4 LT ISZERO PUSH2 0x376B JUMPI DUP5 DUP10 ADD MLOAD PUSH2 0x3767 PUSH1 0x1F DUP10 AND DUP3 PUSH2 0x3674 JUMP JUMPDEST DUP4 SSTORE POP JUMPDEST PUSH1 0x1 PUSH1 0x2 DUP9 MUL ADD DUP9 SSTORE POP POP POP JUMPDEST POP POP POP POP POP POP JUMP JUMPDEST PUSH32 0x4F6E6C79206C616E646C6F72642063616E20706572666F726D20746869732061 PUSH1 0x0 DUP3 ADD MSTORE PUSH32 0x6374696F6E000000000000000000000000000000000000000000000000000000 PUSH1 0x20 DUP3 ADD MSTORE POP JUMP JUMPDEST PUSH1 0x0 PUSH2 0x37DC PUSH1 0x25 DUP4 PUSH2 0x25D6 JUMP JUMPDEST SWAP2 POP PUSH2 0x37E7 DUP3 PUSH2 0x3780 JUMP JUMPDEST PUSH1 0x40 DUP3 ADD SWAP1 POP SWAP2 SWAP1 POP JUMP JUMPDEST PUSH1 0x0 PUSH1 0x20 DUP3 ADD SWAP1 POP DUP2 DUP2 SUB PUSH1 0x0 DUP4 ADD MSTORE PUSH2 0x380B DUP2 PUSH2 0x37CF JUMP JUMPDEST SWAP1 POP SWAP2 SWAP1 POP JUMP JUMPDEST PUSH1 0x0 PUSH1 0x20 DUP3 ADD SWAP1 POP DUP2 DUP2 SUB PUSH1 0x0 DUP4 ADD MSTORE PUSH2 0x382C DUP2 DUP5 PUSH2 0x25E7 JUMP JUMPDEST SWAP1 POP SWAP3 SWAP2 POP POP JUMP JUMPDEST PUSH1 0x0 DUP2 SLOAD SWAP1 POP PUSH2 0x3843 DUP2 PUSH2 0x343F JUMP JUMPDEST SWAP1 POP SWAP2 SWAP1 POP JUMP JUMPDEST PUSH1 0x0 DUP2 SWAP1 POP DUP2 PUSH1 0x0 MSTORE PUSH1 0x20 PUSH1 0x0 KECCAK256 SWAP1 POP SWAP2 SWAP1 POP JUMP JUMPDEST PUSH1 0x0 DUP2 PUSH1 0x60 SHR SWAP1 POP SWAP2 SWAP1 POP JUMP JUMPDEST PUSH1 0x0 DUP2 PUSH1 0x60 SHL SWAP1 POP SWAP2 SWAP1 POP JUMP JUMPDEST PUSH1 0x0 PUSH2 0x3884 DUP3 PUSH2 0x386C JUMP JUMPDEST SWAP1 POP SWAP2 SWAP1 POP JUMP JUMPDEST PUSH1 0x0 PUSH2 0x389E PUSH2 0x3899 DUP4 PUSH2 0x385F JUMP JUMPDEST PUSH2 0x3879 JUMP JUMPDEST SWAP1 POP SWAP2 SWAP1 POP JUMP JUMPDEST PUSH1 0x0 PUSH2 0x38B1 DUP3 SLOAD PUSH2 0x388B JUMP JUMPDEST SWAP1 POP SWAP2 SWAP1 POP JUMP JUMPDEST PUSH1 0x0 PUSH2 0x38C3 DUP3 PUSH2 0x3834 JUMP JUMPDEST DUP3 PUSH1 0x1F DUP3 GT ISZERO PUSH2 0x38D9 JUMPI PUSH2 0x38D6 DUP5 PUSH2 0x384A JUMP JUMPDEST SWAP1 POP JUMPDEST PUSH2 0x38E2 DUP2 PUSH2 0x38A5 JUMP JUMPDEST SWAP3 POP PUSH1 0x14 DUP3 LT ISZERO PUSH2 0x3922 JUMPI PUSH2 0x391D PUSH32 0xFFFFFFFFFFFFFFFFFFFFFFFFFFFFFFFFFFFFFFFF000000000000000000000000 DUP4 PUSH1 0x14 SUB PUSH1 0x8 MUL PUSH2 0x3527 JUMP JUMPDEST DUP4 AND SWAP3 POP JUMPDEST POP POP SWAP2 SWAP1 POP JUMP JUMPDEST PUSH32 0x4F6E6C79207468652074656E616E742063616E20706572666F726D2074686973 PUSH1 0x0 DUP3 ADD MSTORE PUSH32 0x20616374696F6E00000000000000000000000000000000000000000000000000 PUSH1 0x20 DUP3 ADD MSTORE POP JUMP JUMPDEST PUSH1 0x0 PUSH2 0x3985 PUSH1 0x27 DUP4 PUSH2 0x25D6 JUMP JUMPDEST SWAP2 POP PUSH2 0x3990 DUP3 PUSH2 0x3929 JUMP JUMPDEST PUSH1 0x40 DUP3 ADD SWAP1 POP SWAP2 SWAP1 POP JUMP JUMPDEST PUSH1 0x0 PUSH1 0x20 DUP3 ADD SWAP1 POP DUP2 DUP2 SUB PUSH1 0x0 DUP4 ADD MSTORE PUSH2 0x39B4 DUP2 PUSH2 0x3978 JUMP JUMPDEST SWAP1 POP SWAP2 SWAP1 POP JUMP INVALID LOG2 PUSH5 0x6970667358 0x22 SLT KECCAK256 0xE8 0xD 0xCF PUSH11 0xAFAB0BADE5EB479334D122 0xA5 PUSH16 0x666417588D98DCF7FA4EC7AFC6D54B64 PUSH20 0x6F6C634300081800330000000000000000000000 "},"methodIdentifiers":{"contractAuditTrails(bytes6,uint256)":"3ba2a56b","contractOwners(bytes6)":"cc8e3dde","contracts(bytes6)":"9cfa058b","createContract(bytes6,(string,string,string),(string,string,string),(string,string,uint256,uint256,uint256,string,uint256,uint256,uint256,uint256,int256,int256),string,string[],string[],string[],string,string)":"a49e9360","getContract(bytes6)":"3d4cc42c","getContractAuditTrail(bytes6)":"122b3fcb","signContract(bytes6,string)":"e6355b6d","updateContract(bytes6,string,string[],string[],string[],string,string)":"dd729ece"}}}}}