{"contracts/UpdatedRentalContract.sol":{"HouseRentalContract":{"abi":[{"anonymous":false,"inputs":[{"indexed":true,"internalType":"bytes6","name":"contractId","type":"bytes6"},{"indexed":true,"internalType":"address","name":"owner","type":"address"},{"indexed":false,"internalType":"uint256","name":"timestamp","type":"uint256"}],"name":"ContractCreated","type":"event"},{"anonymous":false,"inputs":[{"indexed":true,"internalType":"bytes6","name":"contractId","type":"bytes6"},{"indexed":false,"internalType":"uint256","name":"timestamp","type":"uint256"}],"name":"ContractEnded","type":"event"},{"anonymous":false,"inputs":[{"indexed":true,"internalType":"bytes6","name":"contractId","type":"bytes6"},{"indexed":false,"internalType":"uint256","name":"timestamp","type":"uint256"}],"name":"ContractSigned","type":"event"},{"anonymous":false,"inputs":[{"indexed":true,"internalType":"bytes6","name":"contractId","type":"bytes6"},{"indexed":false,"internalType":"uint256","name":"timestamp","type":"uint256"}],"name":"ContractUpdated","type":"event"},{"anonymous":false,"inputs":[{"indexed":true,"internalType":"bytes6","name":"contractId","type":"bytes6"},{"indexed":false,"internalType":"uint256","name":"amount","type":"uint256"},{"indexed":false,"internalType":"uint256","name":"timestamp","type":"uint256"}],"name":"DepositPaid","type":"event"},{"anonymous":false,"inputs":[{"indexed":true,"internalType":"bytes6","name":"contractId","type":"bytes6"},{"indexed":false,"internalType":"uint256","name":"amount","type":"uint256"},{"indexed":false,"internalType":"uint256","name":"issueId","type":"uint256"},{"indexed":false,"internalType":"uint256","name":"timestamp","type":"uint256"}],"name":"DepositReleaseRequested","type":"event"},{"anonymous":false,"inputs":[{"indexed":true,"internalType":"bytes6","name":"contractId","type":"bytes6"},{"indexed":false,"internalType":"uint256","name":"amount","type":"uint256"},{"indexed":false,"internalType":"uint256","name":"timestamp","type":"uint256"}],"name":"DepositReleased","type":"event"},{"inputs":[{"internalType":"bytes6","name":"contractId","type":"bytes6"},{"internalType":"uint256","name":"requestIndex","type":"uint256"}],"name":"approveDepositRelease","outputs":[],"stateMutability":"nonpayable","type":"function"},{"inputs":[{"internalType":"bytes6","name":"","type":"bytes6"}],"name":"contractOwners","outputs":[{"internalType":"address","name":"","type":"address"}],"stateMutability":"view","type":"function"},{"inputs":[{"internalType":"bytes6","name":"","type":"bytes6"}],"name":"contracts","outputs":[{"internalType":"uint256","name":"creationDate","type":"uint256"},{"components":[{"internalType":"string","name":"name","type":"string"},{"internalType":"string","name":"identificationNumber","type":"string"},{"internalType":"string","name":"house_address","type":"string"}],"internalType":"struct HouseRentalContract.PersonalInfo","name":"landlord","type":"tuple"},{"components":[{"internalType":"string","name":"name","type":"string"},{"internalType":"string","name":"identificationNumber","type":"string"},{"internalType":"string","name":"house_address","type":"string"}],"internalType":"struct HouseRentalContract.PersonalInfo","name":"tenant","type":"tuple"},{"components":[{"internalType":"string","name":"rent_address","type":"string"},{"internalType":"string","name":"buildingType","type":"string"},{"internalType":"uint256","name":"rentPeriod","type":"uint256"},{"internalType":"uint256","name":"effectiveStartDate","type":"uint256"},{"internalType":"uint256","name":"effectiveEndDate","type":"uint256"},{"internalType":"uint256","name":"monthlyRent","type":"uint256"},{"internalType":"string","name":"paymentMethod","type":"string"},{"internalType":"uint256","name":"maxOverduePeriod","type":"uint256"},{"internalType":"uint256","name":"deposit","type":"uint256"},{"internalType":"int256","name":"latitude","type":"int256"},{"internalType":"int256","name":"longitude","type":"int256"}],"internalType":"struct HouseRentalContract.HouseDetails","name":"houseDetails","type":"tuple"},{"internalType":"string","name":"agreementDetails","type":"string"},{"internalType":"string","name":"landlordSignature","type":"string"},{"internalType":"string","name":"tenantSignature","type":"string"},{"internalType":"string","name":"password","type":"string"},{"internalType":"address","name":"tenantAddress","type":"address"},{"internalType":"bool","name":"depositPaid","type":"bool"},{"internalType":"bool","name":"depositReleased","type":"bool"},{"internalType":"bool","name":"contractActive","type":"bool"},{"internalType":"uint256","name":"remainingDeposit","type":"uint256"}],"stateMutability":"view","type":"function"},{"inputs":[{"internalType":"bytes6","name":"_uniqueIdentifier","type":"bytes6"},{"components":[{"internalType":"string","name":"name","type":"string"},{"internalType":"string","name":"identificationNumber","type":"string"},{"internalType":"string","name":"house_address","type":"string"}],"internalType":"struct HouseRentalContract.PersonalInfo","name":"_landlord","type":"tuple"},{"components":[{"internalType":"string","name":"name","type":"string"},{"internalType":"string","name":"identificationNumber","type":"string"},{"internalType":"string","name":"house_address","type":"string"}],"internalType":"struct HouseRentalContract.PersonalInfo","name":"_tenant","type":"tuple"},{"components":[{"internalType":"string","name":"rent_address","type":"string"},{"internalType":"string","name":"buildingType","type":"string"},{"internalType":"uint256","name":"rentPeriod","type":"uint256"},{"internalType":"uint256","name":"effectiveStartDate","type":"uint256"},{"internalType":"uint256","name":"effectiveEndDate","type":"uint256"},{"internalType":"uint256","name":"monthlyRent","type":"uint256"},{"internalType":"string","name":"paymentMethod","type":"string"},{"internalType":"uint256","name":"maxOverduePeriod","type":"uint256"},{"internalType":"uint256","name":"deposit","type":"uint256"},{"internalType":"int256","name":"latitude","type":"int256"},{"internalType":"int256","name":"longitude","type":"int256"}],"internalType":"struct HouseRentalContract.HouseDetails","name":"_houseDetails","type":"tuple"},{"internalType":"string","name":"_agreementDetails","type":"string"},{"internalType":"string[]","name":"_tenantAgreements","type":"string[]"},{"internalType":"string[]","name":"_landlordResponsibilities","type":"string[]"},{"internalType":"string[]","name":"_agreementsBetweenLandlord","type":"string[]"},{"internalType":"string","name":"_landlordSignature","type":"string"},{"internalType":"string","name":"_tenantSignature","type":"string"},{"internalType":"string","name":"_password","type":"string"}],"name":"createContract","outputs":[],"stateMutability":"nonpayable","type":"function"},{"inputs":[{"internalType":"bytes6","name":"","type":"bytes6"},{"internalType":"uint256","name":"","type":"uint256"}],"name":"depositReleaseRequests","outputs":[{"internalType":"uint256","name":"amount","type":"uint256"},{"internalType":"uint256","name":"timestamp","type":"uint256"},{"internalType":"bool","name":"active","type":"bool"},{"internalType":"uint256","name":"issueId","type":"uint256"}],"stateMutability":"view","type":"function"},{"inputs":[{"internalType":"bytes6","name":"contractId","type":"bytes6"}],"name":"endContract","outputs":[],"stateMutability":"nonpayable","type":"function"},{"inputs":[{"internalType":"bytes6","name":"contractId","type":"bytes6"},{"internalType":"string","name":"_password","type":"string"}],"name":"getContract","outputs":[{"components":[{"internalType":"uint256","name":"creationDate","type":"uint256"},{"components":[{"internalType":"string","name":"name","type":"string"},{"internalType":"string","name":"identificationNumber","type":"string"},{"internalType":"string","name":"house_address","type":"string"}],"internalType":"struct HouseRentalContract.PersonalInfo","name":"landlord","type":"tuple"},{"components":[{"internalType":"string","name":"name","type":"string"},{"internalType":"string","name":"identificationNumber","type":"string"},{"internalType":"string","name":"house_address","type":"string"}],"internalType":"struct HouseRentalContract.PersonalInfo","name":"tenant","type":"tuple"},{"components":[{"internalType":"string","name":"rent_address","type":"string"},{"internalType":"string","name":"buildingType","type":"string"},{"internalType":"uint256","name":"rentPeriod","type":"uint256"},{"internalType":"uint256","name":"effectiveStartDate","type":"uint256"},{"internalType":"uint256","name":"effectiveEndDate","type":"uint256"},{"internalType":"uint256","name":"monthlyRent","type":"uint256"},{"internalType":"string","name":"paymentMethod","type":"string"},{"internalType":"uint256","name":"maxOverduePeriod","type":"uint256"},{"internalType":"uint256","name":"deposit","type":"uint256"},{"internalType":"int256","name":"latitude","type":"int256"},{"internalType":"int256","name":"longitude","type":"int256"}],"internalType":"struct HouseRentalContract.HouseDetails","name":"houseDetails","type":"tuple"},{"internalType":"string","name":"agreementDetails","type":"string"},{"internalType":"string[]","name":"tenantAgreements","type":"string[]"},{"internalType":"string[]","name":"landlordResponsibilities","type":"string[]"},{"internalType":"string[]","name":"agreementsBetweenLandlord","type":"string[]"},{"internalType":"string","name":"landlordSignature","type":"string"},{"internalType":"string","name":"tenantSignature","type":"string"},{"internalType":"string","name":"password","type":"string"},{"internalType":"address","name":"tenantAddress","type":"address"},{"internalType":"bool","name":"depositPaid","type":"bool"},{"internalType":"bool","name":"depositReleased","type":"bool"},{"internalType":"bool","name":"contractActive","type":"bool"},{"internalType":"uint256","name":"remainingDeposit","type":"uint256"}],"internalType":"struct HouseRentalContract.ContractTerms","name":"","type":"tuple"}],"stateMutability":"view","type":"function"},{"inputs":[{"internalType":"bytes6","name":"contractId","type":"bytes6"}],"name":"getDepositBalance","outputs":[{"internalType":"uint256","name":"","type":"uint256"}],"stateMutability":"view","type":"function"},{"inputs":[{"internalType":"bytes6","name":"contractId","type":"bytes6"}],"name":"getDepositReleaseRequests","outputs":[{"components":[{"internalType":"uint256","name":"amount","type":"uint256"},{"internalType":"uint256","name":"timestamp","type":"uint256"},{"internalType":"bool","name":"active","type":"bool"},{"internalType":"uint256","name":"issueId","type":"uint256"}],"internalType":"struct HouseRentalContract.DepositReleaseRequest[]","name":"","type":"tuple[]"}],"stateMutability":"view","type":"function"},{"inputs":[{"internalType":"bytes6","name":"contractId","type":"bytes6"}],"name":"refundDeposit","outputs":[],"stateMutability":"nonpayable","type":"function"},{"inputs":[{"internalType":"bytes6","name":"contractId","type":"bytes6"},{"internalType":"uint256","name":"requestIndex","type":"uint256"}],"name":"rejectDepositRelease","outputs":[],"stateMutability":"nonpayable","type":"function"},{"inputs":[{"internalType":"bytes6","name":"contractId","type":"bytes6"},{"internalType":"uint256","name":"amount","type":"uint256"},{"internalType":"uint256","name":"issueId","type":"uint256"}],"name":"requestDepositRelease","outputs":[],"stateMutability":"nonpayable","type":"function"},{"inputs":[{"internalType":"bytes6","name":"contractId","type":"bytes6"},{"internalType":"string","name":"_password","type":"string"},{"internalType":"string","name":"_name","type":"string"},{"internalType":"string","name":"_identificationNumber","type":"string"},{"internalType":"string","name":"_houseAddress","type":"string"},{"internalType":"string","name":"_tenantSignature","type":"string"}],"name":"signContract","outputs":[],"stateMutability":"payable","type":"function"},{"inputs":[{"internalType":"bytes6","name":"contractId","type":"bytes6"},{"internalType":"string","name":"_password","type":"string"},{"internalType":"string","name":"_agreementDetails","type":"string"},{"internalType":"string[]","name":"_tenantAgreements","type":"string[]"},{"internalType":"string[]","name":"_landlordResponsibilities","type":"string[]"},{"internalType":"string[]","name":"_agreementsBetweenLandlord","type":"string[]"},{"internalType":"string","name":"_landlordSignature","type":"string"},{"internalType":"string","name":"_tenantSignature","type":"string"},{"internalType":"address","name":"_tenantAddress","type":"address"},{"internalType":"uint256","name":"_effectiveStartDate","type":"uint256"},{"internalType":"uint256","name":"_effectiveEndDate","type":"uint256"}],"name":"updateContract","outputs":[],"stateMutability":"nonpayable","type":"function"}],"evm":{"bytecode":{"linkReferences":{},"object":"6080806040523461001657613eca908161001c8239f35b600080fdfe6080604052600436101561001257600080fd5b60003560e01c8063157e21f714612fc157806329c2dc4e14612f48578063306c7a6314612ecd5780635039a08c14612dc8578063792855e414612a125780639aa5543e146112835780639cfa058b14611123578063b1e7fd7b14610f5a578063ca52c3c214610e08578063cc8e3dde14610dc5578063d557e70214610d87578063f437a24d14610c59578063f78f38b4146101675763fa34d5aa146100b657600080fd5b34610162576020366003190112610162576001600160d01b03196100d8613613565b168060005260016020526100fa60018060a01b03604060002054163314613d4f565b80600052600060205261011a60ff60196040600020015460b01c16613df5565b806000526000602052601960406000200160ff60b01b1981541690557f47933618ed5daf6ec135a2d05b0586259833ca21b20043c6e4c525cb0502c0dc6020604051428152a2005b600080fd5b346101625761016036600319011261016257610181613613565b6024356001600160401b038111610162576101a09036906004016136b9565b6044356001600160401b038111610162576101bf9036906004016136b9565b906064356001600160401b038111610162576101df903690600401613939565b6084356001600160401b038111610162576101fe903690600401613939565b60a4356001600160401b0381116101625761021d903690600401613939565b60c4356001600160401b0381116101625761023c9036906004016136b9565b9160e4356001600160401b0381116101625761025c9036906004016136b9565b61010435959094906001600160a01b03871687036101625761031a9065ffffffffffff60d01b8a1660005260016020526102a460018060a01b03604060002054163314613d4f565b65ffffffffffff60d01b8a16600052600060205260186040600020016040516102e3816102d5602082018095613bbb565b03601f198101835282613698565b51902090604051610311602082816103048183019687815193849201613741565b8101038084520182613698565b51902014613c3f565b65ffffffffffff60d01b881660005260006020526040600020968051906001600160401b0382116106315761035260128a01546139b8565b601f8111610c24575b50602090601f8311600114610bb25761038d929160009183610ba7575b50508160011b916000199060031b1c19161790565b60128801555b805190600160401b82116106315760138801548260138a0155808310610b2f575b5060200190601388016000526020600020916000905b828210610a1f5750505050805190600160401b82116106315760148701548260148901558083106109a7575b5060200190601487016000526020600020916000905b82821061088c5750505050805190600160401b8211610631576015860154826015880155808310610814575b5060200190601586016000526020600020916000905b8282106106ee57505050508051906001600160401b0382116106315761047760168601546139b8565b601f81116106b9575b50602090601f8311600114610647576104b19291600091836105815750508160011b916000199060031b1c19161790565b60168401555b805160178401916001600160401b038211610631576104d683546139b8565b601f81116105f4575b50602090601f831160011461058c576105109291600091836105815750508160011b916000199060031b1c19161790565b90555b601982019060018060a01b03166bffffffffffffffffffffffff60a01b82541617905561012435600a820155600b610144359101557f0cc49eaa5a4e01877eb9ef0128739d175fbccda52502904818ec03ac3d23d12f60206040519242845265ffffffffffff60d01b1692a2005b015190508780610378565b90601f198316918460005260206000209260005b8181106105dc57509084600195949392106105c3575b505050811b019055610513565b015160001960f88460031b161c191690558680806105b6565b929360206001819287860151815501950193016105a0565b61062190846000526020600020601f850160051c81019160208610610627575b601f0160051c0190613c80565b866104df565b9091508190610614565b634e487b7160e01b600052604160045260246000fd5b9190601686016000526020600020906000935b601f198416851061069e576001945083601f19811610610685575b505050811b0160168401556104b7565b015160001960f88460031b161c19169055868080610675565b8181015183556020948501946001909301929091019061065a565b6106e890601687016000526020600020601f850160051c8101916020861061062757601f0160051c0190613c80565b86610480565b80518051906001600160401b0382116106315761070b86546139b8565b601f81116107d7575b50602090601f8311600114610767579261074d8360019594602094879660009261075c5750508160011b916000199060031b1c19161790565b87555b0194019101909261044e565b015190508f80610378565b908660005260206000209160005b601f19851681106107bf575083602093600196938796938794601f198116106107a6575b505050811b018755610750565b015160001960f88460031b161c191690558e8080610799565b91926020600181928685015181550194019201610775565b610804908760005260206000206005601f8601811c8201926020871061080a575b601f01901c0190613c80565b8b610714565b91925082916107f8565b601587016000526020600020908382015b8183018110610835575050610438565b80610842600192546139b8565b8061084f575b5001610825565b601f811183146108655750600081555b8b610848565b600090828252610883601f60208420920160051c8201858301613c80565b8183555561085f565b80518051906001600160401b038211610631576108a986546139b8565b601f8111610975575b50602090601f831160011461090557926108eb836001959460209487966000926108fa5750508160011b916000199060031b1c19161790565b87555b0194019101909261040c565b015190503880610378565b908660005260206000209160005b601f198516811061095d575083602093600196938796938794601f19811610610944575b505050811b0187556108ee565b015160001960f88460031b161c191690558f8080610937565b91926020600181928685015181550194019201610913565b6109a1908760005260206000206005601f8601811c8201926020871061080a57601f01901c0190613c80565b8c6108b2565b601488016000526020600020908382015b81830181106109c85750506103f6565b806109d5600192546139b8565b806109e2575b50016109b8565b601f811183146109f85750600081555b8c6109db565b600090828252610a16601f60208420920160051c8201858301613c80565b818355556109f2565b80518051906001600160401b03821161063157610a3c86546139b8565b601f8111610afd575b50602090601f8311600114610a8d5792610a7e836001959460209487966000926108fa5750508160011b916000199060031b1c19161790565b87555b019401910190926103ca565b908660005260206000209160005b601f1985168110610ae5575083602093600196938796938794601f19811610610acc575b505050811b018755610a81565b015160001960f88460031b161c19169055388080610abf565b91926020600181928685015181550194019201610a9b565b610b29908760005260206000206005601f8601811c8201926020871061080a57601f01901c0190613c80565b8d610a45565b601389016000526020600020908382015b8183018110610b505750506103b4565b80610b5d600192546139b8565b80610b6a575b5001610b40565b601f81118314610b805750600081555b8d610b63565b600090828252610b9e601f60208420920160051c8201858301613c80565b81835555610b7a565b015190508b80610378565b919060128a016000526020600020906000935b601f1984168510610c09576001945083601f19811610610bf0575b505050811b016012880155610393565b015160001960f88460031b161c191690558a8080610be0565b81810151835560209485019460019093019290910190610bc5565b610c539060128b016000526020600020601f850160051c8101916020861061062757601f0160051c0190613c80565b8a61035b565b34610162576020366003190112610162576001600160d01b0319610c7b613613565b1680600052600160205260018060a01b03610c9e81604060002054163314613d4f565b8160005260006020526040600020600b8101544210610d49576000808083601982950190601a825491610cd760ff8460a81c1615613da9565b015461ffff60a01b198216600160a81b17909255909586918391908315610d3f575b1690f115610d335760407f398abc1c2b2e46ec68f879c3ac11be927ede743d80d52d9968cba00343bf074f918151908152426020820152a2005b6040513d6000823e3d90fd5b6108fc9250610cf9565b60405162461bcd60e51b815260206004820152601660248201527510dbdb9d1c9858dd081b9bdd08195b991959081e595d60521b6044820152606490fd5b34610162576020366003190112610162576001600160d01b0319610da9613613565b1660005260006020526020601a60406000200154604051908152f35b34610162576020366003190112610162576001600160d01b0319610de7613613565b166000526001602052602060018060a01b0360406000205416604051908152f35b34610162576040366003190112610162576001600160d01b0319610e2a613613565b1680600052602060008152610e5060018060a01b03601960406000200154163314613b5f565b8160005260028152610e68602435604060002061370f565b5060028101610e7a60ff825416613c97565b81548460005260008452610e98601a60406000200154821115613e37565b8460005260008452601a6040600020018054918203918211610f44575560ff19815416905560008080808454818115610f3b575b3390f115610d33577f398abc1c2b2e46ec68f879c3ac11be927ede743d80d52d9968cba00343bf074f91604091846000526000825282600020601a81015415610f20575b50549082519182524290820152a2005b601901805461ffff60a81b1916600160a81b17905585610f10565b506108fc610ecc565b634e487b7160e01b600052601160045260246000fd5b3461016257606036600319011261016257610f73613613565b6024356044359165ffffffffffff60d01b16918260005260209160018352610fa960018060a01b03604060002054163314613d4f565b836000526000835260ff60196040600020015460a01c16156110eb578360005260008352610fe560ff60196040600020015460a81c1615613da9565b836000526000835261100460ff60196040600020015460b01c16613df5565b8360005260008352611020601a60406000200154821115613e37565b83600052600283526040600020916040519361103b8561362a565b8285528085019342855260408601956001875260608101918483528054600160401b811015610631576110739160018201815561370f565b9290926110d5577fa3bf59203fbc349341f790a93f1b263adf7e98f37943660123453de8008b9c3697606097600393518555516001850155600284019051151560ff8019835416911617905551910155604051928352820152426040820152a2005b634e487b7160e01b600052600060045260246000fd5b60405162461bcd60e51b815260048101849052601060248201526f11195c1bdcda5d081b9bdd081c185a5960821b6044820152606490fd5b34610162576020366003190112610162576001600160d01b0319611145613613565b166000526000602052604060002080546001820161116290613a97565b9161116f60048201613a97565b61117b60078301613acf565b611187601284016139f2565b611193601685016139f2565b61119f601786016139f2565b916111ac601887016139f2565b93601987015496601a015495604051998a996101a0908b528060208c01528a016111d591613789565b89810360408b01526111e691613789565b88810360608a01526111f7916137cb565b878103608089015261120891613764565b86810360a088015261121991613764565b85810360c087015261122a91613764565b84810360e086015261123b91613764565b91600160a01b6001900381166101008501528060a01c60ff1615156101208501528060a81c60ff16151561014085015260b01c60ff1615156101608401526101808301520390f35b3461016257600319610160368201126101625761129e613613565b906024356001600160401b038111610162576112be9036906004016138ab565b906044356001600160401b038111610162576112de9036906004016138ab565b90606435906001600160401b03821161016257610160908236030112610162576040519061130b82613661565b80600401356001600160401b0381116101625761132e90600436918401016136b9565b825260248101356001600160401b0381116101625761135390600436918401016136b9565b602083015260448101356040830152606481013560608301526084810135608083015260a481013560a083015260c4810135906001600160401b038211610162576113a761014492600436918401016136b9565b60c084015260e481013560e084015261010481013561010084015261012481013561012084015201356101408201526084356001600160401b038111610162576113f59036906004016136b9565b60a4356001600160401b03811161016257611414903690600401613939565b60c4356001600160401b03811161016257611433903690600401613939565b6001600160401b0360e43511610162576114523660e435600401613939565b906001600160401b0361010435116101625761147436610104356004016136b9565b926001600160401b0361012435116101625761149636610124356004016136b9565b94610144356001600160401b038111610162576114b79036906004016136b9565b6001600160d01b03198b166000908152600160205260409020549097906001600160a01b03166129b757610100810151986040519a6114f58c613645565b428c5260208c015260408b015260608a0152608089015260a088015260c087015260e08601526101008501526101208401526101408301526000610160830152600061018083015260006101a083015260006101c08301526101e082015265ffffffffffff60d01b8216600052600060205260406000209181518355602082015180518051906001600160401b0382116106315761159660018701546139b8565b601f8111612982575b50602090601f8311600114612910576115d09291600091836105815750508160011b916000199060031b1c19161790565b60018501555b60208101518051906001600160401b038211610631576115f960028701546139b8565b601f81116128db575b50602090601f83116001146128685791806116379260409594600092611c8a5750508160011b916000199060031b1c19161790565b60028601555b01519283516001600160401b0381116106315761165d60038301546139b8565b601f8111612833575b506020601f82116001146127c457819061169993949596600092611d405750508160011b916000199060031b1c19161790565b60038201555b604083015180518051906001600160401b038211610631576116c460048501546139b8565b601f811161278f575b50602090601f831160011461271d576116fe9291600091836105815750508160011b916000199060031b1c19161790565b60048301555b60208101518051906001600160401b0382116106315761172760058501546139b8565b601f81116126e8575b50602090601f83116001146126755791806117659260409594600092611c8a5750508160011b916000199060031b1c19161790565b60058401555b01519283516001600160401b0381116106315761178b60068401546139b8565b601f8111612640575b506020601f82116001146125d15781906117c793949596600092611d405750508160011b916000199060031b1c19161790565b60068301555b606081015180518051906001600160401b038211610631576117f260078601546139b8565b601f811161259c575b50602090601f831160011461252a5761182c9291600091836105815750508160011b916000199060031b1c19161790565b60078401555b60208101518051906001600160401b0382116106315761185560088601546139b8565b601f81116124f5575b50602090601f83116001146124835761188f9291600091836105815750508160011b916000199060031b1c19161790565b60088401555b604081015160098401556060810151600a8401556080810151600b84015560a0810151600c84015560c08101518051906001600160401b038211610631576118e0600d8601546139b8565b601f811161244e575b50602090601f83116001146123da57918061191f926101409594600092611c8a5750508160011b916000199060031b1c19161790565b600d8501555b60e0810151600e850155610100810151600f85015561012081015160108501550151601183015560808101519283516001600160401b0381116106315761196f60128501546139b8565b601f81116123a5575b506020601f82116001146123365781906119ab93949596600092611d405750508160011b916000199060031b1c19161790565b60128401555b60a0820151805190600160401b82116106315760138501548260138701558083106122be575b5060200190601385016000526020600020916000905b8282106121ae575050505060c0820151805190600160401b8211610631576014850154826014870155808310612136575b5060200190601485016000526020600020916000905b828210612026575050505060e0820151805190600160401b8211610631576015850154826015870155808310611fae575b5060200190601585016000526020600020916000905b828210611e9357505050506101008201519283516001600160401b03811161063157611aaa60168301546139b8565b601f8111611e5e575b506020601f8211600114611def578190611ae693949596600092611d405750508160011b916000199060031b1c19161790565b60168201555b6101208301519283516001600160401b03811161063157611b1060178401546139b8565b601f8111611dba575b506020601f8211600114611d4b578190611b4c93949596600092611d405750508160011b916000199060031b1c19161790565b60178301555b6101408101518051906001600160401b03821161063157611b7660188501546139b8565b601f8111611d0b575b50602090601f8311600114611c9557826101e093601a9593611bb793600092611c8a5750508160011b916000199060031b1c19161790565b60188501555b6019840160018060a01b036101608301511681549060ff60a01b610180850151151560a01b1660ff60a81b6101a0860151151560a81b169160ff60b01b6101c0870151151560b01b169368ffffffffffffffffff60b81b16171717179055015191015565ffffffffffff60d01b811660005260016020526040600020336bffffffffffffffffffffffff60a01b8254161790556040514281527fb33818a9e5a811c9aab3a6a5be602cba781d631797144964a715ff66e01d54b16020339365ffffffffffff60d01b1692a3005b015190508880610378565b906018850160005260206000209160005b601f1985168110611cf3575092601a94926001926101e09583601f19811610611cda575b505050811b016018850155611bbd565b015160001960f88460031b161c19169055878080611cca565b91926020600181928685015181550194019201611ca6565b611d3a90601886016000526020600020601f850160051c8101916020861061062757601f0160051c0190613c80565b85611b7f565b015190508680610378565b6017840160005260206000209060005b601f1984168110611da2575060019394959683601f19811610611d89575b505050811b016017830155611b52565b015160001960f88460031b161c19169055858080611d79565b9091602060018192858b015181550193019101611d5b565b611de990601785016000526020600020601f840160051c8101916020851061062757601f0160051c0190613c80565b85611b19565b6016830160005260206000209060005b601f1984168110611e46575060019394959683601f19811610611e2d575b505050811b016016820155611aec565b015160001960f88460031b161c19169055858080611e1d565b9091602060018192858b015181550193019101611dff565b611e8d90601684016000526020600020601f840160051c8101916020851061062757601f0160051c0190613c80565b85611ab3565b80518051906001600160401b03821161063157611eb086546139b8565b601f8111611f7c575b50602090601f8311600114611f0c5792611ef283600195946020948796600092611f015750508160011b916000199060031b1c19161790565b87555b01940191019092611a7b565b015190508d80610378565b908660005260206000209160005b601f1985168110611f64575083602093600196938796938794601f19811610611f4b575b505050811b018755611ef5565b015160001960f88460031b161c191690558c8080611f3e565b91926020600181928685015181550194019201611f1a565b611fa890876000526020600020601f850160051c8101916020861061062757601f0160051c0190613c80565b89611eb9565b601586016000526020600020908382015b8183018110611fcf575050611a65565b80611fdc600192546139b8565b80611fe9575b5001611fbf565b601f81118314611fff5750600081555b89611fe2565b60009082825261201d601f60208420920160051c8201858301613c80565b81835555611ff9565b80518051906001600160401b0382116106315761204386546139b8565b601f8111612104575b50602090601f8311600114612094579261208583600195946020948796600092611f015750508160011b916000199060031b1c19161790565b87555b01940191019092611a34565b908660005260206000209160005b601f19851681106120ec575083602093600196938796938794601f198116106120d3575b505050811b018755612088565b015160001960f88460031b161c191690558c80806120c6565b919260206001819286850151815501940192016120a2565b61213090876000526020600020601f850160051c8101916020861061062757601f0160051c0190613c80565b8961204c565b601486016000526020600020908382015b8183018110612157575050611a1e565b80612164600192546139b8565b80612171575b5001612147565b601f811183146121875750600081555b8961216a565b6000908282526121a5601f60208420920160051c8201858301613c80565b81835555612181565b80518051906001600160401b038211610631576121cb86546139b8565b601f811161228c575b50602090601f831160011461221c579261220d83600195946020948796600092611f015750508160011b916000199060031b1c19161790565b87555b019401910190926119ed565b908660005260206000209160005b601f1985168110612274575083602093600196938796938794601f1981161061225b575b505050811b018755612210565b015160001960f88460031b161c191690558c808061224e565b9192602060018192868501518155019401920161222a565b6122b890876000526020600020601f850160051c8101916020861061062757601f0160051c0190613c80565b896121d4565b601386016000526020600020908382015b81830181106122df5750506119d7565b806122ec600192546139b8565b806122f9575b50016122cf565b601f8111831461230f5750600081555b896122f2565b60009082825261232d601f60208420920160051c8201858301613c80565b81835555612309565b6012850160005260206000209060005b601f198416811061238d575060019394959683601f19811610612374575b505050811b0160128401556119b1565b015160001960f88460031b161c19169055858080612364565b9091602060018192858b015181550193019101612346565b6123d490601286016000526020600020601f840160051c8101916020851061062757601f0160051c0190613c80565b85611978565b90600d860160005260206000209160005b601f198516811061243657509183916001936101409695601f1981161061241d575b505050811b01600d850155611925565b015160001960f88460031b161c1916905587808061240d565b919260206001819286850151815501940192016123eb565b61247d90600d87016000526020600020601f850160051c8101916020861061062757601f0160051c0190613c80565b866118e9565b9190600886016000526020600020906000935b601f19841685106124da576001945083601f198116106124c1575b505050811b016008840155611895565b015160001960f88460031b161c191690558680806124b1565b81810151835560209485019460019093019290910190612496565b61252490600887016000526020600020601f850160051c8101916020861061062757601f0160051c0190613c80565b8661185e565b9190600786016000526020600020906000935b601f1984168510612581576001945083601f19811610612568575b505050811b016007840155611832565b015160001960f88460031b161c19169055868080612558565b8181015183556020948501946001909301929091019061253d565b6125cb90600787016000526020600020601f850160051c8101916020861061062757601f0160051c0190613c80565b866117fb565b6006840160005260206000209060005b601f1984168110612628575060019394959683601f1981161061260f575b505050811b0160068301556117cd565b015160001960f88460031b161c191690558580806125ff565b9091602060018192858b0151815501930191016125e1565b61266f90600685016000526020600020601f840160051c8101916020851061062757601f0160051c0190613c80565b85611794565b906005850160005260206000209160005b601f19851681106126d0575091839160019360409695601f198116106126b7575b505050811b01600584015561176b565b015160001960f88460031b161c191690558780806126a7565b91926020600181928685015181550194019201612686565b61271790600586016000526020600020601f850160051c8101916020861061062757601f0160051c0190613c80565b86611730565b9190600485016000526020600020906000935b601f1984168510612774576001945083601f1981161061275b575b505050811b016004830155611704565b015160001960f88460031b161c1916905586808061274b565b81810151835560209485019460019093019290910190612730565b6127be90600486016000526020600020601f850160051c8101916020861061062757601f0160051c0190613c80565b866116cd565b6003830160005260206000209060005b601f198416811061281b575060019394959683601f19811610612802575b505050811b01600382015561169f565b015160001960f88460031b161c191690558580806127f2565b9091602060018192858b0151815501930191016127d4565b61286290600384016000526020600020601f840160051c8101916020851061062757601f0160051c0190613c80565b85611666565b906002870160005260206000209160005b601f19851681106128c3575091839160019360409695601f198116106128aa575b505050811b01600286015561163d565b015160001960f88460031b161c1916905587808061289a565b91926020600181928685015181550194019201612879565b61290a90600288016000526020600020601f850160051c8101916020861061062757601f0160051c0190613c80565b86611602565b9190600187016000526020600020906000935b601f1984168510612967576001945083601f1981161061294e575b505050811b0160018501556115d6565b015160001960f88460031b161c1916905586808061293e565b81810151835560209485019460019093019290910190612923565b6129b190600188016000526020600020601f850160051c8101916020861061062757601f0160051c0190613c80565b8661159f565b60405162461bcd60e51b815260206004820152602d60248201527f436f6e7472616374207769746820676976656e206964656e746966696572206160448201526c6c72656164792065786973747360981b6064820152608490fd5b3461016257604036600319011261016257612a2b613613565b6024356001600160401b03811161016257612a4d612b569136906004016136b9565b9160006101e0604051612a5f81613645565b828152612a6a613cdb565b6020820152612a77613cdb565b6040820152604051612a8881613661565b60608152606060208201528360408201528360608201528360808201528360a0820152606060c08201528360e0820152836101008201528361012082015283610140820152606082015260606080820152606060a0820152606060c0820152606060e08201526060610100820152606061012082015260606101408201528261016082015282610180820152826101a0820152826101c0820152015265ffffffffffff60d01b169182600052600060205260186040600020016040516102e3816102d5602082018095613bbb565b600052600060205261022060206040600020601a60405191612b7783613645565b80548352612b8760018201613a97565b84840152612b9760048201613a97565b6040840152612ba860078201613acf565b6060840152612bb9601282016139f2565b6080840152612bca60138201613cfa565b60a0840152612bdb60148201613cfa565b60c0840152612bec60158201613cfa565b60e0840152612bfd601682016139f2565b610100840152612c0f601782016139f2565b610120840152612c21601882016139f2565b61014084015260ff601982015460018060a01b038116610160860152818160a01c161515610180860152818160a81c1615156101a086015260b01c1615156101c084015201546101e08201526101e0612d7f612d67612d4f612d37612d20612d0a612cf4612cde612cc8612cb28b6040519e8f9e8f9281845280518285015201519161020060408201520190613789565b60408c01518d8203601f190160608f0152613789565b60608b01518c8203601f190160808e01526137cb565b60808a01518b8203601f190160a08d0152613764565b60a08901518a8203601f190160c08c015261384e565b60c0880151898203601f190160e08b015261384e565b60e0870151888203601f19016101008a015261384e565b610100860151878203601f1901610120890152613764565b610120850151868203601f1901610140880152613764565b610140840151858203601f1901610160870152613764565b9160018060a01b036101608201511661018085015261018081015115156101a08501526101a081015115156101c08501526101c081015115158285015201516102008301520390f35b3461016257602080600319360112610162576001600160d01b0319612deb613613565b16600052600290600281526040600020918254612e0781613922565b91612e156040519384613698565b81835260009485528385208484019591865b848410612e8957604080518881528751818a018190528a928201908a60005b828110612e535784840385f35b85518051855280830151858401526040808201511515908601526060908101519085015294810194608090930192600101612e46565b600487600192604051612e9b8161362a565b86548152848701548382015260ff86880154161515604082015260038701546060820152815201930193019291612e27565b3461016257604036600319011261016257612ee6613613565b6024359065ffffffffffff60d01b1660005260026020526040600020805482101561016257608091612f179161370f565b50805490600181015490600360ff600283015416910154916040519384526020840152151560408301526060820152f35b34610162576040366003190112610162576001600160d01b0319612f6a613613565b16806000526000602052612f8f60018060a01b03601960406000200154163314613b5f565b60005260026020526002612fa9602435604060002061370f565b50018054612fb960ff8216613c97565b60ff19169055005b60c036600319011261016257612fd5613613565b6024906001600160401b0390823582811161016257612ff89036906004016136b9565b92604435838111610162576130119036906004016136b9565b926064358181116101625761302a9036906004016136b9565b93608435828111610162576130439036906004016136b9565b9360a4358381116101625761305c9036906004016136b9565b9065ffffffffffff60d01b1696876000526020966000885261308f60018060a01b03601960406000200154163314613b5f565b88600052600088526130e960186040600020019260405193846130b58c82018093613bbb565b03946130c9601f1996878101835282613698565b519020906040516103118c82816103048183019687815193849201613741565b8860005260008852600f6040600020015434036135cf57886000526000885260406000209660048801855187811161345c5761312582546139b8565b96601f978c898211613596575b50508b9088831160011461352f576131629291600091836134715750508160011b916000199060031b1c19161790565b90555b6005918289019080519088821161351a5761318083546139b8565b8c8982116134e3575b50508b9088831160011461347c576131b99291600091836134715750508160011b916000199060031b1c19161790565b90555b8051600689019187821161345c576131d483546139b8565b8b888211613425575b50508a908783116001146133be5761320d929160009183611f015750508160011b916000199060031b1c19161790565b90555b601787019583519586116133aa575061322986546139b8565b848111613372575b5050869284116001146132e857509261328a83601994604097947febbf6b2760b055c34e7d54bccf7079ca90030b876fbf1d76c144a76d2812359499976000926132dd5750508160011b916000199060031b1c19161790565b90555b01805462ff00ff60a01b19166201000160a01b179055815142815284907f85b74a154907154c273caeb0be924feadb5271097e078bfd27ef84f1a75f05e8908390a28151903482524290820152a2005b015190508a80610378565b60008581528781209392918516905b81811061335b575093604096937febbf6b2760b055c34e7d54bccf7079ca90030b876fbf1d76c144a76d281235949896936001938360199810613342575b505050811b01905561328d565b015160001960f88460031b161c19169055898080613335565b9293886001819287860151815501950193016132f7565b61339a9187600052896000209086808901821c8301938c8a106133a1575b01901c0190613c80565b8880613231565b93508293613390565b634e487b7160e01b60009081526041600452fd5b9085831691846000528c600020928d6000905b82821061340e5750509084600195949392106133f5575b505050811b019055613210565b015160001960f88460031b161c191690558c80806133e8565b60018596829396860151815501950193018e6133d1565b61344c9185600052898260002091818701891c8301938710613453575b01871c0190613c80565b8c8b6131dd565b92508192613442565b88634e487b7160e01b60005260416004526000fd5b015190508e80610378565b908c918784168560005283600020936000905b8282106134cc5750509084600195949392106134b3575b505050811b0190556131bc565b015160001960f88460031b161c191690558d80806134a6565b60018596829396860151815501950193018f61348f565b61350a91856000528a82600020918187018a1c8301938710613511575b01881c0190613c80565b8d8c613189565b92508192613500565b89634e487b7160e01b60005260416004526000fd5b908c918784168560005283600020936000905b82821061357f575050908460019594939210613566575b505050811b019055613165565b015160001960f88460031b161c191690558d8080613559565b60018596829396860151815501950193018f613542565b6135bf91856000528a826000209181870160051c83019387106135c6575b0160051c0190613c80565b8d8c613132565b925081926135b4565b60405162461bcd60e51b8152600481018990526018818801527f496e636f7272656374206465706f73697420616d6f756e7400000000000000006044820152606490fd5b600435906001600160d01b03198216820361016257565b608081019081106001600160401b0382111761063157604052565b61020081019081106001600160401b0382111761063157604052565b61016081019081106001600160401b0382111761063157604052565b606081019081106001600160401b0382111761063157604052565b90601f801991011681019081106001600160401b0382111761063157604052565b81601f82011215610162578035906001600160401b03821161063157604051926136ed601f8401601f191660200185613698565b8284526020838301011161016257816000926020809301838601378301015290565b805482101561372b5760005260206000209060021b0190600090565b634e487b7160e01b600052603260045260246000fd5b60005b8381106137545750506000910152565b8181015183820152602001613744565b9060209161377d81518092818552858086019101613741565b601f01601f1916010190565b6137c89160406137b76137a58451606085526060850190613764565b60208501518482036020860152613764565b920151906040818403910152613764565b90565b906138206137e66137a5610160855190808652850190613764565b60408401516040840152606084015160608401526080840151608084015260a084015160a084015260c084015183820360c0850152613764565b9160e081015160e0830152610100808201519083015261012080820151908301526101408091015191015290565b90808251908181526020809101926020808460051b8301019501936000915b84831061387d5750505050505090565b909192939495848061389b600193601f198682030187528a51613764565b980193019301919493929061386d565b919060608382031261016257604051906138c48261367d565b81938035916001600160401b039283811161016257816138e59184016136b9565b8452602082013583811161016257816138ff9184016136b9565b602085015260408201359283116101625760409261391d92016136b9565b910152565b6001600160401b0381116106315760051b60200190565b81601f820112156101625780359160209161395384613922565b936139616040519586613698565b808552838086019160051b8301019280841161016257848301915b84831061398c5750505050505090565b82356001600160401b0381116101625786916139ad848480948901016136b9565b81520192019161397c565b90600182811c921680156139e8575b60208310146139d257565b634e487b7160e01b600052602260045260246000fd5b91607f16916139c7565b90604051918260008254613a05816139b8565b90818452602094600191600181169081600014613a755750600114613a36575b505050613a3492500383613698565b565b600090815285812095935091905b818310613a5d575050613a349350820101388080613a25565b85548884018501529485019487945091830191613a44565b92505050613a3494925060ff191682840152151560051b820101388080613a25565b90604051613aa48161367d565b604061391d60028395613ab6816139f2565b8552613ac4600182016139f2565b6020860152016139f2565b90604051613adc81613661565b610140600a8294613aec816139f2565b8452613afa600182016139f2565b6020850152600281015460408501526003810154606085015260048101546080850152600581015460a0850152613b33600682016139f2565b60c0850152600781015460e0850152600881015461010085015260098101546101208501520154910152565b15613b6657565b60405162461bcd60e51b815260206004820152602760248201527f4f6e6c79207468652074656e616e742063616e20706572666f726d20746869736044820152661030b1ba34b7b760c91b6064820152608490fd5b600092918154613bca816139b8565b92600191808316908115613c245750600114613be7575b50505050565b9091929394506000526020906020600020906000915b858310613c135750505050019038808080613be1565b805485840152918301918101613bfd565b60ff1916845250505081151590910201915038808080613be1565b15613c4657565b60405162461bcd60e51b8152602060048201526012602482015271125b98dbdc9c9958dd081c185cdcdddbdc9960721b6044820152606490fd5b818110613c8b575050565b60008155600101613c80565b15613c9e57565b60405162461bcd60e51b815260206004820152601560248201527452657175657374206973206e6f742061637469766560581b6044820152606490fd5b60405190613ce88261367d565b60606040838281528260208201520152565b908154613d0681613922565b92613d146040519485613698565b818452600090815260208082208186015b848410613d33575050505050565b6001838192613d41856139f2565b815201920193019290613d25565b15613d5657565b60405162461bcd60e51b815260206004820152602560248201527f4f6e6c79206c616e646c6f72642063616e20706572666f726d2074686973206160448201526431ba34b7b760d91b6064820152608490fd5b15613db057565b60405162461bcd60e51b815260206004820152601860248201527f4465706f73697420616c72656164792072656c656173656400000000000000006044820152606490fd5b15613dfc57565b60405162461bcd60e51b8152602060048201526013602482015272436f6e7472616374206e6f742061637469766560681b6044820152606490fd5b15613e3e57565b60405162461bcd60e51b815260206004820152602860248201527f52657175657374656420616d6f756e742065786365656473206465706f7369746044820152672062616c616e636560c01b6064820152608490fdfea2646970667358221220f3dc41ea36e04988bdaf3db001024a6a1fa3266a03a54c1e91952d4a1015088264736f6c63430008180033","opcodes":"PUSH1 0x80 DUP1 PUSH1 0x40 MSTORE CALLVALUE PUSH2 0x16 JUMPI PUSH2 0x3ECA SWAP1 DUP2 PUSH2 0x1C DUP3 CODECOPY RETURN JUMPDEST PUSH1 0x0 DUP1 REVERT INVALID PUSH1 0x80 PUSH1 0x40 MSTORE PUSH1 0x4 CALLDATASIZE LT ISZERO PUSH2 0x12 JUMPI PUSH1 0x0 DUP1 REVERT JUMPDEST PUSH1 0x0 CALLDATALOAD PUSH1 0xE0 SHR DUP1 PUSH4 0x157E21F7 EQ PUSH2 0x2FC1 JUMPI DUP1 PUSH4 0x29C2DC4E EQ PUSH2 0x2F48 JUMPI DUP1 PUSH4 0x306C7A63 EQ PUSH2 0x2ECD JUMPI DUP1 PUSH4 0x5039A08C EQ PUSH2 0x2DC8 JUMPI DUP1 PUSH4 0x792855E4 EQ PUSH2 0x2A12 JUMPI DUP1 PUSH4 0x9AA5543E EQ PUSH2 0x1283 JUMPI DUP1 PUSH4 0x9CFA058B EQ PUSH2 0x1123 JUMPI DUP1 PUSH4 0xB1E7FD7B EQ PUSH2 0xF5A JUMPI DUP1 PUSH4 0xCA52C3C2 EQ PUSH2 0xE08 JUMPI DUP1 PUSH4 0xCC8E3DDE EQ PUSH2 0xDC5 JUMPI DUP1 PUSH4 0xD557E702 EQ PUSH2 0xD87 JUMPI DUP1 PUSH4 0xF437A24D EQ PUSH2 0xC59 JUMPI DUP1 PUSH4 0xF78F38B4 EQ PUSH2 0x167 JUMPI PUSH4 0xFA34D5AA EQ PUSH2 0xB6 JUMPI PUSH1 0x0 DUP1 REVERT JUMPDEST CALLVALUE PUSH2 0x162 JUMPI PUSH1 0x20 CALLDATASIZE PUSH1 0x3 NOT ADD SLT PUSH2 0x162 JUMPI PUSH1 0x1 PUSH1 0x1 PUSH1 0xD0 SHL SUB NOT PUSH2 0xD8 PUSH2 0x3613 JUMP JUMPDEST AND DUP1 PUSH1 0x0 MSTORE PUSH1 0x1 PUSH1 0x20 MSTORE PUSH2 0xFA PUSH1 0x1 DUP1 PUSH1 0xA0 SHL SUB PUSH1 0x40 PUSH1 0x0 KECCAK256 SLOAD AND CALLER EQ PUSH2 0x3D4F JUMP JUMPDEST DUP1 PUSH1 0x0 MSTORE PUSH1 0x0 PUSH1 0x20 MSTORE PUSH2 0x11A PUSH1 0xFF PUSH1 0x19 PUSH1 0x40 PUSH1 0x0 KECCAK256 ADD SLOAD PUSH1 0xB0 SHR AND PUSH2 0x3DF5 JUMP JUMPDEST DUP1 PUSH1 0x0 MSTORE PUSH1 0x0 PUSH1 0x20 MSTORE PUSH1 0x19 PUSH1 0x40 PUSH1 0x0 KECCAK256 ADD PUSH1 0xFF PUSH1 0xB0 SHL NOT DUP2 SLOAD AND SWAP1 SSTORE PUSH32 0x47933618ED5DAF6EC135A2D05B0586259833CA21B20043C6E4C525CB0502C0DC PUSH1 0x20 PUSH1 0x40 MLOAD TIMESTAMP DUP2 MSTORE LOG2 STOP JUMPDEST PUSH1 0x0 DUP1 REVERT JUMPDEST CALLVALUE PUSH2 0x162 JUMPI PUSH2 0x160 CALLDATASIZE PUSH1 0x3 NOT ADD SLT PUSH2 0x162 JUMPI PUSH2 0x181 PUSH2 0x3613 JUMP JUMPDEST PUSH1 0x24 CALLDATALOAD PUSH1 0x1 PUSH1 0x1 PUSH1 0x40 SHL SUB DUP2 GT PUSH2 0x162 JUMPI PUSH2 0x1A0 SWAP1 CALLDATASIZE SWAP1 PUSH1 0x4 ADD PUSH2 0x36B9 JUMP JUMPDEST PUSH1 0x44 CALLDATALOAD PUSH1 0x1 PUSH1 0x1 PUSH1 0x40 SHL SUB DUP2 GT PUSH2 0x162 JUMPI PUSH2 0x1BF SWAP1 CALLDATASIZE SWAP1 PUSH1 0x4 ADD PUSH2 0x36B9 JUMP JUMPDEST SWAP1 PUSH1 0x64 CALLDATALOAD PUSH1 0x1 PUSH1 0x1 PUSH1 0x40 SHL SUB DUP2 GT PUSH2 0x162 JUMPI PUSH2 0x1DF SWAP1 CALLDATASIZE SWAP1 PUSH1 0x4 ADD PUSH2 0x3939 JUMP JUMPDEST PUSH1 0x84 CALLDATALOAD PUSH1 0x1 PUSH1 0x1 PUSH1 0x40 SHL SUB DUP2 GT PUSH2 0x162 JUMPI PUSH2 0x1FE SWAP1 CALLDATASIZE SWAP1 PUSH1 0x4 ADD PUSH2 0x3939 JUMP JUMPDEST PUSH1 0xA4 CALLDATALOAD PUSH1 0x1 PUSH1 0x1 PUSH1 0x40 SHL SUB DUP2 GT PUSH2 0x162 JUMPI PUSH2 0x21D SWAP1 CALLDATASIZE SWAP1 PUSH1 0x4 ADD PUSH2 0x3939 JUMP JUMPDEST PUSH1 0xC4 CALLDATALOAD PUSH1 0x1 PUSH1 0x1 PUSH1 0x40 SHL SUB DUP2 GT PUSH2 0x162 JUMPI PUSH2 0x23C SWAP1 CALLDATASIZE SWAP1 PUSH1 0x4 ADD PUSH2 0x36B9 JUMP JUMPDEST SWAP2 PUSH1 0xE4 CALLDATALOAD PUSH1 0x1 PUSH1 0x1 PUSH1 0x40 SHL SUB DUP2 GT PUSH2 0x162 JUMPI PUSH2 0x25C SWAP1 CALLDATASIZE SWAP1 PUSH1 0x4 ADD PUSH2 0x36B9 JUMP JUMPDEST PUSH2 0x104 CALLDATALOAD SWAP6 SWAP1 SWAP5 SWAP1 PUSH1 0x1 PUSH1 0x1 PUSH1 0xA0 SHL SUB DUP8 AND DUP8 SUB PUSH2 0x162 JUMPI PUSH2 0x31A SWAP1 PUSH6 0xFFFFFFFFFFFF PUSH1 0xD0 SHL DUP11 AND PUSH1 0x0 MSTORE PUSH1 0x1 PUSH1 0x20 MSTORE PUSH2 0x2A4 PUSH1 0x1 DUP1 PUSH1 0xA0 SHL SUB PUSH1 0x40 PUSH1 0x0 KECCAK256 SLOAD AND CALLER EQ PUSH2 0x3D4F JUMP JUMPDEST PUSH6 0xFFFFFFFFFFFF PUSH1 0xD0 SHL DUP11 AND PUSH1 0x0 MSTORE PUSH1 0x0 PUSH1 0x20 MSTORE PUSH1 0x18 PUSH1 0x40 PUSH1 0x0 KECCAK256 ADD PUSH1 0x40 MLOAD PUSH2 0x2E3 DUP2 PUSH2 0x2D5 PUSH1 0x20 DUP3 ADD DUP1 SWAP6 PUSH2 0x3BBB JUMP JUMPDEST SUB PUSH1 0x1F NOT DUP2 ADD DUP4 MSTORE DUP3 PUSH2 0x3698 JUMP JUMPDEST MLOAD SWAP1 KECCAK256 SWAP1 PUSH1 0x40 MLOAD PUSH2 0x311 PUSH1 0x20 DUP3 DUP2 PUSH2 0x304 DUP2 DUP4 ADD SWAP7 DUP8 DUP2 MLOAD SWAP4 DUP5 SWAP3 ADD PUSH2 0x3741 JUMP JUMPDEST DUP2 ADD SUB DUP1 DUP5 MSTORE ADD DUP3 PUSH2 0x3698 JUMP JUMPDEST MLOAD SWAP1 KECCAK256 EQ PUSH2 0x3C3F JUMP JUMPDEST PUSH6 0xFFFFFFFFFFFF PUSH1 0xD0 SHL DUP9 AND PUSH1 0x0 MSTORE PUSH1 0x0 PUSH1 0x20 MSTORE PUSH1 0x40 PUSH1 0x0 KECCAK256 SWAP7 DUP1 MLOAD SWAP1 PUSH1 0x1 PUSH1 0x1 PUSH1 0x40 SHL SUB DUP3 GT PUSH2 0x631 JUMPI PUSH2 0x352 PUSH1 0x12 DUP11 ADD SLOAD PUSH2 0x39B8 JUMP JUMPDEST PUSH1 0x1F DUP2 GT PUSH2 0xC24 JUMPI JUMPDEST POP PUSH1 0x20 SWAP1 PUSH1 0x1F DUP4 GT PUSH1 0x1 EQ PUSH2 0xBB2 JUMPI PUSH2 0x38D SWAP3 SWAP2 PUSH1 0x0 SWAP2 DUP4 PUSH2 0xBA7 JUMPI JUMPDEST POP POP DUP2 PUSH1 0x1 SHL SWAP2 PUSH1 0x0 NOT SWAP1 PUSH1 0x3 SHL SHR NOT AND OR SWAP1 JUMP JUMPDEST PUSH1 0x12 DUP9 ADD SSTORE JUMPDEST DUP1 MLOAD SWAP1 PUSH1 0x1 PUSH1 0x40 SHL DUP3 GT PUSH2 0x631 JUMPI PUSH1 0x13 DUP9 ADD SLOAD DUP3 PUSH1 0x13 DUP11 ADD SSTORE DUP1 DUP4 LT PUSH2 0xB2F JUMPI JUMPDEST POP PUSH1 0x20 ADD SWAP1 PUSH1 0x13 DUP9 ADD PUSH1 0x0 MSTORE PUSH1 0x20 PUSH1 0x0 KECCAK256 SWAP2 PUSH1 0x0 SWAP1 JUMPDEST DUP3 DUP3 LT PUSH2 0xA1F JUMPI POP POP POP POP DUP1 MLOAD SWAP1 PUSH1 0x1 PUSH1 0x40 SHL DUP3 GT PUSH2 0x631 JUMPI PUSH1 0x14 DUP8 ADD SLOAD DUP3 PUSH1 0x14 DUP10 ADD SSTORE DUP1 DUP4 LT PUSH2 0x9A7 JUMPI JUMPDEST POP PUSH1 0x20 ADD SWAP1 PUSH1 0x14 DUP8 ADD PUSH1 0x0 MSTORE PUSH1 0x20 PUSH1 0x0 KECCAK256 SWAP2 PUSH1 0x0 SWAP1 JUMPDEST DUP3 DUP3 LT PUSH2 0x88C JUMPI POP POP POP POP DUP1 MLOAD SWAP1 PUSH1 0x1 PUSH1 0x40 SHL DUP3 GT PUSH2 0x631 JUMPI PUSH1 0x15 DUP7 ADD SLOAD DUP3 PUSH1 0x15 DUP9 ADD SSTORE DUP1 DUP4 LT PUSH2 0x814 JUMPI JUMPDEST POP PUSH1 0x20 ADD SWAP1 PUSH1 0x15 DUP7 ADD PUSH1 0x0 MSTORE PUSH1 0x20 PUSH1 0x0 KECCAK256 SWAP2 PUSH1 0x0 SWAP1 JUMPDEST DUP3 DUP3 LT PUSH2 0x6EE JUMPI POP POP POP POP DUP1 MLOAD SWAP1 PUSH1 0x1 PUSH1 0x1 PUSH1 0x40 SHL SUB DUP3 GT PUSH2 0x631 JUMPI PUSH2 0x477 PUSH1 0x16 DUP7 ADD SLOAD PUSH2 0x39B8 JUMP JUMPDEST PUSH1 0x1F DUP2 GT PUSH2 0x6B9 JUMPI JUMPDEST POP PUSH1 0x20 SWAP1 PUSH1 0x1F DUP4 GT PUSH1 0x1 EQ PUSH2 0x647 JUMPI PUSH2 0x4B1 SWAP3 SWAP2 PUSH1 0x0 SWAP2 DUP4 PUSH2 0x581 JUMPI POP POP DUP2 PUSH1 0x1 SHL SWAP2 PUSH1 0x0 NOT SWAP1 PUSH1 0x3 SHL SHR NOT AND OR SWAP1 JUMP JUMPDEST PUSH1 0x16 DUP5 ADD SSTORE JUMPDEST DUP1 MLOAD PUSH1 0x17 DUP5 ADD SWAP2 PUSH1 0x1 PUSH1 0x1 PUSH1 0x40 SHL SUB DUP3 GT PUSH2 0x631 JUMPI PUSH2 0x4D6 DUP4 SLOAD PUSH2 0x39B8 JUMP JUMPDEST PUSH1 0x1F DUP2 GT PUSH2 0x5F4 JUMPI JUMPDEST POP PUSH1 0x20 SWAP1 PUSH1 0x1F DUP4 GT PUSH1 0x1 EQ PUSH2 0x58C JUMPI PUSH2 0x510 SWAP3 SWAP2 PUSH1 0x0 SWAP2 DUP4 PUSH2 0x581 JUMPI POP POP DUP2 PUSH1 0x1 SHL SWAP2 PUSH1 0x0 NOT SWAP1 PUSH1 0x3 SHL SHR NOT AND OR SWAP1 JUMP JUMPDEST SWAP1 SSTORE JUMPDEST PUSH1 0x19 DUP3 ADD SWAP1 PUSH1 0x1 DUP1 PUSH1 0xA0 SHL SUB AND PUSH12 0xFFFFFFFFFFFFFFFFFFFFFFFF PUSH1 0xA0 SHL DUP3 SLOAD AND OR SWAP1 SSTORE PUSH2 0x124 CALLDATALOAD PUSH1 0xA DUP3 ADD SSTORE PUSH1 0xB PUSH2 0x144 CALLDATALOAD SWAP2 ADD SSTORE PUSH32 0xCC49EAA5A4E01877EB9EF0128739D175FBCCDA52502904818EC03AC3D23D12F PUSH1 0x20 PUSH1 0x40 MLOAD SWAP3 TIMESTAMP DUP5 MSTORE PUSH6 0xFFFFFFFFFFFF PUSH1 0xD0 SHL AND SWAP3 LOG2 STOP JUMPDEST ADD MLOAD SWAP1 POP DUP8 DUP1 PUSH2 0x378 JUMP JUMPDEST SWAP1 PUSH1 0x1F NOT DUP4 AND SWAP2 DUP5 PUSH1 0x0 MSTORE PUSH1 0x20 PUSH1 0x0 KECCAK256 SWAP3 PUSH1 0x0 JUMPDEST DUP2 DUP2 LT PUSH2 0x5DC JUMPI POP SWAP1 DUP5 PUSH1 0x1 SWAP6 SWAP5 SWAP4 SWAP3 LT PUSH2 0x5C3 JUMPI JUMPDEST POP POP POP DUP2 SHL ADD SWAP1 SSTORE PUSH2 0x513 JUMP JUMPDEST ADD MLOAD PUSH1 0x0 NOT PUSH1 0xF8 DUP5 PUSH1 0x3 SHL AND SHR NOT AND SWAP1 SSTORE DUP7 DUP1 DUP1 PUSH2 0x5B6 JUMP JUMPDEST SWAP3 SWAP4 PUSH1 0x20 PUSH1 0x1 DUP2 SWAP3 DUP8 DUP7 ADD MLOAD DUP2 SSTORE ADD SWAP6 ADD SWAP4 ADD PUSH2 0x5A0 JUMP JUMPDEST PUSH2 0x621 SWAP1 DUP5 PUSH1 0x0 MSTORE PUSH1 0x20 PUSH1 0x0 KECCAK256 PUSH1 0x1F DUP6 ADD PUSH1 0x5 SHR DUP2 ADD SWAP2 PUSH1 0x20 DUP7 LT PUSH2 0x627 JUMPI JUMPDEST PUSH1 0x1F ADD PUSH1 0x5 SHR ADD SWAP1 PUSH2 0x3C80 JUMP JUMPDEST DUP7 PUSH2 0x4DF JUMP JUMPDEST SWAP1 SWAP2 POP DUP2 SWAP1 PUSH2 0x614 JUMP JUMPDEST PUSH4 0x4E487B71 PUSH1 0xE0 SHL PUSH1 0x0 MSTORE PUSH1 0x41 PUSH1 0x4 MSTORE PUSH1 0x24 PUSH1 0x0 REVERT JUMPDEST SWAP2 SWAP1 PUSH1 0x16 DUP7 ADD PUSH1 0x0 MSTORE PUSH1 0x20 PUSH1 0x0 KECCAK256 SWAP1 PUSH1 0x0 SWAP4 JUMPDEST PUSH1 0x1F NOT DUP5 AND DUP6 LT PUSH2 0x69E JUMPI PUSH1 0x1 SWAP5 POP DUP4 PUSH1 0x1F NOT DUP2 AND LT PUSH2 0x685 JUMPI JUMPDEST POP POP POP DUP2 SHL ADD PUSH1 0x16 DUP5 ADD SSTORE PUSH2 0x4B7 JUMP JUMPDEST ADD MLOAD PUSH1 0x0 NOT PUSH1 0xF8 DUP5 PUSH1 0x3 SHL AND SHR NOT AND SWAP1 SSTORE DUP7 DUP1 DUP1 PUSH2 0x675 JUMP JUMPDEST DUP2 DUP2 ADD MLOAD DUP4 SSTORE PUSH1 0x20 SWAP5 DUP6 ADD SWAP5 PUSH1 0x1 SWAP1 SWAP4 ADD SWAP3 SWAP1 SWAP2 ADD SWAP1 PUSH2 0x65A JUMP JUMPDEST PUSH2 0x6E8 SWAP1 PUSH1 0x16 DUP8 ADD PUSH1 0x0 MSTORE PUSH1 0x20 PUSH1 0x0 KECCAK256 PUSH1 0x1F DUP6 ADD PUSH1 0x5 SHR DUP2 ADD SWAP2 PUSH1 0x20 DUP7 LT PUSH2 0x627 JUMPI PUSH1 0x1F ADD PUSH1 0x5 SHR ADD SWAP1 PUSH2 0x3C80 JUMP JUMPDEST DUP7 PUSH2 0x480 JUMP JUMPDEST DUP1 MLOAD DUP1 MLOAD SWAP1 PUSH1 0x1 PUSH1 0x1 PUSH1 0x40 SHL SUB DUP3 GT PUSH2 0x631 JUMPI PUSH2 0x70B DUP7 SLOAD PUSH2 0x39B8 JUMP JUMPDEST PUSH1 0x1F DUP2 GT PUSH2 0x7D7 JUMPI JUMPDEST POP PUSH1 0x20 SWAP1 PUSH1 0x1F DUP4 GT PUSH1 0x1 EQ PUSH2 0x767 JUMPI SWAP3 PUSH2 0x74D DUP4 PUSH1 0x1 SWAP6 SWAP5 PUSH1 0x20 SWAP5 DUP8 SWAP7 PUSH1 0x0 SWAP3 PUSH2 0x75C JUMPI POP POP DUP2 PUSH1 0x1 SHL SWAP2 PUSH1 0x0 NOT SWAP1 PUSH1 0x3 SHL SHR NOT AND OR SWAP1 JUMP JUMPDEST DUP8 SSTORE JUMPDEST ADD SWAP5 ADD SWAP2 ADD SWAP1 SWAP3 PUSH2 0x44E JUMP JUMPDEST ADD MLOAD SWAP1 POP DUP16 DUP1 PUSH2 0x378 JUMP JUMPDEST SWAP1 DUP7 PUSH1 0x0 MSTORE PUSH1 0x20 PUSH1 0x0 KECCAK256 SWAP2 PUSH1 0x0 JUMPDEST PUSH1 0x1F NOT DUP6 AND DUP2 LT PUSH2 0x7BF JUMPI POP DUP4 PUSH1 0x20 SWAP4 PUSH1 0x1 SWAP7 SWAP4 DUP8 SWAP7 SWAP4 DUP8 SWAP5 PUSH1 0x1F NOT DUP2 AND LT PUSH2 0x7A6 JUMPI JUMPDEST POP POP POP DUP2 SHL ADD DUP8 SSTORE PUSH2 0x750 JUMP JUMPDEST ADD MLOAD PUSH1 0x0 NOT PUSH1 0xF8 DUP5 PUSH1 0x3 SHL AND SHR NOT AND SWAP1 SSTORE DUP15 DUP1 DUP1 PUSH2 0x799 JUMP JUMPDEST SWAP2 SWAP3 PUSH1 0x20 PUSH1 0x1 DUP2 SWAP3 DUP7 DUP6 ADD MLOAD DUP2 SSTORE ADD SWAP5 ADD SWAP3 ADD PUSH2 0x775 JUMP JUMPDEST PUSH2 0x804 SWAP1 DUP8 PUSH1 0x0 MSTORE PUSH1 0x20 PUSH1 0x0 KECCAK256 PUSH1 0x5 PUSH1 0x1F DUP7 ADD DUP2 SHR DUP3 ADD SWAP3 PUSH1 0x20 DUP8 LT PUSH2 0x80A JUMPI JUMPDEST PUSH1 0x1F ADD SWAP1 SHR ADD SWAP1 PUSH2 0x3C80 JUMP JUMPDEST DUP12 PUSH2 0x714 JUMP JUMPDEST SWAP2 SWAP3 POP DUP3 SWAP2 PUSH2 0x7F8 JUMP JUMPDEST PUSH1 0x15 DUP8 ADD PUSH1 0x0 MSTORE PUSH1 0x20 PUSH1 0x0 KECCAK256 SWAP1 DUP4 DUP3 ADD JUMPDEST DUP2 DUP4 ADD DUP2 LT PUSH2 0x835 JUMPI POP POP PUSH2 0x438 JUMP JUMPDEST DUP1 PUSH2 0x842 PUSH1 0x1 SWAP3 SLOAD PUSH2 0x39B8 JUMP JUMPDEST DUP1 PUSH2 0x84F JUMPI JUMPDEST POP ADD PUSH2 0x825 JUMP JUMPDEST PUSH1 0x1F DUP2 GT DUP4 EQ PUSH2 0x865 JUMPI POP PUSH1 0x0 DUP2 SSTORE JUMPDEST DUP12 PUSH2 0x848 JUMP JUMPDEST PUSH1 0x0 SWAP1 DUP3 DUP3 MSTORE PUSH2 0x883 PUSH1 0x1F PUSH1 0x20 DUP5 KECCAK256 SWAP3 ADD PUSH1 0x5 SHR DUP3 ADD DUP6 DUP4 ADD PUSH2 0x3C80 JUMP JUMPDEST DUP2 DUP4 SSTORE SSTORE PUSH2 0x85F JUMP JUMPDEST DUP1 MLOAD DUP1 MLOAD SWAP1 PUSH1 0x1 PUSH1 0x1 PUSH1 0x40 SHL SUB DUP3 GT PUSH2 0x631 JUMPI PUSH2 0x8A9 DUP7 SLOAD PUSH2 0x39B8 JUMP JUMPDEST PUSH1 0x1F DUP2 GT PUSH2 0x975 JUMPI JUMPDEST POP PUSH1 0x20 SWAP1 PUSH1 0x1F DUP4 GT PUSH1 0x1 EQ PUSH2 0x905 JUMPI SWAP3 PUSH2 0x8EB DUP4 PUSH1 0x1 SWAP6 SWAP5 PUSH1 0x20 SWAP5 DUP8 SWAP7 PUSH1 0x0 SWAP3 PUSH2 0x8FA JUMPI POP POP DUP2 PUSH1 0x1 SHL SWAP2 PUSH1 0x0 NOT SWAP1 PUSH1 0x3 SHL SHR NOT AND OR SWAP1 JUMP JUMPDEST DUP8 SSTORE JUMPDEST ADD SWAP5 ADD SWAP2 ADD SWAP1 SWAP3 PUSH2 0x40C JUMP JUMPDEST ADD MLOAD SWAP1 POP CODESIZE DUP1 PUSH2 0x378 JUMP JUMPDEST SWAP1 DUP7 PUSH1 0x0 MSTORE PUSH1 0x20 PUSH1 0x0 KECCAK256 SWAP2 PUSH1 0x0 JUMPDEST PUSH1 0x1F NOT DUP6 AND DUP2 LT PUSH2 0x95D JUMPI POP DUP4 PUSH1 0x20 SWAP4 PUSH1 0x1 SWAP7 SWAP4 DUP8 SWAP7 SWAP4 DUP8 SWAP5 PUSH1 0x1F NOT DUP2 AND LT PUSH2 0x944 JUMPI JUMPDEST POP POP POP DUP2 SHL ADD DUP8 SSTORE PUSH2 0x8EE JUMP JUMPDEST ADD MLOAD PUSH1 0x0 NOT PUSH1 0xF8 DUP5 PUSH1 0x3 SHL AND SHR NOT AND SWAP1 SSTORE DUP16 DUP1 DUP1 PUSH2 0x937 JUMP JUMPDEST SWAP2 SWAP3 PUSH1 0x20 PUSH1 0x1 DUP2 SWAP3 DUP7 DUP6 ADD MLOAD DUP2 SSTORE ADD SWAP5 ADD SWAP3 ADD PUSH2 0x913 JUMP JUMPDEST PUSH2 0x9A1 SWAP1 DUP8 PUSH1 0x0 MSTORE PUSH1 0x20 PUSH1 0x0 KECCAK256 PUSH1 0x5 PUSH1 0x1F DUP7 ADD DUP2 SHR DUP3 ADD SWAP3 PUSH1 0x20 DUP8 LT PUSH2 0x80A JUMPI PUSH1 0x1F ADD SWAP1 SHR ADD SWAP1 PUSH2 0x3C80 JUMP JUMPDEST DUP13 PUSH2 0x8B2 JUMP JUMPDEST PUSH1 0x14 DUP9 ADD PUSH1 0x0 MSTORE PUSH1 0x20 PUSH1 0x0 KECCAK256 SWAP1 DUP4 DUP3 ADD JUMPDEST DUP2 DUP4 ADD DUP2 LT PUSH2 0x9C8 JUMPI POP POP PUSH2 0x3F6 JUMP JUMPDEST DUP1 PUSH2 0x9D5 PUSH1 0x1 SWAP3 SLOAD PUSH2 0x39B8 JUMP JUMPDEST DUP1 PUSH2 0x9E2 JUMPI JUMPDEST POP ADD PUSH2 0x9B8 JUMP JUMPDEST PUSH1 0x1F DUP2 GT DUP4 EQ PUSH2 0x9F8 JUMPI POP PUSH1 0x0 DUP2 SSTORE JUMPDEST DUP13 PUSH2 0x9DB JUMP JUMPDEST PUSH1 0x0 SWAP1 DUP3 DUP3 MSTORE PUSH2 0xA16 PUSH1 0x1F PUSH1 0x20 DUP5 KECCAK256 SWAP3 ADD PUSH1 0x5 SHR DUP3 ADD DUP6 DUP4 ADD PUSH2 0x3C80 JUMP JUMPDEST DUP2 DUP4 SSTORE SSTORE PUSH2 0x9F2 JUMP JUMPDEST DUP1 MLOAD DUP1 MLOAD SWAP1 PUSH1 0x1 PUSH1 0x1 PUSH1 0x40 SHL SUB DUP3 GT PUSH2 0x631 JUMPI PUSH2 0xA3C DUP7 SLOAD PUSH2 0x39B8 JUMP JUMPDEST PUSH1 0x1F DUP2 GT PUSH2 0xAFD JUMPI JUMPDEST POP PUSH1 0x20 SWAP1 PUSH1 0x1F DUP4 GT PUSH1 0x1 EQ PUSH2 0xA8D JUMPI SWAP3 PUSH2 0xA7E DUP4 PUSH1 0x1 SWAP6 SWAP5 PUSH1 0x20 SWAP5 DUP8 SWAP7 PUSH1 0x0 SWAP3 PUSH2 0x8FA JUMPI POP POP DUP2 PUSH1 0x1 SHL SWAP2 PUSH1 0x0 NOT SWAP1 PUSH1 0x3 SHL SHR NOT AND OR SWAP1 JUMP JUMPDEST DUP8 SSTORE JUMPDEST ADD SWAP5 ADD SWAP2 ADD SWAP1 SWAP3 PUSH2 0x3CA JUMP JUMPDEST SWAP1 DUP7 PUSH1 0x0 MSTORE PUSH1 0x20 PUSH1 0x0 KECCAK256 SWAP2 PUSH1 0x0 JUMPDEST PUSH1 0x1F NOT DUP6 AND DUP2 LT PUSH2 0xAE5 JUMPI POP DUP4 PUSH1 0x20 SWAP4 PUSH1 0x1 SWAP7 SWAP4 DUP8 SWAP7 SWAP4 DUP8 SWAP5 PUSH1 0x1F NOT DUP2 AND LT PUSH2 0xACC JUMPI JUMPDEST POP POP POP DUP2 SHL ADD DUP8 SSTORE PUSH2 0xA81 JUMP JUMPDEST ADD MLOAD PUSH1 0x0 NOT PUSH1 0xF8 DUP5 PUSH1 0x3 SHL AND SHR NOT AND SWAP1 SSTORE CODESIZE DUP1 DUP1 PUSH2 0xABF JUMP JUMPDEST SWAP2 SWAP3 PUSH1 0x20 PUSH1 0x1 DUP2 SWAP3 DUP7 DUP6 ADD MLOAD DUP2 SSTORE ADD SWAP5 ADD SWAP3 ADD PUSH2 0xA9B JUMP JUMPDEST PUSH2 0xB29 SWAP1 DUP8 PUSH1 0x0 MSTORE PUSH1 0x20 PUSH1 0x0 KECCAK256 PUSH1 0x5 PUSH1 0x1F DUP7 ADD DUP2 SHR DUP3 ADD SWAP3 PUSH1 0x20 DUP8 LT PUSH2 0x80A JUMPI PUSH1 0x1F ADD SWAP1 SHR ADD SWAP1 PUSH2 0x3C80 JUMP JUMPDEST DUP14 PUSH2 0xA45 JUMP JUMPDEST PUSH1 0x13 DUP10 ADD PUSH1 0x0 MSTORE PUSH1 0x20 PUSH1 0x0 KECCAK256 SWAP1 DUP4 DUP3 ADD JUMPDEST DUP2 DUP4 ADD DUP2 LT PUSH2 0xB50 JUMPI POP POP PUSH2 0x3B4 JUMP JUMPDEST DUP1 PUSH2 0xB5D PUSH1 0x1 SWAP3 SLOAD PUSH2 0x39B8 JUMP JUMPDEST DUP1 PUSH2 0xB6A JUMPI JUMPDEST POP ADD PUSH2 0xB40 JUMP JUMPDEST PUSH1 0x1F DUP2 GT DUP4 EQ PUSH2 0xB80 JUMPI POP PUSH1 0x0 DUP2 SSTORE JUMPDEST DUP14 PUSH2 0xB63 JUMP JUMPDEST PUSH1 0x0 SWAP1 DUP3 DUP3 MSTORE PUSH2 0xB9E PUSH1 0x1F PUSH1 0x20 DUP5 KECCAK256 SWAP3 ADD PUSH1 0x5 SHR DUP3 ADD DUP6 DUP4 ADD PUSH2 0x3C80 JUMP JUMPDEST DUP2 DUP4 SSTORE SSTORE PUSH2 0xB7A JUMP JUMPDEST ADD MLOAD SWAP1 POP DUP12 DUP1 PUSH2 0x378 JUMP JUMPDEST SWAP2 SWAP1 PUSH1 0x12 DUP11 ADD PUSH1 0x0 MSTORE PUSH1 0x20 PUSH1 0x0 KECCAK256 SWAP1 PUSH1 0x0 SWAP4 JUMPDEST PUSH1 0x1F NOT DUP5 AND DUP6 LT PUSH2 0xC09 JUMPI PUSH1 0x1 SWAP5 POP DUP4 PUSH1 0x1F NOT DUP2 AND LT PUSH2 0xBF0 JUMPI JUMPDEST POP POP POP DUP2 SHL ADD PUSH1 0x12 DUP9 ADD SSTORE PUSH2 0x393 JUMP JUMPDEST ADD MLOAD PUSH1 0x0 NOT PUSH1 0xF8 DUP5 PUSH1 0x3 SHL AND SHR NOT AND SWAP1 SSTORE DUP11 DUP1 DUP1 PUSH2 0xBE0 JUMP JUMPDEST DUP2 DUP2 ADD MLOAD DUP4 SSTORE PUSH1 0x20 SWAP5 DUP6 ADD SWAP5 PUSH1 0x1 SWAP1 SWAP4 ADD SWAP3 SWAP1 SWAP2 ADD SWAP1 PUSH2 0xBC5 JUMP JUMPDEST PUSH2 0xC53 SWAP1 PUSH1 0x12 DUP12 ADD PUSH1 0x0 MSTORE PUSH1 0x20 PUSH1 0x0 KECCAK256 PUSH1 0x1F DUP6 ADD PUSH1 0x5 SHR DUP2 ADD SWAP2 PUSH1 0x20 DUP7 LT PUSH2 0x627 JUMPI PUSH1 0x1F ADD PUSH1 0x5 SHR ADD SWAP1 PUSH2 0x3C80 JUMP JUMPDEST DUP11 PUSH2 0x35B JUMP JUMPDEST CALLVALUE PUSH2 0x162 JUMPI PUSH1 0x20 CALLDATASIZE PUSH1 0x3 NOT ADD SLT PUSH2 0x162 JUMPI PUSH1 0x1 PUSH1 0x1 PUSH1 0xD0 SHL SUB NOT PUSH2 0xC7B PUSH2 0x3613 JUMP JUMPDEST AND DUP1 PUSH1 0x0 MSTORE PUSH1 0x1 PUSH1 0x20 MSTORE PUSH1 0x1 DUP1 PUSH1 0xA0 SHL SUB PUSH2 0xC9E DUP2 PUSH1 0x40 PUSH1 0x0 KECCAK256 SLOAD AND CALLER EQ PUSH2 0x3D4F JUMP JUMPDEST DUP2 PUSH1 0x0 MSTORE PUSH1 0x0 PUSH1 0x20 MSTORE PUSH1 0x40 PUSH1 0x0 KECCAK256 PUSH1 0xB DUP2 ADD SLOAD TIMESTAMP LT PUSH2 0xD49 JUMPI PUSH1 0x0 DUP1 DUP1 DUP4 PUSH1 0x19 DUP3 SWAP6 ADD SWAP1 PUSH1 0x1A DUP3 SLOAD SWAP2 PUSH2 0xCD7 PUSH1 0xFF DUP5 PUSH1 0xA8 SHR AND ISZERO PUSH2 0x3DA9 JUMP JUMPDEST ADD SLOAD PUSH2 0xFFFF PUSH1 0xA0 SHL NOT DUP3 AND PUSH1 0x1 PUSH1 0xA8 SHL OR SWAP1 SWAP3 SSTORE SWAP1 SWAP6 DUP7 SWAP2 DUP4 SWAP2 SWAP1 DUP4 ISZERO PUSH2 0xD3F JUMPI JUMPDEST AND SWAP1 CALL ISZERO PUSH2 0xD33 JUMPI PUSH1 0x40 PUSH32 0x398ABC1C2B2E46EC68F879C3AC11BE927EDE743D80D52D9968CBA00343BF074F SWAP2 DUP2 MLOAD SWAP1 DUP2 MSTORE TIMESTAMP PUSH1 0x20 DUP3 ADD MSTORE LOG2 STOP JUMPDEST PUSH1 0x40 MLOAD RETURNDATASIZE PUSH1 0x0 DUP3 RETURNDATACOPY RETURNDATASIZE SWAP1 REVERT JUMPDEST PUSH2 0x8FC SWAP3 POP PUSH2 0xCF9 JUMP JUMPDEST PUSH1 0x40 MLOAD PUSH3 0x461BCD PUSH1 0xE5 SHL DUP2 MSTORE PUSH1 0x20 PUSH1 0x4 DUP3 ADD MSTORE PUSH1 0x16 PUSH1 0x24 DUP3 ADD MSTORE PUSH22 0x10DBDB9D1C9858DD081B9BDD08195B991959081E595D PUSH1 0x52 SHL PUSH1 0x44 DUP3 ADD MSTORE PUSH1 0x64 SWAP1 REVERT JUMPDEST CALLVALUE PUSH2 0x162 JUMPI PUSH1 0x20 CALLDATASIZE PUSH1 0x3 NOT ADD SLT PUSH2 0x162 JUMPI PUSH1 0x1 PUSH1 0x1 PUSH1 0xD0 SHL SUB NOT PUSH2 0xDA9 PUSH2 0x3613 JUMP JUMPDEST AND PUSH1 0x0 MSTORE PUSH1 0x0 PUSH1 0x20 MSTORE PUSH1 0x20 PUSH1 0x1A PUSH1 0x40 PUSH1 0x0 KECCAK256 ADD SLOAD PUSH1 0x40 MLOAD SWAP1 DUP2 MSTORE RETURN JUMPDEST CALLVALUE PUSH2 0x162 JUMPI PUSH1 0x20 CALLDATASIZE PUSH1 0x3 NOT ADD SLT PUSH2 0x162 JUMPI PUSH1 0x1 PUSH1 0x1 PUSH1 0xD0 SHL SUB NOT PUSH2 0xDE7 PUSH2 0x3613 JUMP JUMPDEST AND PUSH1 0x0 MSTORE PUSH1 0x1 PUSH1 0x20 MSTORE PUSH1 0x20 PUSH1 0x1 DUP1 PUSH1 0xA0 SHL SUB PUSH1 0x40 PUSH1 0x0 KECCAK256 SLOAD AND PUSH1 0x40 MLOAD SWAP1 DUP2 MSTORE RETURN JUMPDEST CALLVALUE PUSH2 0x162 JUMPI PUSH1 0x40 CALLDATASIZE PUSH1 0x3 NOT ADD SLT PUSH2 0x162 JUMPI PUSH1 0x1 PUSH1 0x1 PUSH1 0xD0 SHL SUB NOT PUSH2 0xE2A PUSH2 0x3613 JUMP JUMPDEST AND DUP1 PUSH1 0x0 MSTORE PUSH1 0x20 PUSH1 0x0 DUP2 MSTORE PUSH2 0xE50 PUSH1 0x1 DUP1 PUSH1 0xA0 SHL SUB PUSH1 0x19 PUSH1 0x40 PUSH1 0x0 KECCAK256 ADD SLOAD AND CALLER EQ PUSH2 0x3B5F JUMP JUMPDEST DUP2 PUSH1 0x0 MSTORE PUSH1 0x2 DUP2 MSTORE PUSH2 0xE68 PUSH1 0x24 CALLDATALOAD PUSH1 0x40 PUSH1 0x0 KECCAK256 PUSH2 0x370F JUMP JUMPDEST POP PUSH1 0x2 DUP2 ADD PUSH2 0xE7A PUSH1 0xFF DUP3 SLOAD AND PUSH2 0x3C97 JUMP JUMPDEST DUP2 SLOAD DUP5 PUSH1 0x0 MSTORE PUSH1 0x0 DUP5 MSTORE PUSH2 0xE98 PUSH1 0x1A PUSH1 0x40 PUSH1 0x0 KECCAK256 ADD SLOAD DUP3 GT ISZERO PUSH2 0x3E37 JUMP JUMPDEST DUP5 PUSH1 0x0 MSTORE PUSH1 0x0 DUP5 MSTORE PUSH1 0x1A PUSH1 0x40 PUSH1 0x0 KECCAK256 ADD DUP1 SLOAD SWAP2 DUP3 SUB SWAP2 DUP3 GT PUSH2 0xF44 JUMPI SSTORE PUSH1 0xFF NOT DUP2 SLOAD AND SWAP1 SSTORE PUSH1 0x0 DUP1 DUP1 DUP1 DUP5 SLOAD DUP2 DUP2 ISZERO PUSH2 0xF3B JUMPI JUMPDEST CALLER SWAP1 CALL ISZERO PUSH2 0xD33 JUMPI PUSH32 0x398ABC1C2B2E46EC68F879C3AC11BE927EDE743D80D52D9968CBA00343BF074F SWAP2 PUSH1 0x40 SWAP2 DUP5 PUSH1 0x0 MSTORE PUSH1 0x0 DUP3 MSTORE DUP3 PUSH1 0x0 KECCAK256 PUSH1 0x1A DUP2 ADD SLOAD ISZERO PUSH2 0xF20 JUMPI JUMPDEST POP SLOAD SWAP1 DUP3 MLOAD SWAP2 DUP3 MSTORE TIMESTAMP SWAP1 DUP3 ADD MSTORE LOG2 STOP JUMPDEST PUSH1 0x19 ADD DUP1 SLOAD PUSH2 0xFFFF PUSH1 0xA8 SHL NOT AND PUSH1 0x1 PUSH1 0xA8 SHL OR SWAP1 SSTORE DUP6 PUSH2 0xF10 JUMP JUMPDEST POP PUSH2 0x8FC PUSH2 0xECC JUMP JUMPDEST PUSH4 0x4E487B71 PUSH1 0xE0 SHL PUSH1 0x0 MSTORE PUSH1 0x11 PUSH1 0x4 MSTORE PUSH1 0x24 PUSH1 0x0 REVERT JUMPDEST CALLVALUE PUSH2 0x162 JUMPI PUSH1 0x60 CALLDATASIZE PUSH1 0x3 NOT ADD SLT PUSH2 0x162 JUMPI PUSH2 0xF73 PUSH2 0x3613 JUMP JUMPDEST PUSH1 0x24 CALLDATALOAD PUSH1 0x44 CALLDATALOAD SWAP2 PUSH6 0xFFFFFFFFFFFF PUSH1 0xD0 SHL AND SWAP2 DUP3 PUSH1 0x0 MSTORE PUSH1 0x20 SWAP2 PUSH1 0x1 DUP4 MSTORE PUSH2 0xFA9 PUSH1 0x1 DUP1 PUSH1 0xA0 SHL SUB PUSH1 0x40 PUSH1 0x0 KECCAK256 SLOAD AND CALLER EQ PUSH2 0x3D4F JUMP JUMPDEST DUP4 PUSH1 0x0 MSTORE PUSH1 0x0 DUP4 MSTORE PUSH1 0xFF PUSH1 0x19 PUSH1 0x40 PUSH1 0x0 KECCAK256 ADD SLOAD PUSH1 0xA0 SHR AND ISZERO PUSH2 0x10EB JUMPI DUP4 PUSH1 0x0 MSTORE PUSH1 0x0 DUP4 MSTORE PUSH2 0xFE5 PUSH1 0xFF PUSH1 0x19 PUSH1 0x40 PUSH1 0x0 KECCAK256 ADD SLOAD PUSH1 0xA8 SHR AND ISZERO PUSH2 0x3DA9 JUMP JUMPDEST DUP4 PUSH1 0x0 MSTORE PUSH1 0x0 DUP4 MSTORE PUSH2 0x1004 PUSH1 0xFF PUSH1 0x19 PUSH1 0x40 PUSH1 0x0 KECCAK256 ADD SLOAD PUSH1 0xB0 SHR AND PUSH2 0x3DF5 JUMP JUMPDEST DUP4 PUSH1 0x0 MSTORE PUSH1 0x0 DUP4 MSTORE PUSH2 0x1020 PUSH1 0x1A PUSH1 0x40 PUSH1 0x0 KECCAK256 ADD SLOAD DUP3 GT ISZERO PUSH2 0x3E37 JUMP JUMPDEST DUP4 PUSH1 0x0 MSTORE PUSH1 0x2 DUP4 MSTORE PUSH1 0x40 PUSH1 0x0 KECCAK256 SWAP2 PUSH1 0x40 MLOAD SWAP4 PUSH2 0x103B DUP6 PUSH2 0x362A JUMP JUMPDEST DUP3 DUP6 MSTORE DUP1 DUP6 ADD SWAP4 TIMESTAMP DUP6 MSTORE PUSH1 0x40 DUP7 ADD SWAP6 PUSH1 0x1 DUP8 MSTORE PUSH1 0x60 DUP2 ADD SWAP2 DUP5 DUP4 MSTORE DUP1 SLOAD PUSH1 0x1 PUSH1 0x40 SHL DUP2 LT ISZERO PUSH2 0x631 JUMPI PUSH2 0x1073 SWAP2 PUSH1 0x1 DUP3 ADD DUP2 SSTORE PUSH2 0x370F JUMP JUMPDEST SWAP3 SWAP1 SWAP3 PUSH2 0x10D5 JUMPI PUSH32 0xA3BF59203FBC349341F790A93F1B263ADF7E98F37943660123453DE8008B9C36 SWAP8 PUSH1 0x60 SWAP8 PUSH1 0x3 SWAP4 MLOAD DUP6 SSTORE MLOAD PUSH1 0x1 DUP6 ADD SSTORE PUSH1 0x2 DUP5 ADD SWAP1 MLOAD ISZERO ISZERO PUSH1 0xFF DUP1 NOT DUP4 SLOAD AND SWAP2 AND OR SWAP1 SSTORE MLOAD SWAP2 ADD SSTORE PUSH1 0x40 MLOAD SWAP3 DUP4 MSTORE DUP3 ADD MSTORE TIMESTAMP PUSH1 0x40 DUP3 ADD MSTORE LOG2 STOP JUMPDEST PUSH4 0x4E487B71 PUSH1 0xE0 SHL PUSH1 0x0 MSTORE PUSH1 0x0 PUSH1 0x4 MSTORE PUSH1 0x24 PUSH1 0x0 REVERT JUMPDEST PUSH1 0x40 MLOAD PUSH3 0x461BCD PUSH1 0xE5 SHL DUP2 MSTORE PUSH1 0x4 DUP2 ADD DUP5 SWAP1 MSTORE PUSH1 0x10 PUSH1 0x24 DUP3 ADD MSTORE PUSH16 0x11195C1BDCDA5D081B9BDD081C185A59 PUSH1 0x82 SHL PUSH1 0x44 DUP3 ADD MSTORE PUSH1 0x64 SWAP1 REVERT JUMPDEST CALLVALUE PUSH2 0x162 JUMPI PUSH1 0x20 CALLDATASIZE PUSH1 0x3 NOT ADD SLT PUSH2 0x162 JUMPI PUSH1 0x1 PUSH1 0x1 PUSH1 0xD0 SHL SUB NOT PUSH2 0x1145 PUSH2 0x3613 JUMP JUMPDEST AND PUSH1 0x0 MSTORE PUSH1 0x0 PUSH1 0x20 MSTORE PUSH1 0x40 PUSH1 0x0 KECCAK256 DUP1 SLOAD PUSH1 0x1 DUP3 ADD PUSH2 0x1162 SWAP1 PUSH2 0x3A97 JUMP JUMPDEST SWAP2 PUSH2 0x116F PUSH1 0x4 DUP3 ADD PUSH2 0x3A97 JUMP JUMPDEST PUSH2 0x117B PUSH1 0x7 DUP4 ADD PUSH2 0x3ACF JUMP JUMPDEST PUSH2 0x1187 PUSH1 0x12 DUP5 ADD PUSH2 0x39F2 JUMP JUMPDEST PUSH2 0x1193 PUSH1 0x16 DUP6 ADD PUSH2 0x39F2 JUMP JUMPDEST PUSH2 0x119F PUSH1 0x17 DUP7 ADD PUSH2 0x39F2 JUMP JUMPDEST SWAP2 PUSH2 0x11AC PUSH1 0x18 DUP8 ADD PUSH2 0x39F2 JUMP JUMPDEST SWAP4 PUSH1 0x19 DUP8 ADD SLOAD SWAP7 PUSH1 0x1A ADD SLOAD SWAP6 PUSH1 0x40 MLOAD SWAP10 DUP11 SWAP10 PUSH2 0x1A0 SWAP1 DUP12 MSTORE DUP1 PUSH1 0x20 DUP13 ADD MSTORE DUP11 ADD PUSH2 0x11D5 SWAP2 PUSH2 0x3789 JUMP JUMPDEST DUP10 DUP2 SUB PUSH1 0x40 DUP12 ADD MSTORE PUSH2 0x11E6 SWAP2 PUSH2 0x3789 JUMP JUMPDEST DUP9 DUP2 SUB PUSH1 0x60 DUP11 ADD MSTORE PUSH2 0x11F7 SWAP2 PUSH2 0x37CB JUMP JUMPDEST DUP8 DUP2 SUB PUSH1 0x80 DUP10 ADD MSTORE PUSH2 0x1208 SWAP2 PUSH2 0x3764 JUMP JUMPDEST DUP7 DUP2 SUB PUSH1 0xA0 DUP9 ADD MSTORE PUSH2 0x1219 SWAP2 PUSH2 0x3764 JUMP JUMPDEST DUP6 DUP2 SUB PUSH1 0xC0 DUP8 ADD MSTORE PUSH2 0x122A SWAP2 PUSH2 0x3764 JUMP JUMPDEST DUP5 DUP2 SUB PUSH1 0xE0 DUP7 ADD MSTORE PUSH2 0x123B SWAP2 PUSH2 0x3764 JUMP JUMPDEST SWAP2 PUSH1 0x1 PUSH1 0xA0 SHL PUSH1 0x1 SWAP1 SUB DUP2 AND PUSH2 0x100 DUP6 ADD MSTORE DUP1 PUSH1 0xA0 SHR PUSH1 0xFF AND ISZERO ISZERO PUSH2 0x120 DUP6 ADD MSTORE DUP1 PUSH1 0xA8 SHR PUSH1 0xFF AND ISZERO ISZERO PUSH2 0x140 DUP6 ADD MSTORE PUSH1 0xB0 SHR PUSH1 0xFF AND ISZERO ISZERO PUSH2 0x160 DUP5 ADD MSTORE PUSH2 0x180 DUP4 ADD MSTORE SUB SWAP1 RETURN JUMPDEST CALLVALUE PUSH2 0x162 JUMPI PUSH1 0x3 NOT PUSH2 0x160 CALLDATASIZE DUP3 ADD SLT PUSH2 0x162 JUMPI PUSH2 0x129E PUSH2 0x3613 JUMP JUMPDEST SWAP1 PUSH1 0x24 CALLDATALOAD PUSH1 0x1 PUSH1 0x1 PUSH1 0x40 SHL SUB DUP2 GT PUSH2 0x162 JUMPI PUSH2 0x12BE SWAP1 CALLDATASIZE SWAP1 PUSH1 0x4 ADD PUSH2 0x38AB JUMP JUMPDEST SWAP1 PUSH1 0x44 CALLDATALOAD PUSH1 0x1 PUSH1 0x1 PUSH1 0x40 SHL SUB DUP2 GT PUSH2 0x162 JUMPI PUSH2 0x12DE SWAP1 CALLDATASIZE SWAP1 PUSH1 0x4 ADD PUSH2 0x38AB JUMP JUMPDEST SWAP1 PUSH1 0x64 CALLDATALOAD SWAP1 PUSH1 0x1 PUSH1 0x1 PUSH1 0x40 SHL SUB DUP3 GT PUSH2 0x162 JUMPI PUSH2 0x160 SWAP1 DUP3 CALLDATASIZE SUB ADD SLT PUSH2 0x162 JUMPI PUSH1 0x40 MLOAD SWAP1 PUSH2 0x130B DUP3 PUSH2 0x3661 JUMP JUMPDEST DUP1 PUSH1 0x4 ADD CALLDATALOAD PUSH1 0x1 PUSH1 0x1 PUSH1 0x40 SHL SUB DUP2 GT PUSH2 0x162 JUMPI PUSH2 0x132E SWAP1 PUSH1 0x4 CALLDATASIZE SWAP2 DUP5 ADD ADD PUSH2 0x36B9 JUMP JUMPDEST DUP3 MSTORE PUSH1 0x24 DUP2 ADD CALLDATALOAD PUSH1 0x1 PUSH1 0x1 PUSH1 0x40 SHL SUB DUP2 GT PUSH2 0x162 JUMPI PUSH2 0x1353 SWAP1 PUSH1 0x4 CALLDATASIZE SWAP2 DUP5 ADD ADD PUSH2 0x36B9 JUMP JUMPDEST PUSH1 0x20 DUP4 ADD MSTORE PUSH1 0x44 DUP2 ADD CALLDATALOAD PUSH1 0x40 DUP4 ADD MSTORE PUSH1 0x64 DUP2 ADD CALLDATALOAD PUSH1 0x60 DUP4 ADD MSTORE PUSH1 0x84 DUP2 ADD CALLDATALOAD PUSH1 0x80 DUP4 ADD MSTORE PUSH1 0xA4 DUP2 ADD CALLDATALOAD PUSH1 0xA0 DUP4 ADD MSTORE PUSH1 0xC4 DUP2 ADD CALLDATALOAD SWAP1 PUSH1 0x1 PUSH1 0x1 PUSH1 0x40 SHL SUB DUP3 GT PUSH2 0x162 JUMPI PUSH2 0x13A7 PUSH2 0x144 SWAP3 PUSH1 0x4 CALLDATASIZE SWAP2 DUP5 ADD ADD PUSH2 0x36B9 JUMP JUMPDEST PUSH1 0xC0 DUP5 ADD MSTORE PUSH1 0xE4 DUP2 ADD CALLDATALOAD PUSH1 0xE0 DUP5 ADD MSTORE PUSH2 0x104 DUP2 ADD CALLDATALOAD PUSH2 0x100 DUP5 ADD MSTORE PUSH2 0x124 DUP2 ADD CALLDATALOAD PUSH2 0x120 DUP5 ADD MSTORE ADD CALLDATALOAD PUSH2 0x140 DUP3 ADD MSTORE PUSH1 0x84 CALLDATALOAD PUSH1 0x1 PUSH1 0x1 PUSH1 0x40 SHL SUB DUP2 GT PUSH2 0x162 JUMPI PUSH2 0x13F5 SWAP1 CALLDATASIZE SWAP1 PUSH1 0x4 ADD PUSH2 0x36B9 JUMP JUMPDEST PUSH1 0xA4 CALLDATALOAD PUSH1 0x1 PUSH1 0x1 PUSH1 0x40 SHL SUB DUP2 GT PUSH2 0x162 JUMPI PUSH2 0x1414 SWAP1 CALLDATASIZE SWAP1 PUSH1 0x4 ADD PUSH2 0x3939 JUMP JUMPDEST PUSH1 0xC4 CALLDATALOAD PUSH1 0x1 PUSH1 0x1 PUSH1 0x40 SHL SUB DUP2 GT PUSH2 0x162 JUMPI PUSH2 0x1433 SWAP1 CALLDATASIZE SWAP1 PUSH1 0x4 ADD PUSH2 0x3939 JUMP JUMPDEST PUSH1 0x1 PUSH1 0x1 PUSH1 0x40 SHL SUB PUSH1 0xE4 CALLDATALOAD GT PUSH2 0x162 JUMPI PUSH2 0x1452 CALLDATASIZE PUSH1 0xE4 CALLDATALOAD PUSH1 0x4 ADD PUSH2 0x3939 JUMP JUMPDEST SWAP1 PUSH1 0x1 PUSH1 0x1 PUSH1 0x40 SHL SUB PUSH2 0x104 CALLDATALOAD GT PUSH2 0x162 JUMPI PUSH2 0x1474 CALLDATASIZE PUSH2 0x104 CALLDATALOAD PUSH1 0x4 ADD PUSH2 0x36B9 JUMP JUMPDEST SWAP3 PUSH1 0x1 PUSH1 0x1 PUSH1 0x40 SHL SUB PUSH2 0x124 CALLDATALOAD GT PUSH2 0x162 JUMPI PUSH2 0x1496 CALLDATASIZE PUSH2 0x124 CALLDATALOAD PUSH1 0x4 ADD PUSH2 0x36B9 JUMP JUMPDEST SWAP5 PUSH2 0x144 CALLDATALOAD PUSH1 0x1 PUSH1 0x1 PUSH1 0x40 SHL SUB DUP2 GT PUSH2 0x162 JUMPI PUSH2 0x14B7 SWAP1 CALLDATASIZE SWAP1 PUSH1 0x4 ADD PUSH2 0x36B9 JUMP JUMPDEST PUSH1 0x1 PUSH1 0x1 PUSH1 0xD0 SHL SUB NOT DUP12 AND PUSH1 0x0 SWAP1 DUP2 MSTORE PUSH1 0x1 PUSH1 0x20 MSTORE PUSH1 0x40 SWAP1 KECCAK256 SLOAD SWAP1 SWAP8 SWAP1 PUSH1 0x1 PUSH1 0x1 PUSH1 0xA0 SHL SUB AND PUSH2 0x29B7 JUMPI PUSH2 0x100 DUP2 ADD MLOAD SWAP9 PUSH1 0x40 MLOAD SWAP11 PUSH2 0x14F5 DUP13 PUSH2 0x3645 JUMP JUMPDEST TIMESTAMP DUP13 MSTORE PUSH1 0x20 DUP13 ADD MSTORE PUSH1 0x40 DUP12 ADD MSTORE PUSH1 0x60 DUP11 ADD MSTORE PUSH1 0x80 DUP10 ADD MSTORE PUSH1 0xA0 DUP9 ADD MSTORE PUSH1 0xC0 DUP8 ADD MSTORE PUSH1 0xE0 DUP7 ADD MSTORE PUSH2 0x100 DUP6 ADD MSTORE PUSH2 0x120 DUP5 ADD MSTORE PUSH2 0x140 DUP4 ADD MSTORE PUSH1 0x0 PUSH2 0x160 DUP4 ADD MSTORE PUSH1 0x0 PUSH2 0x180 DUP4 ADD MSTORE PUSH1 0x0 PUSH2 0x1A0 DUP4 ADD MSTORE PUSH1 0x0 PUSH2 0x1C0 DUP4 ADD MSTORE PUSH2 0x1E0 DUP3 ADD MSTORE PUSH6 0xFFFFFFFFFFFF PUSH1 0xD0 SHL DUP3 AND PUSH1 0x0 MSTORE PUSH1 0x0 PUSH1 0x20 MSTORE PUSH1 0x40 PUSH1 0x0 KECCAK256 SWAP2 DUP2 MLOAD DUP4 SSTORE PUSH1 0x20 DUP3 ADD MLOAD DUP1 MLOAD DUP1 MLOAD SWAP1 PUSH1 0x1 PUSH1 0x1 PUSH1 0x40 SHL SUB DUP3 GT PUSH2 0x631 JUMPI PUSH2 0x1596 PUSH1 0x1 DUP8 ADD SLOAD PUSH2 0x39B8 JUMP JUMPDEST PUSH1 0x1F DUP2 GT PUSH2 0x2982 JUMPI JUMPDEST POP PUSH1 0x20 SWAP1 PUSH1 0x1F DUP4 GT PUSH1 0x1 EQ PUSH2 0x2910 JUMPI PUSH2 0x15D0 SWAP3 SWAP2 PUSH1 0x0 SWAP2 DUP4 PUSH2 0x581 JUMPI POP POP DUP2 PUSH1 0x1 SHL SWAP2 PUSH1 0x0 NOT SWAP1 PUSH1 0x3 SHL SHR NOT AND OR SWAP1 JUMP JUMPDEST PUSH1 0x1 DUP6 ADD SSTORE JUMPDEST PUSH1 0x20 DUP2 ADD MLOAD DUP1 MLOAD SWAP1 PUSH1 0x1 PUSH1 0x1 PUSH1 0x40 SHL SUB DUP3 GT PUSH2 0x631 JUMPI PUSH2 0x15F9 PUSH1 0x2 DUP8 ADD SLOAD PUSH2 0x39B8 JUMP JUMPDEST PUSH1 0x1F DUP2 GT PUSH2 0x28DB JUMPI JUMPDEST POP PUSH1 0x20 SWAP1 PUSH1 0x1F DUP4 GT PUSH1 0x1 EQ PUSH2 0x2868 JUMPI SWAP2 DUP1 PUSH2 0x1637 SWAP3 PUSH1 0x40 SWAP6 SWAP5 PUSH1 0x0 SWAP3 PUSH2 0x1C8A JUMPI POP POP DUP2 PUSH1 0x1 SHL SWAP2 PUSH1 0x0 NOT SWAP1 PUSH1 0x3 SHL SHR NOT AND OR SWAP1 JUMP JUMPDEST PUSH1 0x2 DUP7 ADD SSTORE JUMPDEST ADD MLOAD SWAP3 DUP4 MLOAD PUSH1 0x1 PUSH1 0x1 PUSH1 0x40 SHL SUB DUP2 GT PUSH2 0x631 JUMPI PUSH2 0x165D PUSH1 0x3 DUP4 ADD SLOAD PUSH2 0x39B8 JUMP JUMPDEST PUSH1 0x1F DUP2 GT PUSH2 0x2833 JUMPI JUMPDEST POP PUSH1 0x20 PUSH1 0x1F DUP3 GT PUSH1 0x1 EQ PUSH2 0x27C4 JUMPI DUP2 SWAP1 PUSH2 0x1699 SWAP4 SWAP5 SWAP6 SWAP7 PUSH1 0x0 SWAP3 PUSH2 0x1D40 JUMPI POP POP DUP2 PUSH1 0x1 SHL SWAP2 PUSH1 0x0 NOT SWAP1 PUSH1 0x3 SHL SHR NOT AND OR SWAP1 JUMP JUMPDEST PUSH1 0x3 DUP3 ADD SSTORE JUMPDEST PUSH1 0x40 DUP4 ADD MLOAD DUP1 MLOAD DUP1 MLOAD SWAP1 PUSH1 0x1 PUSH1 0x1 PUSH1 0x40 SHL SUB DUP3 GT PUSH2 0x631 JUMPI PUSH2 0x16C4 PUSH1 0x4 DUP6 ADD SLOAD PUSH2 0x39B8 JUMP JUMPDEST PUSH1 0x1F DUP2 GT PUSH2 0x278F JUMPI JUMPDEST POP PUSH1 0x20 SWAP1 PUSH1 0x1F DUP4 GT PUSH1 0x1 EQ PUSH2 0x271D JUMPI PUSH2 0x16FE SWAP3 SWAP2 PUSH1 0x0 SWAP2 DUP4 PUSH2 0x581 JUMPI POP POP DUP2 PUSH1 0x1 SHL SWAP2 PUSH1 0x0 NOT SWAP1 PUSH1 0x3 SHL SHR NOT AND OR SWAP1 JUMP JUMPDEST PUSH1 0x4 DUP4 ADD SSTORE JUMPDEST PUSH1 0x20 DUP2 ADD MLOAD DUP1 MLOAD SWAP1 PUSH1 0x1 PUSH1 0x1 PUSH1 0x40 SHL SUB DUP3 GT PUSH2 0x631 JUMPI PUSH2 0x1727 PUSH1 0x5 DUP6 ADD SLOAD PUSH2 0x39B8 JUMP JUMPDEST PUSH1 0x1F DUP2 GT PUSH2 0x26E8 JUMPI JUMPDEST POP PUSH1 0x20 SWAP1 PUSH1 0x1F DUP4 GT PUSH1 0x1 EQ PUSH2 0x2675 JUMPI SWAP2 DUP1 PUSH2 0x1765 SWAP3 PUSH1 0x40 SWAP6 SWAP5 PUSH1 0x0 SWAP3 PUSH2 0x1C8A JUMPI POP POP DUP2 PUSH1 0x1 SHL SWAP2 PUSH1 0x0 NOT SWAP1 PUSH1 0x3 SHL SHR NOT AND OR SWAP1 JUMP JUMPDEST PUSH1 0x5 DUP5 ADD SSTORE JUMPDEST ADD MLOAD SWAP3 DUP4 MLOAD PUSH1 0x1 PUSH1 0x1 PUSH1 0x40 SHL SUB DUP2 GT PUSH2 0x631 JUMPI PUSH2 0x178B PUSH1 0x6 DUP5 ADD SLOAD PUSH2 0x39B8 JUMP JUMPDEST PUSH1 0x1F DUP2 GT PUSH2 0x2640 JUMPI JUMPDEST POP PUSH1 0x20 PUSH1 0x1F DUP3 GT PUSH1 0x1 EQ PUSH2 0x25D1 JUMPI DUP2 SWAP1 PUSH2 0x17C7 SWAP4 SWAP5 SWAP6 SWAP7 PUSH1 0x0 SWAP3 PUSH2 0x1D40 JUMPI POP POP DUP2 PUSH1 0x1 SHL SWAP2 PUSH1 0x0 NOT SWAP1 PUSH1 0x3 SHL SHR NOT AND OR SWAP1 JUMP JUMPDEST PUSH1 0x6 DUP4 ADD SSTORE JUMPDEST PUSH1 0x60 DUP2 ADD MLOAD DUP1 MLOAD DUP1 MLOAD SWAP1 PUSH1 0x1 PUSH1 0x1 PUSH1 0x40 SHL SUB DUP3 GT PUSH2 0x631 JUMPI PUSH2 0x17F2 PUSH1 0x7 DUP7 ADD SLOAD PUSH2 0x39B8 JUMP JUMPDEST PUSH1 0x1F DUP2 GT PUSH2 0x259C JUMPI JUMPDEST POP PUSH1 0x20 SWAP1 PUSH1 0x1F DUP4 GT PUSH1 0x1 EQ PUSH2 0x252A JUMPI PUSH2 0x182C SWAP3 SWAP2 PUSH1 0x0 SWAP2 DUP4 PUSH2 0x581 JUMPI POP POP DUP2 PUSH1 0x1 SHL SWAP2 PUSH1 0x0 NOT SWAP1 PUSH1 0x3 SHL SHR NOT AND OR SWAP1 JUMP JUMPDEST PUSH1 0x7 DUP5 ADD SSTORE JUMPDEST PUSH1 0x20 DUP2 ADD MLOAD DUP1 MLOAD SWAP1 PUSH1 0x1 PUSH1 0x1 PUSH1 0x40 SHL SUB DUP3 GT PUSH2 0x631 JUMPI PUSH2 0x1855 PUSH1 0x8 DUP7 ADD SLOAD PUSH2 0x39B8 JUMP JUMPDEST PUSH1 0x1F DUP2 GT PUSH2 0x24F5 JUMPI JUMPDEST POP PUSH1 0x20 SWAP1 PUSH1 0x1F DUP4 GT PUSH1 0x1 EQ PUSH2 0x2483 JUMPI PUSH2 0x188F SWAP3 SWAP2 PUSH1 0x0 SWAP2 DUP4 PUSH2 0x581 JUMPI POP POP DUP2 PUSH1 0x1 SHL SWAP2 PUSH1 0x0 NOT SWAP1 PUSH1 0x3 SHL SHR NOT AND OR SWAP1 JUMP JUMPDEST PUSH1 0x8 DUP5 ADD SSTORE JUMPDEST PUSH1 0x40 DUP2 ADD MLOAD PUSH1 0x9 DUP5 ADD SSTORE PUSH1 0x60 DUP2 ADD MLOAD PUSH1 0xA DUP5 ADD SSTORE PUSH1 0x80 DUP2 ADD MLOAD PUSH1 0xB DUP5 ADD SSTORE PUSH1 0xA0 DUP2 ADD MLOAD PUSH1 0xC DUP5 ADD SSTORE PUSH1 0xC0 DUP2 ADD MLOAD DUP1 MLOAD SWAP1 PUSH1 0x1 PUSH1 0x1 PUSH1 0x40 SHL SUB DUP3 GT PUSH2 0x631 JUMPI PUSH2 0x18E0 PUSH1 0xD DUP7 ADD SLOAD PUSH2 0x39B8 JUMP JUMPDEST PUSH1 0x1F DUP2 GT PUSH2 0x244E JUMPI JUMPDEST POP PUSH1 0x20 SWAP1 PUSH1 0x1F DUP4 GT PUSH1 0x1 EQ PUSH2 0x23DA JUMPI SWAP2 DUP1 PUSH2 0x191F SWAP3 PUSH2 0x140 SWAP6 SWAP5 PUSH1 0x0 SWAP3 PUSH2 0x1C8A JUMPI POP POP DUP2 PUSH1 0x1 SHL SWAP2 PUSH1 0x0 NOT SWAP1 PUSH1 0x3 SHL SHR NOT AND OR SWAP1 JUMP JUMPDEST PUSH1 0xD DUP6 ADD SSTORE JUMPDEST PUSH1 0xE0 DUP2 ADD MLOAD PUSH1 0xE DUP6 ADD SSTORE PUSH2 0x100 DUP2 ADD MLOAD PUSH1 0xF DUP6 ADD SSTORE PUSH2 0x120 DUP2 ADD MLOAD PUSH1 0x10 DUP6 ADD SSTORE ADD MLOAD PUSH1 0x11 DUP4 ADD SSTORE PUSH1 0x80 DUP2 ADD MLOAD SWAP3 DUP4 MLOAD PUSH1 0x1 PUSH1 0x1 PUSH1 0x40 SHL SUB DUP2 GT PUSH2 0x631 JUMPI PUSH2 0x196F PUSH1 0x12 DUP6 ADD SLOAD PUSH2 0x39B8 JUMP JUMPDEST PUSH1 0x1F DUP2 GT PUSH2 0x23A5 JUMPI JUMPDEST POP PUSH1 0x20 PUSH1 0x1F DUP3 GT PUSH1 0x1 EQ PUSH2 0x2336 JUMPI DUP2 SWAP1 PUSH2 0x19AB SWAP4 SWAP5 SWAP6 SWAP7 PUSH1 0x0 SWAP3 PUSH2 0x1D40 JUMPI POP POP DUP2 PUSH1 0x1 SHL SWAP2 PUSH1 0x0 NOT SWAP1 PUSH1 0x3 SHL SHR NOT AND OR SWAP1 JUMP JUMPDEST PUSH1 0x12 DUP5 ADD SSTORE JUMPDEST PUSH1 0xA0 DUP3 ADD MLOAD DUP1 MLOAD SWAP1 PUSH1 0x1 PUSH1 0x40 SHL DUP3 GT PUSH2 0x631 JUMPI PUSH1 0x13 DUP6 ADD SLOAD DUP3 PUSH1 0x13 DUP8 ADD SSTORE DUP1 DUP4 LT PUSH2 0x22BE JUMPI JUMPDEST POP PUSH1 0x20 ADD SWAP1 PUSH1 0x13 DUP6 ADD PUSH1 0x0 MSTORE PUSH1 0x20 PUSH1 0x0 KECCAK256 SWAP2 PUSH1 0x0 SWAP1 JUMPDEST DUP3 DUP3 LT PUSH2 0x21AE JUMPI POP POP POP POP PUSH1 0xC0 DUP3 ADD MLOAD DUP1 MLOAD SWAP1 PUSH1 0x1 PUSH1 0x40 SHL DUP3 GT PUSH2 0x631 JUMPI PUSH1 0x14 DUP6 ADD SLOAD DUP3 PUSH1 0x14 DUP8 ADD SSTORE DUP1 DUP4 LT PUSH2 0x2136 JUMPI JUMPDEST POP PUSH1 0x20 ADD SWAP1 PUSH1 0x14 DUP6 ADD PUSH1 0x0 MSTORE PUSH1 0x20 PUSH1 0x0 KECCAK256 SWAP2 PUSH1 0x0 SWAP1 JUMPDEST DUP3 DUP3 LT PUSH2 0x2026 JUMPI POP POP POP POP PUSH1 0xE0 DUP3 ADD MLOAD DUP1 MLOAD SWAP1 PUSH1 0x1 PUSH1 0x40 SHL DUP3 GT PUSH2 0x631 JUMPI PUSH1 0x15 DUP6 ADD SLOAD DUP3 PUSH1 0x15 DUP8 ADD SSTORE DUP1 DUP4 LT PUSH2 0x1FAE JUMPI JUMPDEST POP PUSH1 0x20 ADD SWAP1 PUSH1 0x15 DUP6 ADD PUSH1 0x0 MSTORE PUSH1 0x20 PUSH1 0x0 KECCAK256 SWAP2 PUSH1 0x0 SWAP1 JUMPDEST DUP3 DUP3 LT PUSH2 0x1E93 JUMPI POP POP POP POP PUSH2 0x100 DUP3 ADD MLOAD SWAP3 DUP4 MLOAD PUSH1 0x1 PUSH1 0x1 PUSH1 0x40 SHL SUB DUP2 GT PUSH2 0x631 JUMPI PUSH2 0x1AAA PUSH1 0x16 DUP4 ADD SLOAD PUSH2 0x39B8 JUMP JUMPDEST PUSH1 0x1F DUP2 GT PUSH2 0x1E5E JUMPI JUMPDEST POP PUSH1 0x20 PUSH1 0x1F DUP3 GT PUSH1 0x1 EQ PUSH2 0x1DEF JUMPI DUP2 SWAP1 PUSH2 0x1AE6 SWAP4 SWAP5 SWAP6 SWAP7 PUSH1 0x0 SWAP3 PUSH2 0x1D40 JUMPI POP POP DUP2 PUSH1 0x1 SHL SWAP2 PUSH1 0x0 NOT SWAP1 PUSH1 0x3 SHL SHR NOT AND OR SWAP1 JUMP JUMPDEST PUSH1 0x16 DUP3 ADD SSTORE JUMPDEST PUSH2 0x120 DUP4 ADD MLOAD SWAP3 DUP4 MLOAD PUSH1 0x1 PUSH1 0x1 PUSH1 0x40 SHL SUB DUP2 GT PUSH2 0x631 JUMPI PUSH2 0x1B10 PUSH1 0x17 DUP5 ADD SLOAD PUSH2 0x39B8 JUMP JUMPDEST PUSH1 0x1F DUP2 GT PUSH2 0x1DBA JUMPI JUMPDEST POP PUSH1 0x20 PUSH1 0x1F DUP3 GT PUSH1 0x1 EQ PUSH2 0x1D4B JUMPI DUP2 SWAP1 PUSH2 0x1B4C SWAP4 SWAP5 SWAP6 SWAP7 PUSH1 0x0 SWAP3 PUSH2 0x1D40 JUMPI POP POP DUP2 PUSH1 0x1 SHL SWAP2 PUSH1 0x0 NOT SWAP1 PUSH1 0x3 SHL SHR NOT AND OR SWAP1 JUMP JUMPDEST PUSH1 0x17 DUP4 ADD SSTORE JUMPDEST PUSH2 0x140 DUP2 ADD MLOAD DUP1 MLOAD SWAP1 PUSH1 0x1 PUSH1 0x1 PUSH1 0x40 SHL SUB DUP3 GT PUSH2 0x631 JUMPI PUSH2 0x1B76 PUSH1 0x18 DUP6 ADD SLOAD PUSH2 0x39B8 JUMP JUMPDEST PUSH1 0x1F DUP2 GT PUSH2 0x1D0B JUMPI JUMPDEST POP PUSH1 0x20 SWAP1 PUSH1 0x1F DUP4 GT PUSH1 0x1 EQ PUSH2 0x1C95 JUMPI DUP3 PUSH2 0x1E0 SWAP4 PUSH1 0x1A SWAP6 SWAP4 PUSH2 0x1BB7 SWAP4 PUSH1 0x0 SWAP3 PUSH2 0x1C8A JUMPI POP POP DUP2 PUSH1 0x1 SHL SWAP2 PUSH1 0x0 NOT SWAP1 PUSH1 0x3 SHL SHR NOT AND OR SWAP1 JUMP JUMPDEST PUSH1 0x18 DUP6 ADD SSTORE JUMPDEST PUSH1 0x19 DUP5 ADD PUSH1 0x1 DUP1 PUSH1 0xA0 SHL SUB PUSH2 0x160 DUP4 ADD MLOAD AND DUP2 SLOAD SWAP1 PUSH1 0xFF PUSH1 0xA0 SHL PUSH2 0x180 DUP6 ADD MLOAD ISZERO ISZERO PUSH1 0xA0 SHL AND PUSH1 0xFF PUSH1 0xA8 SHL PUSH2 0x1A0 DUP7 ADD MLOAD ISZERO ISZERO PUSH1 0xA8 SHL AND SWAP2 PUSH1 0xFF PUSH1 0xB0 SHL PUSH2 0x1C0 DUP8 ADD MLOAD ISZERO ISZERO PUSH1 0xB0 SHL AND SWAP4 PUSH9 0xFFFFFFFFFFFFFFFFFF PUSH1 0xB8 SHL AND OR OR OR OR SWAP1 SSTORE ADD MLOAD SWAP2 ADD SSTORE PUSH6 0xFFFFFFFFFFFF PUSH1 0xD0 SHL DUP2 AND PUSH1 0x0 MSTORE PUSH1 0x1 PUSH1 0x20 MSTORE PUSH1 0x40 PUSH1 0x0 KECCAK256 CALLER PUSH12 0xFFFFFFFFFFFFFFFFFFFFFFFF PUSH1 0xA0 SHL DUP3 SLOAD AND OR SWAP1 SSTORE PUSH1 0x40 MLOAD TIMESTAMP DUP2 MSTORE PUSH32 0xB33818A9E5A811C9AAB3A6A5BE602CBA781D631797144964A715FF66E01D54B1 PUSH1 0x20 CALLER SWAP4 PUSH6 0xFFFFFFFFFFFF PUSH1 0xD0 SHL AND SWAP3 LOG3 STOP JUMPDEST ADD MLOAD SWAP1 POP DUP9 DUP1 PUSH2 0x378 JUMP JUMPDEST SWAP1 PUSH1 0x18 DUP6 ADD PUSH1 0x0 MSTORE PUSH1 0x20 PUSH1 0x0 KECCAK256 SWAP2 PUSH1 0x0 JUMPDEST PUSH1 0x1F NOT DUP6 AND DUP2 LT PUSH2 0x1CF3 JUMPI POP SWAP3 PUSH1 0x1A SWAP5 SWAP3 PUSH1 0x1 SWAP3 PUSH2 0x1E0 SWAP6 DUP4 PUSH1 0x1F NOT DUP2 AND LT PUSH2 0x1CDA JUMPI JUMPDEST POP POP POP DUP2 SHL ADD PUSH1 0x18 DUP6 ADD SSTORE PUSH2 0x1BBD JUMP JUMPDEST ADD MLOAD PUSH1 0x0 NOT PUSH1 0xF8 DUP5 PUSH1 0x3 SHL AND SHR NOT AND SWAP1 SSTORE DUP8 DUP1 DUP1 PUSH2 0x1CCA JUMP JUMPDEST SWAP2 SWAP3 PUSH1 0x20 PUSH1 0x1 DUP2 SWAP3 DUP7 DUP6 ADD MLOAD DUP2 SSTORE ADD SWAP5 ADD SWAP3 ADD PUSH2 0x1CA6 JUMP JUMPDEST PUSH2 0x1D3A SWAP1 PUSH1 0x18 DUP7 ADD PUSH1 0x0 MSTORE PUSH1 0x20 PUSH1 0x0 KECCAK256 PUSH1 0x1F DUP6 ADD PUSH1 0x5 SHR DUP2 ADD SWAP2 PUSH1 0x20 DUP7 LT PUSH2 0x627 JUMPI PUSH1 0x1F ADD PUSH1 0x5 SHR ADD SWAP1 PUSH2 0x3C80 JUMP JUMPDEST DUP6 PUSH2 0x1B7F JUMP JUMPDEST ADD MLOAD SWAP1 POP DUP7 DUP1 PUSH2 0x378 JUMP JUMPDEST PUSH1 0x17 DUP5 ADD PUSH1 0x0 MSTORE PUSH1 0x20 PUSH1 0x0 KECCAK256 SWAP1 PUSH1 0x0 JUMPDEST PUSH1 0x1F NOT DUP5 AND DUP2 LT PUSH2 0x1DA2 JUMPI POP PUSH1 0x1 SWAP4 SWAP5 SWAP6 SWAP7 DUP4 PUSH1 0x1F NOT DUP2 AND LT PUSH2 0x1D89 JUMPI JUMPDEST POP POP POP DUP2 SHL ADD PUSH1 0x17 DUP4 ADD SSTORE PUSH2 0x1B52 JUMP JUMPDEST ADD MLOAD PUSH1 0x0 NOT PUSH1 0xF8 DUP5 PUSH1 0x3 SHL AND SHR NOT AND SWAP1 SSTORE DUP6 DUP1 DUP1 PUSH2 0x1D79 JUMP JUMPDEST SWAP1 SWAP2 PUSH1 0x20 PUSH1 0x1 DUP2 SWAP3 DUP6 DUP12 ADD MLOAD DUP2 SSTORE ADD SWAP4 ADD SWAP2 ADD PUSH2 0x1D5B JUMP JUMPDEST PUSH2 0x1DE9 SWAP1 PUSH1 0x17 DUP6 ADD PUSH1 0x0 MSTORE PUSH1 0x20 PUSH1 0x0 KECCAK256 PUSH1 0x1F DUP5 ADD PUSH1 0x5 SHR DUP2 ADD SWAP2 PUSH1 0x20 DUP6 LT PUSH2 0x627 JUMPI PUSH1 0x1F ADD PUSH1 0x5 SHR ADD SWAP1 PUSH2 0x3C80 JUMP JUMPDEST DUP6 PUSH2 0x1B19 JUMP JUMPDEST PUSH1 0x16 DUP4 ADD PUSH1 0x0 MSTORE PUSH1 0x20 PUSH1 0x0 KECCAK256 SWAP1 PUSH1 0x0 JUMPDEST PUSH1 0x1F NOT DUP5 AND DUP2 LT PUSH2 0x1E46 JUMPI POP PUSH1 0x1 SWAP4 SWAP5 SWAP6 SWAP7 DUP4 PUSH1 0x1F NOT DUP2 AND LT PUSH2 0x1E2D JUMPI JUMPDEST POP POP POP DUP2 SHL ADD PUSH1 0x16 DUP3 ADD SSTORE PUSH2 0x1AEC JUMP JUMPDEST ADD MLOAD PUSH1 0x0 NOT PUSH1 0xF8 DUP5 PUSH1 0x3 SHL AND SHR NOT AND SWAP1 SSTORE DUP6 DUP1 DUP1 PUSH2 0x1E1D JUMP JUMPDEST SWAP1 SWAP2 PUSH1 0x20 PUSH1 0x1 DUP2 SWAP3 DUP6 DUP12 ADD MLOAD DUP2 SSTORE ADD SWAP4 ADD SWAP2 ADD PUSH2 0x1DFF JUMP JUMPDEST PUSH2 0x1E8D SWAP1 PUSH1 0x16 DUP5 ADD PUSH1 0x0 MSTORE PUSH1 0x20 PUSH1 0x0 KECCAK256 PUSH1 0x1F DUP5 ADD PUSH1 0x5 SHR DUP2 ADD SWAP2 PUSH1 0x20 DUP6 LT PUSH2 0x627 JUMPI PUSH1 0x1F ADD PUSH1 0x5 SHR ADD SWAP1 PUSH2 0x3C80 JUMP JUMPDEST DUP6 PUSH2 0x1AB3 JUMP JUMPDEST DUP1 MLOAD DUP1 MLOAD SWAP1 PUSH1 0x1 PUSH1 0x1 PUSH1 0x40 SHL SUB DUP3 GT PUSH2 0x631 JUMPI PUSH2 0x1EB0 DUP7 SLOAD PUSH2 0x39B8 JUMP JUMPDEST PUSH1 0x1F DUP2 GT PUSH2 0x1F7C JUMPI JUMPDEST POP PUSH1 0x20 SWAP1 PUSH1 0x1F DUP4 GT PUSH1 0x1 EQ PUSH2 0x1F0C JUMPI SWAP3 PUSH2 0x1EF2 DUP4 PUSH1 0x1 SWAP6 SWAP5 PUSH1 0x20 SWAP5 DUP8 SWAP7 PUSH1 0x0 SWAP3 PUSH2 0x1F01 JUMPI POP POP DUP2 PUSH1 0x1 SHL SWAP2 PUSH1 0x0 NOT SWAP1 PUSH1 0x3 SHL SHR NOT AND OR SWAP1 JUMP JUMPDEST DUP8 SSTORE JUMPDEST ADD SWAP5 ADD SWAP2 ADD SWAP1 SWAP3 PUSH2 0x1A7B JUMP JUMPDEST ADD MLOAD SWAP1 POP DUP14 DUP1 PUSH2 0x378 JUMP JUMPDEST SWAP1 DUP7 PUSH1 0x0 MSTORE PUSH1 0x20 PUSH1 0x0 KECCAK256 SWAP2 PUSH1 0x0 JUMPDEST PUSH1 0x1F NOT DUP6 AND DUP2 LT PUSH2 0x1F64 JUMPI POP DUP4 PUSH1 0x20 SWAP4 PUSH1 0x1 SWAP7 SWAP4 DUP8 SWAP7 SWAP4 DUP8 SWAP5 PUSH1 0x1F NOT DUP2 AND LT PUSH2 0x1F4B JUMPI JUMPDEST POP POP POP DUP2 SHL ADD DUP8 SSTORE PUSH2 0x1EF5 JUMP JUMPDEST ADD MLOAD PUSH1 0x0 NOT PUSH1 0xF8 DUP5 PUSH1 0x3 SHL AND SHR NOT AND SWAP1 SSTORE DUP13 DUP1 DUP1 PUSH2 0x1F3E JUMP JUMPDEST SWAP2 SWAP3 PUSH1 0x20 PUSH1 0x1 DUP2 SWAP3 DUP7 DUP6 ADD MLOAD DUP2 SSTORE ADD SWAP5 ADD SWAP3 ADD PUSH2 0x1F1A JUMP JUMPDEST PUSH2 0x1FA8 SWAP1 DUP8 PUSH1 0x0 MSTORE PUSH1 0x20 PUSH1 0x0 KECCAK256 PUSH1 0x1F DUP6 ADD PUSH1 0x5 SHR DUP2 ADD SWAP2 PUSH1 0x20 DUP7 LT PUSH2 0x627 JUMPI PUSH1 0x1F ADD PUSH1 0x5 SHR ADD SWAP1 PUSH2 0x3C80 JUMP JUMPDEST DUP10 PUSH2 0x1EB9 JUMP JUMPDEST PUSH1 0x15 DUP7 ADD PUSH1 0x0 MSTORE PUSH1 0x20 PUSH1 0x0 KECCAK256 SWAP1 DUP4 DUP3 ADD JUMPDEST DUP2 DUP4 ADD DUP2 LT PUSH2 0x1FCF JUMPI POP POP PUSH2 0x1A65 JUMP JUMPDEST DUP1 PUSH2 0x1FDC PUSH1 0x1 SWAP3 SLOAD PUSH2 0x39B8 JUMP JUMPDEST DUP1 PUSH2 0x1FE9 JUMPI JUMPDEST POP ADD PUSH2 0x1FBF JUMP JUMPDEST PUSH1 0x1F DUP2 GT DUP4 EQ PUSH2 0x1FFF JUMPI POP PUSH1 0x0 DUP2 SSTORE JUMPDEST DUP10 PUSH2 0x1FE2 JUMP JUMPDEST PUSH1 0x0 SWAP1 DUP3 DUP3 MSTORE PUSH2 0x201D PUSH1 0x1F PUSH1 0x20 DUP5 KECCAK256 SWAP3 ADD PUSH1 0x5 SHR DUP3 ADD DUP6 DUP4 ADD PUSH2 0x3C80 JUMP JUMPDEST DUP2 DUP4 SSTORE SSTORE PUSH2 0x1FF9 JUMP JUMPDEST DUP1 MLOAD DUP1 MLOAD SWAP1 PUSH1 0x1 PUSH1 0x1 PUSH1 0x40 SHL SUB DUP3 GT PUSH2 0x631 JUMPI PUSH2 0x2043 DUP7 SLOAD PUSH2 0x39B8 JUMP JUMPDEST PUSH1 0x1F DUP2 GT PUSH2 0x2104 JUMPI JUMPDEST POP PUSH1 0x20 SWAP1 PUSH1 0x1F DUP4 GT PUSH1 0x1 EQ PUSH2 0x2094 JUMPI SWAP3 PUSH2 0x2085 DUP4 PUSH1 0x1 SWAP6 SWAP5 PUSH1 0x20 SWAP5 DUP8 SWAP7 PUSH1 0x0 SWAP3 PUSH2 0x1F01 JUMPI POP POP DUP2 PUSH1 0x1 SHL SWAP2 PUSH1 0x0 NOT SWAP1 PUSH1 0x3 SHL SHR NOT AND OR SWAP1 JUMP JUMPDEST DUP8 SSTORE JUMPDEST ADD SWAP5 ADD SWAP2 ADD SWAP1 SWAP3 PUSH2 0x1A34 JUMP JUMPDEST SWAP1 DUP7 PUSH1 0x0 MSTORE PUSH1 0x20 PUSH1 0x0 KECCAK256 SWAP2 PUSH1 0x0 JUMPDEST PUSH1 0x1F NOT DUP6 AND DUP2 LT PUSH2 0x20EC JUMPI POP DUP4 PUSH1 0x20 SWAP4 PUSH1 0x1 SWAP7 SWAP4 DUP8 SWAP7 SWAP4 DUP8 SWAP5 PUSH1 0x1F NOT DUP2 AND LT PUSH2 0x20D3 JUMPI JUMPDEST POP POP POP DUP2 SHL ADD DUP8 SSTORE PUSH2 0x2088 JUMP JUMPDEST ADD MLOAD PUSH1 0x0 NOT PUSH1 0xF8 DUP5 PUSH1 0x3 SHL AND SHR NOT AND SWAP1 SSTORE DUP13 DUP1 DUP1 PUSH2 0x20C6 JUMP JUMPDEST SWAP2 SWAP3 PUSH1 0x20 PUSH1 0x1 DUP2 SWAP3 DUP7 DUP6 ADD MLOAD DUP2 SSTORE ADD SWAP5 ADD SWAP3 ADD PUSH2 0x20A2 JUMP JUMPDEST PUSH2 0x2130 SWAP1 DUP8 PUSH1 0x0 MSTORE PUSH1 0x20 PUSH1 0x0 KECCAK256 PUSH1 0x1F DUP6 ADD PUSH1 0x5 SHR DUP2 ADD SWAP2 PUSH1 0x20 DUP7 LT PUSH2 0x627 JUMPI PUSH1 0x1F ADD PUSH1 0x5 SHR ADD SWAP1 PUSH2 0x3C80 JUMP JUMPDEST DUP10 PUSH2 0x204C JUMP JUMPDEST PUSH1 0x14 DUP7 ADD PUSH1 0x0 MSTORE PUSH1 0x20 PUSH1 0x0 KECCAK256 SWAP1 DUP4 DUP3 ADD JUMPDEST DUP2 DUP4 ADD DUP2 LT PUSH2 0x2157 JUMPI POP POP PUSH2 0x1A1E JUMP JUMPDEST DUP1 PUSH2 0x2164 PUSH1 0x1 SWAP3 SLOAD PUSH2 0x39B8 JUMP JUMPDEST DUP1 PUSH2 0x2171 JUMPI JUMPDEST POP ADD PUSH2 0x2147 JUMP JUMPDEST PUSH1 0x1F DUP2 GT DUP4 EQ PUSH2 0x2187 JUMPI POP PUSH1 0x0 DUP2 SSTORE JUMPDEST DUP10 PUSH2 0x216A JUMP JUMPDEST PUSH1 0x0 SWAP1 DUP3 DUP3 MSTORE PUSH2 0x21A5 PUSH1 0x1F PUSH1 0x20 DUP5 KECCAK256 SWAP3 ADD PUSH1 0x5 SHR DUP3 ADD DUP6 DUP4 ADD PUSH2 0x3C80 JUMP JUMPDEST DUP2 DUP4 SSTORE SSTORE PUSH2 0x2181 JUMP JUMPDEST DUP1 MLOAD DUP1 MLOAD SWAP1 PUSH1 0x1 PUSH1 0x1 PUSH1 0x40 SHL SUB DUP3 GT PUSH2 0x631 JUMPI PUSH2 0x21CB DUP7 SLOAD PUSH2 0x39B8 JUMP JUMPDEST PUSH1 0x1F DUP2 GT PUSH2 0x228C JUMPI JUMPDEST POP PUSH1 0x20 SWAP1 PUSH1 0x1F DUP4 GT PUSH1 0x1 EQ PUSH2 0x221C JUMPI SWAP3 PUSH2 0x220D DUP4 PUSH1 0x1 SWAP6 SWAP5 PUSH1 0x20 SWAP5 DUP8 SWAP7 PUSH1 0x0 SWAP3 PUSH2 0x1F01 JUMPI POP POP DUP2 PUSH1 0x1 SHL SWAP2 PUSH1 0x0 NOT SWAP1 PUSH1 0x3 SHL SHR NOT AND OR SWAP1 JUMP JUMPDEST DUP8 SSTORE JUMPDEST ADD SWAP5 ADD SWAP2 ADD SWAP1 SWAP3 PUSH2 0x19ED JUMP JUMPDEST SWAP1 DUP7 PUSH1 0x0 MSTORE PUSH1 0x20 PUSH1 0x0 KECCAK256 SWAP2 PUSH1 0x0 JUMPDEST PUSH1 0x1F NOT DUP6 AND DUP2 LT PUSH2 0x2274 JUMPI POP DUP4 PUSH1 0x20 SWAP4 PUSH1 0x1 SWAP7 SWAP4 DUP8 SWAP7 SWAP4 DUP8 SWAP5 PUSH1 0x1F NOT DUP2 AND LT PUSH2 0x225B JUMPI JUMPDEST POP POP POP DUP2 SHL ADD DUP8 SSTORE PUSH2 0x2210 JUMP JUMPDEST ADD MLOAD PUSH1 0x0 NOT PUSH1 0xF8 DUP5 PUSH1 0x3 SHL AND SHR NOT AND SWAP1 SSTORE DUP13 DUP1 DUP1 PUSH2 0x224E JUMP JUMPDEST SWAP2 SWAP3 PUSH1 0x20 PUSH1 0x1 DUP2 SWAP3 DUP7 DUP6 ADD MLOAD DUP2 SSTORE ADD SWAP5 ADD SWAP3 ADD PUSH2 0x222A JUMP JUMPDEST PUSH2 0x22B8 SWAP1 DUP8 PUSH1 0x0 MSTORE PUSH1 0x20 PUSH1 0x0 KECCAK256 PUSH1 0x1F DUP6 ADD PUSH1 0x5 SHR DUP2 ADD SWAP2 PUSH1 0x20 DUP7 LT PUSH2 0x627 JUMPI PUSH1 0x1F ADD PUSH1 0x5 SHR ADD SWAP1 PUSH2 0x3C80 JUMP JUMPDEST DUP10 PUSH2 0x21D4 JUMP JUMPDEST PUSH1 0x13 DUP7 ADD PUSH1 0x0 MSTORE PUSH1 0x20 PUSH1 0x0 KECCAK256 SWAP1 DUP4 DUP3 ADD JUMPDEST DUP2 DUP4 ADD DUP2 LT PUSH2 0x22DF JUMPI POP POP PUSH2 0x19D7 JUMP JUMPDEST DUP1 PUSH2 0x22EC PUSH1 0x1 SWAP3 SLOAD PUSH2 0x39B8 JUMP JUMPDEST DUP1 PUSH2 0x22F9 JUMPI JUMPDEST POP ADD PUSH2 0x22CF JUMP JUMPDEST PUSH1 0x1F DUP2 GT DUP4 EQ PUSH2 0x230F JUMPI POP PUSH1 0x0 DUP2 SSTORE JUMPDEST DUP10 PUSH2 0x22F2 JUMP JUMPDEST PUSH1 0x0 SWAP1 DUP3 DUP3 MSTORE PUSH2 0x232D PUSH1 0x1F PUSH1 0x20 DUP5 KECCAK256 SWAP3 ADD PUSH1 0x5 SHR DUP3 ADD DUP6 DUP4 ADD PUSH2 0x3C80 JUMP JUMPDEST DUP2 DUP4 SSTORE SSTORE PUSH2 0x2309 JUMP JUMPDEST PUSH1 0x12 DUP6 ADD PUSH1 0x0 MSTORE PUSH1 0x20 PUSH1 0x0 KECCAK256 SWAP1 PUSH1 0x0 JUMPDEST PUSH1 0x1F NOT DUP5 AND DUP2 LT PUSH2 0x238D JUMPI POP PUSH1 0x1 SWAP4 SWAP5 SWAP6 SWAP7 DUP4 PUSH1 0x1F NOT DUP2 AND LT PUSH2 0x2374 JUMPI JUMPDEST POP POP POP DUP2 SHL ADD PUSH1 0x12 DUP5 ADD SSTORE PUSH2 0x19B1 JUMP JUMPDEST ADD MLOAD PUSH1 0x0 NOT PUSH1 0xF8 DUP5 PUSH1 0x3 SHL AND SHR NOT AND SWAP1 SSTORE DUP6 DUP1 DUP1 PUSH2 0x2364 JUMP JUMPDEST SWAP1 SWAP2 PUSH1 0x20 PUSH1 0x1 DUP2 SWAP3 DUP6 DUP12 ADD MLOAD DUP2 SSTORE ADD SWAP4 ADD SWAP2 ADD PUSH2 0x2346 JUMP JUMPDEST PUSH2 0x23D4 SWAP1 PUSH1 0x12 DUP7 ADD PUSH1 0x0 MSTORE PUSH1 0x20 PUSH1 0x0 KECCAK256 PUSH1 0x1F DUP5 ADD PUSH1 0x5 SHR DUP2 ADD SWAP2 PUSH1 0x20 DUP6 LT PUSH2 0x627 JUMPI PUSH1 0x1F ADD PUSH1 0x5 SHR ADD SWAP1 PUSH2 0x3C80 JUMP JUMPDEST DUP6 PUSH2 0x1978 JUMP JUMPDEST SWAP1 PUSH1 0xD DUP7 ADD PUSH1 0x0 MSTORE PUSH1 0x20 PUSH1 0x0 KECCAK256 SWAP2 PUSH1 0x0 JUMPDEST PUSH1 0x1F NOT DUP6 AND DUP2 LT PUSH2 0x2436 JUMPI POP SWAP2 DUP4 SWAP2 PUSH1 0x1 SWAP4 PUSH2 0x140 SWAP7 SWAP6 PUSH1 0x1F NOT DUP2 AND LT PUSH2 0x241D JUMPI JUMPDEST POP POP POP DUP2 SHL ADD PUSH1 0xD DUP6 ADD SSTORE PUSH2 0x1925 JUMP JUMPDEST ADD MLOAD PUSH1 0x0 NOT PUSH1 0xF8 DUP5 PUSH1 0x3 SHL AND SHR NOT AND SWAP1 SSTORE DUP8 DUP1 DUP1 PUSH2 0x240D JUMP JUMPDEST SWAP2 SWAP3 PUSH1 0x20 PUSH1 0x1 DUP2 SWAP3 DUP7 DUP6 ADD MLOAD DUP2 SSTORE ADD SWAP5 ADD SWAP3 ADD PUSH2 0x23EB JUMP JUMPDEST PUSH2 0x247D SWAP1 PUSH1 0xD DUP8 ADD PUSH1 0x0 MSTORE PUSH1 0x20 PUSH1 0x0 KECCAK256 PUSH1 0x1F DUP6 ADD PUSH1 0x5 SHR DUP2 ADD SWAP2 PUSH1 0x20 DUP7 LT PUSH2 0x627 JUMPI PUSH1 0x1F ADD PUSH1 0x5 SHR ADD SWAP1 PUSH2 0x3C80 JUMP JUMPDEST DUP7 PUSH2 0x18E9 JUMP JUMPDEST SWAP2 SWAP1 PUSH1 0x8 DUP7 ADD PUSH1 0x0 MSTORE PUSH1 0x20 PUSH1 0x0 KECCAK256 SWAP1 PUSH1 0x0 SWAP4 JUMPDEST PUSH1 0x1F NOT DUP5 AND DUP6 LT PUSH2 0x24DA JUMPI PUSH1 0x1 SWAP5 POP DUP4 PUSH1 0x1F NOT DUP2 AND LT PUSH2 0x24C1 JUMPI JUMPDEST POP POP POP DUP2 SHL ADD PUSH1 0x8 DUP5 ADD SSTORE PUSH2 0x1895 JUMP JUMPDEST ADD MLOAD PUSH1 0x0 NOT PUSH1 0xF8 DUP5 PUSH1 0x3 SHL AND SHR NOT AND SWAP1 SSTORE DUP7 DUP1 DUP1 PUSH2 0x24B1 JUMP JUMPDEST DUP2 DUP2 ADD MLOAD DUP4 SSTORE PUSH1 0x20 SWAP5 DUP6 ADD SWAP5 PUSH1 0x1 SWAP1 SWAP4 ADD SWAP3 SWAP1 SWAP2 ADD SWAP1 PUSH2 0x2496 JUMP JUMPDEST PUSH2 0x2524 SWAP1 PUSH1 0x8 DUP8 ADD PUSH1 0x0 MSTORE PUSH1 0x20 PUSH1 0x0 KECCAK256 PUSH1 0x1F DUP6 ADD PUSH1 0x5 SHR DUP2 ADD SWAP2 PUSH1 0x20 DUP7 LT PUSH2 0x627 JUMPI PUSH1 0x1F ADD PUSH1 0x5 SHR ADD SWAP1 PUSH2 0x3C80 JUMP JUMPDEST DUP7 PUSH2 0x185E JUMP JUMPDEST SWAP2 SWAP1 PUSH1 0x7 DUP7 ADD PUSH1 0x0 MSTORE PUSH1 0x20 PUSH1 0x0 KECCAK256 SWAP1 PUSH1 0x0 SWAP4 JUMPDEST PUSH1 0x1F NOT DUP5 AND DUP6 LT PUSH2 0x2581 JUMPI PUSH1 0x1 SWAP5 POP DUP4 PUSH1 0x1F NOT DUP2 AND LT PUSH2 0x2568 JUMPI JUMPDEST POP POP POP DUP2 SHL ADD PUSH1 0x7 DUP5 ADD SSTORE PUSH2 0x1832 JUMP JUMPDEST ADD MLOAD PUSH1 0x0 NOT PUSH1 0xF8 DUP5 PUSH1 0x3 SHL AND SHR NOT AND SWAP1 SSTORE DUP7 DUP1 DUP1 PUSH2 0x2558 JUMP JUMPDEST DUP2 DUP2 ADD MLOAD DUP4 SSTORE PUSH1 0x20 SWAP5 DUP6 ADD SWAP5 PUSH1 0x1 SWAP1 SWAP4 ADD SWAP3 SWAP1 SWAP2 ADD SWAP1 PUSH2 0x253D JUMP JUMPDEST PUSH2 0x25CB SWAP1 PUSH1 0x7 DUP8 ADD PUSH1 0x0 MSTORE PUSH1 0x20 PUSH1 0x0 KECCAK256 PUSH1 0x1F DUP6 ADD PUSH1 0x5 SHR DUP2 ADD SWAP2 PUSH1 0x20 DUP7 LT PUSH2 0x627 JUMPI PUSH1 0x1F ADD PUSH1 0x5 SHR ADD SWAP1 PUSH2 0x3C80 JUMP JUMPDEST DUP7 PUSH2 0x17FB JUMP JUMPDEST PUSH1 0x6 DUP5 ADD PUSH1 0x0 MSTORE PUSH1 0x20 PUSH1 0x0 KECCAK256 SWAP1 PUSH1 0x0 JUMPDEST PUSH1 0x1F NOT DUP5 AND DUP2 LT PUSH2 0x2628 JUMPI POP PUSH1 0x1 SWAP4 SWAP5 SWAP6 SWAP7 DUP4 PUSH1 0x1F NOT DUP2 AND LT PUSH2 0x260F JUMPI JUMPDEST POP POP POP DUP2 SHL ADD PUSH1 0x6 DUP4 ADD SSTORE PUSH2 0x17CD JUMP JUMPDEST ADD MLOAD PUSH1 0x0 NOT PUSH1 0xF8 DUP5 PUSH1 0x3 SHL AND SHR NOT AND SWAP1 SSTORE DUP6 DUP1 DUP1 PUSH2 0x25FF JUMP JUMPDEST SWAP1 SWAP2 PUSH1 0x20 PUSH1 0x1 DUP2 SWAP3 DUP6 DUP12 ADD MLOAD DUP2 SSTORE ADD SWAP4 ADD SWAP2 ADD PUSH2 0x25E1 JUMP JUMPDEST PUSH2 0x266F SWAP1 PUSH1 0x6 DUP6 ADD PUSH1 0x0 MSTORE PUSH1 0x20 PUSH1 0x0 KECCAK256 PUSH1 0x1F DUP5 ADD PUSH1 0x5 SHR DUP2 ADD SWAP2 PUSH1 0x20 DUP6 LT PUSH2 0x627 JUMPI PUSH1 0x1F ADD PUSH1 0x5 SHR ADD SWAP1 PUSH2 0x3C80 JUMP JUMPDEST DUP6 PUSH2 0x1794 JUMP JUMPDEST SWAP1 PUSH1 0x5 DUP6 ADD PUSH1 0x0 MSTORE PUSH1 0x20 PUSH1 0x0 KECCAK256 SWAP2 PUSH1 0x0 JUMPDEST PUSH1 0x1F NOT DUP6 AND DUP2 LT PUSH2 0x26D0 JUMPI POP SWAP2 DUP4 SWAP2 PUSH1 0x1 SWAP4 PUSH1 0x40 SWAP7 SWAP6 PUSH1 0x1F NOT DUP2 AND LT PUSH2 0x26B7 JUMPI JUMPDEST POP POP POP DUP2 SHL ADD PUSH1 0x5 DUP5 ADD SSTORE PUSH2 0x176B JUMP JUMPDEST ADD MLOAD PUSH1 0x0 NOT PUSH1 0xF8 DUP5 PUSH1 0x3 SHL AND SHR NOT AND SWAP1 SSTORE DUP8 DUP1 DUP1 PUSH2 0x26A7 JUMP JUMPDEST SWAP2 SWAP3 PUSH1 0x20 PUSH1 0x1 DUP2 SWAP3 DUP7 DUP6 ADD MLOAD DUP2 SSTORE ADD SWAP5 ADD SWAP3 ADD PUSH2 0x2686 JUMP JUMPDEST PUSH2 0x2717 SWAP1 PUSH1 0x5 DUP7 ADD PUSH1 0x0 MSTORE PUSH1 0x20 PUSH1 0x0 KECCAK256 PUSH1 0x1F DUP6 ADD PUSH1 0x5 SHR DUP2 ADD SWAP2 PUSH1 0x20 DUP7 LT PUSH2 0x627 JUMPI PUSH1 0x1F ADD PUSH1 0x5 SHR ADD SWAP1 PUSH2 0x3C80 JUMP JUMPDEST DUP7 PUSH2 0x1730 JUMP JUMPDEST SWAP2 SWAP1 PUSH1 0x4 DUP6 ADD PUSH1 0x0 MSTORE PUSH1 0x20 PUSH1 0x0 KECCAK256 SWAP1 PUSH1 0x0 SWAP4 JUMPDEST PUSH1 0x1F NOT DUP5 AND DUP6 LT PUSH2 0x2774 JUMPI PUSH1 0x1 SWAP5 POP DUP4 PUSH1 0x1F NOT DUP2 AND LT PUSH2 0x275B JUMPI JUMPDEST POP POP POP DUP2 SHL ADD PUSH1 0x4 DUP4 ADD SSTORE PUSH2 0x1704 JUMP JUMPDEST ADD MLOAD PUSH1 0x0 NOT PUSH1 0xF8 DUP5 PUSH1 0x3 SHL AND SHR NOT AND SWAP1 SSTORE DUP7 DUP1 DUP1 PUSH2 0x274B JUMP JUMPDEST DUP2 DUP2 ADD MLOAD DUP4 SSTORE PUSH1 0x20 SWAP5 DUP6 ADD SWAP5 PUSH1 0x1 SWAP1 SWAP4 ADD SWAP3 SWAP1 SWAP2 ADD SWAP1 PUSH2 0x2730 JUMP JUMPDEST PUSH2 0x27BE SWAP1 PUSH1 0x4 DUP7 ADD PUSH1 0x0 MSTORE PUSH1 0x20 PUSH1 0x0 KECCAK256 PUSH1 0x1F DUP6 ADD PUSH1 0x5 SHR DUP2 ADD SWAP2 PUSH1 0x20 DUP7 LT PUSH2 0x627 JUMPI PUSH1 0x1F ADD PUSH1 0x5 SHR ADD SWAP1 PUSH2 0x3C80 JUMP JUMPDEST DUP7 PUSH2 0x16CD JUMP JUMPDEST PUSH1 0x3 DUP4 ADD PUSH1 0x0 MSTORE PUSH1 0x20 PUSH1 0x0 KECCAK256 SWAP1 PUSH1 0x0 JUMPDEST PUSH1 0x1F NOT DUP5 AND DUP2 LT PUSH2 0x281B JUMPI POP PUSH1 0x1 SWAP4 SWAP5 SWAP6 SWAP7 DUP4 PUSH1 0x1F NOT DUP2 AND LT PUSH2 0x2802 JUMPI JUMPDEST POP POP POP DUP2 SHL ADD PUSH1 0x3 DUP3 ADD SSTORE PUSH2 0x169F JUMP JUMPDEST ADD MLOAD PUSH1 0x0 NOT PUSH1 0xF8 DUP5 PUSH1 0x3 SHL AND SHR NOT AND SWAP1 SSTORE DUP6 DUP1 DUP1 PUSH2 0x27F2 JUMP JUMPDEST SWAP1 SWAP2 PUSH1 0x20 PUSH1 0x1 DUP2 SWAP3 DUP6 DUP12 ADD MLOAD DUP2 SSTORE ADD SWAP4 ADD SWAP2 ADD PUSH2 0x27D4 JUMP JUMPDEST PUSH2 0x2862 SWAP1 PUSH1 0x3 DUP5 ADD PUSH1 0x0 MSTORE PUSH1 0x20 PUSH1 0x0 KECCAK256 PUSH1 0x1F DUP5 ADD PUSH1 0x5 SHR DUP2 ADD SWAP2 PUSH1 0x20 DUP6 LT PUSH2 0x627 JUMPI PUSH1 0x1F ADD PUSH1 0x5 SHR ADD SWAP1 PUSH2 0x3C80 JUMP JUMPDEST DUP6 PUSH2 0x1666 JUMP JUMPDEST SWAP1 PUSH1 0x2 DUP8 ADD PUSH1 0x0 MSTORE PUSH1 0x20 PUSH1 0x0 KECCAK256 SWAP2 PUSH1 0x0 JUMPDEST PUSH1 0x1F NOT DUP6 AND DUP2 LT PUSH2 0x28C3 JUMPI POP SWAP2 DUP4 SWAP2 PUSH1 0x1 SWAP4 PUSH1 0x40 SWAP7 SWAP6 PUSH1 0x1F NOT DUP2 AND LT PUSH2 0x28AA JUMPI JUMPDEST POP POP POP DUP2 SHL ADD PUSH1 0x2 DUP7 ADD SSTORE PUSH2 0x163D JUMP JUMPDEST ADD MLOAD PUSH1 0x0 NOT PUSH1 0xF8 DUP5 PUSH1 0x3 SHL AND SHR NOT AND SWAP1 SSTORE DUP8 DUP1 DUP1 PUSH2 0x289A JUMP JUMPDEST SWAP2 SWAP3 PUSH1 0x20 PUSH1 0x1 DUP2 SWAP3 DUP7 DUP6 ADD MLOAD DUP2 SSTORE ADD SWAP5 ADD SWAP3 ADD PUSH2 0x2879 JUMP JUMPDEST PUSH2 0x290A SWAP1 PUSH1 0x2 DUP9 ADD PUSH1 0x0 MSTORE PUSH1 0x20 PUSH1 0x0 KECCAK256 PUSH1 0x1F DUP6 ADD PUSH1 0x5 SHR DUP2 ADD SWAP2 PUSH1 0x20 DUP7 LT PUSH2 0x627 JUMPI PUSH1 0x1F ADD PUSH1 0x5 SHR ADD SWAP1 PUSH2 0x3C80 JUMP JUMPDEST DUP7 PUSH2 0x1602 JUMP JUMPDEST SWAP2 SWAP1 PUSH1 0x1 DUP8 ADD PUSH1 0x0 MSTORE PUSH1 0x20 PUSH1 0x0 KECCAK256 SWAP1 PUSH1 0x0 SWAP4 JUMPDEST PUSH1 0x1F NOT DUP5 AND DUP6 LT PUSH2 0x2967 JUMPI PUSH1 0x1 SWAP5 POP DUP4 PUSH1 0x1F NOT DUP2 AND LT PUSH2 0x294E JUMPI JUMPDEST POP POP POP DUP2 SHL ADD PUSH1 0x1 DUP6 ADD SSTORE PUSH2 0x15D6 JUMP JUMPDEST ADD MLOAD PUSH1 0x0 NOT PUSH1 0xF8 DUP5 PUSH1 0x3 SHL AND SHR NOT AND SWAP1 SSTORE DUP7 DUP1 DUP1 PUSH2 0x293E JUMP JUMPDEST DUP2 DUP2 ADD MLOAD DUP4 SSTORE PUSH1 0x20 SWAP5 DUP6 ADD SWAP5 PUSH1 0x1 SWAP1 SWAP4 ADD SWAP3 SWAP1 SWAP2 ADD SWAP1 PUSH2 0x2923 JUMP JUMPDEST PUSH2 0x29B1 SWAP1 PUSH1 0x1 DUP9 ADD PUSH1 0x0 MSTORE PUSH1 0x20 PUSH1 0x0 KECCAK256 PUSH1 0x1F DUP6 ADD PUSH1 0x5 SHR DUP2 ADD SWAP2 PUSH1 0x20 DUP7 LT PUSH2 0x627 JUMPI PUSH1 0x1F ADD PUSH1 0x5 SHR ADD SWAP1 PUSH2 0x3C80 JUMP JUMPDEST DUP7 PUSH2 0x159F JUMP JUMPDEST PUSH1 0x40 MLOAD PUSH3 0x461BCD PUSH1 0xE5 SHL DUP2 MSTORE PUSH1 0x20 PUSH1 0x4 DUP3 ADD MSTORE PUSH1 0x2D PUSH1 0x24 DUP3 ADD MSTORE PUSH32 0x436F6E7472616374207769746820676976656E206964656E7469666965722061 PUSH1 0x44 DUP3 ADD MSTORE PUSH13 0x6C726561647920657869737473 PUSH1 0x98 SHL PUSH1 0x64 DUP3 ADD MSTORE PUSH1 0x84 SWAP1 REVERT JUMPDEST CALLVALUE PUSH2 0x162 JUMPI PUSH1 0x40 CALLDATASIZE PUSH1 0x3 NOT ADD SLT PUSH2 0x162 JUMPI PUSH2 0x2A2B PUSH2 0x3613 JUMP JUMPDEST PUSH1 0x24 CALLDATALOAD PUSH1 0x1 PUSH1 0x1 PUSH1 0x40 SHL SUB DUP2 GT PUSH2 0x162 JUMPI PUSH2 0x2A4D PUSH2 0x2B56 SWAP2 CALLDATASIZE SWAP1 PUSH1 0x4 ADD PUSH2 0x36B9 JUMP JUMPDEST SWAP2 PUSH1 0x0 PUSH2 0x1E0 PUSH1 0x40 MLOAD PUSH2 0x2A5F DUP2 PUSH2 0x3645 JUMP JUMPDEST DUP3 DUP2 MSTORE PUSH2 0x2A6A PUSH2 0x3CDB JUMP JUMPDEST PUSH1 0x20 DUP3 ADD MSTORE PUSH2 0x2A77 PUSH2 0x3CDB JUMP JUMPDEST PUSH1 0x40 DUP3 ADD MSTORE PUSH1 0x40 MLOAD PUSH2 0x2A88 DUP2 PUSH2 0x3661 JUMP JUMPDEST PUSH1 0x60 DUP2 MSTORE PUSH1 0x60 PUSH1 0x20 DUP3 ADD MSTORE DUP4 PUSH1 0x40 DUP3 ADD MSTORE DUP4 PUSH1 0x60 DUP3 ADD MSTORE DUP4 PUSH1 0x80 DUP3 ADD MSTORE DUP4 PUSH1 0xA0 DUP3 ADD MSTORE PUSH1 0x60 PUSH1 0xC0 DUP3 ADD MSTORE DUP4 PUSH1 0xE0 DUP3 ADD MSTORE DUP4 PUSH2 0x100 DUP3 ADD MSTORE DUP4 PUSH2 0x120 DUP3 ADD MSTORE DUP4 PUSH2 0x140 DUP3 ADD MSTORE PUSH1 0x60 DUP3 ADD MSTORE PUSH1 0x60 PUSH1 0x80 DUP3 ADD MSTORE PUSH1 0x60 PUSH1 0xA0 DUP3 ADD MSTORE PUSH1 0x60 PUSH1 0xC0 DUP3 ADD MSTORE PUSH1 0x60 PUSH1 0xE0 DUP3 ADD MSTORE PUSH1 0x60 PUSH2 0x100 DUP3 ADD MSTORE PUSH1 0x60 PUSH2 0x120 DUP3 ADD MSTORE PUSH1 0x60 PUSH2 0x140 DUP3 ADD MSTORE DUP3 PUSH2 0x160 DUP3 ADD MSTORE DUP3 PUSH2 0x180 DUP3 ADD MSTORE DUP3 PUSH2 0x1A0 DUP3 ADD MSTORE DUP3 PUSH2 0x1C0 DUP3 ADD MSTORE ADD MSTORE PUSH6 0xFFFFFFFFFFFF PUSH1 0xD0 SHL AND SWAP2 DUP3 PUSH1 0x0 MSTORE PUSH1 0x0 PUSH1 0x20 MSTORE PUSH1 0x18 PUSH1 0x40 PUSH1 0x0 KECCAK256 ADD PUSH1 0x40 MLOAD PUSH2 0x2E3 DUP2 PUSH2 0x2D5 PUSH1 0x20 DUP3 ADD DUP1 SWAP6 PUSH2 0x3BBB JUMP JUMPDEST PUSH1 0x0 MSTORE PUSH1 0x0 PUSH1 0x20 MSTORE PUSH2 0x220 PUSH1 0x20 PUSH1 0x40 PUSH1 0x0 KECCAK256 PUSH1 0x1A PUSH1 0x40 MLOAD SWAP2 PUSH2 0x2B77 DUP4 PUSH2 0x3645 JUMP JUMPDEST DUP1 SLOAD DUP4 MSTORE PUSH2 0x2B87 PUSH1 0x1 DUP3 ADD PUSH2 0x3A97 JUMP JUMPDEST DUP5 DUP5 ADD MSTORE PUSH2 0x2B97 PUSH1 0x4 DUP3 ADD PUSH2 0x3A97 JUMP JUMPDEST PUSH1 0x40 DUP5 ADD MSTORE PUSH2 0x2BA8 PUSH1 0x7 DUP3 ADD PUSH2 0x3ACF JUMP JUMPDEST PUSH1 0x60 DUP5 ADD MSTORE PUSH2 0x2BB9 PUSH1 0x12 DUP3 ADD PUSH2 0x39F2 JUMP JUMPDEST PUSH1 0x80 DUP5 ADD MSTORE PUSH2 0x2BCA PUSH1 0x13 DUP3 ADD PUSH2 0x3CFA JUMP JUMPDEST PUSH1 0xA0 DUP5 ADD MSTORE PUSH2 0x2BDB PUSH1 0x14 DUP3 ADD PUSH2 0x3CFA JUMP JUMPDEST PUSH1 0xC0 DUP5 ADD MSTORE PUSH2 0x2BEC PUSH1 0x15 DUP3 ADD PUSH2 0x3CFA JUMP JUMPDEST PUSH1 0xE0 DUP5 ADD MSTORE PUSH2 0x2BFD PUSH1 0x16 DUP3 ADD PUSH2 0x39F2 JUMP JUMPDEST PUSH2 0x100 DUP5 ADD MSTORE PUSH2 0x2C0F PUSH1 0x17 DUP3 ADD PUSH2 0x39F2 JUMP JUMPDEST PUSH2 0x120 DUP5 ADD MSTORE PUSH2 0x2C21 PUSH1 0x18 DUP3 ADD PUSH2 0x39F2 JUMP JUMPDEST PUSH2 0x140 DUP5 ADD MSTORE PUSH1 0xFF PUSH1 0x19 DUP3 ADD SLOAD PUSH1 0x1 DUP1 PUSH1 0xA0 SHL SUB DUP2 AND PUSH2 0x160 DUP7 ADD MSTORE DUP2 DUP2 PUSH1 0xA0 SHR AND ISZERO ISZERO PUSH2 0x180 DUP7 ADD MSTORE DUP2 DUP2 PUSH1 0xA8 SHR AND ISZERO ISZERO PUSH2 0x1A0 DUP7 ADD MSTORE PUSH1 0xB0 SHR AND ISZERO ISZERO PUSH2 0x1C0 DUP5 ADD MSTORE ADD SLOAD PUSH2 0x1E0 DUP3 ADD MSTORE PUSH2 0x1E0 PUSH2 0x2D7F PUSH2 0x2D67 PUSH2 0x2D4F PUSH2 0x2D37 PUSH2 0x2D20 PUSH2 0x2D0A PUSH2 0x2CF4 PUSH2 0x2CDE PUSH2 0x2CC8 PUSH2 0x2CB2 DUP12 PUSH1 0x40 MLOAD SWAP15 DUP16 SWAP15 DUP16 SWAP3 DUP2 DUP5 MSTORE DUP1 MLOAD DUP3 DUP6 ADD MSTORE ADD MLOAD SWAP2 PUSH2 0x200 PUSH1 0x40 DUP3 ADD MSTORE ADD SWAP1 PUSH2 0x3789 JUMP JUMPDEST PUSH1 0x40 DUP13 ADD MLOAD DUP14 DUP3 SUB PUSH1 0x1F NOT ADD PUSH1 0x60 DUP16 ADD MSTORE PUSH2 0x3789 JUMP JUMPDEST PUSH1 0x60 DUP12 ADD MLOAD DUP13 DUP3 SUB PUSH1 0x1F NOT ADD PUSH1 0x80 DUP15 ADD MSTORE PUSH2 0x37CB JUMP JUMPDEST PUSH1 0x80 DUP11 ADD MLOAD DUP12 DUP3 SUB PUSH1 0x1F NOT ADD PUSH1 0xA0 DUP14 ADD MSTORE PUSH2 0x3764 JUMP JUMPDEST PUSH1 0xA0 DUP10 ADD MLOAD DUP11 DUP3 SUB PUSH1 0x1F NOT ADD PUSH1 0xC0 DUP13 ADD MSTORE PUSH2 0x384E JUMP JUMPDEST PUSH1 0xC0 DUP9 ADD MLOAD DUP10 DUP3 SUB PUSH1 0x1F NOT ADD PUSH1 0xE0 DUP12 ADD MSTORE PUSH2 0x384E JUMP JUMPDEST PUSH1 0xE0 DUP8 ADD MLOAD DUP9 DUP3 SUB PUSH1 0x1F NOT ADD PUSH2 0x100 DUP11 ADD MSTORE PUSH2 0x384E JUMP JUMPDEST PUSH2 0x100 DUP7 ADD MLOAD DUP8 DUP3 SUB PUSH1 0x1F NOT ADD PUSH2 0x120 DUP10 ADD MSTORE PUSH2 0x3764 JUMP JUMPDEST PUSH2 0x120 DUP6 ADD MLOAD DUP7 DUP3 SUB PUSH1 0x1F NOT ADD PUSH2 0x140 DUP9 ADD MSTORE PUSH2 0x3764 JUMP JUMPDEST PUSH2 0x140 DUP5 ADD MLOAD DUP6 DUP3 SUB PUSH1 0x1F NOT ADD PUSH2 0x160 DUP8 ADD MSTORE PUSH2 0x3764 JUMP JUMPDEST SWAP2 PUSH1 0x1 DUP1 PUSH1 0xA0 SHL SUB PUSH2 0x160 DUP3 ADD MLOAD AND PUSH2 0x180 DUP6 ADD MSTORE PUSH2 0x180 DUP2 ADD MLOAD ISZERO ISZERO PUSH2 0x1A0 DUP6 ADD MSTORE PUSH2 0x1A0 DUP2 ADD MLOAD ISZERO ISZERO PUSH2 0x1C0 DUP6 ADD MSTORE PUSH2 0x1C0 DUP2 ADD MLOAD ISZERO ISZERO DUP3 DUP6 ADD MSTORE ADD MLOAD PUSH2 0x200 DUP4 ADD MSTORE SUB SWAP1 RETURN JUMPDEST CALLVALUE PUSH2 0x162 JUMPI PUSH1 0x20 DUP1 PUSH1 0x3 NOT CALLDATASIZE ADD SLT PUSH2 0x162 JUMPI PUSH1 0x1 PUSH1 0x1 PUSH1 0xD0 SHL SUB NOT PUSH2 0x2DEB PUSH2 0x3613 JUMP JUMPDEST AND PUSH1 0x0 MSTORE PUSH1 0x2 SWAP1 PUSH1 0x2 DUP2 MSTORE PUSH1 0x40 PUSH1 0x0 KECCAK256 SWAP2 DUP3 SLOAD PUSH2 0x2E07 DUP2 PUSH2 0x3922 JUMP JUMPDEST SWAP2 PUSH2 0x2E15 PUSH1 0x40 MLOAD SWAP4 DUP5 PUSH2 0x3698 JUMP JUMPDEST DUP2 DUP4 MSTORE PUSH1 0x0 SWAP5 DUP6 MSTORE DUP4 DUP6 KECCAK256 DUP5 DUP5 ADD SWAP6 SWAP2 DUP7 JUMPDEST DUP5 DUP5 LT PUSH2 0x2E89 JUMPI PUSH1 0x40 DUP1 MLOAD DUP9 DUP2 MSTORE DUP8 MLOAD DUP2 DUP11 ADD DUP2 SWAP1 MSTORE DUP11 SWAP3 DUP3 ADD SWAP1 DUP11 PUSH1 0x0 JUMPDEST DUP3 DUP2 LT PUSH2 0x2E53 JUMPI DUP5 DUP5 SUB DUP6 RETURN JUMPDEST DUP6 MLOAD DUP1 MLOAD DUP6 MSTORE DUP1 DUP4 ADD MLOAD DUP6 DUP5 ADD MSTORE PUSH1 0x40 DUP1 DUP3 ADD MLOAD ISZERO ISZERO SWAP1 DUP7 ADD MSTORE PUSH1 0x60 SWAP1 DUP2 ADD MLOAD SWAP1 DUP6 ADD MSTORE SWAP5 DUP2 ADD SWAP5 PUSH1 0x80 SWAP1 SWAP4 ADD SWAP3 PUSH1 0x1 ADD PUSH2 0x2E46 JUMP JUMPDEST PUSH1 0x4 DUP8 PUSH1 0x1 SWAP3 PUSH1 0x40 MLOAD PUSH2 0x2E9B DUP2 PUSH2 0x362A JUMP JUMPDEST DUP7 SLOAD DUP2 MSTORE DUP5 DUP8 ADD SLOAD DUP4 DUP3 ADD MSTORE PUSH1 0xFF DUP7 DUP9 ADD SLOAD AND ISZERO ISZERO PUSH1 0x40 DUP3 ADD MSTORE PUSH1 0x3 DUP8 ADD SLOAD PUSH1 0x60 DUP3 ADD MSTORE DUP2 MSTORE ADD SWAP4 ADD SWAP4 ADD SWAP3 SWAP2 PUSH2 0x2E27 JUMP JUMPDEST CALLVALUE PUSH2 0x162 JUMPI PUSH1 0x40 CALLDATASIZE PUSH1 0x3 NOT ADD SLT PUSH2 0x162 JUMPI PUSH2 0x2EE6 PUSH2 0x3613 JUMP JUMPDEST PUSH1 0x24 CALLDATALOAD SWAP1 PUSH6 0xFFFFFFFFFFFF PUSH1 0xD0 SHL AND PUSH1 0x0 MSTORE PUSH1 0x2 PUSH1 0x20 MSTORE PUSH1 0x40 PUSH1 0x0 KECCAK256 DUP1 SLOAD DUP3 LT ISZERO PUSH2 0x162 JUMPI PUSH1 0x80 SWAP2 PUSH2 0x2F17 SWAP2 PUSH2 0x370F JUMP JUMPDEST POP DUP1 SLOAD SWAP1 PUSH1 0x1 DUP2 ADD SLOAD SWAP1 PUSH1 0x3 PUSH1 0xFF PUSH1 0x2 DUP4 ADD SLOAD AND SWAP2 ADD SLOAD SWAP2 PUSH1 0x40 MLOAD SWAP4 DUP5 MSTORE PUSH1 0x20 DUP5 ADD MSTORE ISZERO ISZERO PUSH1 0x40 DUP4 ADD MSTORE PUSH1 0x60 DUP3 ADD MSTORE RETURN JUMPDEST CALLVALUE PUSH2 0x162 JUMPI PUSH1 0x40 CALLDATASIZE PUSH1 0x3 NOT ADD SLT PUSH2 0x162 JUMPI PUSH1 0x1 PUSH1 0x1 PUSH1 0xD0 SHL SUB NOT PUSH2 0x2F6A PUSH2 0x3613 JUMP JUMPDEST AND DUP1 PUSH1 0x0 MSTORE PUSH1 0x0 PUSH1 0x20 MSTORE PUSH2 0x2F8F PUSH1 0x1 DUP1 PUSH1 0xA0 SHL SUB PUSH1 0x19 PUSH1 0x40 PUSH1 0x0 KECCAK256 ADD SLOAD AND CALLER EQ PUSH2 0x3B5F JUMP JUMPDEST PUSH1 0x0 MSTORE PUSH1 0x2 PUSH1 0x20 MSTORE PUSH1 0x2 PUSH2 0x2FA9 PUSH1 0x24 CALLDATALOAD PUSH1 0x40 PUSH1 0x0 KECCAK256 PUSH2 0x370F JUMP JUMPDEST POP ADD DUP1 SLOAD PUSH2 0x2FB9 PUSH1 0xFF DUP3 AND PUSH2 0x3C97 JUMP JUMPDEST PUSH1 0xFF NOT AND SWAP1 SSTORE STOP JUMPDEST PUSH1 0xC0 CALLDATASIZE PUSH1 0x3 NOT ADD SLT PUSH2 0x162 JUMPI PUSH2 0x2FD5 PUSH2 0x3613 JUMP JUMPDEST PUSH1 0x24 SWAP1 PUSH1 0x1 PUSH1 0x1 PUSH1 0x40 SHL SUB SWAP1 DUP3 CALLDATALOAD DUP3 DUP2 GT PUSH2 0x162 JUMPI PUSH2 0x2FF8 SWAP1 CALLDATASIZE SWAP1 PUSH1 0x4 ADD PUSH2 0x36B9 JUMP JUMPDEST SWAP3 PUSH1 0x44 CALLDATALOAD DUP4 DUP2 GT PUSH2 0x162 JUMPI PUSH2 0x3011 SWAP1 CALLDATASIZE SWAP1 PUSH1 0x4 ADD PUSH2 0x36B9 JUMP JUMPDEST SWAP3 PUSH1 0x64 CALLDATALOAD DUP2 DUP2 GT PUSH2 0x162 JUMPI PUSH2 0x302A SWAP1 CALLDATASIZE SWAP1 PUSH1 0x4 ADD PUSH2 0x36B9 JUMP JUMPDEST SWAP4 PUSH1 0x84 CALLDATALOAD DUP3 DUP2 GT PUSH2 0x162 JUMPI PUSH2 0x3043 SWAP1 CALLDATASIZE SWAP1 PUSH1 0x4 ADD PUSH2 0x36B9 JUMP JUMPDEST SWAP4 PUSH1 0xA4 CALLDATALOAD DUP4 DUP2 GT PUSH2 0x162 JUMPI PUSH2 0x305C SWAP1 CALLDATASIZE SWAP1 PUSH1 0x4 ADD PUSH2 0x36B9 JUMP JUMPDEST SWAP1 PUSH6 0xFFFFFFFFFFFF PUSH1 0xD0 SHL AND SWAP7 DUP8 PUSH1 0x0 MSTORE PUSH1 0x20 SWAP7 PUSH1 0x0 DUP9 MSTORE PUSH2 0x308F PUSH1 0x1 DUP1 PUSH1 0xA0 SHL SUB PUSH1 0x19 PUSH1 0x40 PUSH1 0x0 KECCAK256 ADD SLOAD AND CALLER EQ PUSH2 0x3B5F JUMP JUMPDEST DUP9 PUSH1 0x0 MSTORE PUSH1 0x0 DUP9 MSTORE PUSH2 0x30E9 PUSH1 0x18 PUSH1 0x40 PUSH1 0x0 KECCAK256 ADD SWAP3 PUSH1 0x40 MLOAD SWAP4 DUP5 PUSH2 0x30B5 DUP13 DUP3 ADD DUP1 SWAP4 PUSH2 0x3BBB JUMP JUMPDEST SUB SWAP5 PUSH2 0x30C9 PUSH1 0x1F NOT SWAP7 DUP8 DUP2 ADD DUP4 MSTORE DUP3 PUSH2 0x3698 JUMP JUMPDEST MLOAD SWAP1 KECCAK256 SWAP1 PUSH1 0x40 MLOAD PUSH2 0x311 DUP13 DUP3 DUP2 PUSH2 0x304 DUP2 DUP4 ADD SWAP7 DUP8 DUP2 MLOAD SWAP4 DUP5 SWAP3 ADD PUSH2 0x3741 JUMP JUMPDEST DUP9 PUSH1 0x0 MSTORE PUSH1 0x0 DUP9 MSTORE PUSH1 0xF PUSH1 0x40 PUSH1 0x0 KECCAK256 ADD SLOAD CALLVALUE SUB PUSH2 0x35CF JUMPI DUP9 PUSH1 0x0 MSTORE PUSH1 0x0 DUP9 MSTORE PUSH1 0x40 PUSH1 0x0 KECCAK256 SWAP7 PUSH1 0x4 DUP9 ADD DUP6 MLOAD DUP8 DUP2 GT PUSH2 0x345C JUMPI PUSH2 0x3125 DUP3 SLOAD PUSH2 0x39B8 JUMP JUMPDEST SWAP7 PUSH1 0x1F SWAP8 DUP13 DUP10 DUP3 GT PUSH2 0x3596 JUMPI JUMPDEST POP POP DUP12 SWAP1 DUP9 DUP4 GT PUSH1 0x1 EQ PUSH2 0x352F JUMPI PUSH2 0x3162 SWAP3 SWAP2 PUSH1 0x0 SWAP2 DUP4 PUSH2 0x3471 JUMPI POP POP DUP2 PUSH1 0x1 SHL SWAP2 PUSH1 0x0 NOT SWAP1 PUSH1 0x3 SHL SHR NOT AND OR SWAP1 JUMP JUMPDEST SWAP1 SSTORE JUMPDEST PUSH1 0x5 SWAP2 DUP3 DUP10 ADD SWAP1 DUP1 MLOAD SWAP1 DUP9 DUP3 GT PUSH2 0x351A JUMPI PUSH2 0x3180 DUP4 SLOAD PUSH2 0x39B8 JUMP JUMPDEST DUP13 DUP10 DUP3 GT PUSH2 0x34E3 JUMPI JUMPDEST POP POP DUP12 SWAP1 DUP9 DUP4 GT PUSH1 0x1 EQ PUSH2 0x347C JUMPI PUSH2 0x31B9 SWAP3 SWAP2 PUSH1 0x0 SWAP2 DUP4 PUSH2 0x3471 JUMPI POP POP DUP2 PUSH1 0x1 SHL SWAP2 PUSH1 0x0 NOT SWAP1 PUSH1 0x3 SHL SHR NOT AND OR SWAP1 JUMP JUMPDEST SWAP1 SSTORE JUMPDEST DUP1 MLOAD PUSH1 0x6 DUP10 ADD SWAP2 DUP8 DUP3 GT PUSH2 0x345C JUMPI PUSH2 0x31D4 DUP4 SLOAD PUSH2 0x39B8 JUMP JUMPDEST DUP12 DUP9 DUP3 GT PUSH2 0x3425 JUMPI JUMPDEST POP POP DUP11 SWAP1 DUP8 DUP4 GT PUSH1 0x1 EQ PUSH2 0x33BE JUMPI PUSH2 0x320D SWAP3 SWAP2 PUSH1 0x0 SWAP2 DUP4 PUSH2 0x1F01 JUMPI POP POP DUP2 PUSH1 0x1 SHL SWAP2 PUSH1 0x0 NOT SWAP1 PUSH1 0x3 SHL SHR NOT AND OR SWAP1 JUMP JUMPDEST SWAP1 SSTORE JUMPDEST PUSH1 0x17 DUP8 ADD SWAP6 DUP4 MLOAD SWAP6 DUP7 GT PUSH2 0x33AA JUMPI POP PUSH2 0x3229 DUP7 SLOAD PUSH2 0x39B8 JUMP JUMPDEST DUP5 DUP2 GT PUSH2 0x3372 JUMPI JUMPDEST POP POP DUP7 SWAP3 DUP5 GT PUSH1 0x1 EQ PUSH2 0x32E8 JUMPI POP SWAP3 PUSH2 0x328A DUP4 PUSH1 0x19 SWAP5 PUSH1 0x40 SWAP8 SWAP5 PUSH32 0xEBBF6B2760B055C34E7D54BCCF7079CA90030B876FBF1D76C144A76D28123594 SWAP10 SWAP8 PUSH1 0x0 SWAP3 PUSH2 0x32DD JUMPI POP POP DUP2 PUSH1 0x1 SHL SWAP2 PUSH1 0x0 NOT SWAP1 PUSH1 0x3 SHL SHR NOT AND OR SWAP1 JUMP JUMPDEST SWAP1 SSTORE JUMPDEST ADD DUP1 SLOAD PUSH3 0xFF00FF PUSH1 0xA0 SHL NOT AND PUSH3 0x10001 PUSH1 0xA0 SHL OR SWAP1 SSTORE DUP2 MLOAD TIMESTAMP DUP2 MSTORE DUP5 SWAP1 PUSH32 0x85B74A154907154C273CAEB0BE924FEADB5271097E078BFD27EF84F1A75F05E8 SWAP1 DUP4 SWAP1 LOG2 DUP2 MLOAD SWAP1 CALLVALUE DUP3 MSTORE TIMESTAMP SWAP1 DUP3 ADD MSTORE LOG2 STOP JUMPDEST ADD MLOAD SWAP1 POP DUP11 DUP1 PUSH2 0x378 JUMP JUMPDEST PUSH1 0x0 DUP6 DUP2 MSTORE DUP8 DUP2 KECCAK256 SWAP4 SWAP3 SWAP2 DUP6 AND SWAP1 JUMPDEST DUP2 DUP2 LT PUSH2 0x335B JUMPI POP SWAP4 PUSH1 0x40 SWAP7 SWAP4 PUSH32 0xEBBF6B2760B055C34E7D54BCCF7079CA90030B876FBF1D76C144A76D28123594 SWAP9 SWAP7 SWAP4 PUSH1 0x1 SWAP4 DUP4 PUSH1 0x19 SWAP9 LT PUSH2 0x3342 JUMPI JUMPDEST POP POP POP DUP2 SHL ADD SWAP1 SSTORE PUSH2 0x328D JUMP JUMPDEST ADD MLOAD PUSH1 0x0 NOT PUSH1 0xF8 DUP5 PUSH1 0x3 SHL AND SHR NOT AND SWAP1 SSTORE DUP10 DUP1 DUP1 PUSH2 0x3335 JUMP JUMPDEST SWAP3 SWAP4 DUP9 PUSH1 0x1 DUP2 SWAP3 DUP8 DUP7 ADD MLOAD DUP2 SSTORE ADD SWAP6 ADD SWAP4 ADD PUSH2 0x32F7 JUMP JUMPDEST PUSH2 0x339A SWAP2 DUP8 PUSH1 0x0 MSTORE DUP10 PUSH1 0x0 KECCAK256 SWAP1 DUP7 DUP1 DUP10 ADD DUP3 SHR DUP4 ADD SWAP4 DUP13 DUP11 LT PUSH2 0x33A1 JUMPI JUMPDEST ADD SWAP1 SHR ADD SWAP1 PUSH2 0x3C80 JUMP JUMPDEST DUP9 DUP1 PUSH2 0x3231 JUMP JUMPDEST SWAP4 POP DUP3 SWAP4 PUSH2 0x3390 JUMP JUMPDEST PUSH4 0x4E487B71 PUSH1 0xE0 SHL PUSH1 0x0 SWAP1 DUP2 MSTORE PUSH1 0x41 PUSH1 0x4 MSTORE REVERT JUMPDEST SWAP1 DUP6 DUP4 AND SWAP2 DUP5 PUSH1 0x0 MSTORE DUP13 PUSH1 0x0 KECCAK256 SWAP3 DUP14 PUSH1 0x0 SWAP1 JUMPDEST DUP3 DUP3 LT PUSH2 0x340E JUMPI POP POP SWAP1 DUP5 PUSH1 0x1 SWAP6 SWAP5 SWAP4 SWAP3 LT PUSH2 0x33F5 JUMPI JUMPDEST POP POP POP DUP2 SHL ADD SWAP1 SSTORE PUSH2 0x3210 JUMP JUMPDEST ADD MLOAD PUSH1 0x0 NOT PUSH1 0xF8 DUP5 PUSH1 0x3 SHL AND SHR NOT AND SWAP1 SSTORE DUP13 DUP1 DUP1 PUSH2 0x33E8 JUMP JUMPDEST PUSH1 0x1 DUP6 SWAP7 DUP3 SWAP4 SWAP7 DUP7 ADD MLOAD DUP2 SSTORE ADD SWAP6 ADD SWAP4 ADD DUP15 PUSH2 0x33D1 JUMP JUMPDEST PUSH2 0x344C SWAP2 DUP6 PUSH1 0x0 MSTORE DUP10 DUP3 PUSH1 0x0 KECCAK256 SWAP2 DUP2 DUP8 ADD DUP10 SHR DUP4 ADD SWAP4 DUP8 LT PUSH2 0x3453 JUMPI JUMPDEST ADD DUP8 SHR ADD SWAP1 PUSH2 0x3C80 JUMP JUMPDEST DUP13 DUP12 PUSH2 0x31DD JUMP JUMPDEST SWAP3 POP DUP2 SWAP3 PUSH2 0x3442 JUMP JUMPDEST DUP9 PUSH4 0x4E487B71 PUSH1 0xE0 SHL PUSH1 0x0 MSTORE PUSH1 0x41 PUSH1 0x4 MSTORE PUSH1 0x0 REVERT JUMPDEST ADD MLOAD SWAP1 POP DUP15 DUP1 PUSH2 0x378 JUMP JUMPDEST SWAP1 DUP13 SWAP2 DUP8 DUP5 AND DUP6 PUSH1 0x0 MSTORE DUP4 PUSH1 0x0 KECCAK256 SWAP4 PUSH1 0x0 SWAP1 JUMPDEST DUP3 DUP3 LT PUSH2 0x34CC JUMPI POP POP SWAP1 DUP5 PUSH1 0x1 SWAP6 SWAP5 SWAP4 SWAP3 LT PUSH2 0x34B3 JUMPI JUMPDEST POP POP POP DUP2 SHL ADD SWAP1 SSTORE PUSH2 0x31BC JUMP JUMPDEST ADD MLOAD PUSH1 0x0 NOT PUSH1 0xF8 DUP5 PUSH1 0x3 SHL AND SHR NOT AND SWAP1 SSTORE DUP14 DUP1 DUP1 PUSH2 0x34A6 JUMP JUMPDEST PUSH1 0x1 DUP6 SWAP7 DUP3 SWAP4 SWAP7 DUP7 ADD MLOAD DUP2 SSTORE ADD SWAP6 ADD SWAP4 ADD DUP16 PUSH2 0x348F JUMP JUMPDEST PUSH2 0x350A SWAP2 DUP6 PUSH1 0x0 MSTORE DUP11 DUP3 PUSH1 0x0 KECCAK256 SWAP2 DUP2 DUP8 ADD DUP11 SHR DUP4 ADD SWAP4 DUP8 LT PUSH2 0x3511 JUMPI JUMPDEST ADD DUP9 SHR ADD SWAP1 PUSH2 0x3C80 JUMP JUMPDEST DUP14 DUP13 PUSH2 0x3189 JUMP JUMPDEST SWAP3 POP DUP2 SWAP3 PUSH2 0x3500 JUMP JUMPDEST DUP10 PUSH4 0x4E487B71 PUSH1 0xE0 SHL PUSH1 0x0 MSTORE PUSH1 0x41 PUSH1 0x4 MSTORE PUSH1 0x0 REVERT JUMPDEST SWAP1 DUP13 SWAP2 DUP8 DUP5 AND DUP6 PUSH1 0x0 MSTORE DUP4 PUSH1 0x0 KECCAK256 SWAP4 PUSH1 0x0 SWAP1 JUMPDEST DUP3 DUP3 LT PUSH2 0x357F JUMPI POP POP SWAP1 DUP5 PUSH1 0x1 SWAP6 SWAP5 SWAP4 SWAP3 LT PUSH2 0x3566 JUMPI JUMPDEST POP POP POP DUP2 SHL ADD SWAP1 SSTORE PUSH2 0x3165 JUMP JUMPDEST ADD MLOAD PUSH1 0x0 NOT PUSH1 0xF8 DUP5 PUSH1 0x3 SHL AND SHR NOT AND SWAP1 SSTORE DUP14 DUP1 DUP1 PUSH2 0x3559 JUMP JUMPDEST PUSH1 0x1 DUP6 SWAP7 DUP3 SWAP4 SWAP7 DUP7 ADD MLOAD DUP2 SSTORE ADD SWAP6 ADD SWAP4 ADD DUP16 PUSH2 0x3542 JUMP JUMPDEST PUSH2 0x35BF SWAP2 DUP6 PUSH1 0x0 MSTORE DUP11 DUP3 PUSH1 0x0 KECCAK256 SWAP2 DUP2 DUP8 ADD PUSH1 0x5 SHR DUP4 ADD SWAP4 DUP8 LT PUSH2 0x35C6 JUMPI JUMPDEST ADD PUSH1 0x5 SHR ADD SWAP1 PUSH2 0x3C80 JUMP JUMPDEST DUP14 DUP13 PUSH2 0x3132 JUMP JUMPDEST SWAP3 POP DUP2 SWAP3 PUSH2 0x35B4 JUMP JUMPDEST PUSH1 0x40 MLOAD PUSH3 0x461BCD PUSH1 0xE5 SHL DUP2 MSTORE PUSH1 0x4 DUP2 ADD DUP10 SWAP1 MSTORE PUSH1 0x18 DUP2 DUP9 ADD MSTORE PUSH32 0x496E636F7272656374206465706F73697420616D6F756E740000000000000000 PUSH1 0x44 DUP3 ADD MSTORE PUSH1 0x64 SWAP1 REVERT JUMPDEST PUSH1 0x4 CALLDATALOAD SWAP1 PUSH1 0x1 PUSH1 0x1 PUSH1 0xD0 SHL SUB NOT DUP3 AND DUP3 SUB PUSH2 0x162 JUMPI JUMP JUMPDEST PUSH1 0x80 DUP2 ADD SWAP1 DUP2 LT PUSH1 0x1 PUSH1 0x1 PUSH1 0x40 SHL SUB DUP3 GT OR PUSH2 0x631 JUMPI PUSH1 0x40 MSTORE JUMP JUMPDEST PUSH2 0x200 DUP2 ADD SWAP1 DUP2 LT PUSH1 0x1 PUSH1 0x1 PUSH1 0x40 SHL SUB DUP3 GT OR PUSH2 0x631 JUMPI PUSH1 0x40 MSTORE JUMP JUMPDEST PUSH2 0x160 DUP2 ADD SWAP1 DUP2 LT PUSH1 0x1 PUSH1 0x1 PUSH1 0x40 SHL SUB DUP3 GT OR PUSH2 0x631 JUMPI PUSH1 0x40 MSTORE JUMP JUMPDEST PUSH1 0x60 DUP2 ADD SWAP1 DUP2 LT PUSH1 0x1 PUSH1 0x1 PUSH1 0x40 SHL SUB DUP3 GT OR PUSH2 0x631 JUMPI PUSH1 0x40 MSTORE JUMP JUMPDEST SWAP1 PUSH1 0x1F DUP1 NOT SWAP2 ADD AND DUP2 ADD SWAP1 DUP2 LT PUSH1 0x1 PUSH1 0x1 PUSH1 0x40 SHL SUB DUP3 GT OR PUSH2 0x631 JUMPI PUSH1 0x40 MSTORE JUMP JUMPDEST DUP2 PUSH1 0x1F DUP3 ADD SLT ISZERO PUSH2 0x162 JUMPI DUP1 CALLDATALOAD SWAP1 PUSH1 0x1 PUSH1 0x1 PUSH1 0x40 SHL SUB DUP3 GT PUSH2 0x631 JUMPI PUSH1 0x40 MLOAD SWAP3 PUSH2 0x36ED PUSH1 0x1F DUP5 ADD PUSH1 0x1F NOT AND PUSH1 0x20 ADD DUP6 PUSH2 0x3698 JUMP JUMPDEST DUP3 DUP5 MSTORE PUSH1 0x20 DUP4 DUP4 ADD ADD GT PUSH2 0x162 JUMPI DUP2 PUSH1 0x0 SWAP3 PUSH1 0x20 DUP1 SWAP4 ADD DUP4 DUP7 ADD CALLDATACOPY DUP4 ADD ADD MSTORE SWAP1 JUMP JUMPDEST DUP1 SLOAD DUP3 LT ISZERO PUSH2 0x372B JUMPI PUSH1 0x0 MSTORE PUSH1 0x20 PUSH1 0x0 KECCAK256 SWAP1 PUSH1 0x2 SHL ADD SWAP1 PUSH1 0x0 SWAP1 JUMP JUMPDEST PUSH4 0x4E487B71 PUSH1 0xE0 SHL PUSH1 0x0 MSTORE PUSH1 0x32 PUSH1 0x4 MSTORE PUSH1 0x24 PUSH1 0x0 REVERT JUMPDEST PUSH1 0x0 JUMPDEST DUP4 DUP2 LT PUSH2 0x3754 JUMPI POP POP PUSH1 0x0 SWAP2 ADD MSTORE JUMP JUMPDEST DUP2 DUP2 ADD MLOAD DUP4 DUP3 ADD MSTORE PUSH1 0x20 ADD PUSH2 0x3744 JUMP JUMPDEST SWAP1 PUSH1 0x20 SWAP2 PUSH2 0x377D DUP2 MLOAD DUP1 SWAP3 DUP2 DUP6 MSTORE DUP6 DUP1 DUP7 ADD SWAP2 ADD PUSH2 0x3741 JUMP JUMPDEST PUSH1 0x1F ADD PUSH1 0x1F NOT AND ADD ADD SWAP1 JUMP JUMPDEST PUSH2 0x37C8 SWAP2 PUSH1 0x40 PUSH2 0x37B7 PUSH2 0x37A5 DUP5 MLOAD PUSH1 0x60 DUP6 MSTORE PUSH1 0x60 DUP6 ADD SWAP1 PUSH2 0x3764 JUMP JUMPDEST PUSH1 0x20 DUP6 ADD MLOAD DUP5 DUP3 SUB PUSH1 0x20 DUP7 ADD MSTORE PUSH2 0x3764 JUMP JUMPDEST SWAP3 ADD MLOAD SWAP1 PUSH1 0x40 DUP2 DUP5 SUB SWAP2 ADD MSTORE PUSH2 0x3764 JUMP JUMPDEST SWAP1 JUMP JUMPDEST SWAP1 PUSH2 0x3820 PUSH2 0x37E6 PUSH2 0x37A5 PUSH2 0x160 DUP6 MLOAD SWAP1 DUP1 DUP7 MSTORE DUP6 ADD SWAP1 PUSH2 0x3764 JUMP JUMPDEST PUSH1 0x40 DUP5 ADD MLOAD PUSH1 0x40 DUP5 ADD MSTORE PUSH1 0x60 DUP5 ADD MLOAD PUSH1 0x60 DUP5 ADD MSTORE PUSH1 0x80 DUP5 ADD MLOAD PUSH1 0x80 DUP5 ADD MSTORE PUSH1 0xA0 DUP5 ADD MLOAD PUSH1 0xA0 DUP5 ADD MSTORE PUSH1 0xC0 DUP5 ADD MLOAD DUP4 DUP3 SUB PUSH1 0xC0 DUP6 ADD MSTORE PUSH2 0x3764 JUMP JUMPDEST SWAP2 PUSH1 0xE0 DUP2 ADD MLOAD PUSH1 0xE0 DUP4 ADD MSTORE PUSH2 0x100 DUP1 DUP3 ADD MLOAD SWAP1 DUP4 ADD MSTORE PUSH2 0x120 DUP1 DUP3 ADD MLOAD SWAP1 DUP4 ADD MSTORE PUSH2 0x140 DUP1 SWAP2 ADD MLOAD SWAP2 ADD MSTORE SWAP1 JUMP JUMPDEST SWAP1 DUP1 DUP3 MLOAD SWAP1 DUP2 DUP2 MSTORE PUSH1 0x20 DUP1 SWAP2 ADD SWAP3 PUSH1 0x20 DUP1 DUP5 PUSH1 0x5 SHL DUP4 ADD ADD SWAP6 ADD SWAP4 PUSH1 0x0 SWAP2 JUMPDEST DUP5 DUP4 LT PUSH2 0x387D JUMPI POP POP POP POP POP POP SWAP1 JUMP JUMPDEST SWAP1 SWAP2 SWAP3 SWAP4 SWAP5 SWAP6 DUP5 DUP1 PUSH2 0x389B PUSH1 0x1 SWAP4 PUSH1 0x1F NOT DUP7 DUP3 SUB ADD DUP8 MSTORE DUP11 MLOAD PUSH2 0x3764 JUMP JUMPDEST SWAP9 ADD SWAP4 ADD SWAP4 ADD SWAP2 SWAP5 SWAP4 SWAP3 SWAP1 PUSH2 0x386D JUMP JUMPDEST SWAP2 SWAP1 PUSH1 0x60 DUP4 DUP3 SUB SLT PUSH2 0x162 JUMPI PUSH1 0x40 MLOAD SWAP1 PUSH2 0x38C4 DUP3 PUSH2 0x367D JUMP JUMPDEST DUP2 SWAP4 DUP1 CALLDATALOAD SWAP2 PUSH1 0x1 PUSH1 0x1 PUSH1 0x40 SHL SUB SWAP3 DUP4 DUP2 GT PUSH2 0x162 JUMPI DUP2 PUSH2 0x38E5 SWAP2 DUP5 ADD PUSH2 0x36B9 JUMP JUMPDEST DUP5 MSTORE PUSH1 0x20 DUP3 ADD CALLDATALOAD DUP4 DUP2 GT PUSH2 0x162 JUMPI DUP2 PUSH2 0x38FF SWAP2 DUP5 ADD PUSH2 0x36B9 JUMP JUMPDEST PUSH1 0x20 DUP6 ADD MSTORE PUSH1 0x40 DUP3 ADD CALLDATALOAD SWAP3 DUP4 GT PUSH2 0x162 JUMPI PUSH1 0x40 SWAP3 PUSH2 0x391D SWAP3 ADD PUSH2 0x36B9 JUMP JUMPDEST SWAP2 ADD MSTORE JUMP JUMPDEST PUSH1 0x1 PUSH1 0x1 PUSH1 0x40 SHL SUB DUP2 GT PUSH2 0x631 JUMPI PUSH1 0x5 SHL PUSH1 0x20 ADD SWAP1 JUMP JUMPDEST DUP2 PUSH1 0x1F DUP3 ADD SLT ISZERO PUSH2 0x162 JUMPI DUP1 CALLDATALOAD SWAP2 PUSH1 0x20 SWAP2 PUSH2 0x3953 DUP5 PUSH2 0x3922 JUMP JUMPDEST SWAP4 PUSH2 0x3961 PUSH1 0x40 MLOAD SWAP6 DUP7 PUSH2 0x3698 JUMP JUMPDEST DUP1 DUP6 MSTORE DUP4 DUP1 DUP7 ADD SWAP2 PUSH1 0x5 SHL DUP4 ADD ADD SWAP3 DUP1 DUP5 GT PUSH2 0x162 JUMPI DUP5 DUP4 ADD SWAP2 JUMPDEST DUP5 DUP4 LT PUSH2 0x398C JUMPI POP POP POP POP POP POP SWAP1 JUMP JUMPDEST DUP3 CALLDATALOAD PUSH1 0x1 PUSH1 0x1 PUSH1 0x40 SHL SUB DUP2 GT PUSH2 0x162 JUMPI DUP7 SWAP2 PUSH2 0x39AD DUP5 DUP5 DUP1 SWAP5 DUP10 ADD ADD PUSH2 0x36B9 JUMP JUMPDEST DUP2 MSTORE ADD SWAP3 ADD SWAP2 PUSH2 0x397C JUMP JUMPDEST SWAP1 PUSH1 0x1 DUP3 DUP2 SHR SWAP3 AND DUP1 ISZERO PUSH2 0x39E8 JUMPI JUMPDEST PUSH1 0x20 DUP4 LT EQ PUSH2 0x39D2 JUMPI JUMP JUMPDEST PUSH4 0x4E487B71 PUSH1 0xE0 SHL PUSH1 0x0 MSTORE PUSH1 0x22 PUSH1 0x4 MSTORE PUSH1 0x24 PUSH1 0x0 REVERT JUMPDEST SWAP2 PUSH1 0x7F AND SWAP2 PUSH2 0x39C7 JUMP JUMPDEST SWAP1 PUSH1 0x40 MLOAD SWAP2 DUP3 PUSH1 0x0 DUP3 SLOAD PUSH2 0x3A05 DUP2 PUSH2 0x39B8 JUMP JUMPDEST SWAP1 DUP2 DUP5 MSTORE PUSH1 0x20 SWAP5 PUSH1 0x1 SWAP2 PUSH1 0x1 DUP2 AND SWAP1 DUP2 PUSH1 0x0 EQ PUSH2 0x3A75 JUMPI POP PUSH1 0x1 EQ PUSH2 0x3A36 JUMPI JUMPDEST POP POP POP PUSH2 0x3A34 SWAP3 POP SUB DUP4 PUSH2 0x3698 JUMP JUMPDEST JUMP JUMPDEST PUSH1 0x0 SWAP1 DUP2 MSTORE DUP6 DUP2 KECCAK256 SWAP6 SWAP4 POP SWAP2 SWAP1 JUMPDEST DUP2 DUP4 LT PUSH2 0x3A5D JUMPI POP POP PUSH2 0x3A34 SWAP4 POP DUP3 ADD ADD CODESIZE DUP1 DUP1 PUSH2 0x3A25 JUMP JUMPDEST DUP6 SLOAD DUP9 DUP5 ADD DUP6 ADD MSTORE SWAP5 DUP6 ADD SWAP5 DUP8 SWAP5 POP SWAP2 DUP4 ADD SWAP2 PUSH2 0x3A44 JUMP JUMPDEST SWAP3 POP POP POP PUSH2 0x3A34 SWAP5 SWAP3 POP PUSH1 0xFF NOT AND DUP3 DUP5 ADD MSTORE ISZERO ISZERO PUSH1 0x5 SHL DUP3 ADD ADD CODESIZE DUP1 DUP1 PUSH2 0x3A25 JUMP JUMPDEST SWAP1 PUSH1 0x40 MLOAD PUSH2 0x3AA4 DUP2 PUSH2 0x367D JUMP JUMPDEST PUSH1 0x40 PUSH2 0x391D PUSH1 0x2 DUP4 SWAP6 PUSH2 0x3AB6 DUP2 PUSH2 0x39F2 JUMP JUMPDEST DUP6 MSTORE PUSH2 0x3AC4 PUSH1 0x1 DUP3 ADD PUSH2 0x39F2 JUMP JUMPDEST PUSH1 0x20 DUP7 ADD MSTORE ADD PUSH2 0x39F2 JUMP JUMPDEST SWAP1 PUSH1 0x40 MLOAD PUSH2 0x3ADC DUP2 PUSH2 0x3661 JUMP JUMPDEST PUSH2 0x140 PUSH1 0xA DUP3 SWAP5 PUSH2 0x3AEC DUP2 PUSH2 0x39F2 JUMP JUMPDEST DUP5 MSTORE PUSH2 0x3AFA PUSH1 0x1 DUP3 ADD PUSH2 0x39F2 JUMP JUMPDEST PUSH1 0x20 DUP6 ADD MSTORE PUSH1 0x2 DUP2 ADD SLOAD PUSH1 0x40 DUP6 ADD MSTORE PUSH1 0x3 DUP2 ADD SLOAD PUSH1 0x60 DUP6 ADD MSTORE PUSH1 0x4 DUP2 ADD SLOAD PUSH1 0x80 DUP6 ADD MSTORE PUSH1 0x5 DUP2 ADD SLOAD PUSH1 0xA0 DUP6 ADD MSTORE PUSH2 0x3B33 PUSH1 0x6 DUP3 ADD PUSH2 0x39F2 JUMP JUMPDEST PUSH1 0xC0 DUP6 ADD MSTORE PUSH1 0x7 DUP2 ADD SLOAD PUSH1 0xE0 DUP6 ADD MSTORE PUSH1 0x8 DUP2 ADD SLOAD PUSH2 0x100 DUP6 ADD MSTORE PUSH1 0x9 DUP2 ADD SLOAD PUSH2 0x120 DUP6 ADD MSTORE ADD SLOAD SWAP2 ADD MSTORE JUMP JUMPDEST ISZERO PUSH2 0x3B66 JUMPI JUMP JUMPDEST PUSH1 0x40 MLOAD PUSH3 0x461BCD PUSH1 0xE5 SHL DUP2 MSTORE PUSH1 0x20 PUSH1 0x4 DUP3 ADD MSTORE PUSH1 0x27 PUSH1 0x24 DUP3 ADD MSTORE PUSH32 0x4F6E6C79207468652074656E616E742063616E20706572666F726D2074686973 PUSH1 0x44 DUP3 ADD MSTORE PUSH7 0x1030B1BA34B7B7 PUSH1 0xC9 SHL PUSH1 0x64 DUP3 ADD MSTORE PUSH1 0x84 SWAP1 REVERT JUMPDEST PUSH1 0x0 SWAP3 SWAP2 DUP2 SLOAD PUSH2 0x3BCA DUP2 PUSH2 0x39B8 JUMP JUMPDEST SWAP3 PUSH1 0x1 SWAP2 DUP1 DUP4 AND SWAP1 DUP2 ISZERO PUSH2 0x3C24 JUMPI POP PUSH1 0x1 EQ PUSH2 0x3BE7 JUMPI JUMPDEST POP POP POP POP JUMP JUMPDEST SWAP1 SWAP2 SWAP3 SWAP4 SWAP5 POP PUSH1 0x0 MSTORE PUSH1 0x20 SWAP1 PUSH1 0x20 PUSH1 0x0 KECCAK256 SWAP1 PUSH1 0x0 SWAP2 JUMPDEST DUP6 DUP4 LT PUSH2 0x3C13 JUMPI POP POP POP POP ADD SWAP1 CODESIZE DUP1 DUP1 DUP1 PUSH2 0x3BE1 JUMP JUMPDEST DUP1 SLOAD DUP6 DUP5 ADD MSTORE SWAP2 DUP4 ADD SWAP2 DUP2 ADD PUSH2 0x3BFD JUMP JUMPDEST PUSH1 0xFF NOT AND DUP5 MSTORE POP POP POP DUP2 ISZERO ISZERO SWAP1 SWAP2 MUL ADD SWAP2 POP CODESIZE DUP1 DUP1 DUP1 PUSH2 0x3BE1 JUMP JUMPDEST ISZERO PUSH2 0x3C46 JUMPI JUMP JUMPDEST PUSH1 0x40 MLOAD PUSH3 0x461BCD PUSH1 0xE5 SHL DUP2 MSTORE PUSH1 0x20 PUSH1 0x4 DUP3 ADD MSTORE PUSH1 0x12 PUSH1 0x24 DUP3 ADD MSTORE PUSH18 0x125B98DBDC9C9958DD081C185CDCDDDBDC99 PUSH1 0x72 SHL PUSH1 0x44 DUP3 ADD MSTORE PUSH1 0x64 SWAP1 REVERT JUMPDEST DUP2 DUP2 LT PUSH2 0x3C8B JUMPI POP POP JUMP JUMPDEST PUSH1 0x0 DUP2 SSTORE PUSH1 0x1 ADD PUSH2 0x3C80 JUMP JUMPDEST ISZERO PUSH2 0x3C9E JUMPI JUMP JUMPDEST PUSH1 0x40 MLOAD PUSH3 0x461BCD PUSH1 0xE5 SHL DUP2 MSTORE PUSH1 0x20 PUSH1 0x4 DUP3 ADD MSTORE PUSH1 0x15 PUSH1 0x24 DUP3 ADD MSTORE PUSH21 0x52657175657374206973206E6F7420616374697665 PUSH1 0x58 SHL PUSH1 0x44 DUP3 ADD MSTORE PUSH1 0x64 SWAP1 REVERT JUMPDEST PUSH1 0x40 MLOAD SWAP1 PUSH2 0x3CE8 DUP3 PUSH2 0x367D JUMP JUMPDEST PUSH1 0x60 PUSH1 0x40 DUP4 DUP3 DUP2 MSTORE DUP3 PUSH1 0x20 DUP3 ADD MSTORE ADD MSTORE JUMP JUMPDEST SWAP1 DUP2 SLOAD PUSH2 0x3D06 DUP2 PUSH2 0x3922 JUMP JUMPDEST SWAP3 PUSH2 0x3D14 PUSH1 0x40 MLOAD SWAP5 DUP6 PUSH2 0x3698 JUMP JUMPDEST DUP2 DUP5 MSTORE PUSH1 0x0 SWAP1 DUP2 MSTORE PUSH1 0x20 DUP1 DUP3 KECCAK256 DUP2 DUP7 ADD JUMPDEST DUP5 DUP5 LT PUSH2 0x3D33 JUMPI POP POP POP POP POP JUMP JUMPDEST PUSH1 0x1 DUP4 DUP2 SWAP3 PUSH2 0x3D41 DUP6 PUSH2 0x39F2 JUMP JUMPDEST DUP2 MSTORE ADD SWAP3 ADD SWAP4 ADD SWAP3 SWAP1 PUSH2 0x3D25 JUMP JUMPDEST ISZERO PUSH2 0x3D56 JUMPI JUMP JUMPDEST PUSH1 0x40 MLOAD PUSH3 0x461BCD PUSH1 0xE5 SHL DUP2 MSTORE PUSH1 0x20 PUSH1 0x4 DUP3 ADD MSTORE PUSH1 0x25 PUSH1 0x24 DUP3 ADD MSTORE PUSH32 0x4F6E6C79206C616E646C6F72642063616E20706572666F726D20746869732061 PUSH1 0x44 DUP3 ADD MSTORE PUSH5 0x31BA34B7B7 PUSH1 0xD9 SHL PUSH1 0x64 DUP3 ADD MSTORE PUSH1 0x84 SWAP1 REVERT JUMPDEST ISZERO PUSH2 0x3DB0 JUMPI JUMP JUMPDEST PUSH1 0x40 MLOAD PUSH3 0x461BCD PUSH1 0xE5 SHL DUP2 MSTORE PUSH1 0x20 PUSH1 0x4 DUP3 ADD MSTORE PUSH1 0x18 PUSH1 0x24 DUP3 ADD MSTORE PUSH32 0x4465706F73697420616C72656164792072656C65617365640000000000000000 PUSH1 0x44 DUP3 ADD MSTORE PUSH1 0x64 SWAP1 REVERT JUMPDEST ISZERO PUSH2 0x3DFC JUMPI JUMP JUMPDEST PUSH1 0x40 MLOAD PUSH3 0x461BCD PUSH1 0xE5 SHL DUP2 MSTORE PUSH1 0x20 PUSH1 0x4 DUP3 ADD MSTORE PUSH1 0x13 PUSH1 0x24 DUP3 ADD MSTORE PUSH19 0x436F6E7472616374206E6F7420616374697665 PUSH1 0x68 SHL PUSH1 0x44 DUP3 ADD MSTORE PUSH1 0x64 SWAP1 REVERT JUMPDEST ISZERO PUSH2 0x3E3E JUMPI JUMP JUMPDEST PUSH1 0x40 MLOAD PUSH3 0x461BCD PUSH1 0xE5 SHL DUP2 MSTORE PUSH1 0x20 PUSH1 0x4 DUP3 ADD MSTORE PUSH1 0x28 PUSH1 0x24 DUP3 ADD MSTORE PUSH32 0x52657175657374656420616D6F756E742065786365656473206465706F736974 PUSH1 0x44 DUP3 ADD MSTORE PUSH8 0x2062616C616E6365 PUSH1 0xC0 SHL PUSH1 0x64 DUP3 ADD MSTORE PUSH1 0x84 SWAP1 REVERT INVALID LOG2 PUSH5 0x6970667358 0x22 SLT KECCAK256 RETURN 0xDC COINBASE 0xEA CALLDATASIZE 0xE0 BLOBHASH DUP9 0xBD 0xAF RETURNDATASIZE 0xB0 ADD MUL BLOBBASEFEE PUSH11 0x1FA3266A03A54C1E91952D BLOBBASEFEE LT ISZERO ADDMOD DUP3 PUSH5 0x736F6C6343 STOP ADDMOD XOR STOP CALLER "},"methodIdentifiers":{"approveDepositRelease(bytes6,uint256)":"ca52c3c2","contractOwners(bytes6)":"cc8e3dde","contracts(bytes6)":"9cfa058b","createContract(bytes6,(string,string,string),(string,string,string),(string,string,uint256,uint256,uint256,uint256,string,uint256,uint256,int256,int256),string,string[],string[],string[],string,string,string)":"9aa5543e","depositReleaseRequests(bytes6,uint256)":"306c7a63","endContract(bytes6)":"fa34d5aa","getContract(bytes6,string)":"792855e4","getDepositBalance(bytes6)":"d557e702","getDepositReleaseRequests(bytes6)":"5039a08c","refundDeposit(bytes6)":"f437a24d","rejectDepositRelease(bytes6,uint256)":"29c2dc4e","requestDepositRelease(bytes6,uint256,uint256)":"b1e7fd7b","signContract(bytes6,string,string,string,string,string)":"157e21f7","updateContract(bytes6,string,string,string[],string[],string[],string,string,address,uint256,uint256)":"f78f38b4"}}}}}