{"contracts/ReentrancyAttack.sol":{"ReentrancyAttack":{"abi":[{"inputs":[{"internalType":"address","name":"_rentalContract","type":"address"}],"stateMutability":"nonpayable","type":"constructor"},{"inputs":[{"internalType":"bytes6","name":"contractId","type":"bytes6"}],"name":"attack","outputs":[],"stateMutability":"payable","type":"function"},{"inputs":[],"name":"rentalContract","outputs":[{"internalType":"contract HouseRentalContract","name":"","type":"address"}],"stateMutability":"view","type":"function"},{"stateMutability":"payable","type":"receive"}],"evm":{"bytecode":{"linkReferences":{},"object":"60803461007457601f61036d38819003918201601f19168301916001600160401b038311848410176100795780849260209460405283398101031261007457516001600160a01b0381169081900361007457600080546001600160a01b0319169190911790556040516102dd90816100908239f35b600080fd5b634e487b7160e01b600052604160045260246000fdfe6080806040526004361015610157575b50361561001b57600080fd5b6000546001600160a01b0316803134111561003257005b803b156101525760405163157e21f760e01b81526541424331323360d01b600482015260c06024820152600b60c48201526a70617373776f726431323360a81b60e4820152610100604482015260086101048201526720ba3a30b1b5b2b960c11b61012482015290600090829081806101296003196100ff6100d561014485015b858103840160648701526005815264393939393960d81b602082015260400190565b84810383016084860152600d81526c0c4c8cc8105d1d1858dac814dd609a1b602082015260400190565b908382030160a4840152604090600c81526b20ba3a30b1b5b2b929b4b3b760a11b60208201520190565b039134905af180156101465761013b57005b6101449061027d565b005b6040513d6000823e3d90fd5b600080fd5b600090813560e01c908163a2efe7b91461019f575063e8f4e9d40361000f573461019c578060031936011261019c57546040516001600160a01b039091168152602090f35b80fd5b9050816003196020368201126102795760043565ffffffffffff60d01b81168091036102755782546001600160a01b031690813b156102715763157e21f760e01b8552600485015260c06024850152600b60c48501526a70617373776f726431323360a81b60e485015261010480830160448601526008908501526720ba3a30b1b5b2b960c11b610124850152839182908190610246906100ff6100d561014485016100b3565b039134905af180156102665761025a575080f35b6102639061027d565b80f35b6040513d84823e3d90fd5b8380fd5b8280fd5b5080fd5b67ffffffffffffffff811161029157604052565b634e487b7160e01b600052604160045260246000fdfea2646970667358221220a422d424cec005ff6cbf9bfa79ff96f852de5cbfbde2b415c99f4fbe4017d0f364736f6c63430008180033","opcodes":"PUSH1 0x80 CALLVALUE PUSH2 0x74 JUMPI PUSH1 0x1F PUSH2 0x36D CODESIZE DUP2 SWAP1 SUB SWAP2 DUP3 ADD PUSH1 0x1F NOT AND DUP4 ADD SWAP2 PUSH1 0x1 PUSH1 0x1 PUSH1 0x40 SHL SUB DUP4 GT DUP5 DUP5 LT OR PUSH2 0x79 JUMPI DUP1 DUP5 SWAP3 PUSH1 0x20 SWAP5 PUSH1 0x40 MSTORE DUP4 CODECOPY DUP2 ADD SUB SLT PUSH2 0x74 JUMPI MLOAD PUSH1 0x1 PUSH1 0x1 PUSH1 0xA0 SHL SUB DUP2 AND SWAP1 DUP2 SWAP1 SUB PUSH2 0x74 JUMPI PUSH1 0x0 DUP1 SLOAD PUSH1 0x1 PUSH1 0x1 PUSH1 0xA0 SHL SUB NOT AND SWAP2 SWAP1 SWAP2 OR SWAP1 SSTORE PUSH1 0x40 MLOAD PUSH2 0x2DD SWAP1 DUP2 PUSH2 0x90 DUP3 CODECOPY RETURN JUMPDEST PUSH1 0x0 DUP1 REVERT JUMPDEST PUSH4 0x4E487B71 PUSH1 0xE0 SHL PUSH1 0x0 MSTORE PUSH1 0x41 PUSH1 0x4 MSTORE PUSH1 0x24 PUSH1 0x0 REVERT INVALID PUSH1 0x80 DUP1 PUSH1 0x40 MSTORE PUSH1 0x4 CALLDATASIZE LT ISZERO PUSH2 0x157 JUMPI JUMPDEST POP CALLDATASIZE ISZERO PUSH2 0x1B JUMPI PUSH1 0x0 DUP1 REVERT JUMPDEST PUSH1 0x0 SLOAD PUSH1 0x1 PUSH1 0x1 PUSH1 0xA0 SHL SUB AND DUP1 BALANCE CALLVALUE GT ISZERO PUSH2 0x32 JUMPI STOP JUMPDEST DUP1 EXTCODESIZE ISZERO PUSH2 0x152 JUMPI PUSH1 0x40 MLOAD PUSH4 0x157E21F7 PUSH1 0xE0 SHL DUP2 MSTORE PUSH6 0x414243313233 PUSH1 0xD0 SHL PUSH1 0x4 DUP3 ADD MSTORE PUSH1 0xC0 PUSH1 0x24 DUP3 ADD MSTORE PUSH1 0xB PUSH1 0xC4 DUP3 ADD MSTORE PUSH11 0x70617373776F7264313233 PUSH1 0xA8 SHL PUSH1 0xE4 DUP3 ADD MSTORE PUSH2 0x100 PUSH1 0x44 DUP3 ADD MSTORE PUSH1 0x8 PUSH2 0x104 DUP3 ADD MSTORE PUSH8 0x20BA3A30B1B5B2B9 PUSH1 0xC1 SHL PUSH2 0x124 DUP3 ADD MSTORE SWAP1 PUSH1 0x0 SWAP1 DUP3 SWAP1 DUP2 DUP1 PUSH2 0x129 PUSH1 0x3 NOT PUSH2 0xFF PUSH2 0xD5 PUSH2 0x144 DUP6 ADD JUMPDEST DUP6 DUP2 SUB DUP5 ADD PUSH1 0x64 DUP8 ADD MSTORE PUSH1 0x5 DUP2 MSTORE PUSH5 0x3939393939 PUSH1 0xD8 SHL PUSH1 0x20 DUP3 ADD MSTORE PUSH1 0x40 ADD SWAP1 JUMP JUMPDEST DUP5 DUP2 SUB DUP4 ADD PUSH1 0x84 DUP7 ADD MSTORE PUSH1 0xD DUP2 MSTORE PUSH13 0xC4C8CC8105D1D1858DAC814DD PUSH1 0x9A SHL PUSH1 0x20 DUP3 ADD MSTORE PUSH1 0x40 ADD SWAP1 JUMP JUMPDEST SWAP1 DUP4 DUP3 SUB ADD PUSH1 0xA4 DUP5 ADD MSTORE PUSH1 0x40 SWAP1 PUSH1 0xC DUP2 MSTORE PUSH12 0x20BA3A30B1B5B2B929B4B3B7 PUSH1 0xA1 SHL PUSH1 0x20 DUP3 ADD MSTORE ADD SWAP1 JUMP JUMPDEST SUB SWAP2 CALLVALUE SWAP1 GAS CALL DUP1 ISZERO PUSH2 0x146 JUMPI PUSH2 0x13B JUMPI STOP JUMPDEST PUSH2 0x144 SWAP1 PUSH2 0x27D JUMP JUMPDEST STOP JUMPDEST PUSH1 0x40 MLOAD RETURNDATASIZE PUSH1 0x0 DUP3 RETURNDATACOPY RETURNDATASIZE SWAP1 REVERT JUMPDEST PUSH1 0x0 DUP1 REVERT JUMPDEST PUSH1 0x0 SWAP1 DUP2 CALLDATALOAD PUSH1 0xE0 SHR SWAP1 DUP2 PUSH4 0xA2EFE7B9 EQ PUSH2 0x19F JUMPI POP PUSH4 0xE8F4E9D4 SUB PUSH2 0xF JUMPI CALLVALUE PUSH2 0x19C JUMPI DUP1 PUSH1 0x3 NOT CALLDATASIZE ADD SLT PUSH2 0x19C JUMPI SLOAD PUSH1 0x40 MLOAD PUSH1 0x1 PUSH1 0x1 PUSH1 0xA0 SHL SUB SWAP1 SWAP2 AND DUP2 MSTORE PUSH1 0x20 SWAP1 RETURN JUMPDEST DUP1 REVERT JUMPDEST SWAP1 POP DUP2 PUSH1 0x3 NOT PUSH1 0x20 CALLDATASIZE DUP3 ADD SLT PUSH2 0x279 JUMPI PUSH1 0x4 CALLDATALOAD PUSH6 0xFFFFFFFFFFFF PUSH1 0xD0 SHL DUP2 AND DUP1 SWAP2 SUB PUSH2 0x275 JUMPI DUP3 SLOAD PUSH1 0x1 PUSH1 0x1 PUSH1 0xA0 SHL SUB AND SWAP1 DUP2 EXTCODESIZE ISZERO PUSH2 0x271 JUMPI PUSH4 0x157E21F7 PUSH1 0xE0 SHL DUP6 MSTORE PUSH1 0x4 DUP6 ADD MSTORE PUSH1 0xC0 PUSH1 0x24 DUP6 ADD MSTORE PUSH1 0xB PUSH1 0xC4 DUP6 ADD MSTORE PUSH11 0x70617373776F7264313233 PUSH1 0xA8 SHL PUSH1 0xE4 DUP6 ADD MSTORE PUSH2 0x104 DUP1 DUP4 ADD PUSH1 0x44 DUP7 ADD MSTORE PUSH1 0x8 SWAP1 DUP6 ADD MSTORE PUSH8 0x20BA3A30B1B5B2B9 PUSH1 0xC1 SHL PUSH2 0x124 DUP6 ADD MSTORE DUP4 SWAP2 DUP3 SWAP1 DUP2 SWAP1 PUSH2 0x246 SWAP1 PUSH2 0xFF PUSH2 0xD5 PUSH2 0x144 DUP6 ADD PUSH2 0xB3 JUMP JUMPDEST SUB SWAP2 CALLVALUE SWAP1 GAS CALL DUP1 ISZERO PUSH2 0x266 JUMPI PUSH2 0x25A JUMPI POP DUP1 RETURN JUMPDEST PUSH2 0x263 SWAP1 PUSH2 0x27D JUMP JUMPDEST DUP1 RETURN JUMPDEST PUSH1 0x40 MLOAD RETURNDATASIZE DUP5 DUP3 RETURNDATACOPY RETURNDATASIZE SWAP1 REVERT JUMPDEST DUP4 DUP1 REVERT JUMPDEST DUP3 DUP1 REVERT JUMPDEST POP DUP1 REVERT JUMPDEST PUSH8 0xFFFFFFFFFFFFFFFF DUP2 GT PUSH2 0x291 JUMPI PUSH1 0x40 MSTORE JUMP JUMPDEST PUSH4 0x4E487B71 PUSH1 0xE0 SHL PUSH1 0x0 MSTORE PUSH1 0x41 PUSH1 0x4 MSTORE PUSH1 0x24 PUSH1 0x0 REVERT INVALID LOG2 PUSH5 0x6970667358 0x22 SLT KECCAK256 LOG4 0x22 0xD4 0x24 0xCE 0xC0 SDIV SELFDESTRUCT PUSH13 0xBF9BFA79FF96F852DE5CBFBDE2 0xB4 ISZERO 0xC9 SWAP16 0x4F 0xBE BLOCKHASH OR 0xD0 RETURN PUSH5 0x736F6C6343 STOP ADDMOD XOR STOP CALLER "},"methodIdentifiers":{"attack(bytes6)":"a2efe7b9","rentalContract()":"e8f4e9d4"}}}}}