{"contracts/UpdatedRentalContract.sol":{"HouseRentalContract":{"abi":[{"anonymous":false,"inputs":[{"indexed":true,"internalType":"bytes6","name":"contractId","type":"bytes6"},{"indexed":true,"internalType":"address","name":"owner","type":"address"},{"indexed":false,"internalType":"uint256","name":"timestamp","type":"uint256"}],"name":"ContractCreated","type":"event"},{"anonymous":false,"inputs":[{"indexed":true,"internalType":"bytes6","name":"contractId","type":"bytes6"},{"indexed":false,"internalType":"uint256","name":"timestamp","type":"uint256"}],"name":"ContractEnded","type":"event"},{"anonymous":false,"inputs":[{"indexed":true,"internalType":"bytes6","name":"contractId","type":"bytes6"},{"indexed":false,"internalType":"uint256","name":"timestamp","type":"uint256"}],"name":"ContractSigned","type":"event"},{"anonymous":false,"inputs":[{"indexed":true,"internalType":"bytes6","name":"contractId","type":"bytes6"},{"indexed":false,"internalType":"uint256","name":"timestamp","type":"uint256"}],"name":"ContractUpdated","type":"event"},{"anonymous":false,"inputs":[{"indexed":true,"internalType":"bytes6","name":"contractId","type":"bytes6"},{"indexed":false,"internalType":"uint256","name":"amount","type":"uint256"},{"indexed":false,"internalType":"uint256","name":"timestamp","type":"uint256"}],"name":"DepositPaid","type":"event"},{"anonymous":false,"inputs":[{"indexed":true,"internalType":"bytes6","name":"contractId","type":"bytes6"},{"indexed":false,"internalType":"uint256","name":"amount","type":"uint256"},{"indexed":false,"internalType":"uint256","name":"timestamp","type":"uint256"}],"name":"DepositReleaseRequested","type":"event"},{"anonymous":false,"inputs":[{"indexed":true,"internalType":"bytes6","name":"contractId","type":"bytes6"},{"indexed":false,"internalType":"uint256","name":"amount","type":"uint256"},{"indexed":false,"internalType":"uint256","name":"timestamp","type":"uint256"}],"name":"DepositReleased","type":"event"},{"inputs":[{"internalType":"bytes6","name":"contractId","type":"bytes6"},{"internalType":"uint256","name":"requestIndex","type":"uint256"}],"name":"approveDepositRelease","outputs":[],"stateMutability":"nonpayable","type":"function"},{"inputs":[{"internalType":"bytes6","name":"","type":"bytes6"}],"name":"contractOwners","outputs":[{"internalType":"address","name":"","type":"address"}],"stateMutability":"view","type":"function"},{"inputs":[{"internalType":"bytes6","name":"","type":"bytes6"}],"name":"contracts","outputs":[{"internalType":"uint256","name":"creationDate","type":"uint256"},{"components":[{"internalType":"string","name":"name","type":"string"},{"internalType":"string","name":"identificationNumber","type":"string"},{"internalType":"string","name":"house_address","type":"string"}],"internalType":"struct HouseRentalContract.PersonalInfo","name":"landlord","type":"tuple"},{"components":[{"internalType":"string","name":"name","type":"string"},{"internalType":"string","name":"identificationNumber","type":"string"},{"internalType":"string","name":"house_address","type":"string"}],"internalType":"struct HouseRentalContract.PersonalInfo","name":"tenant","type":"tuple"},{"components":[{"internalType":"string","name":"rent_address","type":"string"},{"internalType":"string","name":"buildingType","type":"string"},{"internalType":"uint256","name":"rentPeriod","type":"uint256"},{"internalType":"uint256","name":"effectiveStartDate","type":"uint256"},{"internalType":"uint256","name":"effectiveEndDate","type":"uint256"},{"internalType":"uint256","name":"monthlyRent","type":"uint256"},{"internalType":"string","name":"paymentMethod","type":"string"},{"internalType":"uint256","name":"maxOverduePeriod","type":"uint256"},{"internalType":"uint256","name":"deposit","type":"uint256"},{"internalType":"int256","name":"latitude","type":"int256"},{"internalType":"int256","name":"longitude","type":"int256"}],"internalType":"struct HouseRentalContract.HouseDetails","name":"houseDetails","type":"tuple"},{"internalType":"string","name":"agreementDetails","type":"string"},{"internalType":"string","name":"landlordSignature","type":"string"},{"internalType":"string","name":"tenantSignature","type":"string"},{"internalType":"string","name":"password","type":"string"},{"internalType":"address","name":"tenantAddress","type":"address"},{"internalType":"bool","name":"depositPaid","type":"bool"},{"internalType":"bool","name":"depositReleased","type":"bool"},{"internalType":"bool","name":"contractActive","type":"bool"},{"internalType":"uint256","name":"remainingDeposit","type":"uint256"}],"stateMutability":"view","type":"function"},{"inputs":[{"internalType":"bytes6","name":"_uniqueIdentifier","type":"bytes6"},{"components":[{"internalType":"string","name":"name","type":"string"},{"internalType":"string","name":"identificationNumber","type":"string"},{"internalType":"string","name":"house_address","type":"string"}],"internalType":"struct HouseRentalContract.PersonalInfo","name":"_landlord","type":"tuple"},{"components":[{"internalType":"string","name":"name","type":"string"},{"internalType":"string","name":"identificationNumber","type":"string"},{"internalType":"string","name":"house_address","type":"string"}],"internalType":"struct HouseRentalContract.PersonalInfo","name":"_tenant","type":"tuple"},{"components":[{"internalType":"string","name":"rent_address","type":"string"},{"internalType":"string","name":"buildingType","type":"string"},{"internalType":"uint256","name":"rentPeriod","type":"uint256"},{"internalType":"uint256","name":"effectiveStartDate","type":"uint256"},{"internalType":"uint256","name":"effectiveEndDate","type":"uint256"},{"internalType":"uint256","name":"monthlyRent","type":"uint256"},{"internalType":"string","name":"paymentMethod","type":"string"},{"internalType":"uint256","name":"maxOverduePeriod","type":"uint256"},{"internalType":"uint256","name":"deposit","type":"uint256"},{"internalType":"int256","name":"latitude","type":"int256"},{"internalType":"int256","name":"longitude","type":"int256"}],"internalType":"struct HouseRentalContract.HouseDetails","name":"_houseDetails","type":"tuple"},{"internalType":"string","name":"_agreementDetails","type":"string"},{"internalType":"string[]","name":"_tenantAgreements","type":"string[]"},{"internalType":"string[]","name":"_landlordResponsibilities","type":"string[]"},{"internalType":"string[]","name":"_agreementsBetweenLandlord","type":"string[]"},{"internalType":"string","name":"_landlordSignature","type":"string"},{"internalType":"string","name":"_tenantSignature","type":"string"},{"internalType":"string","name":"_password","type":"string"}],"name":"createContract","outputs":[],"stateMutability":"nonpayable","type":"function"},{"inputs":[{"internalType":"bytes6","name":"","type":"bytes6"},{"internalType":"uint256","name":"","type":"uint256"}],"name":"depositReleaseRequests","outputs":[{"internalType":"uint256","name":"amount","type":"uint256"},{"internalType":"uint256","name":"timestamp","type":"uint256"},{"internalType":"bool","name":"active","type":"bool"}],"stateMutability":"view","type":"function"},{"inputs":[{"internalType":"bytes6","name":"contractId","type":"bytes6"}],"name":"endContract","outputs":[],"stateMutability":"nonpayable","type":"function"},{"inputs":[{"internalType":"bytes6","name":"contractId","type":"bytes6"},{"internalType":"string","name":"_password","type":"string"}],"name":"getContract","outputs":[{"components":[{"internalType":"uint256","name":"creationDate","type":"uint256"},{"components":[{"internalType":"string","name":"name","type":"string"},{"internalType":"string","name":"identificationNumber","type":"string"},{"internalType":"string","name":"house_address","type":"string"}],"internalType":"struct HouseRentalContract.PersonalInfo","name":"landlord","type":"tuple"},{"components":[{"internalType":"string","name":"name","type":"string"},{"internalType":"string","name":"identificationNumber","type":"string"},{"internalType":"string","name":"house_address","type":"string"}],"internalType":"struct HouseRentalContract.PersonalInfo","name":"tenant","type":"tuple"},{"components":[{"internalType":"string","name":"rent_address","type":"string"},{"internalType":"string","name":"buildingType","type":"string"},{"internalType":"uint256","name":"rentPeriod","type":"uint256"},{"internalType":"uint256","name":"effectiveStartDate","type":"uint256"},{"internalType":"uint256","name":"effectiveEndDate","type":"uint256"},{"internalType":"uint256","name":"monthlyRent","type":"uint256"},{"internalType":"string","name":"paymentMethod","type":"string"},{"internalType":"uint256","name":"maxOverduePeriod","type":"uint256"},{"internalType":"uint256","name":"deposit","type":"uint256"},{"internalType":"int256","name":"latitude","type":"int256"},{"internalType":"int256","name":"longitude","type":"int256"}],"internalType":"struct HouseRentalContract.HouseDetails","name":"houseDetails","type":"tuple"},{"internalType":"string","name":"agreementDetails","type":"string"},{"internalType":"string[]","name":"tenantAgreements","type":"string[]"},{"internalType":"string[]","name":"landlordResponsibilities","type":"string[]"},{"internalType":"string[]","name":"agreementsBetweenLandlord","type":"string[]"},{"internalType":"string","name":"landlordSignature","type":"string"},{"internalType":"string","name":"tenantSignature","type":"string"},{"internalType":"string","name":"password","type":"string"},{"internalType":"address","name":"tenantAddress","type":"address"},{"internalType":"bool","name":"depositPaid","type":"bool"},{"internalType":"bool","name":"depositReleased","type":"bool"},{"internalType":"bool","name":"contractActive","type":"bool"},{"internalType":"uint256","name":"remainingDeposit","type":"uint256"}],"internalType":"struct HouseRentalContract.ContractTerms","name":"","type":"tuple"}],"stateMutability":"view","type":"function"},{"inputs":[{"internalType":"bytes6","name":"contractId","type":"bytes6"}],"name":"getDepositBalance","outputs":[{"internalType":"uint256","name":"","type":"uint256"}],"stateMutability":"view","type":"function"},{"inputs":[{"internalType":"bytes6","name":"contractId","type":"bytes6"}],"name":"getDepositReleaseRequests","outputs":[{"components":[{"internalType":"uint256","name":"amount","type":"uint256"},{"internalType":"uint256","name":"timestamp","type":"uint256"},{"internalType":"bool","name":"active","type":"bool"}],"internalType":"struct HouseRentalContract.DepositReleaseRequest[]","name":"","type":"tuple[]"}],"stateMutability":"view","type":"function"},{"inputs":[{"internalType":"bytes6","name":"contractId","type":"bytes6"}],"name":"refundDeposit","outputs":[],"stateMutability":"nonpayable","type":"function"},{"inputs":[{"internalType":"bytes6","name":"contractId","type":"bytes6"},{"internalType":"uint256","name":"requestIndex","type":"uint256"}],"name":"rejectDepositRelease","outputs":[],"stateMutability":"nonpayable","type":"function"},{"inputs":[{"internalType":"bytes6","name":"contractId","type":"bytes6"},{"internalType":"uint256","name":"amount","type":"uint256"}],"name":"requestDepositRelease","outputs":[],"stateMutability":"nonpayable","type":"function"},{"inputs":[{"internalType":"bytes6","name":"contractId","type":"bytes6"},{"internalType":"string","name":"_password","type":"string"},{"internalType":"string","name":"_name","type":"string"},{"internalType":"string","name":"_identificationNumber","type":"string"},{"internalType":"string","name":"_houseAddress","type":"string"},{"internalType":"string","name":"_tenantSignature","type":"string"}],"name":"signContract","outputs":[],"stateMutability":"payable","type":"function"},{"inputs":[{"internalType":"bytes6","name":"contractId","type":"bytes6"},{"internalType":"string","name":"_password","type":"string"},{"internalType":"string","name":"_agreementDetails","type":"string"},{"internalType":"string[]","name":"_tenantAgreements","type":"string[]"},{"internalType":"string[]","name":"_landlordResponsibilities","type":"string[]"},{"internalType":"string[]","name":"_agreementsBetweenLandlord","type":"string[]"},{"internalType":"string","name":"_landlordSignature","type":"string"},{"internalType":"string","name":"_tenantSignature","type":"string"},{"internalType":"address","name":"_tenantAddress","type":"address"},{"internalType":"uint256","name":"_effectiveStartDate","type":"uint256"},{"internalType":"uint256","name":"_effectiveEndDate","type":"uint256"}],"name":"updateContract","outputs":[],"stateMutability":"nonpayable","type":"function"}],"evm":{"bytecode":{"linkReferences":{},"object":"6080806040523461001657613e7a908161001c8239f35b600080fdfe6080604052600436101561001257600080fd5b60003560e01c8063157e21f714612f8c57806329c2dc4e14612f13578063306c7a6314612ea35780635039a08c14612db2578063792855e4146129fc5780639aa5543e1461126d5780639cfa058b1461110d578063a310443314610f5a578063ca52c3c214610e08578063cc8e3dde14610dc5578063d557e70214610d87578063f437a24d14610c59578063f78f38b4146101675763fa34d5aa146100b657600080fd5b34610162576020366003190112610162576001600160d01b03196100d86135de565b168060005260016020526100fa60018060a01b03604060002054163314613cff565b80600052600060205261011a60ff60196040600020015460b01c16613da5565b806000526000602052601960406000200160ff60b01b1981541690557f47933618ed5daf6ec135a2d05b0586259833ca21b20043c6e4c525cb0502c0dc6020604051428152a2005b600080fd5b3461016257610160366003190112610162576101816135de565b6024356001600160401b038111610162576101a0903690600401613669565b6044356001600160401b038111610162576101bf903690600401613669565b906064356001600160401b038111610162576101df9036906004016138e9565b6084356001600160401b038111610162576101fe9036906004016138e9565b60a4356001600160401b0381116101625761021d9036906004016138e9565b60c4356001600160401b0381116101625761023c903690600401613669565b9160e4356001600160401b0381116101625761025c903690600401613669565b61010435959094906001600160a01b03871687036101625761031a9065ffffffffffff60d01b8a1660005260016020526102a460018060a01b03604060002054163314613cff565b65ffffffffffff60d01b8a16600052600060205260186040600020016040516102e3816102d5602082018095613b6b565b03601f198101835282613648565b519020906040516103116020828161030481830196878151938492016136f1565b8101038084520182613648565b51902014613bef565b65ffffffffffff60d01b881660005260006020526040600020968051906001600160401b0382116106315761035260128a0154613968565b601f8111610c24575b50602090601f8311600114610bb25761038d929160009183610ba7575b50508160011b916000199060031b1c19161790565b60128801555b805190600160401b82116106315760138801548260138a0155808310610b2f575b5060200190601388016000526020600020916000905b828210610a1f5750505050805190600160401b82116106315760148701548260148901558083106109a7575b5060200190601487016000526020600020916000905b82821061088c5750505050805190600160401b8211610631576015860154826015880155808310610814575b5060200190601586016000526020600020916000905b8282106106ee57505050508051906001600160401b038211610631576104776016860154613968565b601f81116106b9575b50602090601f8311600114610647576104b19291600091836105815750508160011b916000199060031b1c19161790565b60168401555b805160178401916001600160401b038211610631576104d68354613968565b601f81116105f4575b50602090601f831160011461058c576105109291600091836105815750508160011b916000199060031b1c19161790565b90555b601982019060018060a01b03166bffffffffffffffffffffffff60a01b82541617905561012435600a820155600b610144359101557f0cc49eaa5a4e01877eb9ef0128739d175fbccda52502904818ec03ac3d23d12f60206040519242845265ffffffffffff60d01b1692a2005b015190508780610378565b90601f198316918460005260206000209260005b8181106105dc57509084600195949392106105c3575b505050811b019055610513565b015160001960f88460031b161c191690558680806105b6565b929360206001819287860151815501950193016105a0565b61062190846000526020600020601f850160051c81019160208610610627575b601f0160051c0190613c30565b866104df565b9091508190610614565b634e487b7160e01b600052604160045260246000fd5b9190601686016000526020600020906000935b601f198416851061069e576001945083601f19811610610685575b505050811b0160168401556104b7565b015160001960f88460031b161c19169055868080610675565b8181015183556020948501946001909301929091019061065a565b6106e890601687016000526020600020601f850160051c8101916020861061062757601f0160051c0190613c30565b86610480565b80518051906001600160401b0382116106315761070b8654613968565b601f81116107d7575b50602090601f8311600114610767579261074d8360019594602094879660009261075c5750508160011b916000199060031b1c19161790565b87555b0194019101909261044e565b015190508f80610378565b908660005260206000209160005b601f19851681106107bf575083602093600196938796938794601f198116106107a6575b505050811b018755610750565b015160001960f88460031b161c191690558e8080610799565b91926020600181928685015181550194019201610775565b610804908760005260206000206005601f8601811c8201926020871061080a575b601f01901c0190613c30565b8b610714565b91925082916107f8565b601587016000526020600020908382015b8183018110610835575050610438565b8061084260019254613968565b8061084f575b5001610825565b601f811183146108655750600081555b8b610848565b600090828252610883601f60208420920160051c8201858301613c30565b8183555561085f565b80518051906001600160401b038211610631576108a98654613968565b601f8111610975575b50602090601f831160011461090557926108eb836001959460209487966000926108fa5750508160011b916000199060031b1c19161790565b87555b0194019101909261040c565b015190503880610378565b908660005260206000209160005b601f198516811061095d575083602093600196938796938794601f19811610610944575b505050811b0187556108ee565b015160001960f88460031b161c191690558f8080610937565b91926020600181928685015181550194019201610913565b6109a1908760005260206000206005601f8601811c8201926020871061080a57601f01901c0190613c30565b8c6108b2565b601488016000526020600020908382015b81830181106109c85750506103f6565b806109d560019254613968565b806109e2575b50016109b8565b601f811183146109f85750600081555b8c6109db565b600090828252610a16601f60208420920160051c8201858301613c30565b818355556109f2565b80518051906001600160401b03821161063157610a3c8654613968565b601f8111610afd575b50602090601f8311600114610a8d5792610a7e836001959460209487966000926108fa5750508160011b916000199060031b1c19161790565b87555b019401910190926103ca565b908660005260206000209160005b601f1985168110610ae5575083602093600196938796938794601f19811610610acc575b505050811b018755610a81565b015160001960f88460031b161c19169055388080610abf565b91926020600181928685015181550194019201610a9b565b610b29908760005260206000206005601f8601811c8201926020871061080a57601f01901c0190613c30565b8d610a45565b601389016000526020600020908382015b8183018110610b505750506103b4565b80610b5d60019254613968565b80610b6a575b5001610b40565b601f81118314610b805750600081555b8d610b63565b600090828252610b9e601f60208420920160051c8201858301613c30565b81835555610b7a565b015190508b80610378565b919060128a016000526020600020906000935b601f1984168510610c09576001945083601f19811610610bf0575b505050811b016012880155610393565b015160001960f88460031b161c191690558a8080610be0565b81810151835560209485019460019093019290910190610bc5565b610c539060128b016000526020600020601f850160051c8101916020861061062757601f0160051c0190613c30565b8a61035b565b34610162576020366003190112610162576001600160d01b0319610c7b6135de565b1680600052600160205260018060a01b03610c9e81604060002054163314613cff565b8160005260006020526040600020600b8101544210610d49576000808083601982950190601a825491610cd760ff8460a81c1615613d59565b015461ffff60a01b198216600160a81b17909255909586918391908315610d3f575b1690f115610d335760407f398abc1c2b2e46ec68f879c3ac11be927ede743d80d52d9968cba00343bf074f918151908152426020820152a2005b6040513d6000823e3d90fd5b6108fc9250610cf9565b60405162461bcd60e51b815260206004820152601660248201527510dbdb9d1c9858dd081b9bdd08195b991959081e595d60521b6044820152606490fd5b34610162576020366003190112610162576001600160d01b0319610da96135de565b1660005260006020526020601a60406000200154604051908152f35b34610162576020366003190112610162576001600160d01b0319610de76135de565b166000526001602052602060018060a01b0360406000205416604051908152f35b34610162576040366003190112610162576001600160d01b0319610e2a6135de565b1680600052602060008152610e5060018060a01b03601960406000200154163314613b0f565b8160005260028152610e6860243560406000206136bf565b5060028101610e7a60ff825416613c47565b81548460005260008452610e98601a60406000200154821115613de7565b8460005260008452601a6040600020018054918203918211610f44575560ff19815416905560008080808454818115610f3b575b3390f115610d33577f398abc1c2b2e46ec68f879c3ac11be927ede743d80d52d9968cba00343bf074f91604091846000526000825282600020601a81015415610f20575b50549082519182524290820152a2005b601901805461ffff60a81b1916600160a81b17905585610f10565b506108fc610ecc565b634e487b7160e01b600052601160045260246000fd5b3461016257604036600319011261016257610f736135de565b6001600160d01b03191660008181526001602090815260409091205460243590610fa7906001600160a01b03163314613cff565b826000526000825260ff60196040600020015460a01c16156110d5578260005260008252610fe360ff60196040600020015460a81c1615613d59565b826000526000825261100260ff60196040600020015460b01c16613da5565b826000526000825261101e601a60406000200154821115613de7565b826000526002825260406000209060405192611039846135f5565b818452808401924284526040850190600182528054600160401b81101561063157611069916001820181556136bf565b9590956110bf577f953fe04a94ff7ce86dc3b4bdddcb01910b42e877955ad5013702d3b195e59fc895604095600292518255516001820155019051151560ff8019835416911617905582519182524290820152a2005b634e487b7160e01b600052600060045260246000fd5b60405162461bcd60e51b815260048101839052601060248201526f11195c1bdcda5d081b9bdd081c185a5960821b6044820152606490fd5b34610162576020366003190112610162576001600160d01b031961112f6135de565b166000526000602052604060002080546001820161114c90613a47565b9161115960048201613a47565b61116560078301613a7f565b611171601284016139a2565b61117d601685016139a2565b611189601786016139a2565b91611196601887016139a2565b93601987015496601a015495604051998a996101a0908b528060208c01528a016111bf91613739565b89810360408b01526111d091613739565b88810360608a01526111e19161377b565b87810360808901526111f291613714565b86810360a088015261120391613714565b85810360c087015261121491613714565b84810360e086015261122591613714565b91600160a01b6001900381166101008501528060a01c60ff1615156101208501528060a81c60ff16151561014085015260b01c60ff1615156101608401526101808301520390f35b346101625760031961016036820112610162576112886135de565b906024356001600160401b038111610162576112a890369060040161385b565b906044356001600160401b038111610162576112c890369060040161385b565b90606435906001600160401b0382116101625761016090823603011261016257604051906112f58261362c565b80600401356001600160401b038111610162576113189060043691840101613669565b825260248101356001600160401b0381116101625761133d9060043691840101613669565b602083015260448101356040830152606481013560608301526084810135608083015260a481013560a083015260c4810135906001600160401b038211610162576113916101449260043691840101613669565b60c084015260e481013560e084015261010481013561010084015261012481013561012084015201356101408201526084356001600160401b038111610162576113df903690600401613669565b60a4356001600160401b038111610162576113fe9036906004016138e9565b60c4356001600160401b0381116101625761141d9036906004016138e9565b6001600160401b0360e435116101625761143c3660e4356004016138e9565b906001600160401b0361010435116101625761145e3661010435600401613669565b926001600160401b036101243511610162576114803661012435600401613669565b94610144356001600160401b038111610162576114a1903690600401613669565b6001600160d01b03198b166000908152600160205260409020549097906001600160a01b03166129a157610100810151986040519a6114df8c613610565b428c5260208c015260408b015260608a0152608089015260a088015260c087015260e08601526101008501526101208401526101408301526000610160830152600061018083015260006101a083015260006101c08301526101e082015265ffffffffffff60d01b8216600052600060205260406000209181518355602082015180518051906001600160401b038211610631576115806001870154613968565b601f811161296c575b50602090601f83116001146128fa576115ba9291600091836105815750508160011b916000199060031b1c19161790565b60018501555b60208101518051906001600160401b038211610631576115e36002870154613968565b601f81116128c5575b50602090601f83116001146128525791806116219260409594600092611c745750508160011b916000199060031b1c19161790565b60028601555b01519283516001600160401b038111610631576116476003830154613968565b601f811161281d575b506020601f82116001146127ae57819061168393949596600092611d2a5750508160011b916000199060031b1c19161790565b60038201555b604083015180518051906001600160401b038211610631576116ae6004850154613968565b601f8111612779575b50602090601f8311600114612707576116e89291600091836105815750508160011b916000199060031b1c19161790565b60048301555b60208101518051906001600160401b038211610631576117116005850154613968565b601f81116126d2575b50602090601f831160011461265f57918061174f9260409594600092611c745750508160011b916000199060031b1c19161790565b60058401555b01519283516001600160401b038111610631576117756006840154613968565b601f811161262a575b506020601f82116001146125bb5781906117b193949596600092611d2a5750508160011b916000199060031b1c19161790565b60068301555b606081015180518051906001600160401b038211610631576117dc6007860154613968565b601f8111612586575b50602090601f8311600114612514576118169291600091836105815750508160011b916000199060031b1c19161790565b60078401555b60208101518051906001600160401b0382116106315761183f6008860154613968565b601f81116124df575b50602090601f831160011461246d576118799291600091836105815750508160011b916000199060031b1c19161790565b60088401555b604081015160098401556060810151600a8401556080810151600b84015560a0810151600c84015560c08101518051906001600160401b038211610631576118ca600d860154613968565b601f8111612438575b50602090601f83116001146123c4579180611909926101409594600092611c745750508160011b916000199060031b1c19161790565b600d8501555b60e0810151600e850155610100810151600f85015561012081015160108501550151601183015560808101519283516001600160401b038111610631576119596012850154613968565b601f811161238f575b506020601f821160011461232057819061199593949596600092611d2a5750508160011b916000199060031b1c19161790565b60128401555b60a0820151805190600160401b82116106315760138501548260138701558083106122a8575b5060200190601385016000526020600020916000905b828210612198575050505060c0820151805190600160401b8211610631576014850154826014870155808310612120575b5060200190601485016000526020600020916000905b828210612010575050505060e0820151805190600160401b8211610631576015850154826015870155808310611f98575b5060200190601585016000526020600020916000905b828210611e7d57505050506101008201519283516001600160401b03811161063157611a946016830154613968565b601f8111611e48575b506020601f8211600114611dd9578190611ad093949596600092611d2a5750508160011b916000199060031b1c19161790565b60168201555b6101208301519283516001600160401b03811161063157611afa6017840154613968565b601f8111611da4575b506020601f8211600114611d35578190611b3693949596600092611d2a5750508160011b916000199060031b1c19161790565b60178301555b6101408101518051906001600160401b03821161063157611b606018850154613968565b601f8111611cf5575b50602090601f8311600114611c7f57826101e093601a9593611ba193600092611c745750508160011b916000199060031b1c19161790565b60188501555b6019840160018060a01b036101608301511681549060ff60a01b610180850151151560a01b1660ff60a81b6101a0860151151560a81b169160ff60b01b6101c0870151151560b01b169368ffffffffffffffffff60b81b16171717179055015191015565ffffffffffff60d01b811660005260016020526040600020336bffffffffffffffffffffffff60a01b8254161790556040514281527fb33818a9e5a811c9aab3a6a5be602cba781d631797144964a715ff66e01d54b16020339365ffffffffffff60d01b1692a3005b015190508880610378565b906018850160005260206000209160005b601f1985168110611cdd575092601a94926001926101e09583601f19811610611cc4575b505050811b016018850155611ba7565b015160001960f88460031b161c19169055878080611cb4565b91926020600181928685015181550194019201611c90565b611d2490601886016000526020600020601f850160051c8101916020861061062757601f0160051c0190613c30565b85611b69565b015190508680610378565b6017840160005260206000209060005b601f1984168110611d8c575060019394959683601f19811610611d73575b505050811b016017830155611b3c565b015160001960f88460031b161c19169055858080611d63565b9091602060018192858b015181550193019101611d45565b611dd390601785016000526020600020601f840160051c8101916020851061062757601f0160051c0190613c30565b85611b03565b6016830160005260206000209060005b601f1984168110611e30575060019394959683601f19811610611e17575b505050811b016016820155611ad6565b015160001960f88460031b161c19169055858080611e07565b9091602060018192858b015181550193019101611de9565b611e7790601684016000526020600020601f840160051c8101916020851061062757601f0160051c0190613c30565b85611a9d565b80518051906001600160401b03821161063157611e9a8654613968565b601f8111611f66575b50602090601f8311600114611ef65792611edc83600195946020948796600092611eeb5750508160011b916000199060031b1c19161790565b87555b01940191019092611a65565b015190508d80610378565b908660005260206000209160005b601f1985168110611f4e575083602093600196938796938794601f19811610611f35575b505050811b018755611edf565b015160001960f88460031b161c191690558c8080611f28565b91926020600181928685015181550194019201611f04565b611f9290876000526020600020601f850160051c8101916020861061062757601f0160051c0190613c30565b89611ea3565b601586016000526020600020908382015b8183018110611fb9575050611a4f565b80611fc660019254613968565b80611fd3575b5001611fa9565b601f81118314611fe95750600081555b89611fcc565b600090828252612007601f60208420920160051c8201858301613c30565b81835555611fe3565b80518051906001600160401b0382116106315761202d8654613968565b601f81116120ee575b50602090601f831160011461207e579261206f83600195946020948796600092611eeb5750508160011b916000199060031b1c19161790565b87555b01940191019092611a1e565b908660005260206000209160005b601f19851681106120d6575083602093600196938796938794601f198116106120bd575b505050811b018755612072565b015160001960f88460031b161c191690558c80806120b0565b9192602060018192868501518155019401920161208c565b61211a90876000526020600020601f850160051c8101916020861061062757601f0160051c0190613c30565b89612036565b601486016000526020600020908382015b8183018110612141575050611a08565b8061214e60019254613968565b8061215b575b5001612131565b601f811183146121715750600081555b89612154565b60009082825261218f601f60208420920160051c8201858301613c30565b8183555561216b565b80518051906001600160401b038211610631576121b58654613968565b601f8111612276575b50602090601f831160011461220657926121f783600195946020948796600092611eeb5750508160011b916000199060031b1c19161790565b87555b019401910190926119d7565b908660005260206000209160005b601f198516811061225e575083602093600196938796938794601f19811610612245575b505050811b0187556121fa565b015160001960f88460031b161c191690558c8080612238565b91926020600181928685015181550194019201612214565b6122a290876000526020600020601f850160051c8101916020861061062757601f0160051c0190613c30565b896121be565b601386016000526020600020908382015b81830181106122c95750506119c1565b806122d660019254613968565b806122e3575b50016122b9565b601f811183146122f95750600081555b896122dc565b600090828252612317601f60208420920160051c8201858301613c30565b818355556122f3565b6012850160005260206000209060005b601f1984168110612377575060019394959683601f1981161061235e575b505050811b01601284015561199b565b015160001960f88460031b161c1916905585808061234e565b9091602060018192858b015181550193019101612330565b6123be90601286016000526020600020601f840160051c8101916020851061062757601f0160051c0190613c30565b85611962565b90600d860160005260206000209160005b601f198516811061242057509183916001936101409695601f19811610612407575b505050811b01600d85015561190f565b015160001960f88460031b161c191690558780806123f7565b919260206001819286850151815501940192016123d5565b61246790600d87016000526020600020601f850160051c8101916020861061062757601f0160051c0190613c30565b866118d3565b9190600886016000526020600020906000935b601f19841685106124c4576001945083601f198116106124ab575b505050811b01600884015561187f565b015160001960f88460031b161c1916905586808061249b565b81810151835560209485019460019093019290910190612480565b61250e90600887016000526020600020601f850160051c8101916020861061062757601f0160051c0190613c30565b86611848565b9190600786016000526020600020906000935b601f198416851061256b576001945083601f19811610612552575b505050811b01600784015561181c565b015160001960f88460031b161c19169055868080612542565b81810151835560209485019460019093019290910190612527565b6125b590600787016000526020600020601f850160051c8101916020861061062757601f0160051c0190613c30565b866117e5565b6006840160005260206000209060005b601f1984168110612612575060019394959683601f198116106125f9575b505050811b0160068301556117b7565b015160001960f88460031b161c191690558580806125e9565b9091602060018192858b0151815501930191016125cb565b61265990600685016000526020600020601f840160051c8101916020851061062757601f0160051c0190613c30565b8561177e565b906005850160005260206000209160005b601f19851681106126ba575091839160019360409695601f198116106126a1575b505050811b016005840155611755565b015160001960f88460031b161c19169055878080612691565b91926020600181928685015181550194019201612670565b61270190600586016000526020600020601f850160051c8101916020861061062757601f0160051c0190613c30565b8661171a565b9190600485016000526020600020906000935b601f198416851061275e576001945083601f19811610612745575b505050811b0160048301556116ee565b015160001960f88460031b161c19169055868080612735565b8181015183556020948501946001909301929091019061271a565b6127a890600486016000526020600020601f850160051c8101916020861061062757601f0160051c0190613c30565b866116b7565b6003830160005260206000209060005b601f1984168110612805575060019394959683601f198116106127ec575b505050811b016003820155611689565b015160001960f88460031b161c191690558580806127dc565b9091602060018192858b0151815501930191016127be565b61284c90600384016000526020600020601f840160051c8101916020851061062757601f0160051c0190613c30565b85611650565b906002870160005260206000209160005b601f19851681106128ad575091839160019360409695601f19811610612894575b505050811b016002860155611627565b015160001960f88460031b161c19169055878080612884565b91926020600181928685015181550194019201612863565b6128f490600288016000526020600020601f850160051c8101916020861061062757601f0160051c0190613c30565b866115ec565b9190600187016000526020600020906000935b601f1984168510612951576001945083601f19811610612938575b505050811b0160018501556115c0565b015160001960f88460031b161c19169055868080612928565b8181015183556020948501946001909301929091019061290d565b61299b90600188016000526020600020601f850160051c8101916020861061062757601f0160051c0190613c30565b86611589565b60405162461bcd60e51b815260206004820152602d60248201527f436f6e7472616374207769746820676976656e206964656e746966696572206160448201526c6c72656164792065786973747360981b6064820152608490fd5b3461016257604036600319011261016257612a156135de565b6024356001600160401b03811161016257612a37612b40913690600401613669565b9160006101e0604051612a4981613610565b828152612a54613c8b565b6020820152612a61613c8b565b6040820152604051612a728161362c565b60608152606060208201528360408201528360608201528360808201528360a0820152606060c08201528360e0820152836101008201528361012082015283610140820152606082015260606080820152606060a0820152606060c0820152606060e08201526060610100820152606061012082015260606101408201528261016082015282610180820152826101a0820152826101c0820152015265ffffffffffff60d01b169182600052600060205260186040600020016040516102e3816102d5602082018095613b6b565b600052600060205261022060206040600020601a60405191612b6183613610565b80548352612b7160018201613a47565b84840152612b8160048201613a47565b6040840152612b9260078201613a7f565b6060840152612ba3601282016139a2565b6080840152612bb460138201613caa565b60a0840152612bc560148201613caa565b60c0840152612bd660158201613caa565b60e0840152612be7601682016139a2565b610100840152612bf9601782016139a2565b610120840152612c0b601882016139a2565b61014084015260ff601982015460018060a01b038116610160860152818160a01c161515610180860152818160a81c1615156101a086015260b01c1615156101c084015201546101e08201526101e0612d69612d51612d39612d21612d0a612cf4612cde612cc8612cb2612c9c8b6040519e8f9e8f9281845280518285015201519161020060408201520190613739565b60408c01518d8203601f190160608f0152613739565b60608b01518c8203601f190160808e015261377b565b60808a01518b8203601f190160a08d0152613714565b60a08901518a8203601f190160c08c01526137fe565b60c0880151898203601f190160e08b01526137fe565b60e0870151888203601f19016101008a01526137fe565b610100860151878203601f1901610120890152613714565b610120850151868203601f1901610140880152613714565b610140840151858203601f1901610160870152613714565b9160018060a01b036101608201511661018085015261018081015115156101a08501526101a081015115156101c08501526101c081015115158285015201516102008301520390f35b3461016257602080600319360112610162576001600160d01b0319612dd56135de565b16600052600290600281526040600020918254612df1816138d2565b91612dff6040519384613648565b81835260009485528385208484019591865b848410612e6957604080518881528751818a018190528a928201908a60005b828110612e3d5784840385f35b855180518552808301518584015260409081015115159085015294810194606090930192600101612e30565b600387600192604051612e7b816135f5565b86548152848701548382015260ff868801541615156040820152815201930193019291612e11565b3461016257604036600319011261016257612ebc6135de565b6024359065ffffffffffff60d01b1660005260026020526040600020805482101561016257606091612eed916136bf565b5080549060ff600260018301549201541690604051928352602083015215156040820152f35b34610162576040366003190112610162576001600160d01b0319612f356135de565b16806000526000602052612f5a60018060a01b03601960406000200154163314613b0f565b60005260026020526002612f7460243560406000206136bf565b50018054612f8460ff8216613c47565b60ff19169055005b60c036600319011261016257612fa06135de565b6024906001600160401b0390823582811161016257612fc3903690600401613669565b9260443583811161016257612fdc903690600401613669565b9260643581811161016257612ff5903690600401613669565b936084358281116101625761300e903690600401613669565b9360a43583811161016257613027903690600401613669565b9065ffffffffffff60d01b1696876000526020966000885261305a60018060a01b03601960406000200154163314613b0f565b88600052600088526130b460186040600020019260405193846130808c82018093613b6b565b0394613094601f1996878101835282613648565b519020906040516103118c828161030481830196878151938492016136f1565b8860005260008852600f60406000200154340361359a578860005260008852604060002096600488018551878111613427576130f08254613968565b96601f978c898211613561575b50508b908883116001146134fa5761312d92916000918361343c5750508160011b916000199060031b1c19161790565b90555b600591828901908051908882116134e55761314b8354613968565b8c8982116134ae575b50508b908883116001146134475761318492916000918361343c5750508160011b916000199060031b1c19161790565b90555b805160068901918782116134275761319f8354613968565b8b8882116133f0575b50508a90878311600114613389576131d8929160009183611eeb5750508160011b916000199060031b1c19161790565b90555b6017870195835195861161337557506131f48654613968565b84811161333d575b5050869284116001146132b357509261325583601994604097947febbf6b2760b055c34e7d54bccf7079ca90030b876fbf1d76c144a76d2812359499976000926132a85750508160011b916000199060031b1c19161790565b90555b01805462ff00ff60a01b19166201000160a01b179055815142815284907f85b74a154907154c273caeb0be924feadb5271097e078bfd27ef84f1a75f05e8908390a28151903482524290820152a2005b015190508a80610378565b60008581528781209392918516905b818110613326575093604096937febbf6b2760b055c34e7d54bccf7079ca90030b876fbf1d76c144a76d28123594989693600193836019981061330d575b505050811b019055613258565b015160001960f88460031b161c19169055898080613300565b9293886001819287860151815501950193016132c2565b6133659187600052896000209086808901821c8301938c8a1061336c575b01901c0190613c30565b88806131fc565b9350829361335b565b634e487b7160e01b60009081526041600452fd5b9085831691846000528c600020928d6000905b8282106133d95750509084600195949392106133c0575b505050811b0190556131db565b015160001960f88460031b161c191690558c80806133b3565b60018596829396860151815501950193018e61339c565b6134179185600052898260002091818701891c830193871061341e575b01871c0190613c30565b8c8b6131a8565b9250819261340d565b88634e487b7160e01b60005260416004526000fd5b015190508e80610378565b908c918784168560005283600020936000905b82821061349757505090846001959493921061347e575b505050811b019055613187565b015160001960f88460031b161c191690558d8080613471565b60018596829396860151815501950193018f61345a565b6134d591856000528a82600020918187018a1c83019387106134dc575b01881c0190613c30565b8d8c613154565b925081926134cb565b89634e487b7160e01b60005260416004526000fd5b908c918784168560005283600020936000905b82821061354a575050908460019594939210613531575b505050811b019055613130565b015160001960f88460031b161c191690558d8080613524565b60018596829396860151815501950193018f61350d565b61358a91856000528a826000209181870160051c8301938710613591575b0160051c0190613c30565b8d8c6130fd565b9250819261357f565b60405162461bcd60e51b8152600481018990526018818801527f496e636f7272656374206465706f73697420616d6f756e7400000000000000006044820152606490fd5b600435906001600160d01b03198216820361016257565b606081019081106001600160401b0382111761063157604052565b61020081019081106001600160401b0382111761063157604052565b61016081019081106001600160401b0382111761063157604052565b90601f801991011681019081106001600160401b0382111761063157604052565b81601f82011215610162578035906001600160401b038211610631576040519261369d601f8401601f191660200185613648565b8284526020838301011161016257816000926020809301838601378301015290565b80548210156136db576000526003602060002091020190600090565b634e487b7160e01b600052603260045260246000fd5b60005b8381106137045750506000910152565b81810151838201526020016136f4565b9060209161372d815180928185528580860191016136f1565b601f01601f1916010190565b6137789160406137676137558451606085526060850190613714565b60208501518482036020860152613714565b920151906040818403910152613714565b90565b906137d0613796613755610160855190808652850190613714565b60408401516040840152606084015160608401526080840151608084015260a084015160a084015260c084015183820360c0850152613714565b9160e081015160e0830152610100808201519083015261012080820151908301526101408091015191015290565b90808251908181526020809101926020808460051b8301019501936000915b84831061382d5750505050505090565b909192939495848061384b600193601f198682030187528a51613714565b980193019301919493929061381d565b91906060838203126101625760405190613874826135f5565b81938035916001600160401b03928381116101625781613895918401613669565b8452602082013583811161016257816138af918401613669565b60208501526040820135928311610162576040926138cd9201613669565b910152565b6001600160401b0381116106315760051b60200190565b81601f8201121561016257803591602091613903846138d2565b936139116040519586613648565b808552838086019160051b8301019280841161016257848301915b84831061393c5750505050505090565b82356001600160401b03811161016257869161395d84848094890101613669565b81520192019161392c565b90600182811c92168015613998575b602083101461398257565b634e487b7160e01b600052602260045260246000fd5b91607f1691613977565b906040519182600082546139b581613968565b90818452602094600191600181169081600014613a2557506001146139e6575b5050506139e492500383613648565b565b600090815285812095935091905b818310613a0d5750506139e493508201013880806139d5565b855488840185015294850194879450918301916139f4565b925050506139e494925060ff191682840152151560051b8201013880806139d5565b90604051613a54816135f5565b60406138cd60028395613a66816139a2565b8552613a74600182016139a2565b6020860152016139a2565b90604051613a8c8161362c565b610140600a8294613a9c816139a2565b8452613aaa600182016139a2565b6020850152600281015460408501526003810154606085015260048101546080850152600581015460a0850152613ae3600682016139a2565b60c0850152600781015460e0850152600881015461010085015260098101546101208501520154910152565b15613b1657565b60405162461bcd60e51b815260206004820152602760248201527f4f6e6c79207468652074656e616e742063616e20706572666f726d20746869736044820152661030b1ba34b7b760c91b6064820152608490fd5b600092918154613b7a81613968565b92600191808316908115613bd45750600114613b97575b50505050565b9091929394506000526020906020600020906000915b858310613bc35750505050019038808080613b91565b805485840152918301918101613bad565b60ff1916845250505081151590910201915038808080613b91565b15613bf657565b60405162461bcd60e51b8152602060048201526012602482015271125b98dbdc9c9958dd081c185cdcdddbdc9960721b6044820152606490fd5b818110613c3b575050565b60008155600101613c30565b15613c4e57565b60405162461bcd60e51b815260206004820152601560248201527452657175657374206973206e6f742061637469766560581b6044820152606490fd5b60405190613c98826135f5565b60606040838281528260208201520152565b908154613cb6816138d2565b92613cc46040519485613648565b818452600090815260208082208186015b848410613ce3575050505050565b6001838192613cf1856139a2565b815201920193019290613cd5565b15613d0657565b60405162461bcd60e51b815260206004820152602560248201527f4f6e6c79206c616e646c6f72642063616e20706572666f726d2074686973206160448201526431ba34b7b760d91b6064820152608490fd5b15613d6057565b60405162461bcd60e51b815260206004820152601860248201527f4465706f73697420616c72656164792072656c656173656400000000000000006044820152606490fd5b15613dac57565b60405162461bcd60e51b8152602060048201526013602482015272436f6e7472616374206e6f742061637469766560681b6044820152606490fd5b15613dee57565b60405162461bcd60e51b815260206004820152602860248201527f52657175657374656420616d6f756e742065786365656473206465706f7369746044820152672062616c616e636560c01b6064820152608490fdfea26469706673582212202ac67c281862c620a28030307fe45f654a8efcdbdf806bf915130235f9a5495264736f6c63430008180033","opcodes":"PUSH1 0x80 DUP1 PUSH1 0x40 MSTORE CALLVALUE PUSH2 0x16 JUMPI PUSH2 0x3E7A SWAP1 DUP2 PUSH2 0x1C DUP3 CODECOPY RETURN JUMPDEST PUSH1 0x0 DUP1 REVERT INVALID PUSH1 0x80 PUSH1 0x40 MSTORE PUSH1 0x4 CALLDATASIZE LT ISZERO PUSH2 0x12 JUMPI PUSH1 0x0 DUP1 REVERT JUMPDEST PUSH1 0x0 CALLDATALOAD PUSH1 0xE0 SHR DUP1 PUSH4 0x157E21F7 EQ PUSH2 0x2F8C JUMPI DUP1 PUSH4 0x29C2DC4E EQ PUSH2 0x2F13 JUMPI DUP1 PUSH4 0x306C7A63 EQ PUSH2 0x2EA3 JUMPI DUP1 PUSH4 0x5039A08C EQ PUSH2 0x2DB2 JUMPI DUP1 PUSH4 0x792855E4 EQ PUSH2 0x29FC JUMPI DUP1 PUSH4 0x9AA5543E EQ PUSH2 0x126D JUMPI DUP1 PUSH4 0x9CFA058B EQ PUSH2 0x110D JUMPI DUP1 PUSH4 0xA3104433 EQ PUSH2 0xF5A JUMPI DUP1 PUSH4 0xCA52C3C2 EQ PUSH2 0xE08 JUMPI DUP1 PUSH4 0xCC8E3DDE EQ PUSH2 0xDC5 JUMPI DUP1 PUSH4 0xD557E702 EQ PUSH2 0xD87 JUMPI DUP1 PUSH4 0xF437A24D EQ PUSH2 0xC59 JUMPI DUP1 PUSH4 0xF78F38B4 EQ PUSH2 0x167 JUMPI PUSH4 0xFA34D5AA EQ PUSH2 0xB6 JUMPI PUSH1 0x0 DUP1 REVERT JUMPDEST CALLVALUE PUSH2 0x162 JUMPI PUSH1 0x20 CALLDATASIZE PUSH1 0x3 NOT ADD SLT PUSH2 0x162 JUMPI PUSH1 0x1 PUSH1 0x1 PUSH1 0xD0 SHL SUB NOT PUSH2 0xD8 PUSH2 0x35DE JUMP JUMPDEST AND DUP1 PUSH1 0x0 MSTORE PUSH1 0x1 PUSH1 0x20 MSTORE PUSH2 0xFA PUSH1 0x1 DUP1 PUSH1 0xA0 SHL SUB PUSH1 0x40 PUSH1 0x0 KECCAK256 SLOAD AND CALLER EQ PUSH2 0x3CFF JUMP JUMPDEST DUP1 PUSH1 0x0 MSTORE PUSH1 0x0 PUSH1 0x20 MSTORE PUSH2 0x11A PUSH1 0xFF PUSH1 0x19 PUSH1 0x40 PUSH1 0x0 KECCAK256 ADD SLOAD PUSH1 0xB0 SHR AND PUSH2 0x3DA5 JUMP JUMPDEST DUP1 PUSH1 0x0 MSTORE PUSH1 0x0 PUSH1 0x20 MSTORE PUSH1 0x19 PUSH1 0x40 PUSH1 0x0 KECCAK256 ADD PUSH1 0xFF PUSH1 0xB0 SHL NOT DUP2 SLOAD AND SWAP1 SSTORE PUSH32 0x47933618ED5DAF6EC135A2D05B0586259833CA21B20043C6E4C525CB0502C0DC PUSH1 0x20 PUSH1 0x40 MLOAD TIMESTAMP DUP2 MSTORE LOG2 STOP JUMPDEST PUSH1 0x0 DUP1 REVERT JUMPDEST CALLVALUE PUSH2 0x162 JUMPI PUSH2 0x160 CALLDATASIZE PUSH1 0x3 NOT ADD SLT PUSH2 0x162 JUMPI PUSH2 0x181 PUSH2 0x35DE JUMP JUMPDEST PUSH1 0x24 CALLDATALOAD PUSH1 0x1 PUSH1 0x1 PUSH1 0x40 SHL SUB DUP2 GT PUSH2 0x162 JUMPI PUSH2 0x1A0 SWAP1 CALLDATASIZE SWAP1 PUSH1 0x4 ADD PUSH2 0x3669 JUMP JUMPDEST PUSH1 0x44 CALLDATALOAD PUSH1 0x1 PUSH1 0x1 PUSH1 0x40 SHL SUB DUP2 GT PUSH2 0x162 JUMPI PUSH2 0x1BF SWAP1 CALLDATASIZE SWAP1 PUSH1 0x4 ADD PUSH2 0x3669 JUMP JUMPDEST SWAP1 PUSH1 0x64 CALLDATALOAD PUSH1 0x1 PUSH1 0x1 PUSH1 0x40 SHL SUB DUP2 GT PUSH2 0x162 JUMPI PUSH2 0x1DF SWAP1 CALLDATASIZE SWAP1 PUSH1 0x4 ADD PUSH2 0x38E9 JUMP JUMPDEST PUSH1 0x84 CALLDATALOAD PUSH1 0x1 PUSH1 0x1 PUSH1 0x40 SHL SUB DUP2 GT PUSH2 0x162 JUMPI PUSH2 0x1FE SWAP1 CALLDATASIZE SWAP1 PUSH1 0x4 ADD PUSH2 0x38E9 JUMP JUMPDEST PUSH1 0xA4 CALLDATALOAD PUSH1 0x1 PUSH1 0x1 PUSH1 0x40 SHL SUB DUP2 GT PUSH2 0x162 JUMPI PUSH2 0x21D SWAP1 CALLDATASIZE SWAP1 PUSH1 0x4 ADD PUSH2 0x38E9 JUMP JUMPDEST PUSH1 0xC4 CALLDATALOAD PUSH1 0x1 PUSH1 0x1 PUSH1 0x40 SHL SUB DUP2 GT PUSH2 0x162 JUMPI PUSH2 0x23C SWAP1 CALLDATASIZE SWAP1 PUSH1 0x4 ADD PUSH2 0x3669 JUMP JUMPDEST SWAP2 PUSH1 0xE4 CALLDATALOAD PUSH1 0x1 PUSH1 0x1 PUSH1 0x40 SHL SUB DUP2 GT PUSH2 0x162 JUMPI PUSH2 0x25C SWAP1 CALLDATASIZE SWAP1 PUSH1 0x4 ADD PUSH2 0x3669 JUMP JUMPDEST PUSH2 0x104 CALLDATALOAD SWAP6 SWAP1 SWAP5 SWAP1 PUSH1 0x1 PUSH1 0x1 PUSH1 0xA0 SHL SUB DUP8 AND DUP8 SUB PUSH2 0x162 JUMPI PUSH2 0x31A SWAP1 PUSH6 0xFFFFFFFFFFFF PUSH1 0xD0 SHL DUP11 AND PUSH1 0x0 MSTORE PUSH1 0x1 PUSH1 0x20 MSTORE PUSH2 0x2A4 PUSH1 0x1 DUP1 PUSH1 0xA0 SHL SUB PUSH1 0x40 PUSH1 0x0 KECCAK256 SLOAD AND CALLER EQ PUSH2 0x3CFF JUMP JUMPDEST PUSH6 0xFFFFFFFFFFFF PUSH1 0xD0 SHL DUP11 AND PUSH1 0x0 MSTORE PUSH1 0x0 PUSH1 0x20 MSTORE PUSH1 0x18 PUSH1 0x40 PUSH1 0x0 KECCAK256 ADD PUSH1 0x40 MLOAD PUSH2 0x2E3 DUP2 PUSH2 0x2D5 PUSH1 0x20 DUP3 ADD DUP1 SWAP6 PUSH2 0x3B6B JUMP JUMPDEST SUB PUSH1 0x1F NOT DUP2 ADD DUP4 MSTORE DUP3 PUSH2 0x3648 JUMP JUMPDEST MLOAD SWAP1 KECCAK256 SWAP1 PUSH1 0x40 MLOAD PUSH2 0x311 PUSH1 0x20 DUP3 DUP2 PUSH2 0x304 DUP2 DUP4 ADD SWAP7 DUP8 DUP2 MLOAD SWAP4 DUP5 SWAP3 ADD PUSH2 0x36F1 JUMP JUMPDEST DUP2 ADD SUB DUP1 DUP5 MSTORE ADD DUP3 PUSH2 0x3648 JUMP JUMPDEST MLOAD SWAP1 KECCAK256 EQ PUSH2 0x3BEF JUMP JUMPDEST PUSH6 0xFFFFFFFFFFFF PUSH1 0xD0 SHL DUP9 AND PUSH1 0x0 MSTORE PUSH1 0x0 PUSH1 0x20 MSTORE PUSH1 0x40 PUSH1 0x0 KECCAK256 SWAP7 DUP1 MLOAD SWAP1 PUSH1 0x1 PUSH1 0x1 PUSH1 0x40 SHL SUB DUP3 GT PUSH2 0x631 JUMPI PUSH2 0x352 PUSH1 0x12 DUP11 ADD SLOAD PUSH2 0x3968 JUMP JUMPDEST PUSH1 0x1F DUP2 GT PUSH2 0xC24 JUMPI JUMPDEST POP PUSH1 0x20 SWAP1 PUSH1 0x1F DUP4 GT PUSH1 0x1 EQ PUSH2 0xBB2 JUMPI PUSH2 0x38D SWAP3 SWAP2 PUSH1 0x0 SWAP2 DUP4 PUSH2 0xBA7 JUMPI JUMPDEST POP POP DUP2 PUSH1 0x1 SHL SWAP2 PUSH1 0x0 NOT SWAP1 PUSH1 0x3 SHL SHR NOT AND OR SWAP1 JUMP JUMPDEST PUSH1 0x12 DUP9 ADD SSTORE JUMPDEST DUP1 MLOAD SWAP1 PUSH1 0x1 PUSH1 0x40 SHL DUP3 GT PUSH2 0x631 JUMPI PUSH1 0x13 DUP9 ADD SLOAD DUP3 PUSH1 0x13 DUP11 ADD SSTORE DUP1 DUP4 LT PUSH2 0xB2F JUMPI JUMPDEST POP PUSH1 0x20 ADD SWAP1 PUSH1 0x13 DUP9 ADD PUSH1 0x0 MSTORE PUSH1 0x20 PUSH1 0x0 KECCAK256 SWAP2 PUSH1 0x0 SWAP1 JUMPDEST DUP3 DUP3 LT PUSH2 0xA1F JUMPI POP POP POP POP DUP1 MLOAD SWAP1 PUSH1 0x1 PUSH1 0x40 SHL DUP3 GT PUSH2 0x631 JUMPI PUSH1 0x14 DUP8 ADD SLOAD DUP3 PUSH1 0x14 DUP10 ADD SSTORE DUP1 DUP4 LT PUSH2 0x9A7 JUMPI JUMPDEST POP PUSH1 0x20 ADD SWAP1 PUSH1 0x14 DUP8 ADD PUSH1 0x0 MSTORE PUSH1 0x20 PUSH1 0x0 KECCAK256 SWAP2 PUSH1 0x0 SWAP1 JUMPDEST DUP3 DUP3 LT PUSH2 0x88C JUMPI POP POP POP POP DUP1 MLOAD SWAP1 PUSH1 0x1 PUSH1 0x40 SHL DUP3 GT PUSH2 0x631 JUMPI PUSH1 0x15 DUP7 ADD SLOAD DUP3 PUSH1 0x15 DUP9 ADD SSTORE DUP1 DUP4 LT PUSH2 0x814 JUMPI JUMPDEST POP PUSH1 0x20 ADD SWAP1 PUSH1 0x15 DUP7 ADD PUSH1 0x0 MSTORE PUSH1 0x20 PUSH1 0x0 KECCAK256 SWAP2 PUSH1 0x0 SWAP1 JUMPDEST DUP3 DUP3 LT PUSH2 0x6EE JUMPI POP POP POP POP DUP1 MLOAD SWAP1 PUSH1 0x1 PUSH1 0x1 PUSH1 0x40 SHL SUB DUP3 GT PUSH2 0x631 JUMPI PUSH2 0x477 PUSH1 0x16 DUP7 ADD SLOAD PUSH2 0x3968 JUMP JUMPDEST PUSH1 0x1F DUP2 GT PUSH2 0x6B9 JUMPI JUMPDEST POP PUSH1 0x20 SWAP1 PUSH1 0x1F DUP4 GT PUSH1 0x1 EQ PUSH2 0x647 JUMPI PUSH2 0x4B1 SWAP3 SWAP2 PUSH1 0x0 SWAP2 DUP4 PUSH2 0x581 JUMPI POP POP DUP2 PUSH1 0x1 SHL SWAP2 PUSH1 0x0 NOT SWAP1 PUSH1 0x3 SHL SHR NOT AND OR SWAP1 JUMP JUMPDEST PUSH1 0x16 DUP5 ADD SSTORE JUMPDEST DUP1 MLOAD PUSH1 0x17 DUP5 ADD SWAP2 PUSH1 0x1 PUSH1 0x1 PUSH1 0x40 SHL SUB DUP3 GT PUSH2 0x631 JUMPI PUSH2 0x4D6 DUP4 SLOAD PUSH2 0x3968 JUMP JUMPDEST PUSH1 0x1F DUP2 GT PUSH2 0x5F4 JUMPI JUMPDEST POP PUSH1 0x20 SWAP1 PUSH1 0x1F DUP4 GT PUSH1 0x1 EQ PUSH2 0x58C JUMPI PUSH2 0x510 SWAP3 SWAP2 PUSH1 0x0 SWAP2 DUP4 PUSH2 0x581 JUMPI POP POP DUP2 PUSH1 0x1 SHL SWAP2 PUSH1 0x0 NOT SWAP1 PUSH1 0x3 SHL SHR NOT AND OR SWAP1 JUMP JUMPDEST SWAP1 SSTORE JUMPDEST PUSH1 0x19 DUP3 ADD SWAP1 PUSH1 0x1 DUP1 PUSH1 0xA0 SHL SUB AND PUSH12 0xFFFFFFFFFFFFFFFFFFFFFFFF PUSH1 0xA0 SHL DUP3 SLOAD AND OR SWAP1 SSTORE PUSH2 0x124 CALLDATALOAD PUSH1 0xA DUP3 ADD SSTORE PUSH1 0xB PUSH2 0x144 CALLDATALOAD SWAP2 ADD SSTORE PUSH32 0xCC49EAA5A4E01877EB9EF0128739D175FBCCDA52502904818EC03AC3D23D12F PUSH1 0x20 PUSH1 0x40 MLOAD SWAP3 TIMESTAMP DUP5 MSTORE PUSH6 0xFFFFFFFFFFFF PUSH1 0xD0 SHL AND SWAP3 LOG2 STOP JUMPDEST ADD MLOAD SWAP1 POP DUP8 DUP1 PUSH2 0x378 JUMP JUMPDEST SWAP1 PUSH1 0x1F NOT DUP4 AND SWAP2 DUP5 PUSH1 0x0 MSTORE PUSH1 0x20 PUSH1 0x0 KECCAK256 SWAP3 PUSH1 0x0 JUMPDEST DUP2 DUP2 LT PUSH2 0x5DC JUMPI POP SWAP1 DUP5 PUSH1 0x1 SWAP6 SWAP5 SWAP4 SWAP3 LT PUSH2 0x5C3 JUMPI JUMPDEST POP POP POP DUP2 SHL ADD SWAP1 SSTORE PUSH2 0x513 JUMP JUMPDEST ADD MLOAD PUSH1 0x0 NOT PUSH1 0xF8 DUP5 PUSH1 0x3 SHL AND SHR NOT AND SWAP1 SSTORE DUP7 DUP1 DUP1 PUSH2 0x5B6 JUMP JUMPDEST SWAP3 SWAP4 PUSH1 0x20 PUSH1 0x1 DUP2 SWAP3 DUP8 DUP7 ADD MLOAD DUP2 SSTORE ADD SWAP6 ADD SWAP4 ADD PUSH2 0x5A0 JUMP JUMPDEST PUSH2 0x621 SWAP1 DUP5 PUSH1 0x0 MSTORE PUSH1 0x20 PUSH1 0x0 KECCAK256 PUSH1 0x1F DUP6 ADD PUSH1 0x5 SHR DUP2 ADD SWAP2 PUSH1 0x20 DUP7 LT PUSH2 0x627 JUMPI JUMPDEST PUSH1 0x1F ADD PUSH1 0x5 SHR ADD SWAP1 PUSH2 0x3C30 JUMP JUMPDEST DUP7 PUSH2 0x4DF JUMP JUMPDEST SWAP1 SWAP2 POP DUP2 SWAP1 PUSH2 0x614 JUMP JUMPDEST PUSH4 0x4E487B71 PUSH1 0xE0 SHL PUSH1 0x0 MSTORE PUSH1 0x41 PUSH1 0x4 MSTORE PUSH1 0x24 PUSH1 0x0 REVERT JUMPDEST SWAP2 SWAP1 PUSH1 0x16 DUP7 ADD PUSH1 0x0 MSTORE PUSH1 0x20 PUSH1 0x0 KECCAK256 SWAP1 PUSH1 0x0 SWAP4 JUMPDEST PUSH1 0x1F NOT DUP5 AND DUP6 LT PUSH2 0x69E JUMPI PUSH1 0x1 SWAP5 POP DUP4 PUSH1 0x1F NOT DUP2 AND LT PUSH2 0x685 JUMPI JUMPDEST POP POP POP DUP2 SHL ADD PUSH1 0x16 DUP5 ADD SSTORE PUSH2 0x4B7 JUMP JUMPDEST ADD MLOAD PUSH1 0x0 NOT PUSH1 0xF8 DUP5 PUSH1 0x3 SHL AND SHR NOT AND SWAP1 SSTORE DUP7 DUP1 DUP1 PUSH2 0x675 JUMP JUMPDEST DUP2 DUP2 ADD MLOAD DUP4 SSTORE PUSH1 0x20 SWAP5 DUP6 ADD SWAP5 PUSH1 0x1 SWAP1 SWAP4 ADD SWAP3 SWAP1 SWAP2 ADD SWAP1 PUSH2 0x65A JUMP JUMPDEST PUSH2 0x6E8 SWAP1 PUSH1 0x16 DUP8 ADD PUSH1 0x0 MSTORE PUSH1 0x20 PUSH1 0x0 KECCAK256 PUSH1 0x1F DUP6 ADD PUSH1 0x5 SHR DUP2 ADD SWAP2 PUSH1 0x20 DUP7 LT PUSH2 0x627 JUMPI PUSH1 0x1F ADD PUSH1 0x5 SHR ADD SWAP1 PUSH2 0x3C30 JUMP JUMPDEST DUP7 PUSH2 0x480 JUMP JUMPDEST DUP1 MLOAD DUP1 MLOAD SWAP1 PUSH1 0x1 PUSH1 0x1 PUSH1 0x40 SHL SUB DUP3 GT PUSH2 0x631 JUMPI PUSH2 0x70B DUP7 SLOAD PUSH2 0x3968 JUMP JUMPDEST PUSH1 0x1F DUP2 GT PUSH2 0x7D7 JUMPI JUMPDEST POP PUSH1 0x20 SWAP1 PUSH1 0x1F DUP4 GT PUSH1 0x1 EQ PUSH2 0x767 JUMPI SWAP3 PUSH2 0x74D DUP4 PUSH1 0x1 SWAP6 SWAP5 PUSH1 0x20 SWAP5 DUP8 SWAP7 PUSH1 0x0 SWAP3 PUSH2 0x75C JUMPI POP POP DUP2 PUSH1 0x1 SHL SWAP2 PUSH1 0x0 NOT SWAP1 PUSH1 0x3 SHL SHR NOT AND OR SWAP1 JUMP JUMPDEST DUP8 SSTORE JUMPDEST ADD SWAP5 ADD SWAP2 ADD SWAP1 SWAP3 PUSH2 0x44E JUMP JUMPDEST ADD MLOAD SWAP1 POP DUP16 DUP1 PUSH2 0x378 JUMP JUMPDEST SWAP1 DUP7 PUSH1 0x0 MSTORE PUSH1 0x20 PUSH1 0x0 KECCAK256 SWAP2 PUSH1 0x0 JUMPDEST PUSH1 0x1F NOT DUP6 AND DUP2 LT PUSH2 0x7BF JUMPI POP DUP4 PUSH1 0x20 SWAP4 PUSH1 0x1 SWAP7 SWAP4 DUP8 SWAP7 SWAP4 DUP8 SWAP5 PUSH1 0x1F NOT DUP2 AND LT PUSH2 0x7A6 JUMPI JUMPDEST POP POP POP DUP2 SHL ADD DUP8 SSTORE PUSH2 0x750 JUMP JUMPDEST ADD MLOAD PUSH1 0x0 NOT PUSH1 0xF8 DUP5 PUSH1 0x3 SHL AND SHR NOT AND SWAP1 SSTORE DUP15 DUP1 DUP1 PUSH2 0x799 JUMP JUMPDEST SWAP2 SWAP3 PUSH1 0x20 PUSH1 0x1 DUP2 SWAP3 DUP7 DUP6 ADD MLOAD DUP2 SSTORE ADD SWAP5 ADD SWAP3 ADD PUSH2 0x775 JUMP JUMPDEST PUSH2 0x804 SWAP1 DUP8 PUSH1 0x0 MSTORE PUSH1 0x20 PUSH1 0x0 KECCAK256 PUSH1 0x5 PUSH1 0x1F DUP7 ADD DUP2 SHR DUP3 ADD SWAP3 PUSH1 0x20 DUP8 LT PUSH2 0x80A JUMPI JUMPDEST PUSH1 0x1F ADD SWAP1 SHR ADD SWAP1 PUSH2 0x3C30 JUMP JUMPDEST DUP12 PUSH2 0x714 JUMP JUMPDEST SWAP2 SWAP3 POP DUP3 SWAP2 PUSH2 0x7F8 JUMP JUMPDEST PUSH1 0x15 DUP8 ADD PUSH1 0x0 MSTORE PUSH1 0x20 PUSH1 0x0 KECCAK256 SWAP1 DUP4 DUP3 ADD JUMPDEST DUP2 DUP4 ADD DUP2 LT PUSH2 0x835 JUMPI POP POP PUSH2 0x438 JUMP JUMPDEST DUP1 PUSH2 0x842 PUSH1 0x1 SWAP3 SLOAD PUSH2 0x3968 JUMP JUMPDEST DUP1 PUSH2 0x84F JUMPI JUMPDEST POP ADD PUSH2 0x825 JUMP JUMPDEST PUSH1 0x1F DUP2 GT DUP4 EQ PUSH2 0x865 JUMPI POP PUSH1 0x0 DUP2 SSTORE JUMPDEST DUP12 PUSH2 0x848 JUMP JUMPDEST PUSH1 0x0 SWAP1 DUP3 DUP3 MSTORE PUSH2 0x883 PUSH1 0x1F PUSH1 0x20 DUP5 KECCAK256 SWAP3 ADD PUSH1 0x5 SHR DUP3 ADD DUP6 DUP4 ADD PUSH2 0x3C30 JUMP JUMPDEST DUP2 DUP4 SSTORE SSTORE PUSH2 0x85F JUMP JUMPDEST DUP1 MLOAD DUP1 MLOAD SWAP1 PUSH1 0x1 PUSH1 0x1 PUSH1 0x40 SHL SUB DUP3 GT PUSH2 0x631 JUMPI PUSH2 0x8A9 DUP7 SLOAD PUSH2 0x3968 JUMP JUMPDEST PUSH1 0x1F DUP2 GT PUSH2 0x975 JUMPI JUMPDEST POP PUSH1 0x20 SWAP1 PUSH1 0x1F DUP4 GT PUSH1 0x1 EQ PUSH2 0x905 JUMPI SWAP3 PUSH2 0x8EB DUP4 PUSH1 0x1 SWAP6 SWAP5 PUSH1 0x20 SWAP5 DUP8 SWAP7 PUSH1 0x0 SWAP3 PUSH2 0x8FA JUMPI POP POP DUP2 PUSH1 0x1 SHL SWAP2 PUSH1 0x0 NOT SWAP1 PUSH1 0x3 SHL SHR NOT AND OR SWAP1 JUMP JUMPDEST DUP8 SSTORE JUMPDEST ADD SWAP5 ADD SWAP2 ADD SWAP1 SWAP3 PUSH2 0x40C JUMP JUMPDEST ADD MLOAD SWAP1 POP CODESIZE DUP1 PUSH2 0x378 JUMP JUMPDEST SWAP1 DUP7 PUSH1 0x0 MSTORE PUSH1 0x20 PUSH1 0x0 KECCAK256 SWAP2 PUSH1 0x0 JUMPDEST PUSH1 0x1F NOT DUP6 AND DUP2 LT PUSH2 0x95D JUMPI POP DUP4 PUSH1 0x20 SWAP4 PUSH1 0x1 SWAP7 SWAP4 DUP8 SWAP7 SWAP4 DUP8 SWAP5 PUSH1 0x1F NOT DUP2 AND LT PUSH2 0x944 JUMPI JUMPDEST POP POP POP DUP2 SHL ADD DUP8 SSTORE PUSH2 0x8EE JUMP JUMPDEST ADD MLOAD PUSH1 0x0 NOT PUSH1 0xF8 DUP5 PUSH1 0x3 SHL AND SHR NOT AND SWAP1 SSTORE DUP16 DUP1 DUP1 PUSH2 0x937 JUMP JUMPDEST SWAP2 SWAP3 PUSH1 0x20 PUSH1 0x1 DUP2 SWAP3 DUP7 DUP6 ADD MLOAD DUP2 SSTORE ADD SWAP5 ADD SWAP3 ADD PUSH2 0x913 JUMP JUMPDEST PUSH2 0x9A1 SWAP1 DUP8 PUSH1 0x0 MSTORE PUSH1 0x20 PUSH1 0x0 KECCAK256 PUSH1 0x5 PUSH1 0x1F DUP7 ADD DUP2 SHR DUP3 ADD SWAP3 PUSH1 0x20 DUP8 LT PUSH2 0x80A JUMPI PUSH1 0x1F ADD SWAP1 SHR ADD SWAP1 PUSH2 0x3C30 JUMP JUMPDEST DUP13 PUSH2 0x8B2 JUMP JUMPDEST PUSH1 0x14 DUP9 ADD PUSH1 0x0 MSTORE PUSH1 0x20 PUSH1 0x0 KECCAK256 SWAP1 DUP4 DUP3 ADD JUMPDEST DUP2 DUP4 ADD DUP2 LT PUSH2 0x9C8 JUMPI POP POP PUSH2 0x3F6 JUMP JUMPDEST DUP1 PUSH2 0x9D5 PUSH1 0x1 SWAP3 SLOAD PUSH2 0x3968 JUMP JUMPDEST DUP1 PUSH2 0x9E2 JUMPI JUMPDEST POP ADD PUSH2 0x9B8 JUMP JUMPDEST PUSH1 0x1F DUP2 GT DUP4 EQ PUSH2 0x9F8 JUMPI POP PUSH1 0x0 DUP2 SSTORE JUMPDEST DUP13 PUSH2 0x9DB JUMP JUMPDEST PUSH1 0x0 SWAP1 DUP3 DUP3 MSTORE PUSH2 0xA16 PUSH1 0x1F PUSH1 0x20 DUP5 KECCAK256 SWAP3 ADD PUSH1 0x5 SHR DUP3 ADD DUP6 DUP4 ADD PUSH2 0x3C30 JUMP JUMPDEST DUP2 DUP4 SSTORE SSTORE PUSH2 0x9F2 JUMP JUMPDEST DUP1 MLOAD DUP1 MLOAD SWAP1 PUSH1 0x1 PUSH1 0x1 PUSH1 0x40 SHL SUB DUP3 GT PUSH2 0x631 JUMPI PUSH2 0xA3C DUP7 SLOAD PUSH2 0x3968 JUMP JUMPDEST PUSH1 0x1F DUP2 GT PUSH2 0xAFD JUMPI JUMPDEST POP PUSH1 0x20 SWAP1 PUSH1 0x1F DUP4 GT PUSH1 0x1 EQ PUSH2 0xA8D JUMPI SWAP3 PUSH2 0xA7E DUP4 PUSH1 0x1 SWAP6 SWAP5 PUSH1 0x20 SWAP5 DUP8 SWAP7 PUSH1 0x0 SWAP3 PUSH2 0x8FA JUMPI POP POP DUP2 PUSH1 0x1 SHL SWAP2 PUSH1 0x0 NOT SWAP1 PUSH1 0x3 SHL SHR NOT AND OR SWAP1 JUMP JUMPDEST DUP8 SSTORE JUMPDEST ADD SWAP5 ADD SWAP2 ADD SWAP1 SWAP3 PUSH2 0x3CA JUMP JUMPDEST SWAP1 DUP7 PUSH1 0x0 MSTORE PUSH1 0x20 PUSH1 0x0 KECCAK256 SWAP2 PUSH1 0x0 JUMPDEST PUSH1 0x1F NOT DUP6 AND DUP2 LT PUSH2 0xAE5 JUMPI POP DUP4 PUSH1 0x20 SWAP4 PUSH1 0x1 SWAP7 SWAP4 DUP8 SWAP7 SWAP4 DUP8 SWAP5 PUSH1 0x1F NOT DUP2 AND LT PUSH2 0xACC JUMPI JUMPDEST POP POP POP DUP2 SHL ADD DUP8 SSTORE PUSH2 0xA81 JUMP JUMPDEST ADD MLOAD PUSH1 0x0 NOT PUSH1 0xF8 DUP5 PUSH1 0x3 SHL AND SHR NOT AND SWAP1 SSTORE CODESIZE DUP1 DUP1 PUSH2 0xABF JUMP JUMPDEST SWAP2 SWAP3 PUSH1 0x20 PUSH1 0x1 DUP2 SWAP3 DUP7 DUP6 ADD MLOAD DUP2 SSTORE ADD SWAP5 ADD SWAP3 ADD PUSH2 0xA9B JUMP JUMPDEST PUSH2 0xB29 SWAP1 DUP8 PUSH1 0x0 MSTORE PUSH1 0x20 PUSH1 0x0 KECCAK256 PUSH1 0x5 PUSH1 0x1F DUP7 ADD DUP2 SHR DUP3 ADD SWAP3 PUSH1 0x20 DUP8 LT PUSH2 0x80A JUMPI PUSH1 0x1F ADD SWAP1 SHR ADD SWAP1 PUSH2 0x3C30 JUMP JUMPDEST DUP14 PUSH2 0xA45 JUMP JUMPDEST PUSH1 0x13 DUP10 ADD PUSH1 0x0 MSTORE PUSH1 0x20 PUSH1 0x0 KECCAK256 SWAP1 DUP4 DUP3 ADD JUMPDEST DUP2 DUP4 ADD DUP2 LT PUSH2 0xB50 JUMPI POP POP PUSH2 0x3B4 JUMP JUMPDEST DUP1 PUSH2 0xB5D PUSH1 0x1 SWAP3 SLOAD PUSH2 0x3968 JUMP JUMPDEST DUP1 PUSH2 0xB6A JUMPI JUMPDEST POP ADD PUSH2 0xB40 JUMP JUMPDEST PUSH1 0x1F DUP2 GT DUP4 EQ PUSH2 0xB80 JUMPI POP PUSH1 0x0 DUP2 SSTORE JUMPDEST DUP14 PUSH2 0xB63 JUMP JUMPDEST PUSH1 0x0 SWAP1 DUP3 DUP3 MSTORE PUSH2 0xB9E PUSH1 0x1F PUSH1 0x20 DUP5 KECCAK256 SWAP3 ADD PUSH1 0x5 SHR DUP3 ADD DUP6 DUP4 ADD PUSH2 0x3C30 JUMP JUMPDEST DUP2 DUP4 SSTORE SSTORE PUSH2 0xB7A JUMP JUMPDEST ADD MLOAD SWAP1 POP DUP12 DUP1 PUSH2 0x378 JUMP JUMPDEST SWAP2 SWAP1 PUSH1 0x12 DUP11 ADD PUSH1 0x0 MSTORE PUSH1 0x20 PUSH1 0x0 KECCAK256 SWAP1 PUSH1 0x0 SWAP4 JUMPDEST PUSH1 0x1F NOT DUP5 AND DUP6 LT PUSH2 0xC09 JUMPI PUSH1 0x1 SWAP5 POP DUP4 PUSH1 0x1F NOT DUP2 AND LT PUSH2 0xBF0 JUMPI JUMPDEST POP POP POP DUP2 SHL ADD PUSH1 0x12 DUP9 ADD SSTORE PUSH2 0x393 JUMP JUMPDEST ADD MLOAD PUSH1 0x0 NOT PUSH1 0xF8 DUP5 PUSH1 0x3 SHL AND SHR NOT AND SWAP1 SSTORE DUP11 DUP1 DUP1 PUSH2 0xBE0 JUMP JUMPDEST DUP2 DUP2 ADD MLOAD DUP4 SSTORE PUSH1 0x20 SWAP5 DUP6 ADD SWAP5 PUSH1 0x1 SWAP1 SWAP4 ADD SWAP3 SWAP1 SWAP2 ADD SWAP1 PUSH2 0xBC5 JUMP JUMPDEST PUSH2 0xC53 SWAP1 PUSH1 0x12 DUP12 ADD PUSH1 0x0 MSTORE PUSH1 0x20 PUSH1 0x0 KECCAK256 PUSH1 0x1F DUP6 ADD PUSH1 0x5 SHR DUP2 ADD SWAP2 PUSH1 0x20 DUP7 LT PUSH2 0x627 JUMPI PUSH1 0x1F ADD PUSH1 0x5 SHR ADD SWAP1 PUSH2 0x3C30 JUMP JUMPDEST DUP11 PUSH2 0x35B JUMP JUMPDEST CALLVALUE PUSH2 0x162 JUMPI PUSH1 0x20 CALLDATASIZE PUSH1 0x3 NOT ADD SLT PUSH2 0x162 JUMPI PUSH1 0x1 PUSH1 0x1 PUSH1 0xD0 SHL SUB NOT PUSH2 0xC7B PUSH2 0x35DE JUMP JUMPDEST AND DUP1 PUSH1 0x0 MSTORE PUSH1 0x1 PUSH1 0x20 MSTORE PUSH1 0x1 DUP1 PUSH1 0xA0 SHL SUB PUSH2 0xC9E DUP2 PUSH1 0x40 PUSH1 0x0 KECCAK256 SLOAD AND CALLER EQ PUSH2 0x3CFF JUMP JUMPDEST DUP2 PUSH1 0x0 MSTORE PUSH1 0x0 PUSH1 0x20 MSTORE PUSH1 0x40 PUSH1 0x0 KECCAK256 PUSH1 0xB DUP2 ADD SLOAD TIMESTAMP LT PUSH2 0xD49 JUMPI PUSH1 0x0 DUP1 DUP1 DUP4 PUSH1 0x19 DUP3 SWAP6 ADD SWAP1 PUSH1 0x1A DUP3 SLOAD SWAP2 PUSH2 0xCD7 PUSH1 0xFF DUP5 PUSH1 0xA8 SHR AND ISZERO PUSH2 0x3D59 JUMP JUMPDEST ADD SLOAD PUSH2 0xFFFF PUSH1 0xA0 SHL NOT DUP3 AND PUSH1 0x1 PUSH1 0xA8 SHL OR SWAP1 SWAP3 SSTORE SWAP1 SWAP6 DUP7 SWAP2 DUP4 SWAP2 SWAP1 DUP4 ISZERO PUSH2 0xD3F JUMPI JUMPDEST AND SWAP1 CALL ISZERO PUSH2 0xD33 JUMPI PUSH1 0x40 PUSH32 0x398ABC1C2B2E46EC68F879C3AC11BE927EDE743D80D52D9968CBA00343BF074F SWAP2 DUP2 MLOAD SWAP1 DUP2 MSTORE TIMESTAMP PUSH1 0x20 DUP3 ADD MSTORE LOG2 STOP JUMPDEST PUSH1 0x40 MLOAD RETURNDATASIZE PUSH1 0x0 DUP3 RETURNDATACOPY RETURNDATASIZE SWAP1 REVERT JUMPDEST PUSH2 0x8FC SWAP3 POP PUSH2 0xCF9 JUMP JUMPDEST PUSH1 0x40 MLOAD PUSH3 0x461BCD PUSH1 0xE5 SHL DUP2 MSTORE PUSH1 0x20 PUSH1 0x4 DUP3 ADD MSTORE PUSH1 0x16 PUSH1 0x24 DUP3 ADD MSTORE PUSH22 0x10DBDB9D1C9858DD081B9BDD08195B991959081E595D PUSH1 0x52 SHL PUSH1 0x44 DUP3 ADD MSTORE PUSH1 0x64 SWAP1 REVERT JUMPDEST CALLVALUE PUSH2 0x162 JUMPI PUSH1 0x20 CALLDATASIZE PUSH1 0x3 NOT ADD SLT PUSH2 0x162 JUMPI PUSH1 0x1 PUSH1 0x1 PUSH1 0xD0 SHL SUB NOT PUSH2 0xDA9 PUSH2 0x35DE JUMP JUMPDEST AND PUSH1 0x0 MSTORE PUSH1 0x0 PUSH1 0x20 MSTORE PUSH1 0x20 PUSH1 0x1A PUSH1 0x40 PUSH1 0x0 KECCAK256 ADD SLOAD PUSH1 0x40 MLOAD SWAP1 DUP2 MSTORE RETURN JUMPDEST CALLVALUE PUSH2 0x162 JUMPI PUSH1 0x20 CALLDATASIZE PUSH1 0x3 NOT ADD SLT PUSH2 0x162 JUMPI PUSH1 0x1 PUSH1 0x1 PUSH1 0xD0 SHL SUB NOT PUSH2 0xDE7 PUSH2 0x35DE JUMP JUMPDEST AND PUSH1 0x0 MSTORE PUSH1 0x1 PUSH1 0x20 MSTORE PUSH1 0x20 PUSH1 0x1 DUP1 PUSH1 0xA0 SHL SUB PUSH1 0x40 PUSH1 0x0 KECCAK256 SLOAD AND PUSH1 0x40 MLOAD SWAP1 DUP2 MSTORE RETURN JUMPDEST CALLVALUE PUSH2 0x162 JUMPI PUSH1 0x40 CALLDATASIZE PUSH1 0x3 NOT ADD SLT PUSH2 0x162 JUMPI PUSH1 0x1 PUSH1 0x1 PUSH1 0xD0 SHL SUB NOT PUSH2 0xE2A PUSH2 0x35DE JUMP JUMPDEST AND DUP1 PUSH1 0x0 MSTORE PUSH1 0x20 PUSH1 0x0 DUP2 MSTORE PUSH2 0xE50 PUSH1 0x1 DUP1 PUSH1 0xA0 SHL SUB PUSH1 0x19 PUSH1 0x40 PUSH1 0x0 KECCAK256 ADD SLOAD AND CALLER EQ PUSH2 0x3B0F JUMP JUMPDEST DUP2 PUSH1 0x0 MSTORE PUSH1 0x2 DUP2 MSTORE PUSH2 0xE68 PUSH1 0x24 CALLDATALOAD PUSH1 0x40 PUSH1 0x0 KECCAK256 PUSH2 0x36BF JUMP JUMPDEST POP PUSH1 0x2 DUP2 ADD PUSH2 0xE7A PUSH1 0xFF DUP3 SLOAD AND PUSH2 0x3C47 JUMP JUMPDEST DUP2 SLOAD DUP5 PUSH1 0x0 MSTORE PUSH1 0x0 DUP5 MSTORE PUSH2 0xE98 PUSH1 0x1A PUSH1 0x40 PUSH1 0x0 KECCAK256 ADD SLOAD DUP3 GT ISZERO PUSH2 0x3DE7 JUMP JUMPDEST DUP5 PUSH1 0x0 MSTORE PUSH1 0x0 DUP5 MSTORE PUSH1 0x1A PUSH1 0x40 PUSH1 0x0 KECCAK256 ADD DUP1 SLOAD SWAP2 DUP3 SUB SWAP2 DUP3 GT PUSH2 0xF44 JUMPI SSTORE PUSH1 0xFF NOT DUP2 SLOAD AND SWAP1 SSTORE PUSH1 0x0 DUP1 DUP1 DUP1 DUP5 SLOAD DUP2 DUP2 ISZERO PUSH2 0xF3B JUMPI JUMPDEST CALLER SWAP1 CALL ISZERO PUSH2 0xD33 JUMPI PUSH32 0x398ABC1C2B2E46EC68F879C3AC11BE927EDE743D80D52D9968CBA00343BF074F SWAP2 PUSH1 0x40 SWAP2 DUP5 PUSH1 0x0 MSTORE PUSH1 0x0 DUP3 MSTORE DUP3 PUSH1 0x0 KECCAK256 PUSH1 0x1A DUP2 ADD SLOAD ISZERO PUSH2 0xF20 JUMPI JUMPDEST POP SLOAD SWAP1 DUP3 MLOAD SWAP2 DUP3 MSTORE TIMESTAMP SWAP1 DUP3 ADD MSTORE LOG2 STOP JUMPDEST PUSH1 0x19 ADD DUP1 SLOAD PUSH2 0xFFFF PUSH1 0xA8 SHL NOT AND PUSH1 0x1 PUSH1 0xA8 SHL OR SWAP1 SSTORE DUP6 PUSH2 0xF10 JUMP JUMPDEST POP PUSH2 0x8FC PUSH2 0xECC JUMP JUMPDEST PUSH4 0x4E487B71 PUSH1 0xE0 SHL PUSH1 0x0 MSTORE PUSH1 0x11 PUSH1 0x4 MSTORE PUSH1 0x24 PUSH1 0x0 REVERT JUMPDEST CALLVALUE PUSH2 0x162 JUMPI PUSH1 0x40 CALLDATASIZE PUSH1 0x3 NOT ADD SLT PUSH2 0x162 JUMPI PUSH2 0xF73 PUSH2 0x35DE JUMP JUMPDEST PUSH1 0x1 PUSH1 0x1 PUSH1 0xD0 SHL SUB NOT AND PUSH1 0x0 DUP2 DUP2 MSTORE PUSH1 0x1 PUSH1 0x20 SWAP1 DUP2 MSTORE PUSH1 0x40 SWAP1 SWAP2 KECCAK256 SLOAD PUSH1 0x24 CALLDATALOAD SWAP1 PUSH2 0xFA7 SWAP1 PUSH1 0x1 PUSH1 0x1 PUSH1 0xA0 SHL SUB AND CALLER EQ PUSH2 0x3CFF JUMP JUMPDEST DUP3 PUSH1 0x0 MSTORE PUSH1 0x0 DUP3 MSTORE PUSH1 0xFF PUSH1 0x19 PUSH1 0x40 PUSH1 0x0 KECCAK256 ADD SLOAD PUSH1 0xA0 SHR AND ISZERO PUSH2 0x10D5 JUMPI DUP3 PUSH1 0x0 MSTORE PUSH1 0x0 DUP3 MSTORE PUSH2 0xFE3 PUSH1 0xFF PUSH1 0x19 PUSH1 0x40 PUSH1 0x0 KECCAK256 ADD SLOAD PUSH1 0xA8 SHR AND ISZERO PUSH2 0x3D59 JUMP JUMPDEST DUP3 PUSH1 0x0 MSTORE PUSH1 0x0 DUP3 MSTORE PUSH2 0x1002 PUSH1 0xFF PUSH1 0x19 PUSH1 0x40 PUSH1 0x0 KECCAK256 ADD SLOAD PUSH1 0xB0 SHR AND PUSH2 0x3DA5 JUMP JUMPDEST DUP3 PUSH1 0x0 MSTORE PUSH1 0x0 DUP3 MSTORE PUSH2 0x101E PUSH1 0x1A PUSH1 0x40 PUSH1 0x0 KECCAK256 ADD SLOAD DUP3 GT ISZERO PUSH2 0x3DE7 JUMP JUMPDEST DUP3 PUSH1 0x0 MSTORE PUSH1 0x2 DUP3 MSTORE PUSH1 0x40 PUSH1 0x0 KECCAK256 SWAP1 PUSH1 0x40 MLOAD SWAP3 PUSH2 0x1039 DUP5 PUSH2 0x35F5 JUMP JUMPDEST DUP2 DUP5 MSTORE DUP1 DUP5 ADD SWAP3 TIMESTAMP DUP5 MSTORE PUSH1 0x40 DUP6 ADD SWAP1 PUSH1 0x1 DUP3 MSTORE DUP1 SLOAD PUSH1 0x1 PUSH1 0x40 SHL DUP2 LT ISZERO PUSH2 0x631 JUMPI PUSH2 0x1069 SWAP2 PUSH1 0x1 DUP3 ADD DUP2 SSTORE PUSH2 0x36BF JUMP JUMPDEST SWAP6 SWAP1 SWAP6 PUSH2 0x10BF JUMPI PUSH32 0x953FE04A94FF7CE86DC3B4BDDDCB01910B42E877955AD5013702D3B195E59FC8 SWAP6 PUSH1 0x40 SWAP6 PUSH1 0x2 SWAP3 MLOAD DUP3 SSTORE MLOAD PUSH1 0x1 DUP3 ADD SSTORE ADD SWAP1 MLOAD ISZERO ISZERO PUSH1 0xFF DUP1 NOT DUP4 SLOAD AND SWAP2 AND OR SWAP1 SSTORE DUP3 MLOAD SWAP2 DUP3 MSTORE TIMESTAMP SWAP1 DUP3 ADD MSTORE LOG2 STOP JUMPDEST PUSH4 0x4E487B71 PUSH1 0xE0 SHL PUSH1 0x0 MSTORE PUSH1 0x0 PUSH1 0x4 MSTORE PUSH1 0x24 PUSH1 0x0 REVERT JUMPDEST PUSH1 0x40 MLOAD PUSH3 0x461BCD PUSH1 0xE5 SHL DUP2 MSTORE PUSH1 0x4 DUP2 ADD DUP4 SWAP1 MSTORE PUSH1 0x10 PUSH1 0x24 DUP3 ADD MSTORE PUSH16 0x11195C1BDCDA5D081B9BDD081C185A59 PUSH1 0x82 SHL PUSH1 0x44 DUP3 ADD MSTORE PUSH1 0x64 SWAP1 REVERT JUMPDEST CALLVALUE PUSH2 0x162 JUMPI PUSH1 0x20 CALLDATASIZE PUSH1 0x3 NOT ADD SLT PUSH2 0x162 JUMPI PUSH1 0x1 PUSH1 0x1 PUSH1 0xD0 SHL SUB NOT PUSH2 0x112F PUSH2 0x35DE JUMP JUMPDEST AND PUSH1 0x0 MSTORE PUSH1 0x0 PUSH1 0x20 MSTORE PUSH1 0x40 PUSH1 0x0 KECCAK256 DUP1 SLOAD PUSH1 0x1 DUP3 ADD PUSH2 0x114C SWAP1 PUSH2 0x3A47 JUMP JUMPDEST SWAP2 PUSH2 0x1159 PUSH1 0x4 DUP3 ADD PUSH2 0x3A47 JUMP JUMPDEST PUSH2 0x1165 PUSH1 0x7 DUP4 ADD PUSH2 0x3A7F JUMP JUMPDEST PUSH2 0x1171 PUSH1 0x12 DUP5 ADD PUSH2 0x39A2 JUMP JUMPDEST PUSH2 0x117D PUSH1 0x16 DUP6 ADD PUSH2 0x39A2 JUMP JUMPDEST PUSH2 0x1189 PUSH1 0x17 DUP7 ADD PUSH2 0x39A2 JUMP JUMPDEST SWAP2 PUSH2 0x1196 PUSH1 0x18 DUP8 ADD PUSH2 0x39A2 JUMP JUMPDEST SWAP4 PUSH1 0x19 DUP8 ADD SLOAD SWAP7 PUSH1 0x1A ADD SLOAD SWAP6 PUSH1 0x40 MLOAD SWAP10 DUP11 SWAP10 PUSH2 0x1A0 SWAP1 DUP12 MSTORE DUP1 PUSH1 0x20 DUP13 ADD MSTORE DUP11 ADD PUSH2 0x11BF SWAP2 PUSH2 0x3739 JUMP JUMPDEST DUP10 DUP2 SUB PUSH1 0x40 DUP12 ADD MSTORE PUSH2 0x11D0 SWAP2 PUSH2 0x3739 JUMP JUMPDEST DUP9 DUP2 SUB PUSH1 0x60 DUP11 ADD MSTORE PUSH2 0x11E1 SWAP2 PUSH2 0x377B JUMP JUMPDEST DUP8 DUP2 SUB PUSH1 0x80 DUP10 ADD MSTORE PUSH2 0x11F2 SWAP2 PUSH2 0x3714 JUMP JUMPDEST DUP7 DUP2 SUB PUSH1 0xA0 DUP9 ADD MSTORE PUSH2 0x1203 SWAP2 PUSH2 0x3714 JUMP JUMPDEST DUP6 DUP2 SUB PUSH1 0xC0 DUP8 ADD MSTORE PUSH2 0x1214 SWAP2 PUSH2 0x3714 JUMP JUMPDEST DUP5 DUP2 SUB PUSH1 0xE0 DUP7 ADD MSTORE PUSH2 0x1225 SWAP2 PUSH2 0x3714 JUMP JUMPDEST SWAP2 PUSH1 0x1 PUSH1 0xA0 SHL PUSH1 0x1 SWAP1 SUB DUP2 AND PUSH2 0x100 DUP6 ADD MSTORE DUP1 PUSH1 0xA0 SHR PUSH1 0xFF AND ISZERO ISZERO PUSH2 0x120 DUP6 ADD MSTORE DUP1 PUSH1 0xA8 SHR PUSH1 0xFF AND ISZERO ISZERO PUSH2 0x140 DUP6 ADD MSTORE PUSH1 0xB0 SHR PUSH1 0xFF AND ISZERO ISZERO PUSH2 0x160 DUP5 ADD MSTORE PUSH2 0x180 DUP4 ADD MSTORE SUB SWAP1 RETURN JUMPDEST CALLVALUE PUSH2 0x162 JUMPI PUSH1 0x3 NOT PUSH2 0x160 CALLDATASIZE DUP3 ADD SLT PUSH2 0x162 JUMPI PUSH2 0x1288 PUSH2 0x35DE JUMP JUMPDEST SWAP1 PUSH1 0x24 CALLDATALOAD PUSH1 0x1 PUSH1 0x1 PUSH1 0x40 SHL SUB DUP2 GT PUSH2 0x162 JUMPI PUSH2 0x12A8 SWAP1 CALLDATASIZE SWAP1 PUSH1 0x4 ADD PUSH2 0x385B JUMP JUMPDEST SWAP1 PUSH1 0x44 CALLDATALOAD PUSH1 0x1 PUSH1 0x1 PUSH1 0x40 SHL SUB DUP2 GT PUSH2 0x162 JUMPI PUSH2 0x12C8 SWAP1 CALLDATASIZE SWAP1 PUSH1 0x4 ADD PUSH2 0x385B JUMP JUMPDEST SWAP1 PUSH1 0x64 CALLDATALOAD SWAP1 PUSH1 0x1 PUSH1 0x1 PUSH1 0x40 SHL SUB DUP3 GT PUSH2 0x162 JUMPI PUSH2 0x160 SWAP1 DUP3 CALLDATASIZE SUB ADD SLT PUSH2 0x162 JUMPI PUSH1 0x40 MLOAD SWAP1 PUSH2 0x12F5 DUP3 PUSH2 0x362C JUMP JUMPDEST DUP1 PUSH1 0x4 ADD CALLDATALOAD PUSH1 0x1 PUSH1 0x1 PUSH1 0x40 SHL SUB DUP2 GT PUSH2 0x162 JUMPI PUSH2 0x1318 SWAP1 PUSH1 0x4 CALLDATASIZE SWAP2 DUP5 ADD ADD PUSH2 0x3669 JUMP JUMPDEST DUP3 MSTORE PUSH1 0x24 DUP2 ADD CALLDATALOAD PUSH1 0x1 PUSH1 0x1 PUSH1 0x40 SHL SUB DUP2 GT PUSH2 0x162 JUMPI PUSH2 0x133D SWAP1 PUSH1 0x4 CALLDATASIZE SWAP2 DUP5 ADD ADD PUSH2 0x3669 JUMP JUMPDEST PUSH1 0x20 DUP4 ADD MSTORE PUSH1 0x44 DUP2 ADD CALLDATALOAD PUSH1 0x40 DUP4 ADD MSTORE PUSH1 0x64 DUP2 ADD CALLDATALOAD PUSH1 0x60 DUP4 ADD MSTORE PUSH1 0x84 DUP2 ADD CALLDATALOAD PUSH1 0x80 DUP4 ADD MSTORE PUSH1 0xA4 DUP2 ADD CALLDATALOAD PUSH1 0xA0 DUP4 ADD MSTORE PUSH1 0xC4 DUP2 ADD CALLDATALOAD SWAP1 PUSH1 0x1 PUSH1 0x1 PUSH1 0x40 SHL SUB DUP3 GT PUSH2 0x162 JUMPI PUSH2 0x1391 PUSH2 0x144 SWAP3 PUSH1 0x4 CALLDATASIZE SWAP2 DUP5 ADD ADD PUSH2 0x3669 JUMP JUMPDEST PUSH1 0xC0 DUP5 ADD MSTORE PUSH1 0xE4 DUP2 ADD CALLDATALOAD PUSH1 0xE0 DUP5 ADD MSTORE PUSH2 0x104 DUP2 ADD CALLDATALOAD PUSH2 0x100 DUP5 ADD MSTORE PUSH2 0x124 DUP2 ADD CALLDATALOAD PUSH2 0x120 DUP5 ADD MSTORE ADD CALLDATALOAD PUSH2 0x140 DUP3 ADD MSTORE PUSH1 0x84 CALLDATALOAD PUSH1 0x1 PUSH1 0x1 PUSH1 0x40 SHL SUB DUP2 GT PUSH2 0x162 JUMPI PUSH2 0x13DF SWAP1 CALLDATASIZE SWAP1 PUSH1 0x4 ADD PUSH2 0x3669 JUMP JUMPDEST PUSH1 0xA4 CALLDATALOAD PUSH1 0x1 PUSH1 0x1 PUSH1 0x40 SHL SUB DUP2 GT PUSH2 0x162 JUMPI PUSH2 0x13FE SWAP1 CALLDATASIZE SWAP1 PUSH1 0x4 ADD PUSH2 0x38E9 JUMP JUMPDEST PUSH1 0xC4 CALLDATALOAD PUSH1 0x1 PUSH1 0x1 PUSH1 0x40 SHL SUB DUP2 GT PUSH2 0x162 JUMPI PUSH2 0x141D SWAP1 CALLDATASIZE SWAP1 PUSH1 0x4 ADD PUSH2 0x38E9 JUMP JUMPDEST PUSH1 0x1 PUSH1 0x1 PUSH1 0x40 SHL SUB PUSH1 0xE4 CALLDATALOAD GT PUSH2 0x162 JUMPI PUSH2 0x143C CALLDATASIZE PUSH1 0xE4 CALLDATALOAD PUSH1 0x4 ADD PUSH2 0x38E9 JUMP JUMPDEST SWAP1 PUSH1 0x1 PUSH1 0x1 PUSH1 0x40 SHL SUB PUSH2 0x104 CALLDATALOAD GT PUSH2 0x162 JUMPI PUSH2 0x145E CALLDATASIZE PUSH2 0x104 CALLDATALOAD PUSH1 0x4 ADD PUSH2 0x3669 JUMP JUMPDEST SWAP3 PUSH1 0x1 PUSH1 0x1 PUSH1 0x40 SHL SUB PUSH2 0x124 CALLDATALOAD GT PUSH2 0x162 JUMPI PUSH2 0x1480 CALLDATASIZE PUSH2 0x124 CALLDATALOAD PUSH1 0x4 ADD PUSH2 0x3669 JUMP JUMPDEST SWAP5 PUSH2 0x144 CALLDATALOAD PUSH1 0x1 PUSH1 0x1 PUSH1 0x40 SHL SUB DUP2 GT PUSH2 0x162 JUMPI PUSH2 0x14A1 SWAP1 CALLDATASIZE SWAP1 PUSH1 0x4 ADD PUSH2 0x3669 JUMP JUMPDEST PUSH1 0x1 PUSH1 0x1 PUSH1 0xD0 SHL SUB NOT DUP12 AND PUSH1 0x0 SWAP1 DUP2 MSTORE PUSH1 0x1 PUSH1 0x20 MSTORE PUSH1 0x40 SWAP1 KECCAK256 SLOAD SWAP1 SWAP8 SWAP1 PUSH1 0x1 PUSH1 0x1 PUSH1 0xA0 SHL SUB AND PUSH2 0x29A1 JUMPI PUSH2 0x100 DUP2 ADD MLOAD SWAP9 PUSH1 0x40 MLOAD SWAP11 PUSH2 0x14DF DUP13 PUSH2 0x3610 JUMP JUMPDEST TIMESTAMP DUP13 MSTORE PUSH1 0x20 DUP13 ADD MSTORE PUSH1 0x40 DUP12 ADD MSTORE PUSH1 0x60 DUP11 ADD MSTORE PUSH1 0x80 DUP10 ADD MSTORE PUSH1 0xA0 DUP9 ADD MSTORE PUSH1 0xC0 DUP8 ADD MSTORE PUSH1 0xE0 DUP7 ADD MSTORE PUSH2 0x100 DUP6 ADD MSTORE PUSH2 0x120 DUP5 ADD MSTORE PUSH2 0x140 DUP4 ADD MSTORE PUSH1 0x0 PUSH2 0x160 DUP4 ADD MSTORE PUSH1 0x0 PUSH2 0x180 DUP4 ADD MSTORE PUSH1 0x0 PUSH2 0x1A0 DUP4 ADD MSTORE PUSH1 0x0 PUSH2 0x1C0 DUP4 ADD MSTORE PUSH2 0x1E0 DUP3 ADD MSTORE PUSH6 0xFFFFFFFFFFFF PUSH1 0xD0 SHL DUP3 AND PUSH1 0x0 MSTORE PUSH1 0x0 PUSH1 0x20 MSTORE PUSH1 0x40 PUSH1 0x0 KECCAK256 SWAP2 DUP2 MLOAD DUP4 SSTORE PUSH1 0x20 DUP3 ADD MLOAD DUP1 MLOAD DUP1 MLOAD SWAP1 PUSH1 0x1 PUSH1 0x1 PUSH1 0x40 SHL SUB DUP3 GT PUSH2 0x631 JUMPI PUSH2 0x1580 PUSH1 0x1 DUP8 ADD SLOAD PUSH2 0x3968 JUMP JUMPDEST PUSH1 0x1F DUP2 GT PUSH2 0x296C JUMPI JUMPDEST POP PUSH1 0x20 SWAP1 PUSH1 0x1F DUP4 GT PUSH1 0x1 EQ PUSH2 0x28FA JUMPI PUSH2 0x15BA SWAP3 SWAP2 PUSH1 0x0 SWAP2 DUP4 PUSH2 0x581 JUMPI POP POP DUP2 PUSH1 0x1 SHL SWAP2 PUSH1 0x0 NOT SWAP1 PUSH1 0x3 SHL SHR NOT AND OR SWAP1 JUMP JUMPDEST PUSH1 0x1 DUP6 ADD SSTORE JUMPDEST PUSH1 0x20 DUP2 ADD MLOAD DUP1 MLOAD SWAP1 PUSH1 0x1 PUSH1 0x1 PUSH1 0x40 SHL SUB DUP3 GT PUSH2 0x631 JUMPI PUSH2 0x15E3 PUSH1 0x2 DUP8 ADD SLOAD PUSH2 0x3968 JUMP JUMPDEST PUSH1 0x1F DUP2 GT PUSH2 0x28C5 JUMPI JUMPDEST POP PUSH1 0x20 SWAP1 PUSH1 0x1F DUP4 GT PUSH1 0x1 EQ PUSH2 0x2852 JUMPI SWAP2 DUP1 PUSH2 0x1621 SWAP3 PUSH1 0x40 SWAP6 SWAP5 PUSH1 0x0 SWAP3 PUSH2 0x1C74 JUMPI POP POP DUP2 PUSH1 0x1 SHL SWAP2 PUSH1 0x0 NOT SWAP1 PUSH1 0x3 SHL SHR NOT AND OR SWAP1 JUMP JUMPDEST PUSH1 0x2 DUP7 ADD SSTORE JUMPDEST ADD MLOAD SWAP3 DUP4 MLOAD PUSH1 0x1 PUSH1 0x1 PUSH1 0x40 SHL SUB DUP2 GT PUSH2 0x631 JUMPI PUSH2 0x1647 PUSH1 0x3 DUP4 ADD SLOAD PUSH2 0x3968 JUMP JUMPDEST PUSH1 0x1F DUP2 GT PUSH2 0x281D JUMPI JUMPDEST POP PUSH1 0x20 PUSH1 0x1F DUP3 GT PUSH1 0x1 EQ PUSH2 0x27AE JUMPI DUP2 SWAP1 PUSH2 0x1683 SWAP4 SWAP5 SWAP6 SWAP7 PUSH1 0x0 SWAP3 PUSH2 0x1D2A JUMPI POP POP DUP2 PUSH1 0x1 SHL SWAP2 PUSH1 0x0 NOT SWAP1 PUSH1 0x3 SHL SHR NOT AND OR SWAP1 JUMP JUMPDEST PUSH1 0x3 DUP3 ADD SSTORE JUMPDEST PUSH1 0x40 DUP4 ADD MLOAD DUP1 MLOAD DUP1 MLOAD SWAP1 PUSH1 0x1 PUSH1 0x1 PUSH1 0x40 SHL SUB DUP3 GT PUSH2 0x631 JUMPI PUSH2 0x16AE PUSH1 0x4 DUP6 ADD SLOAD PUSH2 0x3968 JUMP JUMPDEST PUSH1 0x1F DUP2 GT PUSH2 0x2779 JUMPI JUMPDEST POP PUSH1 0x20 SWAP1 PUSH1 0x1F DUP4 GT PUSH1 0x1 EQ PUSH2 0x2707 JUMPI PUSH2 0x16E8 SWAP3 SWAP2 PUSH1 0x0 SWAP2 DUP4 PUSH2 0x581 JUMPI POP POP DUP2 PUSH1 0x1 SHL SWAP2 PUSH1 0x0 NOT SWAP1 PUSH1 0x3 SHL SHR NOT AND OR SWAP1 JUMP JUMPDEST PUSH1 0x4 DUP4 ADD SSTORE JUMPDEST PUSH1 0x20 DUP2 ADD MLOAD DUP1 MLOAD SWAP1 PUSH1 0x1 PUSH1 0x1 PUSH1 0x40 SHL SUB DUP3 GT PUSH2 0x631 JUMPI PUSH2 0x1711 PUSH1 0x5 DUP6 ADD SLOAD PUSH2 0x3968 JUMP JUMPDEST PUSH1 0x1F DUP2 GT PUSH2 0x26D2 JUMPI JUMPDEST POP PUSH1 0x20 SWAP1 PUSH1 0x1F DUP4 GT PUSH1 0x1 EQ PUSH2 0x265F JUMPI SWAP2 DUP1 PUSH2 0x174F SWAP3 PUSH1 0x40 SWAP6 SWAP5 PUSH1 0x0 SWAP3 PUSH2 0x1C74 JUMPI POP POP DUP2 PUSH1 0x1 SHL SWAP2 PUSH1 0x0 NOT SWAP1 PUSH1 0x3 SHL SHR NOT AND OR SWAP1 JUMP JUMPDEST PUSH1 0x5 DUP5 ADD SSTORE JUMPDEST ADD MLOAD SWAP3 DUP4 MLOAD PUSH1 0x1 PUSH1 0x1 PUSH1 0x40 SHL SUB DUP2 GT PUSH2 0x631 JUMPI PUSH2 0x1775 PUSH1 0x6 DUP5 ADD SLOAD PUSH2 0x3968 JUMP JUMPDEST PUSH1 0x1F DUP2 GT PUSH2 0x262A JUMPI JUMPDEST POP PUSH1 0x20 PUSH1 0x1F DUP3 GT PUSH1 0x1 EQ PUSH2 0x25BB JUMPI DUP2 SWAP1 PUSH2 0x17B1 SWAP4 SWAP5 SWAP6 SWAP7 PUSH1 0x0 SWAP3 PUSH2 0x1D2A JUMPI POP POP DUP2 PUSH1 0x1 SHL SWAP2 PUSH1 0x0 NOT SWAP1 PUSH1 0x3 SHL SHR NOT AND OR SWAP1 JUMP JUMPDEST PUSH1 0x6 DUP4 ADD SSTORE JUMPDEST PUSH1 0x60 DUP2 ADD MLOAD DUP1 MLOAD DUP1 MLOAD SWAP1 PUSH1 0x1 PUSH1 0x1 PUSH1 0x40 SHL SUB DUP3 GT PUSH2 0x631 JUMPI PUSH2 0x17DC PUSH1 0x7 DUP7 ADD SLOAD PUSH2 0x3968 JUMP JUMPDEST PUSH1 0x1F DUP2 GT PUSH2 0x2586 JUMPI JUMPDEST POP PUSH1 0x20 SWAP1 PUSH1 0x1F DUP4 GT PUSH1 0x1 EQ PUSH2 0x2514 JUMPI PUSH2 0x1816 SWAP3 SWAP2 PUSH1 0x0 SWAP2 DUP4 PUSH2 0x581 JUMPI POP POP DUP2 PUSH1 0x1 SHL SWAP2 PUSH1 0x0 NOT SWAP1 PUSH1 0x3 SHL SHR NOT AND OR SWAP1 JUMP JUMPDEST PUSH1 0x7 DUP5 ADD SSTORE JUMPDEST PUSH1 0x20 DUP2 ADD MLOAD DUP1 MLOAD SWAP1 PUSH1 0x1 PUSH1 0x1 PUSH1 0x40 SHL SUB DUP3 GT PUSH2 0x631 JUMPI PUSH2 0x183F PUSH1 0x8 DUP7 ADD SLOAD PUSH2 0x3968 JUMP JUMPDEST PUSH1 0x1F DUP2 GT PUSH2 0x24DF JUMPI JUMPDEST POP PUSH1 0x20 SWAP1 PUSH1 0x1F DUP4 GT PUSH1 0x1 EQ PUSH2 0x246D JUMPI PUSH2 0x1879 SWAP3 SWAP2 PUSH1 0x0 SWAP2 DUP4 PUSH2 0x581 JUMPI POP POP DUP2 PUSH1 0x1 SHL SWAP2 PUSH1 0x0 NOT SWAP1 PUSH1 0x3 SHL SHR NOT AND OR SWAP1 JUMP JUMPDEST PUSH1 0x8 DUP5 ADD SSTORE JUMPDEST PUSH1 0x40 DUP2 ADD MLOAD PUSH1 0x9 DUP5 ADD SSTORE PUSH1 0x60 DUP2 ADD MLOAD PUSH1 0xA DUP5 ADD SSTORE PUSH1 0x80 DUP2 ADD MLOAD PUSH1 0xB DUP5 ADD SSTORE PUSH1 0xA0 DUP2 ADD MLOAD PUSH1 0xC DUP5 ADD SSTORE PUSH1 0xC0 DUP2 ADD MLOAD DUP1 MLOAD SWAP1 PUSH1 0x1 PUSH1 0x1 PUSH1 0x40 SHL SUB DUP3 GT PUSH2 0x631 JUMPI PUSH2 0x18CA PUSH1 0xD DUP7 ADD SLOAD PUSH2 0x3968 JUMP JUMPDEST PUSH1 0x1F DUP2 GT PUSH2 0x2438 JUMPI JUMPDEST POP PUSH1 0x20 SWAP1 PUSH1 0x1F DUP4 GT PUSH1 0x1 EQ PUSH2 0x23C4 JUMPI SWAP2 DUP1 PUSH2 0x1909 SWAP3 PUSH2 0x140 SWAP6 SWAP5 PUSH1 0x0 SWAP3 PUSH2 0x1C74 JUMPI POP POP DUP2 PUSH1 0x1 SHL SWAP2 PUSH1 0x0 NOT SWAP1 PUSH1 0x3 SHL SHR NOT AND OR SWAP1 JUMP JUMPDEST PUSH1 0xD DUP6 ADD SSTORE JUMPDEST PUSH1 0xE0 DUP2 ADD MLOAD PUSH1 0xE DUP6 ADD SSTORE PUSH2 0x100 DUP2 ADD MLOAD PUSH1 0xF DUP6 ADD SSTORE PUSH2 0x120 DUP2 ADD MLOAD PUSH1 0x10 DUP6 ADD SSTORE ADD MLOAD PUSH1 0x11 DUP4 ADD SSTORE PUSH1 0x80 DUP2 ADD MLOAD SWAP3 DUP4 MLOAD PUSH1 0x1 PUSH1 0x1 PUSH1 0x40 SHL SUB DUP2 GT PUSH2 0x631 JUMPI PUSH2 0x1959 PUSH1 0x12 DUP6 ADD SLOAD PUSH2 0x3968 JUMP JUMPDEST PUSH1 0x1F DUP2 GT PUSH2 0x238F JUMPI JUMPDEST POP PUSH1 0x20 PUSH1 0x1F DUP3 GT PUSH1 0x1 EQ PUSH2 0x2320 JUMPI DUP2 SWAP1 PUSH2 0x1995 SWAP4 SWAP5 SWAP6 SWAP7 PUSH1 0x0 SWAP3 PUSH2 0x1D2A JUMPI POP POP DUP2 PUSH1 0x1 SHL SWAP2 PUSH1 0x0 NOT SWAP1 PUSH1 0x3 SHL SHR NOT AND OR SWAP1 JUMP JUMPDEST PUSH1 0x12 DUP5 ADD SSTORE JUMPDEST PUSH1 0xA0 DUP3 ADD MLOAD DUP1 MLOAD SWAP1 PUSH1 0x1 PUSH1 0x40 SHL DUP3 GT PUSH2 0x631 JUMPI PUSH1 0x13 DUP6 ADD SLOAD DUP3 PUSH1 0x13 DUP8 ADD SSTORE DUP1 DUP4 LT PUSH2 0x22A8 JUMPI JUMPDEST POP PUSH1 0x20 ADD SWAP1 PUSH1 0x13 DUP6 ADD PUSH1 0x0 MSTORE PUSH1 0x20 PUSH1 0x0 KECCAK256 SWAP2 PUSH1 0x0 SWAP1 JUMPDEST DUP3 DUP3 LT PUSH2 0x2198 JUMPI POP POP POP POP PUSH1 0xC0 DUP3 ADD MLOAD DUP1 MLOAD SWAP1 PUSH1 0x1 PUSH1 0x40 SHL DUP3 GT PUSH2 0x631 JUMPI PUSH1 0x14 DUP6 ADD SLOAD DUP3 PUSH1 0x14 DUP8 ADD SSTORE DUP1 DUP4 LT PUSH2 0x2120 JUMPI JUMPDEST POP PUSH1 0x20 ADD SWAP1 PUSH1 0x14 DUP6 ADD PUSH1 0x0 MSTORE PUSH1 0x20 PUSH1 0x0 KECCAK256 SWAP2 PUSH1 0x0 SWAP1 JUMPDEST DUP3 DUP3 LT PUSH2 0x2010 JUMPI POP POP POP POP PUSH1 0xE0 DUP3 ADD MLOAD DUP1 MLOAD SWAP1 PUSH1 0x1 PUSH1 0x40 SHL DUP3 GT PUSH2 0x631 JUMPI PUSH1 0x15 DUP6 ADD SLOAD DUP3 PUSH1 0x15 DUP8 ADD SSTORE DUP1 DUP4 LT PUSH2 0x1F98 JUMPI JUMPDEST POP PUSH1 0x20 ADD SWAP1 PUSH1 0x15 DUP6 ADD PUSH1 0x0 MSTORE PUSH1 0x20 PUSH1 0x0 KECCAK256 SWAP2 PUSH1 0x0 SWAP1 JUMPDEST DUP3 DUP3 LT PUSH2 0x1E7D JUMPI POP POP POP POP PUSH2 0x100 DUP3 ADD MLOAD SWAP3 DUP4 MLOAD PUSH1 0x1 PUSH1 0x1 PUSH1 0x40 SHL SUB DUP2 GT PUSH2 0x631 JUMPI PUSH2 0x1A94 PUSH1 0x16 DUP4 ADD SLOAD PUSH2 0x3968 JUMP JUMPDEST PUSH1 0x1F DUP2 GT PUSH2 0x1E48 JUMPI JUMPDEST POP PUSH1 0x20 PUSH1 0x1F DUP3 GT PUSH1 0x1 EQ PUSH2 0x1DD9 JUMPI DUP2 SWAP1 PUSH2 0x1AD0 SWAP4 SWAP5 SWAP6 SWAP7 PUSH1 0x0 SWAP3 PUSH2 0x1D2A JUMPI POP POP DUP2 PUSH1 0x1 SHL SWAP2 PUSH1 0x0 NOT SWAP1 PUSH1 0x3 SHL SHR NOT AND OR SWAP1 JUMP JUMPDEST PUSH1 0x16 DUP3 ADD SSTORE JUMPDEST PUSH2 0x120 DUP4 ADD MLOAD SWAP3 DUP4 MLOAD PUSH1 0x1 PUSH1 0x1 PUSH1 0x40 SHL SUB DUP2 GT PUSH2 0x631 JUMPI PUSH2 0x1AFA PUSH1 0x17 DUP5 ADD SLOAD PUSH2 0x3968 JUMP JUMPDEST PUSH1 0x1F DUP2 GT PUSH2 0x1DA4 JUMPI JUMPDEST POP PUSH1 0x20 PUSH1 0x1F DUP3 GT PUSH1 0x1 EQ PUSH2 0x1D35 JUMPI DUP2 SWAP1 PUSH2 0x1B36 SWAP4 SWAP5 SWAP6 SWAP7 PUSH1 0x0 SWAP3 PUSH2 0x1D2A JUMPI POP POP DUP2 PUSH1 0x1 SHL SWAP2 PUSH1 0x0 NOT SWAP1 PUSH1 0x3 SHL SHR NOT AND OR SWAP1 JUMP JUMPDEST PUSH1 0x17 DUP4 ADD SSTORE JUMPDEST PUSH2 0x140 DUP2 ADD MLOAD DUP1 MLOAD SWAP1 PUSH1 0x1 PUSH1 0x1 PUSH1 0x40 SHL SUB DUP3 GT PUSH2 0x631 JUMPI PUSH2 0x1B60 PUSH1 0x18 DUP6 ADD SLOAD PUSH2 0x3968 JUMP JUMPDEST PUSH1 0x1F DUP2 GT PUSH2 0x1CF5 JUMPI JUMPDEST POP PUSH1 0x20 SWAP1 PUSH1 0x1F DUP4 GT PUSH1 0x1 EQ PUSH2 0x1C7F JUMPI DUP3 PUSH2 0x1E0 SWAP4 PUSH1 0x1A SWAP6 SWAP4 PUSH2 0x1BA1 SWAP4 PUSH1 0x0 SWAP3 PUSH2 0x1C74 JUMPI POP POP DUP2 PUSH1 0x1 SHL SWAP2 PUSH1 0x0 NOT SWAP1 PUSH1 0x3 SHL SHR NOT AND OR SWAP1 JUMP JUMPDEST PUSH1 0x18 DUP6 ADD SSTORE JUMPDEST PUSH1 0x19 DUP5 ADD PUSH1 0x1 DUP1 PUSH1 0xA0 SHL SUB PUSH2 0x160 DUP4 ADD MLOAD AND DUP2 SLOAD SWAP1 PUSH1 0xFF PUSH1 0xA0 SHL PUSH2 0x180 DUP6 ADD MLOAD ISZERO ISZERO PUSH1 0xA0 SHL AND PUSH1 0xFF PUSH1 0xA8 SHL PUSH2 0x1A0 DUP7 ADD MLOAD ISZERO ISZERO PUSH1 0xA8 SHL AND SWAP2 PUSH1 0xFF PUSH1 0xB0 SHL PUSH2 0x1C0 DUP8 ADD MLOAD ISZERO ISZERO PUSH1 0xB0 SHL AND SWAP4 PUSH9 0xFFFFFFFFFFFFFFFFFF PUSH1 0xB8 SHL AND OR OR OR OR SWAP1 SSTORE ADD MLOAD SWAP2 ADD SSTORE PUSH6 0xFFFFFFFFFFFF PUSH1 0xD0 SHL DUP2 AND PUSH1 0x0 MSTORE PUSH1 0x1 PUSH1 0x20 MSTORE PUSH1 0x40 PUSH1 0x0 KECCAK256 CALLER PUSH12 0xFFFFFFFFFFFFFFFFFFFFFFFF PUSH1 0xA0 SHL DUP3 SLOAD AND OR SWAP1 SSTORE PUSH1 0x40 MLOAD TIMESTAMP DUP2 MSTORE PUSH32 0xB33818A9E5A811C9AAB3A6A5BE602CBA781D631797144964A715FF66E01D54B1 PUSH1 0x20 CALLER SWAP4 PUSH6 0xFFFFFFFFFFFF PUSH1 0xD0 SHL AND SWAP3 LOG3 STOP JUMPDEST ADD MLOAD SWAP1 POP DUP9 DUP1 PUSH2 0x378 JUMP JUMPDEST SWAP1 PUSH1 0x18 DUP6 ADD PUSH1 0x0 MSTORE PUSH1 0x20 PUSH1 0x0 KECCAK256 SWAP2 PUSH1 0x0 JUMPDEST PUSH1 0x1F NOT DUP6 AND DUP2 LT PUSH2 0x1CDD JUMPI POP SWAP3 PUSH1 0x1A SWAP5 SWAP3 PUSH1 0x1 SWAP3 PUSH2 0x1E0 SWAP6 DUP4 PUSH1 0x1F NOT DUP2 AND LT PUSH2 0x1CC4 JUMPI JUMPDEST POP POP POP DUP2 SHL ADD PUSH1 0x18 DUP6 ADD SSTORE PUSH2 0x1BA7 JUMP JUMPDEST ADD MLOAD PUSH1 0x0 NOT PUSH1 0xF8 DUP5 PUSH1 0x3 SHL AND SHR NOT AND SWAP1 SSTORE DUP8 DUP1 DUP1 PUSH2 0x1CB4 JUMP JUMPDEST SWAP2 SWAP3 PUSH1 0x20 PUSH1 0x1 DUP2 SWAP3 DUP7 DUP6 ADD MLOAD DUP2 SSTORE ADD SWAP5 ADD SWAP3 ADD PUSH2 0x1C90 JUMP JUMPDEST PUSH2 0x1D24 SWAP1 PUSH1 0x18 DUP7 ADD PUSH1 0x0 MSTORE PUSH1 0x20 PUSH1 0x0 KECCAK256 PUSH1 0x1F DUP6 ADD PUSH1 0x5 SHR DUP2 ADD SWAP2 PUSH1 0x20 DUP7 LT PUSH2 0x627 JUMPI PUSH1 0x1F ADD PUSH1 0x5 SHR ADD SWAP1 PUSH2 0x3C30 JUMP JUMPDEST DUP6 PUSH2 0x1B69 JUMP JUMPDEST ADD MLOAD SWAP1 POP DUP7 DUP1 PUSH2 0x378 JUMP JUMPDEST PUSH1 0x17 DUP5 ADD PUSH1 0x0 MSTORE PUSH1 0x20 PUSH1 0x0 KECCAK256 SWAP1 PUSH1 0x0 JUMPDEST PUSH1 0x1F NOT DUP5 AND DUP2 LT PUSH2 0x1D8C JUMPI POP PUSH1 0x1 SWAP4 SWAP5 SWAP6 SWAP7 DUP4 PUSH1 0x1F NOT DUP2 AND LT PUSH2 0x1D73 JUMPI JUMPDEST POP POP POP DUP2 SHL ADD PUSH1 0x17 DUP4 ADD SSTORE PUSH2 0x1B3C JUMP JUMPDEST ADD MLOAD PUSH1 0x0 NOT PUSH1 0xF8 DUP5 PUSH1 0x3 SHL AND SHR NOT AND SWAP1 SSTORE DUP6 DUP1 DUP1 PUSH2 0x1D63 JUMP JUMPDEST SWAP1 SWAP2 PUSH1 0x20 PUSH1 0x1 DUP2 SWAP3 DUP6 DUP12 ADD MLOAD DUP2 SSTORE ADD SWAP4 ADD SWAP2 ADD PUSH2 0x1D45 JUMP JUMPDEST PUSH2 0x1DD3 SWAP1 PUSH1 0x17 DUP6 ADD PUSH1 0x0 MSTORE PUSH1 0x20 PUSH1 0x0 KECCAK256 PUSH1 0x1F DUP5 ADD PUSH1 0x5 SHR DUP2 ADD SWAP2 PUSH1 0x20 DUP6 LT PUSH2 0x627 JUMPI PUSH1 0x1F ADD PUSH1 0x5 SHR ADD SWAP1 PUSH2 0x3C30 JUMP JUMPDEST DUP6 PUSH2 0x1B03 JUMP JUMPDEST PUSH1 0x16 DUP4 ADD PUSH1 0x0 MSTORE PUSH1 0x20 PUSH1 0x0 KECCAK256 SWAP1 PUSH1 0x0 JUMPDEST PUSH1 0x1F NOT DUP5 AND DUP2 LT PUSH2 0x1E30 JUMPI POP PUSH1 0x1 SWAP4 SWAP5 SWAP6 SWAP7 DUP4 PUSH1 0x1F NOT DUP2 AND LT PUSH2 0x1E17 JUMPI JUMPDEST POP POP POP DUP2 SHL ADD PUSH1 0x16 DUP3 ADD SSTORE PUSH2 0x1AD6 JUMP JUMPDEST ADD MLOAD PUSH1 0x0 NOT PUSH1 0xF8 DUP5 PUSH1 0x3 SHL AND SHR NOT AND SWAP1 SSTORE DUP6 DUP1 DUP1 PUSH2 0x1E07 JUMP JUMPDEST SWAP1 SWAP2 PUSH1 0x20 PUSH1 0x1 DUP2 SWAP3 DUP6 DUP12 ADD MLOAD DUP2 SSTORE ADD SWAP4 ADD SWAP2 ADD PUSH2 0x1DE9 JUMP JUMPDEST PUSH2 0x1E77 SWAP1 PUSH1 0x16 DUP5 ADD PUSH1 0x0 MSTORE PUSH1 0x20 PUSH1 0x0 KECCAK256 PUSH1 0x1F DUP5 ADD PUSH1 0x5 SHR DUP2 ADD SWAP2 PUSH1 0x20 DUP6 LT PUSH2 0x627 JUMPI PUSH1 0x1F ADD PUSH1 0x5 SHR ADD SWAP1 PUSH2 0x3C30 JUMP JUMPDEST DUP6 PUSH2 0x1A9D JUMP JUMPDEST DUP1 MLOAD DUP1 MLOAD SWAP1 PUSH1 0x1 PUSH1 0x1 PUSH1 0x40 SHL SUB DUP3 GT PUSH2 0x631 JUMPI PUSH2 0x1E9A DUP7 SLOAD PUSH2 0x3968 JUMP JUMPDEST PUSH1 0x1F DUP2 GT PUSH2 0x1F66 JUMPI JUMPDEST POP PUSH1 0x20 SWAP1 PUSH1 0x1F DUP4 GT PUSH1 0x1 EQ PUSH2 0x1EF6 JUMPI SWAP3 PUSH2 0x1EDC DUP4 PUSH1 0x1 SWAP6 SWAP5 PUSH1 0x20 SWAP5 DUP8 SWAP7 PUSH1 0x0 SWAP3 PUSH2 0x1EEB JUMPI POP POP DUP2 PUSH1 0x1 SHL SWAP2 PUSH1 0x0 NOT SWAP1 PUSH1 0x3 SHL SHR NOT AND OR SWAP1 JUMP JUMPDEST DUP8 SSTORE JUMPDEST ADD SWAP5 ADD SWAP2 ADD SWAP1 SWAP3 PUSH2 0x1A65 JUMP JUMPDEST ADD MLOAD SWAP1 POP DUP14 DUP1 PUSH2 0x378 JUMP JUMPDEST SWAP1 DUP7 PUSH1 0x0 MSTORE PUSH1 0x20 PUSH1 0x0 KECCAK256 SWAP2 PUSH1 0x0 JUMPDEST PUSH1 0x1F NOT DUP6 AND DUP2 LT PUSH2 0x1F4E JUMPI POP DUP4 PUSH1 0x20 SWAP4 PUSH1 0x1 SWAP7 SWAP4 DUP8 SWAP7 SWAP4 DUP8 SWAP5 PUSH1 0x1F NOT DUP2 AND LT PUSH2 0x1F35 JUMPI JUMPDEST POP POP POP DUP2 SHL ADD DUP8 SSTORE PUSH2 0x1EDF JUMP JUMPDEST ADD MLOAD PUSH1 0x0 NOT PUSH1 0xF8 DUP5 PUSH1 0x3 SHL AND SHR NOT AND SWAP1 SSTORE DUP13 DUP1 DUP1 PUSH2 0x1F28 JUMP JUMPDEST SWAP2 SWAP3 PUSH1 0x20 PUSH1 0x1 DUP2 SWAP3 DUP7 DUP6 ADD MLOAD DUP2 SSTORE ADD SWAP5 ADD SWAP3 ADD PUSH2 0x1F04 JUMP JUMPDEST PUSH2 0x1F92 SWAP1 DUP8 PUSH1 0x0 MSTORE PUSH1 0x20 PUSH1 0x0 KECCAK256 PUSH1 0x1F DUP6 ADD PUSH1 0x5 SHR DUP2 ADD SWAP2 PUSH1 0x20 DUP7 LT PUSH2 0x627 JUMPI PUSH1 0x1F ADD PUSH1 0x5 SHR ADD SWAP1 PUSH2 0x3C30 JUMP JUMPDEST DUP10 PUSH2 0x1EA3 JUMP JUMPDEST PUSH1 0x15 DUP7 ADD PUSH1 0x0 MSTORE PUSH1 0x20 PUSH1 0x0 KECCAK256 SWAP1 DUP4 DUP3 ADD JUMPDEST DUP2 DUP4 ADD DUP2 LT PUSH2 0x1FB9 JUMPI POP POP PUSH2 0x1A4F JUMP JUMPDEST DUP1 PUSH2 0x1FC6 PUSH1 0x1 SWAP3 SLOAD PUSH2 0x3968 JUMP JUMPDEST DUP1 PUSH2 0x1FD3 JUMPI JUMPDEST POP ADD PUSH2 0x1FA9 JUMP JUMPDEST PUSH1 0x1F DUP2 GT DUP4 EQ PUSH2 0x1FE9 JUMPI POP PUSH1 0x0 DUP2 SSTORE JUMPDEST DUP10 PUSH2 0x1FCC JUMP JUMPDEST PUSH1 0x0 SWAP1 DUP3 DUP3 MSTORE PUSH2 0x2007 PUSH1 0x1F PUSH1 0x20 DUP5 KECCAK256 SWAP3 ADD PUSH1 0x5 SHR DUP3 ADD DUP6 DUP4 ADD PUSH2 0x3C30 JUMP JUMPDEST DUP2 DUP4 SSTORE SSTORE PUSH2 0x1FE3 JUMP JUMPDEST DUP1 MLOAD DUP1 MLOAD SWAP1 PUSH1 0x1 PUSH1 0x1 PUSH1 0x40 SHL SUB DUP3 GT PUSH2 0x631 JUMPI PUSH2 0x202D DUP7 SLOAD PUSH2 0x3968 JUMP JUMPDEST PUSH1 0x1F DUP2 GT PUSH2 0x20EE JUMPI JUMPDEST POP PUSH1 0x20 SWAP1 PUSH1 0x1F DUP4 GT PUSH1 0x1 EQ PUSH2 0x207E JUMPI SWAP3 PUSH2 0x206F DUP4 PUSH1 0x1 SWAP6 SWAP5 PUSH1 0x20 SWAP5 DUP8 SWAP7 PUSH1 0x0 SWAP3 PUSH2 0x1EEB JUMPI POP POP DUP2 PUSH1 0x1 SHL SWAP2 PUSH1 0x0 NOT SWAP1 PUSH1 0x3 SHL SHR NOT AND OR SWAP1 JUMP JUMPDEST DUP8 SSTORE JUMPDEST ADD SWAP5 ADD SWAP2 ADD SWAP1 SWAP3 PUSH2 0x1A1E JUMP JUMPDEST SWAP1 DUP7 PUSH1 0x0 MSTORE PUSH1 0x20 PUSH1 0x0 KECCAK256 SWAP2 PUSH1 0x0 JUMPDEST PUSH1 0x1F NOT DUP6 AND DUP2 LT PUSH2 0x20D6 JUMPI POP DUP4 PUSH1 0x20 SWAP4 PUSH1 0x1 SWAP7 SWAP4 DUP8 SWAP7 SWAP4 DUP8 SWAP5 PUSH1 0x1F NOT DUP2 AND LT PUSH2 0x20BD JUMPI JUMPDEST POP POP POP DUP2 SHL ADD DUP8 SSTORE PUSH2 0x2072 JUMP JUMPDEST ADD MLOAD PUSH1 0x0 NOT PUSH1 0xF8 DUP5 PUSH1 0x3 SHL AND SHR NOT AND SWAP1 SSTORE DUP13 DUP1 DUP1 PUSH2 0x20B0 JUMP JUMPDEST SWAP2 SWAP3 PUSH1 0x20 PUSH1 0x1 DUP2 SWAP3 DUP7 DUP6 ADD MLOAD DUP2 SSTORE ADD SWAP5 ADD SWAP3 ADD PUSH2 0x208C JUMP JUMPDEST PUSH2 0x211A SWAP1 DUP8 PUSH1 0x0 MSTORE PUSH1 0x20 PUSH1 0x0 KECCAK256 PUSH1 0x1F DUP6 ADD PUSH1 0x5 SHR DUP2 ADD SWAP2 PUSH1 0x20 DUP7 LT PUSH2 0x627 JUMPI PUSH1 0x1F ADD PUSH1 0x5 SHR ADD SWAP1 PUSH2 0x3C30 JUMP JUMPDEST DUP10 PUSH2 0x2036 JUMP JUMPDEST PUSH1 0x14 DUP7 ADD PUSH1 0x0 MSTORE PUSH1 0x20 PUSH1 0x0 KECCAK256 SWAP1 DUP4 DUP3 ADD JUMPDEST DUP2 DUP4 ADD DUP2 LT PUSH2 0x2141 JUMPI POP POP PUSH2 0x1A08 JUMP JUMPDEST DUP1 PUSH2 0x214E PUSH1 0x1 SWAP3 SLOAD PUSH2 0x3968 JUMP JUMPDEST DUP1 PUSH2 0x215B JUMPI JUMPDEST POP ADD PUSH2 0x2131 JUMP JUMPDEST PUSH1 0x1F DUP2 GT DUP4 EQ PUSH2 0x2171 JUMPI POP PUSH1 0x0 DUP2 SSTORE JUMPDEST DUP10 PUSH2 0x2154 JUMP JUMPDEST PUSH1 0x0 SWAP1 DUP3 DUP3 MSTORE PUSH2 0x218F PUSH1 0x1F PUSH1 0x20 DUP5 KECCAK256 SWAP3 ADD PUSH1 0x5 SHR DUP3 ADD DUP6 DUP4 ADD PUSH2 0x3C30 JUMP JUMPDEST DUP2 DUP4 SSTORE SSTORE PUSH2 0x216B JUMP JUMPDEST DUP1 MLOAD DUP1 MLOAD SWAP1 PUSH1 0x1 PUSH1 0x1 PUSH1 0x40 SHL SUB DUP3 GT PUSH2 0x631 JUMPI PUSH2 0x21B5 DUP7 SLOAD PUSH2 0x3968 JUMP JUMPDEST PUSH1 0x1F DUP2 GT PUSH2 0x2276 JUMPI JUMPDEST POP PUSH1 0x20 SWAP1 PUSH1 0x1F DUP4 GT PUSH1 0x1 EQ PUSH2 0x2206 JUMPI SWAP3 PUSH2 0x21F7 DUP4 PUSH1 0x1 SWAP6 SWAP5 PUSH1 0x20 SWAP5 DUP8 SWAP7 PUSH1 0x0 SWAP3 PUSH2 0x1EEB JUMPI POP POP DUP2 PUSH1 0x1 SHL SWAP2 PUSH1 0x0 NOT SWAP1 PUSH1 0x3 SHL SHR NOT AND OR SWAP1 JUMP JUMPDEST DUP8 SSTORE JUMPDEST ADD SWAP5 ADD SWAP2 ADD SWAP1 SWAP3 PUSH2 0x19D7 JUMP JUMPDEST SWAP1 DUP7 PUSH1 0x0 MSTORE PUSH1 0x20 PUSH1 0x0 KECCAK256 SWAP2 PUSH1 0x0 JUMPDEST PUSH1 0x1F NOT DUP6 AND DUP2 LT PUSH2 0x225E JUMPI POP DUP4 PUSH1 0x20 SWAP4 PUSH1 0x1 SWAP7 SWAP4 DUP8 SWAP7 SWAP4 DUP8 SWAP5 PUSH1 0x1F NOT DUP2 AND LT PUSH2 0x2245 JUMPI JUMPDEST POP POP POP DUP2 SHL ADD DUP8 SSTORE PUSH2 0x21FA JUMP JUMPDEST ADD MLOAD PUSH1 0x0 NOT PUSH1 0xF8 DUP5 PUSH1 0x3 SHL AND SHR NOT AND SWAP1 SSTORE DUP13 DUP1 DUP1 PUSH2 0x2238 JUMP JUMPDEST SWAP2 SWAP3 PUSH1 0x20 PUSH1 0x1 DUP2 SWAP3 DUP7 DUP6 ADD MLOAD DUP2 SSTORE ADD SWAP5 ADD SWAP3 ADD PUSH2 0x2214 JUMP JUMPDEST PUSH2 0x22A2 SWAP1 DUP8 PUSH1 0x0 MSTORE PUSH1 0x20 PUSH1 0x0 KECCAK256 PUSH1 0x1F DUP6 ADD PUSH1 0x5 SHR DUP2 ADD SWAP2 PUSH1 0x20 DUP7 LT PUSH2 0x627 JUMPI PUSH1 0x1F ADD PUSH1 0x5 SHR ADD SWAP1 PUSH2 0x3C30 JUMP JUMPDEST DUP10 PUSH2 0x21BE JUMP JUMPDEST PUSH1 0x13 DUP7 ADD PUSH1 0x0 MSTORE PUSH1 0x20 PUSH1 0x0 KECCAK256 SWAP1 DUP4 DUP3 ADD JUMPDEST DUP2 DUP4 ADD DUP2 LT PUSH2 0x22C9 JUMPI POP POP PUSH2 0x19C1 JUMP JUMPDEST DUP1 PUSH2 0x22D6 PUSH1 0x1 SWAP3 SLOAD PUSH2 0x3968 JUMP JUMPDEST DUP1 PUSH2 0x22E3 JUMPI JUMPDEST POP ADD PUSH2 0x22B9 JUMP JUMPDEST PUSH1 0x1F DUP2 GT DUP4 EQ PUSH2 0x22F9 JUMPI POP PUSH1 0x0 DUP2 SSTORE JUMPDEST DUP10 PUSH2 0x22DC JUMP JUMPDEST PUSH1 0x0 SWAP1 DUP3 DUP3 MSTORE PUSH2 0x2317 PUSH1 0x1F PUSH1 0x20 DUP5 KECCAK256 SWAP3 ADD PUSH1 0x5 SHR DUP3 ADD DUP6 DUP4 ADD PUSH2 0x3C30 JUMP JUMPDEST DUP2 DUP4 SSTORE SSTORE PUSH2 0x22F3 JUMP JUMPDEST PUSH1 0x12 DUP6 ADD PUSH1 0x0 MSTORE PUSH1 0x20 PUSH1 0x0 KECCAK256 SWAP1 PUSH1 0x0 JUMPDEST PUSH1 0x1F NOT DUP5 AND DUP2 LT PUSH2 0x2377 JUMPI POP PUSH1 0x1 SWAP4 SWAP5 SWAP6 SWAP7 DUP4 PUSH1 0x1F NOT DUP2 AND LT PUSH2 0x235E JUMPI JUMPDEST POP POP POP DUP2 SHL ADD PUSH1 0x12 DUP5 ADD SSTORE PUSH2 0x199B JUMP JUMPDEST ADD MLOAD PUSH1 0x0 NOT PUSH1 0xF8 DUP5 PUSH1 0x3 SHL AND SHR NOT AND SWAP1 SSTORE DUP6 DUP1 DUP1 PUSH2 0x234E JUMP JUMPDEST SWAP1 SWAP2 PUSH1 0x20 PUSH1 0x1 DUP2 SWAP3 DUP6 DUP12 ADD MLOAD DUP2 SSTORE ADD SWAP4 ADD SWAP2 ADD PUSH2 0x2330 JUMP JUMPDEST PUSH2 0x23BE SWAP1 PUSH1 0x12 DUP7 ADD PUSH1 0x0 MSTORE PUSH1 0x20 PUSH1 0x0 KECCAK256 PUSH1 0x1F DUP5 ADD PUSH1 0x5 SHR DUP2 ADD SWAP2 PUSH1 0x20 DUP6 LT PUSH2 0x627 JUMPI PUSH1 0x1F ADD PUSH1 0x5 SHR ADD SWAP1 PUSH2 0x3C30 JUMP JUMPDEST DUP6 PUSH2 0x1962 JUMP JUMPDEST SWAP1 PUSH1 0xD DUP7 ADD PUSH1 0x0 MSTORE PUSH1 0x20 PUSH1 0x0 KECCAK256 SWAP2 PUSH1 0x0 JUMPDEST PUSH1 0x1F NOT DUP6 AND DUP2 LT PUSH2 0x2420 JUMPI POP SWAP2 DUP4 SWAP2 PUSH1 0x1 SWAP4 PUSH2 0x140 SWAP7 SWAP6 PUSH1 0x1F NOT DUP2 AND LT PUSH2 0x2407 JUMPI JUMPDEST POP POP POP DUP2 SHL ADD PUSH1 0xD DUP6 ADD SSTORE PUSH2 0x190F JUMP JUMPDEST ADD MLOAD PUSH1 0x0 NOT PUSH1 0xF8 DUP5 PUSH1 0x3 SHL AND SHR NOT AND SWAP1 SSTORE DUP8 DUP1 DUP1 PUSH2 0x23F7 JUMP JUMPDEST SWAP2 SWAP3 PUSH1 0x20 PUSH1 0x1 DUP2 SWAP3 DUP7 DUP6 ADD MLOAD DUP2 SSTORE ADD SWAP5 ADD SWAP3 ADD PUSH2 0x23D5 JUMP JUMPDEST PUSH2 0x2467 SWAP1 PUSH1 0xD DUP8 ADD PUSH1 0x0 MSTORE PUSH1 0x20 PUSH1 0x0 KECCAK256 PUSH1 0x1F DUP6 ADD PUSH1 0x5 SHR DUP2 ADD SWAP2 PUSH1 0x20 DUP7 LT PUSH2 0x627 JUMPI PUSH1 0x1F ADD PUSH1 0x5 SHR ADD SWAP1 PUSH2 0x3C30 JUMP JUMPDEST DUP7 PUSH2 0x18D3 JUMP JUMPDEST SWAP2 SWAP1 PUSH1 0x8 DUP7 ADD PUSH1 0x0 MSTORE PUSH1 0x20 PUSH1 0x0 KECCAK256 SWAP1 PUSH1 0x0 SWAP4 JUMPDEST PUSH1 0x1F NOT DUP5 AND DUP6 LT PUSH2 0x24C4 JUMPI PUSH1 0x1 SWAP5 POP DUP4 PUSH1 0x1F NOT DUP2 AND LT PUSH2 0x24AB JUMPI JUMPDEST POP POP POP DUP2 SHL ADD PUSH1 0x8 DUP5 ADD SSTORE PUSH2 0x187F JUMP JUMPDEST ADD MLOAD PUSH1 0x0 NOT PUSH1 0xF8 DUP5 PUSH1 0x3 SHL AND SHR NOT AND SWAP1 SSTORE DUP7 DUP1 DUP1 PUSH2 0x249B JUMP JUMPDEST DUP2 DUP2 ADD MLOAD DUP4 SSTORE PUSH1 0x20 SWAP5 DUP6 ADD SWAP5 PUSH1 0x1 SWAP1 SWAP4 ADD SWAP3 SWAP1 SWAP2 ADD SWAP1 PUSH2 0x2480 JUMP JUMPDEST PUSH2 0x250E SWAP1 PUSH1 0x8 DUP8 ADD PUSH1 0x0 MSTORE PUSH1 0x20 PUSH1 0x0 KECCAK256 PUSH1 0x1F DUP6 ADD PUSH1 0x5 SHR DUP2 ADD SWAP2 PUSH1 0x20 DUP7 LT PUSH2 0x627 JUMPI PUSH1 0x1F ADD PUSH1 0x5 SHR ADD SWAP1 PUSH2 0x3C30 JUMP JUMPDEST DUP7 PUSH2 0x1848 JUMP JUMPDEST SWAP2 SWAP1 PUSH1 0x7 DUP7 ADD PUSH1 0x0 MSTORE PUSH1 0x20 PUSH1 0x0 KECCAK256 SWAP1 PUSH1 0x0 SWAP4 JUMPDEST PUSH1 0x1F NOT DUP5 AND DUP6 LT PUSH2 0x256B JUMPI PUSH1 0x1 SWAP5 POP DUP4 PUSH1 0x1F NOT DUP2 AND LT PUSH2 0x2552 JUMPI JUMPDEST POP POP POP DUP2 SHL ADD PUSH1 0x7 DUP5 ADD SSTORE PUSH2 0x181C JUMP JUMPDEST ADD MLOAD PUSH1 0x0 NOT PUSH1 0xF8 DUP5 PUSH1 0x3 SHL AND SHR NOT AND SWAP1 SSTORE DUP7 DUP1 DUP1 PUSH2 0x2542 JUMP JUMPDEST DUP2 DUP2 ADD MLOAD DUP4 SSTORE PUSH1 0x20 SWAP5 DUP6 ADD SWAP5 PUSH1 0x1 SWAP1 SWAP4 ADD SWAP3 SWAP1 SWAP2 ADD SWAP1 PUSH2 0x2527 JUMP JUMPDEST PUSH2 0x25B5 SWAP1 PUSH1 0x7 DUP8 ADD PUSH1 0x0 MSTORE PUSH1 0x20 PUSH1 0x0 KECCAK256 PUSH1 0x1F DUP6 ADD PUSH1 0x5 SHR DUP2 ADD SWAP2 PUSH1 0x20 DUP7 LT PUSH2 0x627 JUMPI PUSH1 0x1F ADD PUSH1 0x5 SHR ADD SWAP1 PUSH2 0x3C30 JUMP JUMPDEST DUP7 PUSH2 0x17E5 JUMP JUMPDEST PUSH1 0x6 DUP5 ADD PUSH1 0x0 MSTORE PUSH1 0x20 PUSH1 0x0 KECCAK256 SWAP1 PUSH1 0x0 JUMPDEST PUSH1 0x1F NOT DUP5 AND DUP2 LT PUSH2 0x2612 JUMPI POP PUSH1 0x1 SWAP4 SWAP5 SWAP6 SWAP7 DUP4 PUSH1 0x1F NOT DUP2 AND LT PUSH2 0x25F9 JUMPI JUMPDEST POP POP POP DUP2 SHL ADD PUSH1 0x6 DUP4 ADD SSTORE PUSH2 0x17B7 JUMP JUMPDEST ADD MLOAD PUSH1 0x0 NOT PUSH1 0xF8 DUP5 PUSH1 0x3 SHL AND SHR NOT AND SWAP1 SSTORE DUP6 DUP1 DUP1 PUSH2 0x25E9 JUMP JUMPDEST SWAP1 SWAP2 PUSH1 0x20 PUSH1 0x1 DUP2 SWAP3 DUP6 DUP12 ADD MLOAD DUP2 SSTORE ADD SWAP4 ADD SWAP2 ADD PUSH2 0x25CB JUMP JUMPDEST PUSH2 0x2659 SWAP1 PUSH1 0x6 DUP6 ADD PUSH1 0x0 MSTORE PUSH1 0x20 PUSH1 0x0 KECCAK256 PUSH1 0x1F DUP5 ADD PUSH1 0x5 SHR DUP2 ADD SWAP2 PUSH1 0x20 DUP6 LT PUSH2 0x627 JUMPI PUSH1 0x1F ADD PUSH1 0x5 SHR ADD SWAP1 PUSH2 0x3C30 JUMP JUMPDEST DUP6 PUSH2 0x177E JUMP JUMPDEST SWAP1 PUSH1 0x5 DUP6 ADD PUSH1 0x0 MSTORE PUSH1 0x20 PUSH1 0x0 KECCAK256 SWAP2 PUSH1 0x0 JUMPDEST PUSH1 0x1F NOT DUP6 AND DUP2 LT PUSH2 0x26BA JUMPI POP SWAP2 DUP4 SWAP2 PUSH1 0x1 SWAP4 PUSH1 0x40 SWAP7 SWAP6 PUSH1 0x1F NOT DUP2 AND LT PUSH2 0x26A1 JUMPI JUMPDEST POP POP POP DUP2 SHL ADD PUSH1 0x5 DUP5 ADD SSTORE PUSH2 0x1755 JUMP JUMPDEST ADD MLOAD PUSH1 0x0 NOT PUSH1 0xF8 DUP5 PUSH1 0x3 SHL AND SHR NOT AND SWAP1 SSTORE DUP8 DUP1 DUP1 PUSH2 0x2691 JUMP JUMPDEST SWAP2 SWAP3 PUSH1 0x20 PUSH1 0x1 DUP2 SWAP3 DUP7 DUP6 ADD MLOAD DUP2 SSTORE ADD SWAP5 ADD SWAP3 ADD PUSH2 0x2670 JUMP JUMPDEST PUSH2 0x2701 SWAP1 PUSH1 0x5 DUP7 ADD PUSH1 0x0 MSTORE PUSH1 0x20 PUSH1 0x0 KECCAK256 PUSH1 0x1F DUP6 ADD PUSH1 0x5 SHR DUP2 ADD SWAP2 PUSH1 0x20 DUP7 LT PUSH2 0x627 JUMPI PUSH1 0x1F ADD PUSH1 0x5 SHR ADD SWAP1 PUSH2 0x3C30 JUMP JUMPDEST DUP7 PUSH2 0x171A JUMP JUMPDEST SWAP2 SWAP1 PUSH1 0x4 DUP6 ADD PUSH1 0x0 MSTORE PUSH1 0x20 PUSH1 0x0 KECCAK256 SWAP1 PUSH1 0x0 SWAP4 JUMPDEST PUSH1 0x1F NOT DUP5 AND DUP6 LT PUSH2 0x275E JUMPI PUSH1 0x1 SWAP5 POP DUP4 PUSH1 0x1F NOT DUP2 AND LT PUSH2 0x2745 JUMPI JUMPDEST POP POP POP DUP2 SHL ADD PUSH1 0x4 DUP4 ADD SSTORE PUSH2 0x16EE JUMP JUMPDEST ADD MLOAD PUSH1 0x0 NOT PUSH1 0xF8 DUP5 PUSH1 0x3 SHL AND SHR NOT AND SWAP1 SSTORE DUP7 DUP1 DUP1 PUSH2 0x2735 JUMP JUMPDEST DUP2 DUP2 ADD MLOAD DUP4 SSTORE PUSH1 0x20 SWAP5 DUP6 ADD SWAP5 PUSH1 0x1 SWAP1 SWAP4 ADD SWAP3 SWAP1 SWAP2 ADD SWAP1 PUSH2 0x271A JUMP JUMPDEST PUSH2 0x27A8 SWAP1 PUSH1 0x4 DUP7 ADD PUSH1 0x0 MSTORE PUSH1 0x20 PUSH1 0x0 KECCAK256 PUSH1 0x1F DUP6 ADD PUSH1 0x5 SHR DUP2 ADD SWAP2 PUSH1 0x20 DUP7 LT PUSH2 0x627 JUMPI PUSH1 0x1F ADD PUSH1 0x5 SHR ADD SWAP1 PUSH2 0x3C30 JUMP JUMPDEST DUP7 PUSH2 0x16B7 JUMP JUMPDEST PUSH1 0x3 DUP4 ADD PUSH1 0x0 MSTORE PUSH1 0x20 PUSH1 0x0 KECCAK256 SWAP1 PUSH1 0x0 JUMPDEST PUSH1 0x1F NOT DUP5 AND DUP2 LT PUSH2 0x2805 JUMPI POP PUSH1 0x1 SWAP4 SWAP5 SWAP6 SWAP7 DUP4 PUSH1 0x1F NOT DUP2 AND LT PUSH2 0x27EC JUMPI JUMPDEST POP POP POP DUP2 SHL ADD PUSH1 0x3 DUP3 ADD SSTORE PUSH2 0x1689 JUMP JUMPDEST ADD MLOAD PUSH1 0x0 NOT PUSH1 0xF8 DUP5 PUSH1 0x3 SHL AND SHR NOT AND SWAP1 SSTORE DUP6 DUP1 DUP1 PUSH2 0x27DC JUMP JUMPDEST SWAP1 SWAP2 PUSH1 0x20 PUSH1 0x1 DUP2 SWAP3 DUP6 DUP12 ADD MLOAD DUP2 SSTORE ADD SWAP4 ADD SWAP2 ADD PUSH2 0x27BE JUMP JUMPDEST PUSH2 0x284C SWAP1 PUSH1 0x3 DUP5 ADD PUSH1 0x0 MSTORE PUSH1 0x20 PUSH1 0x0 KECCAK256 PUSH1 0x1F DUP5 ADD PUSH1 0x5 SHR DUP2 ADD SWAP2 PUSH1 0x20 DUP6 LT PUSH2 0x627 JUMPI PUSH1 0x1F ADD PUSH1 0x5 SHR ADD SWAP1 PUSH2 0x3C30 JUMP JUMPDEST DUP6 PUSH2 0x1650 JUMP JUMPDEST SWAP1 PUSH1 0x2 DUP8 ADD PUSH1 0x0 MSTORE PUSH1 0x20 PUSH1 0x0 KECCAK256 SWAP2 PUSH1 0x0 JUMPDEST PUSH1 0x1F NOT DUP6 AND DUP2 LT PUSH2 0x28AD JUMPI POP SWAP2 DUP4 SWAP2 PUSH1 0x1 SWAP4 PUSH1 0x40 SWAP7 SWAP6 PUSH1 0x1F NOT DUP2 AND LT PUSH2 0x2894 JUMPI JUMPDEST POP POP POP DUP2 SHL ADD PUSH1 0x2 DUP7 ADD SSTORE PUSH2 0x1627 JUMP JUMPDEST ADD MLOAD PUSH1 0x0 NOT PUSH1 0xF8 DUP5 PUSH1 0x3 SHL AND SHR NOT AND SWAP1 SSTORE DUP8 DUP1 DUP1 PUSH2 0x2884 JUMP JUMPDEST SWAP2 SWAP3 PUSH1 0x20 PUSH1 0x1 DUP2 SWAP3 DUP7 DUP6 ADD MLOAD DUP2 SSTORE ADD SWAP5 ADD SWAP3 ADD PUSH2 0x2863 JUMP JUMPDEST PUSH2 0x28F4 SWAP1 PUSH1 0x2 DUP9 ADD PUSH1 0x0 MSTORE PUSH1 0x20 PUSH1 0x0 KECCAK256 PUSH1 0x1F DUP6 ADD PUSH1 0x5 SHR DUP2 ADD SWAP2 PUSH1 0x20 DUP7 LT PUSH2 0x627 JUMPI PUSH1 0x1F ADD PUSH1 0x5 SHR ADD SWAP1 PUSH2 0x3C30 JUMP JUMPDEST DUP7 PUSH2 0x15EC JUMP JUMPDEST SWAP2 SWAP1 PUSH1 0x1 DUP8 ADD PUSH1 0x0 MSTORE PUSH1 0x20 PUSH1 0x0 KECCAK256 SWAP1 PUSH1 0x0 SWAP4 JUMPDEST PUSH1 0x1F NOT DUP5 AND DUP6 LT PUSH2 0x2951 JUMPI PUSH1 0x1 SWAP5 POP DUP4 PUSH1 0x1F NOT DUP2 AND LT PUSH2 0x2938 JUMPI JUMPDEST POP POP POP DUP2 SHL ADD PUSH1 0x1 DUP6 ADD SSTORE PUSH2 0x15C0 JUMP JUMPDEST ADD MLOAD PUSH1 0x0 NOT PUSH1 0xF8 DUP5 PUSH1 0x3 SHL AND SHR NOT AND SWAP1 SSTORE DUP7 DUP1 DUP1 PUSH2 0x2928 JUMP JUMPDEST DUP2 DUP2 ADD MLOAD DUP4 SSTORE PUSH1 0x20 SWAP5 DUP6 ADD SWAP5 PUSH1 0x1 SWAP1 SWAP4 ADD SWAP3 SWAP1 SWAP2 ADD SWAP1 PUSH2 0x290D JUMP JUMPDEST PUSH2 0x299B SWAP1 PUSH1 0x1 DUP9 ADD PUSH1 0x0 MSTORE PUSH1 0x20 PUSH1 0x0 KECCAK256 PUSH1 0x1F DUP6 ADD PUSH1 0x5 SHR DUP2 ADD SWAP2 PUSH1 0x20 DUP7 LT PUSH2 0x627 JUMPI PUSH1 0x1F ADD PUSH1 0x5 SHR ADD SWAP1 PUSH2 0x3C30 JUMP JUMPDEST DUP7 PUSH2 0x1589 JUMP JUMPDEST PUSH1 0x40 MLOAD PUSH3 0x461BCD PUSH1 0xE5 SHL DUP2 MSTORE PUSH1 0x20 PUSH1 0x4 DUP3 ADD MSTORE PUSH1 0x2D PUSH1 0x24 DUP3 ADD MSTORE PUSH32 0x436F6E7472616374207769746820676976656E206964656E7469666965722061 PUSH1 0x44 DUP3 ADD MSTORE PUSH13 0x6C726561647920657869737473 PUSH1 0x98 SHL PUSH1 0x64 DUP3 ADD MSTORE PUSH1 0x84 SWAP1 REVERT JUMPDEST CALLVALUE PUSH2 0x162 JUMPI PUSH1 0x40 CALLDATASIZE PUSH1 0x3 NOT ADD SLT PUSH2 0x162 JUMPI PUSH2 0x2A15 PUSH2 0x35DE JUMP JUMPDEST PUSH1 0x24 CALLDATALOAD PUSH1 0x1 PUSH1 0x1 PUSH1 0x40 SHL SUB DUP2 GT PUSH2 0x162 JUMPI PUSH2 0x2A37 PUSH2 0x2B40 SWAP2 CALLDATASIZE SWAP1 PUSH1 0x4 ADD PUSH2 0x3669 JUMP JUMPDEST SWAP2 PUSH1 0x0 PUSH2 0x1E0 PUSH1 0x40 MLOAD PUSH2 0x2A49 DUP2 PUSH2 0x3610 JUMP JUMPDEST DUP3 DUP2 MSTORE PUSH2 0x2A54 PUSH2 0x3C8B JUMP JUMPDEST PUSH1 0x20 DUP3 ADD MSTORE PUSH2 0x2A61 PUSH2 0x3C8B JUMP JUMPDEST PUSH1 0x40 DUP3 ADD MSTORE PUSH1 0x40 MLOAD PUSH2 0x2A72 DUP2 PUSH2 0x362C JUMP JUMPDEST PUSH1 0x60 DUP2 MSTORE PUSH1 0x60 PUSH1 0x20 DUP3 ADD MSTORE DUP4 PUSH1 0x40 DUP3 ADD MSTORE DUP4 PUSH1 0x60 DUP3 ADD MSTORE DUP4 PUSH1 0x80 DUP3 ADD MSTORE DUP4 PUSH1 0xA0 DUP3 ADD MSTORE PUSH1 0x60 PUSH1 0xC0 DUP3 ADD MSTORE DUP4 PUSH1 0xE0 DUP3 ADD MSTORE DUP4 PUSH2 0x100 DUP3 ADD MSTORE DUP4 PUSH2 0x120 DUP3 ADD MSTORE DUP4 PUSH2 0x140 DUP3 ADD MSTORE PUSH1 0x60 DUP3 ADD MSTORE PUSH1 0x60 PUSH1 0x80 DUP3 ADD MSTORE PUSH1 0x60 PUSH1 0xA0 DUP3 ADD MSTORE PUSH1 0x60 PUSH1 0xC0 DUP3 ADD MSTORE PUSH1 0x60 PUSH1 0xE0 DUP3 ADD MSTORE PUSH1 0x60 PUSH2 0x100 DUP3 ADD MSTORE PUSH1 0x60 PUSH2 0x120 DUP3 ADD MSTORE PUSH1 0x60 PUSH2 0x140 DUP3 ADD MSTORE DUP3 PUSH2 0x160 DUP3 ADD MSTORE DUP3 PUSH2 0x180 DUP3 ADD MSTORE DUP3 PUSH2 0x1A0 DUP3 ADD MSTORE DUP3 PUSH2 0x1C0 DUP3 ADD MSTORE ADD MSTORE PUSH6 0xFFFFFFFFFFFF PUSH1 0xD0 SHL AND SWAP2 DUP3 PUSH1 0x0 MSTORE PUSH1 0x0 PUSH1 0x20 MSTORE PUSH1 0x18 PUSH1 0x40 PUSH1 0x0 KECCAK256 ADD PUSH1 0x40 MLOAD PUSH2 0x2E3 DUP2 PUSH2 0x2D5 PUSH1 0x20 DUP3 ADD DUP1 SWAP6 PUSH2 0x3B6B JUMP JUMPDEST PUSH1 0x0 MSTORE PUSH1 0x0 PUSH1 0x20 MSTORE PUSH2 0x220 PUSH1 0x20 PUSH1 0x40 PUSH1 0x0 KECCAK256 PUSH1 0x1A PUSH1 0x40 MLOAD SWAP2 PUSH2 0x2B61 DUP4 PUSH2 0x3610 JUMP JUMPDEST DUP1 SLOAD DUP4 MSTORE PUSH2 0x2B71 PUSH1 0x1 DUP3 ADD PUSH2 0x3A47 JUMP JUMPDEST DUP5 DUP5 ADD MSTORE PUSH2 0x2B81 PUSH1 0x4 DUP3 ADD PUSH2 0x3A47 JUMP JUMPDEST PUSH1 0x40 DUP5 ADD MSTORE PUSH2 0x2B92 PUSH1 0x7 DUP3 ADD PUSH2 0x3A7F JUMP JUMPDEST PUSH1 0x60 DUP5 ADD MSTORE PUSH2 0x2BA3 PUSH1 0x12 DUP3 ADD PUSH2 0x39A2 JUMP JUMPDEST PUSH1 0x80 DUP5 ADD MSTORE PUSH2 0x2BB4 PUSH1 0x13 DUP3 ADD PUSH2 0x3CAA JUMP JUMPDEST PUSH1 0xA0 DUP5 ADD MSTORE PUSH2 0x2BC5 PUSH1 0x14 DUP3 ADD PUSH2 0x3CAA JUMP JUMPDEST PUSH1 0xC0 DUP5 ADD MSTORE PUSH2 0x2BD6 PUSH1 0x15 DUP3 ADD PUSH2 0x3CAA JUMP JUMPDEST PUSH1 0xE0 DUP5 ADD MSTORE PUSH2 0x2BE7 PUSH1 0x16 DUP3 ADD PUSH2 0x39A2 JUMP JUMPDEST PUSH2 0x100 DUP5 ADD MSTORE PUSH2 0x2BF9 PUSH1 0x17 DUP3 ADD PUSH2 0x39A2 JUMP JUMPDEST PUSH2 0x120 DUP5 ADD MSTORE PUSH2 0x2C0B PUSH1 0x18 DUP3 ADD PUSH2 0x39A2 JUMP JUMPDEST PUSH2 0x140 DUP5 ADD MSTORE PUSH1 0xFF PUSH1 0x19 DUP3 ADD SLOAD PUSH1 0x1 DUP1 PUSH1 0xA0 SHL SUB DUP2 AND PUSH2 0x160 DUP7 ADD MSTORE DUP2 DUP2 PUSH1 0xA0 SHR AND ISZERO ISZERO PUSH2 0x180 DUP7 ADD MSTORE DUP2 DUP2 PUSH1 0xA8 SHR AND ISZERO ISZERO PUSH2 0x1A0 DUP7 ADD MSTORE PUSH1 0xB0 SHR AND ISZERO ISZERO PUSH2 0x1C0 DUP5 ADD MSTORE ADD SLOAD PUSH2 0x1E0 DUP3 ADD MSTORE PUSH2 0x1E0 PUSH2 0x2D69 PUSH2 0x2D51 PUSH2 0x2D39 PUSH2 0x2D21 PUSH2 0x2D0A PUSH2 0x2CF4 PUSH2 0x2CDE PUSH2 0x2CC8 PUSH2 0x2CB2 PUSH2 0x2C9C DUP12 PUSH1 0x40 MLOAD SWAP15 DUP16 SWAP15 DUP16 SWAP3 DUP2 DUP5 MSTORE DUP1 MLOAD DUP3 DUP6 ADD MSTORE ADD MLOAD SWAP2 PUSH2 0x200 PUSH1 0x40 DUP3 ADD MSTORE ADD SWAP1 PUSH2 0x3739 JUMP JUMPDEST PUSH1 0x40 DUP13 ADD MLOAD DUP14 DUP3 SUB PUSH1 0x1F NOT ADD PUSH1 0x60 DUP16 ADD MSTORE PUSH2 0x3739 JUMP JUMPDEST PUSH1 0x60 DUP12 ADD MLOAD DUP13 DUP3 SUB PUSH1 0x1F NOT ADD PUSH1 0x80 DUP15 ADD MSTORE PUSH2 0x377B JUMP JUMPDEST PUSH1 0x80 DUP11 ADD MLOAD DUP12 DUP3 SUB PUSH1 0x1F NOT ADD PUSH1 0xA0 DUP14 ADD MSTORE PUSH2 0x3714 JUMP JUMPDEST PUSH1 0xA0 DUP10 ADD MLOAD DUP11 DUP3 SUB PUSH1 0x1F NOT ADD PUSH1 0xC0 DUP13 ADD MSTORE PUSH2 0x37FE JUMP JUMPDEST PUSH1 0xC0 DUP9 ADD MLOAD DUP10 DUP3 SUB PUSH1 0x1F NOT ADD PUSH1 0xE0 DUP12 ADD MSTORE PUSH2 0x37FE JUMP JUMPDEST PUSH1 0xE0 DUP8 ADD MLOAD DUP9 DUP3 SUB PUSH1 0x1F NOT ADD PUSH2 0x100 DUP11 ADD MSTORE PUSH2 0x37FE JUMP JUMPDEST PUSH2 0x100 DUP7 ADD MLOAD DUP8 DUP3 SUB PUSH1 0x1F NOT ADD PUSH2 0x120 DUP10 ADD MSTORE PUSH2 0x3714 JUMP JUMPDEST PUSH2 0x120 DUP6 ADD MLOAD DUP7 DUP3 SUB PUSH1 0x1F NOT ADD PUSH2 0x140 DUP9 ADD MSTORE PUSH2 0x3714 JUMP JUMPDEST PUSH2 0x140 DUP5 ADD MLOAD DUP6 DUP3 SUB PUSH1 0x1F NOT ADD PUSH2 0x160 DUP8 ADD MSTORE PUSH2 0x3714 JUMP JUMPDEST SWAP2 PUSH1 0x1 DUP1 PUSH1 0xA0 SHL SUB PUSH2 0x160 DUP3 ADD MLOAD AND PUSH2 0x180 DUP6 ADD MSTORE PUSH2 0x180 DUP2 ADD MLOAD ISZERO ISZERO PUSH2 0x1A0 DUP6 ADD MSTORE PUSH2 0x1A0 DUP2 ADD MLOAD ISZERO ISZERO PUSH2 0x1C0 DUP6 ADD MSTORE PUSH2 0x1C0 DUP2 ADD MLOAD ISZERO ISZERO DUP3 DUP6 ADD MSTORE ADD MLOAD PUSH2 0x200 DUP4 ADD MSTORE SUB SWAP1 RETURN JUMPDEST CALLVALUE PUSH2 0x162 JUMPI PUSH1 0x20 DUP1 PUSH1 0x3 NOT CALLDATASIZE ADD SLT PUSH2 0x162 JUMPI PUSH1 0x1 PUSH1 0x1 PUSH1 0xD0 SHL SUB NOT PUSH2 0x2DD5 PUSH2 0x35DE JUMP JUMPDEST AND PUSH1 0x0 MSTORE PUSH1 0x2 SWAP1 PUSH1 0x2 DUP2 MSTORE PUSH1 0x40 PUSH1 0x0 KECCAK256 SWAP2 DUP3 SLOAD PUSH2 0x2DF1 DUP2 PUSH2 0x38D2 JUMP JUMPDEST SWAP2 PUSH2 0x2DFF PUSH1 0x40 MLOAD SWAP4 DUP5 PUSH2 0x3648 JUMP JUMPDEST DUP2 DUP4 MSTORE PUSH1 0x0 SWAP5 DUP6 MSTORE DUP4 DUP6 KECCAK256 DUP5 DUP5 ADD SWAP6 SWAP2 DUP7 JUMPDEST DUP5 DUP5 LT PUSH2 0x2E69 JUMPI PUSH1 0x40 DUP1 MLOAD DUP9 DUP2 MSTORE DUP8 MLOAD DUP2 DUP11 ADD DUP2 SWAP1 MSTORE DUP11 SWAP3 DUP3 ADD SWAP1 DUP11 PUSH1 0x0 JUMPDEST DUP3 DUP2 LT PUSH2 0x2E3D JUMPI DUP5 DUP5 SUB DUP6 RETURN JUMPDEST DUP6 MLOAD DUP1 MLOAD DUP6 MSTORE DUP1 DUP4 ADD MLOAD DUP6 DUP5 ADD MSTORE PUSH1 0x40 SWAP1 DUP2 ADD MLOAD ISZERO ISZERO SWAP1 DUP6 ADD MSTORE SWAP5 DUP2 ADD SWAP5 PUSH1 0x60 SWAP1 SWAP4 ADD SWAP3 PUSH1 0x1 ADD PUSH2 0x2E30 JUMP JUMPDEST PUSH1 0x3 DUP8 PUSH1 0x1 SWAP3 PUSH1 0x40 MLOAD PUSH2 0x2E7B DUP2 PUSH2 0x35F5 JUMP JUMPDEST DUP7 SLOAD DUP2 MSTORE DUP5 DUP8 ADD SLOAD DUP4 DUP3 ADD MSTORE PUSH1 0xFF DUP7 DUP9 ADD SLOAD AND ISZERO ISZERO PUSH1 0x40 DUP3 ADD MSTORE DUP2 MSTORE ADD SWAP4 ADD SWAP4 ADD SWAP3 SWAP2 PUSH2 0x2E11 JUMP JUMPDEST CALLVALUE PUSH2 0x162 JUMPI PUSH1 0x40 CALLDATASIZE PUSH1 0x3 NOT ADD SLT PUSH2 0x162 JUMPI PUSH2 0x2EBC PUSH2 0x35DE JUMP JUMPDEST PUSH1 0x24 CALLDATALOAD SWAP1 PUSH6 0xFFFFFFFFFFFF PUSH1 0xD0 SHL AND PUSH1 0x0 MSTORE PUSH1 0x2 PUSH1 0x20 MSTORE PUSH1 0x40 PUSH1 0x0 KECCAK256 DUP1 SLOAD DUP3 LT ISZERO PUSH2 0x162 JUMPI PUSH1 0x60 SWAP2 PUSH2 0x2EED SWAP2 PUSH2 0x36BF JUMP JUMPDEST POP DUP1 SLOAD SWAP1 PUSH1 0xFF PUSH1 0x2 PUSH1 0x1 DUP4 ADD SLOAD SWAP3 ADD SLOAD AND SWAP1 PUSH1 0x40 MLOAD SWAP3 DUP4 MSTORE PUSH1 0x20 DUP4 ADD MSTORE ISZERO ISZERO PUSH1 0x40 DUP3 ADD MSTORE RETURN JUMPDEST CALLVALUE PUSH2 0x162 JUMPI PUSH1 0x40 CALLDATASIZE PUSH1 0x3 NOT ADD SLT PUSH2 0x162 JUMPI PUSH1 0x1 PUSH1 0x1 PUSH1 0xD0 SHL SUB NOT PUSH2 0x2F35 PUSH2 0x35DE JUMP JUMPDEST AND DUP1 PUSH1 0x0 MSTORE PUSH1 0x0 PUSH1 0x20 MSTORE PUSH2 0x2F5A PUSH1 0x1 DUP1 PUSH1 0xA0 SHL SUB PUSH1 0x19 PUSH1 0x40 PUSH1 0x0 KECCAK256 ADD SLOAD AND CALLER EQ PUSH2 0x3B0F JUMP JUMPDEST PUSH1 0x0 MSTORE PUSH1 0x2 PUSH1 0x20 MSTORE PUSH1 0x2 PUSH2 0x2F74 PUSH1 0x24 CALLDATALOAD PUSH1 0x40 PUSH1 0x0 KECCAK256 PUSH2 0x36BF JUMP JUMPDEST POP ADD DUP1 SLOAD PUSH2 0x2F84 PUSH1 0xFF DUP3 AND PUSH2 0x3C47 JUMP JUMPDEST PUSH1 0xFF NOT AND SWAP1 SSTORE STOP JUMPDEST PUSH1 0xC0 CALLDATASIZE PUSH1 0x3 NOT ADD SLT PUSH2 0x162 JUMPI PUSH2 0x2FA0 PUSH2 0x35DE JUMP JUMPDEST PUSH1 0x24 SWAP1 PUSH1 0x1 PUSH1 0x1 PUSH1 0x40 SHL SUB SWAP1 DUP3 CALLDATALOAD DUP3 DUP2 GT PUSH2 0x162 JUMPI PUSH2 0x2FC3 SWAP1 CALLDATASIZE SWAP1 PUSH1 0x4 ADD PUSH2 0x3669 JUMP JUMPDEST SWAP3 PUSH1 0x44 CALLDATALOAD DUP4 DUP2 GT PUSH2 0x162 JUMPI PUSH2 0x2FDC SWAP1 CALLDATASIZE SWAP1 PUSH1 0x4 ADD PUSH2 0x3669 JUMP JUMPDEST SWAP3 PUSH1 0x64 CALLDATALOAD DUP2 DUP2 GT PUSH2 0x162 JUMPI PUSH2 0x2FF5 SWAP1 CALLDATASIZE SWAP1 PUSH1 0x4 ADD PUSH2 0x3669 JUMP JUMPDEST SWAP4 PUSH1 0x84 CALLDATALOAD DUP3 DUP2 GT PUSH2 0x162 JUMPI PUSH2 0x300E SWAP1 CALLDATASIZE SWAP1 PUSH1 0x4 ADD PUSH2 0x3669 JUMP JUMPDEST SWAP4 PUSH1 0xA4 CALLDATALOAD DUP4 DUP2 GT PUSH2 0x162 JUMPI PUSH2 0x3027 SWAP1 CALLDATASIZE SWAP1 PUSH1 0x4 ADD PUSH2 0x3669 JUMP JUMPDEST SWAP1 PUSH6 0xFFFFFFFFFFFF PUSH1 0xD0 SHL AND SWAP7 DUP8 PUSH1 0x0 MSTORE PUSH1 0x20 SWAP7 PUSH1 0x0 DUP9 MSTORE PUSH2 0x305A PUSH1 0x1 DUP1 PUSH1 0xA0 SHL SUB PUSH1 0x19 PUSH1 0x40 PUSH1 0x0 KECCAK256 ADD SLOAD AND CALLER EQ PUSH2 0x3B0F JUMP JUMPDEST DUP9 PUSH1 0x0 MSTORE PUSH1 0x0 DUP9 MSTORE PUSH2 0x30B4 PUSH1 0x18 PUSH1 0x40 PUSH1 0x0 KECCAK256 ADD SWAP3 PUSH1 0x40 MLOAD SWAP4 DUP5 PUSH2 0x3080 DUP13 DUP3 ADD DUP1 SWAP4 PUSH2 0x3B6B JUMP JUMPDEST SUB SWAP5 PUSH2 0x3094 PUSH1 0x1F NOT SWAP7 DUP8 DUP2 ADD DUP4 MSTORE DUP3 PUSH2 0x3648 JUMP JUMPDEST MLOAD SWAP1 KECCAK256 SWAP1 PUSH1 0x40 MLOAD PUSH2 0x311 DUP13 DUP3 DUP2 PUSH2 0x304 DUP2 DUP4 ADD SWAP7 DUP8 DUP2 MLOAD SWAP4 DUP5 SWAP3 ADD PUSH2 0x36F1 JUMP JUMPDEST DUP9 PUSH1 0x0 MSTORE PUSH1 0x0 DUP9 MSTORE PUSH1 0xF PUSH1 0x40 PUSH1 0x0 KECCAK256 ADD SLOAD CALLVALUE SUB PUSH2 0x359A JUMPI DUP9 PUSH1 0x0 MSTORE PUSH1 0x0 DUP9 MSTORE PUSH1 0x40 PUSH1 0x0 KECCAK256 SWAP7 PUSH1 0x4 DUP9 ADD DUP6 MLOAD DUP8 DUP2 GT PUSH2 0x3427 JUMPI PUSH2 0x30F0 DUP3 SLOAD PUSH2 0x3968 JUMP JUMPDEST SWAP7 PUSH1 0x1F SWAP8 DUP13 DUP10 DUP3 GT PUSH2 0x3561 JUMPI JUMPDEST POP POP DUP12 SWAP1 DUP9 DUP4 GT PUSH1 0x1 EQ PUSH2 0x34FA JUMPI PUSH2 0x312D SWAP3 SWAP2 PUSH1 0x0 SWAP2 DUP4 PUSH2 0x343C JUMPI POP POP DUP2 PUSH1 0x1 SHL SWAP2 PUSH1 0x0 NOT SWAP1 PUSH1 0x3 SHL SHR NOT AND OR SWAP1 JUMP JUMPDEST SWAP1 SSTORE JUMPDEST PUSH1 0x5 SWAP2 DUP3 DUP10 ADD SWAP1 DUP1 MLOAD SWAP1 DUP9 DUP3 GT PUSH2 0x34E5 JUMPI PUSH2 0x314B DUP4 SLOAD PUSH2 0x3968 JUMP JUMPDEST DUP13 DUP10 DUP3 GT PUSH2 0x34AE JUMPI JUMPDEST POP POP DUP12 SWAP1 DUP9 DUP4 GT PUSH1 0x1 EQ PUSH2 0x3447 JUMPI PUSH2 0x3184 SWAP3 SWAP2 PUSH1 0x0 SWAP2 DUP4 PUSH2 0x343C JUMPI POP POP DUP2 PUSH1 0x1 SHL SWAP2 PUSH1 0x0 NOT SWAP1 PUSH1 0x3 SHL SHR NOT AND OR SWAP1 JUMP JUMPDEST SWAP1 SSTORE JUMPDEST DUP1 MLOAD PUSH1 0x6 DUP10 ADD SWAP2 DUP8 DUP3 GT PUSH2 0x3427 JUMPI PUSH2 0x319F DUP4 SLOAD PUSH2 0x3968 JUMP JUMPDEST DUP12 DUP9 DUP3 GT PUSH2 0x33F0 JUMPI JUMPDEST POP POP DUP11 SWAP1 DUP8 DUP4 GT PUSH1 0x1 EQ PUSH2 0x3389 JUMPI PUSH2 0x31D8 SWAP3 SWAP2 PUSH1 0x0 SWAP2 DUP4 PUSH2 0x1EEB JUMPI POP POP DUP2 PUSH1 0x1 SHL SWAP2 PUSH1 0x0 NOT SWAP1 PUSH1 0x3 SHL SHR NOT AND OR SWAP1 JUMP JUMPDEST SWAP1 SSTORE JUMPDEST PUSH1 0x17 DUP8 ADD SWAP6 DUP4 MLOAD SWAP6 DUP7 GT PUSH2 0x3375 JUMPI POP PUSH2 0x31F4 DUP7 SLOAD PUSH2 0x3968 JUMP JUMPDEST DUP5 DUP2 GT PUSH2 0x333D JUMPI JUMPDEST POP POP DUP7 SWAP3 DUP5 GT PUSH1 0x1 EQ PUSH2 0x32B3 JUMPI POP SWAP3 PUSH2 0x3255 DUP4 PUSH1 0x19 SWAP5 PUSH1 0x40 SWAP8 SWAP5 PUSH32 0xEBBF6B2760B055C34E7D54BCCF7079CA90030B876FBF1D76C144A76D28123594 SWAP10 SWAP8 PUSH1 0x0 SWAP3 PUSH2 0x32A8 JUMPI POP POP DUP2 PUSH1 0x1 SHL SWAP2 PUSH1 0x0 NOT SWAP1 PUSH1 0x3 SHL SHR NOT AND OR SWAP1 JUMP JUMPDEST SWAP1 SSTORE JUMPDEST ADD DUP1 SLOAD PUSH3 0xFF00FF PUSH1 0xA0 SHL NOT AND PUSH3 0x10001 PUSH1 0xA0 SHL OR SWAP1 SSTORE DUP2 MLOAD TIMESTAMP DUP2 MSTORE DUP5 SWAP1 PUSH32 0x85B74A154907154C273CAEB0BE924FEADB5271097E078BFD27EF84F1A75F05E8 SWAP1 DUP4 SWAP1 LOG2 DUP2 MLOAD SWAP1 CALLVALUE DUP3 MSTORE TIMESTAMP SWAP1 DUP3 ADD MSTORE LOG2 STOP JUMPDEST ADD MLOAD SWAP1 POP DUP11 DUP1 PUSH2 0x378 JUMP JUMPDEST PUSH1 0x0 DUP6 DUP2 MSTORE DUP8 DUP2 KECCAK256 SWAP4 SWAP3 SWAP2 DUP6 AND SWAP1 JUMPDEST DUP2 DUP2 LT PUSH2 0x3326 JUMPI POP SWAP4 PUSH1 0x40 SWAP7 SWAP4 PUSH32 0xEBBF6B2760B055C34E7D54BCCF7079CA90030B876FBF1D76C144A76D28123594 SWAP9 SWAP7 SWAP4 PUSH1 0x1 SWAP4 DUP4 PUSH1 0x19 SWAP9 LT PUSH2 0x330D JUMPI JUMPDEST POP POP POP DUP2 SHL ADD SWAP1 SSTORE PUSH2 0x3258 JUMP JUMPDEST ADD MLOAD PUSH1 0x0 NOT PUSH1 0xF8 DUP5 PUSH1 0x3 SHL AND SHR NOT AND SWAP1 SSTORE DUP10 DUP1 DUP1 PUSH2 0x3300 JUMP JUMPDEST SWAP3 SWAP4 DUP9 PUSH1 0x1 DUP2 SWAP3 DUP8 DUP7 ADD MLOAD DUP2 SSTORE ADD SWAP6 ADD SWAP4 ADD PUSH2 0x32C2 JUMP JUMPDEST PUSH2 0x3365 SWAP2 DUP8 PUSH1 0x0 MSTORE DUP10 PUSH1 0x0 KECCAK256 SWAP1 DUP7 DUP1 DUP10 ADD DUP3 SHR DUP4 ADD SWAP4 DUP13 DUP11 LT PUSH2 0x336C JUMPI JUMPDEST ADD SWAP1 SHR ADD SWAP1 PUSH2 0x3C30 JUMP JUMPDEST DUP9 DUP1 PUSH2 0x31FC JUMP JUMPDEST SWAP4 POP DUP3 SWAP4 PUSH2 0x335B JUMP JUMPDEST PUSH4 0x4E487B71 PUSH1 0xE0 SHL PUSH1 0x0 SWAP1 DUP2 MSTORE PUSH1 0x41 PUSH1 0x4 MSTORE REVERT JUMPDEST SWAP1 DUP6 DUP4 AND SWAP2 DUP5 PUSH1 0x0 MSTORE DUP13 PUSH1 0x0 KECCAK256 SWAP3 DUP14 PUSH1 0x0 SWAP1 JUMPDEST DUP3 DUP3 LT PUSH2 0x33D9 JUMPI POP POP SWAP1 DUP5 PUSH1 0x1 SWAP6 SWAP5 SWAP4 SWAP3 LT PUSH2 0x33C0 JUMPI JUMPDEST POP POP POP DUP2 SHL ADD SWAP1 SSTORE PUSH2 0x31DB JUMP JUMPDEST ADD MLOAD PUSH1 0x0 NOT PUSH1 0xF8 DUP5 PUSH1 0x3 SHL AND SHR NOT AND SWAP1 SSTORE DUP13 DUP1 DUP1 PUSH2 0x33B3 JUMP JUMPDEST PUSH1 0x1 DUP6 SWAP7 DUP3 SWAP4 SWAP7 DUP7 ADD MLOAD DUP2 SSTORE ADD SWAP6 ADD SWAP4 ADD DUP15 PUSH2 0x339C JUMP JUMPDEST PUSH2 0x3417 SWAP2 DUP6 PUSH1 0x0 MSTORE DUP10 DUP3 PUSH1 0x0 KECCAK256 SWAP2 DUP2 DUP8 ADD DUP10 SHR DUP4 ADD SWAP4 DUP8 LT PUSH2 0x341E JUMPI JUMPDEST ADD DUP8 SHR ADD SWAP1 PUSH2 0x3C30 JUMP JUMPDEST DUP13 DUP12 PUSH2 0x31A8 JUMP JUMPDEST SWAP3 POP DUP2 SWAP3 PUSH2 0x340D JUMP JUMPDEST DUP9 PUSH4 0x4E487B71 PUSH1 0xE0 SHL PUSH1 0x0 MSTORE PUSH1 0x41 PUSH1 0x4 MSTORE PUSH1 0x0 REVERT JUMPDEST ADD MLOAD SWAP1 POP DUP15 DUP1 PUSH2 0x378 JUMP JUMPDEST SWAP1 DUP13 SWAP2 DUP8 DUP5 AND DUP6 PUSH1 0x0 MSTORE DUP4 PUSH1 0x0 KECCAK256 SWAP4 PUSH1 0x0 SWAP1 JUMPDEST DUP3 DUP3 LT PUSH2 0x3497 JUMPI POP POP SWAP1 DUP5 PUSH1 0x1 SWAP6 SWAP5 SWAP4 SWAP3 LT PUSH2 0x347E JUMPI JUMPDEST POP POP POP DUP2 SHL ADD SWAP1 SSTORE PUSH2 0x3187 JUMP JUMPDEST ADD MLOAD PUSH1 0x0 NOT PUSH1 0xF8 DUP5 PUSH1 0x3 SHL AND SHR NOT AND SWAP1 SSTORE DUP14 DUP1 DUP1 PUSH2 0x3471 JUMP JUMPDEST PUSH1 0x1 DUP6 SWAP7 DUP3 SWAP4 SWAP7 DUP7 ADD MLOAD DUP2 SSTORE ADD SWAP6 ADD SWAP4 ADD DUP16 PUSH2 0x345A JUMP JUMPDEST PUSH2 0x34D5 SWAP2 DUP6 PUSH1 0x0 MSTORE DUP11 DUP3 PUSH1 0x0 KECCAK256 SWAP2 DUP2 DUP8 ADD DUP11 SHR DUP4 ADD SWAP4 DUP8 LT PUSH2 0x34DC JUMPI JUMPDEST ADD DUP9 SHR ADD SWAP1 PUSH2 0x3C30 JUMP JUMPDEST DUP14 DUP13 PUSH2 0x3154 JUMP JUMPDEST SWAP3 POP DUP2 SWAP3 PUSH2 0x34CB JUMP JUMPDEST DUP10 PUSH4 0x4E487B71 PUSH1 0xE0 SHL PUSH1 0x0 MSTORE PUSH1 0x41 PUSH1 0x4 MSTORE PUSH1 0x0 REVERT JUMPDEST SWAP1 DUP13 SWAP2 DUP8 DUP5 AND DUP6 PUSH1 0x0 MSTORE DUP4 PUSH1 0x0 KECCAK256 SWAP4 PUSH1 0x0 SWAP1 JUMPDEST DUP3 DUP3 LT PUSH2 0x354A JUMPI POP POP SWAP1 DUP5 PUSH1 0x1 SWAP6 SWAP5 SWAP4 SWAP3 LT PUSH2 0x3531 JUMPI JUMPDEST POP POP POP DUP2 SHL ADD SWAP1 SSTORE PUSH2 0x3130 JUMP JUMPDEST ADD MLOAD PUSH1 0x0 NOT PUSH1 0xF8 DUP5 PUSH1 0x3 SHL AND SHR NOT AND SWAP1 SSTORE DUP14 DUP1 DUP1 PUSH2 0x3524 JUMP JUMPDEST PUSH1 0x1 DUP6 SWAP7 DUP3 SWAP4 SWAP7 DUP7 ADD MLOAD DUP2 SSTORE ADD SWAP6 ADD SWAP4 ADD DUP16 PUSH2 0x350D JUMP JUMPDEST PUSH2 0x358A SWAP2 DUP6 PUSH1 0x0 MSTORE DUP11 DUP3 PUSH1 0x0 KECCAK256 SWAP2 DUP2 DUP8 ADD PUSH1 0x5 SHR DUP4 ADD SWAP4 DUP8 LT PUSH2 0x3591 JUMPI JUMPDEST ADD PUSH1 0x5 SHR ADD SWAP1 PUSH2 0x3C30 JUMP JUMPDEST DUP14 DUP13 PUSH2 0x30FD JUMP JUMPDEST SWAP3 POP DUP2 SWAP3 PUSH2 0x357F JUMP JUMPDEST PUSH1 0x40 MLOAD PUSH3 0x461BCD PUSH1 0xE5 SHL DUP2 MSTORE PUSH1 0x4 DUP2 ADD DUP10 SWAP1 MSTORE PUSH1 0x18 DUP2 DUP9 ADD MSTORE PUSH32 0x496E636F7272656374206465706F73697420616D6F756E740000000000000000 PUSH1 0x44 DUP3 ADD MSTORE PUSH1 0x64 SWAP1 REVERT JUMPDEST PUSH1 0x4 CALLDATALOAD SWAP1 PUSH1 0x1 PUSH1 0x1 PUSH1 0xD0 SHL SUB NOT DUP3 AND DUP3 SUB PUSH2 0x162 JUMPI JUMP JUMPDEST PUSH1 0x60 DUP2 ADD SWAP1 DUP2 LT PUSH1 0x1 PUSH1 0x1 PUSH1 0x40 SHL SUB DUP3 GT OR PUSH2 0x631 JUMPI PUSH1 0x40 MSTORE JUMP JUMPDEST PUSH2 0x200 DUP2 ADD SWAP1 DUP2 LT PUSH1 0x1 PUSH1 0x1 PUSH1 0x40 SHL SUB DUP3 GT OR PUSH2 0x631 JUMPI PUSH1 0x40 MSTORE JUMP JUMPDEST PUSH2 0x160 DUP2 ADD SWAP1 DUP2 LT PUSH1 0x1 PUSH1 0x1 PUSH1 0x40 SHL SUB DUP3 GT OR PUSH2 0x631 JUMPI PUSH1 0x40 MSTORE JUMP JUMPDEST SWAP1 PUSH1 0x1F DUP1 NOT SWAP2 ADD AND DUP2 ADD SWAP1 DUP2 LT PUSH1 0x1 PUSH1 0x1 PUSH1 0x40 SHL SUB DUP3 GT OR PUSH2 0x631 JUMPI PUSH1 0x40 MSTORE JUMP JUMPDEST DUP2 PUSH1 0x1F DUP3 ADD SLT ISZERO PUSH2 0x162 JUMPI DUP1 CALLDATALOAD SWAP1 PUSH1 0x1 PUSH1 0x1 PUSH1 0x40 SHL SUB DUP3 GT PUSH2 0x631 JUMPI PUSH1 0x40 MLOAD SWAP3 PUSH2 0x369D PUSH1 0x1F DUP5 ADD PUSH1 0x1F NOT AND PUSH1 0x20 ADD DUP6 PUSH2 0x3648 JUMP JUMPDEST DUP3 DUP5 MSTORE PUSH1 0x20 DUP4 DUP4 ADD ADD GT PUSH2 0x162 JUMPI DUP2 PUSH1 0x0 SWAP3 PUSH1 0x20 DUP1 SWAP4 ADD DUP4 DUP7 ADD CALLDATACOPY DUP4 ADD ADD MSTORE SWAP1 JUMP JUMPDEST DUP1 SLOAD DUP3 LT ISZERO PUSH2 0x36DB JUMPI PUSH1 0x0 MSTORE PUSH1 0x3 PUSH1 0x20 PUSH1 0x0 KECCAK256 SWAP2 MUL ADD SWAP1 PUSH1 0x0 SWAP1 JUMP JUMPDEST PUSH4 0x4E487B71 PUSH1 0xE0 SHL PUSH1 0x0 MSTORE PUSH1 0x32 PUSH1 0x4 MSTORE PUSH1 0x24 PUSH1 0x0 REVERT JUMPDEST PUSH1 0x0 JUMPDEST DUP4 DUP2 LT PUSH2 0x3704 JUMPI POP POP PUSH1 0x0 SWAP2 ADD MSTORE JUMP JUMPDEST DUP2 DUP2 ADD MLOAD DUP4 DUP3 ADD MSTORE PUSH1 0x20 ADD PUSH2 0x36F4 JUMP JUMPDEST SWAP1 PUSH1 0x20 SWAP2 PUSH2 0x372D DUP2 MLOAD DUP1 SWAP3 DUP2 DUP6 MSTORE DUP6 DUP1 DUP7 ADD SWAP2 ADD PUSH2 0x36F1 JUMP JUMPDEST PUSH1 0x1F ADD PUSH1 0x1F NOT AND ADD ADD SWAP1 JUMP JUMPDEST PUSH2 0x3778 SWAP2 PUSH1 0x40 PUSH2 0x3767 PUSH2 0x3755 DUP5 MLOAD PUSH1 0x60 DUP6 MSTORE PUSH1 0x60 DUP6 ADD SWAP1 PUSH2 0x3714 JUMP JUMPDEST PUSH1 0x20 DUP6 ADD MLOAD DUP5 DUP3 SUB PUSH1 0x20 DUP7 ADD MSTORE PUSH2 0x3714 JUMP JUMPDEST SWAP3 ADD MLOAD SWAP1 PUSH1 0x40 DUP2 DUP5 SUB SWAP2 ADD MSTORE PUSH2 0x3714 JUMP JUMPDEST SWAP1 JUMP JUMPDEST SWAP1 PUSH2 0x37D0 PUSH2 0x3796 PUSH2 0x3755 PUSH2 0x160 DUP6 MLOAD SWAP1 DUP1 DUP7 MSTORE DUP6 ADD SWAP1 PUSH2 0x3714 JUMP JUMPDEST PUSH1 0x40 DUP5 ADD MLOAD PUSH1 0x40 DUP5 ADD MSTORE PUSH1 0x60 DUP5 ADD MLOAD PUSH1 0x60 DUP5 ADD MSTORE PUSH1 0x80 DUP5 ADD MLOAD PUSH1 0x80 DUP5 ADD MSTORE PUSH1 0xA0 DUP5 ADD MLOAD PUSH1 0xA0 DUP5 ADD MSTORE PUSH1 0xC0 DUP5 ADD MLOAD DUP4 DUP3 SUB PUSH1 0xC0 DUP6 ADD MSTORE PUSH2 0x3714 JUMP JUMPDEST SWAP2 PUSH1 0xE0 DUP2 ADD MLOAD PUSH1 0xE0 DUP4 ADD MSTORE PUSH2 0x100 DUP1 DUP3 ADD MLOAD SWAP1 DUP4 ADD MSTORE PUSH2 0x120 DUP1 DUP3 ADD MLOAD SWAP1 DUP4 ADD MSTORE PUSH2 0x140 DUP1 SWAP2 ADD MLOAD SWAP2 ADD MSTORE SWAP1 JUMP JUMPDEST SWAP1 DUP1 DUP3 MLOAD SWAP1 DUP2 DUP2 MSTORE PUSH1 0x20 DUP1 SWAP2 ADD SWAP3 PUSH1 0x20 DUP1 DUP5 PUSH1 0x5 SHL DUP4 ADD ADD SWAP6 ADD SWAP4 PUSH1 0x0 SWAP2 JUMPDEST DUP5 DUP4 LT PUSH2 0x382D JUMPI POP POP POP POP POP POP SWAP1 JUMP JUMPDEST SWAP1 SWAP2 SWAP3 SWAP4 SWAP5 SWAP6 DUP5 DUP1 PUSH2 0x384B PUSH1 0x1 SWAP4 PUSH1 0x1F NOT DUP7 DUP3 SUB ADD DUP8 MSTORE DUP11 MLOAD PUSH2 0x3714 JUMP JUMPDEST SWAP9 ADD SWAP4 ADD SWAP4 ADD SWAP2 SWAP5 SWAP4 SWAP3 SWAP1 PUSH2 0x381D JUMP JUMPDEST SWAP2 SWAP1 PUSH1 0x60 DUP4 DUP3 SUB SLT PUSH2 0x162 JUMPI PUSH1 0x40 MLOAD SWAP1 PUSH2 0x3874 DUP3 PUSH2 0x35F5 JUMP JUMPDEST DUP2 SWAP4 DUP1 CALLDATALOAD SWAP2 PUSH1 0x1 PUSH1 0x1 PUSH1 0x40 SHL SUB SWAP3 DUP4 DUP2 GT PUSH2 0x162 JUMPI DUP2 PUSH2 0x3895 SWAP2 DUP5 ADD PUSH2 0x3669 JUMP JUMPDEST DUP5 MSTORE PUSH1 0x20 DUP3 ADD CALLDATALOAD DUP4 DUP2 GT PUSH2 0x162 JUMPI DUP2 PUSH2 0x38AF SWAP2 DUP5 ADD PUSH2 0x3669 JUMP JUMPDEST PUSH1 0x20 DUP6 ADD MSTORE PUSH1 0x40 DUP3 ADD CALLDATALOAD SWAP3 DUP4 GT PUSH2 0x162 JUMPI PUSH1 0x40 SWAP3 PUSH2 0x38CD SWAP3 ADD PUSH2 0x3669 JUMP JUMPDEST SWAP2 ADD MSTORE JUMP JUMPDEST PUSH1 0x1 PUSH1 0x1 PUSH1 0x40 SHL SUB DUP2 GT PUSH2 0x631 JUMPI PUSH1 0x5 SHL PUSH1 0x20 ADD SWAP1 JUMP JUMPDEST DUP2 PUSH1 0x1F DUP3 ADD SLT ISZERO PUSH2 0x162 JUMPI DUP1 CALLDATALOAD SWAP2 PUSH1 0x20 SWAP2 PUSH2 0x3903 DUP5 PUSH2 0x38D2 JUMP JUMPDEST SWAP4 PUSH2 0x3911 PUSH1 0x40 MLOAD SWAP6 DUP7 PUSH2 0x3648 JUMP JUMPDEST DUP1 DUP6 MSTORE DUP4 DUP1 DUP7 ADD SWAP2 PUSH1 0x5 SHL DUP4 ADD ADD SWAP3 DUP1 DUP5 GT PUSH2 0x162 JUMPI DUP5 DUP4 ADD SWAP2 JUMPDEST DUP5 DUP4 LT PUSH2 0x393C JUMPI POP POP POP POP POP POP SWAP1 JUMP JUMPDEST DUP3 CALLDATALOAD PUSH1 0x1 PUSH1 0x1 PUSH1 0x40 SHL SUB DUP2 GT PUSH2 0x162 JUMPI DUP7 SWAP2 PUSH2 0x395D DUP5 DUP5 DUP1 SWAP5 DUP10 ADD ADD PUSH2 0x3669 JUMP JUMPDEST DUP2 MSTORE ADD SWAP3 ADD SWAP2 PUSH2 0x392C JUMP JUMPDEST SWAP1 PUSH1 0x1 DUP3 DUP2 SHR SWAP3 AND DUP1 ISZERO PUSH2 0x3998 JUMPI JUMPDEST PUSH1 0x20 DUP4 LT EQ PUSH2 0x3982 JUMPI JUMP JUMPDEST PUSH4 0x4E487B71 PUSH1 0xE0 SHL PUSH1 0x0 MSTORE PUSH1 0x22 PUSH1 0x4 MSTORE PUSH1 0x24 PUSH1 0x0 REVERT JUMPDEST SWAP2 PUSH1 0x7F AND SWAP2 PUSH2 0x3977 JUMP JUMPDEST SWAP1 PUSH1 0x40 MLOAD SWAP2 DUP3 PUSH1 0x0 DUP3 SLOAD PUSH2 0x39B5 DUP2 PUSH2 0x3968 JUMP JUMPDEST SWAP1 DUP2 DUP5 MSTORE PUSH1 0x20 SWAP5 PUSH1 0x1 SWAP2 PUSH1 0x1 DUP2 AND SWAP1 DUP2 PUSH1 0x0 EQ PUSH2 0x3A25 JUMPI POP PUSH1 0x1 EQ PUSH2 0x39E6 JUMPI JUMPDEST POP POP POP PUSH2 0x39E4 SWAP3 POP SUB DUP4 PUSH2 0x3648 JUMP JUMPDEST JUMP JUMPDEST PUSH1 0x0 SWAP1 DUP2 MSTORE DUP6 DUP2 KECCAK256 SWAP6 SWAP4 POP SWAP2 SWAP1 JUMPDEST DUP2 DUP4 LT PUSH2 0x3A0D JUMPI POP POP PUSH2 0x39E4 SWAP4 POP DUP3 ADD ADD CODESIZE DUP1 DUP1 PUSH2 0x39D5 JUMP JUMPDEST DUP6 SLOAD DUP9 DUP5 ADD DUP6 ADD MSTORE SWAP5 DUP6 ADD SWAP5 DUP8 SWAP5 POP SWAP2 DUP4 ADD SWAP2 PUSH2 0x39F4 JUMP JUMPDEST SWAP3 POP POP POP PUSH2 0x39E4 SWAP5 SWAP3 POP PUSH1 0xFF NOT AND DUP3 DUP5 ADD MSTORE ISZERO ISZERO PUSH1 0x5 SHL DUP3 ADD ADD CODESIZE DUP1 DUP1 PUSH2 0x39D5 JUMP JUMPDEST SWAP1 PUSH1 0x40 MLOAD PUSH2 0x3A54 DUP2 PUSH2 0x35F5 JUMP JUMPDEST PUSH1 0x40 PUSH2 0x38CD PUSH1 0x2 DUP4 SWAP6 PUSH2 0x3A66 DUP2 PUSH2 0x39A2 JUMP JUMPDEST DUP6 MSTORE PUSH2 0x3A74 PUSH1 0x1 DUP3 ADD PUSH2 0x39A2 JUMP JUMPDEST PUSH1 0x20 DUP7 ADD MSTORE ADD PUSH2 0x39A2 JUMP JUMPDEST SWAP1 PUSH1 0x40 MLOAD PUSH2 0x3A8C DUP2 PUSH2 0x362C JUMP JUMPDEST PUSH2 0x140 PUSH1 0xA DUP3 SWAP5 PUSH2 0x3A9C DUP2 PUSH2 0x39A2 JUMP JUMPDEST DUP5 MSTORE PUSH2 0x3AAA PUSH1 0x1 DUP3 ADD PUSH2 0x39A2 JUMP JUMPDEST PUSH1 0x20 DUP6 ADD MSTORE PUSH1 0x2 DUP2 ADD SLOAD PUSH1 0x40 DUP6 ADD MSTORE PUSH1 0x3 DUP2 ADD SLOAD PUSH1 0x60 DUP6 ADD MSTORE PUSH1 0x4 DUP2 ADD SLOAD PUSH1 0x80 DUP6 ADD MSTORE PUSH1 0x5 DUP2 ADD SLOAD PUSH1 0xA0 DUP6 ADD MSTORE PUSH2 0x3AE3 PUSH1 0x6 DUP3 ADD PUSH2 0x39A2 JUMP JUMPDEST PUSH1 0xC0 DUP6 ADD MSTORE PUSH1 0x7 DUP2 ADD SLOAD PUSH1 0xE0 DUP6 ADD MSTORE PUSH1 0x8 DUP2 ADD SLOAD PUSH2 0x100 DUP6 ADD MSTORE PUSH1 0x9 DUP2 ADD SLOAD PUSH2 0x120 DUP6 ADD MSTORE ADD SLOAD SWAP2 ADD MSTORE JUMP JUMPDEST ISZERO PUSH2 0x3B16 JUMPI JUMP JUMPDEST PUSH1 0x40 MLOAD PUSH3 0x461BCD PUSH1 0xE5 SHL DUP2 MSTORE PUSH1 0x20 PUSH1 0x4 DUP3 ADD MSTORE PUSH1 0x27 PUSH1 0x24 DUP3 ADD MSTORE PUSH32 0x4F6E6C79207468652074656E616E742063616E20706572666F726D2074686973 PUSH1 0x44 DUP3 ADD MSTORE PUSH7 0x1030B1BA34B7B7 PUSH1 0xC9 SHL PUSH1 0x64 DUP3 ADD MSTORE PUSH1 0x84 SWAP1 REVERT JUMPDEST PUSH1 0x0 SWAP3 SWAP2 DUP2 SLOAD PUSH2 0x3B7A DUP2 PUSH2 0x3968 JUMP JUMPDEST SWAP3 PUSH1 0x1 SWAP2 DUP1 DUP4 AND SWAP1 DUP2 ISZERO PUSH2 0x3BD4 JUMPI POP PUSH1 0x1 EQ PUSH2 0x3B97 JUMPI JUMPDEST POP POP POP POP JUMP JUMPDEST SWAP1 SWAP2 SWAP3 SWAP4 SWAP5 POP PUSH1 0x0 MSTORE PUSH1 0x20 SWAP1 PUSH1 0x20 PUSH1 0x0 KECCAK256 SWAP1 PUSH1 0x0 SWAP2 JUMPDEST DUP6 DUP4 LT PUSH2 0x3BC3 JUMPI POP POP POP POP ADD SWAP1 CODESIZE DUP1 DUP1 DUP1 PUSH2 0x3B91 JUMP JUMPDEST DUP1 SLOAD DUP6 DUP5 ADD MSTORE SWAP2 DUP4 ADD SWAP2 DUP2 ADD PUSH2 0x3BAD JUMP JUMPDEST PUSH1 0xFF NOT AND DUP5 MSTORE POP POP POP DUP2 ISZERO ISZERO SWAP1 SWAP2 MUL ADD SWAP2 POP CODESIZE DUP1 DUP1 DUP1 PUSH2 0x3B91 JUMP JUMPDEST ISZERO PUSH2 0x3BF6 JUMPI JUMP JUMPDEST PUSH1 0x40 MLOAD PUSH3 0x461BCD PUSH1 0xE5 SHL DUP2 MSTORE PUSH1 0x20 PUSH1 0x4 DUP3 ADD MSTORE PUSH1 0x12 PUSH1 0x24 DUP3 ADD MSTORE PUSH18 0x125B98DBDC9C9958DD081C185CDCDDDBDC99 PUSH1 0x72 SHL PUSH1 0x44 DUP3 ADD MSTORE PUSH1 0x64 SWAP1 REVERT JUMPDEST DUP2 DUP2 LT PUSH2 0x3C3B JUMPI POP POP JUMP JUMPDEST PUSH1 0x0 DUP2 SSTORE PUSH1 0x1 ADD PUSH2 0x3C30 JUMP JUMPDEST ISZERO PUSH2 0x3C4E JUMPI JUMP JUMPDEST PUSH1 0x40 MLOAD PUSH3 0x461BCD PUSH1 0xE5 SHL DUP2 MSTORE PUSH1 0x20 PUSH1 0x4 DUP3 ADD MSTORE PUSH1 0x15 PUSH1 0x24 DUP3 ADD MSTORE PUSH21 0x52657175657374206973206E6F7420616374697665 PUSH1 0x58 SHL PUSH1 0x44 DUP3 ADD MSTORE PUSH1 0x64 SWAP1 REVERT JUMPDEST PUSH1 0x40 MLOAD SWAP1 PUSH2 0x3C98 DUP3 PUSH2 0x35F5 JUMP JUMPDEST PUSH1 0x60 PUSH1 0x40 DUP4 DUP3 DUP2 MSTORE DUP3 PUSH1 0x20 DUP3 ADD MSTORE ADD MSTORE JUMP JUMPDEST SWAP1 DUP2 SLOAD PUSH2 0x3CB6 DUP2 PUSH2 0x38D2 JUMP JUMPDEST SWAP3 PUSH2 0x3CC4 PUSH1 0x40 MLOAD SWAP5 DUP6 PUSH2 0x3648 JUMP JUMPDEST DUP2 DUP5 MSTORE PUSH1 0x0 SWAP1 DUP2 MSTORE PUSH1 0x20 DUP1 DUP3 KECCAK256 DUP2 DUP7 ADD JUMPDEST DUP5 DUP5 LT PUSH2 0x3CE3 JUMPI POP POP POP POP POP JUMP JUMPDEST PUSH1 0x1 DUP4 DUP2 SWAP3 PUSH2 0x3CF1 DUP6 PUSH2 0x39A2 JUMP JUMPDEST DUP2 MSTORE ADD SWAP3 ADD SWAP4 ADD SWAP3 SWAP1 PUSH2 0x3CD5 JUMP JUMPDEST ISZERO PUSH2 0x3D06 JUMPI JUMP JUMPDEST PUSH1 0x40 MLOAD PUSH3 0x461BCD PUSH1 0xE5 SHL DUP2 MSTORE PUSH1 0x20 PUSH1 0x4 DUP3 ADD MSTORE PUSH1 0x25 PUSH1 0x24 DUP3 ADD MSTORE PUSH32 0x4F6E6C79206C616E646C6F72642063616E20706572666F726D20746869732061 PUSH1 0x44 DUP3 ADD MSTORE PUSH5 0x31BA34B7B7 PUSH1 0xD9 SHL PUSH1 0x64 DUP3 ADD MSTORE PUSH1 0x84 SWAP1 REVERT JUMPDEST ISZERO PUSH2 0x3D60 JUMPI JUMP JUMPDEST PUSH1 0x40 MLOAD PUSH3 0x461BCD PUSH1 0xE5 SHL DUP2 MSTORE PUSH1 0x20 PUSH1 0x4 DUP3 ADD MSTORE PUSH1 0x18 PUSH1 0x24 DUP3 ADD MSTORE PUSH32 0x4465706F73697420616C72656164792072656C65617365640000000000000000 PUSH1 0x44 DUP3 ADD MSTORE PUSH1 0x64 SWAP1 REVERT JUMPDEST ISZERO PUSH2 0x3DAC JUMPI JUMP JUMPDEST PUSH1 0x40 MLOAD PUSH3 0x461BCD PUSH1 0xE5 SHL DUP2 MSTORE PUSH1 0x20 PUSH1 0x4 DUP3 ADD MSTORE PUSH1 0x13 PUSH1 0x24 DUP3 ADD MSTORE PUSH19 0x436F6E7472616374206E6F7420616374697665 PUSH1 0x68 SHL PUSH1 0x44 DUP3 ADD MSTORE PUSH1 0x64 SWAP1 REVERT JUMPDEST ISZERO PUSH2 0x3DEE JUMPI JUMP JUMPDEST PUSH1 0x40 MLOAD PUSH3 0x461BCD PUSH1 0xE5 SHL DUP2 MSTORE PUSH1 0x20 PUSH1 0x4 DUP3 ADD MSTORE PUSH1 0x28 PUSH1 0x24 DUP3 ADD MSTORE PUSH32 0x52657175657374656420616D6F756E742065786365656473206465706F736974 PUSH1 0x44 DUP3 ADD MSTORE PUSH8 0x2062616C616E6365 PUSH1 0xC0 SHL PUSH1 0x64 DUP3 ADD MSTORE PUSH1 0x84 SWAP1 REVERT INVALID LOG2 PUSH5 0x6970667358 0x22 SLT KECCAK256 0x2A 0xC6 PUSH29 0x281862C620A28030307FE45F654A8EFCDBDF806BF915130235F9A54952 PUSH5 0x736F6C6343 STOP ADDMOD XOR STOP CALLER "},"methodIdentifiers":{"approveDepositRelease(bytes6,uint256)":"ca52c3c2","contractOwners(bytes6)":"cc8e3dde","contracts(bytes6)":"9cfa058b","createContract(bytes6,(string,string,string),(string,string,string),(string,string,uint256,uint256,uint256,uint256,string,uint256,uint256,int256,int256),string,string[],string[],string[],string,string,string)":"9aa5543e","depositReleaseRequests(bytes6,uint256)":"306c7a63","endContract(bytes6)":"fa34d5aa","getContract(bytes6,string)":"792855e4","getDepositBalance(bytes6)":"d557e702","getDepositReleaseRequests(bytes6)":"5039a08c","refundDeposit(bytes6)":"f437a24d","rejectDepositRelease(bytes6,uint256)":"29c2dc4e","requestDepositRelease(bytes6,uint256)":"a3104433","signContract(bytes6,string,string,string,string,string)":"157e21f7","updateContract(bytes6,string,string,string[],string[],string[],string,string,address,uint256,uint256)":"f78f38b4"}}}}}