{"contracts/UpdatedRentalContract.sol":{"HouseRentalContract":{"abi":[{"anonymous":false,"inputs":[{"indexed":true,"internalType":"bytes6","name":"contractId","type":"bytes6"},{"indexed":true,"internalType":"address","name":"owner","type":"address"},{"indexed":false,"internalType":"uint256","name":"timestamp","type":"uint256"}],"name":"ContractCreated","type":"event"},{"anonymous":false,"inputs":[{"indexed":true,"internalType":"bytes6","name":"contractId","type":"bytes6"},{"indexed":false,"internalType":"uint256","name":"timestamp","type":"uint256"}],"name":"ContractEnded","type":"event"},{"anonymous":false,"inputs":[{"indexed":true,"internalType":"bytes6","name":"contractId","type":"bytes6"},{"indexed":false,"internalType":"uint256","name":"timestamp","type":"uint256"}],"name":"ContractSigned","type":"event"},{"anonymous":false,"inputs":[{"indexed":true,"internalType":"bytes6","name":"contractId","type":"bytes6"},{"indexed":false,"internalType":"uint256","name":"timestamp","type":"uint256"}],"name":"ContractUpdated","type":"event"},{"anonymous":false,"inputs":[{"indexed":true,"internalType":"bytes6","name":"contractId","type":"bytes6"},{"indexed":false,"internalType":"uint256","name":"amount","type":"uint256"},{"indexed":false,"internalType":"uint256","name":"timestamp","type":"uint256"}],"name":"DepositPaid","type":"event"},{"anonymous":false,"inputs":[{"indexed":true,"internalType":"bytes6","name":"contractId","type":"bytes6"},{"indexed":false,"internalType":"uint256","name":"amount","type":"uint256"},{"indexed":false,"internalType":"uint256","name":"timestamp","type":"uint256"}],"name":"DepositReleaseRequested","type":"event"},{"anonymous":false,"inputs":[{"indexed":true,"internalType":"bytes6","name":"contractId","type":"bytes6"},{"indexed":false,"internalType":"uint256","name":"amount","type":"uint256"},{"indexed":false,"internalType":"uint256","name":"timestamp","type":"uint256"}],"name":"DepositReleased","type":"event"},{"inputs":[{"internalType":"bytes6","name":"contractId","type":"bytes6"},{"internalType":"uint256","name":"amount","type":"uint256"}],"name":"approveDepositRelease","outputs":[],"stateMutability":"nonpayable","type":"function"},{"inputs":[{"internalType":"bytes6","name":"","type":"bytes6"}],"name":"contractOwners","outputs":[{"internalType":"address","name":"","type":"address"}],"stateMutability":"view","type":"function"},{"inputs":[{"internalType":"bytes6","name":"","type":"bytes6"}],"name":"contracts","outputs":[{"internalType":"uint256","name":"creationDate","type":"uint256"},{"components":[{"internalType":"string","name":"name","type":"string"},{"internalType":"string","name":"identificationNumber","type":"string"},{"internalType":"string","name":"house_address","type":"string"}],"internalType":"struct HouseRentalContract.PersonalInfo","name":"landlord","type":"tuple"},{"components":[{"internalType":"string","name":"name","type":"string"},{"internalType":"string","name":"identificationNumber","type":"string"},{"internalType":"string","name":"house_address","type":"string"}],"internalType":"struct HouseRentalContract.PersonalInfo","name":"tenant","type":"tuple"},{"components":[{"internalType":"string","name":"rent_address","type":"string"},{"internalType":"string","name":"buildingType","type":"string"},{"internalType":"uint256","name":"rentPeriod","type":"uint256"},{"internalType":"uint256","name":"effectiveStartDate","type":"uint256"},{"internalType":"uint256","name":"effectiveEndDate","type":"uint256"},{"internalType":"uint256","name":"monthlyRent","type":"uint256"},{"internalType":"string","name":"paymentMethod","type":"string"},{"internalType":"uint256","name":"maxOverduePeriod","type":"uint256"},{"internalType":"uint256","name":"deposit","type":"uint256"},{"internalType":"int256","name":"latitude","type":"int256"},{"internalType":"int256","name":"longitude","type":"int256"}],"internalType":"struct HouseRentalContract.HouseDetails","name":"houseDetails","type":"tuple"},{"internalType":"string","name":"agreementDetails","type":"string"},{"internalType":"string","name":"landlordSignature","type":"string"},{"internalType":"string","name":"tenantSignature","type":"string"},{"internalType":"string","name":"password","type":"string"},{"internalType":"address","name":"tenantAddress","type":"address"},{"internalType":"bool","name":"depositPaid","type":"bool"},{"internalType":"bool","name":"depositReleased","type":"bool"},{"internalType":"bool","name":"contractActive","type":"bool"},{"internalType":"uint256","name":"remainingDeposit","type":"uint256"}],"stateMutability":"view","type":"function"},{"inputs":[{"internalType":"bytes6","name":"_uniqueIdentifier","type":"bytes6"},{"components":[{"internalType":"string","name":"name","type":"string"},{"internalType":"string","name":"identificationNumber","type":"string"},{"internalType":"string","name":"house_address","type":"string"}],"internalType":"struct HouseRentalContract.PersonalInfo","name":"_landlord","type":"tuple"},{"components":[{"internalType":"string","name":"name","type":"string"},{"internalType":"string","name":"identificationNumber","type":"string"},{"internalType":"string","name":"house_address","type":"string"}],"internalType":"struct HouseRentalContract.PersonalInfo","name":"_tenant","type":"tuple"},{"components":[{"internalType":"string","name":"rent_address","type":"string"},{"internalType":"string","name":"buildingType","type":"string"},{"internalType":"uint256","name":"rentPeriod","type":"uint256"},{"internalType":"uint256","name":"effectiveStartDate","type":"uint256"},{"internalType":"uint256","name":"effectiveEndDate","type":"uint256"},{"internalType":"uint256","name":"monthlyRent","type":"uint256"},{"internalType":"string","name":"paymentMethod","type":"string"},{"internalType":"uint256","name":"maxOverduePeriod","type":"uint256"},{"internalType":"uint256","name":"deposit","type":"uint256"},{"internalType":"int256","name":"latitude","type":"int256"},{"internalType":"int256","name":"longitude","type":"int256"}],"internalType":"struct HouseRentalContract.HouseDetails","name":"_houseDetails","type":"tuple"},{"internalType":"string","name":"_agreementDetails","type":"string"},{"internalType":"string[]","name":"_tenantAgreements","type":"string[]"},{"internalType":"string[]","name":"_landlordResponsibilities","type":"string[]"},{"internalType":"string[]","name":"_agreementsBetweenLandlord","type":"string[]"},{"internalType":"string","name":"_landlordSignature","type":"string"},{"internalType":"string","name":"_tenantSignature","type":"string"},{"internalType":"string","name":"_password","type":"string"}],"name":"createContract","outputs":[],"stateMutability":"nonpayable","type":"function"},{"inputs":[{"internalType":"bytes6","name":"contractId","type":"bytes6"}],"name":"endContract","outputs":[],"stateMutability":"nonpayable","type":"function"},{"inputs":[{"internalType":"bytes6","name":"contractId","type":"bytes6"},{"internalType":"string","name":"_password","type":"string"}],"name":"getContract","outputs":[{"components":[{"internalType":"uint256","name":"creationDate","type":"uint256"},{"components":[{"internalType":"string","name":"name","type":"string"},{"internalType":"string","name":"identificationNumber","type":"string"},{"internalType":"string","name":"house_address","type":"string"}],"internalType":"struct HouseRentalContract.PersonalInfo","name":"landlord","type":"tuple"},{"components":[{"internalType":"string","name":"name","type":"string"},{"internalType":"string","name":"identificationNumber","type":"string"},{"internalType":"string","name":"house_address","type":"string"}],"internalType":"struct HouseRentalContract.PersonalInfo","name":"tenant","type":"tuple"},{"components":[{"internalType":"string","name":"rent_address","type":"string"},{"internalType":"string","name":"buildingType","type":"string"},{"internalType":"uint256","name":"rentPeriod","type":"uint256"},{"internalType":"uint256","name":"effectiveStartDate","type":"uint256"},{"internalType":"uint256","name":"effectiveEndDate","type":"uint256"},{"internalType":"uint256","name":"monthlyRent","type":"uint256"},{"internalType":"string","name":"paymentMethod","type":"string"},{"internalType":"uint256","name":"maxOverduePeriod","type":"uint256"},{"internalType":"uint256","name":"deposit","type":"uint256"},{"internalType":"int256","name":"latitude","type":"int256"},{"internalType":"int256","name":"longitude","type":"int256"}],"internalType":"struct HouseRentalContract.HouseDetails","name":"houseDetails","type":"tuple"},{"internalType":"string","name":"agreementDetails","type":"string"},{"internalType":"string[]","name":"tenantAgreements","type":"string[]"},{"internalType":"string[]","name":"landlordResponsibilities","type":"string[]"},{"internalType":"string[]","name":"agreementsBetweenLandlord","type":"string[]"},{"internalType":"string","name":"landlordSignature","type":"string"},{"internalType":"string","name":"tenantSignature","type":"string"},{"internalType":"string","name":"password","type":"string"},{"internalType":"address","name":"tenantAddress","type":"address"},{"internalType":"bool","name":"depositPaid","type":"bool"},{"internalType":"bool","name":"depositReleased","type":"bool"},{"internalType":"bool","name":"contractActive","type":"bool"},{"internalType":"uint256","name":"remainingDeposit","type":"uint256"}],"internalType":"struct HouseRentalContract.ContractTerms","name":"","type":"tuple"}],"stateMutability":"view","type":"function"},{"inputs":[{"internalType":"bytes6","name":"contractId","type":"bytes6"}],"name":"getDepositBalance","outputs":[{"internalType":"uint256","name":"","type":"uint256"}],"stateMutability":"view","type":"function"},{"inputs":[{"internalType":"bytes6","name":"contractId","type":"bytes6"}],"name":"refundDeposit","outputs":[],"stateMutability":"nonpayable","type":"function"},{"inputs":[{"internalType":"bytes6","name":"contractId","type":"bytes6"},{"internalType":"uint256","name":"amount","type":"uint256"}],"name":"requestDepositRelease","outputs":[],"stateMutability":"nonpayable","type":"function"},{"inputs":[{"internalType":"bytes6","name":"contractId","type":"bytes6"},{"internalType":"string","name":"_password","type":"string"},{"internalType":"string","name":"_name","type":"string"},{"internalType":"string","name":"_identificationNumber","type":"string"},{"internalType":"string","name":"_houseAddress","type":"string"},{"internalType":"string","name":"_tenantSignature","type":"string"}],"name":"signContract","outputs":[],"stateMutability":"payable","type":"function"},{"inputs":[{"internalType":"bytes6","name":"contractId","type":"bytes6"},{"internalType":"string","name":"_password","type":"string"},{"internalType":"string","name":"_agreementDetails","type":"string"},{"internalType":"string[]","name":"_tenantAgreements","type":"string[]"},{"internalType":"string[]","name":"_landlordResponsibilities","type":"string[]"},{"internalType":"string[]","name":"_agreementsBetweenLandlord","type":"string[]"},{"internalType":"string","name":"_landlordSignature","type":"string"},{"internalType":"string","name":"_tenantSignature","type":"string"},{"internalType":"address","name":"_tenantAddress","type":"address"},{"internalType":"uint256","name":"_effectiveStartDate","type":"uint256"},{"internalType":"uint256","name":"_effectiveEndDate","type":"uint256"}],"name":"updateContract","outputs":[],"stateMutability":"nonpayable","type":"function"}],"evm":{"bytecode":{"linkReferences":{},"object":"6080806040523461001657613bb6908161001c8239f35b600080fdfe6080604052600436101561001257600080fd5b60003560e01c8063157e21f714612cff578063792855e4146129495780639aa5543e146111ba5780639cfa058b1461105a578063a310443314610f6a578063ca52c3c214610de7578063cc8e3dde14610da4578063d557e70214610d66578063f437a24d14610c38578063f78f38b4146101465763fa34d5aa1461009557600080fd5b34610141576020366003190112610141576001600160d01b03196100b7613351565b168060005260016020526100d960018060a01b036040600020541633146139fc565b8060005260006020526100f960ff60196040600020015460b01c16613ae1565b806000526000602052601960406000200160ff60b01b1981541690557f47933618ed5daf6ec135a2d05b0586259833ca21b20043c6e4c525cb0502c0dc6020604051428152a2005b600080fd5b346101415761016036600319011261014157610160613351565b6024356001600160401b0381116101415761017f9036906004016133dc565b6044356001600160401b0381116101415761019e9036906004016133dc565b906064356001600160401b038111610141576101be90369060040161362a565b6084356001600160401b038111610141576101dd90369060040161362a565b60a4356001600160401b038111610141576101fc90369060040161362a565b60c4356001600160401b0381116101415761021b9036906004016133dc565b9160e4356001600160401b0381116101415761023b9036906004016133dc565b61010435959094906001600160a01b0387168703610141576102f99065ffffffffffff60d01b8a16600052600160205261028360018060a01b036040600020541633146139fc565b65ffffffffffff60d01b8a16600052600060205260186040600020016040516102c2816102b46020820180956138ac565b03601f1981018352826133bb565b519020906040516102f0602082816102e38183019687815193849201613432565b81010380845201826133bb565b51902014613930565b65ffffffffffff60d01b881660005260006020526040600020968051906001600160401b0382116106105761033160128a01546136a9565b601f8111610c03575b50602090601f8311600114610b915761036c929160009183610b86575b50508160011b916000199060031b1c19161790565b60128801555b805190600160401b82116106105760138801548260138a0155808310610b0e575b5060200190601388016000526020600020916000905b8282106109fe5750505050805190600160401b8211610610576014870154826014890155808310610986575b5060200190601487016000526020600020916000905b82821061086b5750505050805190600160401b82116106105760158601548260158801558083106107f3575b5060200190601586016000526020600020916000905b8282106106cd57505050508051906001600160401b0382116106105761045660168601546136a9565b601f8111610698575b50602090601f8311600114610626576104909291600091836105605750508160011b916000199060031b1c19161790565b60168401555b805160178401916001600160401b038211610610576104b583546136a9565b601f81116105d3575b50602090601f831160011461056b576104ef9291600091836105605750508160011b916000199060031b1c19161790565b90555b601982019060018060a01b03166bffffffffffffffffffffffff60a01b82541617905561012435600a820155600b610144359101557f0cc49eaa5a4e01877eb9ef0128739d175fbccda52502904818ec03ac3d23d12f60206040519242845265ffffffffffff60d01b1692a2005b015190508780610357565b90601f198316918460005260206000209260005b8181106105bb57509084600195949392106105a2575b505050811b0190556104f2565b015160001960f88460031b161c19169055868080610595565b9293602060018192878601518155019501930161057f565b61060090846000526020600020601f850160051c81019160208610610606575b601f0160051c0190613971565b866104be565b90915081906105f3565b634e487b7160e01b600052604160045260246000fd5b9190601686016000526020600020906000935b601f198416851061067d576001945083601f19811610610664575b505050811b016016840155610496565b015160001960f88460031b161c19169055868080610654565b81810151835560209485019460019093019290910190610639565b6106c790601687016000526020600020601f850160051c8101916020861061060657601f0160051c0190613971565b8661045f565b80518051906001600160401b038211610610576106ea86546136a9565b601f81116107b6575b50602090601f8311600114610746579261072c8360019594602094879660009261073b5750508160011b916000199060031b1c19161790565b87555b0194019101909261042d565b015190508f80610357565b908660005260206000209160005b601f198516811061079e575083602093600196938796938794601f19811610610785575b505050811b01875561072f565b015160001960f88460031b161c191690558e8080610778565b91926020600181928685015181550194019201610754565b6107e3908760005260206000206005601f8601811c820192602087106107e9575b601f01901c0190613971565b8b6106f3565b91925082916107d7565b601587016000526020600020908382015b8183018110610814575050610417565b80610821600192546136a9565b8061082e575b5001610804565b601f811183146108445750600081555b8b610827565b600090828252610862601f60208420920160051c8201858301613971565b8183555561083e565b80518051906001600160401b0382116106105761088886546136a9565b601f8111610954575b50602090601f83116001146108e457926108ca836001959460209487966000926108d95750508160011b916000199060031b1c19161790565b87555b019401910190926103eb565b015190503880610357565b908660005260206000209160005b601f198516811061093c575083602093600196938796938794601f19811610610923575b505050811b0187556108cd565b015160001960f88460031b161c191690558f8080610916565b919260206001819286850151815501940192016108f2565b610980908760005260206000206005601f8601811c820192602087106107e957601f01901c0190613971565b8c610891565b601488016000526020600020908382015b81830181106109a75750506103d5565b806109b4600192546136a9565b806109c1575b5001610997565b601f811183146109d75750600081555b8c6109ba565b6000908282526109f5601f60208420920160051c8201858301613971565b818355556109d1565b80518051906001600160401b03821161061057610a1b86546136a9565b601f8111610adc575b50602090601f8311600114610a6c5792610a5d836001959460209487966000926108d95750508160011b916000199060031b1c19161790565b87555b019401910190926103a9565b908660005260206000209160005b601f1985168110610ac4575083602093600196938796938794601f19811610610aab575b505050811b018755610a60565b015160001960f88460031b161c19169055388080610a9e565b91926020600181928685015181550194019201610a7a565b610b08908760005260206000206005601f8601811c820192602087106107e957601f01901c0190613971565b8d610a24565b601389016000526020600020908382015b8183018110610b2f575050610393565b80610b3c600192546136a9565b80610b49575b5001610b1f565b601f81118314610b5f5750600081555b8d610b42565b600090828252610b7d601f60208420920160051c8201858301613971565b81835555610b59565b015190508b80610357565b919060128a016000526020600020906000935b601f1984168510610be8576001945083601f19811610610bcf575b505050811b016012880155610372565b015160001960f88460031b161c191690558a8080610bbf565b81810151835560209485019460019093019290910190610ba4565b610c329060128b016000526020600020601f850160051c8101916020861061060657601f0160051c0190613971565b8a61033a565b34610141576020366003190112610141576001600160d01b0319610c5a613351565b1680600052600160205260018060a01b03610c7d816040600020541633146139fc565b8160005260006020526040600020600b8101544210610d28576000808083601982950190601a825491610cb660ff8460a81c1615613a95565b015461ffff60a01b198216600160a81b17909255909586918391908315610d1e575b1690f115610d125760407f398abc1c2b2e46ec68f879c3ac11be927ede743d80d52d9968cba00343bf074f918151908152426020820152a2005b6040513d6000823e3d90fd5b6108fc9250610cd8565b60405162461bcd60e51b815260206004820152601660248201527510dbdb9d1c9858dd081b9bdd08195b991959081e595d60521b6044820152606490fd5b34610141576020366003190112610141576001600160d01b0319610d88613351565b1660005260006020526020601a60406000200154604051908152f35b34610141576020366003190112610141576001600160d01b0319610dc6613351565b166000526001602052602060018060a01b0360406000205416604051908152f35b3461014157604036600319011261014157610e00613351565b6024359065ffffffffffff60d01b169081600052602060008152610e3560018060a01b03601960406000200154163314613850565b8260005260008152610e5460ff60196040600020015460a01c16613a56565b8260005260008152610e7460ff60196040600020015460a81c1615613a95565b8260005260008152610e9360ff60196040600020015460b01c16613ae1565b8260005260008152610eaf601a60406000200154831115613b23565b8260005260008152601a604060002001805490838203918211610f5457558160008115610f4b575b600080809381933390f115610d12577f398abc1c2b2e46ec68f879c3ac11be927ede743d80d52d9968cba00343bf074f91604091846000526000815282600020601a81015415610f30575b5082519182524290820152a2005b601901805461ffff60a81b1916600160a81b17905585610f22565b506108fc610ed7565b634e487b7160e01b600052601160045260246000fd5b3461014157604036600319011261014157610f83613351565b7f953fe04a94ff7ce86dc3b4bdddcb01910b42e877955ad5013702d3b195e59fc860406024359265ffffffffffff60d01b169283600052602060018152610fd760018060a01b0384600020541633146139fc565b8460005260008152610ff560ff601985600020015460a01c16613a56565b846000526000815261101460ff601985600020015460a81c1615613a95565b846000526000815261103260ff601985600020015460b01c16613ae1565b846000526000815261104d601a846000200154831115613b23565b82519182524290820152a2005b34610141576020366003190112610141576001600160d01b031961107c613351565b166000526000602052604060002080546001820161109990613788565b916110a660048201613788565b6110b2600783016137c0565b6110be601284016136e3565b6110ca601685016136e3565b6110d6601786016136e3565b916110e3601887016136e3565b93601987015496601a015495604051998a996101a0908b528060208c01528a0161110c9161347a565b89810360408b015261111d9161347a565b88810360608a015261112e916134bc565b878103608089015261113f91613455565b86810360a088015261115091613455565b85810360c087015261116191613455565b84810360e086015261117291613455565b91600160a01b6001900381166101008501528060a01c60ff1615156101208501528060a81c60ff16151561014085015260b01c60ff1615156101608401526101808301520390f35b346101415760031961016036820112610141576111d5613351565b906024356001600160401b038111610141576111f590369060040161359c565b906044356001600160401b0381116101415761121590369060040161359c565b90606435906001600160401b03821161014157610160908236030112610141576040519061124282613384565b80600401356001600160401b0381116101415761126590600436918401016133dc565b825260248101356001600160401b0381116101415761128a90600436918401016133dc565b602083015260448101356040830152606481013560608301526084810135608083015260a481013560a083015260c4810135906001600160401b038211610141576112de61014492600436918401016133dc565b60c084015260e481013560e084015261010481013561010084015261012481013561012084015201356101408201526084356001600160401b0381116101415761132c9036906004016133dc565b60a4356001600160401b0381116101415761134b90369060040161362a565b60c4356001600160401b0381116101415761136a90369060040161362a565b6001600160401b0360e43511610141576113893660e43560040161362a565b906001600160401b036101043511610141576113ab36610104356004016133dc565b926001600160401b036101243511610141576113cd36610124356004016133dc565b94610144356001600160401b038111610141576113ee9036906004016133dc565b6001600160d01b03198b166000908152600160205260409020549097906001600160a01b03166128ee57610100810151986040519a61142c8c613368565b428c5260208c015260408b015260608a0152608089015260a088015260c087015260e08601526101008501526101208401526101408301526000610160830152600061018083015260006101a083015260006101c08301526101e082015265ffffffffffff60d01b8216600052600060205260406000209181518355602082015180518051906001600160401b038211610610576114cd60018701546136a9565b601f81116128b9575b50602090601f8311600114612847576115079291600091836105605750508160011b916000199060031b1c19161790565b60018501555b60208101518051906001600160401b0382116106105761153060028701546136a9565b601f8111612812575b50602090601f831160011461279f57918061156e9260409594600092611bc15750508160011b916000199060031b1c19161790565b60028601555b01519283516001600160401b0381116106105761159460038301546136a9565b601f811161276a575b506020601f82116001146126fb5781906115d093949596600092611c775750508160011b916000199060031b1c19161790565b60038201555b604083015180518051906001600160401b038211610610576115fb60048501546136a9565b601f81116126c6575b50602090601f8311600114612654576116359291600091836105605750508160011b916000199060031b1c19161790565b60048301555b60208101518051906001600160401b0382116106105761165e60058501546136a9565b601f811161261f575b50602090601f83116001146125ac57918061169c9260409594600092611bc15750508160011b916000199060031b1c19161790565b60058401555b01519283516001600160401b038111610610576116c260068401546136a9565b601f8111612577575b506020601f82116001146125085781906116fe93949596600092611c775750508160011b916000199060031b1c19161790565b60068301555b606081015180518051906001600160401b0382116106105761172960078601546136a9565b601f81116124d3575b50602090601f8311600114612461576117639291600091836105605750508160011b916000199060031b1c19161790565b60078401555b60208101518051906001600160401b0382116106105761178c60088601546136a9565b601f811161242c575b50602090601f83116001146123ba576117c69291600091836105605750508160011b916000199060031b1c19161790565b60088401555b604081015160098401556060810151600a8401556080810151600b84015560a0810151600c84015560c08101518051906001600160401b03821161061057611817600d8601546136a9565b601f8111612385575b50602090601f8311600114612311579180611856926101409594600092611bc15750508160011b916000199060031b1c19161790565b600d8501555b60e0810151600e850155610100810151600f85015561012081015160108501550151601183015560808101519283516001600160401b038111610610576118a660128501546136a9565b601f81116122dc575b506020601f821160011461226d5781906118e293949596600092611c775750508160011b916000199060031b1c19161790565b60128401555b60a0820151805190600160401b82116106105760138501548260138701558083106121f5575b5060200190601385016000526020600020916000905b8282106120e5575050505060c0820151805190600160401b821161061057601485015482601487015580831061206d575b5060200190601485016000526020600020916000905b828210611f5d575050505060e0820151805190600160401b8211610610576015850154826015870155808310611ee5575b5060200190601585016000526020600020916000905b828210611dca57505050506101008201519283516001600160401b038111610610576119e160168301546136a9565b601f8111611d95575b506020601f8211600114611d26578190611a1d93949596600092611c775750508160011b916000199060031b1c19161790565b60168201555b6101208301519283516001600160401b03811161061057611a4760178401546136a9565b601f8111611cf1575b506020601f8211600114611c82578190611a8393949596600092611c775750508160011b916000199060031b1c19161790565b60178301555b6101408101518051906001600160401b03821161061057611aad60188501546136a9565b601f8111611c42575b50602090601f8311600114611bcc57826101e093601a9593611aee93600092611bc15750508160011b916000199060031b1c19161790565b60188501555b6019840160018060a01b036101608301511681549060ff60a01b610180850151151560a01b1660ff60a81b6101a0860151151560a81b169160ff60b01b6101c0870151151560b01b169368ffffffffffffffffff60b81b16171717179055015191015565ffffffffffff60d01b811660005260016020526040600020336bffffffffffffffffffffffff60a01b8254161790556040514281527fb33818a9e5a811c9aab3a6a5be602cba781d631797144964a715ff66e01d54b16020339365ffffffffffff60d01b1692a3005b015190508880610357565b906018850160005260206000209160005b601f1985168110611c2a575092601a94926001926101e09583601f19811610611c11575b505050811b016018850155611af4565b015160001960f88460031b161c19169055878080611c01565b91926020600181928685015181550194019201611bdd565b611c7190601886016000526020600020601f850160051c8101916020861061060657601f0160051c0190613971565b85611ab6565b015190508680610357565b6017840160005260206000209060005b601f1984168110611cd9575060019394959683601f19811610611cc0575b505050811b016017830155611a89565b015160001960f88460031b161c19169055858080611cb0565b9091602060018192858b015181550193019101611c92565b611d2090601785016000526020600020601f840160051c8101916020851061060657601f0160051c0190613971565b85611a50565b6016830160005260206000209060005b601f1984168110611d7d575060019394959683601f19811610611d64575b505050811b016016820155611a23565b015160001960f88460031b161c19169055858080611d54565b9091602060018192858b015181550193019101611d36565b611dc490601684016000526020600020601f840160051c8101916020851061060657601f0160051c0190613971565b856119ea565b80518051906001600160401b03821161061057611de786546136a9565b601f8111611eb3575b50602090601f8311600114611e435792611e2983600195946020948796600092611e385750508160011b916000199060031b1c19161790565b87555b019401910190926119b2565b015190508d80610357565b908660005260206000209160005b601f1985168110611e9b575083602093600196938796938794601f19811610611e82575b505050811b018755611e2c565b015160001960f88460031b161c191690558c8080611e75565b91926020600181928685015181550194019201611e51565b611edf90876000526020600020601f850160051c8101916020861061060657601f0160051c0190613971565b89611df0565b601586016000526020600020908382015b8183018110611f0657505061199c565b80611f13600192546136a9565b80611f20575b5001611ef6565b601f81118314611f365750600081555b89611f19565b600090828252611f54601f60208420920160051c8201858301613971565b81835555611f30565b80518051906001600160401b03821161061057611f7a86546136a9565b601f811161203b575b50602090601f8311600114611fcb5792611fbc83600195946020948796600092611e385750508160011b916000199060031b1c19161790565b87555b0194019101909261196b565b908660005260206000209160005b601f1985168110612023575083602093600196938796938794601f1981161061200a575b505050811b018755611fbf565b015160001960f88460031b161c191690558c8080611ffd565b91926020600181928685015181550194019201611fd9565b61206790876000526020600020601f850160051c8101916020861061060657601f0160051c0190613971565b89611f83565b601486016000526020600020908382015b818301811061208e575050611955565b8061209b600192546136a9565b806120a8575b500161207e565b601f811183146120be5750600081555b896120a1565b6000908282526120dc601f60208420920160051c8201858301613971565b818355556120b8565b80518051906001600160401b0382116106105761210286546136a9565b601f81116121c3575b50602090601f8311600114612153579261214483600195946020948796600092611e385750508160011b916000199060031b1c19161790565b87555b01940191019092611924565b908660005260206000209160005b601f19851681106121ab575083602093600196938796938794601f19811610612192575b505050811b018755612147565b015160001960f88460031b161c191690558c8080612185565b91926020600181928685015181550194019201612161565b6121ef90876000526020600020601f850160051c8101916020861061060657601f0160051c0190613971565b8961210b565b601386016000526020600020908382015b818301811061221657505061190e565b80612223600192546136a9565b80612230575b5001612206565b601f811183146122465750600081555b89612229565b600090828252612264601f60208420920160051c8201858301613971565b81835555612240565b6012850160005260206000209060005b601f19841681106122c4575060019394959683601f198116106122ab575b505050811b0160128401556118e8565b015160001960f88460031b161c1916905585808061229b565b9091602060018192858b01518155019301910161227d565b61230b90601286016000526020600020601f840160051c8101916020851061060657601f0160051c0190613971565b856118af565b90600d860160005260206000209160005b601f198516811061236d57509183916001936101409695601f19811610612354575b505050811b01600d85015561185c565b015160001960f88460031b161c19169055878080612344565b91926020600181928685015181550194019201612322565b6123b490600d87016000526020600020601f850160051c8101916020861061060657601f0160051c0190613971565b86611820565b9190600886016000526020600020906000935b601f1984168510612411576001945083601f198116106123f8575b505050811b0160088401556117cc565b015160001960f88460031b161c191690558680806123e8565b818101518355602094850194600190930192909101906123cd565b61245b90600887016000526020600020601f850160051c8101916020861061060657601f0160051c0190613971565b86611795565b9190600786016000526020600020906000935b601f19841685106124b8576001945083601f1981161061249f575b505050811b016007840155611769565b015160001960f88460031b161c1916905586808061248f565b81810151835560209485019460019093019290910190612474565b61250290600787016000526020600020601f850160051c8101916020861061060657601f0160051c0190613971565b86611732565b6006840160005260206000209060005b601f198416811061255f575060019394959683601f19811610612546575b505050811b016006830155611704565b015160001960f88460031b161c19169055858080612536565b9091602060018192858b015181550193019101612518565b6125a690600685016000526020600020601f840160051c8101916020851061060657601f0160051c0190613971565b856116cb565b906005850160005260206000209160005b601f1985168110612607575091839160019360409695601f198116106125ee575b505050811b0160058401556116a2565b015160001960f88460031b161c191690558780806125de565b919260206001819286850151815501940192016125bd565b61264e90600586016000526020600020601f850160051c8101916020861061060657601f0160051c0190613971565b86611667565b9190600485016000526020600020906000935b601f19841685106126ab576001945083601f19811610612692575b505050811b01600483015561163b565b015160001960f88460031b161c19169055868080612682565b81810151835560209485019460019093019290910190612667565b6126f590600486016000526020600020601f850160051c8101916020861061060657601f0160051c0190613971565b86611604565b6003830160005260206000209060005b601f1984168110612752575060019394959683601f19811610612739575b505050811b0160038201556115d6565b015160001960f88460031b161c19169055858080612729565b9091602060018192858b01518155019301910161270b565b61279990600384016000526020600020601f840160051c8101916020851061060657601f0160051c0190613971565b8561159d565b906002870160005260206000209160005b601f19851681106127fa575091839160019360409695601f198116106127e1575b505050811b016002860155611574565b015160001960f88460031b161c191690558780806127d1565b919260206001819286850151815501940192016127b0565b61284190600288016000526020600020601f850160051c8101916020861061060657601f0160051c0190613971565b86611539565b9190600187016000526020600020906000935b601f198416851061289e576001945083601f19811610612885575b505050811b01600185015561150d565b015160001960f88460031b161c19169055868080612875565b8181015183556020948501946001909301929091019061285a565b6128e890600188016000526020600020601f850160051c8101916020861061060657601f0160051c0190613971565b866114d6565b60405162461bcd60e51b815260206004820152602d60248201527f436f6e7472616374207769746820676976656e206964656e746966696572206160448201526c6c72656164792065786973747360981b6064820152608490fd5b3461014157604036600319011261014157612962613351565b6024356001600160401b03811161014157612984612a8d9136906004016133dc565b9160006101e060405161299681613368565b8281526129a1613988565b60208201526129ae613988565b60408201526040516129bf81613384565b60608152606060208201528360408201528360608201528360808201528360a0820152606060c08201528360e0820152836101008201528361012082015283610140820152606082015260606080820152606060a0820152606060c0820152606060e08201526060610100820152606061012082015260606101408201528261016082015282610180820152826101a0820152826101c0820152015265ffffffffffff60d01b169182600052600060205260186040600020016040516102c2816102b46020820180956138ac565b600052600060205261022060206040600020601a60405191612aae83613368565b80548352612abe60018201613788565b84840152612ace60048201613788565b6040840152612adf600782016137c0565b6060840152612af0601282016136e3565b6080840152612b01601382016139a7565b60a0840152612b12601482016139a7565b60c0840152612b23601582016139a7565b60e0840152612b34601682016136e3565b610100840152612b46601782016136e3565b610120840152612b58601882016136e3565b61014084015260ff601982015460018060a01b038116610160860152818160a01c161515610180860152818160a81c1615156101a086015260b01c1615156101c084015201546101e08201526101e0612cb6612c9e612c86612c6e612c57612c41612c2b612c15612bff612be98b6040519e8f9e8f928184528051828501520151916102006040820152019061347a565b60408c01518d8203601f190160608f015261347a565b60608b01518c8203601f190160808e01526134bc565b60808a01518b8203601f190160a08d0152613455565b60a08901518a8203601f190160c08c015261353f565b60c0880151898203601f190160e08b015261353f565b60e0870151888203601f19016101008a015261353f565b610100860151878203601f1901610120890152613455565b610120850151868203601f1901610140880152613455565b610140840151858203601f1901610160870152613455565b9160018060a01b036101608201511661018085015261018081015115156101a08501526101a081015115156101c08501526101c081015115158285015201516102008301520390f35b60c036600319011261014157612d13613351565b6024906001600160401b0390823582811161014157612d369036906004016133dc565b9260443583811161014157612d4f9036906004016133dc565b9260643581811161014157612d689036906004016133dc565b9360843582811161014157612d819036906004016133dc565b9360a43583811161014157612d9a9036906004016133dc565b9065ffffffffffff60d01b16968760005260209660008852612dcd60018060a01b03601960406000200154163314613850565b8860005260008852612e276018604060002001926040519384612df38c820180936138ac565b0394612e07601f19968781018352826133bb565b519020906040516102f08c82816102e38183019687815193849201613432565b8860005260008852600f60406000200154340361330d57886000526000885260406000209660048801855187811161319a57612e6382546136a9565b96601f978c8982116132d4575b50508b9088831160011461326d57612ea09291600091836131af5750508160011b916000199060031b1c19161790565b90555b6005918289019080519088821161325857612ebe83546136a9565b8c898211613221575b50508b908883116001146131ba57612ef79291600091836131af5750508160011b916000199060031b1c19161790565b90555b8051600689019187821161319a57612f1283546136a9565b8b888211613163575b50508a908783116001146130fc57612f4b929160009183611e385750508160011b916000199060031b1c19161790565b90555b601787019583519586116130e85750612f6786546136a9565b8481116130b0575b505086928411600114613026575092612fc883601994604097947febbf6b2760b055c34e7d54bccf7079ca90030b876fbf1d76c144a76d28123594999760009261301b5750508160011b916000199060031b1c19161790565b90555b01805462ff00ff60a01b19166201000160a01b179055815142815284907f85b74a154907154c273caeb0be924feadb5271097e078bfd27ef84f1a75f05e8908390a28151903482524290820152a2005b015190508a80610357565b60008581528781209392918516905b818110613099575093604096937febbf6b2760b055c34e7d54bccf7079ca90030b876fbf1d76c144a76d281235949896936001938360199810613080575b505050811b019055612fcb565b015160001960f88460031b161c19169055898080613073565b929388600181928786015181550195019301613035565b6130d89187600052896000209086808901821c8301938c8a106130df575b01901c0190613971565b8880612f6f565b935082936130ce565b634e487b7160e01b60009081526041600452fd5b9085831691846000528c600020928d6000905b82821061314c575050908460019594939210613133575b505050811b019055612f4e565b015160001960f88460031b161c191690558c8080613126565b60018596829396860151815501950193018e61310f565b61318a9185600052898260002091818701891c8301938710613191575b01871c0190613971565b8c8b612f1b565b92508192613180565b88634e487b7160e01b60005260416004526000fd5b015190508e80610357565b908c918784168560005283600020936000905b82821061320a5750509084600195949392106131f1575b505050811b019055612efa565b015160001960f88460031b161c191690558d80806131e4565b60018596829396860151815501950193018f6131cd565b61324891856000528a82600020918187018a1c830193871061324f575b01881c0190613971565b8d8c612ec7565b9250819261323e565b89634e487b7160e01b60005260416004526000fd5b908c918784168560005283600020936000905b8282106132bd5750509084600195949392106132a4575b505050811b019055612ea3565b015160001960f88460031b161c191690558d8080613297565b60018596829396860151815501950193018f613280565b6132fd91856000528a826000209181870160051c8301938710613304575b0160051c0190613971565b8d8c612e70565b925081926132f2565b60405162461bcd60e51b8152600481018990526018818801527f496e636f7272656374206465706f73697420616d6f756e7400000000000000006044820152606490fd5b600435906001600160d01b03198216820361014157565b61020081019081106001600160401b0382111761061057604052565b61016081019081106001600160401b0382111761061057604052565b606081019081106001600160401b0382111761061057604052565b90601f801991011681019081106001600160401b0382111761061057604052565b81601f82011215610141578035906001600160401b0382116106105760405192613410601f8401601f1916602001856133bb565b8284526020838301011161014157816000926020809301838601378301015290565b60005b8381106134455750506000910152565b8181015183820152602001613435565b9060209161346e81518092818552858086019101613432565b601f01601f1916010190565b6134b99160406134a86134968451606085526060850190613455565b60208501518482036020860152613455565b920151906040818403910152613455565b90565b906135116134d7613496610160855190808652850190613455565b60408401516040840152606084015160608401526080840151608084015260a084015160a084015260c084015183820360c0850152613455565b9160e081015160e0830152610100808201519083015261012080820151908301526101408091015191015290565b90808251908181526020809101926020808460051b8301019501936000915b84831061356e5750505050505090565b909192939495848061358c600193601f198682030187528a51613455565b980193019301919493929061355e565b919060608382031261014157604051906135b5826133a0565b81938035916001600160401b039283811161014157816135d69184016133dc565b8452602082013583811161014157816135f09184016133dc565b602085015260408201359283116101415760409261360e92016133dc565b910152565b6001600160401b0381116106105760051b60200190565b81601f820112156101415780359160209161364484613613565b9361365260405195866133bb565b808552838086019160051b8301019280841161014157848301915b84831061367d5750505050505090565b82356001600160401b03811161014157869161369e848480948901016133dc565b81520192019161366d565b90600182811c921680156136d9575b60208310146136c357565b634e487b7160e01b600052602260045260246000fd5b91607f16916136b8565b906040519182600082546136f6816136a9565b908184526020946001916001811690816000146137665750600114613727575b505050613725925003836133bb565b565b600090815285812095935091905b81831061374e5750506137259350820101388080613716565b85548884018501529485019487945091830191613735565b9250505061372594925060ff191682840152151560051b820101388080613716565b90604051613795816133a0565b604061360e600283956137a7816136e3565b85526137b5600182016136e3565b6020860152016136e3565b906040516137cd81613384565b610140600a82946137dd816136e3565b84526137eb600182016136e3565b6020850152600281015460408501526003810154606085015260048101546080850152600581015460a0850152613824600682016136e3565b60c0850152600781015460e0850152600881015461010085015260098101546101208501520154910152565b1561385757565b60405162461bcd60e51b815260206004820152602760248201527f4f6e6c79207468652074656e616e742063616e20706572666f726d20746869736044820152661030b1ba34b7b760c91b6064820152608490fd5b6000929181546138bb816136a9565b9260019180831690811561391557506001146138d8575b50505050565b9091929394506000526020906020600020906000915b85831061390457505050500190388080806138d2565b8054858401529183019181016138ee565b60ff19168452505050811515909102019150388080806138d2565b1561393757565b60405162461bcd60e51b8152602060048201526012602482015271125b98dbdc9c9958dd081c185cdcdddbdc9960721b6044820152606490fd5b81811061397c575050565b60008155600101613971565b60405190613995826133a0565b60606040838281528260208201520152565b9081546139b381613613565b926139c160405194856133bb565b818452600090815260208082208186015b8484106139e0575050505050565b60018381926139ee856136e3565b8152019201930192906139d2565b15613a0357565b60405162461bcd60e51b815260206004820152602560248201527f4f6e6c79206c616e646c6f72642063616e20706572666f726d2074686973206160448201526431ba34b7b760d91b6064820152608490fd5b15613a5d57565b60405162461bcd60e51b815260206004820152601060248201526f11195c1bdcda5d081b9bdd081c185a5960821b6044820152606490fd5b15613a9c57565b60405162461bcd60e51b815260206004820152601860248201527f4465706f73697420616c72656164792072656c656173656400000000000000006044820152606490fd5b15613ae857565b60405162461bcd60e51b8152602060048201526013602482015272436f6e7472616374206e6f742061637469766560681b6044820152606490fd5b15613b2a57565b60405162461bcd60e51b815260206004820152602860248201527f52657175657374656420616d6f756e742065786365656473206465706f7369746044820152672062616c616e636560c01b6064820152608490fdfea2646970667358221220ab2c88a9d42cca8d8a9ee1c89c392f3bf93a7dec5574e8791b118af191c84b5764736f6c63430008180033","opcodes":"PUSH1 0x80 DUP1 PUSH1 0x40 MSTORE CALLVALUE PUSH2 0x16 JUMPI PUSH2 0x3BB6 SWAP1 DUP2 PUSH2 0x1C DUP3 CODECOPY RETURN JUMPDEST PUSH1 0x0 DUP1 REVERT INVALID PUSH1 0x80 PUSH1 0x40 MSTORE PUSH1 0x4 CALLDATASIZE LT ISZERO PUSH2 0x12 JUMPI PUSH1 0x0 DUP1 REVERT JUMPDEST PUSH1 0x0 CALLDATALOAD PUSH1 0xE0 SHR DUP1 PUSH4 0x157E21F7 EQ PUSH2 0x2CFF JUMPI DUP1 PUSH4 0x792855E4 EQ PUSH2 0x2949 JUMPI DUP1 PUSH4 0x9AA5543E EQ PUSH2 0x11BA JUMPI DUP1 PUSH4 0x9CFA058B EQ PUSH2 0x105A JUMPI DUP1 PUSH4 0xA3104433 EQ PUSH2 0xF6A JUMPI DUP1 PUSH4 0xCA52C3C2 EQ PUSH2 0xDE7 JUMPI DUP1 PUSH4 0xCC8E3DDE EQ PUSH2 0xDA4 JUMPI DUP1 PUSH4 0xD557E702 EQ PUSH2 0xD66 JUMPI DUP1 PUSH4 0xF437A24D EQ PUSH2 0xC38 JUMPI DUP1 PUSH4 0xF78F38B4 EQ PUSH2 0x146 JUMPI PUSH4 0xFA34D5AA EQ PUSH2 0x95 JUMPI PUSH1 0x0 DUP1 REVERT JUMPDEST CALLVALUE PUSH2 0x141 JUMPI PUSH1 0x20 CALLDATASIZE PUSH1 0x3 NOT ADD SLT PUSH2 0x141 JUMPI PUSH1 0x1 PUSH1 0x1 PUSH1 0xD0 SHL SUB NOT PUSH2 0xB7 PUSH2 0x3351 JUMP JUMPDEST AND DUP1 PUSH1 0x0 MSTORE PUSH1 0x1 PUSH1 0x20 MSTORE PUSH2 0xD9 PUSH1 0x1 DUP1 PUSH1 0xA0 SHL SUB PUSH1 0x40 PUSH1 0x0 KECCAK256 SLOAD AND CALLER EQ PUSH2 0x39FC JUMP JUMPDEST DUP1 PUSH1 0x0 MSTORE PUSH1 0x0 PUSH1 0x20 MSTORE PUSH2 0xF9 PUSH1 0xFF PUSH1 0x19 PUSH1 0x40 PUSH1 0x0 KECCAK256 ADD SLOAD PUSH1 0xB0 SHR AND PUSH2 0x3AE1 JUMP JUMPDEST DUP1 PUSH1 0x0 MSTORE PUSH1 0x0 PUSH1 0x20 MSTORE PUSH1 0x19 PUSH1 0x40 PUSH1 0x0 KECCAK256 ADD PUSH1 0xFF PUSH1 0xB0 SHL NOT DUP2 SLOAD AND SWAP1 SSTORE PUSH32 0x47933618ED5DAF6EC135A2D05B0586259833CA21B20043C6E4C525CB0502C0DC PUSH1 0x20 PUSH1 0x40 MLOAD TIMESTAMP DUP2 MSTORE LOG2 STOP JUMPDEST PUSH1 0x0 DUP1 REVERT JUMPDEST CALLVALUE PUSH2 0x141 JUMPI PUSH2 0x160 CALLDATASIZE PUSH1 0x3 NOT ADD SLT PUSH2 0x141 JUMPI PUSH2 0x160 PUSH2 0x3351 JUMP JUMPDEST PUSH1 0x24 CALLDATALOAD PUSH1 0x1 PUSH1 0x1 PUSH1 0x40 SHL SUB DUP2 GT PUSH2 0x141 JUMPI PUSH2 0x17F SWAP1 CALLDATASIZE SWAP1 PUSH1 0x4 ADD PUSH2 0x33DC JUMP JUMPDEST PUSH1 0x44 CALLDATALOAD PUSH1 0x1 PUSH1 0x1 PUSH1 0x40 SHL SUB DUP2 GT PUSH2 0x141 JUMPI PUSH2 0x19E SWAP1 CALLDATASIZE SWAP1 PUSH1 0x4 ADD PUSH2 0x33DC JUMP JUMPDEST SWAP1 PUSH1 0x64 CALLDATALOAD PUSH1 0x1 PUSH1 0x1 PUSH1 0x40 SHL SUB DUP2 GT PUSH2 0x141 JUMPI PUSH2 0x1BE SWAP1 CALLDATASIZE SWAP1 PUSH1 0x4 ADD PUSH2 0x362A JUMP JUMPDEST PUSH1 0x84 CALLDATALOAD PUSH1 0x1 PUSH1 0x1 PUSH1 0x40 SHL SUB DUP2 GT PUSH2 0x141 JUMPI PUSH2 0x1DD SWAP1 CALLDATASIZE SWAP1 PUSH1 0x4 ADD PUSH2 0x362A JUMP JUMPDEST PUSH1 0xA4 CALLDATALOAD PUSH1 0x1 PUSH1 0x1 PUSH1 0x40 SHL SUB DUP2 GT PUSH2 0x141 JUMPI PUSH2 0x1FC SWAP1 CALLDATASIZE SWAP1 PUSH1 0x4 ADD PUSH2 0x362A JUMP JUMPDEST PUSH1 0xC4 CALLDATALOAD PUSH1 0x1 PUSH1 0x1 PUSH1 0x40 SHL SUB DUP2 GT PUSH2 0x141 JUMPI PUSH2 0x21B SWAP1 CALLDATASIZE SWAP1 PUSH1 0x4 ADD PUSH2 0x33DC JUMP JUMPDEST SWAP2 PUSH1 0xE4 CALLDATALOAD PUSH1 0x1 PUSH1 0x1 PUSH1 0x40 SHL SUB DUP2 GT PUSH2 0x141 JUMPI PUSH2 0x23B SWAP1 CALLDATASIZE SWAP1 PUSH1 0x4 ADD PUSH2 0x33DC JUMP JUMPDEST PUSH2 0x104 CALLDATALOAD SWAP6 SWAP1 SWAP5 SWAP1 PUSH1 0x1 PUSH1 0x1 PUSH1 0xA0 SHL SUB DUP8 AND DUP8 SUB PUSH2 0x141 JUMPI PUSH2 0x2F9 SWAP1 PUSH6 0xFFFFFFFFFFFF PUSH1 0xD0 SHL DUP11 AND PUSH1 0x0 MSTORE PUSH1 0x1 PUSH1 0x20 MSTORE PUSH2 0x283 PUSH1 0x1 DUP1 PUSH1 0xA0 SHL SUB PUSH1 0x40 PUSH1 0x0 KECCAK256 SLOAD AND CALLER EQ PUSH2 0x39FC JUMP JUMPDEST PUSH6 0xFFFFFFFFFFFF PUSH1 0xD0 SHL DUP11 AND PUSH1 0x0 MSTORE PUSH1 0x0 PUSH1 0x20 MSTORE PUSH1 0x18 PUSH1 0x40 PUSH1 0x0 KECCAK256 ADD PUSH1 0x40 MLOAD PUSH2 0x2C2 DUP2 PUSH2 0x2B4 PUSH1 0x20 DUP3 ADD DUP1 SWAP6 PUSH2 0x38AC JUMP JUMPDEST SUB PUSH1 0x1F NOT DUP2 ADD DUP4 MSTORE DUP3 PUSH2 0x33BB JUMP JUMPDEST MLOAD SWAP1 KECCAK256 SWAP1 PUSH1 0x40 MLOAD PUSH2 0x2F0 PUSH1 0x20 DUP3 DUP2 PUSH2 0x2E3 DUP2 DUP4 ADD SWAP7 DUP8 DUP2 MLOAD SWAP4 DUP5 SWAP3 ADD PUSH2 0x3432 JUMP JUMPDEST DUP2 ADD SUB DUP1 DUP5 MSTORE ADD DUP3 PUSH2 0x33BB JUMP JUMPDEST MLOAD SWAP1 KECCAK256 EQ PUSH2 0x3930 JUMP JUMPDEST PUSH6 0xFFFFFFFFFFFF PUSH1 0xD0 SHL DUP9 AND PUSH1 0x0 MSTORE PUSH1 0x0 PUSH1 0x20 MSTORE PUSH1 0x40 PUSH1 0x0 KECCAK256 SWAP7 DUP1 MLOAD SWAP1 PUSH1 0x1 PUSH1 0x1 PUSH1 0x40 SHL SUB DUP3 GT PUSH2 0x610 JUMPI PUSH2 0x331 PUSH1 0x12 DUP11 ADD SLOAD PUSH2 0x36A9 JUMP JUMPDEST PUSH1 0x1F DUP2 GT PUSH2 0xC03 JUMPI JUMPDEST POP PUSH1 0x20 SWAP1 PUSH1 0x1F DUP4 GT PUSH1 0x1 EQ PUSH2 0xB91 JUMPI PUSH2 0x36C SWAP3 SWAP2 PUSH1 0x0 SWAP2 DUP4 PUSH2 0xB86 JUMPI JUMPDEST POP POP DUP2 PUSH1 0x1 SHL SWAP2 PUSH1 0x0 NOT SWAP1 PUSH1 0x3 SHL SHR NOT AND OR SWAP1 JUMP JUMPDEST PUSH1 0x12 DUP9 ADD SSTORE JUMPDEST DUP1 MLOAD SWAP1 PUSH1 0x1 PUSH1 0x40 SHL DUP3 GT PUSH2 0x610 JUMPI PUSH1 0x13 DUP9 ADD SLOAD DUP3 PUSH1 0x13 DUP11 ADD SSTORE DUP1 DUP4 LT PUSH2 0xB0E JUMPI JUMPDEST POP PUSH1 0x20 ADD SWAP1 PUSH1 0x13 DUP9 ADD PUSH1 0x0 MSTORE PUSH1 0x20 PUSH1 0x0 KECCAK256 SWAP2 PUSH1 0x0 SWAP1 JUMPDEST DUP3 DUP3 LT PUSH2 0x9FE JUMPI POP POP POP POP DUP1 MLOAD SWAP1 PUSH1 0x1 PUSH1 0x40 SHL DUP3 GT PUSH2 0x610 JUMPI PUSH1 0x14 DUP8 ADD SLOAD DUP3 PUSH1 0x14 DUP10 ADD SSTORE DUP1 DUP4 LT PUSH2 0x986 JUMPI JUMPDEST POP PUSH1 0x20 ADD SWAP1 PUSH1 0x14 DUP8 ADD PUSH1 0x0 MSTORE PUSH1 0x20 PUSH1 0x0 KECCAK256 SWAP2 PUSH1 0x0 SWAP1 JUMPDEST DUP3 DUP3 LT PUSH2 0x86B JUMPI POP POP POP POP DUP1 MLOAD SWAP1 PUSH1 0x1 PUSH1 0x40 SHL DUP3 GT PUSH2 0x610 JUMPI PUSH1 0x15 DUP7 ADD SLOAD DUP3 PUSH1 0x15 DUP9 ADD SSTORE DUP1 DUP4 LT PUSH2 0x7F3 JUMPI JUMPDEST POP PUSH1 0x20 ADD SWAP1 PUSH1 0x15 DUP7 ADD PUSH1 0x0 MSTORE PUSH1 0x20 PUSH1 0x0 KECCAK256 SWAP2 PUSH1 0x0 SWAP1 JUMPDEST DUP3 DUP3 LT PUSH2 0x6CD JUMPI POP POP POP POP DUP1 MLOAD SWAP1 PUSH1 0x1 PUSH1 0x1 PUSH1 0x40 SHL SUB DUP3 GT PUSH2 0x610 JUMPI PUSH2 0x456 PUSH1 0x16 DUP7 ADD SLOAD PUSH2 0x36A9 JUMP JUMPDEST PUSH1 0x1F DUP2 GT PUSH2 0x698 JUMPI JUMPDEST POP PUSH1 0x20 SWAP1 PUSH1 0x1F DUP4 GT PUSH1 0x1 EQ PUSH2 0x626 JUMPI PUSH2 0x490 SWAP3 SWAP2 PUSH1 0x0 SWAP2 DUP4 PUSH2 0x560 JUMPI POP POP DUP2 PUSH1 0x1 SHL SWAP2 PUSH1 0x0 NOT SWAP1 PUSH1 0x3 SHL SHR NOT AND OR SWAP1 JUMP JUMPDEST PUSH1 0x16 DUP5 ADD SSTORE JUMPDEST DUP1 MLOAD PUSH1 0x17 DUP5 ADD SWAP2 PUSH1 0x1 PUSH1 0x1 PUSH1 0x40 SHL SUB DUP3 GT PUSH2 0x610 JUMPI PUSH2 0x4B5 DUP4 SLOAD PUSH2 0x36A9 JUMP JUMPDEST PUSH1 0x1F DUP2 GT PUSH2 0x5D3 JUMPI JUMPDEST POP PUSH1 0x20 SWAP1 PUSH1 0x1F DUP4 GT PUSH1 0x1 EQ PUSH2 0x56B JUMPI PUSH2 0x4EF SWAP3 SWAP2 PUSH1 0x0 SWAP2 DUP4 PUSH2 0x560 JUMPI POP POP DUP2 PUSH1 0x1 SHL SWAP2 PUSH1 0x0 NOT SWAP1 PUSH1 0x3 SHL SHR NOT AND OR SWAP1 JUMP JUMPDEST SWAP1 SSTORE JUMPDEST PUSH1 0x19 DUP3 ADD SWAP1 PUSH1 0x1 DUP1 PUSH1 0xA0 SHL SUB AND PUSH12 0xFFFFFFFFFFFFFFFFFFFFFFFF PUSH1 0xA0 SHL DUP3 SLOAD AND OR SWAP1 SSTORE PUSH2 0x124 CALLDATALOAD PUSH1 0xA DUP3 ADD SSTORE PUSH1 0xB PUSH2 0x144 CALLDATALOAD SWAP2 ADD SSTORE PUSH32 0xCC49EAA5A4E01877EB9EF0128739D175FBCCDA52502904818EC03AC3D23D12F PUSH1 0x20 PUSH1 0x40 MLOAD SWAP3 TIMESTAMP DUP5 MSTORE PUSH6 0xFFFFFFFFFFFF PUSH1 0xD0 SHL AND SWAP3 LOG2 STOP JUMPDEST ADD MLOAD SWAP1 POP DUP8 DUP1 PUSH2 0x357 JUMP JUMPDEST SWAP1 PUSH1 0x1F NOT DUP4 AND SWAP2 DUP5 PUSH1 0x0 MSTORE PUSH1 0x20 PUSH1 0x0 KECCAK256 SWAP3 PUSH1 0x0 JUMPDEST DUP2 DUP2 LT PUSH2 0x5BB JUMPI POP SWAP1 DUP5 PUSH1 0x1 SWAP6 SWAP5 SWAP4 SWAP3 LT PUSH2 0x5A2 JUMPI JUMPDEST POP POP POP DUP2 SHL ADD SWAP1 SSTORE PUSH2 0x4F2 JUMP JUMPDEST ADD MLOAD PUSH1 0x0 NOT PUSH1 0xF8 DUP5 PUSH1 0x3 SHL AND SHR NOT AND SWAP1 SSTORE DUP7 DUP1 DUP1 PUSH2 0x595 JUMP JUMPDEST SWAP3 SWAP4 PUSH1 0x20 PUSH1 0x1 DUP2 SWAP3 DUP8 DUP7 ADD MLOAD DUP2 SSTORE ADD SWAP6 ADD SWAP4 ADD PUSH2 0x57F JUMP JUMPDEST PUSH2 0x600 SWAP1 DUP5 PUSH1 0x0 MSTORE PUSH1 0x20 PUSH1 0x0 KECCAK256 PUSH1 0x1F DUP6 ADD PUSH1 0x5 SHR DUP2 ADD SWAP2 PUSH1 0x20 DUP7 LT PUSH2 0x606 JUMPI JUMPDEST PUSH1 0x1F ADD PUSH1 0x5 SHR ADD SWAP1 PUSH2 0x3971 JUMP JUMPDEST DUP7 PUSH2 0x4BE JUMP JUMPDEST SWAP1 SWAP2 POP DUP2 SWAP1 PUSH2 0x5F3 JUMP JUMPDEST PUSH4 0x4E487B71 PUSH1 0xE0 SHL PUSH1 0x0 MSTORE PUSH1 0x41 PUSH1 0x4 MSTORE PUSH1 0x24 PUSH1 0x0 REVERT JUMPDEST SWAP2 SWAP1 PUSH1 0x16 DUP7 ADD PUSH1 0x0 MSTORE PUSH1 0x20 PUSH1 0x0 KECCAK256 SWAP1 PUSH1 0x0 SWAP4 JUMPDEST PUSH1 0x1F NOT DUP5 AND DUP6 LT PUSH2 0x67D JUMPI PUSH1 0x1 SWAP5 POP DUP4 PUSH1 0x1F NOT DUP2 AND LT PUSH2 0x664 JUMPI JUMPDEST POP POP POP DUP2 SHL ADD PUSH1 0x16 DUP5 ADD SSTORE PUSH2 0x496 JUMP JUMPDEST ADD MLOAD PUSH1 0x0 NOT PUSH1 0xF8 DUP5 PUSH1 0x3 SHL AND SHR NOT AND SWAP1 SSTORE DUP7 DUP1 DUP1 PUSH2 0x654 JUMP JUMPDEST DUP2 DUP2 ADD MLOAD DUP4 SSTORE PUSH1 0x20 SWAP5 DUP6 ADD SWAP5 PUSH1 0x1 SWAP1 SWAP4 ADD SWAP3 SWAP1 SWAP2 ADD SWAP1 PUSH2 0x639 JUMP JUMPDEST PUSH2 0x6C7 SWAP1 PUSH1 0x16 DUP8 ADD PUSH1 0x0 MSTORE PUSH1 0x20 PUSH1 0x0 KECCAK256 PUSH1 0x1F DUP6 ADD PUSH1 0x5 SHR DUP2 ADD SWAP2 PUSH1 0x20 DUP7 LT PUSH2 0x606 JUMPI PUSH1 0x1F ADD PUSH1 0x5 SHR ADD SWAP1 PUSH2 0x3971 JUMP JUMPDEST DUP7 PUSH2 0x45F JUMP JUMPDEST DUP1 MLOAD DUP1 MLOAD SWAP1 PUSH1 0x1 PUSH1 0x1 PUSH1 0x40 SHL SUB DUP3 GT PUSH2 0x610 JUMPI PUSH2 0x6EA DUP7 SLOAD PUSH2 0x36A9 JUMP JUMPDEST PUSH1 0x1F DUP2 GT PUSH2 0x7B6 JUMPI JUMPDEST POP PUSH1 0x20 SWAP1 PUSH1 0x1F DUP4 GT PUSH1 0x1 EQ PUSH2 0x746 JUMPI SWAP3 PUSH2 0x72C DUP4 PUSH1 0x1 SWAP6 SWAP5 PUSH1 0x20 SWAP5 DUP8 SWAP7 PUSH1 0x0 SWAP3 PUSH2 0x73B JUMPI POP POP DUP2 PUSH1 0x1 SHL SWAP2 PUSH1 0x0 NOT SWAP1 PUSH1 0x3 SHL SHR NOT AND OR SWAP1 JUMP JUMPDEST DUP8 SSTORE JUMPDEST ADD SWAP5 ADD SWAP2 ADD SWAP1 SWAP3 PUSH2 0x42D JUMP JUMPDEST ADD MLOAD SWAP1 POP DUP16 DUP1 PUSH2 0x357 JUMP JUMPDEST SWAP1 DUP7 PUSH1 0x0 MSTORE PUSH1 0x20 PUSH1 0x0 KECCAK256 SWAP2 PUSH1 0x0 JUMPDEST PUSH1 0x1F NOT DUP6 AND DUP2 LT PUSH2 0x79E JUMPI POP DUP4 PUSH1 0x20 SWAP4 PUSH1 0x1 SWAP7 SWAP4 DUP8 SWAP7 SWAP4 DUP8 SWAP5 PUSH1 0x1F NOT DUP2 AND LT PUSH2 0x785 JUMPI JUMPDEST POP POP POP DUP2 SHL ADD DUP8 SSTORE PUSH2 0x72F JUMP JUMPDEST ADD MLOAD PUSH1 0x0 NOT PUSH1 0xF8 DUP5 PUSH1 0x3 SHL AND SHR NOT AND SWAP1 SSTORE DUP15 DUP1 DUP1 PUSH2 0x778 JUMP JUMPDEST SWAP2 SWAP3 PUSH1 0x20 PUSH1 0x1 DUP2 SWAP3 DUP7 DUP6 ADD MLOAD DUP2 SSTORE ADD SWAP5 ADD SWAP3 ADD PUSH2 0x754 JUMP JUMPDEST PUSH2 0x7E3 SWAP1 DUP8 PUSH1 0x0 MSTORE PUSH1 0x20 PUSH1 0x0 KECCAK256 PUSH1 0x5 PUSH1 0x1F DUP7 ADD DUP2 SHR DUP3 ADD SWAP3 PUSH1 0x20 DUP8 LT PUSH2 0x7E9 JUMPI JUMPDEST PUSH1 0x1F ADD SWAP1 SHR ADD SWAP1 PUSH2 0x3971 JUMP JUMPDEST DUP12 PUSH2 0x6F3 JUMP JUMPDEST SWAP2 SWAP3 POP DUP3 SWAP2 PUSH2 0x7D7 JUMP JUMPDEST PUSH1 0x15 DUP8 ADD PUSH1 0x0 MSTORE PUSH1 0x20 PUSH1 0x0 KECCAK256 SWAP1 DUP4 DUP3 ADD JUMPDEST DUP2 DUP4 ADD DUP2 LT PUSH2 0x814 JUMPI POP POP PUSH2 0x417 JUMP JUMPDEST DUP1 PUSH2 0x821 PUSH1 0x1 SWAP3 SLOAD PUSH2 0x36A9 JUMP JUMPDEST DUP1 PUSH2 0x82E JUMPI JUMPDEST POP ADD PUSH2 0x804 JUMP JUMPDEST PUSH1 0x1F DUP2 GT DUP4 EQ PUSH2 0x844 JUMPI POP PUSH1 0x0 DUP2 SSTORE JUMPDEST DUP12 PUSH2 0x827 JUMP JUMPDEST PUSH1 0x0 SWAP1 DUP3 DUP3 MSTORE PUSH2 0x862 PUSH1 0x1F PUSH1 0x20 DUP5 KECCAK256 SWAP3 ADD PUSH1 0x5 SHR DUP3 ADD DUP6 DUP4 ADD PUSH2 0x3971 JUMP JUMPDEST DUP2 DUP4 SSTORE SSTORE PUSH2 0x83E JUMP JUMPDEST DUP1 MLOAD DUP1 MLOAD SWAP1 PUSH1 0x1 PUSH1 0x1 PUSH1 0x40 SHL SUB DUP3 GT PUSH2 0x610 JUMPI PUSH2 0x888 DUP7 SLOAD PUSH2 0x36A9 JUMP JUMPDEST PUSH1 0x1F DUP2 GT PUSH2 0x954 JUMPI JUMPDEST POP PUSH1 0x20 SWAP1 PUSH1 0x1F DUP4 GT PUSH1 0x1 EQ PUSH2 0x8E4 JUMPI SWAP3 PUSH2 0x8CA DUP4 PUSH1 0x1 SWAP6 SWAP5 PUSH1 0x20 SWAP5 DUP8 SWAP7 PUSH1 0x0 SWAP3 PUSH2 0x8D9 JUMPI POP POP DUP2 PUSH1 0x1 SHL SWAP2 PUSH1 0x0 NOT SWAP1 PUSH1 0x3 SHL SHR NOT AND OR SWAP1 JUMP JUMPDEST DUP8 SSTORE JUMPDEST ADD SWAP5 ADD SWAP2 ADD SWAP1 SWAP3 PUSH2 0x3EB JUMP JUMPDEST ADD MLOAD SWAP1 POP CODESIZE DUP1 PUSH2 0x357 JUMP JUMPDEST SWAP1 DUP7 PUSH1 0x0 MSTORE PUSH1 0x20 PUSH1 0x0 KECCAK256 SWAP2 PUSH1 0x0 JUMPDEST PUSH1 0x1F NOT DUP6 AND DUP2 LT PUSH2 0x93C JUMPI POP DUP4 PUSH1 0x20 SWAP4 PUSH1 0x1 SWAP7 SWAP4 DUP8 SWAP7 SWAP4 DUP8 SWAP5 PUSH1 0x1F NOT DUP2 AND LT PUSH2 0x923 JUMPI JUMPDEST POP POP POP DUP2 SHL ADD DUP8 SSTORE PUSH2 0x8CD JUMP JUMPDEST ADD MLOAD PUSH1 0x0 NOT PUSH1 0xF8 DUP5 PUSH1 0x3 SHL AND SHR NOT AND SWAP1 SSTORE DUP16 DUP1 DUP1 PUSH2 0x916 JUMP JUMPDEST SWAP2 SWAP3 PUSH1 0x20 PUSH1 0x1 DUP2 SWAP3 DUP7 DUP6 ADD MLOAD DUP2 SSTORE ADD SWAP5 ADD SWAP3 ADD PUSH2 0x8F2 JUMP JUMPDEST PUSH2 0x980 SWAP1 DUP8 PUSH1 0x0 MSTORE PUSH1 0x20 PUSH1 0x0 KECCAK256 PUSH1 0x5 PUSH1 0x1F DUP7 ADD DUP2 SHR DUP3 ADD SWAP3 PUSH1 0x20 DUP8 LT PUSH2 0x7E9 JUMPI PUSH1 0x1F ADD SWAP1 SHR ADD SWAP1 PUSH2 0x3971 JUMP JUMPDEST DUP13 PUSH2 0x891 JUMP JUMPDEST PUSH1 0x14 DUP9 ADD PUSH1 0x0 MSTORE PUSH1 0x20 PUSH1 0x0 KECCAK256 SWAP1 DUP4 DUP3 ADD JUMPDEST DUP2 DUP4 ADD DUP2 LT PUSH2 0x9A7 JUMPI POP POP PUSH2 0x3D5 JUMP JUMPDEST DUP1 PUSH2 0x9B4 PUSH1 0x1 SWAP3 SLOAD PUSH2 0x36A9 JUMP JUMPDEST DUP1 PUSH2 0x9C1 JUMPI JUMPDEST POP ADD PUSH2 0x997 JUMP JUMPDEST PUSH1 0x1F DUP2 GT DUP4 EQ PUSH2 0x9D7 JUMPI POP PUSH1 0x0 DUP2 SSTORE JUMPDEST DUP13 PUSH2 0x9BA JUMP JUMPDEST PUSH1 0x0 SWAP1 DUP3 DUP3 MSTORE PUSH2 0x9F5 PUSH1 0x1F PUSH1 0x20 DUP5 KECCAK256 SWAP3 ADD PUSH1 0x5 SHR DUP3 ADD DUP6 DUP4 ADD PUSH2 0x3971 JUMP JUMPDEST DUP2 DUP4 SSTORE SSTORE PUSH2 0x9D1 JUMP JUMPDEST DUP1 MLOAD DUP1 MLOAD SWAP1 PUSH1 0x1 PUSH1 0x1 PUSH1 0x40 SHL SUB DUP3 GT PUSH2 0x610 JUMPI PUSH2 0xA1B DUP7 SLOAD PUSH2 0x36A9 JUMP JUMPDEST PUSH1 0x1F DUP2 GT PUSH2 0xADC JUMPI JUMPDEST POP PUSH1 0x20 SWAP1 PUSH1 0x1F DUP4 GT PUSH1 0x1 EQ PUSH2 0xA6C JUMPI SWAP3 PUSH2 0xA5D DUP4 PUSH1 0x1 SWAP6 SWAP5 PUSH1 0x20 SWAP5 DUP8 SWAP7 PUSH1 0x0 SWAP3 PUSH2 0x8D9 JUMPI POP POP DUP2 PUSH1 0x1 SHL SWAP2 PUSH1 0x0 NOT SWAP1 PUSH1 0x3 SHL SHR NOT AND OR SWAP1 JUMP JUMPDEST DUP8 SSTORE JUMPDEST ADD SWAP5 ADD SWAP2 ADD SWAP1 SWAP3 PUSH2 0x3A9 JUMP JUMPDEST SWAP1 DUP7 PUSH1 0x0 MSTORE PUSH1 0x20 PUSH1 0x0 KECCAK256 SWAP2 PUSH1 0x0 JUMPDEST PUSH1 0x1F NOT DUP6 AND DUP2 LT PUSH2 0xAC4 JUMPI POP DUP4 PUSH1 0x20 SWAP4 PUSH1 0x1 SWAP7 SWAP4 DUP8 SWAP7 SWAP4 DUP8 SWAP5 PUSH1 0x1F NOT DUP2 AND LT PUSH2 0xAAB JUMPI JUMPDEST POP POP POP DUP2 SHL ADD DUP8 SSTORE PUSH2 0xA60 JUMP JUMPDEST ADD MLOAD PUSH1 0x0 NOT PUSH1 0xF8 DUP5 PUSH1 0x3 SHL AND SHR NOT AND SWAP1 SSTORE CODESIZE DUP1 DUP1 PUSH2 0xA9E JUMP JUMPDEST SWAP2 SWAP3 PUSH1 0x20 PUSH1 0x1 DUP2 SWAP3 DUP7 DUP6 ADD MLOAD DUP2 SSTORE ADD SWAP5 ADD SWAP3 ADD PUSH2 0xA7A JUMP JUMPDEST PUSH2 0xB08 SWAP1 DUP8 PUSH1 0x0 MSTORE PUSH1 0x20 PUSH1 0x0 KECCAK256 PUSH1 0x5 PUSH1 0x1F DUP7 ADD DUP2 SHR DUP3 ADD SWAP3 PUSH1 0x20 DUP8 LT PUSH2 0x7E9 JUMPI PUSH1 0x1F ADD SWAP1 SHR ADD SWAP1 PUSH2 0x3971 JUMP JUMPDEST DUP14 PUSH2 0xA24 JUMP JUMPDEST PUSH1 0x13 DUP10 ADD PUSH1 0x0 MSTORE PUSH1 0x20 PUSH1 0x0 KECCAK256 SWAP1 DUP4 DUP3 ADD JUMPDEST DUP2 DUP4 ADD DUP2 LT PUSH2 0xB2F JUMPI POP POP PUSH2 0x393 JUMP JUMPDEST DUP1 PUSH2 0xB3C PUSH1 0x1 SWAP3 SLOAD PUSH2 0x36A9 JUMP JUMPDEST DUP1 PUSH2 0xB49 JUMPI JUMPDEST POP ADD PUSH2 0xB1F JUMP JUMPDEST PUSH1 0x1F DUP2 GT DUP4 EQ PUSH2 0xB5F JUMPI POP PUSH1 0x0 DUP2 SSTORE JUMPDEST DUP14 PUSH2 0xB42 JUMP JUMPDEST PUSH1 0x0 SWAP1 DUP3 DUP3 MSTORE PUSH2 0xB7D PUSH1 0x1F PUSH1 0x20 DUP5 KECCAK256 SWAP3 ADD PUSH1 0x5 SHR DUP3 ADD DUP6 DUP4 ADD PUSH2 0x3971 JUMP JUMPDEST DUP2 DUP4 SSTORE SSTORE PUSH2 0xB59 JUMP JUMPDEST ADD MLOAD SWAP1 POP DUP12 DUP1 PUSH2 0x357 JUMP JUMPDEST SWAP2 SWAP1 PUSH1 0x12 DUP11 ADD PUSH1 0x0 MSTORE PUSH1 0x20 PUSH1 0x0 KECCAK256 SWAP1 PUSH1 0x0 SWAP4 JUMPDEST PUSH1 0x1F NOT DUP5 AND DUP6 LT PUSH2 0xBE8 JUMPI PUSH1 0x1 SWAP5 POP DUP4 PUSH1 0x1F NOT DUP2 AND LT PUSH2 0xBCF JUMPI JUMPDEST POP POP POP DUP2 SHL ADD PUSH1 0x12 DUP9 ADD SSTORE PUSH2 0x372 JUMP JUMPDEST ADD MLOAD PUSH1 0x0 NOT PUSH1 0xF8 DUP5 PUSH1 0x3 SHL AND SHR NOT AND SWAP1 SSTORE DUP11 DUP1 DUP1 PUSH2 0xBBF JUMP JUMPDEST DUP2 DUP2 ADD MLOAD DUP4 SSTORE PUSH1 0x20 SWAP5 DUP6 ADD SWAP5 PUSH1 0x1 SWAP1 SWAP4 ADD SWAP3 SWAP1 SWAP2 ADD SWAP1 PUSH2 0xBA4 JUMP JUMPDEST PUSH2 0xC32 SWAP1 PUSH1 0x12 DUP12 ADD PUSH1 0x0 MSTORE PUSH1 0x20 PUSH1 0x0 KECCAK256 PUSH1 0x1F DUP6 ADD PUSH1 0x5 SHR DUP2 ADD SWAP2 PUSH1 0x20 DUP7 LT PUSH2 0x606 JUMPI PUSH1 0x1F ADD PUSH1 0x5 SHR ADD SWAP1 PUSH2 0x3971 JUMP JUMPDEST DUP11 PUSH2 0x33A JUMP JUMPDEST CALLVALUE PUSH2 0x141 JUMPI PUSH1 0x20 CALLDATASIZE PUSH1 0x3 NOT ADD SLT PUSH2 0x141 JUMPI PUSH1 0x1 PUSH1 0x1 PUSH1 0xD0 SHL SUB NOT PUSH2 0xC5A PUSH2 0x3351 JUMP JUMPDEST AND DUP1 PUSH1 0x0 MSTORE PUSH1 0x1 PUSH1 0x20 MSTORE PUSH1 0x1 DUP1 PUSH1 0xA0 SHL SUB PUSH2 0xC7D DUP2 PUSH1 0x40 PUSH1 0x0 KECCAK256 SLOAD AND CALLER EQ PUSH2 0x39FC JUMP JUMPDEST DUP2 PUSH1 0x0 MSTORE PUSH1 0x0 PUSH1 0x20 MSTORE PUSH1 0x40 PUSH1 0x0 KECCAK256 PUSH1 0xB DUP2 ADD SLOAD TIMESTAMP LT PUSH2 0xD28 JUMPI PUSH1 0x0 DUP1 DUP1 DUP4 PUSH1 0x19 DUP3 SWAP6 ADD SWAP1 PUSH1 0x1A DUP3 SLOAD SWAP2 PUSH2 0xCB6 PUSH1 0xFF DUP5 PUSH1 0xA8 SHR AND ISZERO PUSH2 0x3A95 JUMP JUMPDEST ADD SLOAD PUSH2 0xFFFF PUSH1 0xA0 SHL NOT DUP3 AND PUSH1 0x1 PUSH1 0xA8 SHL OR SWAP1 SWAP3 SSTORE SWAP1 SWAP6 DUP7 SWAP2 DUP4 SWAP2 SWAP1 DUP4 ISZERO PUSH2 0xD1E JUMPI JUMPDEST AND SWAP1 CALL ISZERO PUSH2 0xD12 JUMPI PUSH1 0x40 PUSH32 0x398ABC1C2B2E46EC68F879C3AC11BE927EDE743D80D52D9968CBA00343BF074F SWAP2 DUP2 MLOAD SWAP1 DUP2 MSTORE TIMESTAMP PUSH1 0x20 DUP3 ADD MSTORE LOG2 STOP JUMPDEST PUSH1 0x40 MLOAD RETURNDATASIZE PUSH1 0x0 DUP3 RETURNDATACOPY RETURNDATASIZE SWAP1 REVERT JUMPDEST PUSH2 0x8FC SWAP3 POP PUSH2 0xCD8 JUMP JUMPDEST PUSH1 0x40 MLOAD PUSH3 0x461BCD PUSH1 0xE5 SHL DUP2 MSTORE PUSH1 0x20 PUSH1 0x4 DUP3 ADD MSTORE PUSH1 0x16 PUSH1 0x24 DUP3 ADD MSTORE PUSH22 0x10DBDB9D1C9858DD081B9BDD08195B991959081E595D PUSH1 0x52 SHL PUSH1 0x44 DUP3 ADD MSTORE PUSH1 0x64 SWAP1 REVERT JUMPDEST CALLVALUE PUSH2 0x141 JUMPI PUSH1 0x20 CALLDATASIZE PUSH1 0x3 NOT ADD SLT PUSH2 0x141 JUMPI PUSH1 0x1 PUSH1 0x1 PUSH1 0xD0 SHL SUB NOT PUSH2 0xD88 PUSH2 0x3351 JUMP JUMPDEST AND PUSH1 0x0 MSTORE PUSH1 0x0 PUSH1 0x20 MSTORE PUSH1 0x20 PUSH1 0x1A PUSH1 0x40 PUSH1 0x0 KECCAK256 ADD SLOAD PUSH1 0x40 MLOAD SWAP1 DUP2 MSTORE RETURN JUMPDEST CALLVALUE PUSH2 0x141 JUMPI PUSH1 0x20 CALLDATASIZE PUSH1 0x3 NOT ADD SLT PUSH2 0x141 JUMPI PUSH1 0x1 PUSH1 0x1 PUSH1 0xD0 SHL SUB NOT PUSH2 0xDC6 PUSH2 0x3351 JUMP JUMPDEST AND PUSH1 0x0 MSTORE PUSH1 0x1 PUSH1 0x20 MSTORE PUSH1 0x20 PUSH1 0x1 DUP1 PUSH1 0xA0 SHL SUB PUSH1 0x40 PUSH1 0x0 KECCAK256 SLOAD AND PUSH1 0x40 MLOAD SWAP1 DUP2 MSTORE RETURN JUMPDEST CALLVALUE PUSH2 0x141 JUMPI PUSH1 0x40 CALLDATASIZE PUSH1 0x3 NOT ADD SLT PUSH2 0x141 JUMPI PUSH2 0xE00 PUSH2 0x3351 JUMP JUMPDEST PUSH1 0x24 CALLDATALOAD SWAP1 PUSH6 0xFFFFFFFFFFFF PUSH1 0xD0 SHL AND SWAP1 DUP2 PUSH1 0x0 MSTORE PUSH1 0x20 PUSH1 0x0 DUP2 MSTORE PUSH2 0xE35 PUSH1 0x1 DUP1 PUSH1 0xA0 SHL SUB PUSH1 0x19 PUSH1 0x40 PUSH1 0x0 KECCAK256 ADD SLOAD AND CALLER EQ PUSH2 0x3850 JUMP JUMPDEST DUP3 PUSH1 0x0 MSTORE PUSH1 0x0 DUP2 MSTORE PUSH2 0xE54 PUSH1 0xFF PUSH1 0x19 PUSH1 0x40 PUSH1 0x0 KECCAK256 ADD SLOAD PUSH1 0xA0 SHR AND PUSH2 0x3A56 JUMP JUMPDEST DUP3 PUSH1 0x0 MSTORE PUSH1 0x0 DUP2 MSTORE PUSH2 0xE74 PUSH1 0xFF PUSH1 0x19 PUSH1 0x40 PUSH1 0x0 KECCAK256 ADD SLOAD PUSH1 0xA8 SHR AND ISZERO PUSH2 0x3A95 JUMP JUMPDEST DUP3 PUSH1 0x0 MSTORE PUSH1 0x0 DUP2 MSTORE PUSH2 0xE93 PUSH1 0xFF PUSH1 0x19 PUSH1 0x40 PUSH1 0x0 KECCAK256 ADD SLOAD PUSH1 0xB0 SHR AND PUSH2 0x3AE1 JUMP JUMPDEST DUP3 PUSH1 0x0 MSTORE PUSH1 0x0 DUP2 MSTORE PUSH2 0xEAF PUSH1 0x1A PUSH1 0x40 PUSH1 0x0 KECCAK256 ADD SLOAD DUP4 GT ISZERO PUSH2 0x3B23 JUMP JUMPDEST DUP3 PUSH1 0x0 MSTORE PUSH1 0x0 DUP2 MSTORE PUSH1 0x1A PUSH1 0x40 PUSH1 0x0 KECCAK256 ADD DUP1 SLOAD SWAP1 DUP4 DUP3 SUB SWAP2 DUP3 GT PUSH2 0xF54 JUMPI SSTORE DUP2 PUSH1 0x0 DUP2 ISZERO PUSH2 0xF4B JUMPI JUMPDEST PUSH1 0x0 DUP1 DUP1 SWAP4 DUP2 SWAP4 CALLER SWAP1 CALL ISZERO PUSH2 0xD12 JUMPI PUSH32 0x398ABC1C2B2E46EC68F879C3AC11BE927EDE743D80D52D9968CBA00343BF074F SWAP2 PUSH1 0x40 SWAP2 DUP5 PUSH1 0x0 MSTORE PUSH1 0x0 DUP2 MSTORE DUP3 PUSH1 0x0 KECCAK256 PUSH1 0x1A DUP2 ADD SLOAD ISZERO PUSH2 0xF30 JUMPI JUMPDEST POP DUP3 MLOAD SWAP2 DUP3 MSTORE TIMESTAMP SWAP1 DUP3 ADD MSTORE LOG2 STOP JUMPDEST PUSH1 0x19 ADD DUP1 SLOAD PUSH2 0xFFFF PUSH1 0xA8 SHL NOT AND PUSH1 0x1 PUSH1 0xA8 SHL OR SWAP1 SSTORE DUP6 PUSH2 0xF22 JUMP JUMPDEST POP PUSH2 0x8FC PUSH2 0xED7 JUMP JUMPDEST PUSH4 0x4E487B71 PUSH1 0xE0 SHL PUSH1 0x0 MSTORE PUSH1 0x11 PUSH1 0x4 MSTORE PUSH1 0x24 PUSH1 0x0 REVERT JUMPDEST CALLVALUE PUSH2 0x141 JUMPI PUSH1 0x40 CALLDATASIZE PUSH1 0x3 NOT ADD SLT PUSH2 0x141 JUMPI PUSH2 0xF83 PUSH2 0x3351 JUMP JUMPDEST PUSH32 0x953FE04A94FF7CE86DC3B4BDDDCB01910B42E877955AD5013702D3B195E59FC8 PUSH1 0x40 PUSH1 0x24 CALLDATALOAD SWAP3 PUSH6 0xFFFFFFFFFFFF PUSH1 0xD0 SHL AND SWAP3 DUP4 PUSH1 0x0 MSTORE PUSH1 0x20 PUSH1 0x1 DUP2 MSTORE PUSH2 0xFD7 PUSH1 0x1 DUP1 PUSH1 0xA0 SHL SUB DUP5 PUSH1 0x0 KECCAK256 SLOAD AND CALLER EQ PUSH2 0x39FC JUMP JUMPDEST DUP5 PUSH1 0x0 MSTORE PUSH1 0x0 DUP2 MSTORE PUSH2 0xFF5 PUSH1 0xFF PUSH1 0x19 DUP6 PUSH1 0x0 KECCAK256 ADD SLOAD PUSH1 0xA0 SHR AND PUSH2 0x3A56 JUMP JUMPDEST DUP5 PUSH1 0x0 MSTORE PUSH1 0x0 DUP2 MSTORE PUSH2 0x1014 PUSH1 0xFF PUSH1 0x19 DUP6 PUSH1 0x0 KECCAK256 ADD SLOAD PUSH1 0xA8 SHR AND ISZERO PUSH2 0x3A95 JUMP JUMPDEST DUP5 PUSH1 0x0 MSTORE PUSH1 0x0 DUP2 MSTORE PUSH2 0x1032 PUSH1 0xFF PUSH1 0x19 DUP6 PUSH1 0x0 KECCAK256 ADD SLOAD PUSH1 0xB0 SHR AND PUSH2 0x3AE1 JUMP JUMPDEST DUP5 PUSH1 0x0 MSTORE PUSH1 0x0 DUP2 MSTORE PUSH2 0x104D PUSH1 0x1A DUP5 PUSH1 0x0 KECCAK256 ADD SLOAD DUP4 GT ISZERO PUSH2 0x3B23 JUMP JUMPDEST DUP3 MLOAD SWAP2 DUP3 MSTORE TIMESTAMP SWAP1 DUP3 ADD MSTORE LOG2 STOP JUMPDEST CALLVALUE PUSH2 0x141 JUMPI PUSH1 0x20 CALLDATASIZE PUSH1 0x3 NOT ADD SLT PUSH2 0x141 JUMPI PUSH1 0x1 PUSH1 0x1 PUSH1 0xD0 SHL SUB NOT PUSH2 0x107C PUSH2 0x3351 JUMP JUMPDEST AND PUSH1 0x0 MSTORE PUSH1 0x0 PUSH1 0x20 MSTORE PUSH1 0x40 PUSH1 0x0 KECCAK256 DUP1 SLOAD PUSH1 0x1 DUP3 ADD PUSH2 0x1099 SWAP1 PUSH2 0x3788 JUMP JUMPDEST SWAP2 PUSH2 0x10A6 PUSH1 0x4 DUP3 ADD PUSH2 0x3788 JUMP JUMPDEST PUSH2 0x10B2 PUSH1 0x7 DUP4 ADD PUSH2 0x37C0 JUMP JUMPDEST PUSH2 0x10BE PUSH1 0x12 DUP5 ADD PUSH2 0x36E3 JUMP JUMPDEST PUSH2 0x10CA PUSH1 0x16 DUP6 ADD PUSH2 0x36E3 JUMP JUMPDEST PUSH2 0x10D6 PUSH1 0x17 DUP7 ADD PUSH2 0x36E3 JUMP JUMPDEST SWAP2 PUSH2 0x10E3 PUSH1 0x18 DUP8 ADD PUSH2 0x36E3 JUMP JUMPDEST SWAP4 PUSH1 0x19 DUP8 ADD SLOAD SWAP7 PUSH1 0x1A ADD SLOAD SWAP6 PUSH1 0x40 MLOAD SWAP10 DUP11 SWAP10 PUSH2 0x1A0 SWAP1 DUP12 MSTORE DUP1 PUSH1 0x20 DUP13 ADD MSTORE DUP11 ADD PUSH2 0x110C SWAP2 PUSH2 0x347A JUMP JUMPDEST DUP10 DUP2 SUB PUSH1 0x40 DUP12 ADD MSTORE PUSH2 0x111D SWAP2 PUSH2 0x347A JUMP JUMPDEST DUP9 DUP2 SUB PUSH1 0x60 DUP11 ADD MSTORE PUSH2 0x112E SWAP2 PUSH2 0x34BC JUMP JUMPDEST DUP8 DUP2 SUB PUSH1 0x80 DUP10 ADD MSTORE PUSH2 0x113F SWAP2 PUSH2 0x3455 JUMP JUMPDEST DUP7 DUP2 SUB PUSH1 0xA0 DUP9 ADD MSTORE PUSH2 0x1150 SWAP2 PUSH2 0x3455 JUMP JUMPDEST DUP6 DUP2 SUB PUSH1 0xC0 DUP8 ADD MSTORE PUSH2 0x1161 SWAP2 PUSH2 0x3455 JUMP JUMPDEST DUP5 DUP2 SUB PUSH1 0xE0 DUP7 ADD MSTORE PUSH2 0x1172 SWAP2 PUSH2 0x3455 JUMP JUMPDEST SWAP2 PUSH1 0x1 PUSH1 0xA0 SHL PUSH1 0x1 SWAP1 SUB DUP2 AND PUSH2 0x100 DUP6 ADD MSTORE DUP1 PUSH1 0xA0 SHR PUSH1 0xFF AND ISZERO ISZERO PUSH2 0x120 DUP6 ADD MSTORE DUP1 PUSH1 0xA8 SHR PUSH1 0xFF AND ISZERO ISZERO PUSH2 0x140 DUP6 ADD MSTORE PUSH1 0xB0 SHR PUSH1 0xFF AND ISZERO ISZERO PUSH2 0x160 DUP5 ADD MSTORE PUSH2 0x180 DUP4 ADD MSTORE SUB SWAP1 RETURN JUMPDEST CALLVALUE PUSH2 0x141 JUMPI PUSH1 0x3 NOT PUSH2 0x160 CALLDATASIZE DUP3 ADD SLT PUSH2 0x141 JUMPI PUSH2 0x11D5 PUSH2 0x3351 JUMP JUMPDEST SWAP1 PUSH1 0x24 CALLDATALOAD PUSH1 0x1 PUSH1 0x1 PUSH1 0x40 SHL SUB DUP2 GT PUSH2 0x141 JUMPI PUSH2 0x11F5 SWAP1 CALLDATASIZE SWAP1 PUSH1 0x4 ADD PUSH2 0x359C JUMP JUMPDEST SWAP1 PUSH1 0x44 CALLDATALOAD PUSH1 0x1 PUSH1 0x1 PUSH1 0x40 SHL SUB DUP2 GT PUSH2 0x141 JUMPI PUSH2 0x1215 SWAP1 CALLDATASIZE SWAP1 PUSH1 0x4 ADD PUSH2 0x359C JUMP JUMPDEST SWAP1 PUSH1 0x64 CALLDATALOAD SWAP1 PUSH1 0x1 PUSH1 0x1 PUSH1 0x40 SHL SUB DUP3 GT PUSH2 0x141 JUMPI PUSH2 0x160 SWAP1 DUP3 CALLDATASIZE SUB ADD SLT PUSH2 0x141 JUMPI PUSH1 0x40 MLOAD SWAP1 PUSH2 0x1242 DUP3 PUSH2 0x3384 JUMP JUMPDEST DUP1 PUSH1 0x4 ADD CALLDATALOAD PUSH1 0x1 PUSH1 0x1 PUSH1 0x40 SHL SUB DUP2 GT PUSH2 0x141 JUMPI PUSH2 0x1265 SWAP1 PUSH1 0x4 CALLDATASIZE SWAP2 DUP5 ADD ADD PUSH2 0x33DC JUMP JUMPDEST DUP3 MSTORE PUSH1 0x24 DUP2 ADD CALLDATALOAD PUSH1 0x1 PUSH1 0x1 PUSH1 0x40 SHL SUB DUP2 GT PUSH2 0x141 JUMPI PUSH2 0x128A SWAP1 PUSH1 0x4 CALLDATASIZE SWAP2 DUP5 ADD ADD PUSH2 0x33DC JUMP JUMPDEST PUSH1 0x20 DUP4 ADD MSTORE PUSH1 0x44 DUP2 ADD CALLDATALOAD PUSH1 0x40 DUP4 ADD MSTORE PUSH1 0x64 DUP2 ADD CALLDATALOAD PUSH1 0x60 DUP4 ADD MSTORE PUSH1 0x84 DUP2 ADD CALLDATALOAD PUSH1 0x80 DUP4 ADD MSTORE PUSH1 0xA4 DUP2 ADD CALLDATALOAD PUSH1 0xA0 DUP4 ADD MSTORE PUSH1 0xC4 DUP2 ADD CALLDATALOAD SWAP1 PUSH1 0x1 PUSH1 0x1 PUSH1 0x40 SHL SUB DUP3 GT PUSH2 0x141 JUMPI PUSH2 0x12DE PUSH2 0x144 SWAP3 PUSH1 0x4 CALLDATASIZE SWAP2 DUP5 ADD ADD PUSH2 0x33DC JUMP JUMPDEST PUSH1 0xC0 DUP5 ADD MSTORE PUSH1 0xE4 DUP2 ADD CALLDATALOAD PUSH1 0xE0 DUP5 ADD MSTORE PUSH2 0x104 DUP2 ADD CALLDATALOAD PUSH2 0x100 DUP5 ADD MSTORE PUSH2 0x124 DUP2 ADD CALLDATALOAD PUSH2 0x120 DUP5 ADD MSTORE ADD CALLDATALOAD PUSH2 0x140 DUP3 ADD MSTORE PUSH1 0x84 CALLDATALOAD PUSH1 0x1 PUSH1 0x1 PUSH1 0x40 SHL SUB DUP2 GT PUSH2 0x141 JUMPI PUSH2 0x132C SWAP1 CALLDATASIZE SWAP1 PUSH1 0x4 ADD PUSH2 0x33DC JUMP JUMPDEST PUSH1 0xA4 CALLDATALOAD PUSH1 0x1 PUSH1 0x1 PUSH1 0x40 SHL SUB DUP2 GT PUSH2 0x141 JUMPI PUSH2 0x134B SWAP1 CALLDATASIZE SWAP1 PUSH1 0x4 ADD PUSH2 0x362A JUMP JUMPDEST PUSH1 0xC4 CALLDATALOAD PUSH1 0x1 PUSH1 0x1 PUSH1 0x40 SHL SUB DUP2 GT PUSH2 0x141 JUMPI PUSH2 0x136A SWAP1 CALLDATASIZE SWAP1 PUSH1 0x4 ADD PUSH2 0x362A JUMP JUMPDEST PUSH1 0x1 PUSH1 0x1 PUSH1 0x40 SHL SUB PUSH1 0xE4 CALLDATALOAD GT PUSH2 0x141 JUMPI PUSH2 0x1389 CALLDATASIZE PUSH1 0xE4 CALLDATALOAD PUSH1 0x4 ADD PUSH2 0x362A JUMP JUMPDEST SWAP1 PUSH1 0x1 PUSH1 0x1 PUSH1 0x40 SHL SUB PUSH2 0x104 CALLDATALOAD GT PUSH2 0x141 JUMPI PUSH2 0x13AB CALLDATASIZE PUSH2 0x104 CALLDATALOAD PUSH1 0x4 ADD PUSH2 0x33DC JUMP JUMPDEST SWAP3 PUSH1 0x1 PUSH1 0x1 PUSH1 0x40 SHL SUB PUSH2 0x124 CALLDATALOAD GT PUSH2 0x141 JUMPI PUSH2 0x13CD CALLDATASIZE PUSH2 0x124 CALLDATALOAD PUSH1 0x4 ADD PUSH2 0x33DC JUMP JUMPDEST SWAP5 PUSH2 0x144 CALLDATALOAD PUSH1 0x1 PUSH1 0x1 PUSH1 0x40 SHL SUB DUP2 GT PUSH2 0x141 JUMPI PUSH2 0x13EE SWAP1 CALLDATASIZE SWAP1 PUSH1 0x4 ADD PUSH2 0x33DC JUMP JUMPDEST PUSH1 0x1 PUSH1 0x1 PUSH1 0xD0 SHL SUB NOT DUP12 AND PUSH1 0x0 SWAP1 DUP2 MSTORE PUSH1 0x1 PUSH1 0x20 MSTORE PUSH1 0x40 SWAP1 KECCAK256 SLOAD SWAP1 SWAP8 SWAP1 PUSH1 0x1 PUSH1 0x1 PUSH1 0xA0 SHL SUB AND PUSH2 0x28EE JUMPI PUSH2 0x100 DUP2 ADD MLOAD SWAP9 PUSH1 0x40 MLOAD SWAP11 PUSH2 0x142C DUP13 PUSH2 0x3368 JUMP JUMPDEST TIMESTAMP DUP13 MSTORE PUSH1 0x20 DUP13 ADD MSTORE PUSH1 0x40 DUP12 ADD MSTORE PUSH1 0x60 DUP11 ADD MSTORE PUSH1 0x80 DUP10 ADD MSTORE PUSH1 0xA0 DUP9 ADD MSTORE PUSH1 0xC0 DUP8 ADD MSTORE PUSH1 0xE0 DUP7 ADD MSTORE PUSH2 0x100 DUP6 ADD MSTORE PUSH2 0x120 DUP5 ADD MSTORE PUSH2 0x140 DUP4 ADD MSTORE PUSH1 0x0 PUSH2 0x160 DUP4 ADD MSTORE PUSH1 0x0 PUSH2 0x180 DUP4 ADD MSTORE PUSH1 0x0 PUSH2 0x1A0 DUP4 ADD MSTORE PUSH1 0x0 PUSH2 0x1C0 DUP4 ADD MSTORE PUSH2 0x1E0 DUP3 ADD MSTORE PUSH6 0xFFFFFFFFFFFF PUSH1 0xD0 SHL DUP3 AND PUSH1 0x0 MSTORE PUSH1 0x0 PUSH1 0x20 MSTORE PUSH1 0x40 PUSH1 0x0 KECCAK256 SWAP2 DUP2 MLOAD DUP4 SSTORE PUSH1 0x20 DUP3 ADD MLOAD DUP1 MLOAD DUP1 MLOAD SWAP1 PUSH1 0x1 PUSH1 0x1 PUSH1 0x40 SHL SUB DUP3 GT PUSH2 0x610 JUMPI PUSH2 0x14CD PUSH1 0x1 DUP8 ADD SLOAD PUSH2 0x36A9 JUMP JUMPDEST PUSH1 0x1F DUP2 GT PUSH2 0x28B9 JUMPI JUMPDEST POP PUSH1 0x20 SWAP1 PUSH1 0x1F DUP4 GT PUSH1 0x1 EQ PUSH2 0x2847 JUMPI PUSH2 0x1507 SWAP3 SWAP2 PUSH1 0x0 SWAP2 DUP4 PUSH2 0x560 JUMPI POP POP DUP2 PUSH1 0x1 SHL SWAP2 PUSH1 0x0 NOT SWAP1 PUSH1 0x3 SHL SHR NOT AND OR SWAP1 JUMP JUMPDEST PUSH1 0x1 DUP6 ADD SSTORE JUMPDEST PUSH1 0x20 DUP2 ADD MLOAD DUP1 MLOAD SWAP1 PUSH1 0x1 PUSH1 0x1 PUSH1 0x40 SHL SUB DUP3 GT PUSH2 0x610 JUMPI PUSH2 0x1530 PUSH1 0x2 DUP8 ADD SLOAD PUSH2 0x36A9 JUMP JUMPDEST PUSH1 0x1F DUP2 GT PUSH2 0x2812 JUMPI JUMPDEST POP PUSH1 0x20 SWAP1 PUSH1 0x1F DUP4 GT PUSH1 0x1 EQ PUSH2 0x279F JUMPI SWAP2 DUP1 PUSH2 0x156E SWAP3 PUSH1 0x40 SWAP6 SWAP5 PUSH1 0x0 SWAP3 PUSH2 0x1BC1 JUMPI POP POP DUP2 PUSH1 0x1 SHL SWAP2 PUSH1 0x0 NOT SWAP1 PUSH1 0x3 SHL SHR NOT AND OR SWAP1 JUMP JUMPDEST PUSH1 0x2 DUP7 ADD SSTORE JUMPDEST ADD MLOAD SWAP3 DUP4 MLOAD PUSH1 0x1 PUSH1 0x1 PUSH1 0x40 SHL SUB DUP2 GT PUSH2 0x610 JUMPI PUSH2 0x1594 PUSH1 0x3 DUP4 ADD SLOAD PUSH2 0x36A9 JUMP JUMPDEST PUSH1 0x1F DUP2 GT PUSH2 0x276A JUMPI JUMPDEST POP PUSH1 0x20 PUSH1 0x1F DUP3 GT PUSH1 0x1 EQ PUSH2 0x26FB JUMPI DUP2 SWAP1 PUSH2 0x15D0 SWAP4 SWAP5 SWAP6 SWAP7 PUSH1 0x0 SWAP3 PUSH2 0x1C77 JUMPI POP POP DUP2 PUSH1 0x1 SHL SWAP2 PUSH1 0x0 NOT SWAP1 PUSH1 0x3 SHL SHR NOT AND OR SWAP1 JUMP JUMPDEST PUSH1 0x3 DUP3 ADD SSTORE JUMPDEST PUSH1 0x40 DUP4 ADD MLOAD DUP1 MLOAD DUP1 MLOAD SWAP1 PUSH1 0x1 PUSH1 0x1 PUSH1 0x40 SHL SUB DUP3 GT PUSH2 0x610 JUMPI PUSH2 0x15FB PUSH1 0x4 DUP6 ADD SLOAD PUSH2 0x36A9 JUMP JUMPDEST PUSH1 0x1F DUP2 GT PUSH2 0x26C6 JUMPI JUMPDEST POP PUSH1 0x20 SWAP1 PUSH1 0x1F DUP4 GT PUSH1 0x1 EQ PUSH2 0x2654 JUMPI PUSH2 0x1635 SWAP3 SWAP2 PUSH1 0x0 SWAP2 DUP4 PUSH2 0x560 JUMPI POP POP DUP2 PUSH1 0x1 SHL SWAP2 PUSH1 0x0 NOT SWAP1 PUSH1 0x3 SHL SHR NOT AND OR SWAP1 JUMP JUMPDEST PUSH1 0x4 DUP4 ADD SSTORE JUMPDEST PUSH1 0x20 DUP2 ADD MLOAD DUP1 MLOAD SWAP1 PUSH1 0x1 PUSH1 0x1 PUSH1 0x40 SHL SUB DUP3 GT PUSH2 0x610 JUMPI PUSH2 0x165E PUSH1 0x5 DUP6 ADD SLOAD PUSH2 0x36A9 JUMP JUMPDEST PUSH1 0x1F DUP2 GT PUSH2 0x261F JUMPI JUMPDEST POP PUSH1 0x20 SWAP1 PUSH1 0x1F DUP4 GT PUSH1 0x1 EQ PUSH2 0x25AC JUMPI SWAP2 DUP1 PUSH2 0x169C SWAP3 PUSH1 0x40 SWAP6 SWAP5 PUSH1 0x0 SWAP3 PUSH2 0x1BC1 JUMPI POP POP DUP2 PUSH1 0x1 SHL SWAP2 PUSH1 0x0 NOT SWAP1 PUSH1 0x3 SHL SHR NOT AND OR SWAP1 JUMP JUMPDEST PUSH1 0x5 DUP5 ADD SSTORE JUMPDEST ADD MLOAD SWAP3 DUP4 MLOAD PUSH1 0x1 PUSH1 0x1 PUSH1 0x40 SHL SUB DUP2 GT PUSH2 0x610 JUMPI PUSH2 0x16C2 PUSH1 0x6 DUP5 ADD SLOAD PUSH2 0x36A9 JUMP JUMPDEST PUSH1 0x1F DUP2 GT PUSH2 0x2577 JUMPI JUMPDEST POP PUSH1 0x20 PUSH1 0x1F DUP3 GT PUSH1 0x1 EQ PUSH2 0x2508 JUMPI DUP2 SWAP1 PUSH2 0x16FE SWAP4 SWAP5 SWAP6 SWAP7 PUSH1 0x0 SWAP3 PUSH2 0x1C77 JUMPI POP POP DUP2 PUSH1 0x1 SHL SWAP2 PUSH1 0x0 NOT SWAP1 PUSH1 0x3 SHL SHR NOT AND OR SWAP1 JUMP JUMPDEST PUSH1 0x6 DUP4 ADD SSTORE JUMPDEST PUSH1 0x60 DUP2 ADD MLOAD DUP1 MLOAD DUP1 MLOAD SWAP1 PUSH1 0x1 PUSH1 0x1 PUSH1 0x40 SHL SUB DUP3 GT PUSH2 0x610 JUMPI PUSH2 0x1729 PUSH1 0x7 DUP7 ADD SLOAD PUSH2 0x36A9 JUMP JUMPDEST PUSH1 0x1F DUP2 GT PUSH2 0x24D3 JUMPI JUMPDEST POP PUSH1 0x20 SWAP1 PUSH1 0x1F DUP4 GT PUSH1 0x1 EQ PUSH2 0x2461 JUMPI PUSH2 0x1763 SWAP3 SWAP2 PUSH1 0x0 SWAP2 DUP4 PUSH2 0x560 JUMPI POP POP DUP2 PUSH1 0x1 SHL SWAP2 PUSH1 0x0 NOT SWAP1 PUSH1 0x3 SHL SHR NOT AND OR SWAP1 JUMP JUMPDEST PUSH1 0x7 DUP5 ADD SSTORE JUMPDEST PUSH1 0x20 DUP2 ADD MLOAD DUP1 MLOAD SWAP1 PUSH1 0x1 PUSH1 0x1 PUSH1 0x40 SHL SUB DUP3 GT PUSH2 0x610 JUMPI PUSH2 0x178C PUSH1 0x8 DUP7 ADD SLOAD PUSH2 0x36A9 JUMP JUMPDEST PUSH1 0x1F DUP2 GT PUSH2 0x242C JUMPI JUMPDEST POP PUSH1 0x20 SWAP1 PUSH1 0x1F DUP4 GT PUSH1 0x1 EQ PUSH2 0x23BA JUMPI PUSH2 0x17C6 SWAP3 SWAP2 PUSH1 0x0 SWAP2 DUP4 PUSH2 0x560 JUMPI POP POP DUP2 PUSH1 0x1 SHL SWAP2 PUSH1 0x0 NOT SWAP1 PUSH1 0x3 SHL SHR NOT AND OR SWAP1 JUMP JUMPDEST PUSH1 0x8 DUP5 ADD SSTORE JUMPDEST PUSH1 0x40 DUP2 ADD MLOAD PUSH1 0x9 DUP5 ADD SSTORE PUSH1 0x60 DUP2 ADD MLOAD PUSH1 0xA DUP5 ADD SSTORE PUSH1 0x80 DUP2 ADD MLOAD PUSH1 0xB DUP5 ADD SSTORE PUSH1 0xA0 DUP2 ADD MLOAD PUSH1 0xC DUP5 ADD SSTORE PUSH1 0xC0 DUP2 ADD MLOAD DUP1 MLOAD SWAP1 PUSH1 0x1 PUSH1 0x1 PUSH1 0x40 SHL SUB DUP3 GT PUSH2 0x610 JUMPI PUSH2 0x1817 PUSH1 0xD DUP7 ADD SLOAD PUSH2 0x36A9 JUMP JUMPDEST PUSH1 0x1F DUP2 GT PUSH2 0x2385 JUMPI JUMPDEST POP PUSH1 0x20 SWAP1 PUSH1 0x1F DUP4 GT PUSH1 0x1 EQ PUSH2 0x2311 JUMPI SWAP2 DUP1 PUSH2 0x1856 SWAP3 PUSH2 0x140 SWAP6 SWAP5 PUSH1 0x0 SWAP3 PUSH2 0x1BC1 JUMPI POP POP DUP2 PUSH1 0x1 SHL SWAP2 PUSH1 0x0 NOT SWAP1 PUSH1 0x3 SHL SHR NOT AND OR SWAP1 JUMP JUMPDEST PUSH1 0xD DUP6 ADD SSTORE JUMPDEST PUSH1 0xE0 DUP2 ADD MLOAD PUSH1 0xE DUP6 ADD SSTORE PUSH2 0x100 DUP2 ADD MLOAD PUSH1 0xF DUP6 ADD SSTORE PUSH2 0x120 DUP2 ADD MLOAD PUSH1 0x10 DUP6 ADD SSTORE ADD MLOAD PUSH1 0x11 DUP4 ADD SSTORE PUSH1 0x80 DUP2 ADD MLOAD SWAP3 DUP4 MLOAD PUSH1 0x1 PUSH1 0x1 PUSH1 0x40 SHL SUB DUP2 GT PUSH2 0x610 JUMPI PUSH2 0x18A6 PUSH1 0x12 DUP6 ADD SLOAD PUSH2 0x36A9 JUMP JUMPDEST PUSH1 0x1F DUP2 GT PUSH2 0x22DC JUMPI JUMPDEST POP PUSH1 0x20 PUSH1 0x1F DUP3 GT PUSH1 0x1 EQ PUSH2 0x226D JUMPI DUP2 SWAP1 PUSH2 0x18E2 SWAP4 SWAP5 SWAP6 SWAP7 PUSH1 0x0 SWAP3 PUSH2 0x1C77 JUMPI POP POP DUP2 PUSH1 0x1 SHL SWAP2 PUSH1 0x0 NOT SWAP1 PUSH1 0x3 SHL SHR NOT AND OR SWAP1 JUMP JUMPDEST PUSH1 0x12 DUP5 ADD SSTORE JUMPDEST PUSH1 0xA0 DUP3 ADD MLOAD DUP1 MLOAD SWAP1 PUSH1 0x1 PUSH1 0x40 SHL DUP3 GT PUSH2 0x610 JUMPI PUSH1 0x13 DUP6 ADD SLOAD DUP3 PUSH1 0x13 DUP8 ADD SSTORE DUP1 DUP4 LT PUSH2 0x21F5 JUMPI JUMPDEST POP PUSH1 0x20 ADD SWAP1 PUSH1 0x13 DUP6 ADD PUSH1 0x0 MSTORE PUSH1 0x20 PUSH1 0x0 KECCAK256 SWAP2 PUSH1 0x0 SWAP1 JUMPDEST DUP3 DUP3 LT PUSH2 0x20E5 JUMPI POP POP POP POP PUSH1 0xC0 DUP3 ADD MLOAD DUP1 MLOAD SWAP1 PUSH1 0x1 PUSH1 0x40 SHL DUP3 GT PUSH2 0x610 JUMPI PUSH1 0x14 DUP6 ADD SLOAD DUP3 PUSH1 0x14 DUP8 ADD SSTORE DUP1 DUP4 LT PUSH2 0x206D JUMPI JUMPDEST POP PUSH1 0x20 ADD SWAP1 PUSH1 0x14 DUP6 ADD PUSH1 0x0 MSTORE PUSH1 0x20 PUSH1 0x0 KECCAK256 SWAP2 PUSH1 0x0 SWAP1 JUMPDEST DUP3 DUP3 LT PUSH2 0x1F5D JUMPI POP POP POP POP PUSH1 0xE0 DUP3 ADD MLOAD DUP1 MLOAD SWAP1 PUSH1 0x1 PUSH1 0x40 SHL DUP3 GT PUSH2 0x610 JUMPI PUSH1 0x15 DUP6 ADD SLOAD DUP3 PUSH1 0x15 DUP8 ADD SSTORE DUP1 DUP4 LT PUSH2 0x1EE5 JUMPI JUMPDEST POP PUSH1 0x20 ADD SWAP1 PUSH1 0x15 DUP6 ADD PUSH1 0x0 MSTORE PUSH1 0x20 PUSH1 0x0 KECCAK256 SWAP2 PUSH1 0x0 SWAP1 JUMPDEST DUP3 DUP3 LT PUSH2 0x1DCA JUMPI POP POP POP POP PUSH2 0x100 DUP3 ADD MLOAD SWAP3 DUP4 MLOAD PUSH1 0x1 PUSH1 0x1 PUSH1 0x40 SHL SUB DUP2 GT PUSH2 0x610 JUMPI PUSH2 0x19E1 PUSH1 0x16 DUP4 ADD SLOAD PUSH2 0x36A9 JUMP JUMPDEST PUSH1 0x1F DUP2 GT PUSH2 0x1D95 JUMPI JUMPDEST POP PUSH1 0x20 PUSH1 0x1F DUP3 GT PUSH1 0x1 EQ PUSH2 0x1D26 JUMPI DUP2 SWAP1 PUSH2 0x1A1D SWAP4 SWAP5 SWAP6 SWAP7 PUSH1 0x0 SWAP3 PUSH2 0x1C77 JUMPI POP POP DUP2 PUSH1 0x1 SHL SWAP2 PUSH1 0x0 NOT SWAP1 PUSH1 0x3 SHL SHR NOT AND OR SWAP1 JUMP JUMPDEST PUSH1 0x16 DUP3 ADD SSTORE JUMPDEST PUSH2 0x120 DUP4 ADD MLOAD SWAP3 DUP4 MLOAD PUSH1 0x1 PUSH1 0x1 PUSH1 0x40 SHL SUB DUP2 GT PUSH2 0x610 JUMPI PUSH2 0x1A47 PUSH1 0x17 DUP5 ADD SLOAD PUSH2 0x36A9 JUMP JUMPDEST PUSH1 0x1F DUP2 GT PUSH2 0x1CF1 JUMPI JUMPDEST POP PUSH1 0x20 PUSH1 0x1F DUP3 GT PUSH1 0x1 EQ PUSH2 0x1C82 JUMPI DUP2 SWAP1 PUSH2 0x1A83 SWAP4 SWAP5 SWAP6 SWAP7 PUSH1 0x0 SWAP3 PUSH2 0x1C77 JUMPI POP POP DUP2 PUSH1 0x1 SHL SWAP2 PUSH1 0x0 NOT SWAP1 PUSH1 0x3 SHL SHR NOT AND OR SWAP1 JUMP JUMPDEST PUSH1 0x17 DUP4 ADD SSTORE JUMPDEST PUSH2 0x140 DUP2 ADD MLOAD DUP1 MLOAD SWAP1 PUSH1 0x1 PUSH1 0x1 PUSH1 0x40 SHL SUB DUP3 GT PUSH2 0x610 JUMPI PUSH2 0x1AAD PUSH1 0x18 DUP6 ADD SLOAD PUSH2 0x36A9 JUMP JUMPDEST PUSH1 0x1F DUP2 GT PUSH2 0x1C42 JUMPI JUMPDEST POP PUSH1 0x20 SWAP1 PUSH1 0x1F DUP4 GT PUSH1 0x1 EQ PUSH2 0x1BCC JUMPI DUP3 PUSH2 0x1E0 SWAP4 PUSH1 0x1A SWAP6 SWAP4 PUSH2 0x1AEE SWAP4 PUSH1 0x0 SWAP3 PUSH2 0x1BC1 JUMPI POP POP DUP2 PUSH1 0x1 SHL SWAP2 PUSH1 0x0 NOT SWAP1 PUSH1 0x3 SHL SHR NOT AND OR SWAP1 JUMP JUMPDEST PUSH1 0x18 DUP6 ADD SSTORE JUMPDEST PUSH1 0x19 DUP5 ADD PUSH1 0x1 DUP1 PUSH1 0xA0 SHL SUB PUSH2 0x160 DUP4 ADD MLOAD AND DUP2 SLOAD SWAP1 PUSH1 0xFF PUSH1 0xA0 SHL PUSH2 0x180 DUP6 ADD MLOAD ISZERO ISZERO PUSH1 0xA0 SHL AND PUSH1 0xFF PUSH1 0xA8 SHL PUSH2 0x1A0 DUP7 ADD MLOAD ISZERO ISZERO PUSH1 0xA8 SHL AND SWAP2 PUSH1 0xFF PUSH1 0xB0 SHL PUSH2 0x1C0 DUP8 ADD MLOAD ISZERO ISZERO PUSH1 0xB0 SHL AND SWAP4 PUSH9 0xFFFFFFFFFFFFFFFFFF PUSH1 0xB8 SHL AND OR OR OR OR SWAP1 SSTORE ADD MLOAD SWAP2 ADD SSTORE PUSH6 0xFFFFFFFFFFFF PUSH1 0xD0 SHL DUP2 AND PUSH1 0x0 MSTORE PUSH1 0x1 PUSH1 0x20 MSTORE PUSH1 0x40 PUSH1 0x0 KECCAK256 CALLER PUSH12 0xFFFFFFFFFFFFFFFFFFFFFFFF PUSH1 0xA0 SHL DUP3 SLOAD AND OR SWAP1 SSTORE PUSH1 0x40 MLOAD TIMESTAMP DUP2 MSTORE PUSH32 0xB33818A9E5A811C9AAB3A6A5BE602CBA781D631797144964A715FF66E01D54B1 PUSH1 0x20 CALLER SWAP4 PUSH6 0xFFFFFFFFFFFF PUSH1 0xD0 SHL AND SWAP3 LOG3 STOP JUMPDEST ADD MLOAD SWAP1 POP DUP9 DUP1 PUSH2 0x357 JUMP JUMPDEST SWAP1 PUSH1 0x18 DUP6 ADD PUSH1 0x0 MSTORE PUSH1 0x20 PUSH1 0x0 KECCAK256 SWAP2 PUSH1 0x0 JUMPDEST PUSH1 0x1F NOT DUP6 AND DUP2 LT PUSH2 0x1C2A JUMPI POP SWAP3 PUSH1 0x1A SWAP5 SWAP3 PUSH1 0x1 SWAP3 PUSH2 0x1E0 SWAP6 DUP4 PUSH1 0x1F NOT DUP2 AND LT PUSH2 0x1C11 JUMPI JUMPDEST POP POP POP DUP2 SHL ADD PUSH1 0x18 DUP6 ADD SSTORE PUSH2 0x1AF4 JUMP JUMPDEST ADD MLOAD PUSH1 0x0 NOT PUSH1 0xF8 DUP5 PUSH1 0x3 SHL AND SHR NOT AND SWAP1 SSTORE DUP8 DUP1 DUP1 PUSH2 0x1C01 JUMP JUMPDEST SWAP2 SWAP3 PUSH1 0x20 PUSH1 0x1 DUP2 SWAP3 DUP7 DUP6 ADD MLOAD DUP2 SSTORE ADD SWAP5 ADD SWAP3 ADD PUSH2 0x1BDD JUMP JUMPDEST PUSH2 0x1C71 SWAP1 PUSH1 0x18 DUP7 ADD PUSH1 0x0 MSTORE PUSH1 0x20 PUSH1 0x0 KECCAK256 PUSH1 0x1F DUP6 ADD PUSH1 0x5 SHR DUP2 ADD SWAP2 PUSH1 0x20 DUP7 LT PUSH2 0x606 JUMPI PUSH1 0x1F ADD PUSH1 0x5 SHR ADD SWAP1 PUSH2 0x3971 JUMP JUMPDEST DUP6 PUSH2 0x1AB6 JUMP JUMPDEST ADD MLOAD SWAP1 POP DUP7 DUP1 PUSH2 0x357 JUMP JUMPDEST PUSH1 0x17 DUP5 ADD PUSH1 0x0 MSTORE PUSH1 0x20 PUSH1 0x0 KECCAK256 SWAP1 PUSH1 0x0 JUMPDEST PUSH1 0x1F NOT DUP5 AND DUP2 LT PUSH2 0x1CD9 JUMPI POP PUSH1 0x1 SWAP4 SWAP5 SWAP6 SWAP7 DUP4 PUSH1 0x1F NOT DUP2 AND LT PUSH2 0x1CC0 JUMPI JUMPDEST POP POP POP DUP2 SHL ADD PUSH1 0x17 DUP4 ADD SSTORE PUSH2 0x1A89 JUMP JUMPDEST ADD MLOAD PUSH1 0x0 NOT PUSH1 0xF8 DUP5 PUSH1 0x3 SHL AND SHR NOT AND SWAP1 SSTORE DUP6 DUP1 DUP1 PUSH2 0x1CB0 JUMP JUMPDEST SWAP1 SWAP2 PUSH1 0x20 PUSH1 0x1 DUP2 SWAP3 DUP6 DUP12 ADD MLOAD DUP2 SSTORE ADD SWAP4 ADD SWAP2 ADD PUSH2 0x1C92 JUMP JUMPDEST PUSH2 0x1D20 SWAP1 PUSH1 0x17 DUP6 ADD PUSH1 0x0 MSTORE PUSH1 0x20 PUSH1 0x0 KECCAK256 PUSH1 0x1F DUP5 ADD PUSH1 0x5 SHR DUP2 ADD SWAP2 PUSH1 0x20 DUP6 LT PUSH2 0x606 JUMPI PUSH1 0x1F ADD PUSH1 0x5 SHR ADD SWAP1 PUSH2 0x3971 JUMP JUMPDEST DUP6 PUSH2 0x1A50 JUMP JUMPDEST PUSH1 0x16 DUP4 ADD PUSH1 0x0 MSTORE PUSH1 0x20 PUSH1 0x0 KECCAK256 SWAP1 PUSH1 0x0 JUMPDEST PUSH1 0x1F NOT DUP5 AND DUP2 LT PUSH2 0x1D7D JUMPI POP PUSH1 0x1 SWAP4 SWAP5 SWAP6 SWAP7 DUP4 PUSH1 0x1F NOT DUP2 AND LT PUSH2 0x1D64 JUMPI JUMPDEST POP POP POP DUP2 SHL ADD PUSH1 0x16 DUP3 ADD SSTORE PUSH2 0x1A23 JUMP JUMPDEST ADD MLOAD PUSH1 0x0 NOT PUSH1 0xF8 DUP5 PUSH1 0x3 SHL AND SHR NOT AND SWAP1 SSTORE DUP6 DUP1 DUP1 PUSH2 0x1D54 JUMP JUMPDEST SWAP1 SWAP2 PUSH1 0x20 PUSH1 0x1 DUP2 SWAP3 DUP6 DUP12 ADD MLOAD DUP2 SSTORE ADD SWAP4 ADD SWAP2 ADD PUSH2 0x1D36 JUMP JUMPDEST PUSH2 0x1DC4 SWAP1 PUSH1 0x16 DUP5 ADD PUSH1 0x0 MSTORE PUSH1 0x20 PUSH1 0x0 KECCAK256 PUSH1 0x1F DUP5 ADD PUSH1 0x5 SHR DUP2 ADD SWAP2 PUSH1 0x20 DUP6 LT PUSH2 0x606 JUMPI PUSH1 0x1F ADD PUSH1 0x5 SHR ADD SWAP1 PUSH2 0x3971 JUMP JUMPDEST DUP6 PUSH2 0x19EA JUMP JUMPDEST DUP1 MLOAD DUP1 MLOAD SWAP1 PUSH1 0x1 PUSH1 0x1 PUSH1 0x40 SHL SUB DUP3 GT PUSH2 0x610 JUMPI PUSH2 0x1DE7 DUP7 SLOAD PUSH2 0x36A9 JUMP JUMPDEST PUSH1 0x1F DUP2 GT PUSH2 0x1EB3 JUMPI JUMPDEST POP PUSH1 0x20 SWAP1 PUSH1 0x1F DUP4 GT PUSH1 0x1 EQ PUSH2 0x1E43 JUMPI SWAP3 PUSH2 0x1E29 DUP4 PUSH1 0x1 SWAP6 SWAP5 PUSH1 0x20 SWAP5 DUP8 SWAP7 PUSH1 0x0 SWAP3 PUSH2 0x1E38 JUMPI POP POP DUP2 PUSH1 0x1 SHL SWAP2 PUSH1 0x0 NOT SWAP1 PUSH1 0x3 SHL SHR NOT AND OR SWAP1 JUMP JUMPDEST DUP8 SSTORE JUMPDEST ADD SWAP5 ADD SWAP2 ADD SWAP1 SWAP3 PUSH2 0x19B2 JUMP JUMPDEST ADD MLOAD SWAP1 POP DUP14 DUP1 PUSH2 0x357 JUMP JUMPDEST SWAP1 DUP7 PUSH1 0x0 MSTORE PUSH1 0x20 PUSH1 0x0 KECCAK256 SWAP2 PUSH1 0x0 JUMPDEST PUSH1 0x1F NOT DUP6 AND DUP2 LT PUSH2 0x1E9B JUMPI POP DUP4 PUSH1 0x20 SWAP4 PUSH1 0x1 SWAP7 SWAP4 DUP8 SWAP7 SWAP4 DUP8 SWAP5 PUSH1 0x1F NOT DUP2 AND LT PUSH2 0x1E82 JUMPI JUMPDEST POP POP POP DUP2 SHL ADD DUP8 SSTORE PUSH2 0x1E2C JUMP JUMPDEST ADD MLOAD PUSH1 0x0 NOT PUSH1 0xF8 DUP5 PUSH1 0x3 SHL AND SHR NOT AND SWAP1 SSTORE DUP13 DUP1 DUP1 PUSH2 0x1E75 JUMP JUMPDEST SWAP2 SWAP3 PUSH1 0x20 PUSH1 0x1 DUP2 SWAP3 DUP7 DUP6 ADD MLOAD DUP2 SSTORE ADD SWAP5 ADD SWAP3 ADD PUSH2 0x1E51 JUMP JUMPDEST PUSH2 0x1EDF SWAP1 DUP8 PUSH1 0x0 MSTORE PUSH1 0x20 PUSH1 0x0 KECCAK256 PUSH1 0x1F DUP6 ADD PUSH1 0x5 SHR DUP2 ADD SWAP2 PUSH1 0x20 DUP7 LT PUSH2 0x606 JUMPI PUSH1 0x1F ADD PUSH1 0x5 SHR ADD SWAP1 PUSH2 0x3971 JUMP JUMPDEST DUP10 PUSH2 0x1DF0 JUMP JUMPDEST PUSH1 0x15 DUP7 ADD PUSH1 0x0 MSTORE PUSH1 0x20 PUSH1 0x0 KECCAK256 SWAP1 DUP4 DUP3 ADD JUMPDEST DUP2 DUP4 ADD DUP2 LT PUSH2 0x1F06 JUMPI POP POP PUSH2 0x199C JUMP JUMPDEST DUP1 PUSH2 0x1F13 PUSH1 0x1 SWAP3 SLOAD PUSH2 0x36A9 JUMP JUMPDEST DUP1 PUSH2 0x1F20 JUMPI JUMPDEST POP ADD PUSH2 0x1EF6 JUMP JUMPDEST PUSH1 0x1F DUP2 GT DUP4 EQ PUSH2 0x1F36 JUMPI POP PUSH1 0x0 DUP2 SSTORE JUMPDEST DUP10 PUSH2 0x1F19 JUMP JUMPDEST PUSH1 0x0 SWAP1 DUP3 DUP3 MSTORE PUSH2 0x1F54 PUSH1 0x1F PUSH1 0x20 DUP5 KECCAK256 SWAP3 ADD PUSH1 0x5 SHR DUP3 ADD DUP6 DUP4 ADD PUSH2 0x3971 JUMP JUMPDEST DUP2 DUP4 SSTORE SSTORE PUSH2 0x1F30 JUMP JUMPDEST DUP1 MLOAD DUP1 MLOAD SWAP1 PUSH1 0x1 PUSH1 0x1 PUSH1 0x40 SHL SUB DUP3 GT PUSH2 0x610 JUMPI PUSH2 0x1F7A DUP7 SLOAD PUSH2 0x36A9 JUMP JUMPDEST PUSH1 0x1F DUP2 GT PUSH2 0x203B JUMPI JUMPDEST POP PUSH1 0x20 SWAP1 PUSH1 0x1F DUP4 GT PUSH1 0x1 EQ PUSH2 0x1FCB JUMPI SWAP3 PUSH2 0x1FBC DUP4 PUSH1 0x1 SWAP6 SWAP5 PUSH1 0x20 SWAP5 DUP8 SWAP7 PUSH1 0x0 SWAP3 PUSH2 0x1E38 JUMPI POP POP DUP2 PUSH1 0x1 SHL SWAP2 PUSH1 0x0 NOT SWAP1 PUSH1 0x3 SHL SHR NOT AND OR SWAP1 JUMP JUMPDEST DUP8 SSTORE JUMPDEST ADD SWAP5 ADD SWAP2 ADD SWAP1 SWAP3 PUSH2 0x196B JUMP JUMPDEST SWAP1 DUP7 PUSH1 0x0 MSTORE PUSH1 0x20 PUSH1 0x0 KECCAK256 SWAP2 PUSH1 0x0 JUMPDEST PUSH1 0x1F NOT DUP6 AND DUP2 LT PUSH2 0x2023 JUMPI POP DUP4 PUSH1 0x20 SWAP4 PUSH1 0x1 SWAP7 SWAP4 DUP8 SWAP7 SWAP4 DUP8 SWAP5 PUSH1 0x1F NOT DUP2 AND LT PUSH2 0x200A JUMPI JUMPDEST POP POP POP DUP2 SHL ADD DUP8 SSTORE PUSH2 0x1FBF JUMP JUMPDEST ADD MLOAD PUSH1 0x0 NOT PUSH1 0xF8 DUP5 PUSH1 0x3 SHL AND SHR NOT AND SWAP1 SSTORE DUP13 DUP1 DUP1 PUSH2 0x1FFD JUMP JUMPDEST SWAP2 SWAP3 PUSH1 0x20 PUSH1 0x1 DUP2 SWAP3 DUP7 DUP6 ADD MLOAD DUP2 SSTORE ADD SWAP5 ADD SWAP3 ADD PUSH2 0x1FD9 JUMP JUMPDEST PUSH2 0x2067 SWAP1 DUP8 PUSH1 0x0 MSTORE PUSH1 0x20 PUSH1 0x0 KECCAK256 PUSH1 0x1F DUP6 ADD PUSH1 0x5 SHR DUP2 ADD SWAP2 PUSH1 0x20 DUP7 LT PUSH2 0x606 JUMPI PUSH1 0x1F ADD PUSH1 0x5 SHR ADD SWAP1 PUSH2 0x3971 JUMP JUMPDEST DUP10 PUSH2 0x1F83 JUMP JUMPDEST PUSH1 0x14 DUP7 ADD PUSH1 0x0 MSTORE PUSH1 0x20 PUSH1 0x0 KECCAK256 SWAP1 DUP4 DUP3 ADD JUMPDEST DUP2 DUP4 ADD DUP2 LT PUSH2 0x208E JUMPI POP POP PUSH2 0x1955 JUMP JUMPDEST DUP1 PUSH2 0x209B PUSH1 0x1 SWAP3 SLOAD PUSH2 0x36A9 JUMP JUMPDEST DUP1 PUSH2 0x20A8 JUMPI JUMPDEST POP ADD PUSH2 0x207E JUMP JUMPDEST PUSH1 0x1F DUP2 GT DUP4 EQ PUSH2 0x20BE JUMPI POP PUSH1 0x0 DUP2 SSTORE JUMPDEST DUP10 PUSH2 0x20A1 JUMP JUMPDEST PUSH1 0x0 SWAP1 DUP3 DUP3 MSTORE PUSH2 0x20DC PUSH1 0x1F PUSH1 0x20 DUP5 KECCAK256 SWAP3 ADD PUSH1 0x5 SHR DUP3 ADD DUP6 DUP4 ADD PUSH2 0x3971 JUMP JUMPDEST DUP2 DUP4 SSTORE SSTORE PUSH2 0x20B8 JUMP JUMPDEST DUP1 MLOAD DUP1 MLOAD SWAP1 PUSH1 0x1 PUSH1 0x1 PUSH1 0x40 SHL SUB DUP3 GT PUSH2 0x610 JUMPI PUSH2 0x2102 DUP7 SLOAD PUSH2 0x36A9 JUMP JUMPDEST PUSH1 0x1F DUP2 GT PUSH2 0x21C3 JUMPI JUMPDEST POP PUSH1 0x20 SWAP1 PUSH1 0x1F DUP4 GT PUSH1 0x1 EQ PUSH2 0x2153 JUMPI SWAP3 PUSH2 0x2144 DUP4 PUSH1 0x1 SWAP6 SWAP5 PUSH1 0x20 SWAP5 DUP8 SWAP7 PUSH1 0x0 SWAP3 PUSH2 0x1E38 JUMPI POP POP DUP2 PUSH1 0x1 SHL SWAP2 PUSH1 0x0 NOT SWAP1 PUSH1 0x3 SHL SHR NOT AND OR SWAP1 JUMP JUMPDEST DUP8 SSTORE JUMPDEST ADD SWAP5 ADD SWAP2 ADD SWAP1 SWAP3 PUSH2 0x1924 JUMP JUMPDEST SWAP1 DUP7 PUSH1 0x0 MSTORE PUSH1 0x20 PUSH1 0x0 KECCAK256 SWAP2 PUSH1 0x0 JUMPDEST PUSH1 0x1F NOT DUP6 AND DUP2 LT PUSH2 0x21AB JUMPI POP DUP4 PUSH1 0x20 SWAP4 PUSH1 0x1 SWAP7 SWAP4 DUP8 SWAP7 SWAP4 DUP8 SWAP5 PUSH1 0x1F NOT DUP2 AND LT PUSH2 0x2192 JUMPI JUMPDEST POP POP POP DUP2 SHL ADD DUP8 SSTORE PUSH2 0x2147 JUMP JUMPDEST ADD MLOAD PUSH1 0x0 NOT PUSH1 0xF8 DUP5 PUSH1 0x3 SHL AND SHR NOT AND SWAP1 SSTORE DUP13 DUP1 DUP1 PUSH2 0x2185 JUMP JUMPDEST SWAP2 SWAP3 PUSH1 0x20 PUSH1 0x1 DUP2 SWAP3 DUP7 DUP6 ADD MLOAD DUP2 SSTORE ADD SWAP5 ADD SWAP3 ADD PUSH2 0x2161 JUMP JUMPDEST PUSH2 0x21EF SWAP1 DUP8 PUSH1 0x0 MSTORE PUSH1 0x20 PUSH1 0x0 KECCAK256 PUSH1 0x1F DUP6 ADD PUSH1 0x5 SHR DUP2 ADD SWAP2 PUSH1 0x20 DUP7 LT PUSH2 0x606 JUMPI PUSH1 0x1F ADD PUSH1 0x5 SHR ADD SWAP1 PUSH2 0x3971 JUMP JUMPDEST DUP10 PUSH2 0x210B JUMP JUMPDEST PUSH1 0x13 DUP7 ADD PUSH1 0x0 MSTORE PUSH1 0x20 PUSH1 0x0 KECCAK256 SWAP1 DUP4 DUP3 ADD JUMPDEST DUP2 DUP4 ADD DUP2 LT PUSH2 0x2216 JUMPI POP POP PUSH2 0x190E JUMP JUMPDEST DUP1 PUSH2 0x2223 PUSH1 0x1 SWAP3 SLOAD PUSH2 0x36A9 JUMP JUMPDEST DUP1 PUSH2 0x2230 JUMPI JUMPDEST POP ADD PUSH2 0x2206 JUMP JUMPDEST PUSH1 0x1F DUP2 GT DUP4 EQ PUSH2 0x2246 JUMPI POP PUSH1 0x0 DUP2 SSTORE JUMPDEST DUP10 PUSH2 0x2229 JUMP JUMPDEST PUSH1 0x0 SWAP1 DUP3 DUP3 MSTORE PUSH2 0x2264 PUSH1 0x1F PUSH1 0x20 DUP5 KECCAK256 SWAP3 ADD PUSH1 0x5 SHR DUP3 ADD DUP6 DUP4 ADD PUSH2 0x3971 JUMP JUMPDEST DUP2 DUP4 SSTORE SSTORE PUSH2 0x2240 JUMP JUMPDEST PUSH1 0x12 DUP6 ADD PUSH1 0x0 MSTORE PUSH1 0x20 PUSH1 0x0 KECCAK256 SWAP1 PUSH1 0x0 JUMPDEST PUSH1 0x1F NOT DUP5 AND DUP2 LT PUSH2 0x22C4 JUMPI POP PUSH1 0x1 SWAP4 SWAP5 SWAP6 SWAP7 DUP4 PUSH1 0x1F NOT DUP2 AND LT PUSH2 0x22AB JUMPI JUMPDEST POP POP POP DUP2 SHL ADD PUSH1 0x12 DUP5 ADD SSTORE PUSH2 0x18E8 JUMP JUMPDEST ADD MLOAD PUSH1 0x0 NOT PUSH1 0xF8 DUP5 PUSH1 0x3 SHL AND SHR NOT AND SWAP1 SSTORE DUP6 DUP1 DUP1 PUSH2 0x229B JUMP JUMPDEST SWAP1 SWAP2 PUSH1 0x20 PUSH1 0x1 DUP2 SWAP3 DUP6 DUP12 ADD MLOAD DUP2 SSTORE ADD SWAP4 ADD SWAP2 ADD PUSH2 0x227D JUMP JUMPDEST PUSH2 0x230B SWAP1 PUSH1 0x12 DUP7 ADD PUSH1 0x0 MSTORE PUSH1 0x20 PUSH1 0x0 KECCAK256 PUSH1 0x1F DUP5 ADD PUSH1 0x5 SHR DUP2 ADD SWAP2 PUSH1 0x20 DUP6 LT PUSH2 0x606 JUMPI PUSH1 0x1F ADD PUSH1 0x5 SHR ADD SWAP1 PUSH2 0x3971 JUMP JUMPDEST DUP6 PUSH2 0x18AF JUMP JUMPDEST SWAP1 PUSH1 0xD DUP7 ADD PUSH1 0x0 MSTORE PUSH1 0x20 PUSH1 0x0 KECCAK256 SWAP2 PUSH1 0x0 JUMPDEST PUSH1 0x1F NOT DUP6 AND DUP2 LT PUSH2 0x236D JUMPI POP SWAP2 DUP4 SWAP2 PUSH1 0x1 SWAP4 PUSH2 0x140 SWAP7 SWAP6 PUSH1 0x1F NOT DUP2 AND LT PUSH2 0x2354 JUMPI JUMPDEST POP POP POP DUP2 SHL ADD PUSH1 0xD DUP6 ADD SSTORE PUSH2 0x185C JUMP JUMPDEST ADD MLOAD PUSH1 0x0 NOT PUSH1 0xF8 DUP5 PUSH1 0x3 SHL AND SHR NOT AND SWAP1 SSTORE DUP8 DUP1 DUP1 PUSH2 0x2344 JUMP JUMPDEST SWAP2 SWAP3 PUSH1 0x20 PUSH1 0x1 DUP2 SWAP3 DUP7 DUP6 ADD MLOAD DUP2 SSTORE ADD SWAP5 ADD SWAP3 ADD PUSH2 0x2322 JUMP JUMPDEST PUSH2 0x23B4 SWAP1 PUSH1 0xD DUP8 ADD PUSH1 0x0 MSTORE PUSH1 0x20 PUSH1 0x0 KECCAK256 PUSH1 0x1F DUP6 ADD PUSH1 0x5 SHR DUP2 ADD SWAP2 PUSH1 0x20 DUP7 LT PUSH2 0x606 JUMPI PUSH1 0x1F ADD PUSH1 0x5 SHR ADD SWAP1 PUSH2 0x3971 JUMP JUMPDEST DUP7 PUSH2 0x1820 JUMP JUMPDEST SWAP2 SWAP1 PUSH1 0x8 DUP7 ADD PUSH1 0x0 MSTORE PUSH1 0x20 PUSH1 0x0 KECCAK256 SWAP1 PUSH1 0x0 SWAP4 JUMPDEST PUSH1 0x1F NOT DUP5 AND DUP6 LT PUSH2 0x2411 JUMPI PUSH1 0x1 SWAP5 POP DUP4 PUSH1 0x1F NOT DUP2 AND LT PUSH2 0x23F8 JUMPI JUMPDEST POP POP POP DUP2 SHL ADD PUSH1 0x8 DUP5 ADD SSTORE PUSH2 0x17CC JUMP JUMPDEST ADD MLOAD PUSH1 0x0 NOT PUSH1 0xF8 DUP5 PUSH1 0x3 SHL AND SHR NOT AND SWAP1 SSTORE DUP7 DUP1 DUP1 PUSH2 0x23E8 JUMP JUMPDEST DUP2 DUP2 ADD MLOAD DUP4 SSTORE PUSH1 0x20 SWAP5 DUP6 ADD SWAP5 PUSH1 0x1 SWAP1 SWAP4 ADD SWAP3 SWAP1 SWAP2 ADD SWAP1 PUSH2 0x23CD JUMP JUMPDEST PUSH2 0x245B SWAP1 PUSH1 0x8 DUP8 ADD PUSH1 0x0 MSTORE PUSH1 0x20 PUSH1 0x0 KECCAK256 PUSH1 0x1F DUP6 ADD PUSH1 0x5 SHR DUP2 ADD SWAP2 PUSH1 0x20 DUP7 LT PUSH2 0x606 JUMPI PUSH1 0x1F ADD PUSH1 0x5 SHR ADD SWAP1 PUSH2 0x3971 JUMP JUMPDEST DUP7 PUSH2 0x1795 JUMP JUMPDEST SWAP2 SWAP1 PUSH1 0x7 DUP7 ADD PUSH1 0x0 MSTORE PUSH1 0x20 PUSH1 0x0 KECCAK256 SWAP1 PUSH1 0x0 SWAP4 JUMPDEST PUSH1 0x1F NOT DUP5 AND DUP6 LT PUSH2 0x24B8 JUMPI PUSH1 0x1 SWAP5 POP DUP4 PUSH1 0x1F NOT DUP2 AND LT PUSH2 0x249F JUMPI JUMPDEST POP POP POP DUP2 SHL ADD PUSH1 0x7 DUP5 ADD SSTORE PUSH2 0x1769 JUMP JUMPDEST ADD MLOAD PUSH1 0x0 NOT PUSH1 0xF8 DUP5 PUSH1 0x3 SHL AND SHR NOT AND SWAP1 SSTORE DUP7 DUP1 DUP1 PUSH2 0x248F JUMP JUMPDEST DUP2 DUP2 ADD MLOAD DUP4 SSTORE PUSH1 0x20 SWAP5 DUP6 ADD SWAP5 PUSH1 0x1 SWAP1 SWAP4 ADD SWAP3 SWAP1 SWAP2 ADD SWAP1 PUSH2 0x2474 JUMP JUMPDEST PUSH2 0x2502 SWAP1 PUSH1 0x7 DUP8 ADD PUSH1 0x0 MSTORE PUSH1 0x20 PUSH1 0x0 KECCAK256 PUSH1 0x1F DUP6 ADD PUSH1 0x5 SHR DUP2 ADD SWAP2 PUSH1 0x20 DUP7 LT PUSH2 0x606 JUMPI PUSH1 0x1F ADD PUSH1 0x5 SHR ADD SWAP1 PUSH2 0x3971 JUMP JUMPDEST DUP7 PUSH2 0x1732 JUMP JUMPDEST PUSH1 0x6 DUP5 ADD PUSH1 0x0 MSTORE PUSH1 0x20 PUSH1 0x0 KECCAK256 SWAP1 PUSH1 0x0 JUMPDEST PUSH1 0x1F NOT DUP5 AND DUP2 LT PUSH2 0x255F JUMPI POP PUSH1 0x1 SWAP4 SWAP5 SWAP6 SWAP7 DUP4 PUSH1 0x1F NOT DUP2 AND LT PUSH2 0x2546 JUMPI JUMPDEST POP POP POP DUP2 SHL ADD PUSH1 0x6 DUP4 ADD SSTORE PUSH2 0x1704 JUMP JUMPDEST ADD MLOAD PUSH1 0x0 NOT PUSH1 0xF8 DUP5 PUSH1 0x3 SHL AND SHR NOT AND SWAP1 SSTORE DUP6 DUP1 DUP1 PUSH2 0x2536 JUMP JUMPDEST SWAP1 SWAP2 PUSH1 0x20 PUSH1 0x1 DUP2 SWAP3 DUP6 DUP12 ADD MLOAD DUP2 SSTORE ADD SWAP4 ADD SWAP2 ADD PUSH2 0x2518 JUMP JUMPDEST PUSH2 0x25A6 SWAP1 PUSH1 0x6 DUP6 ADD PUSH1 0x0 MSTORE PUSH1 0x20 PUSH1 0x0 KECCAK256 PUSH1 0x1F DUP5 ADD PUSH1 0x5 SHR DUP2 ADD SWAP2 PUSH1 0x20 DUP6 LT PUSH2 0x606 JUMPI PUSH1 0x1F ADD PUSH1 0x5 SHR ADD SWAP1 PUSH2 0x3971 JUMP JUMPDEST DUP6 PUSH2 0x16CB JUMP JUMPDEST SWAP1 PUSH1 0x5 DUP6 ADD PUSH1 0x0 MSTORE PUSH1 0x20 PUSH1 0x0 KECCAK256 SWAP2 PUSH1 0x0 JUMPDEST PUSH1 0x1F NOT DUP6 AND DUP2 LT PUSH2 0x2607 JUMPI POP SWAP2 DUP4 SWAP2 PUSH1 0x1 SWAP4 PUSH1 0x40 SWAP7 SWAP6 PUSH1 0x1F NOT DUP2 AND LT PUSH2 0x25EE JUMPI JUMPDEST POP POP POP DUP2 SHL ADD PUSH1 0x5 DUP5 ADD SSTORE PUSH2 0x16A2 JUMP JUMPDEST ADD MLOAD PUSH1 0x0 NOT PUSH1 0xF8 DUP5 PUSH1 0x3 SHL AND SHR NOT AND SWAP1 SSTORE DUP8 DUP1 DUP1 PUSH2 0x25DE JUMP JUMPDEST SWAP2 SWAP3 PUSH1 0x20 PUSH1 0x1 DUP2 SWAP3 DUP7 DUP6 ADD MLOAD DUP2 SSTORE ADD SWAP5 ADD SWAP3 ADD PUSH2 0x25BD JUMP JUMPDEST PUSH2 0x264E SWAP1 PUSH1 0x5 DUP7 ADD PUSH1 0x0 MSTORE PUSH1 0x20 PUSH1 0x0 KECCAK256 PUSH1 0x1F DUP6 ADD PUSH1 0x5 SHR DUP2 ADD SWAP2 PUSH1 0x20 DUP7 LT PUSH2 0x606 JUMPI PUSH1 0x1F ADD PUSH1 0x5 SHR ADD SWAP1 PUSH2 0x3971 JUMP JUMPDEST DUP7 PUSH2 0x1667 JUMP JUMPDEST SWAP2 SWAP1 PUSH1 0x4 DUP6 ADD PUSH1 0x0 MSTORE PUSH1 0x20 PUSH1 0x0 KECCAK256 SWAP1 PUSH1 0x0 SWAP4 JUMPDEST PUSH1 0x1F NOT DUP5 AND DUP6 LT PUSH2 0x26AB JUMPI PUSH1 0x1 SWAP5 POP DUP4 PUSH1 0x1F NOT DUP2 AND LT PUSH2 0x2692 JUMPI JUMPDEST POP POP POP DUP2 SHL ADD PUSH1 0x4 DUP4 ADD SSTORE PUSH2 0x163B JUMP JUMPDEST ADD MLOAD PUSH1 0x0 NOT PUSH1 0xF8 DUP5 PUSH1 0x3 SHL AND SHR NOT AND SWAP1 SSTORE DUP7 DUP1 DUP1 PUSH2 0x2682 JUMP JUMPDEST DUP2 DUP2 ADD MLOAD DUP4 SSTORE PUSH1 0x20 SWAP5 DUP6 ADD SWAP5 PUSH1 0x1 SWAP1 SWAP4 ADD SWAP3 SWAP1 SWAP2 ADD SWAP1 PUSH2 0x2667 JUMP JUMPDEST PUSH2 0x26F5 SWAP1 PUSH1 0x4 DUP7 ADD PUSH1 0x0 MSTORE PUSH1 0x20 PUSH1 0x0 KECCAK256 PUSH1 0x1F DUP6 ADD PUSH1 0x5 SHR DUP2 ADD SWAP2 PUSH1 0x20 DUP7 LT PUSH2 0x606 JUMPI PUSH1 0x1F ADD PUSH1 0x5 SHR ADD SWAP1 PUSH2 0x3971 JUMP JUMPDEST DUP7 PUSH2 0x1604 JUMP JUMPDEST PUSH1 0x3 DUP4 ADD PUSH1 0x0 MSTORE PUSH1 0x20 PUSH1 0x0 KECCAK256 SWAP1 PUSH1 0x0 JUMPDEST PUSH1 0x1F NOT DUP5 AND DUP2 LT PUSH2 0x2752 JUMPI POP PUSH1 0x1 SWAP4 SWAP5 SWAP6 SWAP7 DUP4 PUSH1 0x1F NOT DUP2 AND LT PUSH2 0x2739 JUMPI JUMPDEST POP POP POP DUP2 SHL ADD PUSH1 0x3 DUP3 ADD SSTORE PUSH2 0x15D6 JUMP JUMPDEST ADD MLOAD PUSH1 0x0 NOT PUSH1 0xF8 DUP5 PUSH1 0x3 SHL AND SHR NOT AND SWAP1 SSTORE DUP6 DUP1 DUP1 PUSH2 0x2729 JUMP JUMPDEST SWAP1 SWAP2 PUSH1 0x20 PUSH1 0x1 DUP2 SWAP3 DUP6 DUP12 ADD MLOAD DUP2 SSTORE ADD SWAP4 ADD SWAP2 ADD PUSH2 0x270B JUMP JUMPDEST PUSH2 0x2799 SWAP1 PUSH1 0x3 DUP5 ADD PUSH1 0x0 MSTORE PUSH1 0x20 PUSH1 0x0 KECCAK256 PUSH1 0x1F DUP5 ADD PUSH1 0x5 SHR DUP2 ADD SWAP2 PUSH1 0x20 DUP6 LT PUSH2 0x606 JUMPI PUSH1 0x1F ADD PUSH1 0x5 SHR ADD SWAP1 PUSH2 0x3971 JUMP JUMPDEST DUP6 PUSH2 0x159D JUMP JUMPDEST SWAP1 PUSH1 0x2 DUP8 ADD PUSH1 0x0 MSTORE PUSH1 0x20 PUSH1 0x0 KECCAK256 SWAP2 PUSH1 0x0 JUMPDEST PUSH1 0x1F NOT DUP6 AND DUP2 LT PUSH2 0x27FA JUMPI POP SWAP2 DUP4 SWAP2 PUSH1 0x1 SWAP4 PUSH1 0x40 SWAP7 SWAP6 PUSH1 0x1F NOT DUP2 AND LT PUSH2 0x27E1 JUMPI JUMPDEST POP POP POP DUP2 SHL ADD PUSH1 0x2 DUP7 ADD SSTORE PUSH2 0x1574 JUMP JUMPDEST ADD MLOAD PUSH1 0x0 NOT PUSH1 0xF8 DUP5 PUSH1 0x3 SHL AND SHR NOT AND SWAP1 SSTORE DUP8 DUP1 DUP1 PUSH2 0x27D1 JUMP JUMPDEST SWAP2 SWAP3 PUSH1 0x20 PUSH1 0x1 DUP2 SWAP3 DUP7 DUP6 ADD MLOAD DUP2 SSTORE ADD SWAP5 ADD SWAP3 ADD PUSH2 0x27B0 JUMP JUMPDEST PUSH2 0x2841 SWAP1 PUSH1 0x2 DUP9 ADD PUSH1 0x0 MSTORE PUSH1 0x20 PUSH1 0x0 KECCAK256 PUSH1 0x1F DUP6 ADD PUSH1 0x5 SHR DUP2 ADD SWAP2 PUSH1 0x20 DUP7 LT PUSH2 0x606 JUMPI PUSH1 0x1F ADD PUSH1 0x5 SHR ADD SWAP1 PUSH2 0x3971 JUMP JUMPDEST DUP7 PUSH2 0x1539 JUMP JUMPDEST SWAP2 SWAP1 PUSH1 0x1 DUP8 ADD PUSH1 0x0 MSTORE PUSH1 0x20 PUSH1 0x0 KECCAK256 SWAP1 PUSH1 0x0 SWAP4 JUMPDEST PUSH1 0x1F NOT DUP5 AND DUP6 LT PUSH2 0x289E JUMPI PUSH1 0x1 SWAP5 POP DUP4 PUSH1 0x1F NOT DUP2 AND LT PUSH2 0x2885 JUMPI JUMPDEST POP POP POP DUP2 SHL ADD PUSH1 0x1 DUP6 ADD SSTORE PUSH2 0x150D JUMP JUMPDEST ADD MLOAD PUSH1 0x0 NOT PUSH1 0xF8 DUP5 PUSH1 0x3 SHL AND SHR NOT AND SWAP1 SSTORE DUP7 DUP1 DUP1 PUSH2 0x2875 JUMP JUMPDEST DUP2 DUP2 ADD MLOAD DUP4 SSTORE PUSH1 0x20 SWAP5 DUP6 ADD SWAP5 PUSH1 0x1 SWAP1 SWAP4 ADD SWAP3 SWAP1 SWAP2 ADD SWAP1 PUSH2 0x285A JUMP JUMPDEST PUSH2 0x28E8 SWAP1 PUSH1 0x1 DUP9 ADD PUSH1 0x0 MSTORE PUSH1 0x20 PUSH1 0x0 KECCAK256 PUSH1 0x1F DUP6 ADD PUSH1 0x5 SHR DUP2 ADD SWAP2 PUSH1 0x20 DUP7 LT PUSH2 0x606 JUMPI PUSH1 0x1F ADD PUSH1 0x5 SHR ADD SWAP1 PUSH2 0x3971 JUMP JUMPDEST DUP7 PUSH2 0x14D6 JUMP JUMPDEST PUSH1 0x40 MLOAD PUSH3 0x461BCD PUSH1 0xE5 SHL DUP2 MSTORE PUSH1 0x20 PUSH1 0x4 DUP3 ADD MSTORE PUSH1 0x2D PUSH1 0x24 DUP3 ADD MSTORE PUSH32 0x436F6E7472616374207769746820676976656E206964656E7469666965722061 PUSH1 0x44 DUP3 ADD MSTORE PUSH13 0x6C726561647920657869737473 PUSH1 0x98 SHL PUSH1 0x64 DUP3 ADD MSTORE PUSH1 0x84 SWAP1 REVERT JUMPDEST CALLVALUE PUSH2 0x141 JUMPI PUSH1 0x40 CALLDATASIZE PUSH1 0x3 NOT ADD SLT PUSH2 0x141 JUMPI PUSH2 0x2962 PUSH2 0x3351 JUMP JUMPDEST PUSH1 0x24 CALLDATALOAD PUSH1 0x1 PUSH1 0x1 PUSH1 0x40 SHL SUB DUP2 GT PUSH2 0x141 JUMPI PUSH2 0x2984 PUSH2 0x2A8D SWAP2 CALLDATASIZE SWAP1 PUSH1 0x4 ADD PUSH2 0x33DC JUMP JUMPDEST SWAP2 PUSH1 0x0 PUSH2 0x1E0 PUSH1 0x40 MLOAD PUSH2 0x2996 DUP2 PUSH2 0x3368 JUMP JUMPDEST DUP3 DUP2 MSTORE PUSH2 0x29A1 PUSH2 0x3988 JUMP JUMPDEST PUSH1 0x20 DUP3 ADD MSTORE PUSH2 0x29AE PUSH2 0x3988 JUMP JUMPDEST PUSH1 0x40 DUP3 ADD MSTORE PUSH1 0x40 MLOAD PUSH2 0x29BF DUP2 PUSH2 0x3384 JUMP JUMPDEST PUSH1 0x60 DUP2 MSTORE PUSH1 0x60 PUSH1 0x20 DUP3 ADD MSTORE DUP4 PUSH1 0x40 DUP3 ADD MSTORE DUP4 PUSH1 0x60 DUP3 ADD MSTORE DUP4 PUSH1 0x80 DUP3 ADD MSTORE DUP4 PUSH1 0xA0 DUP3 ADD MSTORE PUSH1 0x60 PUSH1 0xC0 DUP3 ADD MSTORE DUP4 PUSH1 0xE0 DUP3 ADD MSTORE DUP4 PUSH2 0x100 DUP3 ADD MSTORE DUP4 PUSH2 0x120 DUP3 ADD MSTORE DUP4 PUSH2 0x140 DUP3 ADD MSTORE PUSH1 0x60 DUP3 ADD MSTORE PUSH1 0x60 PUSH1 0x80 DUP3 ADD MSTORE PUSH1 0x60 PUSH1 0xA0 DUP3 ADD MSTORE PUSH1 0x60 PUSH1 0xC0 DUP3 ADD MSTORE PUSH1 0x60 PUSH1 0xE0 DUP3 ADD MSTORE PUSH1 0x60 PUSH2 0x100 DUP3 ADD MSTORE PUSH1 0x60 PUSH2 0x120 DUP3 ADD MSTORE PUSH1 0x60 PUSH2 0x140 DUP3 ADD MSTORE DUP3 PUSH2 0x160 DUP3 ADD MSTORE DUP3 PUSH2 0x180 DUP3 ADD MSTORE DUP3 PUSH2 0x1A0 DUP3 ADD MSTORE DUP3 PUSH2 0x1C0 DUP3 ADD MSTORE ADD MSTORE PUSH6 0xFFFFFFFFFFFF PUSH1 0xD0 SHL AND SWAP2 DUP3 PUSH1 0x0 MSTORE PUSH1 0x0 PUSH1 0x20 MSTORE PUSH1 0x18 PUSH1 0x40 PUSH1 0x0 KECCAK256 ADD PUSH1 0x40 MLOAD PUSH2 0x2C2 DUP2 PUSH2 0x2B4 PUSH1 0x20 DUP3 ADD DUP1 SWAP6 PUSH2 0x38AC JUMP JUMPDEST PUSH1 0x0 MSTORE PUSH1 0x0 PUSH1 0x20 MSTORE PUSH2 0x220 PUSH1 0x20 PUSH1 0x40 PUSH1 0x0 KECCAK256 PUSH1 0x1A PUSH1 0x40 MLOAD SWAP2 PUSH2 0x2AAE DUP4 PUSH2 0x3368 JUMP JUMPDEST DUP1 SLOAD DUP4 MSTORE PUSH2 0x2ABE PUSH1 0x1 DUP3 ADD PUSH2 0x3788 JUMP JUMPDEST DUP5 DUP5 ADD MSTORE PUSH2 0x2ACE PUSH1 0x4 DUP3 ADD PUSH2 0x3788 JUMP JUMPDEST PUSH1 0x40 DUP5 ADD MSTORE PUSH2 0x2ADF PUSH1 0x7 DUP3 ADD PUSH2 0x37C0 JUMP JUMPDEST PUSH1 0x60 DUP5 ADD MSTORE PUSH2 0x2AF0 PUSH1 0x12 DUP3 ADD PUSH2 0x36E3 JUMP JUMPDEST PUSH1 0x80 DUP5 ADD MSTORE PUSH2 0x2B01 PUSH1 0x13 DUP3 ADD PUSH2 0x39A7 JUMP JUMPDEST PUSH1 0xA0 DUP5 ADD MSTORE PUSH2 0x2B12 PUSH1 0x14 DUP3 ADD PUSH2 0x39A7 JUMP JUMPDEST PUSH1 0xC0 DUP5 ADD MSTORE PUSH2 0x2B23 PUSH1 0x15 DUP3 ADD PUSH2 0x39A7 JUMP JUMPDEST PUSH1 0xE0 DUP5 ADD MSTORE PUSH2 0x2B34 PUSH1 0x16 DUP3 ADD PUSH2 0x36E3 JUMP JUMPDEST PUSH2 0x100 DUP5 ADD MSTORE PUSH2 0x2B46 PUSH1 0x17 DUP3 ADD PUSH2 0x36E3 JUMP JUMPDEST PUSH2 0x120 DUP5 ADD MSTORE PUSH2 0x2B58 PUSH1 0x18 DUP3 ADD PUSH2 0x36E3 JUMP JUMPDEST PUSH2 0x140 DUP5 ADD MSTORE PUSH1 0xFF PUSH1 0x19 DUP3 ADD SLOAD PUSH1 0x1 DUP1 PUSH1 0xA0 SHL SUB DUP2 AND PUSH2 0x160 DUP7 ADD MSTORE DUP2 DUP2 PUSH1 0xA0 SHR AND ISZERO ISZERO PUSH2 0x180 DUP7 ADD MSTORE DUP2 DUP2 PUSH1 0xA8 SHR AND ISZERO ISZERO PUSH2 0x1A0 DUP7 ADD MSTORE PUSH1 0xB0 SHR AND ISZERO ISZERO PUSH2 0x1C0 DUP5 ADD MSTORE ADD SLOAD PUSH2 0x1E0 DUP3 ADD MSTORE PUSH2 0x1E0 PUSH2 0x2CB6 PUSH2 0x2C9E PUSH2 0x2C86 PUSH2 0x2C6E PUSH2 0x2C57 PUSH2 0x2C41 PUSH2 0x2C2B PUSH2 0x2C15 PUSH2 0x2BFF PUSH2 0x2BE9 DUP12 PUSH1 0x40 MLOAD SWAP15 DUP16 SWAP15 DUP16 SWAP3 DUP2 DUP5 MSTORE DUP1 MLOAD DUP3 DUP6 ADD MSTORE ADD MLOAD SWAP2 PUSH2 0x200 PUSH1 0x40 DUP3 ADD MSTORE ADD SWAP1 PUSH2 0x347A JUMP JUMPDEST PUSH1 0x40 DUP13 ADD MLOAD DUP14 DUP3 SUB PUSH1 0x1F NOT ADD PUSH1 0x60 DUP16 ADD MSTORE PUSH2 0x347A JUMP JUMPDEST PUSH1 0x60 DUP12 ADD MLOAD DUP13 DUP3 SUB PUSH1 0x1F NOT ADD PUSH1 0x80 DUP15 ADD MSTORE PUSH2 0x34BC JUMP JUMPDEST PUSH1 0x80 DUP11 ADD MLOAD DUP12 DUP3 SUB PUSH1 0x1F NOT ADD PUSH1 0xA0 DUP14 ADD MSTORE PUSH2 0x3455 JUMP JUMPDEST PUSH1 0xA0 DUP10 ADD MLOAD DUP11 DUP3 SUB PUSH1 0x1F NOT ADD PUSH1 0xC0 DUP13 ADD MSTORE PUSH2 0x353F JUMP JUMPDEST PUSH1 0xC0 DUP9 ADD MLOAD DUP10 DUP3 SUB PUSH1 0x1F NOT ADD PUSH1 0xE0 DUP12 ADD MSTORE PUSH2 0x353F JUMP JUMPDEST PUSH1 0xE0 DUP8 ADD MLOAD DUP9 DUP3 SUB PUSH1 0x1F NOT ADD PUSH2 0x100 DUP11 ADD MSTORE PUSH2 0x353F JUMP JUMPDEST PUSH2 0x100 DUP7 ADD MLOAD DUP8 DUP3 SUB PUSH1 0x1F NOT ADD PUSH2 0x120 DUP10 ADD MSTORE PUSH2 0x3455 JUMP JUMPDEST PUSH2 0x120 DUP6 ADD MLOAD DUP7 DUP3 SUB PUSH1 0x1F NOT ADD PUSH2 0x140 DUP9 ADD MSTORE PUSH2 0x3455 JUMP JUMPDEST PUSH2 0x140 DUP5 ADD MLOAD DUP6 DUP3 SUB PUSH1 0x1F NOT ADD PUSH2 0x160 DUP8 ADD MSTORE PUSH2 0x3455 JUMP JUMPDEST SWAP2 PUSH1 0x1 DUP1 PUSH1 0xA0 SHL SUB PUSH2 0x160 DUP3 ADD MLOAD AND PUSH2 0x180 DUP6 ADD MSTORE PUSH2 0x180 DUP2 ADD MLOAD ISZERO ISZERO PUSH2 0x1A0 DUP6 ADD MSTORE PUSH2 0x1A0 DUP2 ADD MLOAD ISZERO ISZERO PUSH2 0x1C0 DUP6 ADD MSTORE PUSH2 0x1C0 DUP2 ADD MLOAD ISZERO ISZERO DUP3 DUP6 ADD MSTORE ADD MLOAD PUSH2 0x200 DUP4 ADD MSTORE SUB SWAP1 RETURN JUMPDEST PUSH1 0xC0 CALLDATASIZE PUSH1 0x3 NOT ADD SLT PUSH2 0x141 JUMPI PUSH2 0x2D13 PUSH2 0x3351 JUMP JUMPDEST PUSH1 0x24 SWAP1 PUSH1 0x1 PUSH1 0x1 PUSH1 0x40 SHL SUB SWAP1 DUP3 CALLDATALOAD DUP3 DUP2 GT PUSH2 0x141 JUMPI PUSH2 0x2D36 SWAP1 CALLDATASIZE SWAP1 PUSH1 0x4 ADD PUSH2 0x33DC JUMP JUMPDEST SWAP3 PUSH1 0x44 CALLDATALOAD DUP4 DUP2 GT PUSH2 0x141 JUMPI PUSH2 0x2D4F SWAP1 CALLDATASIZE SWAP1 PUSH1 0x4 ADD PUSH2 0x33DC JUMP JUMPDEST SWAP3 PUSH1 0x64 CALLDATALOAD DUP2 DUP2 GT PUSH2 0x141 JUMPI PUSH2 0x2D68 SWAP1 CALLDATASIZE SWAP1 PUSH1 0x4 ADD PUSH2 0x33DC JUMP JUMPDEST SWAP4 PUSH1 0x84 CALLDATALOAD DUP3 DUP2 GT PUSH2 0x141 JUMPI PUSH2 0x2D81 SWAP1 CALLDATASIZE SWAP1 PUSH1 0x4 ADD PUSH2 0x33DC JUMP JUMPDEST SWAP4 PUSH1 0xA4 CALLDATALOAD DUP4 DUP2 GT PUSH2 0x141 JUMPI PUSH2 0x2D9A SWAP1 CALLDATASIZE SWAP1 PUSH1 0x4 ADD PUSH2 0x33DC JUMP JUMPDEST SWAP1 PUSH6 0xFFFFFFFFFFFF PUSH1 0xD0 SHL AND SWAP7 DUP8 PUSH1 0x0 MSTORE PUSH1 0x20 SWAP7 PUSH1 0x0 DUP9 MSTORE PUSH2 0x2DCD PUSH1 0x1 DUP1 PUSH1 0xA0 SHL SUB PUSH1 0x19 PUSH1 0x40 PUSH1 0x0 KECCAK256 ADD SLOAD AND CALLER EQ PUSH2 0x3850 JUMP JUMPDEST DUP9 PUSH1 0x0 MSTORE PUSH1 0x0 DUP9 MSTORE PUSH2 0x2E27 PUSH1 0x18 PUSH1 0x40 PUSH1 0x0 KECCAK256 ADD SWAP3 PUSH1 0x40 MLOAD SWAP4 DUP5 PUSH2 0x2DF3 DUP13 DUP3 ADD DUP1 SWAP4 PUSH2 0x38AC JUMP JUMPDEST SUB SWAP5 PUSH2 0x2E07 PUSH1 0x1F NOT SWAP7 DUP8 DUP2 ADD DUP4 MSTORE DUP3 PUSH2 0x33BB JUMP JUMPDEST MLOAD SWAP1 KECCAK256 SWAP1 PUSH1 0x40 MLOAD PUSH2 0x2F0 DUP13 DUP3 DUP2 PUSH2 0x2E3 DUP2 DUP4 ADD SWAP7 DUP8 DUP2 MLOAD SWAP4 DUP5 SWAP3 ADD PUSH2 0x3432 JUMP JUMPDEST DUP9 PUSH1 0x0 MSTORE PUSH1 0x0 DUP9 MSTORE PUSH1 0xF PUSH1 0x40 PUSH1 0x0 KECCAK256 ADD SLOAD CALLVALUE SUB PUSH2 0x330D JUMPI DUP9 PUSH1 0x0 MSTORE PUSH1 0x0 DUP9 MSTORE PUSH1 0x40 PUSH1 0x0 KECCAK256 SWAP7 PUSH1 0x4 DUP9 ADD DUP6 MLOAD DUP8 DUP2 GT PUSH2 0x319A JUMPI PUSH2 0x2E63 DUP3 SLOAD PUSH2 0x36A9 JUMP JUMPDEST SWAP7 PUSH1 0x1F SWAP8 DUP13 DUP10 DUP3 GT PUSH2 0x32D4 JUMPI JUMPDEST POP POP DUP12 SWAP1 DUP9 DUP4 GT PUSH1 0x1 EQ PUSH2 0x326D JUMPI PUSH2 0x2EA0 SWAP3 SWAP2 PUSH1 0x0 SWAP2 DUP4 PUSH2 0x31AF JUMPI POP POP DUP2 PUSH1 0x1 SHL SWAP2 PUSH1 0x0 NOT SWAP1 PUSH1 0x3 SHL SHR NOT AND OR SWAP1 JUMP JUMPDEST SWAP1 SSTORE JUMPDEST PUSH1 0x5 SWAP2 DUP3 DUP10 ADD SWAP1 DUP1 MLOAD SWAP1 DUP9 DUP3 GT PUSH2 0x3258 JUMPI PUSH2 0x2EBE DUP4 SLOAD PUSH2 0x36A9 JUMP JUMPDEST DUP13 DUP10 DUP3 GT PUSH2 0x3221 JUMPI JUMPDEST POP POP DUP12 SWAP1 DUP9 DUP4 GT PUSH1 0x1 EQ PUSH2 0x31BA JUMPI PUSH2 0x2EF7 SWAP3 SWAP2 PUSH1 0x0 SWAP2 DUP4 PUSH2 0x31AF JUMPI POP POP DUP2 PUSH1 0x1 SHL SWAP2 PUSH1 0x0 NOT SWAP1 PUSH1 0x3 SHL SHR NOT AND OR SWAP1 JUMP JUMPDEST SWAP1 SSTORE JUMPDEST DUP1 MLOAD PUSH1 0x6 DUP10 ADD SWAP2 DUP8 DUP3 GT PUSH2 0x319A JUMPI PUSH2 0x2F12 DUP4 SLOAD PUSH2 0x36A9 JUMP JUMPDEST DUP12 DUP9 DUP3 GT PUSH2 0x3163 JUMPI JUMPDEST POP POP DUP11 SWAP1 DUP8 DUP4 GT PUSH1 0x1 EQ PUSH2 0x30FC JUMPI PUSH2 0x2F4B SWAP3 SWAP2 PUSH1 0x0 SWAP2 DUP4 PUSH2 0x1E38 JUMPI POP POP DUP2 PUSH1 0x1 SHL SWAP2 PUSH1 0x0 NOT SWAP1 PUSH1 0x3 SHL SHR NOT AND OR SWAP1 JUMP JUMPDEST SWAP1 SSTORE JUMPDEST PUSH1 0x17 DUP8 ADD SWAP6 DUP4 MLOAD SWAP6 DUP7 GT PUSH2 0x30E8 JUMPI POP PUSH2 0x2F67 DUP7 SLOAD PUSH2 0x36A9 JUMP JUMPDEST DUP5 DUP2 GT PUSH2 0x30B0 JUMPI JUMPDEST POP POP DUP7 SWAP3 DUP5 GT PUSH1 0x1 EQ PUSH2 0x3026 JUMPI POP SWAP3 PUSH2 0x2FC8 DUP4 PUSH1 0x19 SWAP5 PUSH1 0x40 SWAP8 SWAP5 PUSH32 0xEBBF6B2760B055C34E7D54BCCF7079CA90030B876FBF1D76C144A76D28123594 SWAP10 SWAP8 PUSH1 0x0 SWAP3 PUSH2 0x301B JUMPI POP POP DUP2 PUSH1 0x1 SHL SWAP2 PUSH1 0x0 NOT SWAP1 PUSH1 0x3 SHL SHR NOT AND OR SWAP1 JUMP JUMPDEST SWAP1 SSTORE JUMPDEST ADD DUP1 SLOAD PUSH3 0xFF00FF PUSH1 0xA0 SHL NOT AND PUSH3 0x10001 PUSH1 0xA0 SHL OR SWAP1 SSTORE DUP2 MLOAD TIMESTAMP DUP2 MSTORE DUP5 SWAP1 PUSH32 0x85B74A154907154C273CAEB0BE924FEADB5271097E078BFD27EF84F1A75F05E8 SWAP1 DUP4 SWAP1 LOG2 DUP2 MLOAD SWAP1 CALLVALUE DUP3 MSTORE TIMESTAMP SWAP1 DUP3 ADD MSTORE LOG2 STOP JUMPDEST ADD MLOAD SWAP1 POP DUP11 DUP1 PUSH2 0x357 JUMP JUMPDEST PUSH1 0x0 DUP6 DUP2 MSTORE DUP8 DUP2 KECCAK256 SWAP4 SWAP3 SWAP2 DUP6 AND SWAP1 JUMPDEST DUP2 DUP2 LT PUSH2 0x3099 JUMPI POP SWAP4 PUSH1 0x40 SWAP7 SWAP4 PUSH32 0xEBBF6B2760B055C34E7D54BCCF7079CA90030B876FBF1D76C144A76D28123594 SWAP9 SWAP7 SWAP4 PUSH1 0x1 SWAP4 DUP4 PUSH1 0x19 SWAP9 LT PUSH2 0x3080 JUMPI JUMPDEST POP POP POP DUP2 SHL ADD SWAP1 SSTORE PUSH2 0x2FCB JUMP JUMPDEST ADD MLOAD PUSH1 0x0 NOT PUSH1 0xF8 DUP5 PUSH1 0x3 SHL AND SHR NOT AND SWAP1 SSTORE DUP10 DUP1 DUP1 PUSH2 0x3073 JUMP JUMPDEST SWAP3 SWAP4 DUP9 PUSH1 0x1 DUP2 SWAP3 DUP8 DUP7 ADD MLOAD DUP2 SSTORE ADD SWAP6 ADD SWAP4 ADD PUSH2 0x3035 JUMP JUMPDEST PUSH2 0x30D8 SWAP2 DUP8 PUSH1 0x0 MSTORE DUP10 PUSH1 0x0 KECCAK256 SWAP1 DUP7 DUP1 DUP10 ADD DUP3 SHR DUP4 ADD SWAP4 DUP13 DUP11 LT PUSH2 0x30DF JUMPI JUMPDEST ADD SWAP1 SHR ADD SWAP1 PUSH2 0x3971 JUMP JUMPDEST DUP9 DUP1 PUSH2 0x2F6F JUMP JUMPDEST SWAP4 POP DUP3 SWAP4 PUSH2 0x30CE JUMP JUMPDEST PUSH4 0x4E487B71 PUSH1 0xE0 SHL PUSH1 0x0 SWAP1 DUP2 MSTORE PUSH1 0x41 PUSH1 0x4 MSTORE REVERT JUMPDEST SWAP1 DUP6 DUP4 AND SWAP2 DUP5 PUSH1 0x0 MSTORE DUP13 PUSH1 0x0 KECCAK256 SWAP3 DUP14 PUSH1 0x0 SWAP1 JUMPDEST DUP3 DUP3 LT PUSH2 0x314C JUMPI POP POP SWAP1 DUP5 PUSH1 0x1 SWAP6 SWAP5 SWAP4 SWAP3 LT PUSH2 0x3133 JUMPI JUMPDEST POP POP POP DUP2 SHL ADD SWAP1 SSTORE PUSH2 0x2F4E JUMP JUMPDEST ADD MLOAD PUSH1 0x0 NOT PUSH1 0xF8 DUP5 PUSH1 0x3 SHL AND SHR NOT AND SWAP1 SSTORE DUP13 DUP1 DUP1 PUSH2 0x3126 JUMP JUMPDEST PUSH1 0x1 DUP6 SWAP7 DUP3 SWAP4 SWAP7 DUP7 ADD MLOAD DUP2 SSTORE ADD SWAP6 ADD SWAP4 ADD DUP15 PUSH2 0x310F JUMP JUMPDEST PUSH2 0x318A SWAP2 DUP6 PUSH1 0x0 MSTORE DUP10 DUP3 PUSH1 0x0 KECCAK256 SWAP2 DUP2 DUP8 ADD DUP10 SHR DUP4 ADD SWAP4 DUP8 LT PUSH2 0x3191 JUMPI JUMPDEST ADD DUP8 SHR ADD SWAP1 PUSH2 0x3971 JUMP JUMPDEST DUP13 DUP12 PUSH2 0x2F1B JUMP JUMPDEST SWAP3 POP DUP2 SWAP3 PUSH2 0x3180 JUMP JUMPDEST DUP9 PUSH4 0x4E487B71 PUSH1 0xE0 SHL PUSH1 0x0 MSTORE PUSH1 0x41 PUSH1 0x4 MSTORE PUSH1 0x0 REVERT JUMPDEST ADD MLOAD SWAP1 POP DUP15 DUP1 PUSH2 0x357 JUMP JUMPDEST SWAP1 DUP13 SWAP2 DUP8 DUP5 AND DUP6 PUSH1 0x0 MSTORE DUP4 PUSH1 0x0 KECCAK256 SWAP4 PUSH1 0x0 SWAP1 JUMPDEST DUP3 DUP3 LT PUSH2 0x320A JUMPI POP POP SWAP1 DUP5 PUSH1 0x1 SWAP6 SWAP5 SWAP4 SWAP3 LT PUSH2 0x31F1 JUMPI JUMPDEST POP POP POP DUP2 SHL ADD SWAP1 SSTORE PUSH2 0x2EFA JUMP JUMPDEST ADD MLOAD PUSH1 0x0 NOT PUSH1 0xF8 DUP5 PUSH1 0x3 SHL AND SHR NOT AND SWAP1 SSTORE DUP14 DUP1 DUP1 PUSH2 0x31E4 JUMP JUMPDEST PUSH1 0x1 DUP6 SWAP7 DUP3 SWAP4 SWAP7 DUP7 ADD MLOAD DUP2 SSTORE ADD SWAP6 ADD SWAP4 ADD DUP16 PUSH2 0x31CD JUMP JUMPDEST PUSH2 0x3248 SWAP2 DUP6 PUSH1 0x0 MSTORE DUP11 DUP3 PUSH1 0x0 KECCAK256 SWAP2 DUP2 DUP8 ADD DUP11 SHR DUP4 ADD SWAP4 DUP8 LT PUSH2 0x324F JUMPI JUMPDEST ADD DUP9 SHR ADD SWAP1 PUSH2 0x3971 JUMP JUMPDEST DUP14 DUP13 PUSH2 0x2EC7 JUMP JUMPDEST SWAP3 POP DUP2 SWAP3 PUSH2 0x323E JUMP JUMPDEST DUP10 PUSH4 0x4E487B71 PUSH1 0xE0 SHL PUSH1 0x0 MSTORE PUSH1 0x41 PUSH1 0x4 MSTORE PUSH1 0x0 REVERT JUMPDEST SWAP1 DUP13 SWAP2 DUP8 DUP5 AND DUP6 PUSH1 0x0 MSTORE DUP4 PUSH1 0x0 KECCAK256 SWAP4 PUSH1 0x0 SWAP1 JUMPDEST DUP3 DUP3 LT PUSH2 0x32BD JUMPI POP POP SWAP1 DUP5 PUSH1 0x1 SWAP6 SWAP5 SWAP4 SWAP3 LT PUSH2 0x32A4 JUMPI JUMPDEST POP POP POP DUP2 SHL ADD SWAP1 SSTORE PUSH2 0x2EA3 JUMP JUMPDEST ADD MLOAD PUSH1 0x0 NOT PUSH1 0xF8 DUP5 PUSH1 0x3 SHL AND SHR NOT AND SWAP1 SSTORE DUP14 DUP1 DUP1 PUSH2 0x3297 JUMP JUMPDEST PUSH1 0x1 DUP6 SWAP7 DUP3 SWAP4 SWAP7 DUP7 ADD MLOAD DUP2 SSTORE ADD SWAP6 ADD SWAP4 ADD DUP16 PUSH2 0x3280 JUMP JUMPDEST PUSH2 0x32FD SWAP2 DUP6 PUSH1 0x0 MSTORE DUP11 DUP3 PUSH1 0x0 KECCAK256 SWAP2 DUP2 DUP8 ADD PUSH1 0x5 SHR DUP4 ADD SWAP4 DUP8 LT PUSH2 0x3304 JUMPI JUMPDEST ADD PUSH1 0x5 SHR ADD SWAP1 PUSH2 0x3971 JUMP JUMPDEST DUP14 DUP13 PUSH2 0x2E70 JUMP JUMPDEST SWAP3 POP DUP2 SWAP3 PUSH2 0x32F2 JUMP JUMPDEST PUSH1 0x40 MLOAD PUSH3 0x461BCD PUSH1 0xE5 SHL DUP2 MSTORE PUSH1 0x4 DUP2 ADD DUP10 SWAP1 MSTORE PUSH1 0x18 DUP2 DUP9 ADD MSTORE PUSH32 0x496E636F7272656374206465706F73697420616D6F756E740000000000000000 PUSH1 0x44 DUP3 ADD MSTORE PUSH1 0x64 SWAP1 REVERT JUMPDEST PUSH1 0x4 CALLDATALOAD SWAP1 PUSH1 0x1 PUSH1 0x1 PUSH1 0xD0 SHL SUB NOT DUP3 AND DUP3 SUB PUSH2 0x141 JUMPI JUMP JUMPDEST PUSH2 0x200 DUP2 ADD SWAP1 DUP2 LT PUSH1 0x1 PUSH1 0x1 PUSH1 0x40 SHL SUB DUP3 GT OR PUSH2 0x610 JUMPI PUSH1 0x40 MSTORE JUMP JUMPDEST PUSH2 0x160 DUP2 ADD SWAP1 DUP2 LT PUSH1 0x1 PUSH1 0x1 PUSH1 0x40 SHL SUB DUP3 GT OR PUSH2 0x610 JUMPI PUSH1 0x40 MSTORE JUMP JUMPDEST PUSH1 0x60 DUP2 ADD SWAP1 DUP2 LT PUSH1 0x1 PUSH1 0x1 PUSH1 0x40 SHL SUB DUP3 GT OR PUSH2 0x610 JUMPI PUSH1 0x40 MSTORE JUMP JUMPDEST SWAP1 PUSH1 0x1F DUP1 NOT SWAP2 ADD AND DUP2 ADD SWAP1 DUP2 LT PUSH1 0x1 PUSH1 0x1 PUSH1 0x40 SHL SUB DUP3 GT OR PUSH2 0x610 JUMPI PUSH1 0x40 MSTORE JUMP JUMPDEST DUP2 PUSH1 0x1F DUP3 ADD SLT ISZERO PUSH2 0x141 JUMPI DUP1 CALLDATALOAD SWAP1 PUSH1 0x1 PUSH1 0x1 PUSH1 0x40 SHL SUB DUP3 GT PUSH2 0x610 JUMPI PUSH1 0x40 MLOAD SWAP3 PUSH2 0x3410 PUSH1 0x1F DUP5 ADD PUSH1 0x1F NOT AND PUSH1 0x20 ADD DUP6 PUSH2 0x33BB JUMP JUMPDEST DUP3 DUP5 MSTORE PUSH1 0x20 DUP4 DUP4 ADD ADD GT PUSH2 0x141 JUMPI DUP2 PUSH1 0x0 SWAP3 PUSH1 0x20 DUP1 SWAP4 ADD DUP4 DUP7 ADD CALLDATACOPY DUP4 ADD ADD MSTORE SWAP1 JUMP JUMPDEST PUSH1 0x0 JUMPDEST DUP4 DUP2 LT PUSH2 0x3445 JUMPI POP POP PUSH1 0x0 SWAP2 ADD MSTORE JUMP JUMPDEST DUP2 DUP2 ADD MLOAD DUP4 DUP3 ADD MSTORE PUSH1 0x20 ADD PUSH2 0x3435 JUMP JUMPDEST SWAP1 PUSH1 0x20 SWAP2 PUSH2 0x346E DUP2 MLOAD DUP1 SWAP3 DUP2 DUP6 MSTORE DUP6 DUP1 DUP7 ADD SWAP2 ADD PUSH2 0x3432 JUMP JUMPDEST PUSH1 0x1F ADD PUSH1 0x1F NOT AND ADD ADD SWAP1 JUMP JUMPDEST PUSH2 0x34B9 SWAP2 PUSH1 0x40 PUSH2 0x34A8 PUSH2 0x3496 DUP5 MLOAD PUSH1 0x60 DUP6 MSTORE PUSH1 0x60 DUP6 ADD SWAP1 PUSH2 0x3455 JUMP JUMPDEST PUSH1 0x20 DUP6 ADD MLOAD DUP5 DUP3 SUB PUSH1 0x20 DUP7 ADD MSTORE PUSH2 0x3455 JUMP JUMPDEST SWAP3 ADD MLOAD SWAP1 PUSH1 0x40 DUP2 DUP5 SUB SWAP2 ADD MSTORE PUSH2 0x3455 JUMP JUMPDEST SWAP1 JUMP JUMPDEST SWAP1 PUSH2 0x3511 PUSH2 0x34D7 PUSH2 0x3496 PUSH2 0x160 DUP6 MLOAD SWAP1 DUP1 DUP7 MSTORE DUP6 ADD SWAP1 PUSH2 0x3455 JUMP JUMPDEST PUSH1 0x40 DUP5 ADD MLOAD PUSH1 0x40 DUP5 ADD MSTORE PUSH1 0x60 DUP5 ADD MLOAD PUSH1 0x60 DUP5 ADD MSTORE PUSH1 0x80 DUP5 ADD MLOAD PUSH1 0x80 DUP5 ADD MSTORE PUSH1 0xA0 DUP5 ADD MLOAD PUSH1 0xA0 DUP5 ADD MSTORE PUSH1 0xC0 DUP5 ADD MLOAD DUP4 DUP3 SUB PUSH1 0xC0 DUP6 ADD MSTORE PUSH2 0x3455 JUMP JUMPDEST SWAP2 PUSH1 0xE0 DUP2 ADD MLOAD PUSH1 0xE0 DUP4 ADD MSTORE PUSH2 0x100 DUP1 DUP3 ADD MLOAD SWAP1 DUP4 ADD MSTORE PUSH2 0x120 DUP1 DUP3 ADD MLOAD SWAP1 DUP4 ADD MSTORE PUSH2 0x140 DUP1 SWAP2 ADD MLOAD SWAP2 ADD MSTORE SWAP1 JUMP JUMPDEST SWAP1 DUP1 DUP3 MLOAD SWAP1 DUP2 DUP2 MSTORE PUSH1 0x20 DUP1 SWAP2 ADD SWAP3 PUSH1 0x20 DUP1 DUP5 PUSH1 0x5 SHL DUP4 ADD ADD SWAP6 ADD SWAP4 PUSH1 0x0 SWAP2 JUMPDEST DUP5 DUP4 LT PUSH2 0x356E JUMPI POP POP POP POP POP POP SWAP1 JUMP JUMPDEST SWAP1 SWAP2 SWAP3 SWAP4 SWAP5 SWAP6 DUP5 DUP1 PUSH2 0x358C PUSH1 0x1 SWAP4 PUSH1 0x1F NOT DUP7 DUP3 SUB ADD DUP8 MSTORE DUP11 MLOAD PUSH2 0x3455 JUMP JUMPDEST SWAP9 ADD SWAP4 ADD SWAP4 ADD SWAP2 SWAP5 SWAP4 SWAP3 SWAP1 PUSH2 0x355E JUMP JUMPDEST SWAP2 SWAP1 PUSH1 0x60 DUP4 DUP3 SUB SLT PUSH2 0x141 JUMPI PUSH1 0x40 MLOAD SWAP1 PUSH2 0x35B5 DUP3 PUSH2 0x33A0 JUMP JUMPDEST DUP2 SWAP4 DUP1 CALLDATALOAD SWAP2 PUSH1 0x1 PUSH1 0x1 PUSH1 0x40 SHL SUB SWAP3 DUP4 DUP2 GT PUSH2 0x141 JUMPI DUP2 PUSH2 0x35D6 SWAP2 DUP5 ADD PUSH2 0x33DC JUMP JUMPDEST DUP5 MSTORE PUSH1 0x20 DUP3 ADD CALLDATALOAD DUP4 DUP2 GT PUSH2 0x141 JUMPI DUP2 PUSH2 0x35F0 SWAP2 DUP5 ADD PUSH2 0x33DC JUMP JUMPDEST PUSH1 0x20 DUP6 ADD MSTORE PUSH1 0x40 DUP3 ADD CALLDATALOAD SWAP3 DUP4 GT PUSH2 0x141 JUMPI PUSH1 0x40 SWAP3 PUSH2 0x360E SWAP3 ADD PUSH2 0x33DC JUMP JUMPDEST SWAP2 ADD MSTORE JUMP JUMPDEST PUSH1 0x1 PUSH1 0x1 PUSH1 0x40 SHL SUB DUP2 GT PUSH2 0x610 JUMPI PUSH1 0x5 SHL PUSH1 0x20 ADD SWAP1 JUMP JUMPDEST DUP2 PUSH1 0x1F DUP3 ADD SLT ISZERO PUSH2 0x141 JUMPI DUP1 CALLDATALOAD SWAP2 PUSH1 0x20 SWAP2 PUSH2 0x3644 DUP5 PUSH2 0x3613 JUMP JUMPDEST SWAP4 PUSH2 0x3652 PUSH1 0x40 MLOAD SWAP6 DUP7 PUSH2 0x33BB JUMP JUMPDEST DUP1 DUP6 MSTORE DUP4 DUP1 DUP7 ADD SWAP2 PUSH1 0x5 SHL DUP4 ADD ADD SWAP3 DUP1 DUP5 GT PUSH2 0x141 JUMPI DUP5 DUP4 ADD SWAP2 JUMPDEST DUP5 DUP4 LT PUSH2 0x367D JUMPI POP POP POP POP POP POP SWAP1 JUMP JUMPDEST DUP3 CALLDATALOAD PUSH1 0x1 PUSH1 0x1 PUSH1 0x40 SHL SUB DUP2 GT PUSH2 0x141 JUMPI DUP7 SWAP2 PUSH2 0x369E DUP5 DUP5 DUP1 SWAP5 DUP10 ADD ADD PUSH2 0x33DC JUMP JUMPDEST DUP2 MSTORE ADD SWAP3 ADD SWAP2 PUSH2 0x366D JUMP JUMPDEST SWAP1 PUSH1 0x1 DUP3 DUP2 SHR SWAP3 AND DUP1 ISZERO PUSH2 0x36D9 JUMPI JUMPDEST PUSH1 0x20 DUP4 LT EQ PUSH2 0x36C3 JUMPI JUMP JUMPDEST PUSH4 0x4E487B71 PUSH1 0xE0 SHL PUSH1 0x0 MSTORE PUSH1 0x22 PUSH1 0x4 MSTORE PUSH1 0x24 PUSH1 0x0 REVERT JUMPDEST SWAP2 PUSH1 0x7F AND SWAP2 PUSH2 0x36B8 JUMP JUMPDEST SWAP1 PUSH1 0x40 MLOAD SWAP2 DUP3 PUSH1 0x0 DUP3 SLOAD PUSH2 0x36F6 DUP2 PUSH2 0x36A9 JUMP JUMPDEST SWAP1 DUP2 DUP5 MSTORE PUSH1 0x20 SWAP5 PUSH1 0x1 SWAP2 PUSH1 0x1 DUP2 AND SWAP1 DUP2 PUSH1 0x0 EQ PUSH2 0x3766 JUMPI POP PUSH1 0x1 EQ PUSH2 0x3727 JUMPI JUMPDEST POP POP POP PUSH2 0x3725 SWAP3 POP SUB DUP4 PUSH2 0x33BB JUMP JUMPDEST JUMP JUMPDEST PUSH1 0x0 SWAP1 DUP2 MSTORE DUP6 DUP2 KECCAK256 SWAP6 SWAP4 POP SWAP2 SWAP1 JUMPDEST DUP2 DUP4 LT PUSH2 0x374E JUMPI POP POP PUSH2 0x3725 SWAP4 POP DUP3 ADD ADD CODESIZE DUP1 DUP1 PUSH2 0x3716 JUMP JUMPDEST DUP6 SLOAD DUP9 DUP5 ADD DUP6 ADD MSTORE SWAP5 DUP6 ADD SWAP5 DUP8 SWAP5 POP SWAP2 DUP4 ADD SWAP2 PUSH2 0x3735 JUMP JUMPDEST SWAP3 POP POP POP PUSH2 0x3725 SWAP5 SWAP3 POP PUSH1 0xFF NOT AND DUP3 DUP5 ADD MSTORE ISZERO ISZERO PUSH1 0x5 SHL DUP3 ADD ADD CODESIZE DUP1 DUP1 PUSH2 0x3716 JUMP JUMPDEST SWAP1 PUSH1 0x40 MLOAD PUSH2 0x3795 DUP2 PUSH2 0x33A0 JUMP JUMPDEST PUSH1 0x40 PUSH2 0x360E PUSH1 0x2 DUP4 SWAP6 PUSH2 0x37A7 DUP2 PUSH2 0x36E3 JUMP JUMPDEST DUP6 MSTORE PUSH2 0x37B5 PUSH1 0x1 DUP3 ADD PUSH2 0x36E3 JUMP JUMPDEST PUSH1 0x20 DUP7 ADD MSTORE ADD PUSH2 0x36E3 JUMP JUMPDEST SWAP1 PUSH1 0x40 MLOAD PUSH2 0x37CD DUP2 PUSH2 0x3384 JUMP JUMPDEST PUSH2 0x140 PUSH1 0xA DUP3 SWAP5 PUSH2 0x37DD DUP2 PUSH2 0x36E3 JUMP JUMPDEST DUP5 MSTORE PUSH2 0x37EB PUSH1 0x1 DUP3 ADD PUSH2 0x36E3 JUMP JUMPDEST PUSH1 0x20 DUP6 ADD MSTORE PUSH1 0x2 DUP2 ADD SLOAD PUSH1 0x40 DUP6 ADD MSTORE PUSH1 0x3 DUP2 ADD SLOAD PUSH1 0x60 DUP6 ADD MSTORE PUSH1 0x4 DUP2 ADD SLOAD PUSH1 0x80 DUP6 ADD MSTORE PUSH1 0x5 DUP2 ADD SLOAD PUSH1 0xA0 DUP6 ADD MSTORE PUSH2 0x3824 PUSH1 0x6 DUP3 ADD PUSH2 0x36E3 JUMP JUMPDEST PUSH1 0xC0 DUP6 ADD MSTORE PUSH1 0x7 DUP2 ADD SLOAD PUSH1 0xE0 DUP6 ADD MSTORE PUSH1 0x8 DUP2 ADD SLOAD PUSH2 0x100 DUP6 ADD MSTORE PUSH1 0x9 DUP2 ADD SLOAD PUSH2 0x120 DUP6 ADD MSTORE ADD SLOAD SWAP2 ADD MSTORE JUMP JUMPDEST ISZERO PUSH2 0x3857 JUMPI JUMP JUMPDEST PUSH1 0x40 MLOAD PUSH3 0x461BCD PUSH1 0xE5 SHL DUP2 MSTORE PUSH1 0x20 PUSH1 0x4 DUP3 ADD MSTORE PUSH1 0x27 PUSH1 0x24 DUP3 ADD MSTORE PUSH32 0x4F6E6C79207468652074656E616E742063616E20706572666F726D2074686973 PUSH1 0x44 DUP3 ADD MSTORE PUSH7 0x1030B1BA34B7B7 PUSH1 0xC9 SHL PUSH1 0x64 DUP3 ADD MSTORE PUSH1 0x84 SWAP1 REVERT JUMPDEST PUSH1 0x0 SWAP3 SWAP2 DUP2 SLOAD PUSH2 0x38BB DUP2 PUSH2 0x36A9 JUMP JUMPDEST SWAP3 PUSH1 0x1 SWAP2 DUP1 DUP4 AND SWAP1 DUP2 ISZERO PUSH2 0x3915 JUMPI POP PUSH1 0x1 EQ PUSH2 0x38D8 JUMPI JUMPDEST POP POP POP POP JUMP JUMPDEST SWAP1 SWAP2 SWAP3 SWAP4 SWAP5 POP PUSH1 0x0 MSTORE PUSH1 0x20 SWAP1 PUSH1 0x20 PUSH1 0x0 KECCAK256 SWAP1 PUSH1 0x0 SWAP2 JUMPDEST DUP6 DUP4 LT PUSH2 0x3904 JUMPI POP POP POP POP ADD SWAP1 CODESIZE DUP1 DUP1 DUP1 PUSH2 0x38D2 JUMP JUMPDEST DUP1 SLOAD DUP6 DUP5 ADD MSTORE SWAP2 DUP4 ADD SWAP2 DUP2 ADD PUSH2 0x38EE JUMP JUMPDEST PUSH1 0xFF NOT AND DUP5 MSTORE POP POP POP DUP2 ISZERO ISZERO SWAP1 SWAP2 MUL ADD SWAP2 POP CODESIZE DUP1 DUP1 DUP1 PUSH2 0x38D2 JUMP JUMPDEST ISZERO PUSH2 0x3937 JUMPI JUMP JUMPDEST PUSH1 0x40 MLOAD PUSH3 0x461BCD PUSH1 0xE5 SHL DUP2 MSTORE PUSH1 0x20 PUSH1 0x4 DUP3 ADD MSTORE PUSH1 0x12 PUSH1 0x24 DUP3 ADD MSTORE PUSH18 0x125B98DBDC9C9958DD081C185CDCDDDBDC99 PUSH1 0x72 SHL PUSH1 0x44 DUP3 ADD MSTORE PUSH1 0x64 SWAP1 REVERT JUMPDEST DUP2 DUP2 LT PUSH2 0x397C JUMPI POP POP JUMP JUMPDEST PUSH1 0x0 DUP2 SSTORE PUSH1 0x1 ADD PUSH2 0x3971 JUMP JUMPDEST PUSH1 0x40 MLOAD SWAP1 PUSH2 0x3995 DUP3 PUSH2 0x33A0 JUMP JUMPDEST PUSH1 0x60 PUSH1 0x40 DUP4 DUP3 DUP2 MSTORE DUP3 PUSH1 0x20 DUP3 ADD MSTORE ADD MSTORE JUMP JUMPDEST SWAP1 DUP2 SLOAD PUSH2 0x39B3 DUP2 PUSH2 0x3613 JUMP JUMPDEST SWAP3 PUSH2 0x39C1 PUSH1 0x40 MLOAD SWAP5 DUP6 PUSH2 0x33BB JUMP JUMPDEST DUP2 DUP5 MSTORE PUSH1 0x0 SWAP1 DUP2 MSTORE PUSH1 0x20 DUP1 DUP3 KECCAK256 DUP2 DUP7 ADD JUMPDEST DUP5 DUP5 LT PUSH2 0x39E0 JUMPI POP POP POP POP POP JUMP JUMPDEST PUSH1 0x1 DUP4 DUP2 SWAP3 PUSH2 0x39EE DUP6 PUSH2 0x36E3 JUMP JUMPDEST DUP2 MSTORE ADD SWAP3 ADD SWAP4 ADD SWAP3 SWAP1 PUSH2 0x39D2 JUMP JUMPDEST ISZERO PUSH2 0x3A03 JUMPI JUMP JUMPDEST PUSH1 0x40 MLOAD PUSH3 0x461BCD PUSH1 0xE5 SHL DUP2 MSTORE PUSH1 0x20 PUSH1 0x4 DUP3 ADD MSTORE PUSH1 0x25 PUSH1 0x24 DUP3 ADD MSTORE PUSH32 0x4F6E6C79206C616E646C6F72642063616E20706572666F726D20746869732061 PUSH1 0x44 DUP3 ADD MSTORE PUSH5 0x31BA34B7B7 PUSH1 0xD9 SHL PUSH1 0x64 DUP3 ADD MSTORE PUSH1 0x84 SWAP1 REVERT JUMPDEST ISZERO PUSH2 0x3A5D JUMPI JUMP JUMPDEST PUSH1 0x40 MLOAD PUSH3 0x461BCD PUSH1 0xE5 SHL DUP2 MSTORE PUSH1 0x20 PUSH1 0x4 DUP3 ADD MSTORE PUSH1 0x10 PUSH1 0x24 DUP3 ADD MSTORE PUSH16 0x11195C1BDCDA5D081B9BDD081C185A59 PUSH1 0x82 SHL PUSH1 0x44 DUP3 ADD MSTORE PUSH1 0x64 SWAP1 REVERT JUMPDEST ISZERO PUSH2 0x3A9C JUMPI JUMP JUMPDEST PUSH1 0x40 MLOAD PUSH3 0x461BCD PUSH1 0xE5 SHL DUP2 MSTORE PUSH1 0x20 PUSH1 0x4 DUP3 ADD MSTORE PUSH1 0x18 PUSH1 0x24 DUP3 ADD MSTORE PUSH32 0x4465706F73697420616C72656164792072656C65617365640000000000000000 PUSH1 0x44 DUP3 ADD MSTORE PUSH1 0x64 SWAP1 REVERT JUMPDEST ISZERO PUSH2 0x3AE8 JUMPI JUMP JUMPDEST PUSH1 0x40 MLOAD PUSH3 0x461BCD PUSH1 0xE5 SHL DUP2 MSTORE PUSH1 0x20 PUSH1 0x4 DUP3 ADD MSTORE PUSH1 0x13 PUSH1 0x24 DUP3 ADD MSTORE PUSH19 0x436F6E7472616374206E6F7420616374697665 PUSH1 0x68 SHL PUSH1 0x44 DUP3 ADD MSTORE PUSH1 0x64 SWAP1 REVERT JUMPDEST ISZERO PUSH2 0x3B2A JUMPI JUMP JUMPDEST PUSH1 0x40 MLOAD PUSH3 0x461BCD PUSH1 0xE5 SHL DUP2 MSTORE PUSH1 0x20 PUSH1 0x4 DUP3 ADD MSTORE PUSH1 0x28 PUSH1 0x24 DUP3 ADD MSTORE PUSH32 0x52657175657374656420616D6F756E742065786365656473206465706F736974 PUSH1 0x44 DUP3 ADD MSTORE PUSH8 0x2062616C616E6365 PUSH1 0xC0 SHL PUSH1 0x64 DUP3 ADD MSTORE PUSH1 0x84 SWAP1 REVERT INVALID LOG2 PUSH5 0x6970667358 0x22 SLT KECCAK256 0xAB 0x2C DUP9 0xA9 0xD4 0x2C 0xCA DUP14 DUP11 SWAP15 0xE1 0xC8 SWAP13 CODECOPY 0x2F EXTCODESIZE 0xF9 GASPRICE PUSH30 0xEC5574E8791B118AF191C84B5764736F6C63430008180033000000000000 "},"methodIdentifiers":{"approveDepositRelease(bytes6,uint256)":"ca52c3c2","contractOwners(bytes6)":"cc8e3dde","contracts(bytes6)":"9cfa058b","createContract(bytes6,(string,string,string),(string,string,string),(string,string,uint256,uint256,uint256,uint256,string,uint256,uint256,int256,int256),string,string[],string[],string[],string,string,string)":"9aa5543e","endContract(bytes6)":"fa34d5aa","getContract(bytes6,string)":"792855e4","getDepositBalance(bytes6)":"d557e702","refundDeposit(bytes6)":"f437a24d","requestDepositRelease(bytes6,uint256)":"a3104433","signContract(bytes6,string,string,string,string,string)":"157e21f7","updateContract(bytes6,string,string,string[],string[],string[],string,string,address,uint256,uint256)":"f78f38b4"}}}}}