{"contracts/RentalContract.sol":{"RentalContract":{"abi":[{"inputs":[{"internalType":"uint256","name":"","type":"uint256"}],"name":"contracts","outputs":[{"internalType":"string","name":"party","type":"string"},{"internalType":"string","name":"land_address","type":"string"},{"internalType":"uint256","name":"rentFee","type":"uint256"},{"internalType":"uint256","name":"rentDuration","type":"uint256"},{"internalType":"string","name":"terms","type":"string"},{"internalType":"uint256","name":"deposit","type":"uint256"}],"stateMutability":"view","type":"function"},{"inputs":[{"internalType":"string","name":"_party","type":"string"},{"internalType":"string","name":"_address","type":"string"},{"internalType":"uint256","name":"_rentFee","type":"uint256"},{"internalType":"uint256","name":"_rentDuration","type":"uint256"},{"internalType":"string","name":"_terms","type":"string"},{"internalType":"uint256","name":"_deposit","type":"uint256"}],"name":"createContract","outputs":[],"stateMutability":"nonpayable","type":"function"},{"inputs":[{"internalType":"uint256","name":"_index","type":"uint256"}],"name":"getContract","outputs":[{"internalType":"string","name":"","type":"string"},{"internalType":"string","name":"","type":"string"},{"internalType":"uint256","name":"","type":"uint256"},{"internalType":"uint256","name":"","type":"uint256"},{"internalType":"string","name":"","type":"string"},{"internalType":"uint256","name":"","type":"uint256"}],"stateMutability":"view","type":"function"},{"inputs":[],"name":"getTotalContracts","outputs":[{"internalType":"uint256","name":"","type":"uint256"}],"stateMutability":"view","type":"function"}],"evm":{"bytecode":{"linkReferences":{},"object":"6080806040523461001657610830908161001c8239f35b600080fdfe604060808152600436101561001357600080fd5b60003560e01c8063474da79a1461055d578063534860cc1461053e5780636ebc8c86146104ab57638bef35511461004957600080fd5b346104a65760c03660031901126104a65767ffffffffffffffff906004358281116104a65761007c9036906004016107a3565b6024358381116104a6576100949036906004016107a3565b6084358481116104a6576100ac9036906004016107a3565b9083519260c08401848110878211176102e857855283526020830152604435838301526064356060830152608082015260a43560a0820152600054680100000000000000008110156102e85780600161010892016000556105c8565b9290926104905781518051908582116102e85781906101278654610616565b601f811161043d575b50602090601f83116001146103d7576000926103cc575b50508160011b916000199060031b1c19161783555b60208201518051908582116102e857819061017a6001870154610616565b601f8111610376575b50602090601f8311600114610309576000926102fe575b50508160011b916000199060031b1c19161760018401555b8101516002830155606081015160038301556004820160808201519384519081116102e8576101e18254610616565b601f81116102a0575b506020601f821160011461023257908060a094939260059697600092610227575b50508160011b916000199060031b1c19161790555b0151910155005b01519050388061020b565b601f198216958360005260206000209660005b818110610288575096600192849260a09796956005999a1061026f575b505050811b019055610220565b015160001960f88460031b161c19169055388080610262565b83830151895560019098019760209384019301610245565b826000526020600020601f830160051c810191602084106102de575b601f0160051c01905b8181106102d257506101ea565b600081556001016102c5565b90915081906102bc565b634e487b7160e01b600052604160045260246000fd5b01519050388061019a565b600187016000908152602081209350601f198516905b81811061035e5750908460019594939210610345575b505050811b0160018401556101b2565b015160001960f88460031b161c19169055388080610335565b9293602060018192878601518155019501930161031f565b909150600186016000526020600020601f840160051c810191602085106103c2575b90601f859493920160051c01905b8181106103b35750610183565b600081558493506001016103a6565b9091508190610398565b015190503880610147565b6000878152602081209350601f198516905b818110610425575090846001959493921061040c575b505050811b01835561015c565b015160001960f88460031b161c191690553880806103ff565b929360206001819287860151815501950193016103e9565b909150856000526020600020601f840160051c81019160208510610486575b90601f859493920160051c01905b8181106104775750610130565b6000815584935060010161046a565b909150819061045c565b634e487b7160e01b600052600060045260246000fd5b600080fd5b50346104a65760203660031901126104a6576004359061053a6104cd836105c8565b506104d7846105c8565b50928460026104e5826105c8565b50015461052f60046105286001610521600561051861051160036105088b6105c8565b500154996105c8565b509d6105c8565b50015498610672565b9901610672565b9801610672565b925196879687610757565b0390f35b50346104a65760003660031901126104a6576020906000549051908152f35b50346104a65760203660031901126104a6576004356000548110156104a657610585906105c8565b509061053a61059383610672565b916105a060018501610672565b93600281015460038201549060056105ba60048501610672565b930154935196879687610757565b90600091825481101561060257600690838052027f290decd9548b62a8d60345a988386fc84ba6bc95484008f6362f93160ef3e563019190565b634e487b7160e01b83526032600452602483fd5b90600182811c92168015610646575b602083101461063057565b634e487b7160e01b600052602260045260246000fd5b91607f1691610625565b90601f8019910116810190811067ffffffffffffffff8211176102e857604052565b9060405191826000825461068581610616565b908184526020946001916001811690816000146106f557506001146106b6575b5050506106b492500383610650565b565b600090815285812095935091905b8183106106dd5750506106b493508201013880806106a5565b855488840185015294850194879450918301916106c4565b925050506106b494925060ff191682840152151560051b8201013880806106a5565b919082519283825260005b848110610743575050826000602080949584010152601f8019910116010190565b602081830181015184830182015201610722565b969594909361078661079e949361077860a09760c08c5260c08c0190610717565b908a820360208c0152610717565b92604089015260608801528682036080880152610717565b930152565b81601f820112156104a65780359067ffffffffffffffff82116102e857604051926107d8601f8401601f191660200185610650565b828452602083830101116104a65781600092602080930183860137830101529056fea2646970667358221220151a946dc48bb5747bc313835a1ddf569b26d6974c12db9f92c21b5e9ecf974164736f6c63430008180033","opcodes":"PUSH1 0x80 DUP1 PUSH1 0x40 MSTORE CALLVALUE PUSH2 0x16 JUMPI PUSH2 0x830 SWAP1 DUP2 PUSH2 0x1C DUP3 CODECOPY RETURN JUMPDEST PUSH1 0x0 DUP1 REVERT INVALID PUSH1 0x40 PUSH1 0x80 DUP2 MSTORE PUSH1 0x4 CALLDATASIZE LT ISZERO PUSH2 0x13 JUMPI PUSH1 0x0 DUP1 REVERT JUMPDEST PUSH1 0x0 CALLDATALOAD PUSH1 0xE0 SHR DUP1 PUSH4 0x474DA79A EQ PUSH2 0x55D JUMPI DUP1 PUSH4 0x534860CC EQ PUSH2 0x53E JUMPI DUP1 PUSH4 0x6EBC8C86 EQ PUSH2 0x4AB JUMPI PUSH4 0x8BEF3551 EQ PUSH2 0x49 JUMPI PUSH1 0x0 DUP1 REVERT JUMPDEST CALLVALUE PUSH2 0x4A6 JUMPI PUSH1 0xC0 CALLDATASIZE PUSH1 0x3 NOT ADD SLT PUSH2 0x4A6 JUMPI PUSH8 0xFFFFFFFFFFFFFFFF SWAP1 PUSH1 0x4 CALLDATALOAD DUP3 DUP2 GT PUSH2 0x4A6 JUMPI PUSH2 0x7C SWAP1 CALLDATASIZE SWAP1 PUSH1 0x4 ADD PUSH2 0x7A3 JUMP JUMPDEST PUSH1 0x24 CALLDATALOAD DUP4 DUP2 GT PUSH2 0x4A6 JUMPI PUSH2 0x94 SWAP1 CALLDATASIZE SWAP1 PUSH1 0x4 ADD PUSH2 0x7A3 JUMP JUMPDEST PUSH1 0x84 CALLDATALOAD DUP5 DUP2 GT PUSH2 0x4A6 JUMPI PUSH2 0xAC SWAP1 CALLDATASIZE SWAP1 PUSH1 0x4 ADD PUSH2 0x7A3 JUMP JUMPDEST SWAP1 DUP4 MLOAD SWAP3 PUSH1 0xC0 DUP5 ADD DUP5 DUP2 LT DUP8 DUP3 GT OR PUSH2 0x2E8 JUMPI DUP6 MSTORE DUP4 MSTORE PUSH1 0x20 DUP4 ADD MSTORE PUSH1 0x44 CALLDATALOAD DUP4 DUP4 ADD MSTORE PUSH1 0x64 CALLDATALOAD PUSH1 0x60 DUP4 ADD MSTORE PUSH1 0x80 DUP3 ADD MSTORE PUSH1 0xA4 CALLDATALOAD PUSH1 0xA0 DUP3 ADD MSTORE PUSH1 0x0 SLOAD PUSH9 0x10000000000000000 DUP2 LT ISZERO PUSH2 0x2E8 JUMPI DUP1 PUSH1 0x1 PUSH2 0x108 SWAP3 ADD PUSH1 0x0 SSTORE PUSH2 0x5C8 JUMP JUMPDEST SWAP3 SWAP1 SWAP3 PUSH2 0x490 JUMPI DUP2 MLOAD DUP1 MLOAD SWAP1 DUP6 DUP3 GT PUSH2 0x2E8 JUMPI DUP2 SWAP1 PUSH2 0x127 DUP7 SLOAD PUSH2 0x616 JUMP JUMPDEST PUSH1 0x1F DUP2 GT PUSH2 0x43D JUMPI JUMPDEST POP PUSH1 0x20 SWAP1 PUSH1 0x1F DUP4 GT PUSH1 0x1 EQ PUSH2 0x3D7 JUMPI PUSH1 0x0 SWAP3 PUSH2 0x3CC JUMPI JUMPDEST POP POP DUP2 PUSH1 0x1 SHL SWAP2 PUSH1 0x0 NOT SWAP1 PUSH1 0x3 SHL SHR NOT AND OR DUP4 SSTORE JUMPDEST PUSH1 0x20 DUP3 ADD MLOAD DUP1 MLOAD SWAP1 DUP6 DUP3 GT PUSH2 0x2E8 JUMPI DUP2 SWAP1 PUSH2 0x17A PUSH1 0x1 DUP8 ADD SLOAD PUSH2 0x616 JUMP JUMPDEST PUSH1 0x1F DUP2 GT PUSH2 0x376 JUMPI JUMPDEST POP PUSH1 0x20 SWAP1 PUSH1 0x1F DUP4 GT PUSH1 0x1 EQ PUSH2 0x309 JUMPI PUSH1 0x0 SWAP3 PUSH2 0x2FE JUMPI JUMPDEST POP POP DUP2 PUSH1 0x1 SHL SWAP2 PUSH1 0x0 NOT SWAP1 PUSH1 0x3 SHL SHR NOT AND OR PUSH1 0x1 DUP5 ADD SSTORE JUMPDEST DUP2 ADD MLOAD PUSH1 0x2 DUP4 ADD SSTORE PUSH1 0x60 DUP2 ADD MLOAD PUSH1 0x3 DUP4 ADD SSTORE PUSH1 0x4 DUP3 ADD PUSH1 0x80 DUP3 ADD MLOAD SWAP4 DUP5 MLOAD SWAP1 DUP2 GT PUSH2 0x2E8 JUMPI PUSH2 0x1E1 DUP3 SLOAD PUSH2 0x616 JUMP JUMPDEST PUSH1 0x1F DUP2 GT PUSH2 0x2A0 JUMPI JUMPDEST POP PUSH1 0x20 PUSH1 0x1F DUP3 GT PUSH1 0x1 EQ PUSH2 0x232 JUMPI SWAP1 DUP1 PUSH1 0xA0 SWAP5 SWAP4 SWAP3 PUSH1 0x5 SWAP7 SWAP8 PUSH1 0x0 SWAP3 PUSH2 0x227 JUMPI JUMPDEST POP POP DUP2 PUSH1 0x1 SHL SWAP2 PUSH1 0x0 NOT SWAP1 PUSH1 0x3 SHL SHR NOT AND OR SWAP1 SSTORE JUMPDEST ADD MLOAD SWAP2 ADD SSTORE STOP JUMPDEST ADD MLOAD SWAP1 POP CODESIZE DUP1 PUSH2 0x20B JUMP JUMPDEST PUSH1 0x1F NOT DUP3 AND SWAP6 DUP4 PUSH1 0x0 MSTORE PUSH1 0x20 PUSH1 0x0 KECCAK256 SWAP7 PUSH1 0x0 JUMPDEST DUP2 DUP2 LT PUSH2 0x288 JUMPI POP SWAP7 PUSH1 0x1 SWAP3 DUP5 SWAP3 PUSH1 0xA0 SWAP8 SWAP7 SWAP6 PUSH1 0x5 SWAP10 SWAP11 LT PUSH2 0x26F JUMPI JUMPDEST POP POP POP DUP2 SHL ADD SWAP1 SSTORE PUSH2 0x220 JUMP JUMPDEST ADD MLOAD PUSH1 0x0 NOT PUSH1 0xF8 DUP5 PUSH1 0x3 SHL AND SHR NOT AND SWAP1 SSTORE CODESIZE DUP1 DUP1 PUSH2 0x262 JUMP JUMPDEST DUP4 DUP4 ADD MLOAD DUP10 SSTORE PUSH1 0x1 SWAP1 SWAP9 ADD SWAP8 PUSH1 0x20 SWAP4 DUP5 ADD SWAP4 ADD PUSH2 0x245 JUMP JUMPDEST DUP3 PUSH1 0x0 MSTORE PUSH1 0x20 PUSH1 0x0 KECCAK256 PUSH1 0x1F DUP4 ADD PUSH1 0x5 SHR DUP2 ADD SWAP2 PUSH1 0x20 DUP5 LT PUSH2 0x2DE JUMPI JUMPDEST PUSH1 0x1F ADD PUSH1 0x5 SHR ADD SWAP1 JUMPDEST DUP2 DUP2 LT PUSH2 0x2D2 JUMPI POP PUSH2 0x1EA JUMP JUMPDEST PUSH1 0x0 DUP2 SSTORE PUSH1 0x1 ADD PUSH2 0x2C5 JUMP JUMPDEST SWAP1 SWAP2 POP DUP2 SWAP1 PUSH2 0x2BC JUMP JUMPDEST PUSH4 0x4E487B71 PUSH1 0xE0 SHL PUSH1 0x0 MSTORE PUSH1 0x41 PUSH1 0x4 MSTORE PUSH1 0x24 PUSH1 0x0 REVERT JUMPDEST ADD MLOAD SWAP1 POP CODESIZE DUP1 PUSH2 0x19A JUMP JUMPDEST PUSH1 0x1 DUP8 ADD PUSH1 0x0 SWAP1 DUP2 MSTORE PUSH1 0x20 DUP2 KECCAK256 SWAP4 POP PUSH1 0x1F NOT DUP6 AND SWAP1 JUMPDEST DUP2 DUP2 LT PUSH2 0x35E JUMPI POP SWAP1 DUP5 PUSH1 0x1 SWAP6 SWAP5 SWAP4 SWAP3 LT PUSH2 0x345 JUMPI JUMPDEST POP POP POP DUP2 SHL ADD PUSH1 0x1 DUP5 ADD SSTORE PUSH2 0x1B2 JUMP JUMPDEST ADD MLOAD PUSH1 0x0 NOT PUSH1 0xF8 DUP5 PUSH1 0x3 SHL AND SHR NOT AND SWAP1 SSTORE CODESIZE DUP1 DUP1 PUSH2 0x335 JUMP JUMPDEST SWAP3 SWAP4 PUSH1 0x20 PUSH1 0x1 DUP2 SWAP3 DUP8 DUP7 ADD MLOAD DUP2 SSTORE ADD SWAP6 ADD SWAP4 ADD PUSH2 0x31F JUMP JUMPDEST SWAP1 SWAP2 POP PUSH1 0x1 DUP7 ADD PUSH1 0x0 MSTORE PUSH1 0x20 PUSH1 0x0 KECCAK256 PUSH1 0x1F DUP5 ADD PUSH1 0x5 SHR DUP2 ADD SWAP2 PUSH1 0x20 DUP6 LT PUSH2 0x3C2 JUMPI JUMPDEST SWAP1 PUSH1 0x1F DUP6 SWAP5 SWAP4 SWAP3 ADD PUSH1 0x5 SHR ADD SWAP1 JUMPDEST DUP2 DUP2 LT PUSH2 0x3B3 JUMPI POP PUSH2 0x183 JUMP JUMPDEST PUSH1 0x0 DUP2 SSTORE DUP5 SWAP4 POP PUSH1 0x1 ADD PUSH2 0x3A6 JUMP JUMPDEST SWAP1 SWAP2 POP DUP2 SWAP1 PUSH2 0x398 JUMP JUMPDEST ADD MLOAD SWAP1 POP CODESIZE DUP1 PUSH2 0x147 JUMP JUMPDEST PUSH1 0x0 DUP8 DUP2 MSTORE PUSH1 0x20 DUP2 KECCAK256 SWAP4 POP PUSH1 0x1F NOT DUP6 AND SWAP1 JUMPDEST DUP2 DUP2 LT PUSH2 0x425 JUMPI POP SWAP1 DUP5 PUSH1 0x1 SWAP6 SWAP5 SWAP4 SWAP3 LT PUSH2 0x40C JUMPI JUMPDEST POP POP POP DUP2 SHL ADD DUP4 SSTORE PUSH2 0x15C JUMP JUMPDEST ADD MLOAD PUSH1 0x0 NOT PUSH1 0xF8 DUP5 PUSH1 0x3 SHL AND SHR NOT AND SWAP1 SSTORE CODESIZE DUP1 DUP1 PUSH2 0x3FF JUMP JUMPDEST SWAP3 SWAP4 PUSH1 0x20 PUSH1 0x1 DUP2 SWAP3 DUP8 DUP7 ADD MLOAD DUP2 SSTORE ADD SWAP6 ADD SWAP4 ADD PUSH2 0x3E9 JUMP JUMPDEST SWAP1 SWAP2 POP DUP6 PUSH1 0x0 MSTORE PUSH1 0x20 PUSH1 0x0 KECCAK256 PUSH1 0x1F DUP5 ADD PUSH1 0x5 SHR DUP2 ADD SWAP2 PUSH1 0x20 DUP6 LT PUSH2 0x486 JUMPI JUMPDEST SWAP1 PUSH1 0x1F DUP6 SWAP5 SWAP4 SWAP3 ADD PUSH1 0x5 SHR ADD SWAP1 JUMPDEST DUP2 DUP2 LT PUSH2 0x477 JUMPI POP PUSH2 0x130 JUMP JUMPDEST PUSH1 0x0 DUP2 SSTORE DUP5 SWAP4 POP PUSH1 0x1 ADD PUSH2 0x46A JUMP JUMPDEST SWAP1 SWAP2 POP DUP2 SWAP1 PUSH2 0x45C JUMP JUMPDEST PUSH4 0x4E487B71 PUSH1 0xE0 SHL PUSH1 0x0 MSTORE PUSH1 0x0 PUSH1 0x4 MSTORE PUSH1 0x24 PUSH1 0x0 REVERT JUMPDEST PUSH1 0x0 DUP1 REVERT JUMPDEST POP CALLVALUE PUSH2 0x4A6 JUMPI PUSH1 0x20 CALLDATASIZE PUSH1 0x3 NOT ADD SLT PUSH2 0x4A6 JUMPI PUSH1 0x4 CALLDATALOAD SWAP1 PUSH2 0x53A PUSH2 0x4CD DUP4 PUSH2 0x5C8 JUMP JUMPDEST POP PUSH2 0x4D7 DUP5 PUSH2 0x5C8 JUMP JUMPDEST POP SWAP3 DUP5 PUSH1 0x2 PUSH2 0x4E5 DUP3 PUSH2 0x5C8 JUMP JUMPDEST POP ADD SLOAD PUSH2 0x52F PUSH1 0x4 PUSH2 0x528 PUSH1 0x1 PUSH2 0x521 PUSH1 0x5 PUSH2 0x518 PUSH2 0x511 PUSH1 0x3 PUSH2 0x508 DUP12 PUSH2 0x5C8 JUMP JUMPDEST POP ADD SLOAD SWAP10 PUSH2 0x5C8 JUMP JUMPDEST POP SWAP14 PUSH2 0x5C8 JUMP JUMPDEST POP ADD SLOAD SWAP9 PUSH2 0x672 JUMP JUMPDEST SWAP10 ADD PUSH2 0x672 JUMP JUMPDEST SWAP9 ADD PUSH2 0x672 JUMP JUMPDEST SWAP3 MLOAD SWAP7 DUP8 SWAP7 DUP8 PUSH2 0x757 JUMP JUMPDEST SUB SWAP1 RETURN JUMPDEST POP CALLVALUE PUSH2 0x4A6 JUMPI PUSH1 0x0 CALLDATASIZE PUSH1 0x3 NOT ADD SLT PUSH2 0x4A6 JUMPI PUSH1 0x20 SWAP1 PUSH1 0x0 SLOAD SWAP1 MLOAD SWAP1 DUP2 MSTORE RETURN JUMPDEST POP CALLVALUE PUSH2 0x4A6 JUMPI PUSH1 0x20 CALLDATASIZE PUSH1 0x3 NOT ADD SLT PUSH2 0x4A6 JUMPI PUSH1 0x4 CALLDATALOAD PUSH1 0x0 SLOAD DUP2 LT ISZERO PUSH2 0x4A6 JUMPI PUSH2 0x585 SWAP1 PUSH2 0x5C8 JUMP JUMPDEST POP SWAP1 PUSH2 0x53A PUSH2 0x593 DUP4 PUSH2 0x672 JUMP JUMPDEST SWAP2 PUSH2 0x5A0 PUSH1 0x1 DUP6 ADD PUSH2 0x672 JUMP JUMPDEST SWAP4 PUSH1 0x2 DUP2 ADD SLOAD PUSH1 0x3 DUP3 ADD SLOAD SWAP1 PUSH1 0x5 PUSH2 0x5BA PUSH1 0x4 DUP6 ADD PUSH2 0x672 JUMP JUMPDEST SWAP4 ADD SLOAD SWAP4 MLOAD SWAP7 DUP8 SWAP7 DUP8 PUSH2 0x757 JUMP JUMPDEST SWAP1 PUSH1 0x0 SWAP2 DUP3 SLOAD DUP2 LT ISZERO PUSH2 0x602 JUMPI PUSH1 0x6 SWAP1 DUP4 DUP1 MSTORE MUL PUSH32 0x290DECD9548B62A8D60345A988386FC84BA6BC95484008F6362F93160EF3E563 ADD SWAP2 SWAP1 JUMP JUMPDEST PUSH4 0x4E487B71 PUSH1 0xE0 SHL DUP4 MSTORE PUSH1 0x32 PUSH1 0x4 MSTORE PUSH1 0x24 DUP4 REVERT JUMPDEST SWAP1 PUSH1 0x1 DUP3 DUP2 SHR SWAP3 AND DUP1 ISZERO PUSH2 0x646 JUMPI JUMPDEST PUSH1 0x20 DUP4 LT EQ PUSH2 0x630 JUMPI JUMP JUMPDEST PUSH4 0x4E487B71 PUSH1 0xE0 SHL PUSH1 0x0 MSTORE PUSH1 0x22 PUSH1 0x4 MSTORE PUSH1 0x24 PUSH1 0x0 REVERT JUMPDEST SWAP2 PUSH1 0x7F AND SWAP2 PUSH2 0x625 JUMP JUMPDEST SWAP1 PUSH1 0x1F DUP1 NOT SWAP2 ADD AND DUP2 ADD SWAP1 DUP2 LT PUSH8 0xFFFFFFFFFFFFFFFF DUP3 GT OR PUSH2 0x2E8 JUMPI PUSH1 0x40 MSTORE JUMP JUMPDEST SWAP1 PUSH1 0x40 MLOAD SWAP2 DUP3 PUSH1 0x0 DUP3 SLOAD PUSH2 0x685 DUP2 PUSH2 0x616 JUMP JUMPDEST SWAP1 DUP2 DUP5 MSTORE PUSH1 0x20 SWAP5 PUSH1 0x1 SWAP2 PUSH1 0x1 DUP2 AND SWAP1 DUP2 PUSH1 0x0 EQ PUSH2 0x6F5 JUMPI POP PUSH1 0x1 EQ PUSH2 0x6B6 JUMPI JUMPDEST POP POP POP PUSH2 0x6B4 SWAP3 POP SUB DUP4 PUSH2 0x650 JUMP JUMPDEST JUMP JUMPDEST PUSH1 0x0 SWAP1 DUP2 MSTORE DUP6 DUP2 KECCAK256 SWAP6 SWAP4 POP SWAP2 SWAP1 JUMPDEST DUP2 DUP4 LT PUSH2 0x6DD JUMPI POP POP PUSH2 0x6B4 SWAP4 POP DUP3 ADD ADD CODESIZE DUP1 DUP1 PUSH2 0x6A5 JUMP JUMPDEST DUP6 SLOAD DUP9 DUP5 ADD DUP6 ADD MSTORE SWAP5 DUP6 ADD SWAP5 DUP8 SWAP5 POP SWAP2 DUP4 ADD SWAP2 PUSH2 0x6C4 JUMP JUMPDEST SWAP3 POP POP POP PUSH2 0x6B4 SWAP5 SWAP3 POP PUSH1 0xFF NOT AND DUP3 DUP5 ADD MSTORE ISZERO ISZERO PUSH1 0x5 SHL DUP3 ADD ADD CODESIZE DUP1 DUP1 PUSH2 0x6A5 JUMP JUMPDEST SWAP2 SWAP1 DUP3 MLOAD SWAP3 DUP4 DUP3 MSTORE PUSH1 0x0 JUMPDEST DUP5 DUP2 LT PUSH2 0x743 JUMPI POP POP DUP3 PUSH1 0x0 PUSH1 0x20 DUP1 SWAP5 SWAP6 DUP5 ADD ADD MSTORE PUSH1 0x1F DUP1 NOT SWAP2 ADD AND ADD ADD SWAP1 JUMP JUMPDEST PUSH1 0x20 DUP2 DUP4 ADD DUP2 ADD MLOAD DUP5 DUP4 ADD DUP3 ADD MSTORE ADD PUSH2 0x722 JUMP JUMPDEST SWAP7 SWAP6 SWAP5 SWAP1 SWAP4 PUSH2 0x786 PUSH2 0x79E SWAP5 SWAP4 PUSH2 0x778 PUSH1 0xA0 SWAP8 PUSH1 0xC0 DUP13 MSTORE PUSH1 0xC0 DUP13 ADD SWAP1 PUSH2 0x717 JUMP JUMPDEST SWAP1 DUP11 DUP3 SUB PUSH1 0x20 DUP13 ADD MSTORE PUSH2 0x717 JUMP JUMPDEST SWAP3 PUSH1 0x40 DUP10 ADD MSTORE PUSH1 0x60 DUP9 ADD MSTORE DUP7 DUP3 SUB PUSH1 0x80 DUP9 ADD MSTORE PUSH2 0x717 JUMP JUMPDEST SWAP4 ADD MSTORE JUMP JUMPDEST DUP2 PUSH1 0x1F DUP3 ADD SLT ISZERO PUSH2 0x4A6 JUMPI DUP1 CALLDATALOAD SWAP1 PUSH8 0xFFFFFFFFFFFFFFFF DUP3 GT PUSH2 0x2E8 JUMPI PUSH1 0x40 MLOAD SWAP3 PUSH2 0x7D8 PUSH1 0x1F DUP5 ADD PUSH1 0x1F NOT AND PUSH1 0x20 ADD DUP6 PUSH2 0x650 JUMP JUMPDEST DUP3 DUP5 MSTORE PUSH1 0x20 DUP4 DUP4 ADD ADD GT PUSH2 0x4A6 JUMPI DUP2 PUSH1 0x0 SWAP3 PUSH1 0x20 DUP1 SWAP4 ADD DUP4 DUP7 ADD CALLDATACOPY DUP4 ADD ADD MSTORE SWAP1 JUMP INVALID LOG2 PUSH5 0x6970667358 0x22 SLT KECCAK256 ISZERO BYTE SWAP5 PUSH14 0xC48BB5747BC313835A1DDF569B26 0xD6 SWAP8 0x4C SLT 0xDB SWAP16 SWAP3 0xC2 SHL MCOPY SWAP15 0xCF SWAP8 COINBASE PUSH5 0x736F6C6343 STOP ADDMOD XOR STOP CALLER "},"methodIdentifiers":{"contracts(uint256)":"474da79a","createContract(string,string,uint256,uint256,string,uint256)":"8bef3551","getContract(uint256)":"6ebc8c86","getTotalContracts()":"534860cc"}}}}}