{
  "_format": "hh-sol-artifact-1",
  "contractName": "HouseRentalContract",
  "sourceName": "contracts/UpdatedRentalContract.sol",
  "abi": [
    {
      "inputs": [
        {
          "internalType": "bytes6",
          "name": "",
          "type": "bytes6"
        }
      ],
      "name": "contractOwners",
      "outputs": [
        {
          "internalType": "address",
          "name": "",
          "type": "address"
        }
      ],
      "stateMutability": "view",
      "type": "function"
    },
    {
      "inputs": [
        {
          "internalType": "bytes6",
          "name": "",
          "type": "bytes6"
        }
      ],
      "name": "contracts",
      "outputs": [
        {
          "internalType": "uint256",
          "name": "creationDate",
          "type": "uint256"
        },
        {
          "components": [
            {
              "internalType": "string",
              "name": "name",
              "type": "string"
            },
            {
              "internalType": "string",
              "name": "identificationNumber",
              "type": "string"
            },
            {
              "internalType": "string",
              "name": "house_address",
              "type": "string"
            }
          ],
          "internalType": "struct HouseRentalContract.PersonalInfo",
          "name": "landlord",
          "type": "tuple"
        },
        {
          "components": [
            {
              "internalType": "string",
              "name": "name",
              "type": "string"
            },
            {
              "internalType": "string",
              "name": "identificationNumber",
              "type": "string"
            },
            {
              "internalType": "string",
              "name": "house_address",
              "type": "string"
            }
          ],
          "internalType": "struct HouseRentalContract.PersonalInfo",
          "name": "tenant",
          "type": "tuple"
        },
        {
          "components": [
            {
              "internalType": "string",
              "name": "rent_address",
              "type": "string"
            },
            {
              "internalType": "string",
              "name": "buildingType",
              "type": "string"
            },
            {
              "internalType": "uint256",
              "name": "rentPeriod",
              "type": "uint256"
            },
            {
              "internalType": "uint256",
              "name": "effectiveDate",
              "type": "uint256"
            },
            {
              "internalType": "uint256",
              "name": "monthlyRent",
              "type": "uint256"
            },
            {
              "internalType": "string",
              "name": "paymentMethod",
              "type": "string"
            },
            {
              "internalType": "uint256",
              "name": "maxOverduePeriod",
              "type": "uint256"
            },
            {
              "internalType": "uint256",
              "name": "deposit",
              "type": "uint256"
            },
            {
              "internalType": "uint256",
              "name": "utilityDeposit",
              "type": "uint256"
            },
            {
              "internalType": "uint256",
              "name": "advanceRental",
              "type": "uint256"
            }
          ],
          "internalType": "struct HouseRentalContract.HouseDetails",
          "name": "houseDetails",
          "type": "tuple"
        },
        {
          "internalType": "string",
          "name": "agreementDetails",
          "type": "string"
        },
        {
          "internalType": "string",
          "name": "landlordSignature",
          "type": "string"
        },
        {
          "internalType": "string",
          "name": "tenantSignature",
          "type": "string"
        }
      ],
      "stateMutability": "view",
      "type": "function"
    },
    {
      "inputs": [
        {
          "internalType": "bytes6",
          "name": "_uniqueIdentifier",
          "type": "bytes6"
        },
        {
          "components": [
            {
              "internalType": "string",
              "name": "name",
              "type": "string"
            },
            {
              "internalType": "string",
              "name": "identificationNumber",
              "type": "string"
            },
            {
              "internalType": "string",
              "name": "house_address",
              "type": "string"
            }
          ],
          "internalType": "struct HouseRentalContract.PersonalInfo",
          "name": "_landlord",
          "type": "tuple"
        },
        {
          "components": [
            {
              "internalType": "string",
              "name": "name",
              "type": "string"
            },
            {
              "internalType": "string",
              "name": "identificationNumber",
              "type": "string"
            },
            {
              "internalType": "string",
              "name": "house_address",
              "type": "string"
            }
          ],
          "internalType": "struct HouseRentalContract.PersonalInfo",
          "name": "_tenant",
          "type": "tuple"
        },
        {
          "components": [
            {
              "internalType": "string",
              "name": "rent_address",
              "type": "string"
            },
            {
              "internalType": "string",
              "name": "buildingType",
              "type": "string"
            },
            {
              "internalType": "uint256",
              "name": "rentPeriod",
              "type": "uint256"
            },
            {
              "internalType": "uint256",
              "name": "effectiveDate",
              "type": "uint256"
            },
            {
              "internalType": "uint256",
              "name": "monthlyRent",
              "type": "uint256"
            },
            {
              "internalType": "string",
              "name": "paymentMethod",
              "type": "string"
            },
            {
              "internalType": "uint256",
              "name": "maxOverduePeriod",
              "type": "uint256"
            },
            {
              "internalType": "uint256",
              "name": "deposit",
              "type": "uint256"
            },
            {
              "internalType": "uint256",
              "name": "utilityDeposit",
              "type": "uint256"
            },
            {
              "internalType": "uint256",
              "name": "advanceRental",
              "type": "uint256"
            }
          ],
          "internalType": "struct HouseRentalContract.HouseDetails",
          "name": "_houseDetails",
          "type": "tuple"
        },
        {
          "internalType": "string",
          "name": "_agreementDetails",
          "type": "string"
        },
        {
          "internalType": "string[]",
          "name": "_tenantAgreements",
          "type": "string[]"
        },
        {
          "internalType": "string[]",
          "name": "_landlordResponsibilities",
          "type": "string[]"
        },
        {
          "internalType": "string[]",
          "name": "_agreementsBetweenLandlord",
          "type": "string[]"
        },
        {
          "internalType": "string",
          "name": "_landlordSignature",
          "type": "string"
        },
        {
          "internalType": "string",
          "name": "_tenantSignature",
          "type": "string"
        }
      ],
      "name": "createContract",
      "outputs": [],
      "stateMutability": "nonpayable",
      "type": "function"
    },
    {
      "inputs": [
        {
          "internalType": "bytes6",
          "name": "contractId",
          "type": "bytes6"
        }
      ],
      "name": "getContract",
      "outputs": [
        {
          "components": [
            {
              "internalType": "uint256",
              "name": "creationDate",
              "type": "uint256"
            },
            {
              "components": [
                {
                  "internalType": "string",
                  "name": "name",
                  "type": "string"
                },
                {
                  "internalType": "string",
                  "name": "identificationNumber",
                  "type": "string"
                },
                {
                  "internalType": "string",
                  "name": "house_address",
                  "type": "string"
                }
              ],
              "internalType": "struct HouseRentalContract.PersonalInfo",
              "name": "landlord",
              "type": "tuple"
            },
            {
              "components": [
                {
                  "internalType": "string",
                  "name": "name",
                  "type": "string"
                },
                {
                  "internalType": "string",
                  "name": "identificationNumber",
                  "type": "string"
                },
                {
                  "internalType": "string",
                  "name": "house_address",
                  "type": "string"
                }
              ],
              "internalType": "struct HouseRentalContract.PersonalInfo",
              "name": "tenant",
              "type": "tuple"
            },
            {
              "components": [
                {
                  "internalType": "string",
                  "name": "rent_address",
                  "type": "string"
                },
                {
                  "internalType": "string",
                  "name": "buildingType",
                  "type": "string"
                },
                {
                  "internalType": "uint256",
                  "name": "rentPeriod",
                  "type": "uint256"
                },
                {
                  "internalType": "uint256",
                  "name": "effectiveDate",
                  "type": "uint256"
                },
                {
                  "internalType": "uint256",
                  "name": "monthlyRent",
                  "type": "uint256"
                },
                {
                  "internalType": "string",
                  "name": "paymentMethod",
                  "type": "string"
                },
                {
                  "internalType": "uint256",
                  "name": "maxOverduePeriod",
                  "type": "uint256"
                },
                {
                  "internalType": "uint256",
                  "name": "deposit",
                  "type": "uint256"
                },
                {
                  "internalType": "uint256",
                  "name": "utilityDeposit",
                  "type": "uint256"
                },
                {
                  "internalType": "uint256",
                  "name": "advanceRental",
                  "type": "uint256"
                }
              ],
              "internalType": "struct HouseRentalContract.HouseDetails",
              "name": "houseDetails",
              "type": "tuple"
            },
            {
              "internalType": "string",
              "name": "agreementDetails",
              "type": "string"
            },
            {
              "internalType": "string[]",
              "name": "tenantAgreements",
              "type": "string[]"
            },
            {
              "internalType": "string[]",
              "name": "landlordResponsibilities",
              "type": "string[]"
            },
            {
              "internalType": "string[]",
              "name": "agreementsBetweenLandlord",
              "type": "string[]"
            },
            {
              "internalType": "string",
              "name": "landlordSignature",
              "type": "string"
            },
            {
              "internalType": "string",
              "name": "tenantSignature",
              "type": "string"
            }
          ],
          "internalType": "struct HouseRentalContract.ContractTerms",
          "name": "",
          "type": "tuple"
        }
      ],
      "stateMutability": "view",
      "type": "function"
    },
    {
      "inputs": [
        {
          "internalType": "bytes6",
          "name": "contractId",
          "type": "bytes6"
        },
        {
          "internalType": "string",
          "name": "_tenantSignature",
          "type": "string"
        }
      ],
      "name": "signContract",
      "outputs": [],
      "stateMutability": "nonpayable",
      "type": "function"
    },
    {
      "inputs": [
        {
          "internalType": "bytes6",
          "name": "contractId",
          "type": "bytes6"
        },
        {
          "internalType": "string",
          "name": "_agreementDetails",
          "type": "string"
        },
        {
          "internalType": "string[]",
          "name": "_tenantAgreements",
          "type": "string[]"
        },
        {
          "internalType": "string[]",
          "name": "_landlordResponsibilities",
          "type": "string[]"
        },
        {
          "internalType": "string[]",
          "name": "_agreementsBetweenLandlord",
          "type": "string[]"
        },
        {
          "internalType": "string",
          "name": "_landlordSignature",
          "type": "string"
        },
        {
          "internalType": "string",
          "name": "_tenantSignature",
          "type": "string"
        }
      ],
      "name": "updateContract",
      "outputs": [],
      "stateMutability": "nonpayable",
      "type": "function"
    }
  ],
  "bytecode": "0x608060405234801561001057600080fd5b50613063806100206000396000f3fe608060405234801561001057600080fd5b50600436106100625760003560e01c80633d4cc42c14610067578063500782e5146100975780639cfa058b146100b3578063cc8e3dde146100e9578063dd729ece14610119578063e6355b6d14610135575b600080fd5b610081600480360381019061007c9190611c2a565b610151565b60405161008e919061201a565b60405180910390f35b6100b160048036038101906100ac919061248f565b610ba8565b005b6100cd60048036038101906100c89190611c2a565b610f8b565b6040516100e09796959493929190612809565b60405180910390f35b61010360048036038101906100fe9190611c2a565b6116ec565b60405161011091906128e3565b60405180910390f35b610133600480360381019061012e91906128fe565b61171f565b005b61014f600480360381019061014a9190612a48565b6118d7565b005b610159611a0b565b6000808379ffffffffffffffffffffffffffffffffffffffffffffffffffff191679ffffffffffffffffffffffffffffffffffffffffffffffffffff191681526020019081526020016000206040518061014001604052908160008201548152602001600182016040518060600160405290816000820180546101db90612ad3565b80601f016020809104026020016040519081016040528092919081815260200182805461020790612ad3565b80156102545780601f1061022957610100808354040283529160200191610254565b820191906000526020600020905b81548152906001019060200180831161023757829003601f168201915b5050505050815260200160018201805461026d90612ad3565b80601f016020809104026020016040519081016040528092919081815260200182805461029990612ad3565b80156102e65780601f106102bb576101008083540402835291602001916102e6565b820191906000526020600020905b8154815290600101906020018083116102c957829003601f168201915b505050505081526020016002820180546102ff90612ad3565b80601f016020809104026020016040519081016040528092919081815260200182805461032b90612ad3565b80156103785780601f1061034d57610100808354040283529160200191610378565b820191906000526020600020905b81548152906001019060200180831161035b57829003601f168201915b5050505050815250508152602001600482016040518060600160405290816000820180546103a590612ad3565b80601f01602080910402602001604051908101604052809291908181526020018280546103d190612ad3565b801561041e5780601f106103f35761010080835404028352916020019161041e565b820191906000526020600020905b81548152906001019060200180831161040157829003601f168201915b5050505050815260200160018201805461043790612ad3565b80601f016020809104026020016040519081016040528092919081815260200182805461046390612ad3565b80156104b05780601f10610485576101008083540402835291602001916104b0565b820191906000526020600020905b81548152906001019060200180831161049357829003601f168201915b505050505081526020016002820180546104c990612ad3565b80601f01602080910402602001604051908101604052809291908181526020018280546104f590612ad3565b80156105425780601f1061051757610100808354040283529160200191610542565b820191906000526020600020905b81548152906001019060200180831161052557829003601f168201915b5050505050815250508152602001600782016040518061014001604052908160008201805461057090612ad3565b80601f016020809104026020016040519081016040528092919081815260200182805461059c90612ad3565b80156105e95780601f106105be576101008083540402835291602001916105e9565b820191906000526020600020905b8154815290600101906020018083116105cc57829003601f168201915b5050505050815260200160018201805461060290612ad3565b80601f016020809104026020016040519081016040528092919081815260200182805461062e90612ad3565b801561067b5780601f106106505761010080835404028352916020019161067b565b820191906000526020600020905b81548152906001019060200180831161065e57829003601f168201915b505050505081526020016002820154815260200160038201548152602001600482015481526020016005820180546106b290612ad3565b80601f01602080910402602001604051908101604052809291908181526020018280546106de90612ad3565b801561072b5780601f106107005761010080835404028352916020019161072b565b820191906000526020600020905b81548152906001019060200180831161070e57829003601f168201915b50505050508152602001600682015481526020016007820154815260200160088201548152602001600982015481525050815260200160118201805461077090612ad3565b80601f016020809104026020016040519081016040528092919081815260200182805461079c90612ad3565b80156107e95780601f106107be576101008083540402835291602001916107e9565b820191906000526020600020905b8154815290600101906020018083116107cc57829003601f168201915b5050505050815260200160128201805480602002602001604051908101604052809291908181526020016000905b828210156108c357838290600052602060002001805461083690612ad3565b80601f016020809104026020016040519081016040528092919081815260200182805461086290612ad3565b80156108af5780601f10610884576101008083540402835291602001916108af565b820191906000526020600020905b81548152906001019060200180831161089257829003601f168201915b505050505081526020019060010190610817565b50505050815260200160138201805480602002602001604051908101604052809291908181526020016000905b8282101561099c57838290600052602060002001805461090f90612ad3565b80601f016020809104026020016040519081016040528092919081815260200182805461093b90612ad3565b80156109885780601f1061095d57610100808354040283529160200191610988565b820191906000526020600020905b81548152906001019060200180831161096b57829003601f168201915b5050505050815260200190600101906108f0565b50505050815260200160148201805480602002602001604051908101604052809291908181526020016000905b82821015610a755783829060005260206000200180546109e890612ad3565b80601f0160208091040260200160405190810160405280929190818152602001828054610a1490612ad3565b8015610a615780601f10610a3657610100808354040283529160200191610a61565b820191906000526020600020905b815481529060010190602001808311610a4457829003601f168201915b5050505050815260200190600101906109c9565b505050508152602001601582018054610a8d90612ad3565b80601f0160208091040260200160405190810160405280929190818152602001828054610ab990612ad3565b8015610b065780601f10610adb57610100808354040283529160200191610b06565b820191906000526020600020905b815481529060010190602001808311610ae957829003601f168201915b50505050508152602001601682018054610b1f90612ad3565b80601f0160208091040260200160405190810160405280929190818152602001828054610b4b90612ad3565b8015610b985780601f10610b6d57610100808354040283529160200191610b98565b820191906000526020600020905b815481529060010190602001808311610b7b57829003601f168201915b5050505050815250509050919050565b600073ffffffffffffffffffffffffffffffffffffffff16600160008c79ffffffffffffffffffffffffffffffffffffffffffffffffffff191679ffffffffffffffffffffffffffffffffffffffffffffffffffff1916815260200190815260200160002060009054906101000a900473ffffffffffffffffffffffffffffffffffffffff1673ffffffffffffffffffffffffffffffffffffffff1614610c84576040517f08c379a0000000000000000000000000000000000000000000000000000000008152600401610c7b90612b76565b60405180910390fd5b60006040518061014001604052804281526020018b81526020018a8152602001898152602001888152602001878152602001868152602001858152602001848152602001838152509050806000808d79ffffffffffffffffffffffffffffffffffffffffffffffffffff191679ffffffffffffffffffffffffffffffffffffffffffffffffffff19168152602001908152602001600020600082015181600001556020820151816001016000820151816000019081610d439190612d42565b506020820151816001019081610d599190612d42565b506040820151816002019081610d6f9190612d42565b5050506040820151816004016000820151816000019081610d909190612d42565b506020820151816001019081610da69190612d42565b506040820151816002019081610dbc9190612d42565b5050506060820151816007016000820151816000019081610ddd9190612d42565b506020820151816001019081610df39190612d42565b5060408201518160020155606082015181600301556080820151816004015560a0820151816005019081610e279190612d42565b5060c0820151816006015560e082015181600701556101008201518160080155610120820151816009015550506080820151816011019081610e699190612d42565b5060a0820151816012019080519060200190610e86929190611a70565b5060c0820151816013019080519060200190610ea3929190611a70565b5060e0820151816014019080519060200190610ec0929190611a70565b50610100820151816015019081610ed79190612d42565b50610120820151816016019081610eee9190612d42565b5090505033600160008d79ffffffffffffffffffffffffffffffffffffffffffffffffffff191679ffffffffffffffffffffffffffffffffffffffffffffffffffff1916815260200190815260200160002060006101000a81548173ffffffffffffffffffffffffffffffffffffffff021916908373ffffffffffffffffffffffffffffffffffffffff1602179055505050505050505050505050565b600060205280600052604060002060009150905080600001549080600101604051806060016040529081600082018054610fc490612ad3565b80601f0160208091040260200160405190810160405280929190818152602001828054610ff090612ad3565b801561103d5780601f106110125761010080835404028352916020019161103d565b820191906000526020600020905b81548152906001019060200180831161102057829003601f168201915b5050505050815260200160018201805461105690612ad3565b80601f016020809104026020016040519081016040528092919081815260200182805461108290612ad3565b80156110cf5780601f106110a4576101008083540402835291602001916110cf565b820191906000526020600020905b8154815290600101906020018083116110b257829003601f168201915b505050505081526020016002820180546110e890612ad3565b80601f016020809104026020016040519081016040528092919081815260200182805461111490612ad3565b80156111615780601f1061113657610100808354040283529160200191611161565b820191906000526020600020905b81548152906001019060200180831161114457829003601f168201915b505050505081525050908060040160405180606001604052908160008201805461118a90612ad3565b80601f01602080910402602001604051908101604052809291908181526020018280546111b690612ad3565b80156112035780601f106111d857610100808354040283529160200191611203565b820191906000526020600020905b8154815290600101906020018083116111e657829003601f168201915b5050505050815260200160018201805461121c90612ad3565b80601f016020809104026020016040519081016040528092919081815260200182805461124890612ad3565b80156112955780601f1061126a57610100808354040283529160200191611295565b820191906000526020600020905b81548152906001019060200180831161127857829003601f168201915b505050505081526020016002820180546112ae90612ad3565b80601f01602080910402602001604051908101604052809291908181526020018280546112da90612ad3565b80156113275780601f106112fc57610100808354040283529160200191611327565b820191906000526020600020905b81548152906001019060200180831161130a57829003601f168201915b50505050508152505090806007016040518061014001604052908160008201805461135190612ad3565b80601f016020809104026020016040519081016040528092919081815260200182805461137d90612ad3565b80156113ca5780601f1061139f576101008083540402835291602001916113ca565b820191906000526020600020905b8154815290600101906020018083116113ad57829003601f168201915b505050505081526020016001820180546113e390612ad3565b80601f016020809104026020016040519081016040528092919081815260200182805461140f90612ad3565b801561145c5780601f106114315761010080835404028352916020019161145c565b820191906000526020600020905b81548152906001019060200180831161143f57829003601f168201915b5050505050815260200160028201548152602001600382015481526020016004820154815260200160058201805461149390612ad3565b80601f01602080910402602001604051908101604052809291908181526020018280546114bf90612ad3565b801561150c5780601f106114e15761010080835404028352916020019161150c565b820191906000526020600020905b8154815290600101906020018083116114ef57829003601f168201915b505050505081526020016006820154815260200160078201548152602001600882015481526020016009820154815250509080601101805461154d90612ad3565b80601f016020809104026020016040519081016040528092919081815260200182805461157990612ad3565b80156115c65780601f1061159b576101008083540402835291602001916115c6565b820191906000526020600020905b8154815290600101906020018083116115a957829003601f168201915b5050505050908060150180546115db90612ad3565b80601f016020809104026020016040519081016040528092919081815260200182805461160790612ad3565b80156116545780601f1061162957610100808354040283529160200191611654565b820191906000526020600020905b81548152906001019060200180831161163757829003601f168201915b50505050509080601601805461166990612ad3565b80601f016020809104026020016040519081016040528092919081815260200182805461169590612ad3565b80156116e25780601f106116b7576101008083540402835291602001916116e2565b820191906000526020600020905b8154815290600101906020018083116116c557829003601f168201915b5050505050905087565b60016020528060005260406000206000915054906101000a900473ffffffffffffffffffffffffffffffffffffffff1681565b863373ffffffffffffffffffffffffffffffffffffffff16600160008379ffffffffffffffffffffffffffffffffffffffffffffffffffff191679ffffffffffffffffffffffffffffffffffffffffffffffffffff1916815260200190815260200160002060009054906101000a900473ffffffffffffffffffffffffffffffffffffffff1673ffffffffffffffffffffffffffffffffffffffff16146117fb576040517f08c379a00000000000000000000000000000000000000000000000000000000081526004016117f290612e86565b60405180910390fd5b60008060008a79ffffffffffffffffffffffffffffffffffffffffffffffffffff191679ffffffffffffffffffffffffffffffffffffffffffffffffffff1916815260200190815260200160002090508781601101908161185c9190612d42565b5086816012019080519060200190611875929190611a70565b508581601301908051906020019061188e929190611a70565b50848160140190805190602001906118a7929190611a70565b50838160150190816118b99190612d42565b50828160160190816118cb9190612d42565b50505050505050505050565b816000808279ffffffffffffffffffffffffffffffffffffffffffffffffffff191679ffffffffffffffffffffffffffffffffffffffffffffffffffff1916815260200190815260200160002060040160020161193390612f2a565b60601c73ffffffffffffffffffffffffffffffffffffffff163373ffffffffffffffffffffffffffffffffffffffff16146119a3576040517f08c379a000000000000000000000000000000000000000000000000000000000815260040161199a9061300d565b60405180910390fd5b60008060008579ffffffffffffffffffffffffffffffffffffffffffffffffffff191679ffffffffffffffffffffffffffffffffffffffffffffffffffff19168152602001908152602001600020905082816016019081611a049190612d42565b5050505050565b60405180610140016040528060008152602001611a26611ac9565b8152602001611a33611ac9565b8152602001611a40611aea565b81526020016060815260200160608152602001606081526020016060815260200160608152602001606081525090565b828054828255906000526020600020908101928215611ab8579160200282015b82811115611ab7578251829081611aa79190612d42565b5091602001919060010190611a90565b5b509050611ac59190611b3d565b5090565b60405180606001604052806060815260200160608152602001606081525090565b604051806101400160405280606081526020016060815260200160008152602001600081526020016000815260200160608152602001600081526020016000815260200160008152602001600081525090565b5b80821115611b5d5760008181611b549190611b61565b50600101611b3e565b5090565b508054611b6d90612ad3565b6000825580601f10611b7f5750611b9e565b601f016020900490600052602060002090810190611b9d9190611ba1565b5b50565b5b80821115611bba576000816000905550600101611ba2565b5090565b6000604051905090565b600080fd5b600080fd5b60007fffffffffffff000000000000000000000000000000000000000000000000000082169050919050565b611c0781611bd2565b8114611c1257600080fd5b50565b600081359050611c2481611bfe565b92915050565b600060208284031215611c4057611c3f611bc8565b5b6000611c4e84828501611c15565b91505092915050565b6000819050919050565b611c6a81611c57565b82525050565b600081519050919050565b600082825260208201905092915050565b60005b83811015611caa578082015181840152602081019050611c8f565b60008484015250505050565b6000601f19601f8301169050919050565b6000611cd282611c70565b611cdc8185611c7b565b9350611cec818560208601611c8c565b611cf581611cb6565b840191505092915050565b60006060830160008301518482036000860152611d1d8282611cc7565b91505060208301518482036020860152611d378282611cc7565b91505060408301518482036040860152611d518282611cc7565b9150508091505092915050565b6000610140830160008301518482036000860152611d7c8282611cc7565b91505060208301518482036020860152611d968282611cc7565b9150506040830151611dab6040860182611c61565b506060830151611dbe6060860182611c61565b506080830151611dd16080860182611c61565b5060a083015184820360a0860152611de98282611cc7565b91505060c0830151611dfe60c0860182611c61565b5060e0830151611e1160e0860182611c61565b50610100830151611e26610100860182611c61565b50610120830151611e3b610120860182611c61565b508091505092915050565b600081519050919050565b600082825260208201905092915050565b6000819050602082019050919050565b6000611e7e8383611cc7565b905092915050565b6000602082019050919050565b6000611e9e82611e46565b611ea88185611e51565b935083602082028501611eba85611e62565b8060005b85811015611ef65784840389528151611ed78582611e72565b9450611ee283611e86565b925060208a01995050600181019050611ebe565b50829750879550505050505092915050565b600061014083016000830151611f216000860182611c61565b5060208301518482036020860152611f398282611d00565b91505060408301518482036040860152611f538282611d00565b91505060608301518482036060860152611f6d8282611d5e565b91505060808301518482036080860152611f878282611cc7565b91505060a083015184820360a0860152611fa18282611e93565b91505060c083015184820360c0860152611fbb8282611e93565b91505060e083015184820360e0860152611fd58282611e93565b915050610100830151848203610100860152611ff18282611cc7565b91505061012083015184820361012086015261200d8282611cc7565b9150508091505092915050565b600060208201905081810360008301526120348184611f08565b905092915050565b600080fd5b7f4e487b7100000000000000000000000000000000000000000000000000000000600052604160045260246000fd5b61207982611cb6565b810181811067ffffffffffffffff8211171561209857612097612041565b5b80604052505050565b60006120ab611bbe565b90506120b78282612070565b919050565b600080fd5b600080fd5b600080fd5b600067ffffffffffffffff8211156120e6576120e5612041565b5b6120ef82611cb6565b9050602081019050919050565b82818337600083830152505050565b600061211e612119846120cb565b6120a1565b90508281526020810184848401111561213a576121396120c6565b5b6121458482856120fc565b509392505050565b600082601f830112612162576121616120c1565b5b813561217284826020860161210b565b91505092915050565b6000606082840312156121915761219061203c565b5b61219b60606120a1565b9050600082013567ffffffffffffffff8111156121bb576121ba6120bc565b5b6121c78482850161214d565b600083015250602082013567ffffffffffffffff8111156121eb576121ea6120bc565b5b6121f78482850161214d565b602083015250604082013567ffffffffffffffff81111561221b5761221a6120bc565b5b6122278482850161214d565b60408301525092915050565b61223c81611c57565b811461224757600080fd5b50565b60008135905061225981612233565b92915050565b600061014082840312156122765761227561203c565b5b6122816101406120a1565b9050600082013567ffffffffffffffff8111156122a1576122a06120bc565b5b6122ad8482850161214d565b600083015250602082013567ffffffffffffffff8111156122d1576122d06120bc565b5b6122dd8482850161214d565b60208301525060406122f18482850161224a565b60408301525060606123058482850161224a565b60608301525060806123198482850161224a565b60808301525060a082013567ffffffffffffffff81111561233d5761233c6120bc565b5b6123498482850161214d565b60a08301525060c061235d8482850161224a565b60c08301525060e06123718482850161224a565b60e0830152506101006123868482850161224a565b6101008301525061012061239c8482850161224a565b6101208301525092915050565b600067ffffffffffffffff8211156123c4576123c3612041565b5b602082029050602081019050919050565b600080fd5b60006123ed6123e8846123a9565b6120a1565b905080838252602082019050602084028301858111156124105761240f6123d5565b5b835b8181101561245757803567ffffffffffffffff811115612435576124346120c1565b5b808601612442898261214d565b85526020850194505050602081019050612412565b5050509392505050565b600082601f830112612476576124756120c1565b5b81356124868482602086016123da565b91505092915050565b6000806000806000806000806000806101408b8d0312156124b3576124b2611bc8565b5b60006124c18d828e01611c15565b9a505060208b013567ffffffffffffffff8111156124e2576124e1611bcd565b5b6124ee8d828e0161217b565b99505060408b013567ffffffffffffffff81111561250f5761250e611bcd565b5b61251b8d828e0161217b565b98505060608b013567ffffffffffffffff81111561253c5761253b611bcd565b5b6125488d828e0161225f565b97505060808b013567ffffffffffffffff81111561256957612568611bcd565b5b6125758d828e0161214d565b96505060a08b013567ffffffffffffffff81111561259657612595611bcd565b5b6125a28d828e01612461565b95505060c08b013567ffffffffffffffff8111156125c3576125c2611bcd565b5b6125cf8d828e01612461565b94505060e08b013567ffffffffffffffff8111156125f0576125ef611bcd565b5b6125fc8d828e01612461565b9350506101008b013567ffffffffffffffff81111561261e5761261d611bcd565b5b61262a8d828e0161214d565b9250506101208b013567ffffffffffffffff81111561264c5761264b611bcd565b5b6126588d828e0161214d565b9150509295989b9194979a5092959850565b61267381611c57565b82525050565b600060608301600083015184820360008601526126968282611cc7565b915050602083015184820360208601526126b08282611cc7565b915050604083015184820360408601526126ca8282611cc7565b9150508091505092915050565b60006101408301600083015184820360008601526126f58282611cc7565b9150506020830151848203602086015261270f8282611cc7565b91505060408301516127246040860182611c61565b5060608301516127376060860182611c61565b50608083015161274a6080860182611c61565b5060a083015184820360a08601526127628282611cc7565b91505060c083015161277760c0860182611c61565b5060e083015161278a60e0860182611c61565b5061010083015161279f610100860182611c61565b506101208301516127b4610120860182611c61565b508091505092915050565b600082825260208201905092915050565b60006127db82611c70565b6127e581856127bf565b93506127f5818560208601611c8c565b6127fe81611cb6565b840191505092915050565b600060e08201905061281e600083018a61266a565b81810360208301526128308189612679565b905081810360408301526128448188612679565b9050818103606083015261285881876126d7565b9050818103608083015261286c81866127d0565b905081810360a083015261288081856127d0565b905081810360c083015261289481846127d0565b905098975050505050505050565b600073ffffffffffffffffffffffffffffffffffffffff82169050919050565b60006128cd826128a2565b9050919050565b6128dd816128c2565b82525050565b60006020820190506128f860008301846128d4565b92915050565b600080600080600080600060e0888a03121561291d5761291c611bc8565b5b600061292b8a828b01611c15565b975050602088013567ffffffffffffffff81111561294c5761294b611bcd565b5b6129588a828b0161214d565b965050604088013567ffffffffffffffff81111561297957612978611bcd565b5b6129858a828b01612461565b955050606088013567ffffffffffffffff8111156129a6576129a5611bcd565b5b6129b28a828b01612461565b945050608088013567ffffffffffffffff8111156129d3576129d2611bcd565b5b6129df8a828b01612461565b93505060a088013567ffffffffffffffff811115612a00576129ff611bcd565b5b612a0c8a828b0161214d565b92505060c088013567ffffffffffffffff811115612a2d57612a2c611bcd565b5b612a398a828b0161214d565b91505092959891949750929550565b60008060408385031215612a5f57612a5e611bc8565b5b6000612a6d85828601611c15565b925050602083013567ffffffffffffffff811115612a8e57612a8d611bcd565b5b612a9a8582860161214d565b9150509250929050565b7f4e487b7100000000000000000000000000000000000000000000000000000000600052602260045260246000fd5b60006002820490506001821680612aeb57607f821691505b602082108103612afe57612afd612aa4565b5b50919050565b7f436f6e7472616374207769746820676976656e206964656e746966696572206160008201527f6c72656164792065786973747300000000000000000000000000000000000000602082015250565b6000612b60602d836127bf565b9150612b6b82612b04565b604082019050919050565b60006020820190508181036000830152612b8f81612b53565b9050919050565b60008190508160005260206000209050919050565b60006020601f8301049050919050565b600082821b905092915050565b600060088302612bf87fffffffffffffffffffffffffffffffffffffffffffffffffffffffffffffffff82612bbb565b612c028683612bbb565b95508019841693508086168417925050509392505050565b6000819050919050565b6000612c3f612c3a612c3584611c57565b612c1a565b611c57565b9050919050565b6000819050919050565b612c5983612c24565b612c6d612c6582612c46565b848454612bc8565b825550505050565b600090565b612c82612c75565b612c8d818484612c50565b505050565b5b81811015612cb157612ca6600082612c7a565b600181019050612c93565b5050565b601f821115612cf657612cc781612b96565b612cd084612bab565b81016020851015612cdf578190505b612cf3612ceb85612bab565b830182612c92565b50505b505050565b600082821c905092915050565b6000612d1960001984600802612cfb565b1980831691505092915050565b6000612d328383612d08565b9150826002028217905092915050565b612d4b82611c70565b67ffffffffffffffff811115612d6457612d63612041565b5b612d6e8254612ad3565b612d79828285612cb5565b600060209050601f831160018114612dac5760008415612d9a578287015190505b612da48582612d26565b865550612e0c565b601f198416612dba86612b96565b60005b82811015612de257848901518255600182019150602085019450602081019050612dbd565b86831015612dff5784890151612dfb601f891682612d08565b8355505b6001600288020188555050505b505050505050565b7f4f6e6c79206c616e646c6f72642063616e20706572666f726d2074686973206160008201527f6374696f6e000000000000000000000000000000000000000000000000000000602082015250565b6000612e706025836127bf565b9150612e7b82612e14565b604082019050919050565b60006020820190508181036000830152612e9f81612e63565b9050919050565b600081549050612eb581612ad3565b9050919050565b60008190508160005260206000209050919050565b60008160601c9050919050565b60008160601b9050919050565b6000612ef682612ede565b9050919050565b6000612f10612f0b83612ed1565b612eeb565b9050919050565b6000612f238254612efd565b9050919050565b6000612f3582612ea6565b82601f821115612f4b57612f4884612ebc565b90505b612f5481612f17565b92506014821015612f9457612f8f7fffffffffffffffffffffffffffffffffffffffff00000000000000000000000083601403600802612bbb565b831692505b5050919050565b7f4f6e6c79207468652074656e616e742063616e20706572666f726d207468697360008201527f20616374696f6e00000000000000000000000000000000000000000000000000602082015250565b6000612ff76027836127bf565b915061300282612f9b565b604082019050919050565b6000602082019050818103600083015261302681612fea565b905091905056fea2646970667358221220a11b66d79bae1fe063b13e4e6eedae2ab7d2e198a0447ebcba899b2ed7959e0d64736f6c63430008180033",
  "linkReferences": {},
  "deployedLinkReferences": {}
}