{
  "_format": "hh-sol-artifact-1",
  "contractName": "HouseRentalContract",
  "sourceName": "contracts/UpdatedRentalContract.sol",
  "abi": [
    {
      "anonymous": false,
      "inputs": [
        {
          "indexed": true,
          "internalType": "bytes6",
          "name": "contractId",
          "type": "bytes6"
        },
        {
          "indexed": true,
          "internalType": "address",
          "name": "owner",
          "type": "address"
        },
        {
          "indexed": false,
          "internalType": "uint256",
          "name": "timestamp",
          "type": "uint256"
        }
      ],
      "name": "ContractCreated",
      "type": "event"
    },
    {
      "anonymous": false,
      "inputs": [
        {
          "indexed": true,
          "internalType": "bytes6",
          "name": "contractId",
          "type": "bytes6"
        },
        {
          "indexed": false,
          "internalType": "uint256",
          "name": "timestamp",
          "type": "uint256"
        }
      ],
      "name": "ContractEnded",
      "type": "event"
    },
    {
      "anonymous": false,
      "inputs": [
        {
          "indexed": true,
          "internalType": "bytes6",
          "name": "contractId",
          "type": "bytes6"
        },
        {
          "indexed": false,
          "internalType": "uint256",
          "name": "timestamp",
          "type": "uint256"
        }
      ],
      "name": "ContractSigned",
      "type": "event"
    },
    {
      "anonymous": false,
      "inputs": [
        {
          "indexed": true,
          "internalType": "bytes6",
          "name": "contractId",
          "type": "bytes6"
        },
        {
          "indexed": false,
          "internalType": "uint256",
          "name": "timestamp",
          "type": "uint256"
        }
      ],
      "name": "ContractUpdated",
      "type": "event"
    },
    {
      "anonymous": false,
      "inputs": [
        {
          "indexed": true,
          "internalType": "bytes6",
          "name": "contractId",
          "type": "bytes6"
        },
        {
          "indexed": false,
          "internalType": "uint256",
          "name": "amount",
          "type": "uint256"
        },
        {
          "indexed": false,
          "internalType": "uint256",
          "name": "timestamp",
          "type": "uint256"
        }
      ],
      "name": "DepositPaid",
      "type": "event"
    },
    {
      "anonymous": false,
      "inputs": [
        {
          "indexed": true,
          "internalType": "bytes6",
          "name": "contractId",
          "type": "bytes6"
        },
        {
          "indexed": false,
          "internalType": "uint256",
          "name": "amount",
          "type": "uint256"
        },
        {
          "indexed": false,
          "internalType": "uint256",
          "name": "timestamp",
          "type": "uint256"
        }
      ],
      "name": "DepositReleaseRequested",
      "type": "event"
    },
    {
      "anonymous": false,
      "inputs": [
        {
          "indexed": true,
          "internalType": "bytes6",
          "name": "contractId",
          "type": "bytes6"
        },
        {
          "indexed": false,
          "internalType": "uint256",
          "name": "amount",
          "type": "uint256"
        },
        {
          "indexed": false,
          "internalType": "uint256",
          "name": "timestamp",
          "type": "uint256"
        }
      ],
      "name": "DepositReleased",
      "type": "event"
    },
    {
      "inputs": [
        {
          "internalType": "bytes6",
          "name": "contractId",
          "type": "bytes6"
        },
        {
          "internalType": "uint256",
          "name": "amount",
          "type": "uint256"
        }
      ],
      "name": "approveDepositRelease",
      "outputs": [],
      "stateMutability": "nonpayable",
      "type": "function"
    },
    {
      "inputs": [
        {
          "internalType": "bytes6",
          "name": "",
          "type": "bytes6"
        }
      ],
      "name": "contractOwners",
      "outputs": [
        {
          "internalType": "address",
          "name": "",
          "type": "address"
        }
      ],
      "stateMutability": "view",
      "type": "function"
    },
    {
      "inputs": [
        {
          "internalType": "bytes6",
          "name": "",
          "type": "bytes6"
        }
      ],
      "name": "contracts",
      "outputs": [
        {
          "internalType": "uint256",
          "name": "creationDate",
          "type": "uint256"
        },
        {
          "components": [
            {
              "internalType": "string",
              "name": "name",
              "type": "string"
            },
            {
              "internalType": "string",
              "name": "identificationNumber",
              "type": "string"
            },
            {
              "internalType": "string",
              "name": "house_address",
              "type": "string"
            }
          ],
          "internalType": "struct HouseRentalContract.PersonalInfo",
          "name": "landlord",
          "type": "tuple"
        },
        {
          "components": [
            {
              "internalType": "string",
              "name": "name",
              "type": "string"
            },
            {
              "internalType": "string",
              "name": "identificationNumber",
              "type": "string"
            },
            {
              "internalType": "string",
              "name": "house_address",
              "type": "string"
            }
          ],
          "internalType": "struct HouseRentalContract.PersonalInfo",
          "name": "tenant",
          "type": "tuple"
        },
        {
          "components": [
            {
              "internalType": "string",
              "name": "rent_address",
              "type": "string"
            },
            {
              "internalType": "string",
              "name": "buildingType",
              "type": "string"
            },
            {
              "internalType": "uint256",
              "name": "rentPeriod",
              "type": "uint256"
            },
            {
              "internalType": "uint256",
              "name": "effectiveStartDate",
              "type": "uint256"
            },
            {
              "internalType": "uint256",
              "name": "effectiveEndDate",
              "type": "uint256"
            },
            {
              "internalType": "uint256",
              "name": "monthlyRent",
              "type": "uint256"
            },
            {
              "internalType": "string",
              "name": "paymentMethod",
              "type": "string"
            },
            {
              "internalType": "uint256",
              "name": "maxOverduePeriod",
              "type": "uint256"
            },
            {
              "internalType": "uint256",
              "name": "deposit",
              "type": "uint256"
            },
            {
              "internalType": "int256",
              "name": "latitude",
              "type": "int256"
            },
            {
              "internalType": "int256",
              "name": "longitude",
              "type": "int256"
            }
          ],
          "internalType": "struct HouseRentalContract.HouseDetails",
          "name": "houseDetails",
          "type": "tuple"
        },
        {
          "internalType": "string",
          "name": "agreementDetails",
          "type": "string"
        },
        {
          "internalType": "string",
          "name": "landlordSignature",
          "type": "string"
        },
        {
          "internalType": "string",
          "name": "tenantSignature",
          "type": "string"
        },
        {
          "internalType": "string",
          "name": "password",
          "type": "string"
        },
        {
          "internalType": "address",
          "name": "tenantAddress",
          "type": "address"
        },
        {
          "internalType": "bool",
          "name": "depositPaid",
          "type": "bool"
        },
        {
          "internalType": "bool",
          "name": "depositReleased",
          "type": "bool"
        },
        {
          "internalType": "bool",
          "name": "contractActive",
          "type": "bool"
        }
      ],
      "stateMutability": "view",
      "type": "function"
    },
    {
      "inputs": [
        {
          "internalType": "bytes6",
          "name": "_uniqueIdentifier",
          "type": "bytes6"
        },
        {
          "components": [
            {
              "internalType": "string",
              "name": "name",
              "type": "string"
            },
            {
              "internalType": "string",
              "name": "identificationNumber",
              "type": "string"
            },
            {
              "internalType": "string",
              "name": "house_address",
              "type": "string"
            }
          ],
          "internalType": "struct HouseRentalContract.PersonalInfo",
          "name": "_landlord",
          "type": "tuple"
        },
        {
          "components": [
            {
              "internalType": "string",
              "name": "name",
              "type": "string"
            },
            {
              "internalType": "string",
              "name": "identificationNumber",
              "type": "string"
            },
            {
              "internalType": "string",
              "name": "house_address",
              "type": "string"
            }
          ],
          "internalType": "struct HouseRentalContract.PersonalInfo",
          "name": "_tenant",
          "type": "tuple"
        },
        {
          "components": [
            {
              "internalType": "string",
              "name": "rent_address",
              "type": "string"
            },
            {
              "internalType": "string",
              "name": "buildingType",
              "type": "string"
            },
            {
              "internalType": "uint256",
              "name": "rentPeriod",
              "type": "uint256"
            },
            {
              "internalType": "uint256",
              "name": "effectiveStartDate",
              "type": "uint256"
            },
            {
              "internalType": "uint256",
              "name": "effectiveEndDate",
              "type": "uint256"
            },
            {
              "internalType": "uint256",
              "name": "monthlyRent",
              "type": "uint256"
            },
            {
              "internalType": "string",
              "name": "paymentMethod",
              "type": "string"
            },
            {
              "internalType": "uint256",
              "name": "maxOverduePeriod",
              "type": "uint256"
            },
            {
              "internalType": "uint256",
              "name": "deposit",
              "type": "uint256"
            },
            {
              "internalType": "int256",
              "name": "latitude",
              "type": "int256"
            },
            {
              "internalType": "int256",
              "name": "longitude",
              "type": "int256"
            }
          ],
          "internalType": "struct HouseRentalContract.HouseDetails",
          "name": "_houseDetails",
          "type": "tuple"
        },
        {
          "internalType": "string",
          "name": "_agreementDetails",
          "type": "string"
        },
        {
          "internalType": "string[]",
          "name": "_tenantAgreements",
          "type": "string[]"
        },
        {
          "internalType": "string[]",
          "name": "_landlordResponsibilities",
          "type": "string[]"
        },
        {
          "internalType": "string[]",
          "name": "_agreementsBetweenLandlord",
          "type": "string[]"
        },
        {
          "internalType": "string",
          "name": "_landlordSignature",
          "type": "string"
        },
        {
          "internalType": "string",
          "name": "_tenantSignature",
          "type": "string"
        },
        {
          "internalType": "string",
          "name": "_password",
          "type": "string"
        }
      ],
      "name": "createContract",
      "outputs": [],
      "stateMutability": "nonpayable",
      "type": "function"
    },
    {
      "inputs": [
        {
          "internalType": "bytes6",
          "name": "contractId",
          "type": "bytes6"
        }
      ],
      "name": "endContract",
      "outputs": [],
      "stateMutability": "nonpayable",
      "type": "function"
    },
    {
      "inputs": [
        {
          "internalType": "bytes6",
          "name": "contractId",
          "type": "bytes6"
        },
        {
          "internalType": "string",
          "name": "_password",
          "type": "string"
        }
      ],
      "name": "getContract",
      "outputs": [
        {
          "components": [
            {
              "internalType": "uint256",
              "name": "creationDate",
              "type": "uint256"
            },
            {
              "components": [
                {
                  "internalType": "string",
                  "name": "name",
                  "type": "string"
                },
                {
                  "internalType": "string",
                  "name": "identificationNumber",
                  "type": "string"
                },
                {
                  "internalType": "string",
                  "name": "house_address",
                  "type": "string"
                }
              ],
              "internalType": "struct HouseRentalContract.PersonalInfo",
              "name": "landlord",
              "type": "tuple"
            },
            {
              "components": [
                {
                  "internalType": "string",
                  "name": "name",
                  "type": "string"
                },
                {
                  "internalType": "string",
                  "name": "identificationNumber",
                  "type": "string"
                },
                {
                  "internalType": "string",
                  "name": "house_address",
                  "type": "string"
                }
              ],
              "internalType": "struct HouseRentalContract.PersonalInfo",
              "name": "tenant",
              "type": "tuple"
            },
            {
              "components": [
                {
                  "internalType": "string",
                  "name": "rent_address",
                  "type": "string"
                },
                {
                  "internalType": "string",
                  "name": "buildingType",
                  "type": "string"
                },
                {
                  "internalType": "uint256",
                  "name": "rentPeriod",
                  "type": "uint256"
                },
                {
                  "internalType": "uint256",
                  "name": "effectiveStartDate",
                  "type": "uint256"
                },
                {
                  "internalType": "uint256",
                  "name": "effectiveEndDate",
                  "type": "uint256"
                },
                {
                  "internalType": "uint256",
                  "name": "monthlyRent",
                  "type": "uint256"
                },
                {
                  "internalType": "string",
                  "name": "paymentMethod",
                  "type": "string"
                },
                {
                  "internalType": "uint256",
                  "name": "maxOverduePeriod",
                  "type": "uint256"
                },
                {
                  "internalType": "uint256",
                  "name": "deposit",
                  "type": "uint256"
                },
                {
                  "internalType": "int256",
                  "name": "latitude",
                  "type": "int256"
                },
                {
                  "internalType": "int256",
                  "name": "longitude",
                  "type": "int256"
                }
              ],
              "internalType": "struct HouseRentalContract.HouseDetails",
              "name": "houseDetails",
              "type": "tuple"
            },
            {
              "internalType": "string",
              "name": "agreementDetails",
              "type": "string"
            },
            {
              "internalType": "string[]",
              "name": "tenantAgreements",
              "type": "string[]"
            },
            {
              "internalType": "string[]",
              "name": "landlordResponsibilities",
              "type": "string[]"
            },
            {
              "internalType": "string[]",
              "name": "agreementsBetweenLandlord",
              "type": "string[]"
            },
            {
              "internalType": "string",
              "name": "landlordSignature",
              "type": "string"
            },
            {
              "internalType": "string",
              "name": "tenantSignature",
              "type": "string"
            },
            {
              "internalType": "string",
              "name": "password",
              "type": "string"
            },
            {
              "internalType": "address",
              "name": "tenantAddress",
              "type": "address"
            },
            {
              "internalType": "bool",
              "name": "depositPaid",
              "type": "bool"
            },
            {
              "internalType": "bool",
              "name": "depositReleased",
              "type": "bool"
            },
            {
              "internalType": "bool",
              "name": "contractActive",
              "type": "bool"
            }
          ],
          "internalType": "struct HouseRentalContract.ContractTerms",
          "name": "",
          "type": "tuple"
        }
      ],
      "stateMutability": "view",
      "type": "function"
    },
    {
      "inputs": [
        {
          "internalType": "bytes6",
          "name": "contractId",
          "type": "bytes6"
        }
      ],
      "name": "refundDeposit",
      "outputs": [],
      "stateMutability": "nonpayable",
      "type": "function"
    },
    {
      "inputs": [
        {
          "internalType": "bytes6",
          "name": "contractId",
          "type": "bytes6"
        },
        {
          "internalType": "uint256",
          "name": "amount",
          "type": "uint256"
        }
      ],
      "name": "requestDepositRelease",
      "outputs": [],
      "stateMutability": "nonpayable",
      "type": "function"
    },
    {
      "inputs": [
        {
          "internalType": "bytes6",
          "name": "contractId",
          "type": "bytes6"
        },
        {
          "internalType": "string",
          "name": "_password",
          "type": "string"
        },
        {
          "internalType": "string",
          "name": "_name",
          "type": "string"
        },
        {
          "internalType": "string",
          "name": "_identificationNumber",
          "type": "string"
        },
        {
          "internalType": "string",
          "name": "_houseAddress",
          "type": "string"
        },
        {
          "internalType": "string",
          "name": "_tenantSignature",
          "type": "string"
        }
      ],
      "name": "signContract",
      "outputs": [],
      "stateMutability": "payable",
      "type": "function"
    },
    {
      "inputs": [
        {
          "internalType": "bytes6",
          "name": "contractId",
          "type": "bytes6"
        },
        {
          "internalType": "string",
          "name": "_password",
          "type": "string"
        },
        {
          "internalType": "string",
          "name": "_agreementDetails",
          "type": "string"
        },
        {
          "internalType": "string[]",
          "name": "_tenantAgreements",
          "type": "string[]"
        },
        {
          "internalType": "string[]",
          "name": "_landlordResponsibilities",
          "type": "string[]"
        },
        {
          "internalType": "string[]",
          "name": "_agreementsBetweenLandlord",
          "type": "string[]"
        },
        {
          "internalType": "string",
          "name": "_landlordSignature",
          "type": "string"
        },
        {
          "internalType": "string",
          "name": "_tenantSignature",
          "type": "string"
        },
        {
          "internalType": "address",
          "name": "_tenantAddress",
          "type": "address"
        },
        {
          "internalType": "uint256",
          "name": "_effectiveStartDate",
          "type": "uint256"
        },
        {
          "internalType": "uint256",
          "name": "_effectiveEndDate",
          "type": "uint256"
        }
      ],
      "name": "updateContract",
      "outputs": [],
      "stateMutability": "nonpayable",
      "type": "function"
    }
  ],
  "bytecode": "0x608060405234801561001057600080fd5b50614d36806100206000396000f3fe6080604052600436106100915760003560e01c8063ca52c3c211610059578063ca52c3c214610189578063cc8e3dde146101b2578063f437a24d146101ef578063f78f38b414610218578063fa34d5aa1461024157610091565b8063157e21f714610096578063792855e4146100b25780639aa5543e146100ef5780639cfa058b14610118578063a310443314610160575b600080fd5b6100b060048036038101906100ab91906133db565b61026a565b005b3480156100be57600080fd5b506100d960048036038101906100d491906134f4565b610649565b6040516100e691906139fc565b60405180910390f35b3480156100fb57600080fd5b5061011660048036038101906101119190613d7e565b6112c0565b005b34801561012457600080fd5b5061013f600480360381019061013a9190613f8a565b61181b565b6040516101579c9b9a99989796959493929190614189565b60405180910390f35b34801561016c57600080fd5b5061018760048036038101906101829190614274565b612073565b005b34801561019557600080fd5b506101b060048036038101906101ab9190614274565b612380565b005b3480156101be57600080fd5b506101d960048036038101906101d49190613f8a565b6127a6565b6040516101e691906142b4565b60405180910390f35b3480156101fb57600080fd5b5061021660048036038101906102119190613f8a565b6127d9565b005b34801561022457600080fd5b5061023f600480360381019061023a91906142fb565b612aaf565b005b34801561024d57600080fd5b5061026860048036038101906102639190613f8a565b612df7565b005b853373ffffffffffffffffffffffffffffffffffffffff166000808379ffffffffffffffffffffffffffffffffffffffffffffffffffff191679ffffffffffffffffffffffffffffffffffffffffffffffffffff1916815260200190815260200160002060190160009054906101000a900473ffffffffffffffffffffffffffffffffffffffff1673ffffffffffffffffffffffffffffffffffffffff1614610348576040517f08c379a000000000000000000000000000000000000000000000000000000000815260040161033f90614525565b60405180910390fd5b856040516020016103599190614581565b604051602081830303815290604052805190602001206000808979ffffffffffffffffffffffffffffffffffffffffffffffffffff191679ffffffffffffffffffffffffffffffffffffffffffffffffffff191681526020019081526020016000206018016040516020016103ce9190614690565b6040516020818303038152906040528051906020012014610424576040517f08c379a000000000000000000000000000000000000000000000000000000000815260040161041b906146f3565b60405180910390fd5b6000808879ffffffffffffffffffffffffffffffffffffffffffffffffffff191679ffffffffffffffffffffffffffffffffffffffffffffffffffff191681526020019081526020016000206007016008015434146104b8576040517f08c379a00000000000000000000000000000000000000000000000000000000081526004016104af9061475f565b60405180910390fd5b60008060008979ffffffffffffffffffffffffffffffffffffffffffffffffffff191679ffffffffffffffffffffffffffffffffffffffffffffffffffff1916815260200190815260200160002090508581600401600001908161051c9190614916565b50848160040160010190816105319190614916565b50838160040160020190816105469190614916565b50828160170190816105589190614916565b5060018160190160146101000a81548160ff02191690831515021790555060018160190160166101000a81548160ff0219169083151502179055508779ffffffffffffffffffffffffffffffffffffffffffffffffffff19167f85b74a154907154c273caeb0be924feadb5271097e078bfd27ef84f1a75f05e8426040516105e091906149e8565b60405180910390a28779ffffffffffffffffffffffffffffffffffffffffffffffffffff19167febbf6b2760b055c34e7d54bccf7079ca90030b876fbf1d76c144a76d281235943442604051610637929190614a03565b60405180910390a25050505050505050565b610651613030565b816040516020016106629190614581565b604051602081830303815290604052805190602001206000808579ffffffffffffffffffffffffffffffffffffffffffffffffffff191679ffffffffffffffffffffffffffffffffffffffffffffffffffff191681526020019081526020016000206018016040516020016106d79190614690565b604051602081830303815290604052805190602001201461072d576040517f08c379a0000000000000000000000000000000000000000000000000000000008152600401610724906146f3565b60405180910390fd5b6000808479ffffffffffffffffffffffffffffffffffffffffffffffffffff191679ffffffffffffffffffffffffffffffffffffffffffffffffffff19168152602001908152602001600020604051806101e001604052908160008201548152602001600182016040518060600160405290816000820180546107af906145c7565b80601f01602080910402602001604051908101604052809291908181526020018280546107db906145c7565b80156108285780601f106107fd57610100808354040283529160200191610828565b820191906000526020600020905b81548152906001019060200180831161080b57829003601f168201915b50505050508152602001600182018054610841906145c7565b80601f016020809104026020016040519081016040528092919081815260200182805461086d906145c7565b80156108ba5780601f1061088f576101008083540402835291602001916108ba565b820191906000526020600020905b81548152906001019060200180831161089d57829003601f168201915b505050505081526020016002820180546108d3906145c7565b80601f01602080910402602001604051908101604052809291908181526020018280546108ff906145c7565b801561094c5780601f106109215761010080835404028352916020019161094c565b820191906000526020600020905b81548152906001019060200180831161092f57829003601f168201915b505050505081525050815260200160048201604051806060016040529081600082018054610979906145c7565b80601f01602080910402602001604051908101604052809291908181526020018280546109a5906145c7565b80156109f25780601f106109c7576101008083540402835291602001916109f2565b820191906000526020600020905b8154815290600101906020018083116109d557829003601f168201915b50505050508152602001600182018054610a0b906145c7565b80601f0160208091040260200160405190810160405280929190818152602001828054610a37906145c7565b8015610a845780601f10610a5957610100808354040283529160200191610a84565b820191906000526020600020905b815481529060010190602001808311610a6757829003601f168201915b50505050508152602001600282018054610a9d906145c7565b80601f0160208091040260200160405190810160405280929190818152602001828054610ac9906145c7565b8015610b165780601f10610aeb57610100808354040283529160200191610b16565b820191906000526020600020905b815481529060010190602001808311610af957829003601f168201915b50505050508152505081526020016007820160405180610160016040529081600082018054610b44906145c7565b80601f0160208091040260200160405190810160405280929190818152602001828054610b70906145c7565b8015610bbd5780601f10610b9257610100808354040283529160200191610bbd565b820191906000526020600020905b815481529060010190602001808311610ba057829003601f168201915b50505050508152602001600182018054610bd6906145c7565b80601f0160208091040260200160405190810160405280929190818152602001828054610c02906145c7565b8015610c4f5780601f10610c2457610100808354040283529160200191610c4f565b820191906000526020600020905b815481529060010190602001808311610c3257829003601f168201915b5050505050815260200160028201548152602001600382015481526020016004820154815260200160058201548152602001600682018054610c90906145c7565b80601f0160208091040260200160405190810160405280929190818152602001828054610cbc906145c7565b8015610d095780601f10610cde57610100808354040283529160200191610d09565b820191906000526020600020905b815481529060010190602001808311610cec57829003601f168201915b50505050508152602001600782015481526020016008820154815260200160098201548152602001600a820154815250508152602001601282018054610d4e906145c7565b80601f0160208091040260200160405190810160405280929190818152602001828054610d7a906145c7565b8015610dc75780601f10610d9c57610100808354040283529160200191610dc7565b820191906000526020600020905b815481529060010190602001808311610daa57829003601f168201915b5050505050815260200160138201805480602002602001604051908101604052809291908181526020016000905b82821015610ea1578382906000526020600020018054610e14906145c7565b80601f0160208091040260200160405190810160405280929190818152602001828054610e40906145c7565b8015610e8d5780601f10610e6257610100808354040283529160200191610e8d565b820191906000526020600020905b815481529060010190602001808311610e7057829003601f168201915b505050505081526020019060010190610df5565b50505050815260200160148201805480602002602001604051908101604052809291908181526020016000905b82821015610f7a578382906000526020600020018054610eed906145c7565b80601f0160208091040260200160405190810160405280929190818152602001828054610f19906145c7565b8015610f665780601f10610f3b57610100808354040283529160200191610f66565b820191906000526020600020905b815481529060010190602001808311610f4957829003601f168201915b505050505081526020019060010190610ece565b50505050815260200160158201805480602002602001604051908101604052809291908181526020016000905b82821015611053578382906000526020600020018054610fc6906145c7565b80601f0160208091040260200160405190810160405280929190818152602001828054610ff2906145c7565b801561103f5780601f106110145761010080835404028352916020019161103f565b820191906000526020600020905b81548152906001019060200180831161102257829003601f168201915b505050505081526020019060010190610fa7565b50505050815260200160168201805461106b906145c7565b80601f0160208091040260200160405190810160405280929190818152602001828054611097906145c7565b80156110e45780601f106110b9576101008083540402835291602001916110e4565b820191906000526020600020905b8154815290600101906020018083116110c757829003601f168201915b505050505081526020016017820180546110fd906145c7565b80601f0160208091040260200160405190810160405280929190818152602001828054611129906145c7565b80156111765780601f1061114b57610100808354040283529160200191611176565b820191906000526020600020905b81548152906001019060200180831161115957829003601f168201915b5050505050815260200160188201805461118f906145c7565b80601f01602080910402602001604051908101604052809291908181526020018280546111bb906145c7565b80156112085780601f106111dd57610100808354040283529160200191611208565b820191906000526020600020905b8154815290600101906020018083116111eb57829003601f168201915b505050505081526020016019820160009054906101000a900473ffffffffffffffffffffffffffffffffffffffff1673ffffffffffffffffffffffffffffffffffffffff1673ffffffffffffffffffffffffffffffffffffffff1681526020016019820160149054906101000a900460ff161515151581526020016019820160159054906101000a900460ff161515151581526020016019820160169054906101000a900460ff161515151581525050905092915050565b600073ffffffffffffffffffffffffffffffffffffffff16600160008d79ffffffffffffffffffffffffffffffffffffffffffffffffffff191679ffffffffffffffffffffffffffffffffffffffffffffffffffff1916815260200190815260200160002060009054906101000a900473ffffffffffffffffffffffffffffffffffffffff1673ffffffffffffffffffffffffffffffffffffffff161461139c576040517f08c379a000000000000000000000000000000000000000000000000000000000815260040161139390614a9e565b60405180910390fd5b6000604051806101e001604052804281526020018c81526020018b81526020018a8152602001898152602001888152602001878152602001868152602001858152602001848152602001838152602001600073ffffffffffffffffffffffffffffffffffffffff168152602001600015158152602001600015158152602001600015158152509050806000808e79ffffffffffffffffffffffffffffffffffffffffffffffffffff191679ffffffffffffffffffffffffffffffffffffffffffffffffffff191681526020019081526020016000206000820151816000015560208201518160010160008201518160000190816114999190614916565b5060208201518160010190816114af9190614916565b5060408201518160020190816114c59190614916565b50505060408201518160040160008201518160000190816114e69190614916565b5060208201518160010190816114fc9190614916565b5060408201518160020190816115129190614916565b50505060608201518160070160008201518160000190816115339190614916565b5060208201518160010190816115499190614916565b5060408201518160020155606082015181600301556080820151816004015560a0820151816005015560c08201518160060190816115879190614916565b5060e082015181600701556101008201518160080155610120820151816009015561014082015181600a0155505060808201518160120190816115ca9190614916565b5060a08201518160130190805190602001906115e79291906130d4565b5060c08201518160140190805190602001906116049291906130d4565b5060e08201518160150190805190602001906116219291906130d4565b506101008201518160160190816116389190614916565b5061012082015181601701908161164f9190614916565b506101408201518160180190816116669190614916565b506101608201518160190160006101000a81548173ffffffffffffffffffffffffffffffffffffffff021916908373ffffffffffffffffffffffffffffffffffffffff1602179055506101808201518160190160146101000a81548160ff0219169083151502179055506101a08201518160190160156101000a81548160ff0219169083151502179055506101c08201518160190160166101000a81548160ff02191690831515021790555090505033600160008e79ffffffffffffffffffffffffffffffffffffffffffffffffffff191679ffffffffffffffffffffffffffffffffffffffffffffffffffff1916815260200190815260200160002060006101000a81548173ffffffffffffffffffffffffffffffffffffffff021916908373ffffffffffffffffffffffffffffffffffffffff1602179055503373ffffffffffffffffffffffffffffffffffffffff168c79ffffffffffffffffffffffffffffffffffffffffffffffffffff19167fb33818a9e5a811c9aab3a6a5be602cba781d631797144964a715ff66e01d54b14260405161180591906149e8565b60405180910390a3505050505050505050505050565b600060205280600052604060002060009150905080600001549080600101604051806060016040529081600082018054611854906145c7565b80601f0160208091040260200160405190810160405280929190818152602001828054611880906145c7565b80156118cd5780601f106118a2576101008083540402835291602001916118cd565b820191906000526020600020905b8154815290600101906020018083116118b057829003601f168201915b505050505081526020016001820180546118e6906145c7565b80601f0160208091040260200160405190810160405280929190818152602001828054611912906145c7565b801561195f5780601f106119345761010080835404028352916020019161195f565b820191906000526020600020905b81548152906001019060200180831161194257829003601f168201915b50505050508152602001600282018054611978906145c7565b80601f01602080910402602001604051908101604052809291908181526020018280546119a4906145c7565b80156119f15780601f106119c6576101008083540402835291602001916119f1565b820191906000526020600020905b8154815290600101906020018083116119d457829003601f168201915b5050505050815250509080600401604051806060016040529081600082018054611a1a906145c7565b80601f0160208091040260200160405190810160405280929190818152602001828054611a46906145c7565b8015611a935780601f10611a6857610100808354040283529160200191611a93565b820191906000526020600020905b815481529060010190602001808311611a7657829003601f168201915b50505050508152602001600182018054611aac906145c7565b80601f0160208091040260200160405190810160405280929190818152602001828054611ad8906145c7565b8015611b255780601f10611afa57610100808354040283529160200191611b25565b820191906000526020600020905b815481529060010190602001808311611b0857829003601f168201915b50505050508152602001600282018054611b3e906145c7565b80601f0160208091040260200160405190810160405280929190818152602001828054611b6a906145c7565b8015611bb75780601f10611b8c57610100808354040283529160200191611bb7565b820191906000526020600020905b815481529060010190602001808311611b9a57829003601f168201915b505050505081525050908060070160405180610160016040529081600082018054611be1906145c7565b80601f0160208091040260200160405190810160405280929190818152602001828054611c0d906145c7565b8015611c5a5780601f10611c2f57610100808354040283529160200191611c5a565b820191906000526020600020905b815481529060010190602001808311611c3d57829003601f168201915b50505050508152602001600182018054611c73906145c7565b80601f0160208091040260200160405190810160405280929190818152602001828054611c9f906145c7565b8015611cec5780601f10611cc157610100808354040283529160200191611cec565b820191906000526020600020905b815481529060010190602001808311611ccf57829003601f168201915b5050505050815260200160028201548152602001600382015481526020016004820154815260200160058201548152602001600682018054611d2d906145c7565b80601f0160208091040260200160405190810160405280929190818152602001828054611d59906145c7565b8015611da65780601f10611d7b57610100808354040283529160200191611da6565b820191906000526020600020905b815481529060010190602001808311611d8957829003601f168201915b50505050508152602001600782015481526020016008820154815260200160098201548152602001600a8201548152505090806012018054611de7906145c7565b80601f0160208091040260200160405190810160405280929190818152602001828054611e13906145c7565b8015611e605780601f10611e3557610100808354040283529160200191611e60565b820191906000526020600020905b815481529060010190602001808311611e4357829003601f168201915b505050505090806016018054611e75906145c7565b80601f0160208091040260200160405190810160405280929190818152602001828054611ea1906145c7565b8015611eee5780601f10611ec357610100808354040283529160200191611eee565b820191906000526020600020905b815481529060010190602001808311611ed157829003601f168201915b505050505090806017018054611f03906145c7565b80601f0160208091040260200160405190810160405280929190818152602001828054611f2f906145c7565b8015611f7c5780601f10611f5157610100808354040283529160200191611f7c565b820191906000526020600020905b815481529060010190602001808311611f5f57829003601f168201915b505050505090806018018054611f91906145c7565b80601f0160208091040260200160405190810160405280929190818152602001828054611fbd906145c7565b801561200a5780601f10611fdf5761010080835404028352916020019161200a565b820191906000526020600020905b815481529060010190602001808311611fed57829003601f168201915b5050505050908060190160009054906101000a900473ffffffffffffffffffffffffffffffffffffffff16908060190160149054906101000a900460ff16908060190160159054906101000a900460ff16908060190160169054906101000a900460ff1690508c565b813373ffffffffffffffffffffffffffffffffffffffff16600160008379ffffffffffffffffffffffffffffffffffffffffffffffffffff191679ffffffffffffffffffffffffffffffffffffffffffffffffffff1916815260200190815260200160002060009054906101000a900473ffffffffffffffffffffffffffffffffffffffff1673ffffffffffffffffffffffffffffffffffffffff161461214f576040517f08c379a000000000000000000000000000000000000000000000000000000000815260040161214690614b30565b60405180910390fd5b6000808479ffffffffffffffffffffffffffffffffffffffffffffffffffff191679ffffffffffffffffffffffffffffffffffffffffffffffffffff1916815260200190815260200160002060190160149054906101000a900460ff166121eb576040517f08c379a00000000000000000000000000000000000000000000000000000000081526004016121e290614b9c565b60405180910390fd5b6000808479ffffffffffffffffffffffffffffffffffffffffffffffffffff191679ffffffffffffffffffffffffffffffffffffffffffffffffffff1916815260200190815260200160002060190160159054906101000a900460ff1615612288576040517f08c379a000000000000000000000000000000000000000000000000000000000815260040161227f90614c08565b60405180910390fd5b6000808479ffffffffffffffffffffffffffffffffffffffffffffffffffff191679ffffffffffffffffffffffffffffffffffffffffffffffffffff1916815260200190815260200160002060190160169054906101000a900460ff16612324576040517f08c379a000000000000000000000000000000000000000000000000000000000815260040161231b90614c74565b60405180910390fd5b8279ffffffffffffffffffffffffffffffffffffffffffffffffffff19167f953fe04a94ff7ce86dc3b4bdddcb01910b42e877955ad5013702d3b195e59fc88342604051612373929190614a03565b60405180910390a2505050565b813373ffffffffffffffffffffffffffffffffffffffff166000808379ffffffffffffffffffffffffffffffffffffffffffffffffffff191679ffffffffffffffffffffffffffffffffffffffffffffffffffff1916815260200190815260200160002060190160009054906101000a900473ffffffffffffffffffffffffffffffffffffffff1673ffffffffffffffffffffffffffffffffffffffff161461245e576040517f08c379a000000000000000000000000000000000000000000000000000000000815260040161245590614525565b60405180910390fd5b6000808479ffffffffffffffffffffffffffffffffffffffffffffffffffff191679ffffffffffffffffffffffffffffffffffffffffffffffffffff1916815260200190815260200160002060190160149054906101000a900460ff166124fa576040517f08c379a00000000000000000000000000000000000000000000000000000000081526004016124f190614b9c565b60405180910390fd5b6000808479ffffffffffffffffffffffffffffffffffffffffffffffffffff191679ffffffffffffffffffffffffffffffffffffffffffffffffffff1916815260200190815260200160002060190160159054906101000a900460ff1615612597576040517f08c379a000000000000000000000000000000000000000000000000000000000815260040161258e90614c08565b60405180910390fd5b6000808479ffffffffffffffffffffffffffffffffffffffffffffffffffff191679ffffffffffffffffffffffffffffffffffffffffffffffffffff1916815260200190815260200160002060190160169054906101000a900460ff16612633576040517f08c379a000000000000000000000000000000000000000000000000000000000815260040161262a90614c74565b60405180910390fd5b3373ffffffffffffffffffffffffffffffffffffffff166108fc839081150290604051600060405180830381858888f19350505050158015612679573d6000803e3d6000fd5b5060016000808579ffffffffffffffffffffffffffffffffffffffffffffffffffff191679ffffffffffffffffffffffffffffffffffffffffffffffffffff1916815260200190815260200160002060190160156101000a81548160ff02191690831515021790555060008060008579ffffffffffffffffffffffffffffffffffffffffffffffffffff191679ffffffffffffffffffffffffffffffffffffffffffffffffffff1916815260200190815260200160002060190160166101000a81548160ff0219169083151502179055508279ffffffffffffffffffffffffffffffffffffffffffffffffffff19167f398abc1c2b2e46ec68f879c3ac11be927ede743d80d52d9968cba00343bf074f8342604051612799929190614a03565b60405180910390a2505050565b60016020528060005260406000206000915054906101000a900473ffffffffffffffffffffffffffffffffffffffff1681565b803373ffffffffffffffffffffffffffffffffffffffff16600160008379ffffffffffffffffffffffffffffffffffffffffffffffffffff191679ffffffffffffffffffffffffffffffffffffffffffffffffffff1916815260200190815260200160002060009054906101000a900473ffffffffffffffffffffffffffffffffffffffff1673ffffffffffffffffffffffffffffffffffffffff16146128b5576040517f08c379a00000000000000000000000000000000000000000000000000000000081526004016128ac90614b30565b60405180910390fd5b60008060008479ffffffffffffffffffffffffffffffffffffffffffffffffffff191679ffffffffffffffffffffffffffffffffffffffffffffffffffff191681526020019081526020016000209050806007016004015442101561294f576040517f08c379a000000000000000000000000000000000000000000000000000000000815260040161294690614ce0565b60405180910390fd5b8060190160159054906101000a900460ff16156129a1576040517f08c379a000000000000000000000000000000000000000000000000000000000815260040161299890614c08565b60405180910390fd5b60008160070160080154905060008260190160146101000a81548160ff02191690831515021790555060018260190160156101000a81548160ff0219169083151502179055508160190160009054906101000a900473ffffffffffffffffffffffffffffffffffffffff1673ffffffffffffffffffffffffffffffffffffffff166108fc829081150290604051600060405180830381858888f19350505050158015612a51573d6000803e3d6000fd5b508379ffffffffffffffffffffffffffffffffffffffffffffffffffff19167f398abc1c2b2e46ec68f879c3ac11be927ede743d80d52d9968cba00343bf074f8242604051612aa1929190614a03565b60405180910390a250505050565b8a3373ffffffffffffffffffffffffffffffffffffffff16600160008379ffffffffffffffffffffffffffffffffffffffffffffffffffff191679ffffffffffffffffffffffffffffffffffffffffffffffffffff1916815260200190815260200160002060009054906101000a900473ffffffffffffffffffffffffffffffffffffffff1673ffffffffffffffffffffffffffffffffffffffff1614612b8b576040517f08c379a0000000000000000000000000000000000000000000000000000000008152600401612b8290614b30565b60405180910390fd5b8a604051602001612b9c9190614581565b604051602081830303815290604052805190602001206000808e79ffffffffffffffffffffffffffffffffffffffffffffffffffff191679ffffffffffffffffffffffffffffffffffffffffffffffffffff19168152602001908152602001600020601801604051602001612c119190614690565b6040516020818303038152906040528051906020012014612c67576040517f08c379a0000000000000000000000000000000000000000000000000000000008152600401612c5e906146f3565b60405180910390fd5b60008060008e79ffffffffffffffffffffffffffffffffffffffffffffffffffff191679ffffffffffffffffffffffffffffffffffffffffffffffffffff1916815260200190815260200160002090508a816012019081612cc89190614916565b5089816013019080519060200190612ce19291906130d4565b5088816014019080519060200190612cfa9291906130d4565b5087816015019080519060200190612d139291906130d4565b5086816016019081612d259190614916565b5085816017019081612d379190614916565b50848160190160006101000a81548173ffffffffffffffffffffffffffffffffffffffff021916908373ffffffffffffffffffffffffffffffffffffffff1602179055508381600701600301819055508281600701600401819055508c79ffffffffffffffffffffffffffffffffffffffffffffffffffff19167f0cc49eaa5a4e01877eb9ef0128739d175fbccda52502904818ec03ac3d23d12f42604051612de091906149e8565b60405180910390a250505050505050505050505050565b803373ffffffffffffffffffffffffffffffffffffffff16600160008379ffffffffffffffffffffffffffffffffffffffffffffffffffff191679ffffffffffffffffffffffffffffffffffffffffffffffffffff1916815260200190815260200160002060009054906101000a900473ffffffffffffffffffffffffffffffffffffffff1673ffffffffffffffffffffffffffffffffffffffff1614612ed3576040517f08c379a0000000000000000000000000000000000000000000000000000000008152600401612eca90614b30565b60405180910390fd5b6000808379ffffffffffffffffffffffffffffffffffffffffffffffffffff191679ffffffffffffffffffffffffffffffffffffffffffffffffffff1916815260200190815260200160002060190160169054906101000a900460ff16612f6f576040517f08c379a0000000000000000000000000000000000000000000000000000000008152600401612f6690614c74565b60405180910390fd5b60008060008479ffffffffffffffffffffffffffffffffffffffffffffffffffff191679ffffffffffffffffffffffffffffffffffffffffffffffffffff1916815260200190815260200160002060190160166101000a81548160ff0219169083151502179055508179ffffffffffffffffffffffffffffffffffffffffffffffffffff19167f47933618ed5daf6ec135a2d05b0586259833ca21b20043c6e4c525cb0502c0dc4260405161302491906149e8565b60405180910390a25050565b604051806101e001604052806000815260200161304b61312d565b815260200161305861312d565b815260200161306561314e565b815260200160608152602001606081526020016060815260200160608152602001606081526020016060815260200160608152602001600073ffffffffffffffffffffffffffffffffffffffff1681526020016000151581526020016000151581526020016000151581525090565b82805482825590600052602060002090810192821561311c579160200282015b8281111561311b57825182908161310b9190614916565b50916020019190600101906130f4565b5b50905061312991906131a8565b5090565b60405180606001604052806060815260200160608152602001606081525090565b60405180610160016040528060608152602001606081526020016000815260200160008152602001600081526020016000815260200160608152602001600081526020016000815260200160008152602001600081525090565b5b808211156131c857600081816131bf91906131cc565b506001016131a9565b5090565b5080546131d8906145c7565b6000825580601f106131ea5750613209565b601f016020900490600052602060002090810190613208919061320c565b5b50565b5b8082111561322557600081600090555060010161320d565b5090565b6000604051905090565b600080fd5b600080fd5b60007fffffffffffff000000000000000000000000000000000000000000000000000082169050919050565b6132728161323d565b811461327d57600080fd5b50565b60008135905061328f81613269565b92915050565b600080fd5b600080fd5b6000601f19601f8301169050919050565b7f4e487b7100000000000000000000000000000000000000000000000000000000600052604160045260246000fd5b6132e88261329f565b810181811067ffffffffffffffff82111715613307576133066132b0565b5b80604052505050565b600061331a613229565b905061332682826132df565b919050565b600067ffffffffffffffff821115613346576133456132b0565b5b61334f8261329f565b9050602081019050919050565b82818337600083830152505050565b600061337e6133798461332b565b613310565b90508281526020810184848401111561339a5761339961329a565b5b6133a584828561335c565b509392505050565b600082601f8301126133c2576133c1613295565b5b81356133d284826020860161336b565b91505092915050565b60008060008060008060c087890312156133f8576133f7613233565b5b600061340689828a01613280565b965050602087013567ffffffffffffffff81111561342757613426613238565b5b61343389828a016133ad565b955050604087013567ffffffffffffffff81111561345457613453613238565b5b61346089828a016133ad565b945050606087013567ffffffffffffffff81111561348157613480613238565b5b61348d89828a016133ad565b935050608087013567ffffffffffffffff8111156134ae576134ad613238565b5b6134ba89828a016133ad565b92505060a087013567ffffffffffffffff8111156134db576134da613238565b5b6134e789828a016133ad565b9150509295509295509295565b6000806040838503121561350b5761350a613233565b5b600061351985828601613280565b925050602083013567ffffffffffffffff81111561353a57613539613238565b5b613546858286016133ad565b9150509250929050565b6000819050919050565b61356381613550565b82525050565b600081519050919050565b600082825260208201905092915050565b60005b838110156135a3578082015181840152602081019050613588565b60008484015250505050565b60006135ba82613569565b6135c48185613574565b93506135d4818560208601613585565b6135dd8161329f565b840191505092915050565b6000606083016000830151848203600086015261360582826135af565b9150506020830151848203602086015261361f82826135af565b9150506040830151848203604086015261363982826135af565b9150508091505092915050565b6000819050919050565b61365981613646565b82525050565b600061016083016000830151848203600086015261367d82826135af565b9150506020830151848203602086015261369782826135af565b91505060408301516136ac604086018261355a565b5060608301516136bf606086018261355a565b5060808301516136d2608086018261355a565b5060a08301516136e560a086018261355a565b5060c083015184820360c08601526136fd82826135af565b91505060e083015161371260e086018261355a565b5061010083015161372761010086018261355a565b5061012083015161373c610120860182613650565b50610140830151613751610140860182613650565b508091505092915050565b600081519050919050565b600082825260208201905092915050565b6000819050602082019050919050565b600061379483836135af565b905092915050565b6000602082019050919050565b60006137b48261375c565b6137be8185613767565b9350836020820285016137d085613778565b8060005b8581101561380c57848403895281516137ed8582613788565b94506137f88361379c565b925060208a019950506001810190506137d4565b50829750879550505050505092915050565b600073ffffffffffffffffffffffffffffffffffffffff82169050919050565b60006138498261381e565b9050919050565b6138598161383e565b82525050565b60008115159050919050565b6138748161385f565b82525050565b60006101e083016000830151613893600086018261355a565b50602083015184820360208601526138ab82826135e8565b915050604083015184820360408601526138c582826135e8565b915050606083015184820360608601526138df828261365f565b915050608083015184820360808601526138f982826135af565b91505060a083015184820360a086015261391382826137a9565b91505060c083015184820360c086015261392d82826137a9565b91505060e083015184820360e086015261394782826137a9565b91505061010083015184820361010086015261396382826135af565b91505061012083015184820361012086015261397f82826135af565b91505061014083015184820361014086015261399b82826135af565b9150506101608301516139b2610160860182613850565b506101808301516139c761018086018261386b565b506101a08301516139dc6101a086018261386b565b506101c08301516139f16101c086018261386b565b508091505092915050565b60006020820190508181036000830152613a16818461387a565b905092915050565b600080fd5b600080fd5b600060608284031215613a3e57613a3d613a1e565b5b613a486060613310565b9050600082013567ffffffffffffffff811115613a6857613a67613a23565b5b613a74848285016133ad565b600083015250602082013567ffffffffffffffff811115613a9857613a97613a23565b5b613aa4848285016133ad565b602083015250604082013567ffffffffffffffff811115613ac857613ac7613a23565b5b613ad4848285016133ad565b60408301525092915050565b613ae981613550565b8114613af457600080fd5b50565b600081359050613b0681613ae0565b92915050565b613b1581613646565b8114613b2057600080fd5b50565b600081359050613b3281613b0c565b92915050565b60006101608284031215613b4f57613b4e613a1e565b5b613b5a610160613310565b9050600082013567ffffffffffffffff811115613b7a57613b79613a23565b5b613b86848285016133ad565b600083015250602082013567ffffffffffffffff811115613baa57613ba9613a23565b5b613bb6848285016133ad565b6020830152506040613bca84828501613af7565b6040830152506060613bde84828501613af7565b6060830152506080613bf284828501613af7565b60808301525060a0613c0684828501613af7565b60a08301525060c082013567ffffffffffffffff811115613c2a57613c29613a23565b5b613c36848285016133ad565b60c08301525060e0613c4a84828501613af7565b60e083015250610100613c5f84828501613af7565b61010083015250610120613c7584828501613b23565b61012083015250610140613c8b84828501613b23565b6101408301525092915050565b600067ffffffffffffffff821115613cb357613cb26132b0565b5b602082029050602081019050919050565b600080fd5b6000613cdc613cd784613c98565b613310565b90508083825260208201905060208402830185811115613cff57613cfe613cc4565b5b835b81811015613d4657803567ffffffffffffffff811115613d2457613d23613295565b5b808601613d3189826133ad565b85526020850194505050602081019050613d01565b5050509392505050565b600082601f830112613d6557613d64613295565b5b8135613d75848260208601613cc9565b91505092915050565b60008060008060008060008060008060006101608c8e031215613da457613da3613233565b5b6000613db28e828f01613280565b9b505060208c013567ffffffffffffffff811115613dd357613dd2613238565b5b613ddf8e828f01613a28565b9a505060408c013567ffffffffffffffff811115613e0057613dff613238565b5b613e0c8e828f01613a28565b99505060608c013567ffffffffffffffff811115613e2d57613e2c613238565b5b613e398e828f01613b38565b98505060808c013567ffffffffffffffff811115613e5a57613e59613238565b5b613e668e828f016133ad565b97505060a08c013567ffffffffffffffff811115613e8757613e86613238565b5b613e938e828f01613d50565b96505060c08c013567ffffffffffffffff811115613eb457613eb3613238565b5b613ec08e828f01613d50565b95505060e08c013567ffffffffffffffff811115613ee157613ee0613238565b5b613eed8e828f01613d50565b9450506101008c013567ffffffffffffffff811115613f0f57613f0e613238565b5b613f1b8e828f016133ad565b9350506101208c013567ffffffffffffffff811115613f3d57613f3c613238565b5b613f498e828f016133ad565b9250506101408c013567ffffffffffffffff811115613f6b57613f6a613238565b5b613f778e828f016133ad565b9150509295989b509295989b9093969950565b600060208284031215613fa057613f9f613233565b5b6000613fae84828501613280565b91505092915050565b613fc081613550565b82525050565b60006060830160008301518482036000860152613fe382826135af565b91505060208301518482036020860152613ffd82826135af565b9150506040830151848203604086015261401782826135af565b9150508091505092915050565b600061016083016000830151848203600086015261404282826135af565b9150506020830151848203602086015261405c82826135af565b9150506040830151614071604086018261355a565b506060830151614084606086018261355a565b506080830151614097608086018261355a565b5060a08301516140aa60a086018261355a565b5060c083015184820360c08601526140c282826135af565b91505060e08301516140d760e086018261355a565b506101008301516140ec61010086018261355a565b50610120830151614101610120860182613650565b50610140830151614116610140860182613650565b508091505092915050565b600082825260208201905092915050565b600061413d82613569565b6141478185614121565b9350614157818560208601613585565b6141608161329f565b840191505092915050565b6141748161383e565b82525050565b6141838161385f565b82525050565b60006101808201905061419f600083018f613fb7565b81810360208301526141b1818e613fc6565b905081810360408301526141c5818d613fc6565b905081810360608301526141d9818c614024565b905081810360808301526141ed818b614132565b905081810360a0830152614201818a614132565b905081810360c08301526142158189614132565b905081810360e08301526142298188614132565b905061423961010083018761416b565b61424761012083018661417a565b61425561014083018561417a565b61426361016083018461417a565b9d9c50505050505050505050505050565b6000806040838503121561428b5761428a613233565b5b600061429985828601613280565b92505060206142aa85828601613af7565b9150509250929050565b60006020820190506142c9600083018461416b565b92915050565b6142d88161383e565b81146142e357600080fd5b50565b6000813590506142f5816142cf565b92915050565b60008060008060008060008060008060006101608c8e03121561432157614320613233565b5b600061432f8e828f01613280565b9b505060208c013567ffffffffffffffff8111156143505761434f613238565b5b61435c8e828f016133ad565b9a505060408c013567ffffffffffffffff81111561437d5761437c613238565b5b6143898e828f016133ad565b99505060608c013567ffffffffffffffff8111156143aa576143a9613238565b5b6143b68e828f01613d50565b98505060808c013567ffffffffffffffff8111156143d7576143d6613238565b5b6143e38e828f01613d50565b97505060a08c013567ffffffffffffffff81111561440457614403613238565b5b6144108e828f01613d50565b96505060c08c013567ffffffffffffffff81111561443157614430613238565b5b61443d8e828f016133ad565b95505060e08c013567ffffffffffffffff81111561445e5761445d613238565b5b61446a8e828f016133ad565b94505061010061447c8e828f016142e6565b93505061012061448e8e828f01613af7565b9250506101406144a08e828f01613af7565b9150509295989b509295989b9093969950565b7f4f6e6c79207468652074656e616e742063616e20706572666f726d207468697360008201527f20616374696f6e00000000000000000000000000000000000000000000000000602082015250565b600061450f602783614121565b915061451a826144b3565b604082019050919050565b6000602082019050818103600083015261453e81614502565b9050919050565b600081905092915050565b600061455b82613569565b6145658185614545565b9350614575818560208601613585565b80840191505092915050565b600061458d8284614550565b915081905092915050565b7f4e487b7100000000000000000000000000000000000000000000000000000000600052602260045260246000fd5b600060028204905060018216806145df57607f821691505b6020821081036145f2576145f1614598565b5b50919050565b60008190508160005260206000209050919050565b6000815461461a816145c7565b6146248186614545565b9450600182166000811461463f576001811461465457614687565b60ff1983168652811515820286019350614687565b61465d856145f8565b60005b8381101561467f57815481890152600182019150602081019050614660565b838801955050505b50505092915050565b600061469c828461460d565b915081905092915050565b7f496e636f72726563742070617373776f72640000000000000000000000000000600082015250565b60006146dd601283614121565b91506146e8826146a7565b602082019050919050565b6000602082019050818103600083015261470c816146d0565b9050919050565b7f496e636f7272656374206465706f73697420616d6f756e740000000000000000600082015250565b6000614749601883614121565b915061475482614713565b602082019050919050565b600060208201905081810360008301526147788161473c565b9050919050565b60006020601f8301049050919050565b600082821b905092915050565b6000600883026147cc7fffffffffffffffffffffffffffffffffffffffffffffffffffffffffffffffff8261478f565b6147d6868361478f565b95508019841693508086168417925050509392505050565b6000819050919050565b600061481361480e61480984613550565b6147ee565b613550565b9050919050565b6000819050919050565b61482d836147f8565b6148416148398261481a565b84845461479c565b825550505050565b600090565b614856614849565b614861818484614824565b505050565b5b818110156148855761487a60008261484e565b600181019050614867565b5050565b601f8211156148ca5761489b816145f8565b6148a48461477f565b810160208510156148b3578190505b6148c76148bf8561477f565b830182614866565b50505b505050565b600082821c905092915050565b60006148ed600019846008026148cf565b1980831691505092915050565b600061490683836148dc565b9150826002028217905092915050565b61491f82613569565b67ffffffffffffffff811115614938576149376132b0565b5b61494282546145c7565b61494d828285614889565b600060209050601f831160018114614980576000841561496e578287015190505b61497885826148fa565b8655506149e0565b601f19841661498e866145f8565b60005b828110156149b657848901518255600182019150602085019450602081019050614991565b868310156149d357848901516149cf601f8916826148dc565b8355505b6001600288020188555050505b505050505050565b60006020820190506149fd6000830184613fb7565b92915050565b6000604082019050614a186000830185613fb7565b614a256020830184613fb7565b9392505050565b7f436f6e7472616374207769746820676976656e206964656e746966696572206160008201527f6c72656164792065786973747300000000000000000000000000000000000000602082015250565b6000614a88602d83614121565b9150614a9382614a2c565b604082019050919050565b60006020820190508181036000830152614ab781614a7b565b9050919050565b7f4f6e6c79206c616e646c6f72642063616e20706572666f726d2074686973206160008201527f6374696f6e000000000000000000000000000000000000000000000000000000602082015250565b6000614b1a602583614121565b9150614b2582614abe565b604082019050919050565b60006020820190508181036000830152614b4981614b0d565b9050919050565b7f4465706f736974206e6f74207061696400000000000000000000000000000000600082015250565b6000614b86601083614121565b9150614b9182614b50565b602082019050919050565b60006020820190508181036000830152614bb581614b79565b9050919050565b7f4465706f73697420616c72656164792072656c65617365640000000000000000600082015250565b6000614bf2601883614121565b9150614bfd82614bbc565b602082019050919050565b60006020820190508181036000830152614c2181614be5565b9050919050565b7f436f6e7472616374206e6f742061637469766500000000000000000000000000600082015250565b6000614c5e601383614121565b9150614c6982614c28565b602082019050919050565b60006020820190508181036000830152614c8d81614c51565b9050919050565b7f436f6e7472616374206e6f7420656e6465642079657400000000000000000000600082015250565b6000614cca601683614121565b9150614cd582614c94565b602082019050919050565b60006020820190508181036000830152614cf981614cbd565b905091905056fea2646970667358221220a6737cf35a369c3bd2b2ac849418f398afe7e1aa9a8c08bfa6db667a6ae0f59364736f6c63430008180033",
  "linkReferences": {},
  "deployedLinkReferences": {}
}