{
  "_format": "hh-sol-artifact-1",
  "contractName": "HouseRentalContract",
  "sourceName": "contracts/UpdatedRentalContract.sol",
  "abi": [
    {
      "anonymous": false,
      "inputs": [
        {
          "indexed": true,
          "internalType": "bytes6",
          "name": "contractId",
          "type": "bytes6"
        },
        {
          "indexed": false,
          "internalType": "string",
          "name": "action",
          "type": "string"
        }
      ],
      "name": "ContractUpdated",
      "type": "event"
    },
    {
      "inputs": [
        {
          "internalType": "bytes6",
          "name": "",
          "type": "bytes6"
        },
        {
          "internalType": "uint256",
          "name": "",
          "type": "uint256"
        }
      ],
      "name": "contractAuditTrails",
      "outputs": [
        {
          "internalType": "uint256",
          "name": "timestamp",
          "type": "uint256"
        },
        {
          "internalType": "string",
          "name": "action",
          "type": "string"
        },
        {
          "internalType": "address",
          "name": "actor",
          "type": "address"
        }
      ],
      "stateMutability": "view",
      "type": "function"
    },
    {
      "inputs": [
        {
          "internalType": "bytes6",
          "name": "",
          "type": "bytes6"
        }
      ],
      "name": "contractOwners",
      "outputs": [
        {
          "internalType": "address",
          "name": "",
          "type": "address"
        }
      ],
      "stateMutability": "view",
      "type": "function"
    },
    {
      "inputs": [
        {
          "internalType": "bytes6",
          "name": "",
          "type": "bytes6"
        }
      ],
      "name": "contracts",
      "outputs": [
        {
          "internalType": "uint256",
          "name": "creationDate",
          "type": "uint256"
        },
        {
          "components": [
            {
              "internalType": "string",
              "name": "name",
              "type": "string"
            },
            {
              "internalType": "string",
              "name": "identificationNumber",
              "type": "string"
            },
            {
              "internalType": "string",
              "name": "house_address",
              "type": "string"
            }
          ],
          "internalType": "struct HouseRentalContract.PersonalInfo",
          "name": "landlord",
          "type": "tuple"
        },
        {
          "components": [
            {
              "internalType": "string",
              "name": "name",
              "type": "string"
            },
            {
              "internalType": "string",
              "name": "identificationNumber",
              "type": "string"
            },
            {
              "internalType": "string",
              "name": "house_address",
              "type": "string"
            }
          ],
          "internalType": "struct HouseRentalContract.PersonalInfo",
          "name": "tenant",
          "type": "tuple"
        },
        {
          "components": [
            {
              "internalType": "string",
              "name": "rent_address",
              "type": "string"
            },
            {
              "internalType": "string",
              "name": "buildingType",
              "type": "string"
            },
            {
              "internalType": "uint256",
              "name": "rentPeriod",
              "type": "uint256"
            },
            {
              "internalType": "uint256",
              "name": "effectiveDate",
              "type": "uint256"
            },
            {
              "internalType": "uint256",
              "name": "monthlyRent",
              "type": "uint256"
            },
            {
              "internalType": "string",
              "name": "paymentMethod",
              "type": "string"
            },
            {
              "internalType": "uint256",
              "name": "maxOverduePeriod",
              "type": "uint256"
            },
            {
              "internalType": "uint256",
              "name": "deposit",
              "type": "uint256"
            },
            {
              "internalType": "uint256",
              "name": "utilityDeposit",
              "type": "uint256"
            },
            {
              "internalType": "uint256",
              "name": "advanceRental",
              "type": "uint256"
            },
            {
              "internalType": "int256",
              "name": "latitude",
              "type": "int256"
            },
            {
              "internalType": "int256",
              "name": "longitude",
              "type": "int256"
            }
          ],
          "internalType": "struct HouseRentalContract.HouseDetails",
          "name": "houseDetails",
          "type": "tuple"
        },
        {
          "internalType": "string",
          "name": "agreementDetails",
          "type": "string"
        },
        {
          "internalType": "string",
          "name": "landlordSignature",
          "type": "string"
        },
        {
          "internalType": "string",
          "name": "tenantSignature",
          "type": "string"
        }
      ],
      "stateMutability": "view",
      "type": "function"
    },
    {
      "inputs": [
        {
          "internalType": "bytes6",
          "name": "_uniqueIdentifier",
          "type": "bytes6"
        },
        {
          "components": [
            {
              "internalType": "string",
              "name": "name",
              "type": "string"
            },
            {
              "internalType": "string",
              "name": "identificationNumber",
              "type": "string"
            },
            {
              "internalType": "string",
              "name": "house_address",
              "type": "string"
            }
          ],
          "internalType": "struct HouseRentalContract.PersonalInfo",
          "name": "_landlord",
          "type": "tuple"
        },
        {
          "components": [
            {
              "internalType": "string",
              "name": "name",
              "type": "string"
            },
            {
              "internalType": "string",
              "name": "identificationNumber",
              "type": "string"
            },
            {
              "internalType": "string",
              "name": "house_address",
              "type": "string"
            }
          ],
          "internalType": "struct HouseRentalContract.PersonalInfo",
          "name": "_tenant",
          "type": "tuple"
        },
        {
          "components": [
            {
              "internalType": "string",
              "name": "rent_address",
              "type": "string"
            },
            {
              "internalType": "string",
              "name": "buildingType",
              "type": "string"
            },
            {
              "internalType": "uint256",
              "name": "rentPeriod",
              "type": "uint256"
            },
            {
              "internalType": "uint256",
              "name": "effectiveDate",
              "type": "uint256"
            },
            {
              "internalType": "uint256",
              "name": "monthlyRent",
              "type": "uint256"
            },
            {
              "internalType": "string",
              "name": "paymentMethod",
              "type": "string"
            },
            {
              "internalType": "uint256",
              "name": "maxOverduePeriod",
              "type": "uint256"
            },
            {
              "internalType": "uint256",
              "name": "deposit",
              "type": "uint256"
            },
            {
              "internalType": "uint256",
              "name": "utilityDeposit",
              "type": "uint256"
            },
            {
              "internalType": "uint256",
              "name": "advanceRental",
              "type": "uint256"
            },
            {
              "internalType": "int256",
              "name": "latitude",
              "type": "int256"
            },
            {
              "internalType": "int256",
              "name": "longitude",
              "type": "int256"
            }
          ],
          "internalType": "struct HouseRentalContract.HouseDetails",
          "name": "_houseDetails",
          "type": "tuple"
        },
        {
          "internalType": "string",
          "name": "_agreementDetails",
          "type": "string"
        },
        {
          "internalType": "string[]",
          "name": "_tenantAgreements",
          "type": "string[]"
        },
        {
          "internalType": "string[]",
          "name": "_landlordResponsibilities",
          "type": "string[]"
        },
        {
          "internalType": "string[]",
          "name": "_agreementsBetweenLandlord",
          "type": "string[]"
        },
        {
          "internalType": "string",
          "name": "_landlordSignature",
          "type": "string"
        },
        {
          "internalType": "string",
          "name": "_tenantSignature",
          "type": "string"
        }
      ],
      "name": "createContract",
      "outputs": [],
      "stateMutability": "nonpayable",
      "type": "function"
    },
    {
      "inputs": [
        {
          "internalType": "bytes6",
          "name": "contractId",
          "type": "bytes6"
        }
      ],
      "name": "getContract",
      "outputs": [
        {
          "components": [
            {
              "internalType": "uint256",
              "name": "creationDate",
              "type": "uint256"
            },
            {
              "components": [
                {
                  "internalType": "string",
                  "name": "name",
                  "type": "string"
                },
                {
                  "internalType": "string",
                  "name": "identificationNumber",
                  "type": "string"
                },
                {
                  "internalType": "string",
                  "name": "house_address",
                  "type": "string"
                }
              ],
              "internalType": "struct HouseRentalContract.PersonalInfo",
              "name": "landlord",
              "type": "tuple"
            },
            {
              "components": [
                {
                  "internalType": "string",
                  "name": "name",
                  "type": "string"
                },
                {
                  "internalType": "string",
                  "name": "identificationNumber",
                  "type": "string"
                },
                {
                  "internalType": "string",
                  "name": "house_address",
                  "type": "string"
                }
              ],
              "internalType": "struct HouseRentalContract.PersonalInfo",
              "name": "tenant",
              "type": "tuple"
            },
            {
              "components": [
                {
                  "internalType": "string",
                  "name": "rent_address",
                  "type": "string"
                },
                {
                  "internalType": "string",
                  "name": "buildingType",
                  "type": "string"
                },
                {
                  "internalType": "uint256",
                  "name": "rentPeriod",
                  "type": "uint256"
                },
                {
                  "internalType": "uint256",
                  "name": "effectiveDate",
                  "type": "uint256"
                },
                {
                  "internalType": "uint256",
                  "name": "monthlyRent",
                  "type": "uint256"
                },
                {
                  "internalType": "string",
                  "name": "paymentMethod",
                  "type": "string"
                },
                {
                  "internalType": "uint256",
                  "name": "maxOverduePeriod",
                  "type": "uint256"
                },
                {
                  "internalType": "uint256",
                  "name": "deposit",
                  "type": "uint256"
                },
                {
                  "internalType": "uint256",
                  "name": "utilityDeposit",
                  "type": "uint256"
                },
                {
                  "internalType": "uint256",
                  "name": "advanceRental",
                  "type": "uint256"
                },
                {
                  "internalType": "int256",
                  "name": "latitude",
                  "type": "int256"
                },
                {
                  "internalType": "int256",
                  "name": "longitude",
                  "type": "int256"
                }
              ],
              "internalType": "struct HouseRentalContract.HouseDetails",
              "name": "houseDetails",
              "type": "tuple"
            },
            {
              "internalType": "string",
              "name": "agreementDetails",
              "type": "string"
            },
            {
              "internalType": "string[]",
              "name": "tenantAgreements",
              "type": "string[]"
            },
            {
              "internalType": "string[]",
              "name": "landlordResponsibilities",
              "type": "string[]"
            },
            {
              "internalType": "string[]",
              "name": "agreementsBetweenLandlord",
              "type": "string[]"
            },
            {
              "internalType": "string",
              "name": "landlordSignature",
              "type": "string"
            },
            {
              "internalType": "string",
              "name": "tenantSignature",
              "type": "string"
            }
          ],
          "internalType": "struct HouseRentalContract.ContractTerms",
          "name": "",
          "type": "tuple"
        }
      ],
      "stateMutability": "view",
      "type": "function"
    },
    {
      "inputs": [
        {
          "internalType": "bytes6",
          "name": "contractId",
          "type": "bytes6"
        }
      ],
      "name": "getContractAuditTrail",
      "outputs": [
        {
          "components": [
            {
              "internalType": "uint256",
              "name": "timestamp",
              "type": "uint256"
            },
            {
              "internalType": "string",
              "name": "action",
              "type": "string"
            },
            {
              "internalType": "address",
              "name": "actor",
              "type": "address"
            }
          ],
          "internalType": "struct HouseRentalContract.AuditTrail[]",
          "name": "",
          "type": "tuple[]"
        }
      ],
      "stateMutability": "view",
      "type": "function"
    },
    {
      "inputs": [
        {
          "internalType": "bytes6",
          "name": "contractId",
          "type": "bytes6"
        },
        {
          "internalType": "string",
          "name": "_tenantSignature",
          "type": "string"
        }
      ],
      "name": "signContract",
      "outputs": [],
      "stateMutability": "nonpayable",
      "type": "function"
    },
    {
      "inputs": [
        {
          "internalType": "bytes6",
          "name": "contractId",
          "type": "bytes6"
        },
        {
          "internalType": "string",
          "name": "_agreementDetails",
          "type": "string"
        },
        {
          "internalType": "string[]",
          "name": "_tenantAgreements",
          "type": "string[]"
        },
        {
          "internalType": "string[]",
          "name": "_landlordResponsibilities",
          "type": "string[]"
        },
        {
          "internalType": "string[]",
          "name": "_agreementsBetweenLandlord",
          "type": "string[]"
        },
        {
          "internalType": "string",
          "name": "_landlordSignature",
          "type": "string"
        },
        {
          "internalType": "string",
          "name": "_tenantSignature",
          "type": "string"
        }
      ],
      "name": "updateContract",
      "outputs": [],
      "stateMutability": "nonpayable",
      "type": "function"
    }
  ],
  "bytecode": "0x608060405234801561001057600080fd5b506139f1806100206000396000f3fe608060405234801561001057600080fd5b50600436106100885760003560e01c8063a49e93601161005b578063a49e936014610155578063cc8e3dde14610171578063dd729ece146101a1578063e6355b6d146101bd57610088565b8063122b3fcb1461008d5780633ba2a56b146100bd5780633d4cc42c146100ef5780639cfa058b1461011f575b600080fd5b6100a760048036038101906100a29190612310565b6101d9565b6040516100b49190612539565b60405180910390f35b6100d760048036038101906100d29190612587565b610377565b6040516100e69392919061262f565b60405180910390f35b61010960048036038101906101049190612310565b610466565b60405161011691906129ca565b60405180910390f35b61013960048036038101906101349190612310565b610ed1565b60405161014c9796959493929190612b5c565b60405180910390f35b61016f600480360381019061016a9190613074565b611646565b005b61018b60048036038101906101869190612310565b611a7e565b604051610198919061324f565b60405180910390f35b6101bb60048036038101906101b6919061326a565b611ab1565b005b6101d760048036038101906101d291906133b4565b611e46565b005b6060600260008379ffffffffffffffffffffffffffffffffffffffffffffffffffff191679ffffffffffffffffffffffffffffffffffffffffffffffffffff19168152602001908152602001600020805480602002602001604051908101604052809291908181526020016000905b8282101561036c5783829060005260206000209060030201604051806060016040529081600082015481526020016001820180546102859061343f565b80601f01602080910402602001604051908101604052809291908181526020018280546102b19061343f565b80156102fe5780601f106102d3576101008083540402835291602001916102fe565b820191906000526020600020905b8154815290600101906020018083116102e157829003601f168201915b505050505081526020016002820160009054906101000a900473ffffffffffffffffffffffffffffffffffffffff1673ffffffffffffffffffffffffffffffffffffffff1673ffffffffffffffffffffffffffffffffffffffff168152505081526020019060010190610248565b505050509050919050565b6002602052816000526040600020818154811061039357600080fd5b9060005260206000209060030201600091509150508060000154908060010180546103bd9061343f565b80601f01602080910402602001604051908101604052809291908181526020018280546103e99061343f565b80156104365780601f1061040b57610100808354040283529160200191610436565b820191906000526020600020905b81548152906001019060200180831161041957829003601f168201915b5050505050908060020160009054906101000a900473ffffffffffffffffffffffffffffffffffffffff16905083565b61046e6120e3565b6000808379ffffffffffffffffffffffffffffffffffffffffffffffffffff191679ffffffffffffffffffffffffffffffffffffffffffffffffffff191681526020019081526020016000206040518061014001604052908160008201548152602001600182016040518060600160405290816000820180546104f09061343f565b80601f016020809104026020016040519081016040528092919081815260200182805461051c9061343f565b80156105695780601f1061053e57610100808354040283529160200191610569565b820191906000526020600020905b81548152906001019060200180831161054c57829003601f168201915b505050505081526020016001820180546105829061343f565b80601f01602080910402602001604051908101604052809291908181526020018280546105ae9061343f565b80156105fb5780601f106105d0576101008083540402835291602001916105fb565b820191906000526020600020905b8154815290600101906020018083116105de57829003601f168201915b505050505081526020016002820180546106149061343f565b80601f01602080910402602001604051908101604052809291908181526020018280546106409061343f565b801561068d5780601f106106625761010080835404028352916020019161068d565b820191906000526020600020905b81548152906001019060200180831161067057829003601f168201915b5050505050815250508152602001600482016040518060600160405290816000820180546106ba9061343f565b80601f01602080910402602001604051908101604052809291908181526020018280546106e69061343f565b80156107335780601f1061070857610100808354040283529160200191610733565b820191906000526020600020905b81548152906001019060200180831161071657829003601f168201915b5050505050815260200160018201805461074c9061343f565b80601f01602080910402602001604051908101604052809291908181526020018280546107789061343f565b80156107c55780601f1061079a576101008083540402835291602001916107c5565b820191906000526020600020905b8154815290600101906020018083116107a857829003601f168201915b505050505081526020016002820180546107de9061343f565b80601f016020809104026020016040519081016040528092919081815260200182805461080a9061343f565b80156108575780601f1061082c57610100808354040283529160200191610857565b820191906000526020600020905b81548152906001019060200180831161083a57829003601f168201915b505050505081525050815260200160078201604051806101800160405290816000820180546108859061343f565b80601f01602080910402602001604051908101604052809291908181526020018280546108b19061343f565b80156108fe5780601f106108d3576101008083540402835291602001916108fe565b820191906000526020600020905b8154815290600101906020018083116108e157829003601f168201915b505050505081526020016001820180546109179061343f565b80601f01602080910402602001604051908101604052809291908181526020018280546109439061343f565b80156109905780601f1061096557610100808354040283529160200191610990565b820191906000526020600020905b81548152906001019060200180831161097357829003601f168201915b505050505081526020016002820154815260200160038201548152602001600482015481526020016005820180546109c79061343f565b80601f01602080910402602001604051908101604052809291908181526020018280546109f39061343f565b8015610a405780601f10610a1557610100808354040283529160200191610a40565b820191906000526020600020905b815481529060010190602001808311610a2357829003601f168201915b5050505050815260200160068201548152602001600782015481526020016008820154815260200160098201548152602001600a8201548152602001600b820154815250508152602001601382018054610a999061343f565b80601f0160208091040260200160405190810160405280929190818152602001828054610ac59061343f565b8015610b125780601f10610ae757610100808354040283529160200191610b12565b820191906000526020600020905b815481529060010190602001808311610af557829003601f168201915b5050505050815260200160148201805480602002602001604051908101604052809291908181526020016000905b82821015610bec578382906000526020600020018054610b5f9061343f565b80601f0160208091040260200160405190810160405280929190818152602001828054610b8b9061343f565b8015610bd85780601f10610bad57610100808354040283529160200191610bd8565b820191906000526020600020905b815481529060010190602001808311610bbb57829003601f168201915b505050505081526020019060010190610b40565b50505050815260200160158201805480602002602001604051908101604052809291908181526020016000905b82821015610cc5578382906000526020600020018054610c389061343f565b80601f0160208091040260200160405190810160405280929190818152602001828054610c649061343f565b8015610cb15780601f10610c8657610100808354040283529160200191610cb1565b820191906000526020600020905b815481529060010190602001808311610c9457829003601f168201915b505050505081526020019060010190610c19565b50505050815260200160168201805480602002602001604051908101604052809291908181526020016000905b82821015610d9e578382906000526020600020018054610d119061343f565b80601f0160208091040260200160405190810160405280929190818152602001828054610d3d9061343f565b8015610d8a5780601f10610d5f57610100808354040283529160200191610d8a565b820191906000526020600020905b815481529060010190602001808311610d6d57829003601f168201915b505050505081526020019060010190610cf2565b505050508152602001601782018054610db69061343f565b80601f0160208091040260200160405190810160405280929190818152602001828054610de29061343f565b8015610e2f5780601f10610e0457610100808354040283529160200191610e2f565b820191906000526020600020905b815481529060010190602001808311610e1257829003601f168201915b50505050508152602001601882018054610e489061343f565b80601f0160208091040260200160405190810160405280929190818152602001828054610e749061343f565b8015610ec15780601f10610e9657610100808354040283529160200191610ec1565b820191906000526020600020905b815481529060010190602001808311610ea457829003601f168201915b5050505050815250509050919050565b600060205280600052604060002060009150905080600001549080600101604051806060016040529081600082018054610f0a9061343f565b80601f0160208091040260200160405190810160405280929190818152602001828054610f369061343f565b8015610f835780601f10610f5857610100808354040283529160200191610f83565b820191906000526020600020905b815481529060010190602001808311610f6657829003601f168201915b50505050508152602001600182018054610f9c9061343f565b80601f0160208091040260200160405190810160405280929190818152602001828054610fc89061343f565b80156110155780601f10610fea57610100808354040283529160200191611015565b820191906000526020600020905b815481529060010190602001808311610ff857829003601f168201915b5050505050815260200160028201805461102e9061343f565b80601f016020809104026020016040519081016040528092919081815260200182805461105a9061343f565b80156110a75780601f1061107c576101008083540402835291602001916110a7565b820191906000526020600020905b81548152906001019060200180831161108a57829003601f168201915b50505050508152505090806004016040518060600160405290816000820180546110d09061343f565b80601f01602080910402602001604051908101604052809291908181526020018280546110fc9061343f565b80156111495780601f1061111e57610100808354040283529160200191611149565b820191906000526020600020905b81548152906001019060200180831161112c57829003601f168201915b505050505081526020016001820180546111629061343f565b80601f016020809104026020016040519081016040528092919081815260200182805461118e9061343f565b80156111db5780601f106111b0576101008083540402835291602001916111db565b820191906000526020600020905b8154815290600101906020018083116111be57829003601f168201915b505050505081526020016002820180546111f49061343f565b80601f01602080910402602001604051908101604052809291908181526020018280546112209061343f565b801561126d5780601f106112425761010080835404028352916020019161126d565b820191906000526020600020905b81548152906001019060200180831161125057829003601f168201915b5050505050815250509080600701604051806101800160405290816000820180546112979061343f565b80601f01602080910402602001604051908101604052809291908181526020018280546112c39061343f565b80156113105780601f106112e557610100808354040283529160200191611310565b820191906000526020600020905b8154815290600101906020018083116112f357829003601f168201915b505050505081526020016001820180546113299061343f565b80601f01602080910402602001604051908101604052809291908181526020018280546113559061343f565b80156113a25780601f10611377576101008083540402835291602001916113a2565b820191906000526020600020905b81548152906001019060200180831161138557829003601f168201915b505050505081526020016002820154815260200160038201548152602001600482015481526020016005820180546113d99061343f565b80601f01602080910402602001604051908101604052809291908181526020018280546114059061343f565b80156114525780601f1061142757610100808354040283529160200191611452565b820191906000526020600020905b81548152906001019060200180831161143557829003601f168201915b5050505050815260200160068201548152602001600782015481526020016008820154815260200160098201548152602001600a8201548152602001600b82015481525050908060130180546114a79061343f565b80601f01602080910402602001604051908101604052809291908181526020018280546114d39061343f565b80156115205780601f106114f557610100808354040283529160200191611520565b820191906000526020600020905b81548152906001019060200180831161150357829003601f168201915b5050505050908060170180546115359061343f565b80601f01602080910402602001604051908101604052809291908181526020018280546115619061343f565b80156115ae5780601f10611583576101008083540402835291602001916115ae565b820191906000526020600020905b81548152906001019060200180831161159157829003601f168201915b5050505050908060180180546115c39061343f565b80601f01602080910402602001604051908101604052809291908181526020018280546115ef9061343f565b801561163c5780601f106116115761010080835404028352916020019161163c565b820191906000526020600020905b81548152906001019060200180831161161f57829003601f168201915b5050505050905087565b600073ffffffffffffffffffffffffffffffffffffffff16600160008c79ffffffffffffffffffffffffffffffffffffffffffffffffffff191679ffffffffffffffffffffffffffffffffffffffffffffffffffff1916815260200190815260200160002060009054906101000a900473ffffffffffffffffffffffffffffffffffffffff1673ffffffffffffffffffffffffffffffffffffffff1614611722576040517f08c379a0000000000000000000000000000000000000000000000000000000008152600401611719906134e2565b60405180910390fd5b60006040518061014001604052804281526020018b81526020018a8152602001898152602001888152602001878152602001868152602001858152602001848152602001838152509050806000808d79ffffffffffffffffffffffffffffffffffffffffffffffffffff191679ffffffffffffffffffffffffffffffffffffffffffffffffffff191681526020019081526020016000206000820151816000015560208201518160010160008201518160000190816117e191906136ae565b5060208201518160010190816117f791906136ae565b50604082015181600201908161180d91906136ae565b505050604082015181600401600082015181600001908161182e91906136ae565b50602082015181600101908161184491906136ae565b50604082015181600201908161185a91906136ae565b505050606082015181600701600082015181600001908161187b91906136ae565b50602082015181600101908161189191906136ae565b5060408201518160020155606082015181600301556080820151816004015560a08201518160050190816118c591906136ae565b5060c0820151816006015560e082015181600701556101008201518160080155610120820151816009015561014082015181600a015561016082015181600b01555050608082015181601301908161191d91906136ae565b5060a082015181601401908051906020019061193a929190612148565b5060c0820151816015019080519060200190611957929190612148565b5060e0820151816016019080519060200190611974929190612148565b5061010082015181601701908161198b91906136ae565b506101208201518160180190816119a291906136ae565b5090505033600160008d79ffffffffffffffffffffffffffffffffffffffffffffffffffff191679ffffffffffffffffffffffffffffffffffffffffffffffffffff1916815260200190815260200160002060006101000a81548173ffffffffffffffffffffffffffffffffffffffff021916908373ffffffffffffffffffffffffffffffffffffffff160217905550611a718b6040518060400160405280601081526020017f436f6e7472616374206372656174656400000000000000000000000000000000815250611f7a565b5050505050505050505050565b60016020528060005260406000206000915054906101000a900473ffffffffffffffffffffffffffffffffffffffff1681565b863373ffffffffffffffffffffffffffffffffffffffff16600160008379ffffffffffffffffffffffffffffffffffffffffffffffffffff191679ffffffffffffffffffffffffffffffffffffffffffffffffffff1916815260200190815260200160002060009054906101000a900473ffffffffffffffffffffffffffffffffffffffff1673ffffffffffffffffffffffffffffffffffffffff1614611b8d576040517f08c379a0000000000000000000000000000000000000000000000000000000008152600401611b84906137f2565b60405180910390fd5b876040518060400160405280601081526020017f436f6e747261637420757064617465640000000000000000000000000000000081525060008060008c79ffffffffffffffffffffffffffffffffffffffffffffffffffff191679ffffffffffffffffffffffffffffffffffffffffffffffffffff19168152602001908152602001600020905089816013019081611c2591906136ae565b5088816014019080519060200190611c3e929190612148565b5087816015019080519060200190611c57929190612148565b5086816016019080519060200190611c70929190612148565b5085816017019081611c8291906136ae565b5084816018019081611c9491906136ae565b50611cd48b6040518060400160405280601081526020017f436f6e7472616374207570646174656400000000000000000000000000000000815250611f7a565b50600260008379ffffffffffffffffffffffffffffffffffffffffffffffffffff191679ffffffffffffffffffffffffffffffffffffffffffffffffffff1916815260200190815260200160002060405180606001604052804281526020018381526020013373ffffffffffffffffffffffffffffffffffffffff168152509080600181540180825580915050600190039060005260206000209060030201600090919091909150600082015181600001556020820151816001019081611d9b91906136ae565b5060408201518160020160006101000a81548173ffffffffffffffffffffffffffffffffffffffff021916908373ffffffffffffffffffffffffffffffffffffffff16021790555050508179ffffffffffffffffffffffffffffffffffffffffffffffffffff19167f39260b782a8ff164f57d90e3b0aca40a9e250547d0eb6b8fde9b561a498b513882604051611e329190613812565b60405180910390a250505050505050505050565b816000808279ffffffffffffffffffffffffffffffffffffffffffffffffffff191679ffffffffffffffffffffffffffffffffffffffffffffffffffff19168152602001908152602001600020600401600201611ea2906138b8565b60601c73ffffffffffffffffffffffffffffffffffffffff163373ffffffffffffffffffffffffffffffffffffffff1614611f12576040517f08c379a0000000000000000000000000000000000000000000000000000000008152600401611f099061399b565b60405180910390fd5b60008060008579ffffffffffffffffffffffffffffffffffffffffffffffffffff191679ffffffffffffffffffffffffffffffffffffffffffffffffffff19168152602001908152602001600020905082816018019081611f7391906136ae565b5050505050565b600260008379ffffffffffffffffffffffffffffffffffffffffffffffffffff191679ffffffffffffffffffffffffffffffffffffffffffffffffffff1916815260200190815260200160002060405180606001604052804281526020018381526020013373ffffffffffffffffffffffffffffffffffffffff16815250908060018154018082558091505060019003906000526020600020906003020160009091909190915060008201518160000155602082015181600101908161204091906136ae565b5060408201518160020160006101000a81548173ffffffffffffffffffffffffffffffffffffffff021916908373ffffffffffffffffffffffffffffffffffffffff16021790555050508179ffffffffffffffffffffffffffffffffffffffffffffffffffff19167f39260b782a8ff164f57d90e3b0aca40a9e250547d0eb6b8fde9b561a498b5138826040516120d79190613812565b60405180910390a25050565b604051806101400160405280600081526020016120fe6121a1565b815260200161210b6121a1565b81526020016121186121c2565b81526020016060815260200160608152602001606081526020016060815260200160608152602001606081525090565b828054828255906000526020600020908101928215612190579160200282015b8281111561218f57825182908161217f91906136ae565b5091602001919060010190612168565b5b50905061219d9190612223565b5090565b60405180606001604052806060815260200160608152602001606081525090565b6040518061018001604052806060815260200160608152602001600081526020016000815260200160008152602001606081526020016000815260200160008152602001600081526020016000815260200160008152602001600081525090565b5b80821115612243576000818161223a9190612247565b50600101612224565b5090565b5080546122539061343f565b6000825580601f106122655750612284565b601f0160209004906000526020600020908101906122839190612287565b5b50565b5b808211156122a0576000816000905550600101612288565b5090565b6000604051905090565b600080fd5b600080fd5b60007fffffffffffff000000000000000000000000000000000000000000000000000082169050919050565b6122ed816122b8565b81146122f857600080fd5b50565b60008135905061230a816122e4565b92915050565b600060208284031215612326576123256122ae565b5b6000612334848285016122fb565b91505092915050565b600081519050919050565b600082825260208201905092915050565b6000819050602082019050919050565b6000819050919050565b61237c81612369565b82525050565b600081519050919050565b600082825260208201905092915050565b60005b838110156123bc5780820151818401526020810190506123a1565b60008484015250505050565b6000601f19601f8301169050919050565b60006123e482612382565b6123ee818561238d565b93506123fe81856020860161239e565b612407816123c8565b840191505092915050565b600073ffffffffffffffffffffffffffffffffffffffff82169050919050565b600061243d82612412565b9050919050565b61244d81612432565b82525050565b600060608301600083015161246b6000860182612373565b506020830151848203602086015261248382826123d9565b91505060408301516124986040860182612444565b508091505092915050565b60006124af8383612453565b905092915050565b6000602082019050919050565b60006124cf8261233d565b6124d98185612348565b9350836020820285016124eb85612359565b8060005b85811015612527578484038952815161250885826124a3565b9450612513836124b7565b925060208a019950506001810190506124ef565b50829750879550505050505092915050565b6000602082019050818103600083015261255381846124c4565b905092915050565b61256481612369565b811461256f57600080fd5b50565b6000813590506125818161255b565b92915050565b6000806040838503121561259e5761259d6122ae565b5b60006125ac858286016122fb565b92505060206125bd85828601612572565b9150509250929050565b6125d081612369565b82525050565b600082825260208201905092915050565b60006125f282612382565b6125fc81856125d6565b935061260c81856020860161239e565b612615816123c8565b840191505092915050565b61262981612432565b82525050565b600060608201905061264460008301866125c7565b818103602083015261265681856125e7565b90506126656040830184612620565b949350505050565b6000606083016000830151848203600086015261268a82826123d9565b915050602083015184820360208601526126a482826123d9565b915050604083015184820360408601526126be82826123d9565b9150508091505092915050565b6000819050919050565b6126de816126cb565b82525050565b600061018083016000830151848203600086015261270282826123d9565b9150506020830151848203602086015261271c82826123d9565b91505060408301516127316040860182612373565b5060608301516127446060860182612373565b5060808301516127576080860182612373565b5060a083015184820360a086015261276f82826123d9565b91505060c083015161278460c0860182612373565b5060e083015161279760e0860182612373565b506101008301516127ac610100860182612373565b506101208301516127c1610120860182612373565b506101408301516127d66101408601826126d5565b506101608301516127eb6101608601826126d5565b508091505092915050565b600081519050919050565b600082825260208201905092915050565b6000819050602082019050919050565b600061282e83836123d9565b905092915050565b6000602082019050919050565b600061284e826127f6565b6128588185612801565b93508360208202850161286a85612812565b8060005b858110156128a657848403895281516128878582612822565b945061289283612836565b925060208a0199505060018101905061286e565b50829750879550505050505092915050565b6000610140830160008301516128d16000860182612373565b50602083015184820360208601526128e9828261266d565b91505060408301518482036040860152612903828261266d565b9150506060830151848203606086015261291d82826126e4565b9150506080830151848203608086015261293782826123d9565b91505060a083015184820360a08601526129518282612843565b91505060c083015184820360c086015261296b8282612843565b91505060e083015184820360e08601526129858282612843565b9150506101008301518482036101008601526129a182826123d9565b9150506101208301518482036101208601526129bd82826123d9565b9150508091505092915050565b600060208201905081810360008301526129e481846128b8565b905092915050565b60006060830160008301518482036000860152612a0982826123d9565b91505060208301518482036020860152612a2382826123d9565b91505060408301518482036040860152612a3d82826123d9565b9150508091505092915050565b6000610180830160008301518482036000860152612a6882826123d9565b91505060208301518482036020860152612a8282826123d9565b9150506040830151612a976040860182612373565b506060830151612aaa6060860182612373565b506080830151612abd6080860182612373565b5060a083015184820360a0860152612ad582826123d9565b91505060c0830151612aea60c0860182612373565b5060e0830151612afd60e0860182612373565b50610100830151612b12610100860182612373565b50610120830151612b27610120860182612373565b50610140830151612b3c6101408601826126d5565b50610160830151612b516101608601826126d5565b508091505092915050565b600060e082019050612b71600083018a6125c7565b8181036020830152612b8381896129ec565b90508181036040830152612b9781886129ec565b90508181036060830152612bab8187612a4a565b90508181036080830152612bbf81866125e7565b905081810360a0830152612bd381856125e7565b905081810360c0830152612be781846125e7565b905098975050505050505050565b600080fd5b7f4e487b7100000000000000000000000000000000000000000000000000000000600052604160045260246000fd5b612c32826123c8565b810181811067ffffffffffffffff82111715612c5157612c50612bfa565b5b80604052505050565b6000612c646122a4565b9050612c708282612c29565b919050565b600080fd5b600080fd5b600080fd5b600067ffffffffffffffff821115612c9f57612c9e612bfa565b5b612ca8826123c8565b9050602081019050919050565b82818337600083830152505050565b6000612cd7612cd284612c84565b612c5a565b905082815260208101848484011115612cf357612cf2612c7f565b5b612cfe848285612cb5565b509392505050565b600082601f830112612d1b57612d1a612c7a565b5b8135612d2b848260208601612cc4565b91505092915050565b600060608284031215612d4a57612d49612bf5565b5b612d546060612c5a565b9050600082013567ffffffffffffffff811115612d7457612d73612c75565b5b612d8084828501612d06565b600083015250602082013567ffffffffffffffff811115612da457612da3612c75565b5b612db084828501612d06565b602083015250604082013567ffffffffffffffff811115612dd457612dd3612c75565b5b612de084828501612d06565b60408301525092915050565b612df5816126cb565b8114612e0057600080fd5b50565b600081359050612e1281612dec565b92915050565b60006101808284031215612e2f57612e2e612bf5565b5b612e3a610180612c5a565b9050600082013567ffffffffffffffff811115612e5a57612e59612c75565b5b612e6684828501612d06565b600083015250602082013567ffffffffffffffff811115612e8a57612e89612c75565b5b612e9684828501612d06565b6020830152506040612eaa84828501612572565b6040830152506060612ebe84828501612572565b6060830152506080612ed284828501612572565b60808301525060a082013567ffffffffffffffff811115612ef657612ef5612c75565b5b612f0284828501612d06565b60a08301525060c0612f1684828501612572565b60c08301525060e0612f2a84828501612572565b60e083015250610100612f3f84828501612572565b61010083015250610120612f5584828501612572565b61012083015250610140612f6b84828501612e03565b61014083015250610160612f8184828501612e03565b6101608301525092915050565b600067ffffffffffffffff821115612fa957612fa8612bfa565b5b602082029050602081019050919050565b600080fd5b6000612fd2612fcd84612f8e565b612c5a565b90508083825260208201905060208402830185811115612ff557612ff4612fba565b5b835b8181101561303c57803567ffffffffffffffff81111561301a57613019612c7a565b5b8086016130278982612d06565b85526020850194505050602081019050612ff7565b5050509392505050565b600082601f83011261305b5761305a612c7a565b5b813561306b848260208601612fbf565b91505092915050565b6000806000806000806000806000806101408b8d031215613098576130976122ae565b5b60006130a68d828e016122fb565b9a505060208b013567ffffffffffffffff8111156130c7576130c66122b3565b5b6130d38d828e01612d34565b99505060408b013567ffffffffffffffff8111156130f4576130f36122b3565b5b6131008d828e01612d34565b98505060608b013567ffffffffffffffff811115613121576131206122b3565b5b61312d8d828e01612e18565b97505060808b013567ffffffffffffffff81111561314e5761314d6122b3565b5b61315a8d828e01612d06565b96505060a08b013567ffffffffffffffff81111561317b5761317a6122b3565b5b6131878d828e01613046565b95505060c08b013567ffffffffffffffff8111156131a8576131a76122b3565b5b6131b48d828e01613046565b94505060e08b013567ffffffffffffffff8111156131d5576131d46122b3565b5b6131e18d828e01613046565b9350506101008b013567ffffffffffffffff811115613203576132026122b3565b5b61320f8d828e01612d06565b9250506101208b013567ffffffffffffffff811115613231576132306122b3565b5b61323d8d828e01612d06565b9150509295989b9194979a5092959850565b60006020820190506132646000830184612620565b92915050565b600080600080600080600060e0888a031215613289576132886122ae565b5b60006132978a828b016122fb565b975050602088013567ffffffffffffffff8111156132b8576132b76122b3565b5b6132c48a828b01612d06565b965050604088013567ffffffffffffffff8111156132e5576132e46122b3565b5b6132f18a828b01613046565b955050606088013567ffffffffffffffff811115613312576133116122b3565b5b61331e8a828b01613046565b945050608088013567ffffffffffffffff81111561333f5761333e6122b3565b5b61334b8a828b01613046565b93505060a088013567ffffffffffffffff81111561336c5761336b6122b3565b5b6133788a828b01612d06565b92505060c088013567ffffffffffffffff811115613399576133986122b3565b5b6133a58a828b01612d06565b91505092959891949750929550565b600080604083850312156133cb576133ca6122ae565b5b60006133d9858286016122fb565b925050602083013567ffffffffffffffff8111156133fa576133f96122b3565b5b61340685828601612d06565b9150509250929050565b7f4e487b7100000000000000000000000000000000000000000000000000000000600052602260045260246000fd5b6000600282049050600182168061345757607f821691505b60208210810361346a57613469613410565b5b50919050565b7f436f6e7472616374207769746820676976656e206964656e746966696572206160008201527f6c72656164792065786973747300000000000000000000000000000000000000602082015250565b60006134cc602d836125d6565b91506134d782613470565b604082019050919050565b600060208201905081810360008301526134fb816134bf565b9050919050565b60008190508160005260206000209050919050565b60006020601f8301049050919050565b600082821b905092915050565b6000600883026135647fffffffffffffffffffffffffffffffffffffffffffffffffffffffffffffffff82613527565b61356e8683613527565b95508019841693508086168417925050509392505050565b6000819050919050565b60006135ab6135a66135a184612369565b613586565b612369565b9050919050565b6000819050919050565b6135c583613590565b6135d96135d1826135b2565b848454613534565b825550505050565b600090565b6135ee6135e1565b6135f98184846135bc565b505050565b5b8181101561361d576136126000826135e6565b6001810190506135ff565b5050565b601f8211156136625761363381613502565b61363c84613517565b8101602085101561364b578190505b61365f61365785613517565b8301826135fe565b50505b505050565b600082821c905092915050565b600061368560001984600802613667565b1980831691505092915050565b600061369e8383613674565b9150826002028217905092915050565b6136b782612382565b67ffffffffffffffff8111156136d0576136cf612bfa565b5b6136da825461343f565b6136e5828285613621565b600060209050601f8311600181146137185760008415613706578287015190505b6137108582613692565b865550613778565b601f19841661372686613502565b60005b8281101561374e57848901518255600182019150602085019450602081019050613729565b8683101561376b5784890151613767601f891682613674565b8355505b6001600288020188555050505b505050505050565b7f4f6e6c79206c616e646c6f72642063616e20706572666f726d2074686973206160008201527f6374696f6e000000000000000000000000000000000000000000000000000000602082015250565b60006137dc6025836125d6565b91506137e782613780565b604082019050919050565b6000602082019050818103600083015261380b816137cf565b9050919050565b6000602082019050818103600083015261382c81846125e7565b905092915050565b6000815490506138438161343f565b9050919050565b60008190508160005260206000209050919050565b60008160601c9050919050565b60008160601b9050919050565b60006138848261386c565b9050919050565b600061389e6138998361385f565b613879565b9050919050565b60006138b1825461388b565b9050919050565b60006138c382613834565b82601f8211156138d9576138d68461384a565b90505b6138e2816138a5565b925060148210156139225761391d7fffffffffffffffffffffffffffffffffffffffff00000000000000000000000083601403600802613527565b831692505b5050919050565b7f4f6e6c79207468652074656e616e742063616e20706572666f726d207468697360008201527f20616374696f6e00000000000000000000000000000000000000000000000000602082015250565b60006139856027836125d6565b915061399082613929565b604082019050919050565b600060208201905081810360008301526139b481613978565b905091905056fea2646970667358221220e80dcf6aafab0bade5eb479334d122a56f666417588d98dcf7fa4ec7afc6d54b64736f6c63430008180033",
  "linkReferences": {},
  "deployedLinkReferences": {}
}