{
  "_format": "hh-sol-artifact-1",
  "contractName": "HouseRentalContract",
  "sourceName": "contracts/UpdatedRentalContract.sol",
  "abi": [
    {
      "inputs": [
        {
          "internalType": "bytes6",
          "name": "",
          "type": "bytes6"
        }
      ],
      "name": "contractOwners",
      "outputs": [
        {
          "internalType": "address",
          "name": "",
          "type": "address"
        }
      ],
      "stateMutability": "view",
      "type": "function"
    },
    {
      "inputs": [
        {
          "internalType": "bytes6",
          "name": "",
          "type": "bytes6"
        }
      ],
      "name": "contracts",
      "outputs": [
        {
          "internalType": "uint256",
          "name": "creationDate",
          "type": "uint256"
        },
        {
          "components": [
            {
              "internalType": "string",
              "name": "name",
              "type": "string"
            },
            {
              "internalType": "string",
              "name": "identificationNumber",
              "type": "string"
            },
            {
              "internalType": "string",
              "name": "house_address",
              "type": "string"
            }
          ],
          "internalType": "struct HouseRentalContract.PersonalInfo",
          "name": "landlord",
          "type": "tuple"
        },
        {
          "components": [
            {
              "internalType": "string",
              "name": "name",
              "type": "string"
            },
            {
              "internalType": "string",
              "name": "identificationNumber",
              "type": "string"
            },
            {
              "internalType": "string",
              "name": "house_address",
              "type": "string"
            }
          ],
          "internalType": "struct HouseRentalContract.PersonalInfo",
          "name": "tenant",
          "type": "tuple"
        },
        {
          "components": [
            {
              "internalType": "string",
              "name": "rent_address",
              "type": "string"
            },
            {
              "internalType": "string",
              "name": "buildingType",
              "type": "string"
            },
            {
              "internalType": "uint256",
              "name": "rentPeriod",
              "type": "uint256"
            },
            {
              "internalType": "uint256",
              "name": "effectiveStartDate",
              "type": "uint256"
            },
            {
              "internalType": "uint256",
              "name": "effectiveEndDate",
              "type": "uint256"
            },
            {
              "internalType": "uint256",
              "name": "monthlyRent",
              "type": "uint256"
            },
            {
              "internalType": "string",
              "name": "paymentMethod",
              "type": "string"
            },
            {
              "internalType": "uint256",
              "name": "maxOverduePeriod",
              "type": "uint256"
            },
            {
              "internalType": "uint256",
              "name": "deposit",
              "type": "uint256"
            },
            {
              "internalType": "uint256",
              "name": "utilityDeposit",
              "type": "uint256"
            },
            {
              "internalType": "uint256",
              "name": "advanceRental",
              "type": "uint256"
            },
            {
              "internalType": "int256",
              "name": "latitude",
              "type": "int256"
            },
            {
              "internalType": "int256",
              "name": "longitude",
              "type": "int256"
            }
          ],
          "internalType": "struct HouseRentalContract.HouseDetails",
          "name": "houseDetails",
          "type": "tuple"
        },
        {
          "internalType": "string",
          "name": "agreementDetails",
          "type": "string"
        },
        {
          "internalType": "string",
          "name": "landlordSignature",
          "type": "string"
        },
        {
          "internalType": "string",
          "name": "tenantSignature",
          "type": "string"
        },
        {
          "internalType": "string",
          "name": "password",
          "type": "string"
        },
        {
          "internalType": "address",
          "name": "tenantAddress",
          "type": "address"
        }
      ],
      "stateMutability": "view",
      "type": "function"
    },
    {
      "inputs": [
        {
          "internalType": "bytes6",
          "name": "_uniqueIdentifier",
          "type": "bytes6"
        },
        {
          "components": [
            {
              "internalType": "string",
              "name": "name",
              "type": "string"
            },
            {
              "internalType": "string",
              "name": "identificationNumber",
              "type": "string"
            },
            {
              "internalType": "string",
              "name": "house_address",
              "type": "string"
            }
          ],
          "internalType": "struct HouseRentalContract.PersonalInfo",
          "name": "_landlord",
          "type": "tuple"
        },
        {
          "components": [
            {
              "internalType": "string",
              "name": "name",
              "type": "string"
            },
            {
              "internalType": "string",
              "name": "identificationNumber",
              "type": "string"
            },
            {
              "internalType": "string",
              "name": "house_address",
              "type": "string"
            }
          ],
          "internalType": "struct HouseRentalContract.PersonalInfo",
          "name": "_tenant",
          "type": "tuple"
        },
        {
          "components": [
            {
              "internalType": "string",
              "name": "rent_address",
              "type": "string"
            },
            {
              "internalType": "string",
              "name": "buildingType",
              "type": "string"
            },
            {
              "internalType": "uint256",
              "name": "rentPeriod",
              "type": "uint256"
            },
            {
              "internalType": "uint256",
              "name": "effectiveStartDate",
              "type": "uint256"
            },
            {
              "internalType": "uint256",
              "name": "effectiveEndDate",
              "type": "uint256"
            },
            {
              "internalType": "uint256",
              "name": "monthlyRent",
              "type": "uint256"
            },
            {
              "internalType": "string",
              "name": "paymentMethod",
              "type": "string"
            },
            {
              "internalType": "uint256",
              "name": "maxOverduePeriod",
              "type": "uint256"
            },
            {
              "internalType": "uint256",
              "name": "deposit",
              "type": "uint256"
            },
            {
              "internalType": "uint256",
              "name": "utilityDeposit",
              "type": "uint256"
            },
            {
              "internalType": "uint256",
              "name": "advanceRental",
              "type": "uint256"
            },
            {
              "internalType": "int256",
              "name": "latitude",
              "type": "int256"
            },
            {
              "internalType": "int256",
              "name": "longitude",
              "type": "int256"
            }
          ],
          "internalType": "struct HouseRentalContract.HouseDetails",
          "name": "_houseDetails",
          "type": "tuple"
        },
        {
          "internalType": "string",
          "name": "_agreementDetails",
          "type": "string"
        },
        {
          "internalType": "string[]",
          "name": "_tenantAgreements",
          "type": "string[]"
        },
        {
          "internalType": "string[]",
          "name": "_landlordResponsibilities",
          "type": "string[]"
        },
        {
          "internalType": "string[]",
          "name": "_agreementsBetweenLandlord",
          "type": "string[]"
        },
        {
          "internalType": "string",
          "name": "_landlordSignature",
          "type": "string"
        },
        {
          "internalType": "string",
          "name": "_tenantSignature",
          "type": "string"
        },
        {
          "internalType": "string",
          "name": "_password",
          "type": "string"
        }
      ],
      "name": "createContract",
      "outputs": [],
      "stateMutability": "nonpayable",
      "type": "function"
    },
    {
      "inputs": [
        {
          "internalType": "bytes6",
          "name": "contractId",
          "type": "bytes6"
        },
        {
          "internalType": "string",
          "name": "_password",
          "type": "string"
        }
      ],
      "name": "getContract",
      "outputs": [
        {
          "components": [
            {
              "internalType": "uint256",
              "name": "creationDate",
              "type": "uint256"
            },
            {
              "components": [
                {
                  "internalType": "string",
                  "name": "name",
                  "type": "string"
                },
                {
                  "internalType": "string",
                  "name": "identificationNumber",
                  "type": "string"
                },
                {
                  "internalType": "string",
                  "name": "house_address",
                  "type": "string"
                }
              ],
              "internalType": "struct HouseRentalContract.PersonalInfo",
              "name": "landlord",
              "type": "tuple"
            },
            {
              "components": [
                {
                  "internalType": "string",
                  "name": "name",
                  "type": "string"
                },
                {
                  "internalType": "string",
                  "name": "identificationNumber",
                  "type": "string"
                },
                {
                  "internalType": "string",
                  "name": "house_address",
                  "type": "string"
                }
              ],
              "internalType": "struct HouseRentalContract.PersonalInfo",
              "name": "tenant",
              "type": "tuple"
            },
            {
              "components": [
                {
                  "internalType": "string",
                  "name": "rent_address",
                  "type": "string"
                },
                {
                  "internalType": "string",
                  "name": "buildingType",
                  "type": "string"
                },
                {
                  "internalType": "uint256",
                  "name": "rentPeriod",
                  "type": "uint256"
                },
                {
                  "internalType": "uint256",
                  "name": "effectiveStartDate",
                  "type": "uint256"
                },
                {
                  "internalType": "uint256",
                  "name": "effectiveEndDate",
                  "type": "uint256"
                },
                {
                  "internalType": "uint256",
                  "name": "monthlyRent",
                  "type": "uint256"
                },
                {
                  "internalType": "string",
                  "name": "paymentMethod",
                  "type": "string"
                },
                {
                  "internalType": "uint256",
                  "name": "maxOverduePeriod",
                  "type": "uint256"
                },
                {
                  "internalType": "uint256",
                  "name": "deposit",
                  "type": "uint256"
                },
                {
                  "internalType": "uint256",
                  "name": "utilityDeposit",
                  "type": "uint256"
                },
                {
                  "internalType": "uint256",
                  "name": "advanceRental",
                  "type": "uint256"
                },
                {
                  "internalType": "int256",
                  "name": "latitude",
                  "type": "int256"
                },
                {
                  "internalType": "int256",
                  "name": "longitude",
                  "type": "int256"
                }
              ],
              "internalType": "struct HouseRentalContract.HouseDetails",
              "name": "houseDetails",
              "type": "tuple"
            },
            {
              "internalType": "string",
              "name": "agreementDetails",
              "type": "string"
            },
            {
              "internalType": "string[]",
              "name": "tenantAgreements",
              "type": "string[]"
            },
            {
              "internalType": "string[]",
              "name": "landlordResponsibilities",
              "type": "string[]"
            },
            {
              "internalType": "string[]",
              "name": "agreementsBetweenLandlord",
              "type": "string[]"
            },
            {
              "internalType": "string",
              "name": "landlordSignature",
              "type": "string"
            },
            {
              "internalType": "string",
              "name": "tenantSignature",
              "type": "string"
            },
            {
              "internalType": "string",
              "name": "password",
              "type": "string"
            },
            {
              "internalType": "address",
              "name": "tenantAddress",
              "type": "address"
            }
          ],
          "internalType": "struct HouseRentalContract.ContractTerms",
          "name": "",
          "type": "tuple"
        }
      ],
      "stateMutability": "view",
      "type": "function"
    },
    {
      "inputs": [
        {
          "internalType": "bytes6",
          "name": "contractId",
          "type": "bytes6"
        },
        {
          "internalType": "string",
          "name": "_password",
          "type": "string"
        },
        {
          "internalType": "string",
          "name": "_name",
          "type": "string"
        },
        {
          "internalType": "string",
          "name": "_identificationNumber",
          "type": "string"
        },
        {
          "internalType": "string",
          "name": "_houseAddress",
          "type": "string"
        },
        {
          "internalType": "string",
          "name": "_tenantSignature",
          "type": "string"
        }
      ],
      "name": "signContract",
      "outputs": [],
      "stateMutability": "nonpayable",
      "type": "function"
    },
    {
      "inputs": [
        {
          "internalType": "bytes6",
          "name": "contractId",
          "type": "bytes6"
        },
        {
          "internalType": "string",
          "name": "_password",
          "type": "string"
        },
        {
          "internalType": "string",
          "name": "_agreementDetails",
          "type": "string"
        },
        {
          "internalType": "string[]",
          "name": "_tenantAgreements",
          "type": "string[]"
        },
        {
          "internalType": "string[]",
          "name": "_landlordResponsibilities",
          "type": "string[]"
        },
        {
          "internalType": "string[]",
          "name": "_agreementsBetweenLandlord",
          "type": "string[]"
        },
        {
          "internalType": "string",
          "name": "_landlordSignature",
          "type": "string"
        },
        {
          "internalType": "string",
          "name": "_tenantSignature",
          "type": "string"
        },
        {
          "internalType": "address",
          "name": "_tenantAddress",
          "type": "address"
        }
      ],
      "name": "updateContract",
      "outputs": [],
      "stateMutability": "nonpayable",
      "type": "function"
    }
  ],
  "bytecode": "0x608060405234801561001057600080fd5b506139d1806100206000396000f3fe608060405234801561001057600080fd5b50600436106100625760003560e01c8063157e21f7146100675780636f23df9714610083578063792855e41461009f5780639cfa058b146100cf578063ba9c5f0d14610107578063cc8e3dde14610123575b600080fd5b610081600480360381019061007c9190612356565b610153565b005b61009d600480360381019061009891906125b3565b6103b8565b005b6100b960048036038101906100b49190612741565b610691565b6040516100c69190612be7565b60405180910390f35b6100e960048036038101906100e49190612c09565b6112cb565b6040516100fe99989796959493929190612e23565b60405180910390f35b610121600480360381019061011c9190613187565b611afe565b005b61013d60048036038101906101389190612c09565b611f85565b60405161014a9190613393565b60405180910390f35b853373ffffffffffffffffffffffffffffffffffffffff166000808379ffffffffffffffffffffffffffffffffffffffffffffffffffff191679ffffffffffffffffffffffffffffffffffffffffffffffffffff19168152602001908152602001600020601b0160009054906101000a900473ffffffffffffffffffffffffffffffffffffffff1673ffffffffffffffffffffffffffffffffffffffff1614610231576040517f08c379a000000000000000000000000000000000000000000000000000000000815260040161022890613420565b60405180910390fd5b85604051602001610242919061347c565b604051602081830303815290604052805190602001206000808979ffffffffffffffffffffffffffffffffffffffffffffffffffff191679ffffffffffffffffffffffffffffffffffffffffffffffffffff19168152602001908152602001600020601a016040516020016102b7919061358b565b604051602081830303815290604052805190602001201461030d576040517f08c379a0000000000000000000000000000000000000000000000000000000008152600401610304906135ee565b60405180910390fd5b60008060008979ffffffffffffffffffffffffffffffffffffffffffffffffffff191679ffffffffffffffffffffffffffffffffffffffffffffffffffff1916815260200190815260200160002090508581600401600001908161037191906137a5565b508481600401600101908161038691906137a5565b508381600401600201908161039b91906137a5565b50828160190190816103ad91906137a5565b505050505050505050565b883373ffffffffffffffffffffffffffffffffffffffff16600160008379ffffffffffffffffffffffffffffffffffffffffffffffffffff191679ffffffffffffffffffffffffffffffffffffffffffffffffffff1916815260200190815260200160002060009054906101000a900473ffffffffffffffffffffffffffffffffffffffff1673ffffffffffffffffffffffffffffffffffffffff1614610494576040517f08c379a000000000000000000000000000000000000000000000000000000000815260040161048b906138e9565b60405180910390fd5b886040516020016104a5919061347c565b604051602081830303815290604052805190602001206000808c79ffffffffffffffffffffffffffffffffffffffffffffffffffff191679ffffffffffffffffffffffffffffffffffffffffffffffffffff19168152602001908152602001600020601a0160405160200161051a919061358b565b6040516020818303038152906040528051906020012014610570576040517f08c379a0000000000000000000000000000000000000000000000000000000008152600401610567906135ee565b60405180910390fd5b60008060008c79ffffffffffffffffffffffffffffffffffffffffffffffffffff191679ffffffffffffffffffffffffffffffffffffffffffffffffffff191681526020019081526020016000209050888160140190816105d191906137a5565b50878160150190805190602001906105ea929190611fb8565b5086816016019080519060200190610603929190611fb8565b508581601701908051906020019061061c929190611fb8565b508481601801908161062e91906137a5565b508381601901908161064091906137a5565b508281601b0160006101000a81548173ffffffffffffffffffffffffffffffffffffffff021916908373ffffffffffffffffffffffffffffffffffffffff1602179055505050505050505050505050565b610699612011565b816040516020016106aa919061347c565b604051602081830303815290604052805190602001206000808579ffffffffffffffffffffffffffffffffffffffffffffffffffff191679ffffffffffffffffffffffffffffffffffffffffffffffffffff19168152602001908152602001600020601a0160405160200161071f919061358b565b6040516020818303038152906040528051906020012014610775576040517f08c379a000000000000000000000000000000000000000000000000000000000815260040161076c906135ee565b60405180910390fd5b6000808479ffffffffffffffffffffffffffffffffffffffffffffffffffff191679ffffffffffffffffffffffffffffffffffffffffffffffffffff191681526020019081526020016000206040518061018001604052908160008201548152602001600182016040518060600160405290816000820180546107f7906134c2565b80601f0160208091040260200160405190810160405280929190818152602001828054610823906134c2565b80156108705780601f1061084557610100808354040283529160200191610870565b820191906000526020600020905b81548152906001019060200180831161085357829003601f168201915b50505050508152602001600182018054610889906134c2565b80601f01602080910402602001604051908101604052809291908181526020018280546108b5906134c2565b80156109025780601f106108d757610100808354040283529160200191610902565b820191906000526020600020905b8154815290600101906020018083116108e557829003601f168201915b5050505050815260200160028201805461091b906134c2565b80601f0160208091040260200160405190810160405280929190818152602001828054610947906134c2565b80156109945780601f1061096957610100808354040283529160200191610994565b820191906000526020600020905b81548152906001019060200180831161097757829003601f168201915b5050505050815250508152602001600482016040518060600160405290816000820180546109c1906134c2565b80601f01602080910402602001604051908101604052809291908181526020018280546109ed906134c2565b8015610a3a5780601f10610a0f57610100808354040283529160200191610a3a565b820191906000526020600020905b815481529060010190602001808311610a1d57829003601f168201915b50505050508152602001600182018054610a53906134c2565b80601f0160208091040260200160405190810160405280929190818152602001828054610a7f906134c2565b8015610acc5780601f10610aa157610100808354040283529160200191610acc565b820191906000526020600020905b815481529060010190602001808311610aaf57829003601f168201915b50505050508152602001600282018054610ae5906134c2565b80601f0160208091040260200160405190810160405280929190818152602001828054610b11906134c2565b8015610b5e5780601f10610b3357610100808354040283529160200191610b5e565b820191906000526020600020905b815481529060010190602001808311610b4157829003601f168201915b505050505081525050815260200160078201604051806101a0016040529081600082018054610b8c906134c2565b80601f0160208091040260200160405190810160405280929190818152602001828054610bb8906134c2565b8015610c055780601f10610bda57610100808354040283529160200191610c05565b820191906000526020600020905b815481529060010190602001808311610be857829003601f168201915b50505050508152602001600182018054610c1e906134c2565b80601f0160208091040260200160405190810160405280929190818152602001828054610c4a906134c2565b8015610c975780601f10610c6c57610100808354040283529160200191610c97565b820191906000526020600020905b815481529060010190602001808311610c7a57829003601f168201915b5050505050815260200160028201548152602001600382015481526020016004820154815260200160058201548152602001600682018054610cd8906134c2565b80601f0160208091040260200160405190810160405280929190818152602001828054610d04906134c2565b8015610d515780601f10610d2657610100808354040283529160200191610d51565b820191906000526020600020905b815481529060010190602001808311610d3457829003601f168201915b50505050508152602001600782015481526020016008820154815260200160098201548152602001600a8201548152602001600b8201548152602001600c820154815250508152602001601482018054610daa906134c2565b80601f0160208091040260200160405190810160405280929190818152602001828054610dd6906134c2565b8015610e235780601f10610df857610100808354040283529160200191610e23565b820191906000526020600020905b815481529060010190602001808311610e0657829003601f168201915b5050505050815260200160158201805480602002602001604051908101604052809291908181526020016000905b82821015610efd578382906000526020600020018054610e70906134c2565b80601f0160208091040260200160405190810160405280929190818152602001828054610e9c906134c2565b8015610ee95780601f10610ebe57610100808354040283529160200191610ee9565b820191906000526020600020905b815481529060010190602001808311610ecc57829003601f168201915b505050505081526020019060010190610e51565b50505050815260200160168201805480602002602001604051908101604052809291908181526020016000905b82821015610fd6578382906000526020600020018054610f49906134c2565b80601f0160208091040260200160405190810160405280929190818152602001828054610f75906134c2565b8015610fc25780601f10610f9757610100808354040283529160200191610fc2565b820191906000526020600020905b815481529060010190602001808311610fa557829003601f168201915b505050505081526020019060010190610f2a565b50505050815260200160178201805480602002602001604051908101604052809291908181526020016000905b828210156110af578382906000526020600020018054611022906134c2565b80601f016020809104026020016040519081016040528092919081815260200182805461104e906134c2565b801561109b5780601f106110705761010080835404028352916020019161109b565b820191906000526020600020905b81548152906001019060200180831161107e57829003601f168201915b505050505081526020019060010190611003565b5050505081526020016018820180546110c7906134c2565b80601f01602080910402602001604051908101604052809291908181526020018280546110f3906134c2565b80156111405780601f1061111557610100808354040283529160200191611140565b820191906000526020600020905b81548152906001019060200180831161112357829003601f168201915b50505050508152602001601982018054611159906134c2565b80601f0160208091040260200160405190810160405280929190818152602001828054611185906134c2565b80156111d25780601f106111a7576101008083540402835291602001916111d2565b820191906000526020600020905b8154815290600101906020018083116111b557829003601f168201915b50505050508152602001601a820180546111eb906134c2565b80601f0160208091040260200160405190810160405280929190818152602001828054611217906134c2565b80156112645780601f1061123957610100808354040283529160200191611264565b820191906000526020600020905b81548152906001019060200180831161124757829003601f168201915b50505050508152602001601b820160009054906101000a900473ffffffffffffffffffffffffffffffffffffffff1673ffffffffffffffffffffffffffffffffffffffff1673ffffffffffffffffffffffffffffffffffffffff1681525050905092915050565b600060205280600052604060002060009150905080600001549080600101604051806060016040529081600082018054611304906134c2565b80601f0160208091040260200160405190810160405280929190818152602001828054611330906134c2565b801561137d5780601f106113525761010080835404028352916020019161137d565b820191906000526020600020905b81548152906001019060200180831161136057829003601f168201915b50505050508152602001600182018054611396906134c2565b80601f01602080910402602001604051908101604052809291908181526020018280546113c2906134c2565b801561140f5780601f106113e45761010080835404028352916020019161140f565b820191906000526020600020905b8154815290600101906020018083116113f257829003601f168201915b50505050508152602001600282018054611428906134c2565b80601f0160208091040260200160405190810160405280929190818152602001828054611454906134c2565b80156114a15780601f10611476576101008083540402835291602001916114a1565b820191906000526020600020905b81548152906001019060200180831161148457829003601f168201915b50505050508152505090806004016040518060600160405290816000820180546114ca906134c2565b80601f01602080910402602001604051908101604052809291908181526020018280546114f6906134c2565b80156115435780601f1061151857610100808354040283529160200191611543565b820191906000526020600020905b81548152906001019060200180831161152657829003601f168201915b5050505050815260200160018201805461155c906134c2565b80601f0160208091040260200160405190810160405280929190818152602001828054611588906134c2565b80156115d55780601f106115aa576101008083540402835291602001916115d5565b820191906000526020600020905b8154815290600101906020018083116115b857829003601f168201915b505050505081526020016002820180546115ee906134c2565b80601f016020809104026020016040519081016040528092919081815260200182805461161a906134c2565b80156116675780601f1061163c57610100808354040283529160200191611667565b820191906000526020600020905b81548152906001019060200180831161164a57829003601f168201915b5050505050815250509080600701604051806101a0016040529081600082018054611691906134c2565b80601f01602080910402602001604051908101604052809291908181526020018280546116bd906134c2565b801561170a5780601f106116df5761010080835404028352916020019161170a565b820191906000526020600020905b8154815290600101906020018083116116ed57829003601f168201915b50505050508152602001600182018054611723906134c2565b80601f016020809104026020016040519081016040528092919081815260200182805461174f906134c2565b801561179c5780601f106117715761010080835404028352916020019161179c565b820191906000526020600020905b81548152906001019060200180831161177f57829003601f168201915b50505050508152602001600282015481526020016003820154815260200160048201548152602001600582015481526020016006820180546117dd906134c2565b80601f0160208091040260200160405190810160405280929190818152602001828054611809906134c2565b80156118565780601f1061182b57610100808354040283529160200191611856565b820191906000526020600020905b81548152906001019060200180831161183957829003601f168201915b50505050508152602001600782015481526020016008820154815260200160098201548152602001600a8201548152602001600b8201548152602001600c82015481525050908060140180546118ab906134c2565b80601f01602080910402602001604051908101604052809291908181526020018280546118d7906134c2565b80156119245780601f106118f957610100808354040283529160200191611924565b820191906000526020600020905b81548152906001019060200180831161190757829003601f168201915b505050505090806018018054611939906134c2565b80601f0160208091040260200160405190810160405280929190818152602001828054611965906134c2565b80156119b25780601f10611987576101008083540402835291602001916119b2565b820191906000526020600020905b81548152906001019060200180831161199557829003601f168201915b5050505050908060190180546119c7906134c2565b80601f01602080910402602001604051908101604052809291908181526020018280546119f3906134c2565b8015611a405780601f10611a1557610100808354040283529160200191611a40565b820191906000526020600020905b815481529060010190602001808311611a2357829003601f168201915b50505050509080601a018054611a55906134c2565b80601f0160208091040260200160405190810160405280929190818152602001828054611a81906134c2565b8015611ace5780601f10611aa357610100808354040283529160200191611ace565b820191906000526020600020905b815481529060010190602001808311611ab157829003601f168201915b50505050509080601b0160009054906101000a900473ffffffffffffffffffffffffffffffffffffffff16905089565b600073ffffffffffffffffffffffffffffffffffffffff16600160008d79ffffffffffffffffffffffffffffffffffffffffffffffffffff191679ffffffffffffffffffffffffffffffffffffffffffffffffffff1916815260200190815260200160002060009054906101000a900473ffffffffffffffffffffffffffffffffffffffff1673ffffffffffffffffffffffffffffffffffffffff1614611bda576040517f08c379a0000000000000000000000000000000000000000000000000000000008152600401611bd19061397b565b60405180910390fd5b60006040518061018001604052804281526020018c81526020018b81526020018a8152602001898152602001888152602001878152602001868152602001858152602001848152602001838152602001600073ffffffffffffffffffffffffffffffffffffffff168152509050806000808e79ffffffffffffffffffffffffffffffffffffffffffffffffffff191679ffffffffffffffffffffffffffffffffffffffffffffffffffff19168152602001908152602001600020600082015181600001556020820151816001016000820151816000019081611cbc91906137a5565b506020820151816001019081611cd291906137a5565b506040820151816002019081611ce891906137a5565b5050506040820151816004016000820151816000019081611d0991906137a5565b506020820151816001019081611d1f91906137a5565b506040820151816002019081611d3591906137a5565b5050506060820151816007016000820151816000019081611d5691906137a5565b506020820151816001019081611d6c91906137a5565b5060408201518160020155606082015181600301556080820151816004015560a0820151816005015560c0820151816006019081611daa91906137a5565b5060e082015181600701556101008201518160080155610120820151816009015561014082015181600a015561016082015181600b015561018082015181600c015550506080820151816014019081611e0391906137a5565b5060a0820151816015019080519060200190611e20929190611fb8565b5060c0820151816016019080519060200190611e3d929190611fb8565b5060e0820151816017019080519060200190611e5a929190611fb8565b50610100820151816018019081611e7191906137a5565b50610120820151816019019081611e8891906137a5565b5061014082015181601a019081611e9f91906137a5565b5061016082015181601b0160006101000a81548173ffffffffffffffffffffffffffffffffffffffff021916908373ffffffffffffffffffffffffffffffffffffffff16021790555090505033600160008e79ffffffffffffffffffffffffffffffffffffffffffffffffffff191679ffffffffffffffffffffffffffffffffffffffffffffffffffff1916815260200190815260200160002060006101000a81548173ffffffffffffffffffffffffffffffffffffffff021916908373ffffffffffffffffffffffffffffffffffffffff160217905550505050505050505050505050565b60016020528060005260406000206000915054906101000a900473ffffffffffffffffffffffffffffffffffffffff1681565b828054828255906000526020600020908101928215612000579160200282015b82811115611fff578251829081611fef91906137a5565b5091602001919060010190611fd8565b5b50905061200d919061209a565b5090565b6040518061018001604052806000815260200161202c6120be565b81526020016120396120be565b81526020016120466120df565b815260200160608152602001606081526020016060815260200160608152602001606081526020016060815260200160608152602001600073ffffffffffffffffffffffffffffffffffffffff1681525090565b5b808211156120ba57600081816120b19190612147565b5060010161209b565b5090565b60405180606001604052806060815260200160608152602001606081525090565b604051806101a00160405280606081526020016060815260200160008152602001600081526020016000815260200160008152602001606081526020016000815260200160008152602001600081526020016000815260200160008152602001600081525090565b508054612153906134c2565b6000825580601f106121655750612184565b601f0160209004906000526020600020908101906121839190612187565b5b50565b5b808211156121a0576000816000905550600101612188565b5090565b6000604051905090565b600080fd5b600080fd5b60007fffffffffffff000000000000000000000000000000000000000000000000000082169050919050565b6121ed816121b8565b81146121f857600080fd5b50565b60008135905061220a816121e4565b92915050565b600080fd5b600080fd5b6000601f19601f8301169050919050565b7f4e487b7100000000000000000000000000000000000000000000000000000000600052604160045260246000fd5b6122638261221a565b810181811067ffffffffffffffff821117156122825761228161222b565b5b80604052505050565b60006122956121a4565b90506122a1828261225a565b919050565b600067ffffffffffffffff8211156122c1576122c061222b565b5b6122ca8261221a565b9050602081019050919050565b82818337600083830152505050565b60006122f96122f4846122a6565b61228b565b90508281526020810184848401111561231557612314612215565b5b6123208482856122d7565b509392505050565b600082601f83011261233d5761233c612210565b5b813561234d8482602086016122e6565b91505092915050565b60008060008060008060c08789031215612373576123726121ae565b5b600061238189828a016121fb565b965050602087013567ffffffffffffffff8111156123a2576123a16121b3565b5b6123ae89828a01612328565b955050604087013567ffffffffffffffff8111156123cf576123ce6121b3565b5b6123db89828a01612328565b945050606087013567ffffffffffffffff8111156123fc576123fb6121b3565b5b61240889828a01612328565b935050608087013567ffffffffffffffff811115612429576124286121b3565b5b61243589828a01612328565b92505060a087013567ffffffffffffffff811115612456576124556121b3565b5b61246289828a01612328565b9150509295509295509295565b600067ffffffffffffffff82111561248a5761248961222b565b5b602082029050602081019050919050565b600080fd5b60006124b36124ae8461246f565b61228b565b905080838252602082019050602084028301858111156124d6576124d561249b565b5b835b8181101561251d57803567ffffffffffffffff8111156124fb576124fa612210565b5b8086016125088982612328565b855260208501945050506020810190506124d8565b5050509392505050565b600082601f83011261253c5761253b612210565b5b813561254c8482602086016124a0565b91505092915050565b600073ffffffffffffffffffffffffffffffffffffffff82169050919050565b600061258082612555565b9050919050565b61259081612575565b811461259b57600080fd5b50565b6000813590506125ad81612587565b92915050565b60008060008060008060008060006101208a8c0312156125d6576125d56121ae565b5b60006125e48c828d016121fb565b99505060208a013567ffffffffffffffff811115612605576126046121b3565b5b6126118c828d01612328565b98505060408a013567ffffffffffffffff811115612632576126316121b3565b5b61263e8c828d01612328565b97505060608a013567ffffffffffffffff81111561265f5761265e6121b3565b5b61266b8c828d01612527565b96505060808a013567ffffffffffffffff81111561268c5761268b6121b3565b5b6126988c828d01612527565b95505060a08a013567ffffffffffffffff8111156126b9576126b86121b3565b5b6126c58c828d01612527565b94505060c08a013567ffffffffffffffff8111156126e6576126e56121b3565b5b6126f28c828d01612328565b93505060e08a013567ffffffffffffffff811115612713576127126121b3565b5b61271f8c828d01612328565b9250506101006127318c828d0161259e565b9150509295985092959850929598565b60008060408385031215612758576127576121ae565b5b6000612766858286016121fb565b925050602083013567ffffffffffffffff811115612787576127866121b3565b5b61279385828601612328565b9150509250929050565b6000819050919050565b6127b08161279d565b82525050565b600081519050919050565b600082825260208201905092915050565b60005b838110156127f05780820151818401526020810190506127d5565b60008484015250505050565b6000612807826127b6565b61281181856127c1565b93506128218185602086016127d2565b61282a8161221a565b840191505092915050565b6000606083016000830151848203600086015261285282826127fc565b9150506020830151848203602086015261286c82826127fc565b9150506040830151848203604086015261288682826127fc565b9150508091505092915050565b6000819050919050565b6128a681612893565b82525050565b60006101a08301600083015184820360008601526128ca82826127fc565b915050602083015184820360208601526128e482826127fc565b91505060408301516128f960408601826127a7565b50606083015161290c60608601826127a7565b50608083015161291f60808601826127a7565b5060a083015161293260a08601826127a7565b5060c083015184820360c086015261294a82826127fc565b91505060e083015161295f60e08601826127a7565b506101008301516129746101008601826127a7565b506101208301516129896101208601826127a7565b5061014083015161299e6101408601826127a7565b506101608301516129b361016086018261289d565b506101808301516129c861018086018261289d565b508091505092915050565b600081519050919050565b600082825260208201905092915050565b6000819050602082019050919050565b6000612a0b83836127fc565b905092915050565b6000602082019050919050565b6000612a2b826129d3565b612a3581856129de565b935083602082028501612a47856129ef565b8060005b85811015612a835784840389528151612a6485826129ff565b9450612a6f83612a13565b925060208a01995050600181019050612a4b565b50829750879550505050505092915050565b612a9e81612575565b82525050565b600061018083016000830151612abd60008601826127a7565b5060208301518482036020860152612ad58282612835565b91505060408301518482036040860152612aef8282612835565b91505060608301518482036060860152612b0982826128ac565b91505060808301518482036080860152612b2382826127fc565b91505060a083015184820360a0860152612b3d8282612a20565b91505060c083015184820360c0860152612b578282612a20565b91505060e083015184820360e0860152612b718282612a20565b915050610100830151848203610100860152612b8d82826127fc565b915050610120830151848203610120860152612ba982826127fc565b915050610140830151848203610140860152612bc582826127fc565b915050610160830151612bdc610160860182612a95565b508091505092915050565b60006020820190508181036000830152612c018184612aa4565b905092915050565b600060208284031215612c1f57612c1e6121ae565b5b6000612c2d848285016121fb565b91505092915050565b612c3f8161279d565b82525050565b60006060830160008301518482036000860152612c6282826127fc565b91505060208301518482036020860152612c7c82826127fc565b91505060408301518482036040860152612c9682826127fc565b9150508091505092915050565b60006101a0830160008301518482036000860152612cc182826127fc565b91505060208301518482036020860152612cdb82826127fc565b9150506040830151612cf060408601826127a7565b506060830151612d0360608601826127a7565b506080830151612d1660808601826127a7565b5060a0830151612d2960a08601826127a7565b5060c083015184820360c0860152612d4182826127fc565b91505060e0830151612d5660e08601826127a7565b50610100830151612d6b6101008601826127a7565b50610120830151612d806101208601826127a7565b50610140830151612d956101408601826127a7565b50610160830151612daa61016086018261289d565b50610180830151612dbf61018086018261289d565b508091505092915050565b600082825260208201905092915050565b6000612de6826127b6565b612df08185612dca565b9350612e008185602086016127d2565b612e098161221a565b840191505092915050565b612e1d81612575565b82525050565b600061012082019050612e39600083018c612c36565b8181036020830152612e4b818b612c45565b90508181036040830152612e5f818a612c45565b90508181036060830152612e738189612ca3565b90508181036080830152612e878188612ddb565b905081810360a0830152612e9b8187612ddb565b905081810360c0830152612eaf8186612ddb565b905081810360e0830152612ec38185612ddb565b9050612ed3610100830184612e14565b9a9950505050505050505050565b600080fd5b600080fd5b600060608284031215612f0157612f00612ee1565b5b612f0b606061228b565b9050600082013567ffffffffffffffff811115612f2b57612f2a612ee6565b5b612f3784828501612328565b600083015250602082013567ffffffffffffffff811115612f5b57612f5a612ee6565b5b612f6784828501612328565b602083015250604082013567ffffffffffffffff811115612f8b57612f8a612ee6565b5b612f9784828501612328565b60408301525092915050565b612fac8161279d565b8114612fb757600080fd5b50565b600081359050612fc981612fa3565b92915050565b612fd881612893565b8114612fe357600080fd5b50565b600081359050612ff581612fcf565b92915050565b60006101a0828403121561301257613011612ee1565b5b61301d6101a061228b565b9050600082013567ffffffffffffffff81111561303d5761303c612ee6565b5b61304984828501612328565b600083015250602082013567ffffffffffffffff81111561306d5761306c612ee6565b5b61307984828501612328565b602083015250604061308d84828501612fba565b60408301525060606130a184828501612fba565b60608301525060806130b584828501612fba565b60808301525060a06130c984828501612fba565b60a08301525060c082013567ffffffffffffffff8111156130ed576130ec612ee6565b5b6130f984828501612328565b60c08301525060e061310d84828501612fba565b60e08301525061010061312284828501612fba565b6101008301525061012061313884828501612fba565b6101208301525061014061314e84828501612fba565b6101408301525061016061316484828501612fe6565b6101608301525061018061317a84828501612fe6565b6101808301525092915050565b60008060008060008060008060008060006101608c8e0312156131ad576131ac6121ae565b5b60006131bb8e828f016121fb565b9b505060208c013567ffffffffffffffff8111156131dc576131db6121b3565b5b6131e88e828f01612eeb565b9a505060408c013567ffffffffffffffff811115613209576132086121b3565b5b6132158e828f01612eeb565b99505060608c013567ffffffffffffffff811115613236576132356121b3565b5b6132428e828f01612ffb565b98505060808c013567ffffffffffffffff811115613263576132626121b3565b5b61326f8e828f01612328565b97505060a08c013567ffffffffffffffff8111156132905761328f6121b3565b5b61329c8e828f01612527565b96505060c08c013567ffffffffffffffff8111156132bd576132bc6121b3565b5b6132c98e828f01612527565b95505060e08c013567ffffffffffffffff8111156132ea576132e96121b3565b5b6132f68e828f01612527565b9450506101008c013567ffffffffffffffff811115613318576133176121b3565b5b6133248e828f01612328565b9350506101208c013567ffffffffffffffff811115613346576133456121b3565b5b6133528e828f01612328565b9250506101408c013567ffffffffffffffff811115613374576133736121b3565b5b6133808e828f01612328565b9150509295989b509295989b9093969950565b60006020820190506133a86000830184612e14565b92915050565b7f4f6e6c79207468652074656e616e742063616e20706572666f726d207468697360008201527f20616374696f6e00000000000000000000000000000000000000000000000000602082015250565b600061340a602783612dca565b9150613415826133ae565b604082019050919050565b60006020820190508181036000830152613439816133fd565b9050919050565b600081905092915050565b6000613456826127b6565b6134608185613440565b93506134708185602086016127d2565b80840191505092915050565b6000613488828461344b565b915081905092915050565b7f4e487b7100000000000000000000000000000000000000000000000000000000600052602260045260246000fd5b600060028204905060018216806134da57607f821691505b6020821081036134ed576134ec613493565b5b50919050565b60008190508160005260206000209050919050565b60008154613515816134c2565b61351f8186613440565b9450600182166000811461353a576001811461354f57613582565b60ff1983168652811515820286019350613582565b613558856134f3565b60005b8381101561357a5781548189015260018201915060208101905061355b565b838801955050505b50505092915050565b60006135978284613508565b915081905092915050565b7f496e636f72726563742070617373776f72640000000000000000000000000000600082015250565b60006135d8601283612dca565b91506135e3826135a2565b602082019050919050565b60006020820190508181036000830152613607816135cb565b9050919050565b60006020601f8301049050919050565b600082821b905092915050565b60006008830261365b7fffffffffffffffffffffffffffffffffffffffffffffffffffffffffffffffff8261361e565b613665868361361e565b95508019841693508086168417925050509392505050565b6000819050919050565b60006136a261369d6136988461279d565b61367d565b61279d565b9050919050565b6000819050919050565b6136bc83613687565b6136d06136c8826136a9565b84845461362b565b825550505050565b600090565b6136e56136d8565b6136f08184846136b3565b505050565b5b81811015613714576137096000826136dd565b6001810190506136f6565b5050565b601f8211156137595761372a816134f3565b6137338461360e565b81016020851015613742578190505b61375661374e8561360e565b8301826136f5565b50505b505050565b600082821c905092915050565b600061377c6000198460080261375e565b1980831691505092915050565b6000613795838361376b565b9150826002028217905092915050565b6137ae826127b6565b67ffffffffffffffff8111156137c7576137c661222b565b5b6137d182546134c2565b6137dc828285613718565b600060209050601f83116001811461380f57600084156137fd578287015190505b6138078582613789565b86555061386f565b601f19841661381d866134f3565b60005b8281101561384557848901518255600182019150602085019450602081019050613820565b86831015613862578489015161385e601f89168261376b565b8355505b6001600288020188555050505b505050505050565b7f4f6e6c79206c616e646c6f72642063616e20706572666f726d2074686973206160008201527f6374696f6e000000000000000000000000000000000000000000000000000000602082015250565b60006138d3602583612dca565b91506138de82613877565b604082019050919050565b60006020820190508181036000830152613902816138c6565b9050919050565b7f436f6e7472616374207769746820676976656e206964656e746966696572206160008201527f6c72656164792065786973747300000000000000000000000000000000000000602082015250565b6000613965602d83612dca565b915061397082613909565b604082019050919050565b6000602082019050818103600083015261399481613958565b905091905056fea26469706673582212200ebead605e1db773f28d9cd0cab4c17d950e5a2be9e5c1812d1cc22e0093899d64736f6c63430008180033",
  "linkReferences": {},
  "deployedLinkReferences": {}
}