{
  "_format": "hh-sol-artifact-1",
  "contractName": "HouseRentalContract",
  "sourceName": "contracts/UpdatedRentalContract.sol",
  "abi": [
    {
      "inputs": [
        {
          "internalType": "bytes6",
          "name": "",
          "type": "bytes6"
        }
      ],
      "name": "contractOwners",
      "outputs": [
        {
          "internalType": "address",
          "name": "",
          "type": "address"
        }
      ],
      "stateMutability": "view",
      "type": "function"
    },
    {
      "inputs": [
        {
          "internalType": "bytes6",
          "name": "",
          "type": "bytes6"
        }
      ],
      "name": "contracts",
      "outputs": [
        {
          "internalType": "uint256",
          "name": "creationDate",
          "type": "uint256"
        },
        {
          "components": [
            {
              "internalType": "string",
              "name": "name",
              "type": "string"
            },
            {
              "internalType": "string",
              "name": "identificationNumber",
              "type": "string"
            },
            {
              "internalType": "string",
              "name": "house_address",
              "type": "string"
            }
          ],
          "internalType": "struct HouseRentalContract.PersonalInfo",
          "name": "landlord",
          "type": "tuple"
        },
        {
          "components": [
            {
              "internalType": "string",
              "name": "name",
              "type": "string"
            },
            {
              "internalType": "string",
              "name": "identificationNumber",
              "type": "string"
            },
            {
              "internalType": "string",
              "name": "house_address",
              "type": "string"
            }
          ],
          "internalType": "struct HouseRentalContract.PersonalInfo",
          "name": "tenant",
          "type": "tuple"
        },
        {
          "components": [
            {
              "internalType": "string",
              "name": "rent_address",
              "type": "string"
            },
            {
              "internalType": "string",
              "name": "buildingType",
              "type": "string"
            },
            {
              "internalType": "uint256",
              "name": "rentPeriod",
              "type": "uint256"
            },
            {
              "internalType": "uint256",
              "name": "effectiveStartDate",
              "type": "uint256"
            },
            {
              "internalType": "uint256",
              "name": "effectiveEndDate",
              "type": "uint256"
            },
            {
              "internalType": "uint256",
              "name": "monthlyRent",
              "type": "uint256"
            },
            {
              "internalType": "string",
              "name": "paymentMethod",
              "type": "string"
            },
            {
              "internalType": "uint256",
              "name": "maxOverduePeriod",
              "type": "uint256"
            },
            {
              "internalType": "uint256",
              "name": "deposit",
              "type": "uint256"
            },
            {
              "internalType": "uint256",
              "name": "utilityDeposit",
              "type": "uint256"
            },
            {
              "internalType": "uint256",
              "name": "advanceRental",
              "type": "uint256"
            },
            {
              "internalType": "int256",
              "name": "latitude",
              "type": "int256"
            },
            {
              "internalType": "int256",
              "name": "longitude",
              "type": "int256"
            }
          ],
          "internalType": "struct HouseRentalContract.HouseDetails",
          "name": "houseDetails",
          "type": "tuple"
        },
        {
          "internalType": "string",
          "name": "agreementDetails",
          "type": "string"
        },
        {
          "internalType": "string",
          "name": "landlordSignature",
          "type": "string"
        },
        {
          "internalType": "string",
          "name": "tenantSignature",
          "type": "string"
        },
        {
          "internalType": "string",
          "name": "password",
          "type": "string"
        }
      ],
      "stateMutability": "view",
      "type": "function"
    },
    {
      "inputs": [
        {
          "internalType": "bytes6",
          "name": "_uniqueIdentifier",
          "type": "bytes6"
        },
        {
          "components": [
            {
              "internalType": "string",
              "name": "name",
              "type": "string"
            },
            {
              "internalType": "string",
              "name": "identificationNumber",
              "type": "string"
            },
            {
              "internalType": "string",
              "name": "house_address",
              "type": "string"
            }
          ],
          "internalType": "struct HouseRentalContract.PersonalInfo",
          "name": "_landlord",
          "type": "tuple"
        },
        {
          "components": [
            {
              "internalType": "string",
              "name": "name",
              "type": "string"
            },
            {
              "internalType": "string",
              "name": "identificationNumber",
              "type": "string"
            },
            {
              "internalType": "string",
              "name": "house_address",
              "type": "string"
            }
          ],
          "internalType": "struct HouseRentalContract.PersonalInfo",
          "name": "_tenant",
          "type": "tuple"
        },
        {
          "components": [
            {
              "internalType": "string",
              "name": "rent_address",
              "type": "string"
            },
            {
              "internalType": "string",
              "name": "buildingType",
              "type": "string"
            },
            {
              "internalType": "uint256",
              "name": "rentPeriod",
              "type": "uint256"
            },
            {
              "internalType": "uint256",
              "name": "effectiveStartDate",
              "type": "uint256"
            },
            {
              "internalType": "uint256",
              "name": "effectiveEndDate",
              "type": "uint256"
            },
            {
              "internalType": "uint256",
              "name": "monthlyRent",
              "type": "uint256"
            },
            {
              "internalType": "string",
              "name": "paymentMethod",
              "type": "string"
            },
            {
              "internalType": "uint256",
              "name": "maxOverduePeriod",
              "type": "uint256"
            },
            {
              "internalType": "uint256",
              "name": "deposit",
              "type": "uint256"
            },
            {
              "internalType": "uint256",
              "name": "utilityDeposit",
              "type": "uint256"
            },
            {
              "internalType": "uint256",
              "name": "advanceRental",
              "type": "uint256"
            },
            {
              "internalType": "int256",
              "name": "latitude",
              "type": "int256"
            },
            {
              "internalType": "int256",
              "name": "longitude",
              "type": "int256"
            }
          ],
          "internalType": "struct HouseRentalContract.HouseDetails",
          "name": "_houseDetails",
          "type": "tuple"
        },
        {
          "internalType": "string",
          "name": "_agreementDetails",
          "type": "string"
        },
        {
          "internalType": "string[]",
          "name": "_tenantAgreements",
          "type": "string[]"
        },
        {
          "internalType": "string[]",
          "name": "_landlordResponsibilities",
          "type": "string[]"
        },
        {
          "internalType": "string[]",
          "name": "_agreementsBetweenLandlord",
          "type": "string[]"
        },
        {
          "internalType": "string",
          "name": "_landlordSignature",
          "type": "string"
        },
        {
          "internalType": "string",
          "name": "_tenantSignature",
          "type": "string"
        },
        {
          "internalType": "string",
          "name": "_password",
          "type": "string"
        }
      ],
      "name": "createContract",
      "outputs": [],
      "stateMutability": "nonpayable",
      "type": "function"
    },
    {
      "inputs": [
        {
          "internalType": "bytes6",
          "name": "contractId",
          "type": "bytes6"
        },
        {
          "internalType": "string",
          "name": "_password",
          "type": "string"
        }
      ],
      "name": "getContract",
      "outputs": [
        {
          "components": [
            {
              "internalType": "uint256",
              "name": "creationDate",
              "type": "uint256"
            },
            {
              "components": [
                {
                  "internalType": "string",
                  "name": "name",
                  "type": "string"
                },
                {
                  "internalType": "string",
                  "name": "identificationNumber",
                  "type": "string"
                },
                {
                  "internalType": "string",
                  "name": "house_address",
                  "type": "string"
                }
              ],
              "internalType": "struct HouseRentalContract.PersonalInfo",
              "name": "landlord",
              "type": "tuple"
            },
            {
              "components": [
                {
                  "internalType": "string",
                  "name": "name",
                  "type": "string"
                },
                {
                  "internalType": "string",
                  "name": "identificationNumber",
                  "type": "string"
                },
                {
                  "internalType": "string",
                  "name": "house_address",
                  "type": "string"
                }
              ],
              "internalType": "struct HouseRentalContract.PersonalInfo",
              "name": "tenant",
              "type": "tuple"
            },
            {
              "components": [
                {
                  "internalType": "string",
                  "name": "rent_address",
                  "type": "string"
                },
                {
                  "internalType": "string",
                  "name": "buildingType",
                  "type": "string"
                },
                {
                  "internalType": "uint256",
                  "name": "rentPeriod",
                  "type": "uint256"
                },
                {
                  "internalType": "uint256",
                  "name": "effectiveStartDate",
                  "type": "uint256"
                },
                {
                  "internalType": "uint256",
                  "name": "effectiveEndDate",
                  "type": "uint256"
                },
                {
                  "internalType": "uint256",
                  "name": "monthlyRent",
                  "type": "uint256"
                },
                {
                  "internalType": "string",
                  "name": "paymentMethod",
                  "type": "string"
                },
                {
                  "internalType": "uint256",
                  "name": "maxOverduePeriod",
                  "type": "uint256"
                },
                {
                  "internalType": "uint256",
                  "name": "deposit",
                  "type": "uint256"
                },
                {
                  "internalType": "uint256",
                  "name": "utilityDeposit",
                  "type": "uint256"
                },
                {
                  "internalType": "uint256",
                  "name": "advanceRental",
                  "type": "uint256"
                },
                {
                  "internalType": "int256",
                  "name": "latitude",
                  "type": "int256"
                },
                {
                  "internalType": "int256",
                  "name": "longitude",
                  "type": "int256"
                }
              ],
              "internalType": "struct HouseRentalContract.HouseDetails",
              "name": "houseDetails",
              "type": "tuple"
            },
            {
              "internalType": "string",
              "name": "agreementDetails",
              "type": "string"
            },
            {
              "internalType": "string[]",
              "name": "tenantAgreements",
              "type": "string[]"
            },
            {
              "internalType": "string[]",
              "name": "landlordResponsibilities",
              "type": "string[]"
            },
            {
              "internalType": "string[]",
              "name": "agreementsBetweenLandlord",
              "type": "string[]"
            },
            {
              "internalType": "string",
              "name": "landlordSignature",
              "type": "string"
            },
            {
              "internalType": "string",
              "name": "tenantSignature",
              "type": "string"
            },
            {
              "internalType": "string",
              "name": "password",
              "type": "string"
            }
          ],
          "internalType": "struct HouseRentalContract.ContractTerms",
          "name": "",
          "type": "tuple"
        }
      ],
      "stateMutability": "view",
      "type": "function"
    },
    {
      "inputs": [
        {
          "internalType": "bytes6",
          "name": "contractId",
          "type": "bytes6"
        },
        {
          "internalType": "string",
          "name": "_tenantSignature",
          "type": "string"
        }
      ],
      "name": "signContract",
      "outputs": [],
      "stateMutability": "nonpayable",
      "type": "function"
    },
    {
      "inputs": [
        {
          "internalType": "bytes6",
          "name": "contractId",
          "type": "bytes6"
        },
        {
          "internalType": "string",
          "name": "_password",
          "type": "string"
        },
        {
          "internalType": "string",
          "name": "_agreementDetails",
          "type": "string"
        },
        {
          "internalType": "string[]",
          "name": "_tenantAgreements",
          "type": "string[]"
        },
        {
          "internalType": "string[]",
          "name": "_landlordResponsibilities",
          "type": "string[]"
        },
        {
          "internalType": "string[]",
          "name": "_agreementsBetweenLandlord",
          "type": "string[]"
        },
        {
          "internalType": "string",
          "name": "_landlordSignature",
          "type": "string"
        },
        {
          "internalType": "string",
          "name": "_tenantSignature",
          "type": "string"
        }
      ],
      "name": "updateContract",
      "outputs": [],
      "stateMutability": "nonpayable",
      "type": "function"
    }
  ],
  "bytecode": "0x608060405234801561001057600080fd5b506136c6806100206000396000f3fe608060405234801561001057600080fd5b50600436106100625760003560e01c8063792855e4146100675780639cfa058b14610097578063ba9c5f0d146100ce578063cc8e3dde146100ea578063cf23b7c01461011a578063e6355b6d14610136575b600080fd5b610081600480360381019061007c91906120e2565b610152565b60405161008e9190612564565b60405180910390f35b6100b160048036038101906100ac9190612586565b610d36565b6040516100c5989796959493929190612791565b60405180910390f35b6100e860048036038101906100e39190612bcc565b611543565b005b61010460048036038101906100ff9190612586565b611965565b6040516101119190612e19565b60405180910390f35b610134600480360381019061012f9190612e34565b611998565b005b610150600480360381019061014b91906120e2565b611c2d565b005b61015a611d61565b8160405160200161016b9190612fea565b604051602081830303815290604052805190602001206000808579ffffffffffffffffffffffffffffffffffffffffffffffffffff191679ffffffffffffffffffffffffffffffffffffffffffffffffffff19168152602001908152602001600020601a016040516020016101e091906130f9565b6040516020818303038152906040528051906020012014610236576040517f08c379a000000000000000000000000000000000000000000000000000000000815260040161022d9061315c565b60405180910390fd5b6000808479ffffffffffffffffffffffffffffffffffffffffffffffffffff191679ffffffffffffffffffffffffffffffffffffffffffffffffffff191681526020019081526020016000206040518061016001604052908160008201548152602001600182016040518060600160405290816000820180546102b890613030565b80601f01602080910402602001604051908101604052809291908181526020018280546102e490613030565b80156103315780601f1061030657610100808354040283529160200191610331565b820191906000526020600020905b81548152906001019060200180831161031457829003601f168201915b5050505050815260200160018201805461034a90613030565b80601f016020809104026020016040519081016040528092919081815260200182805461037690613030565b80156103c35780601f10610398576101008083540402835291602001916103c3565b820191906000526020600020905b8154815290600101906020018083116103a657829003601f168201915b505050505081526020016002820180546103dc90613030565b80601f016020809104026020016040519081016040528092919081815260200182805461040890613030565b80156104555780601f1061042a57610100808354040283529160200191610455565b820191906000526020600020905b81548152906001019060200180831161043857829003601f168201915b50505050508152505081526020016004820160405180606001604052908160008201805461048290613030565b80601f01602080910402602001604051908101604052809291908181526020018280546104ae90613030565b80156104fb5780601f106104d0576101008083540402835291602001916104fb565b820191906000526020600020905b8154815290600101906020018083116104de57829003601f168201915b5050505050815260200160018201805461051490613030565b80601f016020809104026020016040519081016040528092919081815260200182805461054090613030565b801561058d5780601f106105625761010080835404028352916020019161058d565b820191906000526020600020905b81548152906001019060200180831161057057829003601f168201915b505050505081526020016002820180546105a690613030565b80601f01602080910402602001604051908101604052809291908181526020018280546105d290613030565b801561061f5780601f106105f45761010080835404028352916020019161061f565b820191906000526020600020905b81548152906001019060200180831161060257829003601f168201915b505050505081525050815260200160078201604051806101a001604052908160008201805461064d90613030565b80601f016020809104026020016040519081016040528092919081815260200182805461067990613030565b80156106c65780601f1061069b576101008083540402835291602001916106c6565b820191906000526020600020905b8154815290600101906020018083116106a957829003601f168201915b505050505081526020016001820180546106df90613030565b80601f016020809104026020016040519081016040528092919081815260200182805461070b90613030565b80156107585780601f1061072d57610100808354040283529160200191610758565b820191906000526020600020905b81548152906001019060200180831161073b57829003601f168201915b505050505081526020016002820154815260200160038201548152602001600482015481526020016005820154815260200160068201805461079990613030565b80601f01602080910402602001604051908101604052809291908181526020018280546107c590613030565b80156108125780601f106107e757610100808354040283529160200191610812565b820191906000526020600020905b8154815290600101906020018083116107f557829003601f168201915b50505050508152602001600782015481526020016008820154815260200160098201548152602001600a8201548152602001600b8201548152602001600c82015481525050815260200160148201805461086b90613030565b80601f016020809104026020016040519081016040528092919081815260200182805461089790613030565b80156108e45780601f106108b9576101008083540402835291602001916108e4565b820191906000526020600020905b8154815290600101906020018083116108c757829003601f168201915b5050505050815260200160158201805480602002602001604051908101604052809291908181526020016000905b828210156109be57838290600052602060002001805461093190613030565b80601f016020809104026020016040519081016040528092919081815260200182805461095d90613030565b80156109aa5780601f1061097f576101008083540402835291602001916109aa565b820191906000526020600020905b81548152906001019060200180831161098d57829003601f168201915b505050505081526020019060010190610912565b50505050815260200160168201805480602002602001604051908101604052809291908181526020016000905b82821015610a97578382906000526020600020018054610a0a90613030565b80601f0160208091040260200160405190810160405280929190818152602001828054610a3690613030565b8015610a835780601f10610a5857610100808354040283529160200191610a83565b820191906000526020600020905b815481529060010190602001808311610a6657829003601f168201915b5050505050815260200190600101906109eb565b50505050815260200160178201805480602002602001604051908101604052809291908181526020016000905b82821015610b70578382906000526020600020018054610ae390613030565b80601f0160208091040260200160405190810160405280929190818152602001828054610b0f90613030565b8015610b5c5780601f10610b3157610100808354040283529160200191610b5c565b820191906000526020600020905b815481529060010190602001808311610b3f57829003601f168201915b505050505081526020019060010190610ac4565b505050508152602001601882018054610b8890613030565b80601f0160208091040260200160405190810160405280929190818152602001828054610bb490613030565b8015610c015780601f10610bd657610100808354040283529160200191610c01565b820191906000526020600020905b815481529060010190602001808311610be457829003601f168201915b50505050508152602001601982018054610c1a90613030565b80601f0160208091040260200160405190810160405280929190818152602001828054610c4690613030565b8015610c935780601f10610c6857610100808354040283529160200191610c93565b820191906000526020600020905b815481529060010190602001808311610c7657829003601f168201915b50505050508152602001601a82018054610cac90613030565b80601f0160208091040260200160405190810160405280929190818152602001828054610cd890613030565b8015610d255780601f10610cfa57610100808354040283529160200191610d25565b820191906000526020600020905b815481529060010190602001808311610d0857829003601f168201915b505050505081525050905092915050565b600060205280600052604060002060009150905080600001549080600101604051806060016040529081600082018054610d6f90613030565b80601f0160208091040260200160405190810160405280929190818152602001828054610d9b90613030565b8015610de85780601f10610dbd57610100808354040283529160200191610de8565b820191906000526020600020905b815481529060010190602001808311610dcb57829003601f168201915b50505050508152602001600182018054610e0190613030565b80601f0160208091040260200160405190810160405280929190818152602001828054610e2d90613030565b8015610e7a5780601f10610e4f57610100808354040283529160200191610e7a565b820191906000526020600020905b815481529060010190602001808311610e5d57829003601f168201915b50505050508152602001600282018054610e9390613030565b80601f0160208091040260200160405190810160405280929190818152602001828054610ebf90613030565b8015610f0c5780601f10610ee157610100808354040283529160200191610f0c565b820191906000526020600020905b815481529060010190602001808311610eef57829003601f168201915b5050505050815250509080600401604051806060016040529081600082018054610f3590613030565b80601f0160208091040260200160405190810160405280929190818152602001828054610f6190613030565b8015610fae5780601f10610f8357610100808354040283529160200191610fae565b820191906000526020600020905b815481529060010190602001808311610f9157829003601f168201915b50505050508152602001600182018054610fc790613030565b80601f0160208091040260200160405190810160405280929190818152602001828054610ff390613030565b80156110405780601f1061101557610100808354040283529160200191611040565b820191906000526020600020905b81548152906001019060200180831161102357829003601f168201915b5050505050815260200160028201805461105990613030565b80601f016020809104026020016040519081016040528092919081815260200182805461108590613030565b80156110d25780601f106110a7576101008083540402835291602001916110d2565b820191906000526020600020905b8154815290600101906020018083116110b557829003601f168201915b5050505050815250509080600701604051806101a00160405290816000820180546110fc90613030565b80601f016020809104026020016040519081016040528092919081815260200182805461112890613030565b80156111755780601f1061114a57610100808354040283529160200191611175565b820191906000526020600020905b81548152906001019060200180831161115857829003601f168201915b5050505050815260200160018201805461118e90613030565b80601f01602080910402602001604051908101604052809291908181526020018280546111ba90613030565b80156112075780601f106111dc57610100808354040283529160200191611207565b820191906000526020600020905b8154815290600101906020018083116111ea57829003601f168201915b505050505081526020016002820154815260200160038201548152602001600482015481526020016005820154815260200160068201805461124890613030565b80601f016020809104026020016040519081016040528092919081815260200182805461127490613030565b80156112c15780601f10611296576101008083540402835291602001916112c1565b820191906000526020600020905b8154815290600101906020018083116112a457829003601f168201915b50505050508152602001600782015481526020016008820154815260200160098201548152602001600a8201548152602001600b8201548152602001600c820154815250509080601401805461131690613030565b80601f016020809104026020016040519081016040528092919081815260200182805461134290613030565b801561138f5780601f106113645761010080835404028352916020019161138f565b820191906000526020600020905b81548152906001019060200180831161137257829003601f168201915b5050505050908060180180546113a490613030565b80601f01602080910402602001604051908101604052809291908181526020018280546113d090613030565b801561141d5780601f106113f25761010080835404028352916020019161141d565b820191906000526020600020905b81548152906001019060200180831161140057829003601f168201915b50505050509080601901805461143290613030565b80601f016020809104026020016040519081016040528092919081815260200182805461145e90613030565b80156114ab5780601f10611480576101008083540402835291602001916114ab565b820191906000526020600020905b81548152906001019060200180831161148e57829003601f168201915b50505050509080601a0180546114c090613030565b80601f01602080910402602001604051908101604052809291908181526020018280546114ec90613030565b80156115395780601f1061150e57610100808354040283529160200191611539565b820191906000526020600020905b81548152906001019060200180831161151c57829003601f168201915b5050505050905088565b600073ffffffffffffffffffffffffffffffffffffffff16600160008d79ffffffffffffffffffffffffffffffffffffffffffffffffffff191679ffffffffffffffffffffffffffffffffffffffffffffffffffff1916815260200190815260200160002060009054906101000a900473ffffffffffffffffffffffffffffffffffffffff1673ffffffffffffffffffffffffffffffffffffffff161461161f576040517f08c379a0000000000000000000000000000000000000000000000000000000008152600401611616906131ee565b60405180910390fd5b60006040518061016001604052804281526020018c81526020018b81526020018a8152602001898152602001888152602001878152602001868152602001858152602001848152602001838152509050806000808e79ffffffffffffffffffffffffffffffffffffffffffffffffffff191679ffffffffffffffffffffffffffffffffffffffffffffffffffff191681526020019081526020016000206000820151816000015560208201518160010160008201518160000190816116e491906133a5565b5060208201518160010190816116fa91906133a5565b50604082015181600201908161171091906133a5565b505050604082015181600401600082015181600001908161173191906133a5565b50602082015181600101908161174791906133a5565b50604082015181600201908161175d91906133a5565b505050606082015181600701600082015181600001908161177e91906133a5565b50602082015181600101908161179491906133a5565b5060408201518160020155606082015181600301556080820151816004015560a0820151816005015560c08201518160060190816117d291906133a5565b5060e082015181600701556101008201518160080155610120820151816009015561014082015181600a015561016082015181600b015561018082015181600c01555050608082015181601401908161182b91906133a5565b5060a0820151816015019080519060200190611848929190611dcd565b5060c0820151816016019080519060200190611865929190611dcd565b5060e0820151816017019080519060200190611882929190611dcd565b5061010082015181601801908161189991906133a5565b506101208201518160190190816118b091906133a5565b5061014082015181601a0190816118c791906133a5565b5090505033600160008e79ffffffffffffffffffffffffffffffffffffffffffffffffffff191679ffffffffffffffffffffffffffffffffffffffffffffffffffff1916815260200190815260200160002060006101000a81548173ffffffffffffffffffffffffffffffffffffffff021916908373ffffffffffffffffffffffffffffffffffffffff160217905550505050505050505050505050565b60016020528060005260406000206000915054906101000a900473ffffffffffffffffffffffffffffffffffffffff1681565b873373ffffffffffffffffffffffffffffffffffffffff16600160008379ffffffffffffffffffffffffffffffffffffffffffffffffffff191679ffffffffffffffffffffffffffffffffffffffffffffffffffff1916815260200190815260200160002060009054906101000a900473ffffffffffffffffffffffffffffffffffffffff1673ffffffffffffffffffffffffffffffffffffffff1614611a74576040517f08c379a0000000000000000000000000000000000000000000000000000000008152600401611a6b906134e9565b60405180910390fd5b87604051602001611a859190612fea565b604051602081830303815290604052805190602001206000808b79ffffffffffffffffffffffffffffffffffffffffffffffffffff191679ffffffffffffffffffffffffffffffffffffffffffffffffffff19168152602001908152602001600020601a01604051602001611afa91906130f9565b6040516020818303038152906040528051906020012014611b50576040517f08c379a0000000000000000000000000000000000000000000000000000000008152600401611b479061315c565b60405180910390fd5b60008060008b79ffffffffffffffffffffffffffffffffffffffffffffffffffff191679ffffffffffffffffffffffffffffffffffffffffffffffffffff19168152602001908152602001600020905087816014019081611bb191906133a5565b5086816015019080519060200190611bca929190611dcd565b5085816016019080519060200190611be3929190611dcd565b5084816017019080519060200190611bfc929190611dcd565b5083816018019081611c0e91906133a5565b5082816019019081611c2091906133a5565b5050505050505050505050565b816000808279ffffffffffffffffffffffffffffffffffffffffffffffffffff191679ffffffffffffffffffffffffffffffffffffffffffffffffffff19168152602001908152602001600020600401600201611c899061358d565b60601c73ffffffffffffffffffffffffffffffffffffffff163373ffffffffffffffffffffffffffffffffffffffff1614611cf9576040517f08c379a0000000000000000000000000000000000000000000000000000000008152600401611cf090613670565b60405180910390fd5b60008060008579ffffffffffffffffffffffffffffffffffffffffffffffffffff191679ffffffffffffffffffffffffffffffffffffffffffffffffffff19168152602001908152602001600020905082816019019081611d5a91906133a5565b5050505050565b60405180610160016040528060008152602001611d7c611e26565b8152602001611d89611e26565b8152602001611d96611e47565b8152602001606081526020016060815260200160608152602001606081526020016060815260200160608152602001606081525090565b828054828255906000526020600020908101928215611e15579160200282015b82811115611e14578251829081611e0491906133a5565b5091602001919060010190611ded565b5b509050611e229190611eaf565b5090565b60405180606001604052806060815260200160608152602001606081525090565b604051806101a00160405280606081526020016060815260200160008152602001600081526020016000815260200160008152602001606081526020016000815260200160008152602001600081526020016000815260200160008152602001600081525090565b5b80821115611ecf5760008181611ec69190611ed3565b50600101611eb0565b5090565b508054611edf90613030565b6000825580601f10611ef15750611f10565b601f016020900490600052602060002090810190611f0f9190611f13565b5b50565b5b80821115611f2c576000816000905550600101611f14565b5090565b6000604051905090565b600080fd5b600080fd5b60007fffffffffffff000000000000000000000000000000000000000000000000000082169050919050565b611f7981611f44565b8114611f8457600080fd5b50565b600081359050611f9681611f70565b92915050565b600080fd5b600080fd5b6000601f19601f8301169050919050565b7f4e487b7100000000000000000000000000000000000000000000000000000000600052604160045260246000fd5b611fef82611fa6565b810181811067ffffffffffffffff8211171561200e5761200d611fb7565b5b80604052505050565b6000612021611f30565b905061202d8282611fe6565b919050565b600067ffffffffffffffff82111561204d5761204c611fb7565b5b61205682611fa6565b9050602081019050919050565b82818337600083830152505050565b600061208561208084612032565b612017565b9050828152602081018484840111156120a1576120a0611fa1565b5b6120ac848285612063565b509392505050565b600082601f8301126120c9576120c8611f9c565b5b81356120d9848260208601612072565b91505092915050565b600080604083850312156120f9576120f8611f3a565b5b600061210785828601611f87565b925050602083013567ffffffffffffffff81111561212857612127611f3f565b5b612134858286016120b4565b9150509250929050565b6000819050919050565b6121518161213e565b82525050565b600081519050919050565b600082825260208201905092915050565b60005b83811015612191578082015181840152602081019050612176565b60008484015250505050565b60006121a882612157565b6121b28185612162565b93506121c2818560208601612173565b6121cb81611fa6565b840191505092915050565b600060608301600083015184820360008601526121f3828261219d565b9150506020830151848203602086015261220d828261219d565b91505060408301518482036040860152612227828261219d565b9150508091505092915050565b6000819050919050565b61224781612234565b82525050565b60006101a083016000830151848203600086015261226b828261219d565b91505060208301518482036020860152612285828261219d565b915050604083015161229a6040860182612148565b5060608301516122ad6060860182612148565b5060808301516122c06080860182612148565b5060a08301516122d360a0860182612148565b5060c083015184820360c08601526122eb828261219d565b91505060e083015161230060e0860182612148565b50610100830151612315610100860182612148565b5061012083015161232a610120860182612148565b5061014083015161233f610140860182612148565b5061016083015161235461016086018261223e565b5061018083015161236961018086018261223e565b508091505092915050565b600081519050919050565b600082825260208201905092915050565b6000819050602082019050919050565b60006123ac838361219d565b905092915050565b6000602082019050919050565b60006123cc82612374565b6123d6818561237f565b9350836020820285016123e885612390565b8060005b85811015612424578484038952815161240585826123a0565b9450612410836123b4565b925060208a019950506001810190506123ec565b50829750879550505050505092915050565b60006101608301600083015161244f6000860182612148565b506020830151848203602086015261246782826121d6565b9150506040830151848203604086015261248182826121d6565b9150506060830151848203606086015261249b828261224d565b915050608083015184820360808601526124b5828261219d565b91505060a083015184820360a08601526124cf82826123c1565b91505060c083015184820360c08601526124e982826123c1565b91505060e083015184820360e086015261250382826123c1565b91505061010083015184820361010086015261251f828261219d565b91505061012083015184820361012086015261253b828261219d565b915050610140830151848203610140860152612557828261219d565b9150508091505092915050565b6000602082019050818103600083015261257e8184612436565b905092915050565b60006020828403121561259c5761259b611f3a565b5b60006125aa84828501611f87565b91505092915050565b6125bc8161213e565b82525050565b600060608301600083015184820360008601526125df828261219d565b915050602083015184820360208601526125f9828261219d565b91505060408301518482036040860152612613828261219d565b9150508091505092915050565b60006101a083016000830151848203600086015261263e828261219d565b91505060208301518482036020860152612658828261219d565b915050604083015161266d6040860182612148565b5060608301516126806060860182612148565b5060808301516126936080860182612148565b5060a08301516126a660a0860182612148565b5060c083015184820360c08601526126be828261219d565b91505060e08301516126d360e0860182612148565b506101008301516126e8610100860182612148565b506101208301516126fd610120860182612148565b50610140830151612712610140860182612148565b5061016083015161272761016086018261223e565b5061018083015161273c61018086018261223e565b508091505092915050565b600082825260208201905092915050565b600061276382612157565b61276d8185612747565b935061277d818560208601612173565b61278681611fa6565b840191505092915050565b6000610100820190506127a7600083018b6125b3565b81810360208301526127b9818a6125c2565b905081810360408301526127cd81896125c2565b905081810360608301526127e18188612620565b905081810360808301526127f58187612758565b905081810360a08301526128098186612758565b905081810360c083015261281d8185612758565b905081810360e08301526128318184612758565b90509998505050505050505050565b600080fd5b600080fd5b6000606082840312156128605761285f612840565b5b61286a6060612017565b9050600082013567ffffffffffffffff81111561288a57612889612845565b5b612896848285016120b4565b600083015250602082013567ffffffffffffffff8111156128ba576128b9612845565b5b6128c6848285016120b4565b602083015250604082013567ffffffffffffffff8111156128ea576128e9612845565b5b6128f6848285016120b4565b60408301525092915050565b61290b8161213e565b811461291657600080fd5b50565b60008135905061292881612902565b92915050565b61293781612234565b811461294257600080fd5b50565b6000813590506129548161292e565b92915050565b60006101a0828403121561297157612970612840565b5b61297c6101a0612017565b9050600082013567ffffffffffffffff81111561299c5761299b612845565b5b6129a8848285016120b4565b600083015250602082013567ffffffffffffffff8111156129cc576129cb612845565b5b6129d8848285016120b4565b60208301525060406129ec84828501612919565b6040830152506060612a0084828501612919565b6060830152506080612a1484828501612919565b60808301525060a0612a2884828501612919565b60a08301525060c082013567ffffffffffffffff811115612a4c57612a4b612845565b5b612a58848285016120b4565b60c08301525060e0612a6c84828501612919565b60e083015250610100612a8184828501612919565b61010083015250610120612a9784828501612919565b61012083015250610140612aad84828501612919565b61014083015250610160612ac384828501612945565b61016083015250610180612ad984828501612945565b6101808301525092915050565b600067ffffffffffffffff821115612b0157612b00611fb7565b5b602082029050602081019050919050565b600080fd5b6000612b2a612b2584612ae6565b612017565b90508083825260208201905060208402830185811115612b4d57612b4c612b12565b5b835b81811015612b9457803567ffffffffffffffff811115612b7257612b71611f9c565b5b808601612b7f89826120b4565b85526020850194505050602081019050612b4f565b5050509392505050565b600082601f830112612bb357612bb2611f9c565b5b8135612bc3848260208601612b17565b91505092915050565b60008060008060008060008060008060006101608c8e031215612bf257612bf1611f3a565b5b6000612c008e828f01611f87565b9b505060208c013567ffffffffffffffff811115612c2157612c20611f3f565b5b612c2d8e828f0161284a565b9a505060408c013567ffffffffffffffff811115612c4e57612c4d611f3f565b5b612c5a8e828f0161284a565b99505060608c013567ffffffffffffffff811115612c7b57612c7a611f3f565b5b612c878e828f0161295a565b98505060808c013567ffffffffffffffff811115612ca857612ca7611f3f565b5b612cb48e828f016120b4565b97505060a08c013567ffffffffffffffff811115612cd557612cd4611f3f565b5b612ce18e828f01612b9e565b96505060c08c013567ffffffffffffffff811115612d0257612d01611f3f565b5b612d0e8e828f01612b9e565b95505060e08c013567ffffffffffffffff811115612d2f57612d2e611f3f565b5b612d3b8e828f01612b9e565b9450506101008c013567ffffffffffffffff811115612d5d57612d5c611f3f565b5b612d698e828f016120b4565b9350506101208c013567ffffffffffffffff811115612d8b57612d8a611f3f565b5b612d978e828f016120b4565b9250506101408c013567ffffffffffffffff811115612db957612db8611f3f565b5b612dc58e828f016120b4565b9150509295989b509295989b9093969950565b600073ffffffffffffffffffffffffffffffffffffffff82169050919050565b6000612e0382612dd8565b9050919050565b612e1381612df8565b82525050565b6000602082019050612e2e6000830184612e0a565b92915050565b600080600080600080600080610100898b031215612e5557612e54611f3a565b5b6000612e638b828c01611f87565b985050602089013567ffffffffffffffff811115612e8457612e83611f3f565b5b612e908b828c016120b4565b975050604089013567ffffffffffffffff811115612eb157612eb0611f3f565b5b612ebd8b828c016120b4565b965050606089013567ffffffffffffffff811115612ede57612edd611f3f565b5b612eea8b828c01612b9e565b955050608089013567ffffffffffffffff811115612f0b57612f0a611f3f565b5b612f178b828c01612b9e565b94505060a089013567ffffffffffffffff811115612f3857612f37611f3f565b5b612f448b828c01612b9e565b93505060c089013567ffffffffffffffff811115612f6557612f64611f3f565b5b612f718b828c016120b4565b92505060e089013567ffffffffffffffff811115612f9257612f91611f3f565b5b612f9e8b828c016120b4565b9150509295985092959890939650565b600081905092915050565b6000612fc482612157565b612fce8185612fae565b9350612fde818560208601612173565b80840191505092915050565b6000612ff68284612fb9565b915081905092915050565b7f4e487b7100000000000000000000000000000000000000000000000000000000600052602260045260246000fd5b6000600282049050600182168061304857607f821691505b60208210810361305b5761305a613001565b5b50919050565b60008190508160005260206000209050919050565b6000815461308381613030565b61308d8186612fae565b945060018216600081146130a857600181146130bd576130f0565b60ff19831686528115158202860193506130f0565b6130c685613061565b60005b838110156130e8578154818901526001820191506020810190506130c9565b838801955050505b50505092915050565b60006131058284613076565b915081905092915050565b7f496e636f72726563742070617373776f72640000000000000000000000000000600082015250565b6000613146601283612747565b915061315182613110565b602082019050919050565b6000602082019050818103600083015261317581613139565b9050919050565b7f436f6e7472616374207769746820676976656e206964656e746966696572206160008201527f6c72656164792065786973747300000000000000000000000000000000000000602082015250565b60006131d8602d83612747565b91506131e38261317c565b604082019050919050565b60006020820190508181036000830152613207816131cb565b9050919050565b60006020601f8301049050919050565b600082821b905092915050565b60006008830261325b7fffffffffffffffffffffffffffffffffffffffffffffffffffffffffffffffff8261321e565b613265868361321e565b95508019841693508086168417925050509392505050565b6000819050919050565b60006132a261329d6132988461213e565b61327d565b61213e565b9050919050565b6000819050919050565b6132bc83613287565b6132d06132c8826132a9565b84845461322b565b825550505050565b600090565b6132e56132d8565b6132f08184846132b3565b505050565b5b81811015613314576133096000826132dd565b6001810190506132f6565b5050565b601f8211156133595761332a81613061565b6133338461320e565b81016020851015613342578190505b61335661334e8561320e565b8301826132f5565b50505b505050565b600082821c905092915050565b600061337c6000198460080261335e565b1980831691505092915050565b6000613395838361336b565b9150826002028217905092915050565b6133ae82612157565b67ffffffffffffffff8111156133c7576133c6611fb7565b5b6133d18254613030565b6133dc828285613318565b600060209050601f83116001811461340f57600084156133fd578287015190505b6134078582613389565b86555061346f565b601f19841661341d86613061565b60005b8281101561344557848901518255600182019150602085019450602081019050613420565b86831015613462578489015161345e601f89168261336b565b8355505b6001600288020188555050505b505050505050565b7f4f6e6c79206c616e646c6f72642063616e20706572666f726d2074686973206160008201527f6374696f6e000000000000000000000000000000000000000000000000000000602082015250565b60006134d3602583612747565b91506134de82613477565b604082019050919050565b60006020820190508181036000830152613502816134c6565b9050919050565b60008154905061351881613030565b9050919050565b60008190508160005260206000209050919050565b60008160601c9050919050565b60008160601b9050919050565b600061355982613541565b9050919050565b600061357361356e83613534565b61354e565b9050919050565b60006135868254613560565b9050919050565b600061359882613509565b82601f8211156135ae576135ab8461351f565b90505b6135b78161357a565b925060148210156135f7576135f27fffffffffffffffffffffffffffffffffffffffff0000000000000000000000008360140360080261321e565b831692505b5050919050565b7f4f6e6c79207468652074656e616e742063616e20706572666f726d207468697360008201527f20616374696f6e00000000000000000000000000000000000000000000000000602082015250565b600061365a602783612747565b9150613665826135fe565b604082019050919050565b600060208201905081810360008301526136898161364d565b905091905056fea26469706673582212204cc670f266c8ddd5c97c21168e3e3e93dc7de1817763a0f68dae9aa381c1becb64736f6c63430008180033",
  "linkReferences": {},
  "deployedLinkReferences": {}
}