{
  "_format": "hh-sol-artifact-1",
  "contractName": "HouseRentalContract",
  "sourceName": "contracts/UpdatedRentalContract.sol",
  "abi": [
    {
      "anonymous": false,
      "inputs": [
        {
          "indexed": true,
          "internalType": "bytes6",
          "name": "contractId",
          "type": "bytes6"
        },
        {
          "indexed": true,
          "internalType": "address",
          "name": "owner",
          "type": "address"
        },
        {
          "indexed": false,
          "internalType": "uint256",
          "name": "timestamp",
          "type": "uint256"
        }
      ],
      "name": "ContractCreated",
      "type": "event"
    },
    {
      "anonymous": false,
      "inputs": [
        {
          "indexed": true,
          "internalType": "bytes6",
          "name": "contractId",
          "type": "bytes6"
        },
        {
          "indexed": false,
          "internalType": "uint256",
          "name": "timestamp",
          "type": "uint256"
        }
      ],
      "name": "ContractEnded",
      "type": "event"
    },
    {
      "anonymous": false,
      "inputs": [
        {
          "indexed": true,
          "internalType": "bytes6",
          "name": "contractId",
          "type": "bytes6"
        },
        {
          "indexed": false,
          "internalType": "uint256",
          "name": "timestamp",
          "type": "uint256"
        }
      ],
      "name": "ContractSigned",
      "type": "event"
    },
    {
      "anonymous": false,
      "inputs": [
        {
          "indexed": true,
          "internalType": "bytes6",
          "name": "contractId",
          "type": "bytes6"
        },
        {
          "indexed": false,
          "internalType": "uint256",
          "name": "timestamp",
          "type": "uint256"
        }
      ],
      "name": "ContractUpdated",
      "type": "event"
    },
    {
      "anonymous": false,
      "inputs": [
        {
          "indexed": true,
          "internalType": "bytes6",
          "name": "contractId",
          "type": "bytes6"
        },
        {
          "indexed": false,
          "internalType": "uint256",
          "name": "amount",
          "type": "uint256"
        },
        {
          "indexed": false,
          "internalType": "uint256",
          "name": "timestamp",
          "type": "uint256"
        }
      ],
      "name": "DepositPaid",
      "type": "event"
    },
    {
      "anonymous": false,
      "inputs": [
        {
          "indexed": true,
          "internalType": "bytes6",
          "name": "contractId",
          "type": "bytes6"
        },
        {
          "indexed": false,
          "internalType": "uint256",
          "name": "amount",
          "type": "uint256"
        },
        {
          "indexed": false,
          "internalType": "uint256",
          "name": "timestamp",
          "type": "uint256"
        }
      ],
      "name": "DepositReleaseRequested",
      "type": "event"
    },
    {
      "anonymous": false,
      "inputs": [
        {
          "indexed": true,
          "internalType": "bytes6",
          "name": "contractId",
          "type": "bytes6"
        },
        {
          "indexed": false,
          "internalType": "uint256",
          "name": "amount",
          "type": "uint256"
        },
        {
          "indexed": false,
          "internalType": "uint256",
          "name": "timestamp",
          "type": "uint256"
        }
      ],
      "name": "DepositReleased",
      "type": "event"
    },
    {
      "inputs": [
        {
          "internalType": "bytes6",
          "name": "contractId",
          "type": "bytes6"
        },
        {
          "internalType": "uint256",
          "name": "requestIndex",
          "type": "uint256"
        }
      ],
      "name": "approveDepositRelease",
      "outputs": [],
      "stateMutability": "nonpayable",
      "type": "function"
    },
    {
      "inputs": [
        {
          "internalType": "bytes6",
          "name": "",
          "type": "bytes6"
        }
      ],
      "name": "contractOwners",
      "outputs": [
        {
          "internalType": "address",
          "name": "",
          "type": "address"
        }
      ],
      "stateMutability": "view",
      "type": "function"
    },
    {
      "inputs": [
        {
          "internalType": "bytes6",
          "name": "",
          "type": "bytes6"
        }
      ],
      "name": "contracts",
      "outputs": [
        {
          "internalType": "uint256",
          "name": "creationDate",
          "type": "uint256"
        },
        {
          "components": [
            {
              "internalType": "string",
              "name": "name",
              "type": "string"
            },
            {
              "internalType": "string",
              "name": "identificationNumber",
              "type": "string"
            },
            {
              "internalType": "string",
              "name": "house_address",
              "type": "string"
            }
          ],
          "internalType": "struct HouseRentalContract.PersonalInfo",
          "name": "landlord",
          "type": "tuple"
        },
        {
          "components": [
            {
              "internalType": "string",
              "name": "name",
              "type": "string"
            },
            {
              "internalType": "string",
              "name": "identificationNumber",
              "type": "string"
            },
            {
              "internalType": "string",
              "name": "house_address",
              "type": "string"
            }
          ],
          "internalType": "struct HouseRentalContract.PersonalInfo",
          "name": "tenant",
          "type": "tuple"
        },
        {
          "components": [
            {
              "internalType": "string",
              "name": "rent_address",
              "type": "string"
            },
            {
              "internalType": "string",
              "name": "buildingType",
              "type": "string"
            },
            {
              "internalType": "uint256",
              "name": "rentPeriod",
              "type": "uint256"
            },
            {
              "internalType": "uint256",
              "name": "effectiveStartDate",
              "type": "uint256"
            },
            {
              "internalType": "uint256",
              "name": "effectiveEndDate",
              "type": "uint256"
            },
            {
              "internalType": "uint256",
              "name": "monthlyRent",
              "type": "uint256"
            },
            {
              "internalType": "string",
              "name": "paymentMethod",
              "type": "string"
            },
            {
              "internalType": "uint256",
              "name": "maxOverduePeriod",
              "type": "uint256"
            },
            {
              "internalType": "uint256",
              "name": "deposit",
              "type": "uint256"
            },
            {
              "internalType": "int256",
              "name": "latitude",
              "type": "int256"
            },
            {
              "internalType": "int256",
              "name": "longitude",
              "type": "int256"
            }
          ],
          "internalType": "struct HouseRentalContract.HouseDetails",
          "name": "houseDetails",
          "type": "tuple"
        },
        {
          "internalType": "string",
          "name": "agreementDetails",
          "type": "string"
        },
        {
          "internalType": "string",
          "name": "landlordSignature",
          "type": "string"
        },
        {
          "internalType": "string",
          "name": "tenantSignature",
          "type": "string"
        },
        {
          "internalType": "string",
          "name": "password",
          "type": "string"
        },
        {
          "internalType": "address",
          "name": "tenantAddress",
          "type": "address"
        },
        {
          "internalType": "bool",
          "name": "depositPaid",
          "type": "bool"
        },
        {
          "internalType": "bool",
          "name": "depositReleased",
          "type": "bool"
        },
        {
          "internalType": "bool",
          "name": "contractActive",
          "type": "bool"
        },
        {
          "internalType": "uint256",
          "name": "remainingDeposit",
          "type": "uint256"
        }
      ],
      "stateMutability": "view",
      "type": "function"
    },
    {
      "inputs": [
        {
          "internalType": "bytes6",
          "name": "_uniqueIdentifier",
          "type": "bytes6"
        },
        {
          "components": [
            {
              "internalType": "string",
              "name": "name",
              "type": "string"
            },
            {
              "internalType": "string",
              "name": "identificationNumber",
              "type": "string"
            },
            {
              "internalType": "string",
              "name": "house_address",
              "type": "string"
            }
          ],
          "internalType": "struct HouseRentalContract.PersonalInfo",
          "name": "_landlord",
          "type": "tuple"
        },
        {
          "components": [
            {
              "internalType": "string",
              "name": "name",
              "type": "string"
            },
            {
              "internalType": "string",
              "name": "identificationNumber",
              "type": "string"
            },
            {
              "internalType": "string",
              "name": "house_address",
              "type": "string"
            }
          ],
          "internalType": "struct HouseRentalContract.PersonalInfo",
          "name": "_tenant",
          "type": "tuple"
        },
        {
          "components": [
            {
              "internalType": "string",
              "name": "rent_address",
              "type": "string"
            },
            {
              "internalType": "string",
              "name": "buildingType",
              "type": "string"
            },
            {
              "internalType": "uint256",
              "name": "rentPeriod",
              "type": "uint256"
            },
            {
              "internalType": "uint256",
              "name": "effectiveStartDate",
              "type": "uint256"
            },
            {
              "internalType": "uint256",
              "name": "effectiveEndDate",
              "type": "uint256"
            },
            {
              "internalType": "uint256",
              "name": "monthlyRent",
              "type": "uint256"
            },
            {
              "internalType": "string",
              "name": "paymentMethod",
              "type": "string"
            },
            {
              "internalType": "uint256",
              "name": "maxOverduePeriod",
              "type": "uint256"
            },
            {
              "internalType": "uint256",
              "name": "deposit",
              "type": "uint256"
            },
            {
              "internalType": "int256",
              "name": "latitude",
              "type": "int256"
            },
            {
              "internalType": "int256",
              "name": "longitude",
              "type": "int256"
            }
          ],
          "internalType": "struct HouseRentalContract.HouseDetails",
          "name": "_houseDetails",
          "type": "tuple"
        },
        {
          "internalType": "string",
          "name": "_agreementDetails",
          "type": "string"
        },
        {
          "internalType": "string[]",
          "name": "_tenantAgreements",
          "type": "string[]"
        },
        {
          "internalType": "string[]",
          "name": "_landlordResponsibilities",
          "type": "string[]"
        },
        {
          "internalType": "string[]",
          "name": "_agreementsBetweenLandlord",
          "type": "string[]"
        },
        {
          "internalType": "string",
          "name": "_landlordSignature",
          "type": "string"
        },
        {
          "internalType": "string",
          "name": "_tenantSignature",
          "type": "string"
        },
        {
          "internalType": "string",
          "name": "_password",
          "type": "string"
        }
      ],
      "name": "createContract",
      "outputs": [],
      "stateMutability": "nonpayable",
      "type": "function"
    },
    {
      "inputs": [
        {
          "internalType": "bytes6",
          "name": "",
          "type": "bytes6"
        },
        {
          "internalType": "uint256",
          "name": "",
          "type": "uint256"
        }
      ],
      "name": "depositReleaseRequests",
      "outputs": [
        {
          "internalType": "uint256",
          "name": "amount",
          "type": "uint256"
        },
        {
          "internalType": "uint256",
          "name": "timestamp",
          "type": "uint256"
        },
        {
          "internalType": "bool",
          "name": "active",
          "type": "bool"
        }
      ],
      "stateMutability": "view",
      "type": "function"
    },
    {
      "inputs": [
        {
          "internalType": "bytes6",
          "name": "contractId",
          "type": "bytes6"
        }
      ],
      "name": "endContract",
      "outputs": [],
      "stateMutability": "nonpayable",
      "type": "function"
    },
    {
      "inputs": [
        {
          "internalType": "bytes6",
          "name": "contractId",
          "type": "bytes6"
        },
        {
          "internalType": "string",
          "name": "_password",
          "type": "string"
        }
      ],
      "name": "getContract",
      "outputs": [
        {
          "components": [
            {
              "internalType": "uint256",
              "name": "creationDate",
              "type": "uint256"
            },
            {
              "components": [
                {
                  "internalType": "string",
                  "name": "name",
                  "type": "string"
                },
                {
                  "internalType": "string",
                  "name": "identificationNumber",
                  "type": "string"
                },
                {
                  "internalType": "string",
                  "name": "house_address",
                  "type": "string"
                }
              ],
              "internalType": "struct HouseRentalContract.PersonalInfo",
              "name": "landlord",
              "type": "tuple"
            },
            {
              "components": [
                {
                  "internalType": "string",
                  "name": "name",
                  "type": "string"
                },
                {
                  "internalType": "string",
                  "name": "identificationNumber",
                  "type": "string"
                },
                {
                  "internalType": "string",
                  "name": "house_address",
                  "type": "string"
                }
              ],
              "internalType": "struct HouseRentalContract.PersonalInfo",
              "name": "tenant",
              "type": "tuple"
            },
            {
              "components": [
                {
                  "internalType": "string",
                  "name": "rent_address",
                  "type": "string"
                },
                {
                  "internalType": "string",
                  "name": "buildingType",
                  "type": "string"
                },
                {
                  "internalType": "uint256",
                  "name": "rentPeriod",
                  "type": "uint256"
                },
                {
                  "internalType": "uint256",
                  "name": "effectiveStartDate",
                  "type": "uint256"
                },
                {
                  "internalType": "uint256",
                  "name": "effectiveEndDate",
                  "type": "uint256"
                },
                {
                  "internalType": "uint256",
                  "name": "monthlyRent",
                  "type": "uint256"
                },
                {
                  "internalType": "string",
                  "name": "paymentMethod",
                  "type": "string"
                },
                {
                  "internalType": "uint256",
                  "name": "maxOverduePeriod",
                  "type": "uint256"
                },
                {
                  "internalType": "uint256",
                  "name": "deposit",
                  "type": "uint256"
                },
                {
                  "internalType": "int256",
                  "name": "latitude",
                  "type": "int256"
                },
                {
                  "internalType": "int256",
                  "name": "longitude",
                  "type": "int256"
                }
              ],
              "internalType": "struct HouseRentalContract.HouseDetails",
              "name": "houseDetails",
              "type": "tuple"
            },
            {
              "internalType": "string",
              "name": "agreementDetails",
              "type": "string"
            },
            {
              "internalType": "string[]",
              "name": "tenantAgreements",
              "type": "string[]"
            },
            {
              "internalType": "string[]",
              "name": "landlordResponsibilities",
              "type": "string[]"
            },
            {
              "internalType": "string[]",
              "name": "agreementsBetweenLandlord",
              "type": "string[]"
            },
            {
              "internalType": "string",
              "name": "landlordSignature",
              "type": "string"
            },
            {
              "internalType": "string",
              "name": "tenantSignature",
              "type": "string"
            },
            {
              "internalType": "string",
              "name": "password",
              "type": "string"
            },
            {
              "internalType": "address",
              "name": "tenantAddress",
              "type": "address"
            },
            {
              "internalType": "bool",
              "name": "depositPaid",
              "type": "bool"
            },
            {
              "internalType": "bool",
              "name": "depositReleased",
              "type": "bool"
            },
            {
              "internalType": "bool",
              "name": "contractActive",
              "type": "bool"
            },
            {
              "internalType": "uint256",
              "name": "remainingDeposit",
              "type": "uint256"
            }
          ],
          "internalType": "struct HouseRentalContract.ContractTerms",
          "name": "",
          "type": "tuple"
        }
      ],
      "stateMutability": "view",
      "type": "function"
    },
    {
      "inputs": [
        {
          "internalType": "bytes6",
          "name": "contractId",
          "type": "bytes6"
        }
      ],
      "name": "getDepositBalance",
      "outputs": [
        {
          "internalType": "uint256",
          "name": "",
          "type": "uint256"
        }
      ],
      "stateMutability": "view",
      "type": "function"
    },
    {
      "inputs": [
        {
          "internalType": "bytes6",
          "name": "contractId",
          "type": "bytes6"
        }
      ],
      "name": "getDepositReleaseRequests",
      "outputs": [
        {
          "components": [
            {
              "internalType": "uint256",
              "name": "amount",
              "type": "uint256"
            },
            {
              "internalType": "uint256",
              "name": "timestamp",
              "type": "uint256"
            },
            {
              "internalType": "bool",
              "name": "active",
              "type": "bool"
            }
          ],
          "internalType": "struct HouseRentalContract.DepositReleaseRequest[]",
          "name": "",
          "type": "tuple[]"
        }
      ],
      "stateMutability": "view",
      "type": "function"
    },
    {
      "inputs": [
        {
          "internalType": "bytes6",
          "name": "contractId",
          "type": "bytes6"
        }
      ],
      "name": "refundDeposit",
      "outputs": [],
      "stateMutability": "nonpayable",
      "type": "function"
    },
    {
      "inputs": [
        {
          "internalType": "bytes6",
          "name": "contractId",
          "type": "bytes6"
        },
        {
          "internalType": "uint256",
          "name": "requestIndex",
          "type": "uint256"
        }
      ],
      "name": "rejectDepositRelease",
      "outputs": [],
      "stateMutability": "nonpayable",
      "type": "function"
    },
    {
      "inputs": [
        {
          "internalType": "bytes6",
          "name": "contractId",
          "type": "bytes6"
        },
        {
          "internalType": "uint256",
          "name": "amount",
          "type": "uint256"
        }
      ],
      "name": "requestDepositRelease",
      "outputs": [],
      "stateMutability": "nonpayable",
      "type": "function"
    },
    {
      "inputs": [
        {
          "internalType": "bytes6",
          "name": "contractId",
          "type": "bytes6"
        },
        {
          "internalType": "string",
          "name": "_password",
          "type": "string"
        },
        {
          "internalType": "string",
          "name": "_name",
          "type": "string"
        },
        {
          "internalType": "string",
          "name": "_identificationNumber",
          "type": "string"
        },
        {
          "internalType": "string",
          "name": "_houseAddress",
          "type": "string"
        },
        {
          "internalType": "string",
          "name": "_tenantSignature",
          "type": "string"
        }
      ],
      "name": "signContract",
      "outputs": [],
      "stateMutability": "payable",
      "type": "function"
    },
    {
      "inputs": [
        {
          "internalType": "bytes6",
          "name": "contractId",
          "type": "bytes6"
        },
        {
          "internalType": "string",
          "name": "_password",
          "type": "string"
        },
        {
          "internalType": "string",
          "name": "_agreementDetails",
          "type": "string"
        },
        {
          "internalType": "string[]",
          "name": "_tenantAgreements",
          "type": "string[]"
        },
        {
          "internalType": "string[]",
          "name": "_landlordResponsibilities",
          "type": "string[]"
        },
        {
          "internalType": "string[]",
          "name": "_agreementsBetweenLandlord",
          "type": "string[]"
        },
        {
          "internalType": "string",
          "name": "_landlordSignature",
          "type": "string"
        },
        {
          "internalType": "string",
          "name": "_tenantSignature",
          "type": "string"
        },
        {
          "internalType": "address",
          "name": "_tenantAddress",
          "type": "address"
        },
        {
          "internalType": "uint256",
          "name": "_effectiveStartDate",
          "type": "uint256"
        },
        {
          "internalType": "uint256",
          "name": "_effectiveEndDate",
          "type": "uint256"
        }
      ],
      "name": "updateContract",
      "outputs": [],
      "stateMutability": "nonpayable",
      "type": "function"
    }
  ],
  "bytecode": "0x6080806040523461001657613e7a908161001c8239f35b600080fdfe6080604052600436101561001257600080fd5b60003560e01c8063157e21f714612f8c57806329c2dc4e14612f13578063306c7a6314612ea35780635039a08c14612db2578063792855e4146129fc5780639aa5543e1461126d5780639cfa058b1461110d578063a310443314610f5a578063ca52c3c214610e08578063cc8e3dde14610dc5578063d557e70214610d87578063f437a24d14610c59578063f78f38b4146101675763fa34d5aa146100b657600080fd5b34610162576020366003190112610162576001600160d01b03196100d86135de565b168060005260016020526100fa60018060a01b03604060002054163314613cff565b80600052600060205261011a60ff60196040600020015460b01c16613da5565b806000526000602052601960406000200160ff60b01b1981541690557f47933618ed5daf6ec135a2d05b0586259833ca21b20043c6e4c525cb0502c0dc6020604051428152a2005b600080fd5b3461016257610160366003190112610162576101816135de565b6024356001600160401b038111610162576101a0903690600401613669565b6044356001600160401b038111610162576101bf903690600401613669565b906064356001600160401b038111610162576101df9036906004016138e9565b6084356001600160401b038111610162576101fe9036906004016138e9565b60a4356001600160401b0381116101625761021d9036906004016138e9565b60c4356001600160401b0381116101625761023c903690600401613669565b9160e4356001600160401b0381116101625761025c903690600401613669565b61010435959094906001600160a01b03871687036101625761031a9065ffffffffffff60d01b8a1660005260016020526102a460018060a01b03604060002054163314613cff565b65ffffffffffff60d01b8a16600052600060205260186040600020016040516102e3816102d5602082018095613b6b565b03601f198101835282613648565b519020906040516103116020828161030481830196878151938492016136f1565b8101038084520182613648565b51902014613bef565b65ffffffffffff60d01b881660005260006020526040600020968051906001600160401b0382116106315761035260128a0154613968565b601f8111610c24575b50602090601f8311600114610bb25761038d929160009183610ba7575b50508160011b916000199060031b1c19161790565b60128801555b805190600160401b82116106315760138801548260138a0155808310610b2f575b5060200190601388016000526020600020916000905b828210610a1f5750505050805190600160401b82116106315760148701548260148901558083106109a7575b5060200190601487016000526020600020916000905b82821061088c5750505050805190600160401b8211610631576015860154826015880155808310610814575b5060200190601586016000526020600020916000905b8282106106ee57505050508051906001600160401b038211610631576104776016860154613968565b601f81116106b9575b50602090601f8311600114610647576104b19291600091836105815750508160011b916000199060031b1c19161790565b60168401555b805160178401916001600160401b038211610631576104d68354613968565b601f81116105f4575b50602090601f831160011461058c576105109291600091836105815750508160011b916000199060031b1c19161790565b90555b601982019060018060a01b03166bffffffffffffffffffffffff60a01b82541617905561012435600a820155600b610144359101557f0cc49eaa5a4e01877eb9ef0128739d175fbccda52502904818ec03ac3d23d12f60206040519242845265ffffffffffff60d01b1692a2005b015190508780610378565b90601f198316918460005260206000209260005b8181106105dc57509084600195949392106105c3575b505050811b019055610513565b015160001960f88460031b161c191690558680806105b6565b929360206001819287860151815501950193016105a0565b61062190846000526020600020601f850160051c81019160208610610627575b601f0160051c0190613c30565b866104df565b9091508190610614565b634e487b7160e01b600052604160045260246000fd5b9190601686016000526020600020906000935b601f198416851061069e576001945083601f19811610610685575b505050811b0160168401556104b7565b015160001960f88460031b161c19169055868080610675565b8181015183556020948501946001909301929091019061065a565b6106e890601687016000526020600020601f850160051c8101916020861061062757601f0160051c0190613c30565b86610480565b80518051906001600160401b0382116106315761070b8654613968565b601f81116107d7575b50602090601f8311600114610767579261074d8360019594602094879660009261075c5750508160011b916000199060031b1c19161790565b87555b0194019101909261044e565b015190508f80610378565b908660005260206000209160005b601f19851681106107bf575083602093600196938796938794601f198116106107a6575b505050811b018755610750565b015160001960f88460031b161c191690558e8080610799565b91926020600181928685015181550194019201610775565b610804908760005260206000206005601f8601811c8201926020871061080a575b601f01901c0190613c30565b8b610714565b91925082916107f8565b601587016000526020600020908382015b8183018110610835575050610438565b8061084260019254613968565b8061084f575b5001610825565b601f811183146108655750600081555b8b610848565b600090828252610883601f60208420920160051c8201858301613c30565b8183555561085f565b80518051906001600160401b038211610631576108a98654613968565b601f8111610975575b50602090601f831160011461090557926108eb836001959460209487966000926108fa5750508160011b916000199060031b1c19161790565b87555b0194019101909261040c565b015190503880610378565b908660005260206000209160005b601f198516811061095d575083602093600196938796938794601f19811610610944575b505050811b0187556108ee565b015160001960f88460031b161c191690558f8080610937565b91926020600181928685015181550194019201610913565b6109a1908760005260206000206005601f8601811c8201926020871061080a57601f01901c0190613c30565b8c6108b2565b601488016000526020600020908382015b81830181106109c85750506103f6565b806109d560019254613968565b806109e2575b50016109b8565b601f811183146109f85750600081555b8c6109db565b600090828252610a16601f60208420920160051c8201858301613c30565b818355556109f2565b80518051906001600160401b03821161063157610a3c8654613968565b601f8111610afd575b50602090601f8311600114610a8d5792610a7e836001959460209487966000926108fa5750508160011b916000199060031b1c19161790565b87555b019401910190926103ca565b908660005260206000209160005b601f1985168110610ae5575083602093600196938796938794601f19811610610acc575b505050811b018755610a81565b015160001960f88460031b161c19169055388080610abf565b91926020600181928685015181550194019201610a9b565b610b29908760005260206000206005601f8601811c8201926020871061080a57601f01901c0190613c30565b8d610a45565b601389016000526020600020908382015b8183018110610b505750506103b4565b80610b5d60019254613968565b80610b6a575b5001610b40565b601f81118314610b805750600081555b8d610b63565b600090828252610b9e601f60208420920160051c8201858301613c30565b81835555610b7a565b015190508b80610378565b919060128a016000526020600020906000935b601f1984168510610c09576001945083601f19811610610bf0575b505050811b016012880155610393565b015160001960f88460031b161c191690558a8080610be0565b81810151835560209485019460019093019290910190610bc5565b610c539060128b016000526020600020601f850160051c8101916020861061062757601f0160051c0190613c30565b8a61035b565b34610162576020366003190112610162576001600160d01b0319610c7b6135de565b1680600052600160205260018060a01b03610c9e81604060002054163314613cff565b8160005260006020526040600020600b8101544210610d49576000808083601982950190601a825491610cd760ff8460a81c1615613d59565b015461ffff60a01b198216600160a81b17909255909586918391908315610d3f575b1690f115610d335760407f398abc1c2b2e46ec68f879c3ac11be927ede743d80d52d9968cba00343bf074f918151908152426020820152a2005b6040513d6000823e3d90fd5b6108fc9250610cf9565b60405162461bcd60e51b815260206004820152601660248201527510dbdb9d1c9858dd081b9bdd08195b991959081e595d60521b6044820152606490fd5b34610162576020366003190112610162576001600160d01b0319610da96135de565b1660005260006020526020601a60406000200154604051908152f35b34610162576020366003190112610162576001600160d01b0319610de76135de565b166000526001602052602060018060a01b0360406000205416604051908152f35b34610162576040366003190112610162576001600160d01b0319610e2a6135de565b1680600052602060008152610e5060018060a01b03601960406000200154163314613b0f565b8160005260028152610e6860243560406000206136bf565b5060028101610e7a60ff825416613c47565b81548460005260008452610e98601a60406000200154821115613de7565b8460005260008452601a6040600020018054918203918211610f44575560ff19815416905560008080808454818115610f3b575b3390f115610d33577f398abc1c2b2e46ec68f879c3ac11be927ede743d80d52d9968cba00343bf074f91604091846000526000825282600020601a81015415610f20575b50549082519182524290820152a2005b601901805461ffff60a81b1916600160a81b17905585610f10565b506108fc610ecc565b634e487b7160e01b600052601160045260246000fd5b3461016257604036600319011261016257610f736135de565b6001600160d01b03191660008181526001602090815260409091205460243590610fa7906001600160a01b03163314613cff565b826000526000825260ff60196040600020015460a01c16156110d5578260005260008252610fe360ff60196040600020015460a81c1615613d59565b826000526000825261100260ff60196040600020015460b01c16613da5565b826000526000825261101e601a60406000200154821115613de7565b826000526002825260406000209060405192611039846135f5565b818452808401924284526040850190600182528054600160401b81101561063157611069916001820181556136bf565b9590956110bf577f953fe04a94ff7ce86dc3b4bdddcb01910b42e877955ad5013702d3b195e59fc895604095600292518255516001820155019051151560ff8019835416911617905582519182524290820152a2005b634e487b7160e01b600052600060045260246000fd5b60405162461bcd60e51b815260048101839052601060248201526f11195c1bdcda5d081b9bdd081c185a5960821b6044820152606490fd5b34610162576020366003190112610162576001600160d01b031961112f6135de565b166000526000602052604060002080546001820161114c90613a47565b9161115960048201613a47565b61116560078301613a7f565b611171601284016139a2565b61117d601685016139a2565b611189601786016139a2565b91611196601887016139a2565b93601987015496601a015495604051998a996101a0908b528060208c01528a016111bf91613739565b89810360408b01526111d091613739565b88810360608a01526111e19161377b565b87810360808901526111f291613714565b86810360a088015261120391613714565b85810360c087015261121491613714565b84810360e086015261122591613714565b91600160a01b6001900381166101008501528060a01c60ff1615156101208501528060a81c60ff16151561014085015260b01c60ff1615156101608401526101808301520390f35b346101625760031961016036820112610162576112886135de565b906024356001600160401b038111610162576112a890369060040161385b565b906044356001600160401b038111610162576112c890369060040161385b565b90606435906001600160401b0382116101625761016090823603011261016257604051906112f58261362c565b80600401356001600160401b038111610162576113189060043691840101613669565b825260248101356001600160401b0381116101625761133d9060043691840101613669565b602083015260448101356040830152606481013560608301526084810135608083015260a481013560a083015260c4810135906001600160401b038211610162576113916101449260043691840101613669565b60c084015260e481013560e084015261010481013561010084015261012481013561012084015201356101408201526084356001600160401b038111610162576113df903690600401613669565b60a4356001600160401b038111610162576113fe9036906004016138e9565b60c4356001600160401b0381116101625761141d9036906004016138e9565b6001600160401b0360e435116101625761143c3660e4356004016138e9565b906001600160401b0361010435116101625761145e3661010435600401613669565b926001600160401b036101243511610162576114803661012435600401613669565b94610144356001600160401b038111610162576114a1903690600401613669565b6001600160d01b03198b166000908152600160205260409020549097906001600160a01b03166129a157610100810151986040519a6114df8c613610565b428c5260208c015260408b015260608a0152608089015260a088015260c087015260e08601526101008501526101208401526101408301526000610160830152600061018083015260006101a083015260006101c08301526101e082015265ffffffffffff60d01b8216600052600060205260406000209181518355602082015180518051906001600160401b038211610631576115806001870154613968565b601f811161296c575b50602090601f83116001146128fa576115ba9291600091836105815750508160011b916000199060031b1c19161790565b60018501555b60208101518051906001600160401b038211610631576115e36002870154613968565b601f81116128c5575b50602090601f83116001146128525791806116219260409594600092611c745750508160011b916000199060031b1c19161790565b60028601555b01519283516001600160401b038111610631576116476003830154613968565b601f811161281d575b506020601f82116001146127ae57819061168393949596600092611d2a5750508160011b916000199060031b1c19161790565b60038201555b604083015180518051906001600160401b038211610631576116ae6004850154613968565b601f8111612779575b50602090601f8311600114612707576116e89291600091836105815750508160011b916000199060031b1c19161790565b60048301555b60208101518051906001600160401b038211610631576117116005850154613968565b601f81116126d2575b50602090601f831160011461265f57918061174f9260409594600092611c745750508160011b916000199060031b1c19161790565b60058401555b01519283516001600160401b038111610631576117756006840154613968565b601f811161262a575b506020601f82116001146125bb5781906117b193949596600092611d2a5750508160011b916000199060031b1c19161790565b60068301555b606081015180518051906001600160401b038211610631576117dc6007860154613968565b601f8111612586575b50602090601f8311600114612514576118169291600091836105815750508160011b916000199060031b1c19161790565b60078401555b60208101518051906001600160401b0382116106315761183f6008860154613968565b601f81116124df575b50602090601f831160011461246d576118799291600091836105815750508160011b916000199060031b1c19161790565b60088401555b604081015160098401556060810151600a8401556080810151600b84015560a0810151600c84015560c08101518051906001600160401b038211610631576118ca600d860154613968565b601f8111612438575b50602090601f83116001146123c4579180611909926101409594600092611c745750508160011b916000199060031b1c19161790565b600d8501555b60e0810151600e850155610100810151600f85015561012081015160108501550151601183015560808101519283516001600160401b038111610631576119596012850154613968565b601f811161238f575b506020601f821160011461232057819061199593949596600092611d2a5750508160011b916000199060031b1c19161790565b60128401555b60a0820151805190600160401b82116106315760138501548260138701558083106122a8575b5060200190601385016000526020600020916000905b828210612198575050505060c0820151805190600160401b8211610631576014850154826014870155808310612120575b5060200190601485016000526020600020916000905b828210612010575050505060e0820151805190600160401b8211610631576015850154826015870155808310611f98575b5060200190601585016000526020600020916000905b828210611e7d57505050506101008201519283516001600160401b03811161063157611a946016830154613968565b601f8111611e48575b506020601f8211600114611dd9578190611ad093949596600092611d2a5750508160011b916000199060031b1c19161790565b60168201555b6101208301519283516001600160401b03811161063157611afa6017840154613968565b601f8111611da4575b506020601f8211600114611d35578190611b3693949596600092611d2a5750508160011b916000199060031b1c19161790565b60178301555b6101408101518051906001600160401b03821161063157611b606018850154613968565b601f8111611cf5575b50602090601f8311600114611c7f57826101e093601a9593611ba193600092611c745750508160011b916000199060031b1c19161790565b60188501555b6019840160018060a01b036101608301511681549060ff60a01b610180850151151560a01b1660ff60a81b6101a0860151151560a81b169160ff60b01b6101c0870151151560b01b169368ffffffffffffffffff60b81b16171717179055015191015565ffffffffffff60d01b811660005260016020526040600020336bffffffffffffffffffffffff60a01b8254161790556040514281527fb33818a9e5a811c9aab3a6a5be602cba781d631797144964a715ff66e01d54b16020339365ffffffffffff60d01b1692a3005b015190508880610378565b906018850160005260206000209160005b601f1985168110611cdd575092601a94926001926101e09583601f19811610611cc4575b505050811b016018850155611ba7565b015160001960f88460031b161c19169055878080611cb4565b91926020600181928685015181550194019201611c90565b611d2490601886016000526020600020601f850160051c8101916020861061062757601f0160051c0190613c30565b85611b69565b015190508680610378565b6017840160005260206000209060005b601f1984168110611d8c575060019394959683601f19811610611d73575b505050811b016017830155611b3c565b015160001960f88460031b161c19169055858080611d63565b9091602060018192858b015181550193019101611d45565b611dd390601785016000526020600020601f840160051c8101916020851061062757601f0160051c0190613c30565b85611b03565b6016830160005260206000209060005b601f1984168110611e30575060019394959683601f19811610611e17575b505050811b016016820155611ad6565b015160001960f88460031b161c19169055858080611e07565b9091602060018192858b015181550193019101611de9565b611e7790601684016000526020600020601f840160051c8101916020851061062757601f0160051c0190613c30565b85611a9d565b80518051906001600160401b03821161063157611e9a8654613968565b601f8111611f66575b50602090601f8311600114611ef65792611edc83600195946020948796600092611eeb5750508160011b916000199060031b1c19161790565b87555b01940191019092611a65565b015190508d80610378565b908660005260206000209160005b601f1985168110611f4e575083602093600196938796938794601f19811610611f35575b505050811b018755611edf565b015160001960f88460031b161c191690558c8080611f28565b91926020600181928685015181550194019201611f04565b611f9290876000526020600020601f850160051c8101916020861061062757601f0160051c0190613c30565b89611ea3565b601586016000526020600020908382015b8183018110611fb9575050611a4f565b80611fc660019254613968565b80611fd3575b5001611fa9565b601f81118314611fe95750600081555b89611fcc565b600090828252612007601f60208420920160051c8201858301613c30565b81835555611fe3565b80518051906001600160401b0382116106315761202d8654613968565b601f81116120ee575b50602090601f831160011461207e579261206f83600195946020948796600092611eeb5750508160011b916000199060031b1c19161790565b87555b01940191019092611a1e565b908660005260206000209160005b601f19851681106120d6575083602093600196938796938794601f198116106120bd575b505050811b018755612072565b015160001960f88460031b161c191690558c80806120b0565b9192602060018192868501518155019401920161208c565b61211a90876000526020600020601f850160051c8101916020861061062757601f0160051c0190613c30565b89612036565b601486016000526020600020908382015b8183018110612141575050611a08565b8061214e60019254613968565b8061215b575b5001612131565b601f811183146121715750600081555b89612154565b60009082825261218f601f60208420920160051c8201858301613c30565b8183555561216b565b80518051906001600160401b038211610631576121b58654613968565b601f8111612276575b50602090601f831160011461220657926121f783600195946020948796600092611eeb5750508160011b916000199060031b1c19161790565b87555b019401910190926119d7565b908660005260206000209160005b601f198516811061225e575083602093600196938796938794601f19811610612245575b505050811b0187556121fa565b015160001960f88460031b161c191690558c8080612238565b91926020600181928685015181550194019201612214565b6122a290876000526020600020601f850160051c8101916020861061062757601f0160051c0190613c30565b896121be565b601386016000526020600020908382015b81830181106122c95750506119c1565b806122d660019254613968565b806122e3575b50016122b9565b601f811183146122f95750600081555b896122dc565b600090828252612317601f60208420920160051c8201858301613c30565b818355556122f3565b6012850160005260206000209060005b601f1984168110612377575060019394959683601f1981161061235e575b505050811b01601284015561199b565b015160001960f88460031b161c1916905585808061234e565b9091602060018192858b015181550193019101612330565b6123be90601286016000526020600020601f840160051c8101916020851061062757601f0160051c0190613c30565b85611962565b90600d860160005260206000209160005b601f198516811061242057509183916001936101409695601f19811610612407575b505050811b01600d85015561190f565b015160001960f88460031b161c191690558780806123f7565b919260206001819286850151815501940192016123d5565b61246790600d87016000526020600020601f850160051c8101916020861061062757601f0160051c0190613c30565b866118d3565b9190600886016000526020600020906000935b601f19841685106124c4576001945083601f198116106124ab575b505050811b01600884015561187f565b015160001960f88460031b161c1916905586808061249b565b81810151835560209485019460019093019290910190612480565b61250e90600887016000526020600020601f850160051c8101916020861061062757601f0160051c0190613c30565b86611848565b9190600786016000526020600020906000935b601f198416851061256b576001945083601f19811610612552575b505050811b01600784015561181c565b015160001960f88460031b161c19169055868080612542565b81810151835560209485019460019093019290910190612527565b6125b590600787016000526020600020601f850160051c8101916020861061062757601f0160051c0190613c30565b866117e5565b6006840160005260206000209060005b601f1984168110612612575060019394959683601f198116106125f9575b505050811b0160068301556117b7565b015160001960f88460031b161c191690558580806125e9565b9091602060018192858b0151815501930191016125cb565b61265990600685016000526020600020601f840160051c8101916020851061062757601f0160051c0190613c30565b8561177e565b906005850160005260206000209160005b601f19851681106126ba575091839160019360409695601f198116106126a1575b505050811b016005840155611755565b015160001960f88460031b161c19169055878080612691565b91926020600181928685015181550194019201612670565b61270190600586016000526020600020601f850160051c8101916020861061062757601f0160051c0190613c30565b8661171a565b9190600485016000526020600020906000935b601f198416851061275e576001945083601f19811610612745575b505050811b0160048301556116ee565b015160001960f88460031b161c19169055868080612735565b8181015183556020948501946001909301929091019061271a565b6127a890600486016000526020600020601f850160051c8101916020861061062757601f0160051c0190613c30565b866116b7565b6003830160005260206000209060005b601f1984168110612805575060019394959683601f198116106127ec575b505050811b016003820155611689565b015160001960f88460031b161c191690558580806127dc565b9091602060018192858b0151815501930191016127be565b61284c90600384016000526020600020601f840160051c8101916020851061062757601f0160051c0190613c30565b85611650565b906002870160005260206000209160005b601f19851681106128ad575091839160019360409695601f19811610612894575b505050811b016002860155611627565b015160001960f88460031b161c19169055878080612884565b91926020600181928685015181550194019201612863565b6128f490600288016000526020600020601f850160051c8101916020861061062757601f0160051c0190613c30565b866115ec565b9190600187016000526020600020906000935b601f1984168510612951576001945083601f19811610612938575b505050811b0160018501556115c0565b015160001960f88460031b161c19169055868080612928565b8181015183556020948501946001909301929091019061290d565b61299b90600188016000526020600020601f850160051c8101916020861061062757601f0160051c0190613c30565b86611589565b60405162461bcd60e51b815260206004820152602d60248201527f436f6e7472616374207769746820676976656e206964656e746966696572206160448201526c6c72656164792065786973747360981b6064820152608490fd5b3461016257604036600319011261016257612a156135de565b6024356001600160401b03811161016257612a37612b40913690600401613669565b9160006101e0604051612a4981613610565b828152612a54613c8b565b6020820152612a61613c8b565b6040820152604051612a728161362c565b60608152606060208201528360408201528360608201528360808201528360a0820152606060c08201528360e0820152836101008201528361012082015283610140820152606082015260606080820152606060a0820152606060c0820152606060e08201526060610100820152606061012082015260606101408201528261016082015282610180820152826101a0820152826101c0820152015265ffffffffffff60d01b169182600052600060205260186040600020016040516102e3816102d5602082018095613b6b565b600052600060205261022060206040600020601a60405191612b6183613610565b80548352612b7160018201613a47565b84840152612b8160048201613a47565b6040840152612b9260078201613a7f565b6060840152612ba3601282016139a2565b6080840152612bb460138201613caa565b60a0840152612bc560148201613caa565b60c0840152612bd660158201613caa565b60e0840152612be7601682016139a2565b610100840152612bf9601782016139a2565b610120840152612c0b601882016139a2565b61014084015260ff601982015460018060a01b038116610160860152818160a01c161515610180860152818160a81c1615156101a086015260b01c1615156101c084015201546101e08201526101e0612d69612d51612d39612d21612d0a612cf4612cde612cc8612cb2612c9c8b6040519e8f9e8f9281845280518285015201519161020060408201520190613739565b60408c01518d8203601f190160608f0152613739565b60608b01518c8203601f190160808e015261377b565b60808a01518b8203601f190160a08d0152613714565b60a08901518a8203601f190160c08c01526137fe565b60c0880151898203601f190160e08b01526137fe565b60e0870151888203601f19016101008a01526137fe565b610100860151878203601f1901610120890152613714565b610120850151868203601f1901610140880152613714565b610140840151858203601f1901610160870152613714565b9160018060a01b036101608201511661018085015261018081015115156101a08501526101a081015115156101c08501526101c081015115158285015201516102008301520390f35b3461016257602080600319360112610162576001600160d01b0319612dd56135de565b16600052600290600281526040600020918254612df1816138d2565b91612dff6040519384613648565b81835260009485528385208484019591865b848410612e6957604080518881528751818a018190528a928201908a60005b828110612e3d5784840385f35b855180518552808301518584015260409081015115159085015294810194606090930192600101612e30565b600387600192604051612e7b816135f5565b86548152848701548382015260ff868801541615156040820152815201930193019291612e11565b3461016257604036600319011261016257612ebc6135de565b6024359065ffffffffffff60d01b1660005260026020526040600020805482101561016257606091612eed916136bf565b5080549060ff600260018301549201541690604051928352602083015215156040820152f35b34610162576040366003190112610162576001600160d01b0319612f356135de565b16806000526000602052612f5a60018060a01b03601960406000200154163314613b0f565b60005260026020526002612f7460243560406000206136bf565b50018054612f8460ff8216613c47565b60ff19169055005b60c036600319011261016257612fa06135de565b6024906001600160401b0390823582811161016257612fc3903690600401613669565b9260443583811161016257612fdc903690600401613669565b9260643581811161016257612ff5903690600401613669565b936084358281116101625761300e903690600401613669565b9360a43583811161016257613027903690600401613669565b9065ffffffffffff60d01b1696876000526020966000885261305a60018060a01b03601960406000200154163314613b0f565b88600052600088526130b460186040600020019260405193846130808c82018093613b6b565b0394613094601f1996878101835282613648565b519020906040516103118c828161030481830196878151938492016136f1565b8860005260008852600f60406000200154340361359a578860005260008852604060002096600488018551878111613427576130f08254613968565b96601f978c898211613561575b50508b908883116001146134fa5761312d92916000918361343c5750508160011b916000199060031b1c19161790565b90555b600591828901908051908882116134e55761314b8354613968565b8c8982116134ae575b50508b908883116001146134475761318492916000918361343c5750508160011b916000199060031b1c19161790565b90555b805160068901918782116134275761319f8354613968565b8b8882116133f0575b50508a90878311600114613389576131d8929160009183611eeb5750508160011b916000199060031b1c19161790565b90555b6017870195835195861161337557506131f48654613968565b84811161333d575b5050869284116001146132b357509261325583601994604097947febbf6b2760b055c34e7d54bccf7079ca90030b876fbf1d76c144a76d2812359499976000926132a85750508160011b916000199060031b1c19161790565b90555b01805462ff00ff60a01b19166201000160a01b179055815142815284907f85b74a154907154c273caeb0be924feadb5271097e078bfd27ef84f1a75f05e8908390a28151903482524290820152a2005b015190508a80610378565b60008581528781209392918516905b818110613326575093604096937febbf6b2760b055c34e7d54bccf7079ca90030b876fbf1d76c144a76d28123594989693600193836019981061330d575b505050811b019055613258565b015160001960f88460031b161c19169055898080613300565b9293886001819287860151815501950193016132c2565b6133659187600052896000209086808901821c8301938c8a1061336c575b01901c0190613c30565b88806131fc565b9350829361335b565b634e487b7160e01b60009081526041600452fd5b9085831691846000528c600020928d6000905b8282106133d95750509084600195949392106133c0575b505050811b0190556131db565b015160001960f88460031b161c191690558c80806133b3565b60018596829396860151815501950193018e61339c565b6134179185600052898260002091818701891c830193871061341e575b01871c0190613c30565b8c8b6131a8565b9250819261340d565b88634e487b7160e01b60005260416004526000fd5b015190508e80610378565b908c918784168560005283600020936000905b82821061349757505090846001959493921061347e575b505050811b019055613187565b015160001960f88460031b161c191690558d8080613471565b60018596829396860151815501950193018f61345a565b6134d591856000528a82600020918187018a1c83019387106134dc575b01881c0190613c30565b8d8c613154565b925081926134cb565b89634e487b7160e01b60005260416004526000fd5b908c918784168560005283600020936000905b82821061354a575050908460019594939210613531575b505050811b019055613130565b015160001960f88460031b161c191690558d8080613524565b60018596829396860151815501950193018f61350d565b61358a91856000528a826000209181870160051c8301938710613591575b0160051c0190613c30565b8d8c6130fd565b9250819261357f565b60405162461bcd60e51b8152600481018990526018818801527f496e636f7272656374206465706f73697420616d6f756e7400000000000000006044820152606490fd5b600435906001600160d01b03198216820361016257565b606081019081106001600160401b0382111761063157604052565b61020081019081106001600160401b0382111761063157604052565b61016081019081106001600160401b0382111761063157604052565b90601f801991011681019081106001600160401b0382111761063157604052565b81601f82011215610162578035906001600160401b038211610631576040519261369d601f8401601f191660200185613648565b8284526020838301011161016257816000926020809301838601378301015290565b80548210156136db576000526003602060002091020190600090565b634e487b7160e01b600052603260045260246000fd5b60005b8381106137045750506000910152565b81810151838201526020016136f4565b9060209161372d815180928185528580860191016136f1565b601f01601f1916010190565b6137789160406137676137558451606085526060850190613714565b60208501518482036020860152613714565b920151906040818403910152613714565b90565b906137d0613796613755610160855190808652850190613714565b60408401516040840152606084015160608401526080840151608084015260a084015160a084015260c084015183820360c0850152613714565b9160e081015160e0830152610100808201519083015261012080820151908301526101408091015191015290565b90808251908181526020809101926020808460051b8301019501936000915b84831061382d5750505050505090565b909192939495848061384b600193601f198682030187528a51613714565b980193019301919493929061381d565b91906060838203126101625760405190613874826135f5565b81938035916001600160401b03928381116101625781613895918401613669565b8452602082013583811161016257816138af918401613669565b60208501526040820135928311610162576040926138cd9201613669565b910152565b6001600160401b0381116106315760051b60200190565b81601f8201121561016257803591602091613903846138d2565b936139116040519586613648565b808552838086019160051b8301019280841161016257848301915b84831061393c5750505050505090565b82356001600160401b03811161016257869161395d84848094890101613669565b81520192019161392c565b90600182811c92168015613998575b602083101461398257565b634e487b7160e01b600052602260045260246000fd5b91607f1691613977565b906040519182600082546139b581613968565b90818452602094600191600181169081600014613a2557506001146139e6575b5050506139e492500383613648565b565b600090815285812095935091905b818310613a0d5750506139e493508201013880806139d5565b855488840185015294850194879450918301916139f4565b925050506139e494925060ff191682840152151560051b8201013880806139d5565b90604051613a54816135f5565b60406138cd60028395613a66816139a2565b8552613a74600182016139a2565b6020860152016139a2565b90604051613a8c8161362c565b610140600a8294613a9c816139a2565b8452613aaa600182016139a2565b6020850152600281015460408501526003810154606085015260048101546080850152600581015460a0850152613ae3600682016139a2565b60c0850152600781015460e0850152600881015461010085015260098101546101208501520154910152565b15613b1657565b60405162461bcd60e51b815260206004820152602760248201527f4f6e6c79207468652074656e616e742063616e20706572666f726d20746869736044820152661030b1ba34b7b760c91b6064820152608490fd5b600092918154613b7a81613968565b92600191808316908115613bd45750600114613b97575b50505050565b9091929394506000526020906020600020906000915b858310613bc35750505050019038808080613b91565b805485840152918301918101613bad565b60ff1916845250505081151590910201915038808080613b91565b15613bf657565b60405162461bcd60e51b8152602060048201526012602482015271125b98dbdc9c9958dd081c185cdcdddbdc9960721b6044820152606490fd5b818110613c3b575050565b60008155600101613c30565b15613c4e57565b60405162461bcd60e51b815260206004820152601560248201527452657175657374206973206e6f742061637469766560581b6044820152606490fd5b60405190613c98826135f5565b60606040838281528260208201520152565b908154613cb6816138d2565b92613cc46040519485613648565b818452600090815260208082208186015b848410613ce3575050505050565b6001838192613cf1856139a2565b815201920193019290613cd5565b15613d0657565b60405162461bcd60e51b815260206004820152602560248201527f4f6e6c79206c616e646c6f72642063616e20706572666f726d2074686973206160448201526431ba34b7b760d91b6064820152608490fd5b15613d6057565b60405162461bcd60e51b815260206004820152601860248201527f4465706f73697420616c72656164792072656c656173656400000000000000006044820152606490fd5b15613dac57565b60405162461bcd60e51b8152602060048201526013602482015272436f6e7472616374206e6f742061637469766560681b6044820152606490fd5b15613dee57565b60405162461bcd60e51b815260206004820152602860248201527f52657175657374656420616d6f756e742065786365656473206465706f7369746044820152672062616c616e636560c01b6064820152608490fdfea26469706673582212203416ed12dd0269068b7561dd1f6e9a83a83cb78a589a3276787f0bfd1b1a217a64736f6c63430008180033",
  "linkReferences": {},
  "deployedLinkReferences": {}
}