{
  "_format": "hh-sol-artifact-1",
  "contractName": "RentalContract",
  "sourceName": "contracts/RentalContract.sol",
  "abi": [
    {
      "inputs": [
        {
          "internalType": "uint256",
          "name": "",
          "type": "uint256"
        }
      ],
      "name": "contracts",
      "outputs": [
        {
          "internalType": "string",
          "name": "party",
          "type": "string"
        },
        {
          "internalType": "string",
          "name": "land_address",
          "type": "string"
        },
        {
          "internalType": "uint256",
          "name": "rentFee",
          "type": "uint256"
        },
        {
          "internalType": "uint256",
          "name": "rentDuration",
          "type": "uint256"
        },
        {
          "internalType": "string",
          "name": "terms",
          "type": "string"
        },
        {
          "internalType": "uint256",
          "name": "deposit",
          "type": "uint256"
        }
      ],
      "stateMutability": "view",
      "type": "function"
    },
    {
      "inputs": [
        {
          "internalType": "string",
          "name": "_party",
          "type": "string"
        },
        {
          "internalType": "string",
          "name": "_address",
          "type": "string"
        },
        {
          "internalType": "uint256",
          "name": "_rentFee",
          "type": "uint256"
        },
        {
          "internalType": "uint256",
          "name": "_rentDuration",
          "type": "uint256"
        },
        {
          "internalType": "string",
          "name": "_terms",
          "type": "string"
        },
        {
          "internalType": "uint256",
          "name": "_deposit",
          "type": "uint256"
        }
      ],
      "name": "createContract",
      "outputs": [],
      "stateMutability": "nonpayable",
      "type": "function"
    },
    {
      "inputs": [
        {
          "internalType": "uint256",
          "name": "_index",
          "type": "uint256"
        }
      ],
      "name": "getContract",
      "outputs": [
        {
          "internalType": "string",
          "name": "",
          "type": "string"
        },
        {
          "internalType": "string",
          "name": "",
          "type": "string"
        },
        {
          "internalType": "uint256",
          "name": "",
          "type": "uint256"
        },
        {
          "internalType": "uint256",
          "name": "",
          "type": "uint256"
        },
        {
          "internalType": "string",
          "name": "",
          "type": "string"
        },
        {
          "internalType": "uint256",
          "name": "",
          "type": "uint256"
        }
      ],
      "stateMutability": "view",
      "type": "function"
    },
    {
      "inputs": [],
      "name": "getTotalContracts",
      "outputs": [
        {
          "internalType": "uint256",
          "name": "",
          "type": "uint256"
        }
      ],
      "stateMutability": "view",
      "type": "function"
    }
  ],
  "bytecode": "0x608060405234801561001057600080fd5b50610d50806100206000396000f3fe608060405234801561001057600080fd5b506004361061004c5760003560e01c8063474da79a14610051578063534860cc146100865780636ebc8c86146100a45780638bef3551146100d9575b600080fd5b61006b6004803603810190610066919061069a565b6100f5565b60405161007d96959493929190610766565b60405180910390f35b61008e6102d9565b60405161009b91906107dc565b60405180910390f35b6100be60048036038101906100b9919061069a565b6102e5565b6040516100d096959493929190610766565b60405180910390f35b6100f360048036038101906100ee919061092c565b610588565b005b6000818154811061010557600080fd5b906000526020600020906006020160009150905080600001805461012890610a3c565b80601f016020809104026020016040519081016040528092919081815260200182805461015490610a3c565b80156101a15780601f10610176576101008083540402835291602001916101a1565b820191906000526020600020905b81548152906001019060200180831161018457829003601f168201915b5050505050908060010180546101b690610a3c565b80601f01602080910402602001604051908101604052809291908181526020018280546101e290610a3c565b801561022f5780601f106102045761010080835404028352916020019161022f565b820191906000526020600020905b81548152906001019060200180831161021257829003601f168201915b50505050509080600201549080600301549080600401805461025090610a3c565b80601f016020809104026020016040519081016040528092919081815260200182805461027c90610a3c565b80156102c95780601f1061029e576101008083540402835291602001916102c9565b820191906000526020600020905b8154815290600101906020018083116102ac57829003601f168201915b5050505050908060050154905086565b60008080549050905090565b6060806000806060600080878154811061030257610301610a6d565b5b90600052602060002090600602016000016000888154811061032757610326610a6d565b5b90600052602060002090600602016001016000898154811061034c5761034b610a6d565b5b90600052602060002090600602016002015460008a8154811061037257610371610a6d565b5b90600052602060002090600602016003015460008b8154811061039857610397610a6d565b5b906000526020600020906006020160040160008c815481106103bd576103bc610a6d565b5b9060005260206000209060060201600501548580546103db90610a3c565b80601f016020809104026020016040519081016040528092919081815260200182805461040790610a3c565b80156104545780601f1061042957610100808354040283529160200191610454565b820191906000526020600020905b81548152906001019060200180831161043757829003601f168201915b5050505050955084805461046790610a3c565b80601f016020809104026020016040519081016040528092919081815260200182805461049390610a3c565b80156104e05780601f106104b5576101008083540402835291602001916104e0565b820191906000526020600020905b8154815290600101906020018083116104c357829003601f168201915b505050505094508180546104f390610a3c565b80601f016020809104026020016040519081016040528092919081815260200182805461051f90610a3c565b801561056c5780601f106105415761010080835404028352916020019161056c565b820191906000526020600020905b81548152906001019060200180831161054f57829003601f168201915b5050505050915095509550955095509550955091939550919395565b60006040518060c00160405280888152602001878152602001868152602001858152602001848152602001838152509050600081908060018154018082558091505060019003906000526020600020906006020160009091909190915060008201518160000190816105fa9190610c48565b5060208201518160010190816106109190610c48565b506040820151816002015560608201518160030155608082015181600401908161063a9190610c48565b5060a08201518160050155505050505050505050565b6000604051905090565b600080fd5b600080fd5b6000819050919050565b61067781610664565b811461068257600080fd5b50565b6000813590506106948161066e565b92915050565b6000602082840312156106b0576106af61065a565b5b60006106be84828501610685565b91505092915050565b600081519050919050565b600082825260208201905092915050565b60005b838110156107015780820151818401526020810190506106e6565b60008484015250505050565b6000601f19601f8301169050919050565b6000610729826106c7565b61073381856106d2565b93506107438185602086016106e3565b61074c8161070d565b840191505092915050565b61076081610664565b82525050565b600060c0820190508181036000830152610780818961071e565b90508181036020830152610794818861071e565b90506107a36040830187610757565b6107b06060830186610757565b81810360808301526107c2818561071e565b90506107d160a0830184610757565b979650505050505050565b60006020820190506107f16000830184610757565b92915050565b600080fd5b600080fd5b7f4e487b7100000000000000000000000000000000000000000000000000000000600052604160045260246000fd5b6108398261070d565b810181811067ffffffffffffffff8211171561085857610857610801565b5b80604052505050565b600061086b610650565b90506108778282610830565b919050565b600067ffffffffffffffff82111561089757610896610801565b5b6108a08261070d565b9050602081019050919050565b82818337600083830152505050565b60006108cf6108ca8461087c565b610861565b9050828152602081018484840111156108eb576108ea6107fc565b5b6108f68482856108ad565b509392505050565b600082601f830112610913576109126107f7565b5b81356109238482602086016108bc565b91505092915050565b60008060008060008060c087890312156109495761094861065a565b5b600087013567ffffffffffffffff8111156109675761096661065f565b5b61097389828a016108fe565b965050602087013567ffffffffffffffff8111156109945761099361065f565b5b6109a089828a016108fe565b95505060406109b189828a01610685565b94505060606109c289828a01610685565b935050608087013567ffffffffffffffff8111156109e3576109e261065f565b5b6109ef89828a016108fe565b92505060a0610a0089828a01610685565b9150509295509295509295565b7f4e487b7100000000000000000000000000000000000000000000000000000000600052602260045260246000fd5b60006002820490506001821680610a5457607f821691505b602082108103610a6757610a66610a0d565b5b50919050565b7f4e487b7100000000000000000000000000000000000000000000000000000000600052603260045260246000fd5b60008190508160005260206000209050919050565b60006020601f8301049050919050565b600082821b905092915050565b600060088302610afe7fffffffffffffffffffffffffffffffffffffffffffffffffffffffffffffffff82610ac1565b610b088683610ac1565b95508019841693508086168417925050509392505050565b6000819050919050565b6000610b45610b40610b3b84610664565b610b20565b610664565b9050919050565b6000819050919050565b610b5f83610b2a565b610b73610b6b82610b4c565b848454610ace565b825550505050565b600090565b610b88610b7b565b610b93818484610b56565b505050565b5b81811015610bb757610bac600082610b80565b600181019050610b99565b5050565b601f821115610bfc57610bcd81610a9c565b610bd684610ab1565b81016020851015610be5578190505b610bf9610bf185610ab1565b830182610b98565b50505b505050565b600082821c905092915050565b6000610c1f60001984600802610c01565b1980831691505092915050565b6000610c388383610c0e565b9150826002028217905092915050565b610c51826106c7565b67ffffffffffffffff811115610c6a57610c69610801565b5b610c748254610a3c565b610c7f828285610bbb565b600060209050601f831160018114610cb25760008415610ca0578287015190505b610caa8582610c2c565b865550610d12565b601f198416610cc086610a9c565b60005b82811015610ce857848901518255600182019150602085019450602081019050610cc3565b86831015610d055784890151610d01601f891682610c0e565b8355505b6001600288020188555050505b50505050505056fea2646970667358221220ed9ac0b0e824aae8c4ac1bd1fa2b2a8b423a72edcb9adf77675e7e657081282e64736f6c63430008180033",
  "linkReferences": {},
  "deployedLinkReferences": {}
}